{
	"contracts/Compliance_bug_noReceiverKYC.sol": {
		"Compliance_Bug_NoReceiverKYC": {
			"abi": [
				{
					"inputs": [
						{
							"internalType": "address",
							"name": "registry",
							"type": "address"
						},
						{
							"internalType": "bytes2[]",
							"name": "juris",
							"type": "bytes2[]"
						},
						{
							"internalType": "uint8[]",
							"name": "invTypes",
							"type": "uint8[]"
						}
					],
					"stateMutability": "nonpayable",
					"type": "constructor"
				},
				{
					"inputs": [
						{
							"internalType": "uint8",
							"name": "",
							"type": "uint8"
						}
					],
					"name": "allowedInvestorType",
					"outputs": [
						{
							"internalType": "bool",
							"name": "",
							"type": "bool"
						}
					],
					"stateMutability": "view",
					"type": "function"
				},
				{
					"inputs": [
						{
							"internalType": "bytes2",
							"name": "",
							"type": "bytes2"
						}
					],
					"name": "allowedJuris",
					"outputs": [
						{
							"internalType": "bool",
							"name": "",
							"type": "bool"
						}
					],
					"stateMutability": "view",
					"type": "function"
				},
				{
					"inputs": [
						{
							"internalType": "address",
							"name": "from",
							"type": "address"
						},
						{
							"internalType": "address",
							"name": "to",
							"type": "address"
						},
						{
							"internalType": "uint256",
							"name": "",
							"type": "uint256"
						},
						{
							"internalType": "bytes",
							"name": "",
							"type": "bytes"
						}
					],
					"name": "canTransfer",
					"outputs": [
						{
							"internalType": "bool",
							"name": "ok",
							"type": "bool"
						},
						{
							"internalType": "uint256",
							"name": "reason",
							"type": "uint256"
						}
					],
					"stateMutability": "view",
					"type": "function"
				},
				{
					"inputs": [],
					"name": "disallowBlacklisted",
					"outputs": [
						{
							"internalType": "bool",
							"name": "",
							"type": "bool"
						}
					],
					"stateMutability": "view",
					"type": "function"
				},
				{
					"inputs": [],
					"name": "reg",
					"outputs": [
						{
							"internalType": "contract IIdentityRegistry2",
							"name": "",
							"type": "address"
						}
					],
					"stateMutability": "view",
					"type": "function"
				}
			],
			"devdoc": {
				"kind": "dev",
				"methods": {},
				"version": 1
			},
			"evm": {
				"assembly": "    /* \"contracts/Compliance_bug_noReceiverKYC.sol\":358:1712  contract Compliance_Bug_NoReceiverKYC {... */\n  mstore(0x40, 0xa0)\n    /* \"contracts/Compliance_bug_noReceiverKYC.sol\":586:590  true */\n  0x01\n    /* \"contracts/Compliance_bug_noReceiverKYC.sol\":552:590  bool public disallowBlacklisted = true */\n  0x02\n  exp(0x0100, 0x00)\n  dup2\n  sload\n  dup2\n  0xff\n  mul\n  not\n  and\n  swap1\n  dup4\n  iszero\n  iszero\n  mul\n  or\n  swap1\n  sstore\n  pop\n    /* \"contracts/Compliance_bug_noReceiverKYC.sol\":777:1065  constructor(address registry, bytes2[] memory juris, uint8[] memory invTypes) {... */\n  callvalue\n  dup1\n  iszero\n  tag_1\n  jumpi\n  revert(0x00, 0x00)\ntag_1:\n  pop\n  mload(0x40)\n  sub(codesize, bytecodeSize)\n  dup1\n  bytecodeSize\n  dup4\n  codecopy\n  dup2\n  dup2\n  add\n  0x40\n  mstore\n  dup2\n  add\n  swap1\n  tag_2\n  swap2\n  swap1\n  tag_3\n  jump\t// in\ntag_2:\n    /* \"contracts/Compliance_bug_noReceiverKYC.sol\":890:898  registry */\n  dup3\n    /* \"contracts/Compliance_bug_noReceiverKYC.sol\":865:899  reg = IIdentityRegistry2(registry) */\n  0xffffffffffffffffffffffffffffffffffffffff\n  and\n  0x80\n  dup2\n  0xffffffffffffffffffffffffffffffffffffffff\n  and\n  dup2\n  mstore\n  pop\n  pop\n    /* \"contracts/Compliance_bug_noReceiverKYC.sol\":914:920  uint i */\n  0x00\n    /* \"contracts/Compliance_bug_noReceiverKYC.sol\":921:922  0 */\n  0x00\n    /* \"contracts/Compliance_bug_noReceiverKYC.sol\":914:922  uint i=0 */\n  swap1\n  pop\n    /* \"contracts/Compliance_bug_noReceiverKYC.sol\":909:972  for (uint i=0;i<juris.length;i++) allowedJuris[juris[i]] = true */\ntag_6:\n    /* \"contracts/Compliance_bug_noReceiverKYC.sol\":925:930  juris */\n  dup3\n    /* \"contracts/Compliance_bug_noReceiverKYC.sol\":925:937  juris.length */\n  mload\n    /* \"contracts/Compliance_bug_noReceiverKYC.sol\":923:924  i */\n  dup2\n    /* \"contracts/Compliance_bug_noReceiverKYC.sol\":923:937  i<juris.length */\n  lt\n    /* \"contracts/Compliance_bug_noReceiverKYC.sol\":909:972  for (uint i=0;i<juris.length;i++) allowedJuris[juris[i]] = true */\n  iszero\n  tag_7\n  jumpi\n    /* \"contracts/Compliance_bug_noReceiverKYC.sol\":968:972  true */\n  0x01\n    /* \"contracts/Compliance_bug_noReceiverKYC.sol\":943:955  allowedJuris */\n  0x00\n    /* \"contracts/Compliance_bug_noReceiverKYC.sol\":943:965  allowedJuris[juris[i]] */\n  0x00\n    /* \"contracts/Compliance_bug_noReceiverKYC.sol\":956:961  juris */\n  dup6\n    /* \"contracts/Compliance_bug_noReceiverKYC.sol\":962:963  i */\n  dup5\n    /* \"contracts/Compliance_bug_noReceiverKYC.sol\":956:964  juris[i] */\n  dup2\n  mload\n  dup2\n  lt\n  tag_9\n  jumpi\n  tag_10\n  tag_11\n  jump\t// in\ntag_10:\ntag_9:\n  0x20\n  mul\n  0x20\n  add\n  add\n  mload\n    /* \"contracts/Compliance_bug_noReceiverKYC.sol\":943:965  allowedJuris[juris[i]] */\n  not(0xffffffffffffffffffffffffffffffffffffffffffffffffffffffffffff)\n  and\n  not(0xffffffffffffffffffffffffffffffffffffffffffffffffffffffffffff)\n  and\n  dup2\n  mstore\n  0x20\n  add\n  swap1\n  dup2\n  mstore\n  0x20\n  add\n  0x00\n  keccak256\n  0x00\n    /* \"contracts/Compliance_bug_noReceiverKYC.sol\":943:972  allowedJuris[juris[i]] = true */\n  0x0100\n  exp\n  dup2\n  sload\n  dup2\n  0xff\n  mul\n  not\n  and\n  swap1\n  dup4\n  iszero\n  iszero\n  mul\n  or\n  swap1\n  sstore\n  pop\n    /* \"contracts/Compliance_bug_noReceiverKYC.sol\":938:941  i++ */\n  dup1\n  dup1\n  0x01\n  add\n  swap2\n  pop\n  pop\n    /* \"contracts/Compliance_bug_noReceiverKYC.sol\":909:972  for (uint i=0;i<juris.length;i++) allowedJuris[juris[i]] = true */\n  jump(tag_6)\ntag_7:\n  pop\n    /* \"contracts/Compliance_bug_noReceiverKYC.sol\":987:993  uint i */\n  0x00\n    /* \"contracts/Compliance_bug_noReceiverKYC.sol\":994:995  0 */\n  0x00\n    /* \"contracts/Compliance_bug_noReceiverKYC.sol\":987:995  uint i=0 */\n  swap1\n  pop\n    /* \"contracts/Compliance_bug_noReceiverKYC.sol\":982:1058  for (uint i=0;i<invTypes.length;i++) allowedInvestorType[invTypes[i]] = true */\ntag_12:\n    /* \"contracts/Compliance_bug_noReceiverKYC.sol\":998:1006  invTypes */\n  dup2\n    /* \"contracts/Compliance_bug_noReceiverKYC.sol\":998:1013  invTypes.length */\n  mload\n    /* \"contracts/Compliance_bug_noReceiverKYC.sol\":996:997  i */\n  dup2\n    /* \"contracts/Compliance_bug_noReceiverKYC.sol\":996:1013  i<invTypes.length */\n  lt\n    /* \"contracts/Compliance_bug_noReceiverKYC.sol\":982:1058  for (uint i=0;i<invTypes.length;i++) allowedInvestorType[invTypes[i]] = true */\n  iszero\n  tag_13\n  jumpi\n    /* \"contracts/Compliance_bug_noReceiverKYC.sol\":1054:1058  true */\n  0x01\n    /* \"contracts/Compliance_bug_noReceiverKYC.sol\":1019:1038  allowedInvestorType */\n  dup1\n    /* \"contracts/Compliance_bug_noReceiverKYC.sol\":1019:1051  allowedInvestorType[invTypes[i]] */\n  0x00\n    /* \"contracts/Compliance_bug_noReceiverKYC.sol\":1039:1047  invTypes */\n  dup5\n    /* \"contracts/Compliance_bug_noReceiverKYC.sol\":1048:1049  i */\n  dup5\n    /* \"contracts/Compliance_bug_noReceiverKYC.sol\":1039:1050  invTypes[i] */\n  dup2\n  mload\n  dup2\n  lt\n  tag_15\n  jumpi\n  tag_16\n  tag_11\n  jump\t// in\ntag_16:\ntag_15:\n  0x20\n  mul\n  0x20\n  add\n  add\n  mload\n    /* \"contracts/Compliance_bug_noReceiverKYC.sol\":1019:1051  allowedInvestorType[invTypes[i]] */\n  0xff\n  and\n  0xff\n  and\n  dup2\n  mstore\n  0x20\n  add\n  swap1\n  dup2\n  mstore\n  0x20\n  add\n  0x00\n  keccak256\n  0x00\n    /* \"contracts/Compliance_bug_noReceiverKYC.sol\":1019:1058  allowedInvestorType[invTypes[i]] = true */\n  0x0100\n  exp\n  dup2\n  sload\n  dup2\n  0xff\n  mul\n  not\n  and\n  swap1\n  dup4\n  iszero\n  iszero\n  mul\n  or\n  swap1\n  sstore\n  pop\n    /* \"contracts/Compliance_bug_noReceiverKYC.sol\":1014:1017  i++ */\n  dup1\n  dup1\n  0x01\n  add\n  swap2\n  pop\n  pop\n    /* \"contracts/Compliance_bug_noReceiverKYC.sol\":982:1058  for (uint i=0;i<invTypes.length;i++) allowedInvestorType[invTypes[i]] = true */\n  jump(tag_12)\ntag_13:\n  pop\n    /* \"contracts/Compliance_bug_noReceiverKYC.sol\":777:1065  constructor(address registry, bytes2[] memory juris, uint8[] memory invTypes) {... */\n  pop\n  pop\n  pop\n    /* \"contracts/Compliance_bug_noReceiverKYC.sol\":358:1712  contract Compliance_Bug_NoReceiverKYC {... */\n  jump(tag_17)\n    /* \"#utility.yul\":7:82   */\ntag_18:\n    /* \"#utility.yul\":40:46   */\n  0x00\n    /* \"#utility.yul\":73:75   */\n  0x40\n    /* \"#utility.yul\":67:76   */\n  mload\n    /* \"#utility.yul\":57:76   */\n  swap1\n  pop\n    /* \"#utility.yul\":7:82   */\n  swap1\n  jump\t// out\n    /* \"#utility.yul\":88:205   */\ntag_19:\n    /* \"#utility.yul\":197:198   */\n  0x00\n    /* \"#utility.yul\":194:195   */\n  0x00\n    /* \"#utility.yul\":187:199   */\n  revert\n    /* \"#utility.yul\":211:328   */\ntag_20:\n    /* \"#utility.yul\":320:321   */\n  0x00\n    /* \"#utility.yul\":317:318   */\n  0x00\n    /* \"#utility.yul\":310:322   */\n  revert\n    /* \"#utility.yul\":334:460   */\ntag_21:\n    /* \"#utility.yul\":371:378   */\n  0x00\n    /* \"#utility.yul\":411:453   */\n  0xffffffffffffffffffffffffffffffffffffffff\n    /* \"#utility.yul\":404:409   */\n  dup3\n    /* \"#utility.yul\":400:454   */\n  and\n    /* \"#utility.yul\":389:454   */\n  swap1\n  pop\n    /* \"#utility.yul\":334:460   */\n  swap2\n  swap1\n  pop\n  jump\t// out\n    /* \"#utility.yul\":466:562   */\ntag_22:\n    /* \"#utility.yul\":503:510   */\n  0x00\n    /* \"#utility.yul\":532:556   */\n  tag_49\n    /* \"#utility.yul\":550:555   */\n  dup3\n    /* \"#utility.yul\":532:556   */\n  tag_21\n  jump\t// in\ntag_49:\n    /* \"#utility.yul\":521:556   */\n  swap1\n  pop\n    /* \"#utility.yul\":466:562   */\n  swap2\n  swap1\n  pop\n  jump\t// out\n    /* \"#utility.yul\":568:690   */\ntag_23:\n    /* \"#utility.yul\":641:665   */\n  tag_51\n    /* \"#utility.yul\":659:664   */\n  dup2\n    /* \"#utility.yul\":641:665   */\n  tag_22\n  jump\t// in\ntag_51:\n    /* \"#utility.yul\":634:639   */\n  dup2\n    /* \"#utility.yul\":631:666   */\n  eq\n    /* \"#utility.yul\":621:684   */\n  tag_52\n  jumpi\n    /* \"#utility.yul\":680:681   */\n  0x00\n    /* \"#utility.yul\":677:678   */\n  0x00\n    /* \"#utility.yul\":670:682   */\n  revert\n    /* \"#utility.yul\":621:684   */\ntag_52:\n    /* \"#utility.yul\":568:690   */\n  pop\n  jump\t// out\n    /* \"#utility.yul\":696:839   */\ntag_24:\n    /* \"#utility.yul\":753:758   */\n  0x00\n    /* \"#utility.yul\":784:790   */\n  dup2\n    /* \"#utility.yul\":778:791   */\n  mload\n    /* \"#utility.yul\":769:791   */\n  swap1\n  pop\n    /* \"#utility.yul\":800:833   */\n  tag_54\n    /* \"#utility.yul\":827:832   */\n  dup2\n    /* \"#utility.yul\":800:833   */\n  tag_23\n  jump\t// in\ntag_54:\n    /* \"#utility.yul\":696:839   */\n  swap3\n  swap2\n  pop\n  pop\n  jump\t// out\n    /* \"#utility.yul\":845:962   */\ntag_25:\n    /* \"#utility.yul\":954:955   */\n  0x00\n    /* \"#utility.yul\":951:952   */\n  0x00\n    /* \"#utility.yul\":944:956   */\n  revert\n    /* \"#utility.yul\":968:1070   */\ntag_26:\n    /* \"#utility.yul\":1009:1015   */\n  0x00\n    /* \"#utility.yul\":1060:1062   */\n  0x1f\n    /* \"#utility.yul\":1056:1063   */\n  not\n    /* \"#utility.yul\":1051:1053   */\n  0x1f\n    /* \"#utility.yul\":1044:1049   */\n  dup4\n    /* \"#utility.yul\":1040:1054   */\n  add\n    /* \"#utility.yul\":1036:1064   */\n  and\n    /* \"#utility.yul\":1026:1064   */\n  swap1\n  pop\n    /* \"#utility.yul\":968:1070   */\n  swap2\n  swap1\n  pop\n  jump\t// out\n    /* \"#utility.yul\":1076:1256   */\ntag_27:\n    /* \"#utility.yul\":1124:1201   */\n  0x4e487b7100000000000000000000000000000000000000000000000000000000\n    /* \"#utility.yul\":1121:1122   */\n  0x00\n    /* \"#utility.yul\":1114:1202   */\n  mstore\n    /* \"#utility.yul\":1221:1225   */\n  0x41\n    /* \"#utility.yul\":1218:1219   */\n  0x04\n    /* \"#utility.yul\":1211:1226   */\n  mstore\n    /* \"#utility.yul\":1245:1249   */\n  0x24\n    /* \"#utility.yul\":1242:1243   */\n  0x00\n    /* \"#utility.yul\":1235:1250   */\n  revert\n    /* \"#utility.yul\":1262:1543   */\ntag_28:\n    /* \"#utility.yul\":1345:1372   */\n  tag_59\n    /* \"#utility.yul\":1367:1371   */\n  dup3\n    /* \"#utility.yul\":1345:1372   */\n  tag_26\n  jump\t// in\ntag_59:\n    /* \"#utility.yul\":1337:1343   */\n  dup2\n    /* \"#utility.yul\":1333:1373   */\n  add\n    /* \"#utility.yul\":1475:1481   */\n  dup2\n    /* \"#utility.yul\":1463:1473   */\n  dup2\n    /* \"#utility.yul\":1460:1482   */\n  lt\n    /* \"#utility.yul\":1439:1457   */\n  0xffffffffffffffff\n    /* \"#utility.yul\":1427:1437   */\n  dup3\n    /* \"#utility.yul\":1424:1458   */\n  gt\n    /* \"#utility.yul\":1421:1483   */\n  or\n    /* \"#utility.yul\":1418:1506   */\n  iszero\n  tag_60\n  jumpi\n    /* \"#utility.yul\":1486:1504   */\n  tag_61\n  tag_27\n  jump\t// in\ntag_61:\n    /* \"#utility.yul\":1418:1506   */\ntag_60:\n    /* \"#utility.yul\":1526:1536   */\n  dup1\n    /* \"#utility.yul\":1522:1524   */\n  0x40\n    /* \"#utility.yul\":1515:1537   */\n  mstore\n    /* \"#utility.yul\":1305:1543   */\n  pop\n    /* \"#utility.yul\":1262:1543   */\n  pop\n  pop\n  jump\t// out\n    /* \"#utility.yul\":1549:1678   */\ntag_29:\n    /* \"#utility.yul\":1583:1589   */\n  0x00\n    /* \"#utility.yul\":1610:1630   */\n  tag_63\n  tag_18\n  jump\t// in\ntag_63:\n    /* \"#utility.yul\":1600:1630   */\n  swap1\n  pop\n    /* \"#utility.yul\":1639:1672   */\n  tag_64\n    /* \"#utility.yul\":1667:1671   */\n  dup3\n    /* \"#utility.yul\":1659:1665   */\n  dup3\n    /* \"#utility.yul\":1639:1672   */\n  tag_28\n  jump\t// in\ntag_64:\n    /* \"#utility.yul\":1549:1678   */\n  swap2\n  swap1\n  pop\n  jump\t// out\n    /* \"#utility.yul\":1684:1994   */\ntag_30:\n    /* \"#utility.yul\":1760:1764   */\n  0x00\n    /* \"#utility.yul\":1850:1868   */\n  0xffffffffffffffff\n    /* \"#utility.yul\":1842:1848   */\n  dup3\n    /* \"#utility.yul\":1839:1869   */\n  gt\n    /* \"#utility.yul\":1836:1892   */\n  iszero\n  tag_66\n  jumpi\n    /* \"#utility.yul\":1872:1890   */\n  tag_67\n  tag_27\n  jump\t// in\ntag_67:\n    /* \"#utility.yul\":1836:1892   */\ntag_66:\n    /* \"#utility.yul\":1922:1926   */\n  0x20\n    /* \"#utility.yul\":1914:1920   */\n  dup3\n    /* \"#utility.yul\":1910:1927   */\n  mul\n    /* \"#utility.yul\":1902:1927   */\n  swap1\n  pop\n    /* \"#utility.yul\":1982:1986   */\n  0x20\n    /* \"#utility.yul\":1976:1980   */\n  dup2\n    /* \"#utility.yul\":1972:1987   */\n  add\n    /* \"#utility.yul\":1964:1987   */\n  swap1\n  pop\n    /* \"#utility.yul\":1684:1994   */\n  swap2\n  swap1\n  pop\n  jump\t// out\n    /* \"#utility.yul\":2000:2117   */\ntag_31:\n    /* \"#utility.yul\":2109:2110   */\n  0x00\n    /* \"#utility.yul\":2106:2107   */\n  0x00\n    /* \"#utility.yul\":2099:2111   */\n  revert\n    /* \"#utility.yul\":2123:2272   */\ntag_32:\n    /* \"#utility.yul\":2159:2166   */\n  0x00\n    /* \"#utility.yul\":2199:2265   */\n  0xffff000000000000000000000000000000000000000000000000000000000000\n    /* \"#utility.yul\":2192:2197   */\n  dup3\n    /* \"#utility.yul\":2188:2266   */\n  and\n    /* \"#utility.yul\":2177:2266   */\n  swap1\n  pop\n    /* \"#utility.yul\":2123:2272   */\n  swap2\n  swap1\n  pop\n  jump\t// out\n    /* \"#utility.yul\":2278:2398   */\ntag_33:\n    /* \"#utility.yul\":2350:2373   */\n  tag_71\n    /* \"#utility.yul\":2367:2372   */\n  dup2\n    /* \"#utility.yul\":2350:2373   */\n  tag_32\n  jump\t// in\ntag_71:\n    /* \"#utility.yul\":2343:2348   */\n  dup2\n    /* \"#utility.yul\":2340:2374   */\n  eq\n    /* \"#utility.yul\":2330:2392   */\n  tag_72\n  jumpi\n    /* \"#utility.yul\":2388:2389   */\n  0x00\n    /* \"#utility.yul\":2385:2386   */\n  0x00\n    /* \"#utility.yul\":2378:2390   */\n  revert\n    /* \"#utility.yul\":2330:2392   */\ntag_72:\n    /* \"#utility.yul\":2278:2398   */\n  pop\n  jump\t// out\n    /* \"#utility.yul\":2404:2545   */\ntag_34:\n    /* \"#utility.yul\":2460:2465   */\n  0x00\n    /* \"#utility.yul\":2491:2497   */\n  dup2\n    /* \"#utility.yul\":2485:2498   */\n  mload\n    /* \"#utility.yul\":2476:2498   */\n  swap1\n  pop\n    /* \"#utility.yul\":2507:2539   */\n  tag_74\n    /* \"#utility.yul\":2533:2538   */\n  dup2\n    /* \"#utility.yul\":2507:2539   */\n  tag_33\n  jump\t// in\ntag_74:\n    /* \"#utility.yul\":2404:2545   */\n  swap3\n  swap2\n  pop\n  pop\n  jump\t// out\n    /* \"#utility.yul\":2567:3296   */\ntag_35:\n    /* \"#utility.yul\":2673:2678   */\n  0x00\n    /* \"#utility.yul\":2698:2778   */\n  tag_76\n    /* \"#utility.yul\":2714:2777   */\n  tag_77\n    /* \"#utility.yul\":2770:2776   */\n  dup5\n    /* \"#utility.yul\":2714:2777   */\n  tag_30\n  jump\t// in\ntag_77:\n    /* \"#utility.yul\":2698:2778   */\n  tag_29\n  jump\t// in\ntag_76:\n    /* \"#utility.yul\":2689:2778   */\n  swap1\n  pop\n    /* \"#utility.yul\":2798:2803   */\n  dup1\n    /* \"#utility.yul\":2827:2833   */\n  dup4\n    /* \"#utility.yul\":2820:2825   */\n  dup3\n    /* \"#utility.yul\":2813:2834   */\n  mstore\n    /* \"#utility.yul\":2861:2865   */\n  0x20\n    /* \"#utility.yul\":2854:2859   */\n  dup3\n    /* \"#utility.yul\":2850:2866   */\n  add\n    /* \"#utility.yul\":2843:2866   */\n  swap1\n  pop\n    /* \"#utility.yul\":2914:2918   */\n  0x20\n    /* \"#utility.yul\":2906:2912   */\n  dup5\n    /* \"#utility.yul\":2902:2919   */\n  mul\n    /* \"#utility.yul\":2894:2900   */\n  dup4\n    /* \"#utility.yul\":2890:2920   */\n  add\n    /* \"#utility.yul\":2943:2946   */\n  dup6\n    /* \"#utility.yul\":2935:2941   */\n  dup2\n    /* \"#utility.yul\":2932:2947   */\n  gt\n    /* \"#utility.yul\":2929:3051   */\n  iszero\n  tag_78\n  jumpi\n    /* \"#utility.yul\":2962:3041   */\n  tag_79\n  tag_31\n  jump\t// in\ntag_79:\n    /* \"#utility.yul\":2929:3051   */\ntag_78:\n    /* \"#utility.yul\":3077:3083   */\n  dup4\n    /* \"#utility.yul\":3060:3290   */\ntag_80:\n    /* \"#utility.yul\":3094:3100   */\n  dup2\n    /* \"#utility.yul\":3089:3092   */\n  dup2\n    /* \"#utility.yul\":3086:3101   */\n  lt\n    /* \"#utility.yul\":3060:3290   */\n  iszero\n  tag_82\n  jumpi\n    /* \"#utility.yul\":3169:3172   */\n  dup1\n    /* \"#utility.yul\":3198:3245   */\n  tag_83\n    /* \"#utility.yul\":3241:3244   */\n  dup9\n    /* \"#utility.yul\":3229:3239   */\n  dup3\n    /* \"#utility.yul\":3198:3245   */\n  tag_34\n  jump\t// in\ntag_83:\n    /* \"#utility.yul\":3193:3196   */\n  dup5\n    /* \"#utility.yul\":3186:3246   */\n  mstore\n    /* \"#utility.yul\":3275:3279   */\n  0x20\n    /* \"#utility.yul\":3270:3273   */\n  dup5\n    /* \"#utility.yul\":3266:3280   */\n  add\n    /* \"#utility.yul\":3259:3280   */\n  swap4\n  pop\n    /* \"#utility.yul\":3136:3290   */\n  pop\n    /* \"#utility.yul\":3120:3124   */\n  0x20\n    /* \"#utility.yul\":3115:3118   */\n  dup2\n    /* \"#utility.yul\":3111:3125   */\n  add\n    /* \"#utility.yul\":3104:3125   */\n  swap1\n  pop\n    /* \"#utility.yul\":3060:3290   */\n  jump(tag_80)\ntag_82:\n    /* \"#utility.yul\":3064:3085   */\n  pop\n    /* \"#utility.yul\":2679:3296   */\n  pop\n  pop\n    /* \"#utility.yul\":2567:3296   */\n  swap4\n  swap3\n  pop\n  pop\n  pop\n  jump\t// out\n    /* \"#utility.yul\":3318:3701   */\ntag_36:\n    /* \"#utility.yul\":3399:3404   */\n  0x00\n    /* \"#utility.yul\":3448:3451   */\n  dup3\n    /* \"#utility.yul\":3441:3445   */\n  0x1f\n    /* \"#utility.yul\":3433:3439   */\n  dup4\n    /* \"#utility.yul\":3429:3446   */\n  add\n    /* \"#utility.yul\":3425:3452   */\n  slt\n    /* \"#utility.yul\":3415:3537   */\n  tag_85\n  jumpi\n    /* \"#utility.yul\":3456:3535   */\n  tag_86\n  tag_25\n  jump\t// in\ntag_86:\n    /* \"#utility.yul\":3415:3537   */\ntag_85:\n    /* \"#utility.yul\":3566:3572   */\n  dup2\n    /* \"#utility.yul\":3560:3573   */\n  mload\n    /* \"#utility.yul\":3591:3695   */\n  tag_87\n    /* \"#utility.yul\":3691:3694   */\n  dup5\n    /* \"#utility.yul\":3683:3689   */\n  dup3\n    /* \"#utility.yul\":3676:3680   */\n  0x20\n    /* \"#utility.yul\":3668:3674   */\n  dup7\n    /* \"#utility.yul\":3664:3681   */\n  add\n    /* \"#utility.yul\":3591:3695   */\n  tag_35\n  jump\t// in\ntag_87:\n    /* \"#utility.yul\":3582:3695   */\n  swap2\n  pop\n    /* \"#utility.yul\":3405:3701   */\n  pop\n    /* \"#utility.yul\":3318:3701   */\n  swap3\n  swap2\n  pop\n  pop\n  jump\t// out\n    /* \"#utility.yul\":3707:4016   */\ntag_37:\n    /* \"#utility.yul\":3782:3786   */\n  0x00\n    /* \"#utility.yul\":3872:3890   */\n  0xffffffffffffffff\n    /* \"#utility.yul\":3864:3870   */\n  dup3\n    /* \"#utility.yul\":3861:3891   */\n  gt\n    /* \"#utility.yul\":3858:3914   */\n  iszero\n  tag_89\n  jumpi\n    /* \"#utility.yul\":3894:3912   */\n  tag_90\n  tag_27\n  jump\t// in\ntag_90:\n    /* \"#utility.yul\":3858:3914   */\ntag_89:\n    /* \"#utility.yul\":3944:3948   */\n  0x20\n    /* \"#utility.yul\":3936:3942   */\n  dup3\n    /* \"#utility.yul\":3932:3949   */\n  mul\n    /* \"#utility.yul\":3924:3949   */\n  swap1\n  pop\n    /* \"#utility.yul\":4004:4008   */\n  0x20\n    /* \"#utility.yul\":3998:4002   */\n  dup2\n    /* \"#utility.yul\":3994:4009   */\n  add\n    /* \"#utility.yul\":3986:4009   */\n  swap1\n  pop\n    /* \"#utility.yul\":3707:4016   */\n  swap2\n  swap1\n  pop\n  jump\t// out\n    /* \"#utility.yul\":4022:4108   */\ntag_38:\n    /* \"#utility.yul\":4057:4064   */\n  0x00\n    /* \"#utility.yul\":4097:4101   */\n  0xff\n    /* \"#utility.yul\":4090:4095   */\n  dup3\n    /* \"#utility.yul\":4086:4102   */\n  and\n    /* \"#utility.yul\":4075:4102   */\n  swap1\n  pop\n    /* \"#utility.yul\":4022:4108   */\n  swap2\n  swap1\n  pop\n  jump\t// out\n    /* \"#utility.yul\":4114:4232   */\ntag_39:\n    /* \"#utility.yul\":4185:4207   */\n  tag_93\n    /* \"#utility.yul\":4201:4206   */\n  dup2\n    /* \"#utility.yul\":4185:4207   */\n  tag_38\n  jump\t// in\ntag_93:\n    /* \"#utility.yul\":4178:4183   */\n  dup2\n    /* \"#utility.yul\":4175:4208   */\n  eq\n    /* \"#utility.yul\":4165:4226   */\n  tag_94\n  jumpi\n    /* \"#utility.yul\":4222:4223   */\n  0x00\n    /* \"#utility.yul\":4219:4220   */\n  0x00\n    /* \"#utility.yul\":4212:4224   */\n  revert\n    /* \"#utility.yul\":4165:4226   */\ntag_94:\n    /* \"#utility.yul\":4114:4232   */\n  pop\n  jump\t// out\n    /* \"#utility.yul\":4238:4377   */\ntag_40:\n    /* \"#utility.yul\":4293:4298   */\n  0x00\n    /* \"#utility.yul\":4324:4330   */\n  dup2\n    /* \"#utility.yul\":4318:4331   */\n  mload\n    /* \"#utility.yul\":4309:4331   */\n  swap1\n  pop\n    /* \"#utility.yul\":4340:4371   */\n  tag_96\n    /* \"#utility.yul\":4365:4370   */\n  dup2\n    /* \"#utility.yul\":4340:4371   */\n  tag_39\n  jump\t// in\ntag_96:\n    /* \"#utility.yul\":4238:4377   */\n  swap3\n  swap2\n  pop\n  pop\n  jump\t// out\n    /* \"#utility.yul\":4398:5124   */\ntag_41:\n    /* \"#utility.yul\":4503:4508   */\n  0x00\n    /* \"#utility.yul\":4528:4607   */\n  tag_98\n    /* \"#utility.yul\":4544:4606   */\n  tag_99\n    /* \"#utility.yul\":4599:4605   */\n  dup5\n    /* \"#utility.yul\":4544:4606   */\n  tag_37\n  jump\t// in\ntag_99:\n    /* \"#utility.yul\":4528:4607   */\n  tag_29\n  jump\t// in\ntag_98:\n    /* \"#utility.yul\":4519:4607   */\n  swap1\n  pop\n    /* \"#utility.yul\":4627:4632   */\n  dup1\n    /* \"#utility.yul\":4656:4662   */\n  dup4\n    /* \"#utility.yul\":4649:4654   */\n  dup3\n    /* \"#utility.yul\":4642:4663   */\n  mstore\n    /* \"#utility.yul\":4690:4694   */\n  0x20\n    /* \"#utility.yul\":4683:4688   */\n  dup3\n    /* \"#utility.yul\":4679:4695   */\n  add\n    /* \"#utility.yul\":4672:4695   */\n  swap1\n  pop\n    /* \"#utility.yul\":4743:4747   */\n  0x20\n    /* \"#utility.yul\":4735:4741   */\n  dup5\n    /* \"#utility.yul\":4731:4748   */\n  mul\n    /* \"#utility.yul\":4723:4729   */\n  dup4\n    /* \"#utility.yul\":4719:4749   */\n  add\n    /* \"#utility.yul\":4772:4775   */\n  dup6\n    /* \"#utility.yul\":4764:4770   */\n  dup2\n    /* \"#utility.yul\":4761:4776   */\n  gt\n    /* \"#utility.yul\":4758:4880   */\n  iszero\n  tag_100\n  jumpi\n    /* \"#utility.yul\":4791:4870   */\n  tag_101\n  tag_31\n  jump\t// in\ntag_101:\n    /* \"#utility.yul\":4758:4880   */\ntag_100:\n    /* \"#utility.yul\":4906:4912   */\n  dup4\n    /* \"#utility.yul\":4889:5118   */\ntag_102:\n    /* \"#utility.yul\":4923:4929   */\n  dup2\n    /* \"#utility.yul\":4918:4921   */\n  dup2\n    /* \"#utility.yul\":4915:4930   */\n  lt\n    /* \"#utility.yul\":4889:5118   */\n  iszero\n  tag_104\n  jumpi\n    /* \"#utility.yul\":4998:5001   */\n  dup1\n    /* \"#utility.yul\":5027:5073   */\n  tag_105\n    /* \"#utility.yul\":5069:5072   */\n  dup9\n    /* \"#utility.yul\":5057:5067   */\n  dup3\n    /* \"#utility.yul\":5027:5073   */\n  tag_40\n  jump\t// in\ntag_105:\n    /* \"#utility.yul\":5022:5025   */\n  dup5\n    /* \"#utility.yul\":5015:5074   */\n  mstore\n    /* \"#utility.yul\":5103:5107   */\n  0x20\n    /* \"#utility.yul\":5098:5101   */\n  dup5\n    /* \"#utility.yul\":5094:5108   */\n  add\n    /* \"#utility.yul\":5087:5108   */\n  swap4\n  pop\n    /* \"#utility.yul\":4965:5118   */\n  pop\n    /* \"#utility.yul\":4949:4953   */\n  0x20\n    /* \"#utility.yul\":4944:4947   */\n  dup2\n    /* \"#utility.yul\":4940:4954   */\n  add\n    /* \"#utility.yul\":4933:4954   */\n  swap1\n  pop\n    /* \"#utility.yul\":4889:5118   */\n  jump(tag_102)\ntag_104:\n    /* \"#utility.yul\":4893:4914   */\n  pop\n    /* \"#utility.yul\":4509:5124   */\n  pop\n  pop\n    /* \"#utility.yul\":4398:5124   */\n  swap4\n  swap3\n  pop\n  pop\n  pop\n  jump\t// out\n    /* \"#utility.yul\":5145:5526   */\ntag_42:\n    /* \"#utility.yul\":5225:5230   */\n  0x00\n    /* \"#utility.yul\":5274:5277   */\n  dup3\n    /* \"#utility.yul\":5267:5271   */\n  0x1f\n    /* \"#utility.yul\":5259:5265   */\n  dup4\n    /* \"#utility.yul\":5255:5272   */\n  add\n    /* \"#utility.yul\":5251:5278   */\n  slt\n    /* \"#utility.yul\":5241:5363   */\n  tag_107\n  jumpi\n    /* \"#utility.yul\":5282:5361   */\n  tag_108\n  tag_25\n  jump\t// in\ntag_108:\n    /* \"#utility.yul\":5241:5363   */\ntag_107:\n    /* \"#utility.yul\":5392:5398   */\n  dup2\n    /* \"#utility.yul\":5386:5399   */\n  mload\n    /* \"#utility.yul\":5417:5520   */\n  tag_109\n    /* \"#utility.yul\":5516:5519   */\n  dup5\n    /* \"#utility.yul\":5508:5514   */\n  dup3\n    /* \"#utility.yul\":5501:5505   */\n  0x20\n    /* \"#utility.yul\":5493:5499   */\n  dup7\n    /* \"#utility.yul\":5489:5506   */\n  add\n    /* \"#utility.yul\":5417:5520   */\n  tag_41\n  jump\t// in\ntag_109:\n    /* \"#utility.yul\":5408:5520   */\n  swap2\n  pop\n    /* \"#utility.yul\":5231:5526   */\n  pop\n    /* \"#utility.yul\":5145:5526   */\n  swap3\n  swap2\n  pop\n  pop\n  jump\t// out\n    /* \"#utility.yul\":5532:6595   */\ntag_3:\n    /* \"#utility.yul\":5667:5673   */\n  0x00\n    /* \"#utility.yul\":5675:5681   */\n  0x00\n    /* \"#utility.yul\":5683:5689   */\n  0x00\n    /* \"#utility.yul\":5732:5734   */\n  0x60\n    /* \"#utility.yul\":5720:5729   */\n  dup5\n    /* \"#utility.yul\":5711:5718   */\n  dup7\n    /* \"#utility.yul\":5707:5730   */\n  sub\n    /* \"#utility.yul\":5703:5735   */\n  slt\n    /* \"#utility.yul\":5700:5819   */\n  iszero\n  tag_111\n  jumpi\n    /* \"#utility.yul\":5738:5817   */\n  tag_112\n  tag_19\n  jump\t// in\ntag_112:\n    /* \"#utility.yul\":5700:5819   */\ntag_111:\n    /* \"#utility.yul\":5858:5859   */\n  0x00\n    /* \"#utility.yul\":5883:5947   */\n  tag_113\n    /* \"#utility.yul\":5939:5946   */\n  dup7\n    /* \"#utility.yul\":5930:5936   */\n  dup3\n    /* \"#utility.yul\":5919:5928   */\n  dup8\n    /* \"#utility.yul\":5915:5937   */\n  add\n    /* \"#utility.yul\":5883:5947   */\n  tag_24\n  jump\t// in\ntag_113:\n    /* \"#utility.yul\":5873:5947   */\n  swap4\n  pop\n    /* \"#utility.yul\":5829:5957   */\n  pop\n    /* \"#utility.yul\":6017:6019   */\n  0x20\n    /* \"#utility.yul\":6006:6015   */\n  dup5\n    /* \"#utility.yul\":6002:6020   */\n  add\n    /* \"#utility.yul\":5996:6021   */\n  mload\n    /* \"#utility.yul\":6048:6066   */\n  0xffffffffffffffff\n    /* \"#utility.yul\":6040:6046   */\n  dup2\n    /* \"#utility.yul\":6037:6067   */\n  gt\n    /* \"#utility.yul\":6034:6151   */\n  iszero\n  tag_114\n  jumpi\n    /* \"#utility.yul\":6070:6149   */\n  tag_115\n  tag_20\n  jump\t// in\ntag_115:\n    /* \"#utility.yul\":6034:6151   */\ntag_114:\n    /* \"#utility.yul\":6175:6263   */\n  tag_116\n    /* \"#utility.yul\":6255:6262   */\n  dup7\n    /* \"#utility.yul\":6246:6252   */\n  dup3\n    /* \"#utility.yul\":6235:6244   */\n  dup8\n    /* \"#utility.yul\":6231:6253   */\n  add\n    /* \"#utility.yul\":6175:6263   */\n  tag_36\n  jump\t// in\ntag_116:\n    /* \"#utility.yul\":6165:6263   */\n  swap3\n  pop\n    /* \"#utility.yul\":5967:6273   */\n  pop\n    /* \"#utility.yul\":6333:6335   */\n  0x40\n    /* \"#utility.yul\":6322:6331   */\n  dup5\n    /* \"#utility.yul\":6318:6336   */\n  add\n    /* \"#utility.yul\":6312:6337   */\n  mload\n    /* \"#utility.yul\":6364:6382   */\n  0xffffffffffffffff\n    /* \"#utility.yul\":6356:6362   */\n  dup2\n    /* \"#utility.yul\":6353:6383   */\n  gt\n    /* \"#utility.yul\":6350:6467   */\n  iszero\n  tag_117\n  jumpi\n    /* \"#utility.yul\":6386:6465   */\n  tag_118\n  tag_20\n  jump\t// in\ntag_118:\n    /* \"#utility.yul\":6350:6467   */\ntag_117:\n    /* \"#utility.yul\":6491:6578   */\n  tag_119\n    /* \"#utility.yul\":6570:6577   */\n  dup7\n    /* \"#utility.yul\":6561:6567   */\n  dup3\n    /* \"#utility.yul\":6550:6559   */\n  dup8\n    /* \"#utility.yul\":6546:6568   */\n  add\n    /* \"#utility.yul\":6491:6578   */\n  tag_42\n  jump\t// in\ntag_119:\n    /* \"#utility.yul\":6481:6578   */\n  swap2\n  pop\n    /* \"#utility.yul\":6283:6588   */\n  pop\n    /* \"#utility.yul\":5532:6595   */\n  swap3\n  pop\n  swap3\n  pop\n  swap3\n  jump\t// out\n    /* \"#utility.yul\":6601:6781   */\ntag_11:\n    /* \"#utility.yul\":6649:6726   */\n  0x4e487b7100000000000000000000000000000000000000000000000000000000\n    /* \"#utility.yul\":6646:6647   */\n  0x00\n    /* \"#utility.yul\":6639:6727   */\n  mstore\n    /* \"#utility.yul\":6746:6750   */\n  0x32\n    /* \"#utility.yul\":6743:6744   */\n  0x04\n    /* \"#utility.yul\":6736:6751   */\n  mstore\n    /* \"#utility.yul\":6770:6774   */\n  0x24\n    /* \"#utility.yul\":6767:6768   */\n  0x00\n    /* \"#utility.yul\":6760:6775   */\n  revert\n    /* \"contracts/Compliance_bug_noReceiverKYC.sol\":358:1712  contract Compliance_Bug_NoReceiverKYC {... */\ntag_17:\n  mload(0x80)\n  codecopy(0x00, dataOffset(sub_0), dataSize(sub_0))\n  0x00\n  assignImmutable(\"0xed93c67e1a9b7f09d3b44ee593360f0073603a8e45415e2c3c69afc994a1103d\")\n  return(0x00, dataSize(sub_0))\nstop\n\nsub_0: assembly {\n        /* \"contracts/Compliance_bug_noReceiverKYC.sol\":358:1712  contract Compliance_Bug_NoReceiverKYC {... */\n      mstore(0x40, 0x80)\n      callvalue\n      dup1\n      iszero\n      tag_1\n      jumpi\n      revert(0x00, 0x00)\n    tag_1:\n      pop\n      jumpi(tag_2, lt(calldatasize, 0x04))\n      shr(0xe0, calldataload(0x00))\n      dup1\n      0x227d18a8\n      eq\n      tag_3\n      jumpi\n      dup1\n      0x4bf43844\n      eq\n      tag_4\n      jumpi\n      dup1\n      0x738fdd1a\n      eq\n      tag_5\n      jumpi\n      dup1\n      0x9d6232fa\n      eq\n      tag_6\n      jumpi\n      dup1\n      0xa74e9f13\n      eq\n      tag_7\n      jumpi\n    tag_2:\n      revert(0x00, 0x00)\n        /* \"contracts/Compliance_bug_noReceiverKYC.sol\":447:490  mapping(bytes2 => bool) public allowedJuris */\n    tag_3:\n      tag_8\n      0x04\n      dup1\n      calldatasize\n      sub\n      dup2\n      add\n      swap1\n      tag_9\n      swap2\n      swap1\n      tag_10\n      jump\t// in\n    tag_9:\n      tag_11\n      jump\t// in\n    tag_8:\n      mload(0x40)\n      tag_12\n      swap2\n      swap1\n      tag_13\n      jump\t// in\n    tag_12:\n      mload(0x40)\n      dup1\n      swap2\n      sub\n      swap1\n      return\n        /* \"contracts/Compliance_bug_noReceiverKYC.sol\":552:590  bool public disallowBlacklisted = true */\n    tag_4:\n      tag_14\n      tag_15\n      jump\t// in\n    tag_14:\n      mload(0x40)\n      tag_16\n      swap2\n      swap1\n      tag_13\n      jump\t// in\n    tag_16:\n      mload(0x40)\n      dup1\n      swap2\n      sub\n      swap1\n      return\n        /* \"contracts/Compliance_bug_noReceiverKYC.sol\":402:441  IIdentityRegistry2 public immutable reg */\n    tag_5:\n      tag_17\n      tag_18\n      jump\t// in\n    tag_17:\n      mload(0x40)\n      tag_19\n      swap2\n      swap1\n      tag_20\n      jump\t// in\n    tag_19:\n      mload(0x40)\n      dup1\n      swap2\n      sub\n      swap1\n      return\n        /* \"contracts/Compliance_bug_noReceiverKYC.sol\":1122:1710  function canTransfer(address from, address to, uint256, bytes calldata)... */\n    tag_6:\n      tag_21\n      0x04\n      dup1\n      calldatasize\n      sub\n      dup2\n      add\n      swap1\n      tag_22\n      swap2\n      swap1\n      tag_23\n      jump\t// in\n    tag_22:\n      tag_24\n      jump\t// in\n    tag_21:\n      mload(0x40)\n      tag_25\n      swap3\n      swap2\n      swap1\n      tag_26\n      jump\t// in\n    tag_25:\n      mload(0x40)\n      dup1\n      swap2\n      sub\n      swap1\n      return\n        /* \"contracts/Compliance_bug_noReceiverKYC.sol\":496:546  mapping(uint8  => bool) public allowedInvestorType */\n    tag_7:\n      tag_27\n      0x04\n      dup1\n      calldatasize\n      sub\n      dup2\n      add\n      swap1\n      tag_28\n      swap2\n      swap1\n      tag_29\n      jump\t// in\n    tag_28:\n      tag_30\n      jump\t// in\n    tag_27:\n      mload(0x40)\n      tag_31\n      swap2\n      swap1\n      tag_13\n      jump\t// in\n    tag_31:\n      mload(0x40)\n      dup1\n      swap2\n      sub\n      swap1\n      return\n        /* \"contracts/Compliance_bug_noReceiverKYC.sol\":447:490  mapping(bytes2 => bool) public allowedJuris */\n    tag_11:\n      mstore(0x20, 0x00)\n      dup1\n      0x00\n      mstore\n      keccak256(0x00, 0x40)\n      0x00\n      swap2\n      pop\n      sload\n      swap1\n      0x0100\n      exp\n      swap1\n      div\n      0xff\n      and\n      dup2\n      jump\t// out\n        /* \"contracts/Compliance_bug_noReceiverKYC.sol\":552:590  bool public disallowBlacklisted = true */\n    tag_15:\n      0x02\n      0x00\n      swap1\n      sload\n      swap1\n      0x0100\n      exp\n      swap1\n      div\n      0xff\n      and\n      dup2\n      jump\t// out\n        /* \"contracts/Compliance_bug_noReceiverKYC.sol\":402:441  IIdentityRegistry2 public immutable reg */\n    tag_18:\n      immutable(\"0xed93c67e1a9b7f09d3b44ee593360f0073603a8e45415e2c3c69afc994a1103d\")\n      dup2\n      jump\t// out\n        /* \"contracts/Compliance_bug_noReceiverKYC.sol\":1122:1710  function canTransfer(address from, address to, uint256, bytes calldata)... */\n    tag_24:\n        /* \"contracts/Compliance_bug_noReceiverKYC.sol\":1225:1232  bool ok */\n      0x00\n        /* \"contracts/Compliance_bug_noReceiverKYC.sol\":1234:1248  uint256 reason */\n      0x00\n        /* \"contracts/Compliance_bug_noReceiverKYC.sol\":1284:1285  0 */\n      0x00\n        /* \"contracts/Compliance_bug_noReceiverKYC.sol\":1268:1286  from != address(0) */\n      0xffffffffffffffffffffffffffffffffffffffff\n      and\n        /* \"contracts/Compliance_bug_noReceiverKYC.sol\":1268:1272  from */\n      dup8\n        /* \"contracts/Compliance_bug_noReceiverKYC.sol\":1268:1286  from != address(0) */\n      0xffffffffffffffffffffffffffffffffffffffff\n      and\n      eq\n        /* \"contracts/Compliance_bug_noReceiverKYC.sol\":1264:1635  if (from != address(0)) {... */\n      tag_33\n      jumpi\n        /* \"contracts/Compliance_bug_noReceiverKYC.sol\":1307:1310  reg */\n      immutable(\"0xed93c67e1a9b7f09d3b44ee593360f0073603a8e45415e2c3c69afc994a1103d\")\n        /* \"contracts/Compliance_bug_noReceiverKYC.sol\":1307:1321  reg.isVerified */\n      0xffffffffffffffffffffffffffffffffffffffff\n      and\n      0xb9209e33\n        /* \"contracts/Compliance_bug_noReceiverKYC.sol\":1322:1326  from */\n      dup9\n        /* \"contracts/Compliance_bug_noReceiverKYC.sol\":1307:1327  reg.isVerified(from) */\n      mload(0x40)\n      dup3\n      0xffffffff\n      and\n      0xe0\n      shl\n      dup2\n      mstore\n      0x04\n      add\n      tag_34\n      swap2\n      swap1\n      tag_35\n      jump\t// in\n    tag_34:\n      0x20\n      mload(0x40)\n      dup1\n      dup4\n      sub\n      dup2\n      dup7\n      gas\n      staticcall\n      iszero\n      dup1\n      iszero\n      tag_37\n      jumpi\n      returndatacopy(0x00, 0x00, returndatasize)\n      revert(0x00, returndatasize)\n    tag_37:\n      pop\n      pop\n      pop\n      pop\n      mload(0x40)\n      returndatasize\n      not(0x1f)\n      0x1f\n      dup3\n      add\n      and\n      dup3\n      add\n      dup1\n      0x40\n      mstore\n      pop\n      dup2\n      add\n      swap1\n      tag_38\n      swap2\n      swap1\n      tag_39\n      jump\t// in\n    tag_38:\n        /* \"contracts/Compliance_bug_noReceiverKYC.sol\":1302:1356  if (!reg.isVerified(from)) return (false, ERR_SND_KYC) */\n      tag_40\n      jumpi\n        /* \"contracts/Compliance_bug_noReceiverKYC.sol\":1337:1342  false */\n      0x00\n        /* \"contracts/Compliance_bug_noReceiverKYC.sol\":653:657  1001 */\n      0x03e9\n        /* \"contracts/Compliance_bug_noReceiverKYC.sol\":1329:1356  return (false, ERR_SND_KYC) */\n      swap2\n      pop\n      swap2\n      pop\n      jump(tag_32)\n        /* \"contracts/Compliance_bug_noReceiverKYC.sol\":1302:1356  if (!reg.isVerified(from)) return (false, ERR_SND_KYC) */\n    tag_40:\n        /* \"contracts/Compliance_bug_noReceiverKYC.sol\":1374:1393  disallowBlacklisted */\n      0x02\n      0x00\n      swap1\n      sload\n      swap1\n      0x0100\n      exp\n      swap1\n      div\n      0xff\n      and\n        /* \"contracts/Compliance_bug_noReceiverKYC.sol\":1374:1420  disallowBlacklisted && reg.isBlacklisted(from) */\n      dup1\n      iszero\n      tag_41\n      jumpi\n      pop\n        /* \"contracts/Compliance_bug_noReceiverKYC.sol\":1397:1400  reg */\n      immutable(\"0xed93c67e1a9b7f09d3b44ee593360f0073603a8e45415e2c3c69afc994a1103d\")\n        /* \"contracts/Compliance_bug_noReceiverKYC.sol\":1397:1414  reg.isBlacklisted */\n      0xffffffffffffffffffffffffffffffffffffffff\n      and\n      0xfe575a87\n        /* \"contracts/Compliance_bug_noReceiverKYC.sol\":1415:1419  from */\n      dup9\n        /* \"contracts/Compliance_bug_noReceiverKYC.sol\":1397:1420  reg.isBlacklisted(from) */\n      mload(0x40)\n      dup3\n      0xffffffff\n      and\n      0xe0\n      shl\n      dup2\n      mstore\n      0x04\n      add\n      tag_42\n      swap2\n      swap1\n      tag_35\n      jump\t// in\n    tag_42:\n      0x20\n      mload(0x40)\n      dup1\n      dup4\n      sub\n      dup2\n      dup7\n      gas\n      staticcall\n      iszero\n      dup1\n      iszero\n      tag_44\n      jumpi\n      returndatacopy(0x00, 0x00, returndatasize)\n      revert(0x00, returndatasize)\n    tag_44:\n      pop\n      pop\n      pop\n      pop\n      mload(0x40)\n      returndatasize\n      not(0x1f)\n      0x1f\n      dup3\n      add\n      and\n      dup3\n      add\n      dup1\n      0x40\n      mstore\n      pop\n      dup2\n      add\n      swap1\n      tag_45\n      swap2\n      swap1\n      tag_39\n      jump\t// in\n    tag_45:\n        /* \"contracts/Compliance_bug_noReceiverKYC.sol\":1374:1420  disallowBlacklisted && reg.isBlacklisted(from) */\n    tag_41:\n        /* \"contracts/Compliance_bug_noReceiverKYC.sol\":1370:1447  if (disallowBlacklisted && reg.isBlacklisted(from)) return (false, ERR_BLACK) */\n      iszero\n      tag_46\n      jumpi\n        /* \"contracts/Compliance_bug_noReceiverKYC.sol\":1430:1435  false */\n      0x00\n        /* \"contracts/Compliance_bug_noReceiverKYC.sol\":690:694  1003 */\n      0x03eb\n        /* \"contracts/Compliance_bug_noReceiverKYC.sol\":1422:1447  return (false, ERR_BLACK) */\n      swap2\n      pop\n      swap2\n      pop\n      jump(tag_32)\n        /* \"contracts/Compliance_bug_noReceiverKYC.sol\":1370:1447  if (disallowBlacklisted && reg.isBlacklisted(from)) return (false, ERR_BLACK) */\n    tag_46:\n        /* \"contracts/Compliance_bug_noReceiverKYC.sol\":1466:1478  allowedJuris */\n      0x00\n        /* \"contracts/Compliance_bug_noReceiverKYC.sol\":1466:1504  allowedJuris[reg.jurisdictionOf(from)] */\n      0x00\n        /* \"contracts/Compliance_bug_noReceiverKYC.sol\":1479:1482  reg */\n      immutable(\"0xed93c67e1a9b7f09d3b44ee593360f0073603a8e45415e2c3c69afc994a1103d\")\n        /* \"contracts/Compliance_bug_noReceiverKYC.sol\":1479:1497  reg.jurisdictionOf */\n      0xffffffffffffffffffffffffffffffffffffffff\n      and\n      0xdce9571f\n        /* \"contracts/Compliance_bug_noReceiverKYC.sol\":1498:1502  from */\n      dup11\n        /* \"contracts/Compliance_bug_noReceiverKYC.sol\":1479:1503  reg.jurisdictionOf(from) */\n      mload(0x40)\n      dup3\n      0xffffffff\n      and\n      0xe0\n      shl\n      dup2\n      mstore\n      0x04\n      add\n      tag_47\n      swap2\n      swap1\n      tag_35\n      jump\t// in\n    tag_47:\n      0x20\n      mload(0x40)\n      dup1\n      dup4\n      sub\n      dup2\n      dup7\n      gas\n      staticcall\n      iszero\n      dup1\n      iszero\n      tag_49\n      jumpi\n      returndatacopy(0x00, 0x00, returndatasize)\n      revert(0x00, returndatasize)\n    tag_49:\n      pop\n      pop\n      pop\n      pop\n      mload(0x40)\n      returndatasize\n      not(0x1f)\n      0x1f\n      dup3\n      add\n      and\n      dup3\n      add\n      dup1\n      0x40\n      mstore\n      pop\n      dup2\n      add\n      swap1\n      tag_50\n      swap2\n      swap1\n      tag_51\n      jump\t// in\n    tag_50:\n        /* \"contracts/Compliance_bug_noReceiverKYC.sol\":1466:1504  allowedJuris[reg.jurisdictionOf(from)] */\n      not(0xffffffffffffffffffffffffffffffffffffffffffffffffffffffffffff)\n      and\n      not(0xffffffffffffffffffffffffffffffffffffffffffffffffffffffffffff)\n      and\n      dup2\n      mstore\n      0x20\n      add\n      swap1\n      dup2\n      mstore\n      0x20\n      add\n      0x00\n      keccak256\n      0x00\n      swap1\n      sload\n      swap1\n      0x0100\n      exp\n      swap1\n      div\n      0xff\n      and\n        /* \"contracts/Compliance_bug_noReceiverKYC.sol\":1461:1531  if (!allowedJuris[reg.jurisdictionOf(from)]) return (false, ERR_JURIS) */\n      tag_52\n      jumpi\n        /* \"contracts/Compliance_bug_noReceiverKYC.sol\":1514:1519  false */\n      0x00\n        /* \"contracts/Compliance_bug_noReceiverKYC.sol\":727:731  1004 */\n      0x03ec\n        /* \"contracts/Compliance_bug_noReceiverKYC.sol\":1506:1531  return (false, ERR_JURIS) */\n      swap2\n      pop\n      swap2\n      pop\n      jump(tag_32)\n        /* \"contracts/Compliance_bug_noReceiverKYC.sol\":1461:1531  if (!allowedJuris[reg.jurisdictionOf(from)]) return (false, ERR_JURIS) */\n    tag_52:\n        /* \"contracts/Compliance_bug_noReceiverKYC.sol\":1550:1569  allowedInvestorType */\n      0x01\n        /* \"contracts/Compliance_bug_noReceiverKYC.sol\":1550:1595  allowedInvestorType[reg.investorTypeOf(from)] */\n      0x00\n        /* \"contracts/Compliance_bug_noReceiverKYC.sol\":1570:1573  reg */\n      immutable(\"0xed93c67e1a9b7f09d3b44ee593360f0073603a8e45415e2c3c69afc994a1103d\")\n        /* \"contracts/Compliance_bug_noReceiverKYC.sol\":1570:1588  reg.investorTypeOf */\n      0xffffffffffffffffffffffffffffffffffffffff\n      and\n      0x05bd4970\n        /* \"contracts/Compliance_bug_noReceiverKYC.sol\":1589:1593  from */\n      dup11\n        /* \"contracts/Compliance_bug_noReceiverKYC.sol\":1570:1594  reg.investorTypeOf(from) */\n      mload(0x40)\n      dup3\n      0xffffffff\n      and\n      0xe0\n      shl\n      dup2\n      mstore\n      0x04\n      add\n      tag_53\n      swap2\n      swap1\n      tag_35\n      jump\t// in\n    tag_53:\n      0x20\n      mload(0x40)\n      dup1\n      dup4\n      sub\n      dup2\n      dup7\n      gas\n      staticcall\n      iszero\n      dup1\n      iszero\n      tag_55\n      jumpi\n      returndatacopy(0x00, 0x00, returndatasize)\n      revert(0x00, returndatasize)\n    tag_55:\n      pop\n      pop\n      pop\n      pop\n      mload(0x40)\n      returndatasize\n      not(0x1f)\n      0x1f\n      dup3\n      add\n      and\n      dup3\n      add\n      dup1\n      0x40\n      mstore\n      pop\n      dup2\n      add\n      swap1\n      tag_56\n      swap2\n      swap1\n      tag_57\n      jump\t// in\n    tag_56:\n        /* \"contracts/Compliance_bug_noReceiverKYC.sol\":1550:1595  allowedInvestorType[reg.investorTypeOf(from)] */\n      0xff\n      and\n      0xff\n      and\n      dup2\n      mstore\n      0x20\n      add\n      swap1\n      dup2\n      mstore\n      0x20\n      add\n      0x00\n      keccak256\n      0x00\n      swap1\n      sload\n      swap1\n      0x0100\n      exp\n      swap1\n      div\n      0xff\n      and\n        /* \"contracts/Compliance_bug_noReceiverKYC.sol\":1545:1624  if (!allowedInvestorType[reg.investorTypeOf(from)]) return (false, ERR_INVTYPE) */\n      tag_58\n      jumpi\n        /* \"contracts/Compliance_bug_noReceiverKYC.sol\":1605:1610  false */\n      0x00\n        /* \"contracts/Compliance_bug_noReceiverKYC.sol\":766:770  1005 */\n      0x03ed\n        /* \"contracts/Compliance_bug_noReceiverKYC.sol\":1597:1624  return (false, ERR_INVTYPE) */\n      swap2\n      pop\n      swap2\n      pop\n      jump(tag_32)\n        /* \"contracts/Compliance_bug_noReceiverKYC.sol\":1545:1624  if (!allowedInvestorType[reg.investorTypeOf(from)]) return (false, ERR_INVTYPE) */\n    tag_58:\n        /* \"contracts/Compliance_bug_noReceiverKYC.sol\":1264:1635  if (from != address(0)) {... */\n    tag_33:\n        /* \"contracts/Compliance_bug_noReceiverKYC.sol\":1694:1698  true */\n      0x01\n        /* \"contracts/Compliance_bug_noReceiverKYC.sol\":617:618  0 */\n      0x00\n        /* \"contracts/Compliance_bug_noReceiverKYC.sol\":1686:1703  return (true, OK) */\n      swap2\n      pop\n      swap2\n      pop\n        /* \"contracts/Compliance_bug_noReceiverKYC.sol\":1122:1710  function canTransfer(address from, address to, uint256, bytes calldata)... */\n    tag_32:\n      swap6\n      pop\n      swap6\n      swap4\n      pop\n      pop\n      pop\n      pop\n      jump\t// out\n        /* \"contracts/Compliance_bug_noReceiverKYC.sol\":496:546  mapping(uint8  => bool) public allowedInvestorType */\n    tag_30:\n      mstore(0x20, 0x01)\n      dup1\n      0x00\n      mstore\n      keccak256(0x00, 0x40)\n      0x00\n      swap2\n      pop\n      sload\n      swap1\n      0x0100\n      exp\n      swap1\n      div\n      0xff\n      and\n      dup2\n      jump\t// out\n        /* \"#utility.yul\":88:205   */\n    tag_60:\n        /* \"#utility.yul\":197:198   */\n      0x00\n        /* \"#utility.yul\":194:195   */\n      0x00\n        /* \"#utility.yul\":187:199   */\n      revert\n        /* \"#utility.yul\":211:328   */\n    tag_61:\n        /* \"#utility.yul\":320:321   */\n      0x00\n        /* \"#utility.yul\":317:318   */\n      0x00\n        /* \"#utility.yul\":310:322   */\n      revert\n        /* \"#utility.yul\":334:483   */\n    tag_62:\n        /* \"#utility.yul\":370:377   */\n      0x00\n        /* \"#utility.yul\":410:476   */\n      0xffff000000000000000000000000000000000000000000000000000000000000\n        /* \"#utility.yul\":403:408   */\n      dup3\n        /* \"#utility.yul\":399:477   */\n      and\n        /* \"#utility.yul\":388:477   */\n      swap1\n      pop\n        /* \"#utility.yul\":334:483   */\n      swap2\n      swap1\n      pop\n      jump\t// out\n        /* \"#utility.yul\":489:609   */\n    tag_63:\n        /* \"#utility.yul\":561:584   */\n      tag_98\n        /* \"#utility.yul\":578:583   */\n      dup2\n        /* \"#utility.yul\":561:584   */\n      tag_62\n      jump\t// in\n    tag_98:\n        /* \"#utility.yul\":554:559   */\n      dup2\n        /* \"#utility.yul\":551:585   */\n      eq\n        /* \"#utility.yul\":541:603   */\n      tag_99\n      jumpi\n        /* \"#utility.yul\":599:600   */\n      0x00\n        /* \"#utility.yul\":596:597   */\n      0x00\n        /* \"#utility.yul\":589:601   */\n      revert\n        /* \"#utility.yul\":541:603   */\n    tag_99:\n        /* \"#utility.yul\":489:609   */\n      pop\n      jump\t// out\n        /* \"#utility.yul\":615:752   */\n    tag_64:\n        /* \"#utility.yul\":660:665   */\n      0x00\n        /* \"#utility.yul\":698:704   */\n      dup2\n        /* \"#utility.yul\":685:705   */\n      calldataload\n        /* \"#utility.yul\":676:705   */\n      swap1\n      pop\n        /* \"#utility.yul\":714:746   */\n      tag_101\n        /* \"#utility.yul\":740:745   */\n      dup2\n        /* \"#utility.yul\":714:746   */\n      tag_63\n      jump\t// in\n    tag_101:\n        /* \"#utility.yul\":615:752   */\n      swap3\n      swap2\n      pop\n      pop\n      jump\t// out\n        /* \"#utility.yul\":758:1085   */\n    tag_10:\n        /* \"#utility.yul\":816:822   */\n      0x00\n        /* \"#utility.yul\":865:867   */\n      0x20\n        /* \"#utility.yul\":853:862   */\n      dup3\n        /* \"#utility.yul\":844:851   */\n      dup5\n        /* \"#utility.yul\":840:863   */\n      sub\n        /* \"#utility.yul\":836:868   */\n      slt\n        /* \"#utility.yul\":833:952   */\n      iszero\n      tag_103\n      jumpi\n        /* \"#utility.yul\":871:950   */\n      tag_104\n      tag_60\n      jump\t// in\n    tag_104:\n        /* \"#utility.yul\":833:952   */\n    tag_103:\n        /* \"#utility.yul\":991:992   */\n      0x00\n        /* \"#utility.yul\":1016:1068   */\n      tag_105\n        /* \"#utility.yul\":1060:1067   */\n      dup5\n        /* \"#utility.yul\":1051:1057   */\n      dup3\n        /* \"#utility.yul\":1040:1049   */\n      dup6\n        /* \"#utility.yul\":1036:1058   */\n      add\n        /* \"#utility.yul\":1016:1068   */\n      tag_64\n      jump\t// in\n    tag_105:\n        /* \"#utility.yul\":1006:1068   */\n      swap2\n      pop\n        /* \"#utility.yul\":962:1078   */\n      pop\n        /* \"#utility.yul\":758:1085   */\n      swap3\n      swap2\n      pop\n      pop\n      jump\t// out\n        /* \"#utility.yul\":1091:1181   */\n    tag_65:\n        /* \"#utility.yul\":1125:1132   */\n      0x00\n        /* \"#utility.yul\":1168:1173   */\n      dup2\n        /* \"#utility.yul\":1161:1174   */\n      iszero\n        /* \"#utility.yul\":1154:1175   */\n      iszero\n        /* \"#utility.yul\":1143:1175   */\n      swap1\n      pop\n        /* \"#utility.yul\":1091:1181   */\n      swap2\n      swap1\n      pop\n      jump\t// out\n        /* \"#utility.yul\":1187:1296   */\n    tag_66:\n        /* \"#utility.yul\":1268:1289   */\n      tag_108\n        /* \"#utility.yul\":1283:1288   */\n      dup2\n        /* \"#utility.yul\":1268:1289   */\n      tag_65\n      jump\t// in\n    tag_108:\n        /* \"#utility.yul\":1263:1266   */\n      dup3\n        /* \"#utility.yul\":1256:1290   */\n      mstore\n        /* \"#utility.yul\":1187:1296   */\n      pop\n      pop\n      jump\t// out\n        /* \"#utility.yul\":1302:1512   */\n    tag_13:\n        /* \"#utility.yul\":1389:1393   */\n      0x00\n        /* \"#utility.yul\":1427:1429   */\n      0x20\n        /* \"#utility.yul\":1416:1425   */\n      dup3\n        /* \"#utility.yul\":1412:1430   */\n      add\n        /* \"#utility.yul\":1404:1430   */\n      swap1\n      pop\n        /* \"#utility.yul\":1440:1505   */\n      tag_110\n        /* \"#utility.yul\":1502:1503   */\n      0x00\n        /* \"#utility.yul\":1491:1500   */\n      dup4\n        /* \"#utility.yul\":1487:1504   */\n      add\n        /* \"#utility.yul\":1478:1484   */\n      dup5\n        /* \"#utility.yul\":1440:1505   */\n      tag_66\n      jump\t// in\n    tag_110:\n        /* \"#utility.yul\":1302:1512   */\n      swap3\n      swap2\n      pop\n      pop\n      jump\t// out\n        /* \"#utility.yul\":1518:1644   */\n    tag_67:\n        /* \"#utility.yul\":1555:1562   */\n      0x00\n        /* \"#utility.yul\":1595:1637   */\n      0xffffffffffffffffffffffffffffffffffffffff\n        /* \"#utility.yul\":1588:1593   */\n      dup3\n        /* \"#utility.yul\":1584:1638   */\n      and\n        /* \"#utility.yul\":1573:1638   */\n      swap1\n      pop\n        /* \"#utility.yul\":1518:1644   */\n      swap2\n      swap1\n      pop\n      jump\t// out\n        /* \"#utility.yul\":1650:1710   */\n    tag_68:\n        /* \"#utility.yul\":1678:1681   */\n      0x00\n        /* \"#utility.yul\":1699:1704   */\n      dup2\n        /* \"#utility.yul\":1692:1704   */\n      swap1\n      pop\n        /* \"#utility.yul\":1650:1710   */\n      swap2\n      swap1\n      pop\n      jump\t// out\n        /* \"#utility.yul\":1716:1858   */\n    tag_69:\n        /* \"#utility.yul\":1766:1775   */\n      0x00\n        /* \"#utility.yul\":1799:1852   */\n      tag_114\n        /* \"#utility.yul\":1817:1851   */\n      tag_115\n        /* \"#utility.yul\":1826:1850   */\n      tag_116\n        /* \"#utility.yul\":1844:1849   */\n      dup5\n        /* \"#utility.yul\":1826:1850   */\n      tag_67\n      jump\t// in\n    tag_116:\n        /* \"#utility.yul\":1817:1851   */\n      tag_68\n      jump\t// in\n    tag_115:\n        /* \"#utility.yul\":1799:1852   */\n      tag_67\n      jump\t// in\n    tag_114:\n        /* \"#utility.yul\":1786:1852   */\n      swap1\n      pop\n        /* \"#utility.yul\":1716:1858   */\n      swap2\n      swap1\n      pop\n      jump\t// out\n        /* \"#utility.yul\":1864:1990   */\n    tag_70:\n        /* \"#utility.yul\":1914:1923   */\n      0x00\n        /* \"#utility.yul\":1947:1984   */\n      tag_118\n        /* \"#utility.yul\":1978:1983   */\n      dup3\n        /* \"#utility.yul\":1947:1984   */\n      tag_69\n      jump\t// in\n    tag_118:\n        /* \"#utility.yul\":1934:1984   */\n      swap1\n      pop\n        /* \"#utility.yul\":1864:1990   */\n      swap2\n      swap1\n      pop\n      jump\t// out\n        /* \"#utility.yul\":1996:2147   */\n    tag_71:\n        /* \"#utility.yul\":2071:2080   */\n      0x00\n        /* \"#utility.yul\":2104:2141   */\n      tag_120\n        /* \"#utility.yul\":2135:2140   */\n      dup3\n        /* \"#utility.yul\":2104:2141   */\n      tag_70\n      jump\t// in\n    tag_120:\n        /* \"#utility.yul\":2091:2141   */\n      swap1\n      pop\n        /* \"#utility.yul\":1996:2147   */\n      swap2\n      swap1\n      pop\n      jump\t// out\n        /* \"#utility.yul\":2153:2334   */\n    tag_72:\n        /* \"#utility.yul\":2265:2327   */\n      tag_122\n        /* \"#utility.yul\":2321:2326   */\n      dup2\n        /* \"#utility.yul\":2265:2327   */\n      tag_71\n      jump\t// in\n    tag_122:\n        /* \"#utility.yul\":2260:2263   */\n      dup3\n        /* \"#utility.yul\":2253:2328   */\n      mstore\n        /* \"#utility.yul\":2153:2334   */\n      pop\n      pop\n      jump\t// out\n        /* \"#utility.yul\":2340:2612   */\n    tag_20:\n        /* \"#utility.yul\":2458:2462   */\n      0x00\n        /* \"#utility.yul\":2496:2498   */\n      0x20\n        /* \"#utility.yul\":2485:2494   */\n      dup3\n        /* \"#utility.yul\":2481:2499   */\n      add\n        /* \"#utility.yul\":2473:2499   */\n      swap1\n      pop\n        /* \"#utility.yul\":2509:2605   */\n      tag_124\n        /* \"#utility.yul\":2602:2603   */\n      0x00\n        /* \"#utility.yul\":2591:2600   */\n      dup4\n        /* \"#utility.yul\":2587:2604   */\n      add\n        /* \"#utility.yul\":2578:2584   */\n      dup5\n        /* \"#utility.yul\":2509:2605   */\n      tag_72\n      jump\t// in\n    tag_124:\n        /* \"#utility.yul\":2340:2612   */\n      swap3\n      swap2\n      pop\n      pop\n      jump\t// out\n        /* \"#utility.yul\":2618:2714   */\n    tag_73:\n        /* \"#utility.yul\":2655:2662   */\n      0x00\n        /* \"#utility.yul\":2684:2708   */\n      tag_126\n        /* \"#utility.yul\":2702:2707   */\n      dup3\n        /* \"#utility.yul\":2684:2708   */\n      tag_67\n      jump\t// in\n    tag_126:\n        /* \"#utility.yul\":2673:2708   */\n      swap1\n      pop\n        /* \"#utility.yul\":2618:2714   */\n      swap2\n      swap1\n      pop\n      jump\t// out\n        /* \"#utility.yul\":2720:2842   */\n    tag_74:\n        /* \"#utility.yul\":2793:2817   */\n      tag_128\n        /* \"#utility.yul\":2811:2816   */\n      dup2\n        /* \"#utility.yul\":2793:2817   */\n      tag_73\n      jump\t// in\n    tag_128:\n        /* \"#utility.yul\":2786:2791   */\n      dup2\n        /* \"#utility.yul\":2783:2818   */\n      eq\n        /* \"#utility.yul\":2773:2836   */\n      tag_129\n      jumpi\n        /* \"#utility.yul\":2832:2833   */\n      0x00\n        /* \"#utility.yul\":2829:2830   */\n      0x00\n        /* \"#utility.yul\":2822:2834   */\n      revert\n        /* \"#utility.yul\":2773:2836   */\n    tag_129:\n        /* \"#utility.yul\":2720:2842   */\n      pop\n      jump\t// out\n        /* \"#utility.yul\":2848:2987   */\n    tag_75:\n        /* \"#utility.yul\":2894:2899   */\n      0x00\n        /* \"#utility.yul\":2932:2938   */\n      dup2\n        /* \"#utility.yul\":2919:2939   */\n      calldataload\n        /* \"#utility.yul\":2910:2939   */\n      swap1\n      pop\n        /* \"#utility.yul\":2948:2981   */\n      tag_131\n        /* \"#utility.yul\":2975:2980   */\n      dup2\n        /* \"#utility.yul\":2948:2981   */\n      tag_74\n      jump\t// in\n    tag_131:\n        /* \"#utility.yul\":2848:2987   */\n      swap3\n      swap2\n      pop\n      pop\n      jump\t// out\n        /* \"#utility.yul\":2993:3070   */\n    tag_76:\n        /* \"#utility.yul\":3030:3037   */\n      0x00\n        /* \"#utility.yul\":3059:3064   */\n      dup2\n        /* \"#utility.yul\":3048:3064   */\n      swap1\n      pop\n        /* \"#utility.yul\":2993:3070   */\n      swap2\n      swap1\n      pop\n      jump\t// out\n        /* \"#utility.yul\":3076:3198   */\n    tag_77:\n        /* \"#utility.yul\":3149:3173   */\n      tag_134\n        /* \"#utility.yul\":3167:3172   */\n      dup2\n        /* \"#utility.yul\":3149:3173   */\n      tag_76\n      jump\t// in\n    tag_134:\n        /* \"#utility.yul\":3142:3147   */\n      dup2\n        /* \"#utility.yul\":3139:3174   */\n      eq\n        /* \"#utility.yul\":3129:3192   */\n      tag_135\n      jumpi\n        /* \"#utility.yul\":3188:3189   */\n      0x00\n        /* \"#utility.yul\":3185:3186   */\n      0x00\n        /* \"#utility.yul\":3178:3190   */\n      revert\n        /* \"#utility.yul\":3129:3192   */\n    tag_135:\n        /* \"#utility.yul\":3076:3198   */\n      pop\n      jump\t// out\n        /* \"#utility.yul\":3204:3343   */\n    tag_78:\n        /* \"#utility.yul\":3250:3255   */\n      0x00\n        /* \"#utility.yul\":3288:3294   */\n      dup2\n        /* \"#utility.yul\":3275:3295   */\n      calldataload\n        /* \"#utility.yul\":3266:3295   */\n      swap1\n      pop\n        /* \"#utility.yul\":3304:3337   */\n      tag_137\n        /* \"#utility.yul\":3331:3336   */\n      dup2\n        /* \"#utility.yul\":3304:3337   */\n      tag_77\n      jump\t// in\n    tag_137:\n        /* \"#utility.yul\":3204:3343   */\n      swap3\n      swap2\n      pop\n      pop\n      jump\t// out\n        /* \"#utility.yul\":3349:3466   */\n    tag_79:\n        /* \"#utility.yul\":3458:3459   */\n      0x00\n        /* \"#utility.yul\":3455:3456   */\n      0x00\n        /* \"#utility.yul\":3448:3460   */\n      revert\n        /* \"#utility.yul\":3472:3589   */\n    tag_80:\n        /* \"#utility.yul\":3581:3582   */\n      0x00\n        /* \"#utility.yul\":3578:3579   */\n      0x00\n        /* \"#utility.yul\":3571:3583   */\n      revert\n        /* \"#utility.yul\":3595:3712   */\n    tag_81:\n        /* \"#utility.yul\":3704:3705   */\n      0x00\n        /* \"#utility.yul\":3701:3702   */\n      0x00\n        /* \"#utility.yul\":3694:3706   */\n      revert\n        /* \"#utility.yul\":3731:4283   */\n    tag_82:\n        /* \"#utility.yul\":3788:3796   */\n      0x00\n        /* \"#utility.yul\":3798:3804   */\n      0x00\n        /* \"#utility.yul\":3848:3851   */\n      dup4\n        /* \"#utility.yul\":3841:3845   */\n      0x1f\n        /* \"#utility.yul\":3833:3839   */\n      dup5\n        /* \"#utility.yul\":3829:3846   */\n      add\n        /* \"#utility.yul\":3825:3852   */\n      slt\n        /* \"#utility.yul\":3815:3937   */\n      tag_142\n      jumpi\n        /* \"#utility.yul\":3856:3935   */\n      tag_143\n      tag_79\n      jump\t// in\n    tag_143:\n        /* \"#utility.yul\":3815:3937   */\n    tag_142:\n        /* \"#utility.yul\":3969:3975   */\n      dup3\n        /* \"#utility.yul\":3956:3976   */\n      calldataload\n        /* \"#utility.yul\":3946:3976   */\n      swap1\n      pop\n        /* \"#utility.yul\":3999:4017   */\n      0xffffffffffffffff\n        /* \"#utility.yul\":3991:3997   */\n      dup2\n        /* \"#utility.yul\":3988:4018   */\n      gt\n        /* \"#utility.yul\":3985:4102   */\n      iszero\n      tag_144\n      jumpi\n        /* \"#utility.yul\":4021:4100   */\n      tag_145\n      tag_80\n      jump\t// in\n    tag_145:\n        /* \"#utility.yul\":3985:4102   */\n    tag_144:\n        /* \"#utility.yul\":4135:4139   */\n      0x20\n        /* \"#utility.yul\":4127:4133   */\n      dup4\n        /* \"#utility.yul\":4123:4140   */\n      add\n        /* \"#utility.yul\":4111:4140   */\n      swap2\n      pop\n        /* \"#utility.yul\":4189:4192   */\n      dup4\n        /* \"#utility.yul\":4181:4185   */\n      0x01\n        /* \"#utility.yul\":4173:4179   */\n      dup3\n        /* \"#utility.yul\":4169:4186   */\n      mul\n        /* \"#utility.yul\":4159:4167   */\n      dup4\n        /* \"#utility.yul\":4155:4187   */\n      add\n        /* \"#utility.yul\":4152:4193   */\n      gt\n        /* \"#utility.yul\":4149:4277   */\n      iszero\n      tag_146\n      jumpi\n        /* \"#utility.yul\":4196:4275   */\n      tag_147\n      tag_81\n      jump\t// in\n    tag_147:\n        /* \"#utility.yul\":4149:4277   */\n    tag_146:\n        /* \"#utility.yul\":3731:4283   */\n      swap3\n      pop\n      swap3\n      swap1\n      pop\n      jump\t// out\n        /* \"#utility.yul\":4289:5252   */\n    tag_23:\n        /* \"#utility.yul\":4386:4392   */\n      0x00\n        /* \"#utility.yul\":4394:4400   */\n      0x00\n        /* \"#utility.yul\":4402:4408   */\n      0x00\n        /* \"#utility.yul\":4410:4416   */\n      0x00\n        /* \"#utility.yul\":4418:4424   */\n      0x00\n        /* \"#utility.yul\":4467:4470   */\n      0x80\n        /* \"#utility.yul\":4455:4464   */\n      dup7\n        /* \"#utility.yul\":4446:4453   */\n      dup9\n        /* \"#utility.yul\":4442:4465   */\n      sub\n        /* \"#utility.yul\":4438:4471   */\n      slt\n        /* \"#utility.yul\":4435:4555   */\n      iszero\n      tag_149\n      jumpi\n        /* \"#utility.yul\":4474:4553   */\n      tag_150\n      tag_60\n      jump\t// in\n    tag_150:\n        /* \"#utility.yul\":4435:4555   */\n    tag_149:\n        /* \"#utility.yul\":4594:4595   */\n      0x00\n        /* \"#utility.yul\":4619:4672   */\n      tag_151\n        /* \"#utility.yul\":4664:4671   */\n      dup9\n        /* \"#utility.yul\":4655:4661   */\n      dup3\n        /* \"#utility.yul\":4644:4653   */\n      dup10\n        /* \"#utility.yul\":4640:4662   */\n      add\n        /* \"#utility.yul\":4619:4672   */\n      tag_75\n      jump\t// in\n    tag_151:\n        /* \"#utility.yul\":4609:4672   */\n      swap6\n      pop\n        /* \"#utility.yul\":4565:4682   */\n      pop\n        /* \"#utility.yul\":4721:4723   */\n      0x20\n        /* \"#utility.yul\":4747:4800   */\n      tag_152\n        /* \"#utility.yul\":4792:4799   */\n      dup9\n        /* \"#utility.yul\":4783:4789   */\n      dup3\n        /* \"#utility.yul\":4772:4781   */\n      dup10\n        /* \"#utility.yul\":4768:4790   */\n      add\n        /* \"#utility.yul\":4747:4800   */\n      tag_75\n      jump\t// in\n    tag_152:\n        /* \"#utility.yul\":4737:4800   */\n      swap5\n      pop\n        /* \"#utility.yul\":4692:4810   */\n      pop\n        /* \"#utility.yul\":4849:4851   */\n      0x40\n        /* \"#utility.yul\":4875:4928   */\n      tag_153\n        /* \"#utility.yul\":4920:4927   */\n      dup9\n        /* \"#utility.yul\":4911:4917   */\n      dup3\n        /* \"#utility.yul\":4900:4909   */\n      dup10\n        /* \"#utility.yul\":4896:4918   */\n      add\n        /* \"#utility.yul\":4875:4928   */\n      tag_78\n      jump\t// in\n    tag_153:\n        /* \"#utility.yul\":4865:4928   */\n      swap4\n      pop\n        /* \"#utility.yul\":4820:4938   */\n      pop\n        /* \"#utility.yul\":5005:5007   */\n      0x60\n        /* \"#utility.yul\":4994:5003   */\n      dup7\n        /* \"#utility.yul\":4990:5008   */\n      add\n        /* \"#utility.yul\":4977:5009   */\n      calldataload\n        /* \"#utility.yul\":5036:5054   */\n      0xffffffffffffffff\n        /* \"#utility.yul\":5028:5034   */\n      dup2\n        /* \"#utility.yul\":5025:5055   */\n      gt\n        /* \"#utility.yul\":5022:5139   */\n      iszero\n      tag_154\n      jumpi\n        /* \"#utility.yul\":5058:5137   */\n      tag_155\n      tag_61\n      jump\t// in\n    tag_155:\n        /* \"#utility.yul\":5022:5139   */\n    tag_154:\n        /* \"#utility.yul\":5171:5235   */\n      tag_156\n        /* \"#utility.yul\":5227:5234   */\n      dup9\n        /* \"#utility.yul\":5218:5224   */\n      dup3\n        /* \"#utility.yul\":5207:5216   */\n      dup10\n        /* \"#utility.yul\":5203:5225   */\n      add\n        /* \"#utility.yul\":5171:5235   */\n      tag_82\n      jump\t// in\n    tag_156:\n        /* \"#utility.yul\":5153:5235   */\n      swap3\n      pop\n      swap3\n      pop\n        /* \"#utility.yul\":4948:5245   */\n      pop\n        /* \"#utility.yul\":4289:5252   */\n      swap3\n      swap6\n      pop\n      swap3\n      swap6\n      swap1\n      swap4\n      pop\n      jump\t// out\n        /* \"#utility.yul\":5258:5376   */\n    tag_83:\n        /* \"#utility.yul\":5345:5369   */\n      tag_158\n        /* \"#utility.yul\":5363:5368   */\n      dup2\n        /* \"#utility.yul\":5345:5369   */\n      tag_76\n      jump\t// in\n    tag_158:\n        /* \"#utility.yul\":5340:5343   */\n      dup3\n        /* \"#utility.yul\":5333:5370   */\n      mstore\n        /* \"#utility.yul\":5258:5376   */\n      pop\n      pop\n      jump\t// out\n        /* \"#utility.yul\":5382:5702   */\n    tag_26:\n        /* \"#utility.yul\":5497:5501   */\n      0x00\n        /* \"#utility.yul\":5535:5537   */\n      0x40\n        /* \"#utility.yul\":5524:5533   */\n      dup3\n        /* \"#utility.yul\":5520:5538   */\n      add\n        /* \"#utility.yul\":5512:5538   */\n      swap1\n      pop\n        /* \"#utility.yul\":5548:5613   */\n      tag_160\n        /* \"#utility.yul\":5610:5611   */\n      0x00\n        /* \"#utility.yul\":5599:5608   */\n      dup4\n        /* \"#utility.yul\":5595:5612   */\n      add\n        /* \"#utility.yul\":5586:5592   */\n      dup6\n        /* \"#utility.yul\":5548:5613   */\n      tag_66\n      jump\t// in\n    tag_160:\n        /* \"#utility.yul\":5623:5695   */\n      tag_161\n        /* \"#utility.yul\":5691:5693   */\n      0x20\n        /* \"#utility.yul\":5680:5689   */\n      dup4\n        /* \"#utility.yul\":5676:5694   */\n      add\n        /* \"#utility.yul\":5667:5673   */\n      dup5\n        /* \"#utility.yul\":5623:5695   */\n      tag_83\n      jump\t// in\n    tag_161:\n        /* \"#utility.yul\":5382:5702   */\n      swap4\n      swap3\n      pop\n      pop\n      pop\n      jump\t// out\n        /* \"#utility.yul\":5708:5794   */\n    tag_84:\n        /* \"#utility.yul\":5743:5750   */\n      0x00\n        /* \"#utility.yul\":5783:5787   */\n      0xff\n        /* \"#utility.yul\":5776:5781   */\n      dup3\n        /* \"#utility.yul\":5772:5788   */\n      and\n        /* \"#utility.yul\":5761:5788   */\n      swap1\n      pop\n        /* \"#utility.yul\":5708:5794   */\n      swap2\n      swap1\n      pop\n      jump\t// out\n        /* \"#utility.yul\":5800:5918   */\n    tag_85:\n        /* \"#utility.yul\":5871:5893   */\n      tag_164\n        /* \"#utility.yul\":5887:5892   */\n      dup2\n        /* \"#utility.yul\":5871:5893   */\n      tag_84\n      jump\t// in\n    tag_164:\n        /* \"#utility.yul\":5864:5869   */\n      dup2\n        /* \"#utility.yul\":5861:5894   */\n      eq\n        /* \"#utility.yul\":5851:5912   */\n      tag_165\n      jumpi\n        /* \"#utility.yul\":5908:5909   */\n      0x00\n        /* \"#utility.yul\":5905:5906   */\n      0x00\n        /* \"#utility.yul\":5898:5910   */\n      revert\n        /* \"#utility.yul\":5851:5912   */\n    tag_165:\n        /* \"#utility.yul\":5800:5918   */\n      pop\n      jump\t// out\n        /* \"#utility.yul\":5924:6059   */\n    tag_86:\n        /* \"#utility.yul\":5968:5973   */\n      0x00\n        /* \"#utility.yul\":6006:6012   */\n      dup2\n        /* \"#utility.yul\":5993:6013   */\n      calldataload\n        /* \"#utility.yul\":5984:6013   */\n      swap1\n      pop\n        /* \"#utility.yul\":6022:6053   */\n      tag_167\n        /* \"#utility.yul\":6047:6052   */\n      dup2\n        /* \"#utility.yul\":6022:6053   */\n      tag_85\n      jump\t// in\n    tag_167:\n        /* \"#utility.yul\":5924:6059   */\n      swap3\n      swap2\n      pop\n      pop\n      jump\t// out\n        /* \"#utility.yul\":6065:6390   */\n    tag_29:\n        /* \"#utility.yul\":6122:6128   */\n      0x00\n        /* \"#utility.yul\":6171:6173   */\n      0x20\n        /* \"#utility.yul\":6159:6168   */\n      dup3\n        /* \"#utility.yul\":6150:6157   */\n      dup5\n        /* \"#utility.yul\":6146:6169   */\n      sub\n        /* \"#utility.yul\":6142:6174   */\n      slt\n        /* \"#utility.yul\":6139:6258   */\n      iszero\n      tag_169\n      jumpi\n        /* \"#utility.yul\":6177:6256   */\n      tag_170\n      tag_60\n      jump\t// in\n    tag_170:\n        /* \"#utility.yul\":6139:6258   */\n    tag_169:\n        /* \"#utility.yul\":6297:6298   */\n      0x00\n        /* \"#utility.yul\":6322:6373   */\n      tag_171\n        /* \"#utility.yul\":6365:6372   */\n      dup5\n        /* \"#utility.yul\":6356:6362   */\n      dup3\n        /* \"#utility.yul\":6345:6354   */\n      dup6\n        /* \"#utility.yul\":6341:6363   */\n      add\n        /* \"#utility.yul\":6322:6373   */\n      tag_86\n      jump\t// in\n    tag_171:\n        /* \"#utility.yul\":6312:6373   */\n      swap2\n      pop\n        /* \"#utility.yul\":6268:6383   */\n      pop\n        /* \"#utility.yul\":6065:6390   */\n      swap3\n      swap2\n      pop\n      pop\n      jump\t// out\n        /* \"#utility.yul\":6396:6514   */\n    tag_87:\n        /* \"#utility.yul\":6483:6507   */\n      tag_173\n        /* \"#utility.yul\":6501:6506   */\n      dup2\n        /* \"#utility.yul\":6483:6507   */\n      tag_73\n      jump\t// in\n    tag_173:\n        /* \"#utility.yul\":6478:6481   */\n      dup3\n        /* \"#utility.yul\":6471:6508   */\n      mstore\n        /* \"#utility.yul\":6396:6514   */\n      pop\n      pop\n      jump\t// out\n        /* \"#utility.yul\":6520:6742   */\n    tag_35:\n        /* \"#utility.yul\":6613:6617   */\n      0x00\n        /* \"#utility.yul\":6651:6653   */\n      0x20\n        /* \"#utility.yul\":6640:6649   */\n      dup3\n        /* \"#utility.yul\":6636:6654   */\n      add\n        /* \"#utility.yul\":6628:6654   */\n      swap1\n      pop\n        /* \"#utility.yul\":6664:6735   */\n      tag_175\n        /* \"#utility.yul\":6732:6733   */\n      0x00\n        /* \"#utility.yul\":6721:6730   */\n      dup4\n        /* \"#utility.yul\":6717:6734   */\n      add\n        /* \"#utility.yul\":6708:6714   */\n      dup5\n        /* \"#utility.yul\":6664:6735   */\n      tag_87\n      jump\t// in\n    tag_175:\n        /* \"#utility.yul\":6520:6742   */\n      swap3\n      swap2\n      pop\n      pop\n      jump\t// out\n        /* \"#utility.yul\":6748:6864   */\n    tag_88:\n        /* \"#utility.yul\":6818:6839   */\n      tag_177\n        /* \"#utility.yul\":6833:6838   */\n      dup2\n        /* \"#utility.yul\":6818:6839   */\n      tag_65\n      jump\t// in\n    tag_177:\n        /* \"#utility.yul\":6811:6816   */\n      dup2\n        /* \"#utility.yul\":6808:6840   */\n      eq\n        /* \"#utility.yul\":6798:6858   */\n      tag_178\n      jumpi\n        /* \"#utility.yul\":6854:6855   */\n      0x00\n        /* \"#utility.yul\":6851:6852   */\n      0x00\n        /* \"#utility.yul\":6844:6856   */\n      revert\n        /* \"#utility.yul\":6798:6858   */\n    tag_178:\n        /* \"#utility.yul\":6748:6864   */\n      pop\n      jump\t// out\n        /* \"#utility.yul\":6870:7007   */\n    tag_89:\n        /* \"#utility.yul\":6924:6929   */\n      0x00\n        /* \"#utility.yul\":6955:6961   */\n      dup2\n        /* \"#utility.yul\":6949:6962   */\n      mload\n        /* \"#utility.yul\":6940:6962   */\n      swap1\n      pop\n        /* \"#utility.yul\":6971:7001   */\n      tag_180\n        /* \"#utility.yul\":6995:7000   */\n      dup2\n        /* \"#utility.yul\":6971:7001   */\n      tag_88\n      jump\t// in\n    tag_180:\n        /* \"#utility.yul\":6870:7007   */\n      swap3\n      swap2\n      pop\n      pop\n      jump\t// out\n        /* \"#utility.yul\":7013:7358   */\n    tag_39:\n        /* \"#utility.yul\":7080:7086   */\n      0x00\n        /* \"#utility.yul\":7129:7131   */\n      0x20\n        /* \"#utility.yul\":7117:7126   */\n      dup3\n        /* \"#utility.yul\":7108:7115   */\n      dup5\n        /* \"#utility.yul\":7104:7127   */\n      sub\n        /* \"#utility.yul\":7100:7132   */\n      slt\n        /* \"#utility.yul\":7097:7216   */\n      iszero\n      tag_182\n      jumpi\n        /* \"#utility.yul\":7135:7214   */\n      tag_183\n      tag_60\n      jump\t// in\n    tag_183:\n        /* \"#utility.yul\":7097:7216   */\n    tag_182:\n        /* \"#utility.yul\":7255:7256   */\n      0x00\n        /* \"#utility.yul\":7280:7341   */\n      tag_184\n        /* \"#utility.yul\":7333:7340   */\n      dup5\n        /* \"#utility.yul\":7324:7330   */\n      dup3\n        /* \"#utility.yul\":7313:7322   */\n      dup6\n        /* \"#utility.yul\":7309:7331   */\n      add\n        /* \"#utility.yul\":7280:7341   */\n      tag_89\n      jump\t// in\n    tag_184:\n        /* \"#utility.yul\":7270:7341   */\n      swap2\n      pop\n        /* \"#utility.yul\":7226:7351   */\n      pop\n        /* \"#utility.yul\":7013:7358   */\n      swap3\n      swap2\n      pop\n      pop\n      jump\t// out\n        /* \"#utility.yul\":7364:7505   */\n    tag_90:\n        /* \"#utility.yul\":7420:7425   */\n      0x00\n        /* \"#utility.yul\":7451:7457   */\n      dup2\n        /* \"#utility.yul\":7445:7458   */\n      mload\n        /* \"#utility.yul\":7436:7458   */\n      swap1\n      pop\n        /* \"#utility.yul\":7467:7499   */\n      tag_186\n        /* \"#utility.yul\":7493:7498   */\n      dup2\n        /* \"#utility.yul\":7467:7499   */\n      tag_63\n      jump\t// in\n    tag_186:\n        /* \"#utility.yul\":7364:7505   */\n      swap3\n      swap2\n      pop\n      pop\n      jump\t// out\n        /* \"#utility.yul\":7511:7860   */\n    tag_51:\n        /* \"#utility.yul\":7580:7586   */\n      0x00\n        /* \"#utility.yul\":7629:7631   */\n      0x20\n        /* \"#utility.yul\":7617:7626   */\n      dup3\n        /* \"#utility.yul\":7608:7615   */\n      dup5\n        /* \"#utility.yul\":7604:7627   */\n      sub\n        /* \"#utility.yul\":7600:7632   */\n      slt\n        /* \"#utility.yul\":7597:7716   */\n      iszero\n      tag_188\n      jumpi\n        /* \"#utility.yul\":7635:7714   */\n      tag_189\n      tag_60\n      jump\t// in\n    tag_189:\n        /* \"#utility.yul\":7597:7716   */\n    tag_188:\n        /* \"#utility.yul\":7755:7756   */\n      0x00\n        /* \"#utility.yul\":7780:7843   */\n      tag_190\n        /* \"#utility.yul\":7835:7842   */\n      dup5\n        /* \"#utility.yul\":7826:7832   */\n      dup3\n        /* \"#utility.yul\":7815:7824   */\n      dup6\n        /* \"#utility.yul\":7811:7833   */\n      add\n        /* \"#utility.yul\":7780:7843   */\n      tag_90\n      jump\t// in\n    tag_190:\n        /* \"#utility.yul\":7770:7843   */\n      swap2\n      pop\n        /* \"#utility.yul\":7726:7853   */\n      pop\n        /* \"#utility.yul\":7511:7860   */\n      swap3\n      swap2\n      pop\n      pop\n      jump\t// out\n        /* \"#utility.yul\":7866:8005   */\n    tag_91:\n        /* \"#utility.yul\":7921:7926   */\n      0x00\n        /* \"#utility.yul\":7952:7958   */\n      dup2\n        /* \"#utility.yul\":7946:7959   */\n      mload\n        /* \"#utility.yul\":7937:7959   */\n      swap1\n      pop\n        /* \"#utility.yul\":7968:7999   */\n      tag_192\n        /* \"#utility.yul\":7993:7998   */\n      dup2\n        /* \"#utility.yul\":7968:7999   */\n      tag_85\n      jump\t// in\n    tag_192:\n        /* \"#utility.yul\":7866:8005   */\n      swap3\n      swap2\n      pop\n      pop\n      jump\t// out\n        /* \"#utility.yul\":8011:8358   */\n    tag_57:\n        /* \"#utility.yul\":8079:8085   */\n      0x00\n        /* \"#utility.yul\":8128:8130   */\n      0x20\n        /* \"#utility.yul\":8116:8125   */\n      dup3\n        /* \"#utility.yul\":8107:8114   */\n      dup5\n        /* \"#utility.yul\":8103:8126   */\n      sub\n        /* \"#utility.yul\":8099:8131   */\n      slt\n        /* \"#utility.yul\":8096:8215   */\n      iszero\n      tag_194\n      jumpi\n        /* \"#utility.yul\":8134:8213   */\n      tag_195\n      tag_60\n      jump\t// in\n    tag_195:\n        /* \"#utility.yul\":8096:8215   */\n    tag_194:\n        /* \"#utility.yul\":8254:8255   */\n      0x00\n        /* \"#utility.yul\":8279:8341   */\n      tag_196\n        /* \"#utility.yul\":8333:8340   */\n      dup5\n        /* \"#utility.yul\":8324:8330   */\n      dup3\n        /* \"#utility.yul\":8313:8322   */\n      dup6\n        /* \"#utility.yul\":8309:8331   */\n      add\n        /* \"#utility.yul\":8279:8341   */\n      tag_91\n      jump\t// in\n    tag_196:\n        /* \"#utility.yul\":8269:8341   */\n      swap2\n      pop\n        /* \"#utility.yul\":8225:8351   */\n      pop\n        /* \"#utility.yul\":8011:8358   */\n      swap3\n      swap2\n      pop\n      pop\n      jump\t// out\n\n    auxdata: 0xa264697066735822122060f3129b07e3d2a36c70d29d1e379a08a1e7eae2898917a1e136c2c5c621d84164736f6c634300081e0033\n}\n",
				"bytecode": {
					"linkReferences": {},
					"object": "60a0604052600160025f6101000a81548160ff021916908315150217905550348015610029575f5ffd5b50604051610efd380380610efd833981810160405281019061004b9190610491565b8273ffffffffffffffffffffffffffffffffffffffff1660808173ffffffffffffffffffffffffffffffffffffffff16815250505f5f90505b825181101561011e5760015f5f8584815181106100a4576100a3610519565b5b60200260200101517dffffffffffffffffffffffffffffffffffffffffffffffffffffffffffff19167dffffffffffffffffffffffffffffffffffffffffffffffffffffffffffff191681526020019081526020015f205f6101000a81548160ff0219169083151502179055508080600101915050610084565b505f5f90505b8151811015610182576001805f84848151811061014457610143610519565b5b602002602001015160ff1660ff1681526020019081526020015f205f6101000a81548160ff0219169083151502179055508080600101915050610124565b50505050610546565b5f604051905090565b5f5ffd5b5f5ffd5b5f73ffffffffffffffffffffffffffffffffffffffff82169050919050565b5f6101c58261019c565b9050919050565b6101d5816101bb565b81146101df575f5ffd5b50565b5f815190506101f0816101cc565b92915050565b5f5ffd5b5f601f19601f8301169050919050565b7f4e487b71000000000000000000000000000000000000000000000000000000005f52604160045260245ffd5b610240826101fa565b810181811067ffffffffffffffff8211171561025f5761025e61020a565b5b80604052505050565b5f61027161018b565b905061027d8282610237565b919050565b5f67ffffffffffffffff82111561029c5761029b61020a565b5b602082029050602081019050919050565b5f5ffd5b5f7fffff00000000000000000000000000000000000000000000000000000000000082169050919050565b6102e5816102b1565b81146102ef575f5ffd5b50565b5f81519050610300816102dc565b92915050565b5f61031861031384610282565b610268565b9050808382526020820190506020840283018581111561033b5761033a6102ad565b5b835b81811015610364578061035088826102f2565b84526020840193505060208101905061033d565b5050509392505050565b5f82601f830112610382576103816101f6565b5b8151610392848260208601610306565b91505092915050565b5f67ffffffffffffffff8211156103b5576103b461020a565b5b602082029050602081019050919050565b5f60ff82169050919050565b6103db816103c6565b81146103e5575f5ffd5b50565b5f815190506103f6816103d2565b92915050565b5f61040e6104098461039b565b610268565b90508083825260208201905060208402830185811115610431576104306102ad565b5b835b8181101561045a578061044688826103e8565b845260208401935050602081019050610433565b5050509392505050565b5f82601f830112610478576104776101f6565b5b81516104888482602086016103fc565b91505092915050565b5f5f5f606084860312156104a8576104a7610194565b5b5f6104b5868287016101e2565b935050602084015167ffffffffffffffff8111156104d6576104d5610198565b5b6104e28682870161036e565b925050604084015167ffffffffffffffff81111561050357610502610198565b5b61050f86828701610464565b9150509250925092565b7f4e487b71000000000000000000000000000000000000000000000000000000005f52603260045260245ffd5b60805161098361057a5f395f8181610156015281816101af0152818161026e0152818161031b015261042301526109835ff3fe608060405234801561000f575f5ffd5b5060043610610055575f3560e01c8063227d18a8146100595780634bf4384414610089578063738fdd1a146100a75780639d6232fa146100c5578063a74e9f13146100f6575b5f5ffd5b610073600480360381019061006e9190610577565b610126565b60405161008091906105bc565b60405180910390f35b610091610142565b60405161009e91906105bc565b60405180910390f35b6100af610154565b6040516100bc919061064f565b60405180910390f35b6100df60048036038101906100da9190610737565b610178565b6040516100ed9291906107ca565b60405180910390f35b610110600480360381019061010b9190610827565b6104fd565b60405161011d91906105bc565b60405180910390f35b5f602052805f5260405f205f915054906101000a900460ff1681565b60025f9054906101000a900460ff1681565b7f000000000000000000000000000000000000000000000000000000000000000081565b5f5f5f73ffffffffffffffffffffffffffffffffffffffff168773ffffffffffffffffffffffffffffffffffffffff16146104eb577f000000000000000000000000000000000000000000000000000000000000000073ffffffffffffffffffffffffffffffffffffffff1663b9209e33886040518263ffffffff1660e01b81526004016102069190610861565b602060405180830381865afa158015610221573d5f5f3e3d5ffd5b505050506040513d601f19601f8201168201806040525081019061024591906108a4565b610256575f6103e9915091506104f3565b60025f9054906101000a900460ff16801561030557507f000000000000000000000000000000000000000000000000000000000000000073ffffffffffffffffffffffffffffffffffffffff1663fe575a87886040518263ffffffff1660e01b81526004016102c59190610861565b602060405180830381865afa1580156102e0573d5f5f3e3d5ffd5b505050506040513d601f19601f8201168201806040525081019061030491906108a4565b5b15610317575f6103eb915091506104f3565b5f5f7f000000000000000000000000000000000000000000000000000000000000000073ffffffffffffffffffffffffffffffffffffffff1663dce9571f8a6040518263ffffffff1660e01b81526004016103729190610861565b602060405180830381865afa15801561038d573d5f5f3e3d5ffd5b505050506040513d601f19601f820116820180604052508101906103b191906108e3565b7dffffffffffffffffffffffffffffffffffffffffffffffffffffffffffff19167dffffffffffffffffffffffffffffffffffffffffffffffffffffffffffff191681526020019081526020015f205f9054906101000a900460ff1661041e575f6103ec915091506104f3565b60015f7f000000000000000000000000000000000000000000000000000000000000000073ffffffffffffffffffffffffffffffffffffffff166305bd49708a6040518263ffffffff1660e01b815260040161047a9190610861565b602060405180830381865afa158015610495573d5f5f3e3d5ffd5b505050506040513d601f19601f820116820180604052508101906104b99190610922565b60ff1660ff1681526020019081526020015f205f9054906101000a900460ff166104ea575f6103ed915091506104f3565b5b60015f915091505b9550959350505050565b6001602052805f5260405f205f915054906101000a900460ff1681565b5f5ffd5b5f5ffd5b5f7fffff00000000000000000000000000000000000000000000000000000000000082169050919050565b61055681610522565b8114610560575f5ffd5b50565b5f813590506105718161054d565b92915050565b5f6020828403121561058c5761058b61051a565b5b5f61059984828501610563565b91505092915050565b5f8115159050919050565b6105b6816105a2565b82525050565b5f6020820190506105cf5f8301846105ad565b92915050565b5f73ffffffffffffffffffffffffffffffffffffffff82169050919050565b5f819050919050565b5f61061761061261060d846105d5565b6105f4565b6105d5565b9050919050565b5f610628826105fd565b9050919050565b5f6106398261061e565b9050919050565b6106498161062f565b82525050565b5f6020820190506106625f830184610640565b92915050565b5f610672826105d5565b9050919050565b61068281610668565b811461068c575f5ffd5b50565b5f8135905061069d81610679565b92915050565b5f819050919050565b6106b5816106a3565b81146106bf575f5ffd5b50565b5f813590506106d0816106ac565b92915050565b5f5ffd5b5f5ffd5b5f5ffd5b5f5f83601f8401126106f7576106f66106d6565b5b8235905067ffffffffffffffff811115610714576107136106da565b5b6020830191508360018202830111156107305761072f6106de565b5b9250929050565b5f5f5f5f5f608086880312156107505761074f61051a565b5b5f61075d8882890161068f565b955050602061076e8882890161068f565b945050604061077f888289016106c2565b935050606086013567ffffffffffffffff8111156107a05761079f61051e565b5b6107ac888289016106e2565b92509250509295509295909350565b6107c4816106a3565b82525050565b5f6040820190506107dd5f8301856105ad565b6107ea60208301846107bb565b9392505050565b5f60ff82169050919050565b610806816107f1565b8114610810575f5ffd5b50565b5f81359050610821816107fd565b92915050565b5f6020828403121561083c5761083b61051a565b5b5f61084984828501610813565b91505092915050565b61085b81610668565b82525050565b5f6020820190506108745f830184610852565b92915050565b610883816105a2565b811461088d575f5ffd5b50565b5f8151905061089e8161087a565b92915050565b5f602082840312156108b9576108b861051a565b5b5f6108c684828501610890565b91505092915050565b5f815190506108dd8161054d565b92915050565b5f602082840312156108f8576108f761051a565b5b5f610905848285016108cf565b91505092915050565b5f8151905061091c816107fd565b92915050565b5f602082840312156109375761093661051a565b5b5f6109448482850161090e565b9150509291505056fea264697066735822122060f3129b07e3d2a36c70d29d1e379a08a1e7eae2898917a1e136c2c5c621d84164736f6c634300081e0033",
					"opcodes": "PUSH1 0xA0 PUSH1 0x40 MSTORE PUSH1 0x1 PUSH1 0x2 PUSH0 PUSH2 0x100 EXP DUP2 SLOAD DUP2 PUSH1 0xFF MUL NOT AND SWAP1 DUP4 ISZERO ISZERO MUL OR SWAP1 SSTORE POP CALLVALUE DUP1 ISZERO PUSH2 0x29 JUMPI PUSH0 PUSH0 REVERT JUMPDEST POP PUSH1 0x40 MLOAD PUSH2 0xEFD CODESIZE SUB DUP1 PUSH2 0xEFD DUP4 CODECOPY DUP2 DUP2 ADD PUSH1 0x40 MSTORE DUP2 ADD SWAP1 PUSH2 0x4B SWAP2 SWAP1 PUSH2 0x491 JUMP JUMPDEST DUP3 PUSH20 0xFFFFFFFFFFFFFFFFFFFFFFFFFFFFFFFFFFFFFFFF AND PUSH1 0x80 DUP2 PUSH20 0xFFFFFFFFFFFFFFFFFFFFFFFFFFFFFFFFFFFFFFFF AND DUP2 MSTORE POP POP PUSH0 PUSH0 SWAP1 POP JUMPDEST DUP3 MLOAD DUP2 LT ISZERO PUSH2 0x11E JUMPI PUSH1 0x1 PUSH0 PUSH0 DUP6 DUP5 DUP2 MLOAD DUP2 LT PUSH2 0xA4 JUMPI PUSH2 0xA3 PUSH2 0x519 JUMP JUMPDEST JUMPDEST PUSH1 0x20 MUL PUSH1 0x20 ADD ADD MLOAD PUSH30 0xFFFFFFFFFFFFFFFFFFFFFFFFFFFFFFFFFFFFFFFFFFFFFFFFFFFFFFFFFFFF NOT AND PUSH30 0xFFFFFFFFFFFFFFFFFFFFFFFFFFFFFFFFFFFFFFFFFFFFFFFFFFFFFFFFFFFF NOT AND DUP2 MSTORE PUSH1 0x20 ADD SWAP1 DUP2 MSTORE PUSH1 0x20 ADD PUSH0 KECCAK256 PUSH0 PUSH2 0x100 EXP DUP2 SLOAD DUP2 PUSH1 0xFF MUL NOT AND SWAP1 DUP4 ISZERO ISZERO MUL OR SWAP1 SSTORE POP DUP1 DUP1 PUSH1 0x1 ADD SWAP2 POP POP PUSH2 0x84 JUMP JUMPDEST POP PUSH0 PUSH0 SWAP1 POP JUMPDEST DUP2 MLOAD DUP2 LT ISZERO PUSH2 0x182 JUMPI PUSH1 0x1 DUP1 PUSH0 DUP5 DUP5 DUP2 MLOAD DUP2 LT PUSH2 0x144 JUMPI PUSH2 0x143 PUSH2 0x519 JUMP JUMPDEST JUMPDEST PUSH1 0x20 MUL PUSH1 0x20 ADD ADD MLOAD PUSH1 0xFF AND PUSH1 0xFF AND DUP2 MSTORE PUSH1 0x20 ADD SWAP1 DUP2 MSTORE PUSH1 0x20 ADD PUSH0 KECCAK256 PUSH0 PUSH2 0x100 EXP DUP2 SLOAD DUP2 PUSH1 0xFF MUL NOT AND SWAP1 DUP4 ISZERO ISZERO MUL OR SWAP1 SSTORE POP DUP1 DUP1 PUSH1 0x1 ADD SWAP2 POP POP PUSH2 0x124 JUMP JUMPDEST POP POP POP POP PUSH2 0x546 JUMP JUMPDEST PUSH0 PUSH1 0x40 MLOAD SWAP1 POP SWAP1 JUMP JUMPDEST PUSH0 PUSH0 REVERT JUMPDEST PUSH0 PUSH0 REVERT JUMPDEST PUSH0 PUSH20 0xFFFFFFFFFFFFFFFFFFFFFFFFFFFFFFFFFFFFFFFF DUP3 AND SWAP1 POP SWAP2 SWAP1 POP JUMP JUMPDEST PUSH0 PUSH2 0x1C5 DUP3 PUSH2 0x19C JUMP JUMPDEST SWAP1 POP SWAP2 SWAP1 POP JUMP JUMPDEST PUSH2 0x1D5 DUP2 PUSH2 0x1BB JUMP JUMPDEST DUP2 EQ PUSH2 0x1DF JUMPI PUSH0 PUSH0 REVERT JUMPDEST POP JUMP JUMPDEST PUSH0 DUP2 MLOAD SWAP1 POP PUSH2 0x1F0 DUP2 PUSH2 0x1CC JUMP JUMPDEST SWAP3 SWAP2 POP POP JUMP JUMPDEST PUSH0 PUSH0 REVERT JUMPDEST PUSH0 PUSH1 0x1F NOT PUSH1 0x1F DUP4 ADD AND SWAP1 POP SWAP2 SWAP1 POP JUMP JUMPDEST PUSH32 0x4E487B7100000000000000000000000000000000000000000000000000000000 PUSH0 MSTORE PUSH1 0x41 PUSH1 0x4 MSTORE PUSH1 0x24 PUSH0 REVERT JUMPDEST PUSH2 0x240 DUP3 PUSH2 0x1FA JUMP JUMPDEST DUP2 ADD DUP2 DUP2 LT PUSH8 0xFFFFFFFFFFFFFFFF DUP3 GT OR ISZERO PUSH2 0x25F JUMPI PUSH2 0x25E PUSH2 0x20A JUMP JUMPDEST JUMPDEST DUP1 PUSH1 0x40 MSTORE POP POP POP JUMP JUMPDEST PUSH0 PUSH2 0x271 PUSH2 0x18B JUMP JUMPDEST SWAP1 POP PUSH2 0x27D DUP3 DUP3 PUSH2 0x237 JUMP JUMPDEST SWAP2 SWAP1 POP JUMP JUMPDEST PUSH0 PUSH8 0xFFFFFFFFFFFFFFFF DUP3 GT ISZERO PUSH2 0x29C JUMPI PUSH2 0x29B PUSH2 0x20A JUMP JUMPDEST JUMPDEST PUSH1 0x20 DUP3 MUL SWAP1 POP PUSH1 0x20 DUP2 ADD SWAP1 POP SWAP2 SWAP1 POP JUMP JUMPDEST PUSH0 PUSH0 REVERT JUMPDEST PUSH0 PUSH32 0xFFFF000000000000000000000000000000000000000000000000000000000000 DUP3 AND SWAP1 POP SWAP2 SWAP1 POP JUMP JUMPDEST PUSH2 0x2E5 DUP2 PUSH2 0x2B1 JUMP JUMPDEST DUP2 EQ PUSH2 0x2EF JUMPI PUSH0 PUSH0 REVERT JUMPDEST POP JUMP JUMPDEST PUSH0 DUP2 MLOAD SWAP1 POP PUSH2 0x300 DUP2 PUSH2 0x2DC JUMP JUMPDEST SWAP3 SWAP2 POP POP JUMP JUMPDEST PUSH0 PUSH2 0x318 PUSH2 0x313 DUP5 PUSH2 0x282 JUMP JUMPDEST PUSH2 0x268 JUMP JUMPDEST SWAP1 POP DUP1 DUP4 DUP3 MSTORE PUSH1 0x20 DUP3 ADD SWAP1 POP PUSH1 0x20 DUP5 MUL DUP4 ADD DUP6 DUP2 GT ISZERO PUSH2 0x33B JUMPI PUSH2 0x33A PUSH2 0x2AD JUMP JUMPDEST JUMPDEST DUP4 JUMPDEST DUP2 DUP2 LT ISZERO PUSH2 0x364 JUMPI DUP1 PUSH2 0x350 DUP9 DUP3 PUSH2 0x2F2 JUMP JUMPDEST DUP5 MSTORE PUSH1 0x20 DUP5 ADD SWAP4 POP POP PUSH1 0x20 DUP2 ADD SWAP1 POP PUSH2 0x33D JUMP JUMPDEST POP POP POP SWAP4 SWAP3 POP POP POP JUMP JUMPDEST PUSH0 DUP3 PUSH1 0x1F DUP4 ADD SLT PUSH2 0x382 JUMPI PUSH2 0x381 PUSH2 0x1F6 JUMP JUMPDEST JUMPDEST DUP2 MLOAD PUSH2 0x392 DUP5 DUP3 PUSH1 0x20 DUP7 ADD PUSH2 0x306 JUMP JUMPDEST SWAP2 POP POP SWAP3 SWAP2 POP POP JUMP JUMPDEST PUSH0 PUSH8 0xFFFFFFFFFFFFFFFF DUP3 GT ISZERO PUSH2 0x3B5 JUMPI PUSH2 0x3B4 PUSH2 0x20A JUMP JUMPDEST JUMPDEST PUSH1 0x20 DUP3 MUL SWAP1 POP PUSH1 0x20 DUP2 ADD SWAP1 POP SWAP2 SWAP1 POP JUMP JUMPDEST PUSH0 PUSH1 0xFF DUP3 AND SWAP1 POP SWAP2 SWAP1 POP JUMP JUMPDEST PUSH2 0x3DB DUP2 PUSH2 0x3C6 JUMP JUMPDEST DUP2 EQ PUSH2 0x3E5 JUMPI PUSH0 PUSH0 REVERT JUMPDEST POP JUMP JUMPDEST PUSH0 DUP2 MLOAD SWAP1 POP PUSH2 0x3F6 DUP2 PUSH2 0x3D2 JUMP JUMPDEST SWAP3 SWAP2 POP POP JUMP JUMPDEST PUSH0 PUSH2 0x40E PUSH2 0x409 DUP5 PUSH2 0x39B JUMP JUMPDEST PUSH2 0x268 JUMP JUMPDEST SWAP1 POP DUP1 DUP4 DUP3 MSTORE PUSH1 0x20 DUP3 ADD SWAP1 POP PUSH1 0x20 DUP5 MUL DUP4 ADD DUP6 DUP2 GT ISZERO PUSH2 0x431 JUMPI PUSH2 0x430 PUSH2 0x2AD JUMP JUMPDEST JUMPDEST DUP4 JUMPDEST DUP2 DUP2 LT ISZERO PUSH2 0x45A JUMPI DUP1 PUSH2 0x446 DUP9 DUP3 PUSH2 0x3E8 JUMP JUMPDEST DUP5 MSTORE PUSH1 0x20 DUP5 ADD SWAP4 POP POP PUSH1 0x20 DUP2 ADD SWAP1 POP PUSH2 0x433 JUMP JUMPDEST POP POP POP SWAP4 SWAP3 POP POP POP JUMP JUMPDEST PUSH0 DUP3 PUSH1 0x1F DUP4 ADD SLT PUSH2 0x478 JUMPI PUSH2 0x477 PUSH2 0x1F6 JUMP JUMPDEST JUMPDEST DUP2 MLOAD PUSH2 0x488 DUP5 DUP3 PUSH1 0x20 DUP7 ADD PUSH2 0x3FC JUMP JUMPDEST SWAP2 POP POP SWAP3 SWAP2 POP POP JUMP JUMPDEST PUSH0 PUSH0 PUSH0 PUSH1 0x60 DUP5 DUP7 SUB SLT ISZERO PUSH2 0x4A8 JUMPI PUSH2 0x4A7 PUSH2 0x194 JUMP JUMPDEST JUMPDEST PUSH0 PUSH2 0x4B5 DUP7 DUP3 DUP8 ADD PUSH2 0x1E2 JUMP JUMPDEST SWAP4 POP POP PUSH1 0x20 DUP5 ADD MLOAD PUSH8 0xFFFFFFFFFFFFFFFF DUP2 GT ISZERO PUSH2 0x4D6 JUMPI PUSH2 0x4D5 PUSH2 0x198 JUMP JUMPDEST JUMPDEST PUSH2 0x4E2 DUP7 DUP3 DUP8 ADD PUSH2 0x36E JUMP JUMPDEST SWAP3 POP POP PUSH1 0x40 DUP5 ADD MLOAD PUSH8 0xFFFFFFFFFFFFFFFF DUP2 GT ISZERO PUSH2 0x503 JUMPI PUSH2 0x502 PUSH2 0x198 JUMP JUMPDEST JUMPDEST PUSH2 0x50F DUP7 DUP3 DUP8 ADD PUSH2 0x464 JUMP JUMPDEST SWAP2 POP POP SWAP3 POP SWAP3 POP SWAP3 JUMP JUMPDEST PUSH32 0x4E487B7100000000000000000000000000000000000000000000000000000000 PUSH0 MSTORE PUSH1 0x32 PUSH1 0x4 MSTORE PUSH1 0x24 PUSH0 REVERT JUMPDEST PUSH1 0x80 MLOAD PUSH2 0x983 PUSH2 0x57A PUSH0 CODECOPY PUSH0 DUP2 DUP2 PUSH2 0x156 ADD MSTORE DUP2 DUP2 PUSH2 0x1AF ADD MSTORE DUP2 DUP2 PUSH2 0x26E ADD MSTORE DUP2 DUP2 PUSH2 0x31B ADD MSTORE PUSH2 0x423 ADD MSTORE PUSH2 0x983 PUSH0 RETURN INVALID PUSH1 0x80 PUSH1 0x40 MSTORE CALLVALUE DUP1 ISZERO PUSH2 0xF JUMPI PUSH0 PUSH0 REVERT JUMPDEST POP PUSH1 0x4 CALLDATASIZE LT PUSH2 0x55 JUMPI PUSH0 CALLDATALOAD PUSH1 0xE0 SHR DUP1 PUSH4 0x227D18A8 EQ PUSH2 0x59 JUMPI DUP1 PUSH4 0x4BF43844 EQ PUSH2 0x89 JUMPI DUP1 PUSH4 0x738FDD1A EQ PUSH2 0xA7 JUMPI DUP1 PUSH4 0x9D6232FA EQ PUSH2 0xC5 JUMPI DUP1 PUSH4 0xA74E9F13 EQ PUSH2 0xF6 JUMPI JUMPDEST PUSH0 PUSH0 REVERT JUMPDEST PUSH2 0x73 PUSH1 0x4 DUP1 CALLDATASIZE SUB DUP2 ADD SWAP1 PUSH2 0x6E SWAP2 SWAP1 PUSH2 0x577 JUMP JUMPDEST PUSH2 0x126 JUMP JUMPDEST PUSH1 0x40 MLOAD PUSH2 0x80 SWAP2 SWAP1 PUSH2 0x5BC JUMP JUMPDEST PUSH1 0x40 MLOAD DUP1 SWAP2 SUB SWAP1 RETURN JUMPDEST PUSH2 0x91 PUSH2 0x142 JUMP JUMPDEST PUSH1 0x40 MLOAD PUSH2 0x9E SWAP2 SWAP1 PUSH2 0x5BC JUMP JUMPDEST PUSH1 0x40 MLOAD DUP1 SWAP2 SUB SWAP1 RETURN JUMPDEST PUSH2 0xAF PUSH2 0x154 JUMP JUMPDEST PUSH1 0x40 MLOAD PUSH2 0xBC SWAP2 SWAP1 PUSH2 0x64F JUMP JUMPDEST PUSH1 0x40 MLOAD DUP1 SWAP2 SUB SWAP1 RETURN JUMPDEST PUSH2 0xDF PUSH1 0x4 DUP1 CALLDATASIZE SUB DUP2 ADD SWAP1 PUSH2 0xDA SWAP2 SWAP1 PUSH2 0x737 JUMP JUMPDEST PUSH2 0x178 JUMP JUMPDEST PUSH1 0x40 MLOAD PUSH2 0xED SWAP3 SWAP2 SWAP1 PUSH2 0x7CA JUMP JUMPDEST PUSH1 0x40 MLOAD DUP1 SWAP2 SUB SWAP1 RETURN JUMPDEST PUSH2 0x110 PUSH1 0x4 DUP1 CALLDATASIZE SUB DUP2 ADD SWAP1 PUSH2 0x10B SWAP2 SWAP1 PUSH2 0x827 JUMP JUMPDEST PUSH2 0x4FD JUMP JUMPDEST PUSH1 0x40 MLOAD PUSH2 0x11D SWAP2 SWAP1 PUSH2 0x5BC JUMP JUMPDEST PUSH1 0x40 MLOAD DUP1 SWAP2 SUB SWAP1 RETURN JUMPDEST PUSH0 PUSH1 0x20 MSTORE DUP1 PUSH0 MSTORE PUSH1 0x40 PUSH0 KECCAK256 PUSH0 SWAP2 POP SLOAD SWAP1 PUSH2 0x100 EXP SWAP1 DIV PUSH1 0xFF AND DUP2 JUMP JUMPDEST PUSH1 0x2 PUSH0 SWAP1 SLOAD SWAP1 PUSH2 0x100 EXP SWAP1 DIV PUSH1 0xFF AND DUP2 JUMP JUMPDEST PUSH32 0x0 DUP2 JUMP JUMPDEST PUSH0 PUSH0 PUSH0 PUSH20 0xFFFFFFFFFFFFFFFFFFFFFFFFFFFFFFFFFFFFFFFF AND DUP8 PUSH20 0xFFFFFFFFFFFFFFFFFFFFFFFFFFFFFFFFFFFFFFFF AND EQ PUSH2 0x4EB JUMPI PUSH32 0x0 PUSH20 0xFFFFFFFFFFFFFFFFFFFFFFFFFFFFFFFFFFFFFFFF AND PUSH4 0xB9209E33 DUP9 PUSH1 0x40 MLOAD DUP3 PUSH4 0xFFFFFFFF AND PUSH1 0xE0 SHL DUP2 MSTORE PUSH1 0x4 ADD PUSH2 0x206 SWAP2 SWAP1 PUSH2 0x861 JUMP JUMPDEST PUSH1 0x20 PUSH1 0x40 MLOAD DUP1 DUP4 SUB DUP2 DUP7 GAS STATICCALL ISZERO DUP1 ISZERO PUSH2 0x221 JUMPI RETURNDATASIZE PUSH0 PUSH0 RETURNDATACOPY RETURNDATASIZE PUSH0 REVERT JUMPDEST POP POP POP POP PUSH1 0x40 MLOAD RETURNDATASIZE PUSH1 0x1F NOT PUSH1 0x1F DUP3 ADD AND DUP3 ADD DUP1 PUSH1 0x40 MSTORE POP DUP2 ADD SWAP1 PUSH2 0x245 SWAP2 SWAP1 PUSH2 0x8A4 JUMP JUMPDEST PUSH2 0x256 JUMPI PUSH0 PUSH2 0x3E9 SWAP2 POP SWAP2 POP PUSH2 0x4F3 JUMP JUMPDEST PUSH1 0x2 PUSH0 SWAP1 SLOAD SWAP1 PUSH2 0x100 EXP SWAP1 DIV PUSH1 0xFF AND DUP1 ISZERO PUSH2 0x305 JUMPI POP PUSH32 0x0 PUSH20 0xFFFFFFFFFFFFFFFFFFFFFFFFFFFFFFFFFFFFFFFF AND PUSH4 0xFE575A87 DUP9 PUSH1 0x40 MLOAD DUP3 PUSH4 0xFFFFFFFF AND PUSH1 0xE0 SHL DUP2 MSTORE PUSH1 0x4 ADD PUSH2 0x2C5 SWAP2 SWAP1 PUSH2 0x861 JUMP JUMPDEST PUSH1 0x20 PUSH1 0x40 MLOAD DUP1 DUP4 SUB DUP2 DUP7 GAS STATICCALL ISZERO DUP1 ISZERO PUSH2 0x2E0 JUMPI RETURNDATASIZE PUSH0 PUSH0 RETURNDATACOPY RETURNDATASIZE PUSH0 REVERT JUMPDEST POP POP POP POP PUSH1 0x40 MLOAD RETURNDATASIZE PUSH1 0x1F NOT PUSH1 0x1F DUP3 ADD AND DUP3 ADD DUP1 PUSH1 0x40 MSTORE POP DUP2 ADD SWAP1 PUSH2 0x304 SWAP2 SWAP1 PUSH2 0x8A4 JUMP JUMPDEST JUMPDEST ISZERO PUSH2 0x317 JUMPI PUSH0 PUSH2 0x3EB SWAP2 POP SWAP2 POP PUSH2 0x4F3 JUMP JUMPDEST PUSH0 PUSH0 PUSH32 0x0 PUSH20 0xFFFFFFFFFFFFFFFFFFFFFFFFFFFFFFFFFFFFFFFF AND PUSH4 0xDCE9571F DUP11 PUSH1 0x40 MLOAD DUP3 PUSH4 0xFFFFFFFF AND PUSH1 0xE0 SHL DUP2 MSTORE PUSH1 0x4 ADD PUSH2 0x372 SWAP2 SWAP1 PUSH2 0x861 JUMP JUMPDEST PUSH1 0x20 PUSH1 0x40 MLOAD DUP1 DUP4 SUB DUP2 DUP7 GAS STATICCALL ISZERO DUP1 ISZERO PUSH2 0x38D JUMPI RETURNDATASIZE PUSH0 PUSH0 RETURNDATACOPY RETURNDATASIZE PUSH0 REVERT JUMPDEST POP POP POP POP PUSH1 0x40 MLOAD RETURNDATASIZE PUSH1 0x1F NOT PUSH1 0x1F DUP3 ADD AND DUP3 ADD DUP1 PUSH1 0x40 MSTORE POP DUP2 ADD SWAP1 PUSH2 0x3B1 SWAP2 SWAP1 PUSH2 0x8E3 JUMP JUMPDEST PUSH30 0xFFFFFFFFFFFFFFFFFFFFFFFFFFFFFFFFFFFFFFFFFFFFFFFFFFFFFFFFFFFF NOT AND PUSH30 0xFFFFFFFFFFFFFFFFFFFFFFFFFFFFFFFFFFFFFFFFFFFFFFFFFFFFFFFFFFFF NOT AND DUP2 MSTORE PUSH1 0x20 ADD SWAP1 DUP2 MSTORE PUSH1 0x20 ADD PUSH0 KECCAK256 PUSH0 SWAP1 SLOAD SWAP1 PUSH2 0x100 EXP SWAP1 DIV PUSH1 0xFF AND PUSH2 0x41E JUMPI PUSH0 PUSH2 0x3EC SWAP2 POP SWAP2 POP PUSH2 0x4F3 JUMP JUMPDEST PUSH1 0x1 PUSH0 PUSH32 0x0 PUSH20 0xFFFFFFFFFFFFFFFFFFFFFFFFFFFFFFFFFFFFFFFF AND PUSH4 0x5BD4970 DUP11 PUSH1 0x40 MLOAD DUP3 PUSH4 0xFFFFFFFF AND PUSH1 0xE0 SHL DUP2 MSTORE PUSH1 0x4 ADD PUSH2 0x47A SWAP2 SWAP1 PUSH2 0x861 JUMP JUMPDEST PUSH1 0x20 PUSH1 0x40 MLOAD DUP1 DUP4 SUB DUP2 DUP7 GAS STATICCALL ISZERO DUP1 ISZERO PUSH2 0x495 JUMPI RETURNDATASIZE PUSH0 PUSH0 RETURNDATACOPY RETURNDATASIZE PUSH0 REVERT JUMPDEST POP POP POP POP PUSH1 0x40 MLOAD RETURNDATASIZE PUSH1 0x1F NOT PUSH1 0x1F DUP3 ADD AND DUP3 ADD DUP1 PUSH1 0x40 MSTORE POP DUP2 ADD SWAP1 PUSH2 0x4B9 SWAP2 SWAP1 PUSH2 0x922 JUMP JUMPDEST PUSH1 0xFF AND PUSH1 0xFF AND DUP2 MSTORE PUSH1 0x20 ADD SWAP1 DUP2 MSTORE PUSH1 0x20 ADD PUSH0 KECCAK256 PUSH0 SWAP1 SLOAD SWAP1 PUSH2 0x100 EXP SWAP1 DIV PUSH1 0xFF AND PUSH2 0x4EA JUMPI PUSH0 PUSH2 0x3ED SWAP2 POP SWAP2 POP PUSH2 0x4F3 JUMP JUMPDEST JUMPDEST PUSH1 0x1 PUSH0 SWAP2 POP SWAP2 POP JUMPDEST SWAP6 POP SWAP6 SWAP4 POP POP POP POP JUMP JUMPDEST PUSH1 0x1 PUSH1 0x20 MSTORE DUP1 PUSH0 MSTORE PUSH1 0x40 PUSH0 KECCAK256 PUSH0 SWAP2 POP SLOAD SWAP1 PUSH2 0x100 EXP SWAP1 DIV PUSH1 0xFF AND DUP2 JUMP JUMPDEST PUSH0 PUSH0 REVERT JUMPDEST PUSH0 PUSH0 REVERT JUMPDEST PUSH0 PUSH32 0xFFFF000000000000000000000000000000000000000000000000000000000000 DUP3 AND SWAP1 POP SWAP2 SWAP1 POP JUMP JUMPDEST PUSH2 0x556 DUP2 PUSH2 0x522 JUMP JUMPDEST DUP2 EQ PUSH2 0x560 JUMPI PUSH0 PUSH0 REVERT JUMPDEST POP JUMP JUMPDEST PUSH0 DUP2 CALLDATALOAD SWAP1 POP PUSH2 0x571 DUP2 PUSH2 0x54D JUMP JUMPDEST SWAP3 SWAP2 POP POP JUMP JUMPDEST PUSH0 PUSH1 0x20 DUP3 DUP5 SUB SLT ISZERO PUSH2 0x58C JUMPI PUSH2 0x58B PUSH2 0x51A JUMP JUMPDEST JUMPDEST PUSH0 PUSH2 0x599 DUP5 DUP3 DUP6 ADD PUSH2 0x563 JUMP JUMPDEST SWAP2 POP POP SWAP3 SWAP2 POP POP JUMP JUMPDEST PUSH0 DUP2 ISZERO ISZERO SWAP1 POP SWAP2 SWAP1 POP JUMP JUMPDEST PUSH2 0x5B6 DUP2 PUSH2 0x5A2 JUMP JUMPDEST DUP3 MSTORE POP POP JUMP JUMPDEST PUSH0 PUSH1 0x20 DUP3 ADD SWAP1 POP PUSH2 0x5CF PUSH0 DUP4 ADD DUP5 PUSH2 0x5AD JUMP JUMPDEST SWAP3 SWAP2 POP POP JUMP JUMPDEST PUSH0 PUSH20 0xFFFFFFFFFFFFFFFFFFFFFFFFFFFFFFFFFFFFFFFF DUP3 AND SWAP1 POP SWAP2 SWAP1 POP JUMP JUMPDEST PUSH0 DUP2 SWAP1 POP SWAP2 SWAP1 POP JUMP JUMPDEST PUSH0 PUSH2 0x617 PUSH2 0x612 PUSH2 0x60D DUP5 PUSH2 0x5D5 JUMP JUMPDEST PUSH2 0x5F4 JUMP JUMPDEST PUSH2 0x5D5 JUMP JUMPDEST SWAP1 POP SWAP2 SWAP1 POP JUMP JUMPDEST PUSH0 PUSH2 0x628 DUP3 PUSH2 0x5FD JUMP JUMPDEST SWAP1 POP SWAP2 SWAP1 POP JUMP JUMPDEST PUSH0 PUSH2 0x639 DUP3 PUSH2 0x61E JUMP JUMPDEST SWAP1 POP SWAP2 SWAP1 POP JUMP JUMPDEST PUSH2 0x649 DUP2 PUSH2 0x62F JUMP JUMPDEST DUP3 MSTORE POP POP JUMP JUMPDEST PUSH0 PUSH1 0x20 DUP3 ADD SWAP1 POP PUSH2 0x662 PUSH0 DUP4 ADD DUP5 PUSH2 0x640 JUMP JUMPDEST SWAP3 SWAP2 POP POP JUMP JUMPDEST PUSH0 PUSH2 0x672 DUP3 PUSH2 0x5D5 JUMP JUMPDEST SWAP1 POP SWAP2 SWAP1 POP JUMP JUMPDEST PUSH2 0x682 DUP2 PUSH2 0x668 JUMP JUMPDEST DUP2 EQ PUSH2 0x68C JUMPI PUSH0 PUSH0 REVERT JUMPDEST POP JUMP JUMPDEST PUSH0 DUP2 CALLDATALOAD SWAP1 POP PUSH2 0x69D DUP2 PUSH2 0x679 JUMP JUMPDEST SWAP3 SWAP2 POP POP JUMP JUMPDEST PUSH0 DUP2 SWAP1 POP SWAP2 SWAP1 POP JUMP JUMPDEST PUSH2 0x6B5 DUP2 PUSH2 0x6A3 JUMP JUMPDEST DUP2 EQ PUSH2 0x6BF JUMPI PUSH0 PUSH0 REVERT JUMPDEST POP JUMP JUMPDEST PUSH0 DUP2 CALLDATALOAD SWAP1 POP PUSH2 0x6D0 DUP2 PUSH2 0x6AC JUMP JUMPDEST SWAP3 SWAP2 POP POP JUMP JUMPDEST PUSH0 PUSH0 REVERT JUMPDEST PUSH0 PUSH0 REVERT JUMPDEST PUSH0 PUSH0 REVERT JUMPDEST PUSH0 PUSH0 DUP4 PUSH1 0x1F DUP5 ADD SLT PUSH2 0x6F7 JUMPI PUSH2 0x6F6 PUSH2 0x6D6 JUMP JUMPDEST JUMPDEST DUP3 CALLDATALOAD SWAP1 POP PUSH8 0xFFFFFFFFFFFFFFFF DUP2 GT ISZERO PUSH2 0x714 JUMPI PUSH2 0x713 PUSH2 0x6DA JUMP JUMPDEST JUMPDEST PUSH1 0x20 DUP4 ADD SWAP2 POP DUP4 PUSH1 0x1 DUP3 MUL DUP4 ADD GT ISZERO PUSH2 0x730 JUMPI PUSH2 0x72F PUSH2 0x6DE JUMP JUMPDEST JUMPDEST SWAP3 POP SWAP3 SWAP1 POP JUMP JUMPDEST PUSH0 PUSH0 PUSH0 PUSH0 PUSH0 PUSH1 0x80 DUP7 DUP9 SUB SLT ISZERO PUSH2 0x750 JUMPI PUSH2 0x74F PUSH2 0x51A JUMP JUMPDEST JUMPDEST PUSH0 PUSH2 0x75D DUP9 DUP3 DUP10 ADD PUSH2 0x68F JUMP JUMPDEST SWAP6 POP POP PUSH1 0x20 PUSH2 0x76E DUP9 DUP3 DUP10 ADD PUSH2 0x68F JUMP JUMPDEST SWAP5 POP POP PUSH1 0x40 PUSH2 0x77F DUP9 DUP3 DUP10 ADD PUSH2 0x6C2 JUMP JUMPDEST SWAP4 POP POP PUSH1 0x60 DUP7 ADD CALLDATALOAD PUSH8 0xFFFFFFFFFFFFFFFF DUP2 GT ISZERO PUSH2 0x7A0 JUMPI PUSH2 0x79F PUSH2 0x51E JUMP JUMPDEST JUMPDEST PUSH2 0x7AC DUP9 DUP3 DUP10 ADD PUSH2 0x6E2 JUMP JUMPDEST SWAP3 POP SWAP3 POP POP SWAP3 SWAP6 POP SWAP3 SWAP6 SWAP1 SWAP4 POP JUMP JUMPDEST PUSH2 0x7C4 DUP2 PUSH2 0x6A3 JUMP JUMPDEST DUP3 MSTORE POP POP JUMP JUMPDEST PUSH0 PUSH1 0x40 DUP3 ADD SWAP1 POP PUSH2 0x7DD PUSH0 DUP4 ADD DUP6 PUSH2 0x5AD JUMP JUMPDEST PUSH2 0x7EA PUSH1 0x20 DUP4 ADD DUP5 PUSH2 0x7BB JUMP JUMPDEST SWAP4 SWAP3 POP POP POP JUMP JUMPDEST PUSH0 PUSH1 0xFF DUP3 AND SWAP1 POP SWAP2 SWAP1 POP JUMP JUMPDEST PUSH2 0x806 DUP2 PUSH2 0x7F1 JUMP JUMPDEST DUP2 EQ PUSH2 0x810 JUMPI PUSH0 PUSH0 REVERT JUMPDEST POP JUMP JUMPDEST PUSH0 DUP2 CALLDATALOAD SWAP1 POP PUSH2 0x821 DUP2 PUSH2 0x7FD JUMP JUMPDEST SWAP3 SWAP2 POP POP JUMP JUMPDEST PUSH0 PUSH1 0x20 DUP3 DUP5 SUB SLT ISZERO PUSH2 0x83C JUMPI PUSH2 0x83B PUSH2 0x51A JUMP JUMPDEST JUMPDEST PUSH0 PUSH2 0x849 DUP5 DUP3 DUP6 ADD PUSH2 0x813 JUMP JUMPDEST SWAP2 POP POP SWAP3 SWAP2 POP POP JUMP JUMPDEST PUSH2 0x85B DUP2 PUSH2 0x668 JUMP JUMPDEST DUP3 MSTORE POP POP JUMP JUMPDEST PUSH0 PUSH1 0x20 DUP3 ADD SWAP1 POP PUSH2 0x874 PUSH0 DUP4 ADD DUP5 PUSH2 0x852 JUMP JUMPDEST SWAP3 SWAP2 POP POP JUMP JUMPDEST PUSH2 0x883 DUP2 PUSH2 0x5A2 JUMP JUMPDEST DUP2 EQ PUSH2 0x88D JUMPI PUSH0 PUSH0 REVERT JUMPDEST POP JUMP JUMPDEST PUSH0 DUP2 MLOAD SWAP1 POP PUSH2 0x89E DUP2 PUSH2 0x87A JUMP JUMPDEST SWAP3 SWAP2 POP POP JUMP JUMPDEST PUSH0 PUSH1 0x20 DUP3 DUP5 SUB SLT ISZERO PUSH2 0x8B9 JUMPI PUSH2 0x8B8 PUSH2 0x51A JUMP JUMPDEST JUMPDEST PUSH0 PUSH2 0x8C6 DUP5 DUP3 DUP6 ADD PUSH2 0x890 JUMP JUMPDEST SWAP2 POP POP SWAP3 SWAP2 POP POP JUMP JUMPDEST PUSH0 DUP2 MLOAD SWAP1 POP PUSH2 0x8DD DUP2 PUSH2 0x54D JUMP JUMPDEST SWAP3 SWAP2 POP POP JUMP JUMPDEST PUSH0 PUSH1 0x20 DUP3 DUP5 SUB SLT ISZERO PUSH2 0x8F8 JUMPI PUSH2 0x8F7 PUSH2 0x51A JUMP JUMPDEST JUMPDEST PUSH0 PUSH2 0x905 DUP5 DUP3 DUP6 ADD PUSH2 0x8CF JUMP JUMPDEST SWAP2 POP POP SWAP3 SWAP2 POP POP JUMP JUMPDEST PUSH0 DUP2 MLOAD SWAP1 POP PUSH2 0x91C DUP2 PUSH2 0x7FD JUMP JUMPDEST SWAP3 SWAP2 POP POP JUMP JUMPDEST PUSH0 PUSH1 0x20 DUP3 DUP5 SUB SLT ISZERO PUSH2 0x937 JUMPI PUSH2 0x936 PUSH2 0x51A JUMP JUMPDEST JUMPDEST PUSH0 PUSH2 0x944 DUP5 DUP3 DUP6 ADD PUSH2 0x90E JUMP JUMPDEST SWAP2 POP POP SWAP3 SWAP2 POP POP JUMP INVALID LOG2 PUSH5 0x6970667358 0x22 SLT KECCAK256 PUSH1 0xF3 SLT SWAP12 SMOD CALLF 0xD2A3 PUSH13 0x70D29D1E379A08A1E7EAE28989 OR LOG1 RJUMPI 0x36C2 0xC5 0xC6 0x21 0xD8 COINBASE PUSH5 0x736F6C6343 STOP ADDMOD 0x1E STOP CALLER "
				},
				"gasEstimates": {
					"creation": {
						"codeDepositCost": "487000",
						"executionCost": "infinite",
						"totalCost": "infinite"
					},
					"external": {
						"allowedInvestorType(uint8)": "2857",
						"allowedJuris(bytes2)": "2768",
						"canTransfer(address,address,uint256,bytes)": "infinite",
						"disallowBlacklisted()": "2466",
						"reg()": "infinite"
					}
				},
				"methodIdentifiers": {
					"allowedInvestorType(uint8)": "a74e9f13",
					"allowedJuris(bytes2)": "227d18a8",
					"canTransfer(address,address,uint256,bytes)": "9d6232fa",
					"disallowBlacklisted()": "4bf43844",
					"reg()": "738fdd1a"
				}
			},
			"storageLayout": {
				"storage": [
					{
						"astId": 37,
						"contract": "contracts/Compliance_bug_noReceiverKYC.sol:Compliance_Bug_NoReceiverKYC",
						"label": "allowedJuris",
						"offset": 0,
						"slot": "0",
						"type": "t_mapping(t_bytes2,t_bool)"
					},
					{
						"astId": 41,
						"contract": "contracts/Compliance_bug_noReceiverKYC.sol:Compliance_Bug_NoReceiverKYC",
						"label": "allowedInvestorType",
						"offset": 0,
						"slot": "1",
						"type": "t_mapping(t_uint8,t_bool)"
					},
					{
						"astId": 44,
						"contract": "contracts/Compliance_bug_noReceiverKYC.sol:Compliance_Bug_NoReceiverKYC",
						"label": "disallowBlacklisted",
						"offset": 0,
						"slot": "2",
						"type": "t_bool"
					}
				],
				"types": {
					"t_bool": {
						"encoding": "inplace",
						"label": "bool",
						"numberOfBytes": "1"
					},
					"t_bytes2": {
						"encoding": "inplace",
						"label": "bytes2",
						"numberOfBytes": "2"
					},
					"t_mapping(t_bytes2,t_bool)": {
						"encoding": "mapping",
						"key": "t_bytes2",
						"label": "mapping(bytes2 => bool)",
						"numberOfBytes": "32",
						"value": "t_bool"
					},
					"t_mapping(t_uint8,t_bool)": {
						"encoding": "mapping",
						"key": "t_uint8",
						"label": "mapping(uint8 => bool)",
						"numberOfBytes": "32",
						"value": "t_bool"
					},
					"t_uint8": {
						"encoding": "inplace",
						"label": "uint8",
						"numberOfBytes": "1"
					}
				}
			},
			"userdoc": {
				"kind": "user",
				"methods": {},
				"version": 1
			}
		}
	}
}