{
	"contracts/RwaToken.sol": {
		"RwaToken": {
			"abi": [
				{
					"inputs": [
						{
							"internalType": "string",
							"name": "n",
							"type": "string"
						},
						{
							"internalType": "string",
							"name": "s",
							"type": "string"
						},
						{
							"internalType": "address",
							"name": "admin",
							"type": "address"
						},
						{
							"internalType": "address",
							"name": "comp",
							"type": "address"
						}
					],
					"stateMutability": "nonpayable",
					"type": "constructor"
				},
				{
					"inputs": [],
					"name": "AccessControlBadConfirmation",
					"type": "error"
				},
				{
					"inputs": [
						{
							"internalType": "address",
							"name": "account",
							"type": "address"
						},
						{
							"internalType": "bytes32",
							"name": "neededRole",
							"type": "bytes32"
						}
					],
					"name": "AccessControlUnauthorizedAccount",
					"type": "error"
				},
				{
					"inputs": [
						{
							"internalType": "address",
							"name": "spender",
							"type": "address"
						},
						{
							"internalType": "uint256",
							"name": "allowance",
							"type": "uint256"
						},
						{
							"internalType": "uint256",
							"name": "needed",
							"type": "uint256"
						}
					],
					"name": "ERC20InsufficientAllowance",
					"type": "error"
				},
				{
					"inputs": [
						{
							"internalType": "address",
							"name": "sender",
							"type": "address"
						},
						{
							"internalType": "uint256",
							"name": "balance",
							"type": "uint256"
						},
						{
							"internalType": "uint256",
							"name": "needed",
							"type": "uint256"
						}
					],
					"name": "ERC20InsufficientBalance",
					"type": "error"
				},
				{
					"inputs": [
						{
							"internalType": "address",
							"name": "approver",
							"type": "address"
						}
					],
					"name": "ERC20InvalidApprover",
					"type": "error"
				},
				{
					"inputs": [
						{
							"internalType": "address",
							"name": "receiver",
							"type": "address"
						}
					],
					"name": "ERC20InvalidReceiver",
					"type": "error"
				},
				{
					"inputs": [
						{
							"internalType": "address",
							"name": "sender",
							"type": "address"
						}
					],
					"name": "ERC20InvalidSender",
					"type": "error"
				},
				{
					"inputs": [
						{
							"internalType": "address",
							"name": "spender",
							"type": "address"
						}
					],
					"name": "ERC20InvalidSpender",
					"type": "error"
				},
				{
					"inputs": [],
					"name": "EnforcedPause",
					"type": "error"
				},
				{
					"inputs": [],
					"name": "ExpectedPause",
					"type": "error"
				},
				{
					"anonymous": false,
					"inputs": [
						{
							"indexed": true,
							"internalType": "address",
							"name": "owner",
							"type": "address"
						},
						{
							"indexed": true,
							"internalType": "address",
							"name": "spender",
							"type": "address"
						},
						{
							"indexed": false,
							"internalType": "uint256",
							"name": "value",
							"type": "uint256"
						}
					],
					"name": "Approval",
					"type": "event"
				},
				{
					"anonymous": false,
					"inputs": [
						{
							"indexed": true,
							"internalType": "address",
							"name": "from",
							"type": "address"
						},
						{
							"indexed": true,
							"internalType": "address",
							"name": "to",
							"type": "address"
						},
						{
							"indexed": false,
							"internalType": "uint256",
							"name": "value",
							"type": "uint256"
						},
						{
							"indexed": false,
							"internalType": "string",
							"name": "reason",
							"type": "string"
						}
					],
					"name": "ForceTransfer",
					"type": "event"
				},
				{
					"anonymous": false,
					"inputs": [
						{
							"indexed": false,
							"internalType": "address",
							"name": "account",
							"type": "address"
						}
					],
					"name": "Paused",
					"type": "event"
				},
				{
					"anonymous": false,
					"inputs": [
						{
							"indexed": true,
							"internalType": "bytes32",
							"name": "role",
							"type": "bytes32"
						},
						{
							"indexed": true,
							"internalType": "bytes32",
							"name": "previousAdminRole",
							"type": "bytes32"
						},
						{
							"indexed": true,
							"internalType": "bytes32",
							"name": "newAdminRole",
							"type": "bytes32"
						}
					],
					"name": "RoleAdminChanged",
					"type": "event"
				},
				{
					"anonymous": false,
					"inputs": [
						{
							"indexed": true,
							"internalType": "bytes32",
							"name": "role",
							"type": "bytes32"
						},
						{
							"indexed": true,
							"internalType": "address",
							"name": "account",
							"type": "address"
						},
						{
							"indexed": true,
							"internalType": "address",
							"name": "sender",
							"type": "address"
						}
					],
					"name": "RoleGranted",
					"type": "event"
				},
				{
					"anonymous": false,
					"inputs": [
						{
							"indexed": true,
							"internalType": "bytes32",
							"name": "role",
							"type": "bytes32"
						},
						{
							"indexed": true,
							"internalType": "address",
							"name": "account",
							"type": "address"
						},
						{
							"indexed": true,
							"internalType": "address",
							"name": "sender",
							"type": "address"
						}
					],
					"name": "RoleRevoked",
					"type": "event"
				},
				{
					"anonymous": false,
					"inputs": [
						{
							"indexed": true,
							"internalType": "address",
							"name": "from",
							"type": "address"
						},
						{
							"indexed": true,
							"internalType": "address",
							"name": "to",
							"type": "address"
						},
						{
							"indexed": false,
							"internalType": "uint256",
							"name": "value",
							"type": "uint256"
						}
					],
					"name": "Transfer",
					"type": "event"
				},
				{
					"anonymous": false,
					"inputs": [
						{
							"indexed": false,
							"internalType": "address",
							"name": "account",
							"type": "address"
						}
					],
					"name": "Unpaused",
					"type": "event"
				},
				{
					"inputs": [],
					"name": "DEFAULT_ADMIN_ROLE",
					"outputs": [
						{
							"internalType": "bytes32",
							"name": "",
							"type": "bytes32"
						}
					],
					"stateMutability": "view",
					"type": "function"
				},
				{
					"inputs": [],
					"name": "ISSUER_ROLE",
					"outputs": [
						{
							"internalType": "bytes32",
							"name": "",
							"type": "bytes32"
						}
					],
					"stateMutability": "view",
					"type": "function"
				},
				{
					"inputs": [
						{
							"internalType": "address",
							"name": "owner",
							"type": "address"
						},
						{
							"internalType": "address",
							"name": "spender",
							"type": "address"
						}
					],
					"name": "allowance",
					"outputs": [
						{
							"internalType": "uint256",
							"name": "",
							"type": "uint256"
						}
					],
					"stateMutability": "view",
					"type": "function"
				},
				{
					"inputs": [
						{
							"internalType": "address",
							"name": "spender",
							"type": "address"
						},
						{
							"internalType": "uint256",
							"name": "value",
							"type": "uint256"
						}
					],
					"name": "approve",
					"outputs": [
						{
							"internalType": "bool",
							"name": "",
							"type": "bool"
						}
					],
					"stateMutability": "nonpayable",
					"type": "function"
				},
				{
					"inputs": [
						{
							"internalType": "address",
							"name": "account",
							"type": "address"
						}
					],
					"name": "balanceOf",
					"outputs": [
						{
							"internalType": "uint256",
							"name": "",
							"type": "uint256"
						}
					],
					"stateMutability": "view",
					"type": "function"
				},
				{
					"inputs": [],
					"name": "compliance",
					"outputs": [
						{
							"internalType": "contract ICompliance",
							"name": "",
							"type": "address"
						}
					],
					"stateMutability": "view",
					"type": "function"
				},
				{
					"inputs": [],
					"name": "decimals",
					"outputs": [
						{
							"internalType": "uint8",
							"name": "",
							"type": "uint8"
						}
					],
					"stateMutability": "view",
					"type": "function"
				},
				{
					"inputs": [
						{
							"internalType": "address",
							"name": "from",
							"type": "address"
						},
						{
							"internalType": "address",
							"name": "to",
							"type": "address"
						},
						{
							"internalType": "uint256",
							"name": "value",
							"type": "uint256"
						},
						{
							"internalType": "string",
							"name": "reason",
							"type": "string"
						}
					],
					"name": "forceTransfer",
					"outputs": [],
					"stateMutability": "nonpayable",
					"type": "function"
				},
				{
					"inputs": [
						{
							"internalType": "bytes32",
							"name": "role",
							"type": "bytes32"
						}
					],
					"name": "getRoleAdmin",
					"outputs": [
						{
							"internalType": "bytes32",
							"name": "",
							"type": "bytes32"
						}
					],
					"stateMutability": "view",
					"type": "function"
				},
				{
					"inputs": [
						{
							"internalType": "bytes32",
							"name": "role",
							"type": "bytes32"
						},
						{
							"internalType": "address",
							"name": "account",
							"type": "address"
						}
					],
					"name": "grantRole",
					"outputs": [],
					"stateMutability": "nonpayable",
					"type": "function"
				},
				{
					"inputs": [
						{
							"internalType": "bytes32",
							"name": "role",
							"type": "bytes32"
						},
						{
							"internalType": "address",
							"name": "account",
							"type": "address"
						}
					],
					"name": "hasRole",
					"outputs": [
						{
							"internalType": "bool",
							"name": "",
							"type": "bool"
						}
					],
					"stateMutability": "view",
					"type": "function"
				},
				{
					"inputs": [
						{
							"internalType": "address",
							"name": "to",
							"type": "address"
						},
						{
							"internalType": "uint256",
							"name": "value",
							"type": "uint256"
						}
					],
					"name": "mint",
					"outputs": [],
					"stateMutability": "nonpayable",
					"type": "function"
				},
				{
					"inputs": [],
					"name": "name",
					"outputs": [
						{
							"internalType": "string",
							"name": "",
							"type": "string"
						}
					],
					"stateMutability": "view",
					"type": "function"
				},
				{
					"inputs": [],
					"name": "pause",
					"outputs": [],
					"stateMutability": "nonpayable",
					"type": "function"
				},
				{
					"inputs": [],
					"name": "paused",
					"outputs": [
						{
							"internalType": "bool",
							"name": "",
							"type": "bool"
						}
					],
					"stateMutability": "view",
					"type": "function"
				},
				{
					"inputs": [
						{
							"internalType": "bytes32",
							"name": "role",
							"type": "bytes32"
						},
						{
							"internalType": "address",
							"name": "callerConfirmation",
							"type": "address"
						}
					],
					"name": "renounceRole",
					"outputs": [],
					"stateMutability": "nonpayable",
					"type": "function"
				},
				{
					"inputs": [
						{
							"internalType": "bytes32",
							"name": "role",
							"type": "bytes32"
						},
						{
							"internalType": "address",
							"name": "account",
							"type": "address"
						}
					],
					"name": "revokeRole",
					"outputs": [],
					"stateMutability": "nonpayable",
					"type": "function"
				},
				{
					"inputs": [
						{
							"internalType": "bytes4",
							"name": "interfaceId",
							"type": "bytes4"
						}
					],
					"name": "supportsInterface",
					"outputs": [
						{
							"internalType": "bool",
							"name": "",
							"type": "bool"
						}
					],
					"stateMutability": "view",
					"type": "function"
				},
				{
					"inputs": [],
					"name": "symbol",
					"outputs": [
						{
							"internalType": "string",
							"name": "",
							"type": "string"
						}
					],
					"stateMutability": "view",
					"type": "function"
				},
				{
					"inputs": [],
					"name": "totalSupply",
					"outputs": [
						{
							"internalType": "uint256",
							"name": "",
							"type": "uint256"
						}
					],
					"stateMutability": "view",
					"type": "function"
				},
				{
					"inputs": [
						{
							"internalType": "address",
							"name": "to",
							"type": "address"
						},
						{
							"internalType": "uint256",
							"name": "value",
							"type": "uint256"
						}
					],
					"name": "transfer",
					"outputs": [
						{
							"internalType": "bool",
							"name": "",
							"type": "bool"
						}
					],
					"stateMutability": "nonpayable",
					"type": "function"
				},
				{
					"inputs": [
						{
							"internalType": "address",
							"name": "from",
							"type": "address"
						},
						{
							"internalType": "address",
							"name": "to",
							"type": "address"
						},
						{
							"internalType": "uint256",
							"name": "value",
							"type": "uint256"
						}
					],
					"name": "transferFrom",
					"outputs": [
						{
							"internalType": "bool",
							"name": "",
							"type": "bool"
						}
					],
					"stateMutability": "nonpayable",
					"type": "function"
				},
				{
					"inputs": [],
					"name": "unpause",
					"outputs": [],
					"stateMutability": "nonpayable",
					"type": "function"
				}
			],
			"devdoc": {
				"errors": {
					"AccessControlBadConfirmation()": [
						{
							"details": "The caller of a function is not the expected one. NOTE: Don't confuse with {AccessControlUnauthorizedAccount}."
						}
					],
					"AccessControlUnauthorizedAccount(address,bytes32)": [
						{
							"details": "The `account` is missing a role."
						}
					],
					"ERC20InsufficientAllowance(address,uint256,uint256)": [
						{
							"details": "Indicates a failure with the `spender`’s `allowance`. Used in transfers.",
							"params": {
								"allowance": "Amount of tokens a `spender` is allowed to operate with.",
								"needed": "Minimum amount required to perform a transfer.",
								"spender": "Address that may be allowed to operate on tokens without being their owner."
							}
						}
					],
					"ERC20InsufficientBalance(address,uint256,uint256)": [
						{
							"details": "Indicates an error related to the current `balance` of a `sender`. Used in transfers.",
							"params": {
								"balance": "Current balance for the interacting account.",
								"needed": "Minimum amount required to perform a transfer.",
								"sender": "Address whose tokens are being transferred."
							}
						}
					],
					"ERC20InvalidApprover(address)": [
						{
							"details": "Indicates a failure with the `approver` of a token to be approved. Used in approvals.",
							"params": {
								"approver": "Address initiating an approval operation."
							}
						}
					],
					"ERC20InvalidReceiver(address)": [
						{
							"details": "Indicates a failure with the token `receiver`. Used in transfers.",
							"params": {
								"receiver": "Address to which tokens are being transferred."
							}
						}
					],
					"ERC20InvalidSender(address)": [
						{
							"details": "Indicates a failure with the token `sender`. Used in transfers.",
							"params": {
								"sender": "Address whose tokens are being transferred."
							}
						}
					],
					"ERC20InvalidSpender(address)": [
						{
							"details": "Indicates a failure with the `spender` to be approved. Used in approvals.",
							"params": {
								"spender": "Address that may be allowed to operate on tokens without being their owner."
							}
						}
					],
					"EnforcedPause()": [
						{
							"details": "The operation failed because the contract is paused."
						}
					],
					"ExpectedPause()": [
						{
							"details": "The operation failed because the contract is not paused."
						}
					]
				},
				"events": {
					"Approval(address,address,uint256)": {
						"details": "Emitted when the allowance of a `spender` for an `owner` is set by a call to {approve}. `value` is the new allowance."
					},
					"Paused(address)": {
						"details": "Emitted when the pause is triggered by `account`."
					},
					"RoleAdminChanged(bytes32,bytes32,bytes32)": {
						"details": "Emitted when `newAdminRole` is set as ``role``'s admin role, replacing `previousAdminRole` `DEFAULT_ADMIN_ROLE` is the starting admin for all roles, despite {RoleAdminChanged} not being emitted signaling this."
					},
					"RoleGranted(bytes32,address,address)": {
						"details": "Emitted when `account` is granted `role`. `sender` is the account that originated the contract call, an admin role bearer except when using {AccessControl-_setupRole}."
					},
					"RoleRevoked(bytes32,address,address)": {
						"details": "Emitted when `account` is revoked `role`. `sender` is the account that originated the contract call:   - if using `revokeRole`, it is the admin role bearer   - if using `renounceRole`, it is the role bearer (i.e. `account`)"
					},
					"Transfer(address,address,uint256)": {
						"details": "Emitted when `value` tokens are moved from one account (`from`) to another (`to`). Note that `value` may be zero."
					},
					"Unpaused(address)": {
						"details": "Emitted when the pause is lifted by `account`."
					}
				},
				"kind": "dev",
				"methods": {
					"allowance(address,address)": {
						"details": "See {IERC20-allowance}."
					},
					"approve(address,uint256)": {
						"details": "See {IERC20-approve}. NOTE: If `value` is the maximum `uint256`, the allowance is not updated on `transferFrom`. This is semantically equivalent to an infinite approval. Requirements: - `spender` cannot be the zero address."
					},
					"balanceOf(address)": {
						"details": "See {IERC20-balanceOf}."
					},
					"decimals()": {
						"details": "Returns the number of decimals used to get its user representation. For example, if `decimals` equals `2`, a balance of `505` tokens should be displayed to a user as `5.05` (`505 / 10 ** 2`). Tokens usually opt for a value of 18, imitating the relationship between Ether and Wei. This is the default value returned by this function, unless it's overridden. NOTE: This information is only used for _display_ purposes: it in no way affects any of the arithmetic of the contract, including {IERC20-balanceOf} and {IERC20-transfer}."
					},
					"getRoleAdmin(bytes32)": {
						"details": "Returns the admin role that controls `role`. See {grantRole} and {revokeRole}. To change a role's admin, use {_setRoleAdmin}."
					},
					"grantRole(bytes32,address)": {
						"details": "Grants `role` to `account`. If `account` had not been already granted `role`, emits a {RoleGranted} event. Requirements: - the caller must have ``role``'s admin role. May emit a {RoleGranted} event."
					},
					"hasRole(bytes32,address)": {
						"details": "Returns `true` if `account` has been granted `role`."
					},
					"name()": {
						"details": "Returns the name of the token."
					},
					"paused()": {
						"details": "Returns true if the contract is paused, and false otherwise."
					},
					"renounceRole(bytes32,address)": {
						"details": "Revokes `role` from the calling account. Roles are often managed via {grantRole} and {revokeRole}: this function's purpose is to provide a mechanism for accounts to lose their privileges if they are compromised (such as when a trusted device is misplaced). If the calling account had been revoked `role`, emits a {RoleRevoked} event. Requirements: - the caller must be `callerConfirmation`. May emit a {RoleRevoked} event."
					},
					"revokeRole(bytes32,address)": {
						"details": "Revokes `role` from `account`. If `account` had been granted `role`, emits a {RoleRevoked} event. Requirements: - the caller must have ``role``'s admin role. May emit a {RoleRevoked} event."
					},
					"supportsInterface(bytes4)": {
						"details": "See {IERC165-supportsInterface}."
					},
					"symbol()": {
						"details": "Returns the symbol of the token, usually a shorter version of the name."
					},
					"totalSupply()": {
						"details": "See {IERC20-totalSupply}."
					},
					"transfer(address,uint256)": {
						"details": "See {IERC20-transfer}. Requirements: - `to` cannot be the zero address. - the caller must have a balance of at least `value`."
					},
					"transferFrom(address,address,uint256)": {
						"details": "See {IERC20-transferFrom}. Emits an {Approval} event indicating the updated allowance. This is not required by the EIP. See the note at the beginning of {ERC20}. NOTE: Does not update the allowance if the current allowance is the maximum `uint256`. Requirements: - `from` and `to` cannot be the zero address. - `from` must have a balance of at least `value`. - the caller must have allowance for ``from``'s tokens of at least `value`."
					}
				},
				"version": 1
			},
			"evm": {
				"assembly": "    /* \"contracts/RwaToken.sol\":570:2307  contract RwaToken is ERC20, AccessControl, Pausable {... */\n  mstore(0x40, 0x80)\n    /* \"contracts/RwaToken.sol\":830:1063  constructor(string memory n, string memory s, address admin, address comp)... */\n  callvalue\n  dup1\n  iszero\n  tag_1\n  jumpi\n  0x00\n  dup1\n  revert\ntag_1:\n  pop\n  mload(0x40)\n  sub(codesize, bytecodeSize)\n  dup1\n  bytecodeSize\n  dup4\n  codecopy\n  dup2\n  dup2\n  add\n  0x40\n  mstore\n  dup2\n  add\n  swap1\n  tag_2\n  swap2\n  swap1\n  tag_3\n  jump\t// in\ntag_2:\n    /* \"contracts/RwaToken.sol\":919:920  n */\n  dup4\n    /* \"contracts/RwaToken.sol\":922:923  s */\n  dup4\n    /* \"https://raw.githubusercontent.com/OpenZeppelin/openzeppelin-contracts/v5.0.2/contracts/token/ERC20/ERC20.sol\":1970:1975  name_ */\n  dup2\n    /* \"https://raw.githubusercontent.com/OpenZeppelin/openzeppelin-contracts/v5.0.2/contracts/token/ERC20/ERC20.sol\":1962:1967  _name */\n  0x03\n    /* \"https://raw.githubusercontent.com/OpenZeppelin/openzeppelin-contracts/v5.0.2/contracts/token/ERC20/ERC20.sol\":1962:1975  _name = name_ */\n  swap1\n  dup2\n  tag_8\n  swap2\n  swap1\n  tag_9\n  jump\t// in\ntag_8:\n  pop\n    /* \"https://raw.githubusercontent.com/OpenZeppelin/openzeppelin-contracts/v5.0.2/contracts/token/ERC20/ERC20.sol\":1995:2002  symbol_ */\n  dup1\n    /* \"https://raw.githubusercontent.com/OpenZeppelin/openzeppelin-contracts/v5.0.2/contracts/token/ERC20/ERC20.sol\":1985:1992  _symbol */\n  0x04\n    /* \"https://raw.githubusercontent.com/OpenZeppelin/openzeppelin-contracts/v5.0.2/contracts/token/ERC20/ERC20.sol\":1985:2002  _symbol = symbol_ */\n  swap1\n  dup2\n  tag_10\n  swap2\n  swap1\n  tag_9\n  jump\t// in\ntag_10:\n  pop\n    /* \"https://raw.githubusercontent.com/OpenZeppelin/openzeppelin-contracts/v5.0.2/contracts/token/ERC20/ERC20.sol\":1896:2009  constructor(string memory name_, string memory symbol_) {... */\n  pop\n  pop\n    /* \"https://raw.githubusercontent.com/OpenZeppelin/openzeppelin-contracts/v5.0.2/contracts/utils/Pausable.sol\":1241:1246  false */\n  0x00\n    /* \"https://raw.githubusercontent.com/OpenZeppelin/openzeppelin-contracts/v5.0.2/contracts/utils/Pausable.sol\":1231:1238  _paused */\n  0x06\n  0x00\n    /* \"https://raw.githubusercontent.com/OpenZeppelin/openzeppelin-contracts/v5.0.2/contracts/utils/Pausable.sol\":1231:1246  _paused = false */\n  0x0100\n  exp\n  dup2\n  sload\n  dup2\n  0xff\n  mul\n  not\n  and\n  swap1\n  dup4\n  iszero\n  iszero\n  mul\n  or\n  swap1\n  sstore\n  pop\n    /* \"contracts/RwaToken.sol\":939:976  _grantRole(DEFAULT_ADMIN_ROLE, admin) */\n  tag_13\n    /* \"https://raw.githubusercontent.com/OpenZeppelin/openzeppelin-contracts/v5.0.2/contracts/access/AccessControl.sol\":2232:2236  0x00 */\n  0x00\n    /* \"contracts/RwaToken.sol\":950:968  DEFAULT_ADMIN_ROLE */\n  dup1\n  shl\n    /* \"contracts/RwaToken.sol\":970:975  admin */\n  dup4\n    /* \"contracts/RwaToken.sol\":939:949  _grantRole */\n  shl(0x20, tag_14)\n    /* \"contracts/RwaToken.sol\":939:976  _grantRole(DEFAULT_ADMIN_ROLE, admin) */\n  0x20\n  shr\n  jump\t// in\ntag_13:\n  pop\n    /* \"contracts/RwaToken.sol\":986:1016  _grantRole(ISSUER_ROLE, admin) */\n  tag_15\n    /* \"contracts/RwaToken.sol\":666:690  keccak256(\"ISSUER_ROLE\") */\n  0x114e74f6ea3bd819998f78687bfcb11b140da08e9b7d222fa9c1f1ba1f2aa122\n    /* \"contracts/RwaToken.sol\":1010:1015  admin */\n  dup4\n    /* \"contracts/RwaToken.sol\":986:996  _grantRole */\n  shl(0x20, tag_14)\n    /* \"contracts/RwaToken.sol\":986:1016  _grantRole(ISSUER_ROLE, admin) */\n  0x20\n  shr\n  jump\t// in\ntag_15:\n  pop\n    /* \"contracts/RwaToken.sol\":1051:1055  comp */\n  dup1\n    /* \"contracts/RwaToken.sol\":1026:1036  compliance */\n  0x06\n  0x01\n    /* \"contracts/RwaToken.sol\":1026:1056  compliance = ICompliance(comp) */\n  0x0100\n  exp\n  dup2\n  sload\n  dup2\n  0xffffffffffffffffffffffffffffffffffffffff\n  mul\n  not\n  and\n  swap1\n  dup4\n  0xffffffffffffffffffffffffffffffffffffffff\n  and\n  mul\n  or\n  swap1\n  sstore\n  pop\n    /* \"contracts/RwaToken.sol\":830:1063  constructor(string memory n, string memory s, address admin, address comp)... */\n  pop\n  pop\n  pop\n  pop\n    /* \"contracts/RwaToken.sol\":570:2307  contract RwaToken is ERC20, AccessControl, Pausable {... */\n  jump(tag_16)\n    /* \"https://raw.githubusercontent.com/OpenZeppelin/openzeppelin-contracts/v5.0.2/contracts/access/AccessControl.sol\":6179:6495  function _grantRole(bytes32 role, address account) internal virtual returns (bool) {... */\ntag_14:\n    /* \"https://raw.githubusercontent.com/OpenZeppelin/openzeppelin-contracts/v5.0.2/contracts/access/AccessControl.sol\":6256:6260  bool */\n  0x00\n    /* \"https://raw.githubusercontent.com/OpenZeppelin/openzeppelin-contracts/v5.0.2/contracts/access/AccessControl.sol\":6277:6299  hasRole(role, account) */\n  tag_18\n    /* \"https://raw.githubusercontent.com/OpenZeppelin/openzeppelin-contracts/v5.0.2/contracts/access/AccessControl.sol\":6285:6289  role */\n  dup4\n    /* \"https://raw.githubusercontent.com/OpenZeppelin/openzeppelin-contracts/v5.0.2/contracts/access/AccessControl.sol\":6291:6298  account */\n  dup4\n    /* \"https://raw.githubusercontent.com/OpenZeppelin/openzeppelin-contracts/v5.0.2/contracts/access/AccessControl.sol\":6277:6284  hasRole */\n  shl(0x20, tag_19)\n    /* \"https://raw.githubusercontent.com/OpenZeppelin/openzeppelin-contracts/v5.0.2/contracts/access/AccessControl.sol\":6277:6299  hasRole(role, account) */\n  0x20\n  shr\n  jump\t// in\ntag_18:\n    /* \"https://raw.githubusercontent.com/OpenZeppelin/openzeppelin-contracts/v5.0.2/contracts/access/AccessControl.sol\":6272:6489  if (!hasRole(role, account)) {... */\n  tag_20\n  jumpi\n    /* \"https://raw.githubusercontent.com/OpenZeppelin/openzeppelin-contracts/v5.0.2/contracts/access/AccessControl.sol\":6347:6351  true */\n  0x01\n    /* \"https://raw.githubusercontent.com/OpenZeppelin/openzeppelin-contracts/v5.0.2/contracts/access/AccessControl.sol\":6315:6321  _roles */\n  0x05\n    /* \"https://raw.githubusercontent.com/OpenZeppelin/openzeppelin-contracts/v5.0.2/contracts/access/AccessControl.sol\":6315:6327  _roles[role] */\n  0x00\n    /* \"https://raw.githubusercontent.com/OpenZeppelin/openzeppelin-contracts/v5.0.2/contracts/access/AccessControl.sol\":6322:6326  role */\n  dup6\n    /* \"https://raw.githubusercontent.com/OpenZeppelin/openzeppelin-contracts/v5.0.2/contracts/access/AccessControl.sol\":6315:6327  _roles[role] */\n  dup2\n  mstore\n  0x20\n  add\n  swap1\n  dup2\n  mstore\n  0x20\n  add\n  0x00\n  keccak256\n    /* \"https://raw.githubusercontent.com/OpenZeppelin/openzeppelin-contracts/v5.0.2/contracts/access/AccessControl.sol\":6315:6335  _roles[role].hasRole */\n  0x00\n  add\n    /* \"https://raw.githubusercontent.com/OpenZeppelin/openzeppelin-contracts/v5.0.2/contracts/access/AccessControl.sol\":6315:6344  _roles[role].hasRole[account] */\n  0x00\n    /* \"https://raw.githubusercontent.com/OpenZeppelin/openzeppelin-contracts/v5.0.2/contracts/access/AccessControl.sol\":6336:6343  account */\n  dup5\n    /* \"https://raw.githubusercontent.com/OpenZeppelin/openzeppelin-contracts/v5.0.2/contracts/access/AccessControl.sol\":6315:6344  _roles[role].hasRole[account] */\n  0xffffffffffffffffffffffffffffffffffffffff\n  and\n  0xffffffffffffffffffffffffffffffffffffffff\n  and\n  dup2\n  mstore\n  0x20\n  add\n  swap1\n  dup2\n  mstore\n  0x20\n  add\n  0x00\n  keccak256\n  0x00\n    /* \"https://raw.githubusercontent.com/OpenZeppelin/openzeppelin-contracts/v5.0.2/contracts/access/AccessControl.sol\":6315:6351  _roles[role].hasRole[account] = true */\n  0x0100\n  exp\n  dup2\n  sload\n  dup2\n  0xff\n  mul\n  not\n  and\n  swap1\n  dup4\n  iszero\n  iszero\n  mul\n  or\n  swap1\n  sstore\n  pop\n    /* \"https://raw.githubusercontent.com/OpenZeppelin/openzeppelin-contracts/v5.0.2/contracts/access/AccessControl.sol\":6397:6409  _msgSender() */\n  tag_21\n    /* \"https://raw.githubusercontent.com/OpenZeppelin/openzeppelin-contracts/v5.0.2/contracts/access/AccessControl.sol\":6397:6407  _msgSender */\n  shl(0x20, tag_22)\n    /* \"https://raw.githubusercontent.com/OpenZeppelin/openzeppelin-contracts/v5.0.2/contracts/access/AccessControl.sol\":6397:6409  _msgSender() */\n  0x20\n  shr\n  jump\t// in\ntag_21:\n    /* \"https://raw.githubusercontent.com/OpenZeppelin/openzeppelin-contracts/v5.0.2/contracts/access/AccessControl.sol\":6370:6410  RoleGranted(role, account, _msgSender()) */\n  0xffffffffffffffffffffffffffffffffffffffff\n  and\n    /* \"https://raw.githubusercontent.com/OpenZeppelin/openzeppelin-contracts/v5.0.2/contracts/access/AccessControl.sol\":6388:6395  account */\n  dup3\n    /* \"https://raw.githubusercontent.com/OpenZeppelin/openzeppelin-contracts/v5.0.2/contracts/access/AccessControl.sol\":6370:6410  RoleGranted(role, account, _msgSender()) */\n  0xffffffffffffffffffffffffffffffffffffffff\n  and\n    /* \"https://raw.githubusercontent.com/OpenZeppelin/openzeppelin-contracts/v5.0.2/contracts/access/AccessControl.sol\":6382:6386  role */\n  dup5\n    /* \"https://raw.githubusercontent.com/OpenZeppelin/openzeppelin-contracts/v5.0.2/contracts/access/AccessControl.sol\":6370:6410  RoleGranted(role, account, _msgSender()) */\n  0x2f8788117e7eff1d82e926ec794901d17c78024a50270940304540a733656f0d\n  mload(0x40)\n  mload(0x40)\n  dup1\n  swap2\n  sub\n  swap1\n  log4\n    /* \"https://raw.githubusercontent.com/OpenZeppelin/openzeppelin-contracts/v5.0.2/contracts/access/AccessControl.sol\":6431:6435  true */\n  0x01\n    /* \"https://raw.githubusercontent.com/OpenZeppelin/openzeppelin-contracts/v5.0.2/contracts/access/AccessControl.sol\":6424:6435  return true */\n  swap1\n  pop\n  jump(tag_17)\n    /* \"https://raw.githubusercontent.com/OpenZeppelin/openzeppelin-contracts/v5.0.2/contracts/access/AccessControl.sol\":6272:6489  if (!hasRole(role, account)) {... */\ntag_20:\n    /* \"https://raw.githubusercontent.com/OpenZeppelin/openzeppelin-contracts/v5.0.2/contracts/access/AccessControl.sol\":6473:6478  false */\n  0x00\n    /* \"https://raw.githubusercontent.com/OpenZeppelin/openzeppelin-contracts/v5.0.2/contracts/access/AccessControl.sol\":6466:6478  return false */\n  swap1\n  pop\n    /* \"https://raw.githubusercontent.com/OpenZeppelin/openzeppelin-contracts/v5.0.2/contracts/access/AccessControl.sol\":6179:6495  function _grantRole(bytes32 role, address account) internal virtual returns (bool) {... */\ntag_17:\n  swap3\n  swap2\n  pop\n  pop\n  jump\t// out\n    /* \"https://raw.githubusercontent.com/OpenZeppelin/openzeppelin-contracts/v5.0.2/contracts/access/AccessControl.sol\":2854:2990  function hasRole(bytes32 role, address account) public view virtual returns (bool) {... */\ntag_19:\n    /* \"https://raw.githubusercontent.com/OpenZeppelin/openzeppelin-contracts/v5.0.2/contracts/access/AccessControl.sol\":2931:2935  bool */\n  0x00\n    /* \"https://raw.githubusercontent.com/OpenZeppelin/openzeppelin-contracts/v5.0.2/contracts/access/AccessControl.sol\":2954:2960  _roles */\n  0x05\n    /* \"https://raw.githubusercontent.com/OpenZeppelin/openzeppelin-contracts/v5.0.2/contracts/access/AccessControl.sol\":2954:2966  _roles[role] */\n  0x00\n    /* \"https://raw.githubusercontent.com/OpenZeppelin/openzeppelin-contracts/v5.0.2/contracts/access/AccessControl.sol\":2961:2965  role */\n  dup5\n    /* \"https://raw.githubusercontent.com/OpenZeppelin/openzeppelin-contracts/v5.0.2/contracts/access/AccessControl.sol\":2954:2966  _roles[role] */\n  dup2\n  mstore\n  0x20\n  add\n  swap1\n  dup2\n  mstore\n  0x20\n  add\n  0x00\n  keccak256\n    /* \"https://raw.githubusercontent.com/OpenZeppelin/openzeppelin-contracts/v5.0.2/contracts/access/AccessControl.sol\":2954:2974  _roles[role].hasRole */\n  0x00\n  add\n    /* \"https://raw.githubusercontent.com/OpenZeppelin/openzeppelin-contracts/v5.0.2/contracts/access/AccessControl.sol\":2954:2983  _roles[role].hasRole[account] */\n  0x00\n    /* \"https://raw.githubusercontent.com/OpenZeppelin/openzeppelin-contracts/v5.0.2/contracts/access/AccessControl.sol\":2975:2982  account */\n  dup4\n    /* \"https://raw.githubusercontent.com/OpenZeppelin/openzeppelin-contracts/v5.0.2/contracts/access/AccessControl.sol\":2954:2983  _roles[role].hasRole[account] */\n  0xffffffffffffffffffffffffffffffffffffffff\n  and\n  0xffffffffffffffffffffffffffffffffffffffff\n  and\n  dup2\n  mstore\n  0x20\n  add\n  swap1\n  dup2\n  mstore\n  0x20\n  add\n  0x00\n  keccak256\n  0x00\n  swap1\n  sload\n  swap1\n  0x0100\n  exp\n  swap1\n  div\n  0xff\n  and\n    /* \"https://raw.githubusercontent.com/OpenZeppelin/openzeppelin-contracts/v5.0.2/contracts/access/AccessControl.sol\":2947:2983  return _roles[role].hasRole[account] */\n  swap1\n  pop\n    /* \"https://raw.githubusercontent.com/OpenZeppelin/openzeppelin-contracts/v5.0.2/contracts/access/AccessControl.sol\":2854:2990  function hasRole(bytes32 role, address account) public view virtual returns (bool) {... */\n  swap3\n  swap2\n  pop\n  pop\n  jump\t// out\n    /* \"https://raw.githubusercontent.com/OpenZeppelin/openzeppelin-contracts/v5.0.2/contracts/utils/Context.sol\":656:752  function _msgSender() internal view virtual returns (address) {... */\ntag_22:\n    /* \"https://raw.githubusercontent.com/OpenZeppelin/openzeppelin-contracts/v5.0.2/contracts/utils/Context.sol\":709:716  address */\n  0x00\n    /* \"https://raw.githubusercontent.com/OpenZeppelin/openzeppelin-contracts/v5.0.2/contracts/utils/Context.sol\":735:745  msg.sender */\n  caller\n    /* \"https://raw.githubusercontent.com/OpenZeppelin/openzeppelin-contracts/v5.0.2/contracts/utils/Context.sol\":728:745  return msg.sender */\n  swap1\n  pop\n    /* \"https://raw.githubusercontent.com/OpenZeppelin/openzeppelin-contracts/v5.0.2/contracts/utils/Context.sol\":656:752  function _msgSender() internal view virtual returns (address) {... */\n  swap1\n  jump\t// out\n    /* \"#utility.yul\":7:82   */\ntag_26:\n    /* \"#utility.yul\":40:46   */\n  0x00\n    /* \"#utility.yul\":73:75   */\n  0x40\n    /* \"#utility.yul\":67:76   */\n  mload\n    /* \"#utility.yul\":57:76   */\n  swap1\n  pop\n    /* \"#utility.yul\":7:82   */\n  swap1\n  jump\t// out\n    /* \"#utility.yul\":88:205   */\ntag_27:\n    /* \"#utility.yul\":197:198   */\n  0x00\n    /* \"#utility.yul\":194:195   */\n  dup1\n    /* \"#utility.yul\":187:199   */\n  revert\n    /* \"#utility.yul\":211:328   */\ntag_28:\n    /* \"#utility.yul\":320:321   */\n  0x00\n    /* \"#utility.yul\":317:318   */\n  dup1\n    /* \"#utility.yul\":310:322   */\n  revert\n    /* \"#utility.yul\":334:451   */\ntag_29:\n    /* \"#utility.yul\":443:444   */\n  0x00\n    /* \"#utility.yul\":440:441   */\n  dup1\n    /* \"#utility.yul\":433:445   */\n  revert\n    /* \"#utility.yul\":457:574   */\ntag_30:\n    /* \"#utility.yul\":566:567   */\n  0x00\n    /* \"#utility.yul\":563:564   */\n  dup1\n    /* \"#utility.yul\":556:568   */\n  revert\n    /* \"#utility.yul\":580:682   */\ntag_31:\n    /* \"#utility.yul\":621:627   */\n  0x00\n    /* \"#utility.yul\":672:674   */\n  0x1f\n    /* \"#utility.yul\":668:675   */\n  not\n    /* \"#utility.yul\":663:665   */\n  0x1f\n    /* \"#utility.yul\":656:661   */\n  dup4\n    /* \"#utility.yul\":652:666   */\n  add\n    /* \"#utility.yul\":648:676   */\n  and\n    /* \"#utility.yul\":638:676   */\n  swap1\n  pop\n    /* \"#utility.yul\":580:682   */\n  swap2\n  swap1\n  pop\n  jump\t// out\n    /* \"#utility.yul\":688:868   */\ntag_32:\n    /* \"#utility.yul\":736:813   */\n  0x4e487b7100000000000000000000000000000000000000000000000000000000\n    /* \"#utility.yul\":733:734   */\n  0x00\n    /* \"#utility.yul\":726:814   */\n  mstore\n    /* \"#utility.yul\":833:837   */\n  0x41\n    /* \"#utility.yul\":830:831   */\n  0x04\n    /* \"#utility.yul\":823:838   */\n  mstore\n    /* \"#utility.yul\":857:861   */\n  0x24\n    /* \"#utility.yul\":854:855   */\n  0x00\n    /* \"#utility.yul\":847:862   */\n  revert\n    /* \"#utility.yul\":874:1155   */\ntag_33:\n    /* \"#utility.yul\":957:984   */\n  tag_71\n    /* \"#utility.yul\":979:983   */\n  dup3\n    /* \"#utility.yul\":957:984   */\n  tag_31\n  jump\t// in\ntag_71:\n    /* \"#utility.yul\":949:955   */\n  dup2\n    /* \"#utility.yul\":945:985   */\n  add\n    /* \"#utility.yul\":1087:1093   */\n  dup2\n    /* \"#utility.yul\":1075:1085   */\n  dup2\n    /* \"#utility.yul\":1072:1094   */\n  lt\n    /* \"#utility.yul\":1051:1069   */\n  0xffffffffffffffff\n    /* \"#utility.yul\":1039:1049   */\n  dup3\n    /* \"#utility.yul\":1036:1070   */\n  gt\n    /* \"#utility.yul\":1033:1095   */\n  or\n    /* \"#utility.yul\":1030:1118   */\n  iszero\n  tag_72\n  jumpi\n    /* \"#utility.yul\":1098:1116   */\n  tag_73\n  tag_32\n  jump\t// in\ntag_73:\n    /* \"#utility.yul\":1030:1118   */\ntag_72:\n    /* \"#utility.yul\":1138:1148   */\n  dup1\n    /* \"#utility.yul\":1134:1136   */\n  0x40\n    /* \"#utility.yul\":1127:1149   */\n  mstore\n    /* \"#utility.yul\":917:1155   */\n  pop\n    /* \"#utility.yul\":874:1155   */\n  pop\n  pop\n  jump\t// out\n    /* \"#utility.yul\":1161:1290   */\ntag_34:\n    /* \"#utility.yul\":1195:1201   */\n  0x00\n    /* \"#utility.yul\":1222:1242   */\n  tag_75\n  tag_26\n  jump\t// in\ntag_75:\n    /* \"#utility.yul\":1212:1242   */\n  swap1\n  pop\n    /* \"#utility.yul\":1251:1284   */\n  tag_76\n    /* \"#utility.yul\":1279:1283   */\n  dup3\n    /* \"#utility.yul\":1271:1277   */\n  dup3\n    /* \"#utility.yul\":1251:1284   */\n  tag_33\n  jump\t// in\ntag_76:\n    /* \"#utility.yul\":1161:1290   */\n  swap2\n  swap1\n  pop\n  jump\t// out\n    /* \"#utility.yul\":1296:1604   */\ntag_35:\n    /* \"#utility.yul\":1358:1362   */\n  0x00\n    /* \"#utility.yul\":1448:1466   */\n  0xffffffffffffffff\n    /* \"#utility.yul\":1440:1446   */\n  dup3\n    /* \"#utility.yul\":1437:1467   */\n  gt\n    /* \"#utility.yul\":1434:1490   */\n  iszero\n  tag_78\n  jumpi\n    /* \"#utility.yul\":1470:1488   */\n  tag_79\n  tag_32\n  jump\t// in\ntag_79:\n    /* \"#utility.yul\":1434:1490   */\ntag_78:\n    /* \"#utility.yul\":1508:1537   */\n  tag_80\n    /* \"#utility.yul\":1530:1536   */\n  dup3\n    /* \"#utility.yul\":1508:1537   */\n  tag_31\n  jump\t// in\ntag_80:\n    /* \"#utility.yul\":1500:1537   */\n  swap1\n  pop\n    /* \"#utility.yul\":1592:1596   */\n  0x20\n    /* \"#utility.yul\":1586:1590   */\n  dup2\n    /* \"#utility.yul\":1582:1597   */\n  add\n    /* \"#utility.yul\":1574:1597   */\n  swap1\n  pop\n    /* \"#utility.yul\":1296:1604   */\n  swap2\n  swap1\n  pop\n  jump\t// out\n    /* \"#utility.yul\":1610:1856   */\ntag_36:\n    /* \"#utility.yul\":1691:1692   */\n  0x00\n    /* \"#utility.yul\":1701:1814   */\ntag_82:\n    /* \"#utility.yul\":1715:1721   */\n  dup4\n    /* \"#utility.yul\":1712:1713   */\n  dup2\n    /* \"#utility.yul\":1709:1722   */\n  lt\n    /* \"#utility.yul\":1701:1814   */\n  iszero\n  tag_84\n  jumpi\n    /* \"#utility.yul\":1800:1801   */\n  dup1\n    /* \"#utility.yul\":1795:1798   */\n  dup3\n    /* \"#utility.yul\":1791:1802   */\n  add\n    /* \"#utility.yul\":1785:1803   */\n  mload\n    /* \"#utility.yul\":1781:1782   */\n  dup2\n    /* \"#utility.yul\":1776:1779   */\n  dup5\n    /* \"#utility.yul\":1772:1783   */\n  add\n    /* \"#utility.yul\":1765:1804   */\n  mstore\n    /* \"#utility.yul\":1737:1739   */\n  0x20\n    /* \"#utility.yul\":1734:1735   */\n  dup2\n    /* \"#utility.yul\":1730:1740   */\n  add\n    /* \"#utility.yul\":1725:1740   */\n  swap1\n  pop\n    /* \"#utility.yul\":1701:1814   */\n  jump(tag_82)\ntag_84:\n    /* \"#utility.yul\":1848:1849   */\n  0x00\n    /* \"#utility.yul\":1839:1845   */\n  dup5\n    /* \"#utility.yul\":1834:1837   */\n  dup5\n    /* \"#utility.yul\":1830:1846   */\n  add\n    /* \"#utility.yul\":1823:1850   */\n  mstore\n    /* \"#utility.yul\":1672:1856   */\n  pop\n    /* \"#utility.yul\":1610:1856   */\n  pop\n  pop\n  pop\n  jump\t// out\n    /* \"#utility.yul\":1862:2296   */\ntag_37:\n    /* \"#utility.yul\":1951:1956   */\n  0x00\n    /* \"#utility.yul\":1976:2042   */\n  tag_86\n    /* \"#utility.yul\":1992:2041   */\n  tag_87\n    /* \"#utility.yul\":2034:2040   */\n  dup5\n    /* \"#utility.yul\":1992:2041   */\n  tag_35\n  jump\t// in\ntag_87:\n    /* \"#utility.yul\":1976:2042   */\n  tag_34\n  jump\t// in\ntag_86:\n    /* \"#utility.yul\":1967:2042   */\n  swap1\n  pop\n    /* \"#utility.yul\":2065:2071   */\n  dup3\n    /* \"#utility.yul\":2058:2063   */\n  dup2\n    /* \"#utility.yul\":2051:2072   */\n  mstore\n    /* \"#utility.yul\":2103:2107   */\n  0x20\n    /* \"#utility.yul\":2096:2101   */\n  dup2\n    /* \"#utility.yul\":2092:2108   */\n  add\n    /* \"#utility.yul\":2141:2144   */\n  dup5\n    /* \"#utility.yul\":2132:2138   */\n  dup5\n    /* \"#utility.yul\":2127:2130   */\n  dup5\n    /* \"#utility.yul\":2123:2139   */\n  add\n    /* \"#utility.yul\":2120:2145   */\n  gt\n    /* \"#utility.yul\":2117:2229   */\n  iszero\n  tag_88\n  jumpi\n    /* \"#utility.yul\":2148:2227   */\n  tag_89\n  tag_30\n  jump\t// in\ntag_89:\n    /* \"#utility.yul\":2117:2229   */\ntag_88:\n    /* \"#utility.yul\":2238:2290   */\n  tag_90\n    /* \"#utility.yul\":2283:2289   */\n  dup5\n    /* \"#utility.yul\":2278:2281   */\n  dup3\n    /* \"#utility.yul\":2273:2276   */\n  dup6\n    /* \"#utility.yul\":2238:2290   */\n  tag_36\n  jump\t// in\ntag_90:\n    /* \"#utility.yul\":1957:2296   */\n  pop\n    /* \"#utility.yul\":1862:2296   */\n  swap4\n  swap3\n  pop\n  pop\n  pop\n  jump\t// out\n    /* \"#utility.yul\":2316:2671   */\ntag_38:\n    /* \"#utility.yul\":2383:2388   */\n  0x00\n    /* \"#utility.yul\":2432:2435   */\n  dup3\n    /* \"#utility.yul\":2425:2429   */\n  0x1f\n    /* \"#utility.yul\":2417:2423   */\n  dup4\n    /* \"#utility.yul\":2413:2430   */\n  add\n    /* \"#utility.yul\":2409:2436   */\n  slt\n    /* \"#utility.yul\":2399:2521   */\n  tag_92\n  jumpi\n    /* \"#utility.yul\":2440:2519   */\n  tag_93\n  tag_29\n  jump\t// in\ntag_93:\n    /* \"#utility.yul\":2399:2521   */\ntag_92:\n    /* \"#utility.yul\":2550:2556   */\n  dup2\n    /* \"#utility.yul\":2544:2557   */\n  mload\n    /* \"#utility.yul\":2575:2665   */\n  tag_94\n    /* \"#utility.yul\":2661:2664   */\n  dup5\n    /* \"#utility.yul\":2653:2659   */\n  dup3\n    /* \"#utility.yul\":2646:2650   */\n  0x20\n    /* \"#utility.yul\":2638:2644   */\n  dup7\n    /* \"#utility.yul\":2634:2651   */\n  add\n    /* \"#utility.yul\":2575:2665   */\n  tag_37\n  jump\t// in\ntag_94:\n    /* \"#utility.yul\":2566:2665   */\n  swap2\n  pop\n    /* \"#utility.yul\":2389:2671   */\n  pop\n    /* \"#utility.yul\":2316:2671   */\n  swap3\n  swap2\n  pop\n  pop\n  jump\t// out\n    /* \"#utility.yul\":2677:2803   */\ntag_39:\n    /* \"#utility.yul\":2714:2721   */\n  0x00\n    /* \"#utility.yul\":2754:2796   */\n  0xffffffffffffffffffffffffffffffffffffffff\n    /* \"#utility.yul\":2747:2752   */\n  dup3\n    /* \"#utility.yul\":2743:2797   */\n  and\n    /* \"#utility.yul\":2732:2797   */\n  swap1\n  pop\n    /* \"#utility.yul\":2677:2803   */\n  swap2\n  swap1\n  pop\n  jump\t// out\n    /* \"#utility.yul\":2809:2905   */\ntag_40:\n    /* \"#utility.yul\":2846:2853   */\n  0x00\n    /* \"#utility.yul\":2875:2899   */\n  tag_97\n    /* \"#utility.yul\":2893:2898   */\n  dup3\n    /* \"#utility.yul\":2875:2899   */\n  tag_39\n  jump\t// in\ntag_97:\n    /* \"#utility.yul\":2864:2899   */\n  swap1\n  pop\n    /* \"#utility.yul\":2809:2905   */\n  swap2\n  swap1\n  pop\n  jump\t// out\n    /* \"#utility.yul\":2911:3033   */\ntag_41:\n    /* \"#utility.yul\":2984:3008   */\n  tag_99\n    /* \"#utility.yul\":3002:3007   */\n  dup2\n    /* \"#utility.yul\":2984:3008   */\n  tag_40\n  jump\t// in\ntag_99:\n    /* \"#utility.yul\":2977:2982   */\n  dup2\n    /* \"#utility.yul\":2974:3009   */\n  eq\n    /* \"#utility.yul\":2964:3027   */\n  tag_100\n  jumpi\n    /* \"#utility.yul\":3023:3024   */\n  0x00\n    /* \"#utility.yul\":3020:3021   */\n  dup1\n    /* \"#utility.yul\":3013:3025   */\n  revert\n    /* \"#utility.yul\":2964:3027   */\ntag_100:\n    /* \"#utility.yul\":2911:3033   */\n  pop\n  jump\t// out\n    /* \"#utility.yul\":3039:3182   */\ntag_42:\n    /* \"#utility.yul\":3096:3101   */\n  0x00\n    /* \"#utility.yul\":3127:3133   */\n  dup2\n    /* \"#utility.yul\":3121:3134   */\n  mload\n    /* \"#utility.yul\":3112:3134   */\n  swap1\n  pop\n    /* \"#utility.yul\":3143:3176   */\n  tag_102\n    /* \"#utility.yul\":3170:3175   */\n  dup2\n    /* \"#utility.yul\":3143:3176   */\n  tag_41\n  jump\t// in\ntag_102:\n    /* \"#utility.yul\":3039:3182   */\n  swap3\n  swap2\n  pop\n  pop\n  jump\t// out\n    /* \"#utility.yul\":3188:4354   */\ntag_3:\n    /* \"#utility.yul\":3305:3311   */\n  0x00\n    /* \"#utility.yul\":3313:3319   */\n  dup1\n    /* \"#utility.yul\":3321:3327   */\n  0x00\n    /* \"#utility.yul\":3329:3335   */\n  dup1\n    /* \"#utility.yul\":3378:3381   */\n  0x80\n    /* \"#utility.yul\":3366:3375   */\n  dup6\n    /* \"#utility.yul\":3357:3364   */\n  dup8\n    /* \"#utility.yul\":3353:3376   */\n  sub\n    /* \"#utility.yul\":3349:3382   */\n  slt\n    /* \"#utility.yul\":3346:3466   */\n  iszero\n  tag_104\n  jumpi\n    /* \"#utility.yul\":3385:3464   */\n  tag_105\n  tag_27\n  jump\t// in\ntag_105:\n    /* \"#utility.yul\":3346:3466   */\ntag_104:\n    /* \"#utility.yul\":3526:3527   */\n  0x00\n    /* \"#utility.yul\":3515:3524   */\n  dup6\n    /* \"#utility.yul\":3511:3528   */\n  add\n    /* \"#utility.yul\":3505:3529   */\n  mload\n    /* \"#utility.yul\":3556:3574   */\n  0xffffffffffffffff\n    /* \"#utility.yul\":3548:3554   */\n  dup2\n    /* \"#utility.yul\":3545:3575   */\n  gt\n    /* \"#utility.yul\":3542:3659   */\n  iszero\n  tag_106\n  jumpi\n    /* \"#utility.yul\":3578:3657   */\n  tag_107\n  tag_28\n  jump\t// in\ntag_107:\n    /* \"#utility.yul\":3542:3659   */\ntag_106:\n    /* \"#utility.yul\":3683:3757   */\n  tag_108\n    /* \"#utility.yul\":3749:3756   */\n  dup8\n    /* \"#utility.yul\":3740:3746   */\n  dup3\n    /* \"#utility.yul\":3729:3738   */\n  dup9\n    /* \"#utility.yul\":3725:3747   */\n  add\n    /* \"#utility.yul\":3683:3757   */\n  tag_38\n  jump\t// in\ntag_108:\n    /* \"#utility.yul\":3673:3757   */\n  swap5\n  pop\n    /* \"#utility.yul\":3476:3767   */\n  pop\n    /* \"#utility.yul\":3827:3829   */\n  0x20\n    /* \"#utility.yul\":3816:3825   */\n  dup6\n    /* \"#utility.yul\":3812:3830   */\n  add\n    /* \"#utility.yul\":3806:3831   */\n  mload\n    /* \"#utility.yul\":3858:3876   */\n  0xffffffffffffffff\n    /* \"#utility.yul\":3850:3856   */\n  dup2\n    /* \"#utility.yul\":3847:3877   */\n  gt\n    /* \"#utility.yul\":3844:3961   */\n  iszero\n  tag_109\n  jumpi\n    /* \"#utility.yul\":3880:3959   */\n  tag_110\n  tag_28\n  jump\t// in\ntag_110:\n    /* \"#utility.yul\":3844:3961   */\ntag_109:\n    /* \"#utility.yul\":3985:4059   */\n  tag_111\n    /* \"#utility.yul\":4051:4058   */\n  dup8\n    /* \"#utility.yul\":4042:4048   */\n  dup3\n    /* \"#utility.yul\":4031:4040   */\n  dup9\n    /* \"#utility.yul\":4027:4049   */\n  add\n    /* \"#utility.yul\":3985:4059   */\n  tag_38\n  jump\t// in\ntag_111:\n    /* \"#utility.yul\":3975:4059   */\n  swap4\n  pop\n    /* \"#utility.yul\":3777:4069   */\n  pop\n    /* \"#utility.yul\":4108:4110   */\n  0x40\n    /* \"#utility.yul\":4134:4198   */\n  tag_112\n    /* \"#utility.yul\":4190:4197   */\n  dup8\n    /* \"#utility.yul\":4181:4187   */\n  dup3\n    /* \"#utility.yul\":4170:4179   */\n  dup9\n    /* \"#utility.yul\":4166:4188   */\n  add\n    /* \"#utility.yul\":4134:4198   */\n  tag_42\n  jump\t// in\ntag_112:\n    /* \"#utility.yul\":4124:4198   */\n  swap3\n  pop\n    /* \"#utility.yul\":4079:4208   */\n  pop\n    /* \"#utility.yul\":4247:4249   */\n  0x60\n    /* \"#utility.yul\":4273:4337   */\n  tag_113\n    /* \"#utility.yul\":4329:4336   */\n  dup8\n    /* \"#utility.yul\":4320:4326   */\n  dup3\n    /* \"#utility.yul\":4309:4318   */\n  dup9\n    /* \"#utility.yul\":4305:4327   */\n  add\n    /* \"#utility.yul\":4273:4337   */\n  tag_42\n  jump\t// in\ntag_113:\n    /* \"#utility.yul\":4263:4337   */\n  swap2\n  pop\n    /* \"#utility.yul\":4218:4347   */\n  pop\n    /* \"#utility.yul\":3188:4354   */\n  swap3\n  swap6\n  swap2\n  swap5\n  pop\n  swap3\n  pop\n  jump\t// out\n    /* \"#utility.yul\":4360:4459   */\ntag_43:\n    /* \"#utility.yul\":4412:4418   */\n  0x00\n    /* \"#utility.yul\":4446:4451   */\n  dup2\n    /* \"#utility.yul\":4440:4452   */\n  mload\n    /* \"#utility.yul\":4430:4452   */\n  swap1\n  pop\n    /* \"#utility.yul\":4360:4459   */\n  swap2\n  swap1\n  pop\n  jump\t// out\n    /* \"#utility.yul\":4465:4645   */\ntag_44:\n    /* \"#utility.yul\":4513:4590   */\n  0x4e487b7100000000000000000000000000000000000000000000000000000000\n    /* \"#utility.yul\":4510:4511   */\n  0x00\n    /* \"#utility.yul\":4503:4591   */\n  mstore\n    /* \"#utility.yul\":4610:4614   */\n  0x22\n    /* \"#utility.yul\":4607:4608   */\n  0x04\n    /* \"#utility.yul\":4600:4615   */\n  mstore\n    /* \"#utility.yul\":4634:4638   */\n  0x24\n    /* \"#utility.yul\":4631:4632   */\n  0x00\n    /* \"#utility.yul\":4624:4639   */\n  revert\n    /* \"#utility.yul\":4651:4971   */\ntag_45:\n    /* \"#utility.yul\":4695:4701   */\n  0x00\n    /* \"#utility.yul\":4732:4733   */\n  0x02\n    /* \"#utility.yul\":4726:4730   */\n  dup3\n    /* \"#utility.yul\":4722:4734   */\n  div\n    /* \"#utility.yul\":4712:4734   */\n  swap1\n  pop\n    /* \"#utility.yul\":4779:4780   */\n  0x01\n    /* \"#utility.yul\":4773:4777   */\n  dup3\n    /* \"#utility.yul\":4769:4781   */\n  and\n    /* \"#utility.yul\":4800:4818   */\n  dup1\n    /* \"#utility.yul\":4790:4871   */\n  tag_117\n  jumpi\n    /* \"#utility.yul\":4856:4860   */\n  0x7f\n    /* \"#utility.yul\":4848:4854   */\n  dup3\n    /* \"#utility.yul\":4844:4861   */\n  and\n    /* \"#utility.yul\":4834:4861   */\n  swap2\n  pop\n    /* \"#utility.yul\":4790:4871   */\ntag_117:\n    /* \"#utility.yul\":4918:4920   */\n  0x20\n    /* \"#utility.yul\":4910:4916   */\n  dup3\n    /* \"#utility.yul\":4907:4921   */\n  lt\n    /* \"#utility.yul\":4887:4905   */\n  dup2\n    /* \"#utility.yul\":4884:4922   */\n  sub\n    /* \"#utility.yul\":4881:4965   */\n  tag_118\n  jumpi\n    /* \"#utility.yul\":4937:4955   */\n  tag_119\n  tag_44\n  jump\t// in\ntag_119:\n    /* \"#utility.yul\":4881:4965   */\ntag_118:\n    /* \"#utility.yul\":4702:4971   */\n  pop\n    /* \"#utility.yul\":4651:4971   */\n  swap2\n  swap1\n  pop\n  jump\t// out\n    /* \"#utility.yul\":4977:5118   */\ntag_46:\n    /* \"#utility.yul\":5026:5030   */\n  0x00\n    /* \"#utility.yul\":5049:5052   */\n  dup2\n    /* \"#utility.yul\":5041:5052   */\n  swap1\n  pop\n    /* \"#utility.yul\":5072:5075   */\n  dup2\n    /* \"#utility.yul\":5069:5070   */\n  0x00\n    /* \"#utility.yul\":5062:5076   */\n  mstore\n    /* \"#utility.yul\":5106:5110   */\n  0x20\n    /* \"#utility.yul\":5103:5104   */\n  0x00\n    /* \"#utility.yul\":5093:5111   */\n  keccak256\n    /* \"#utility.yul\":5085:5111   */\n  swap1\n  pop\n    /* \"#utility.yul\":4977:5118   */\n  swap2\n  swap1\n  pop\n  jump\t// out\n    /* \"#utility.yul\":5124:5217   */\ntag_47:\n    /* \"#utility.yul\":5161:5167   */\n  0x00\n    /* \"#utility.yul\":5208:5210   */\n  0x20\n    /* \"#utility.yul\":5203:5205   */\n  0x1f\n    /* \"#utility.yul\":5196:5201   */\n  dup4\n    /* \"#utility.yul\":5192:5206   */\n  add\n    /* \"#utility.yul\":5188:5211   */\n  div\n    /* \"#utility.yul\":5178:5211   */\n  swap1\n  pop\n    /* \"#utility.yul\":5124:5217   */\n  swap2\n  swap1\n  pop\n  jump\t// out\n    /* \"#utility.yul\":5223:5330   */\ntag_48:\n    /* \"#utility.yul\":5267:5275   */\n  0x00\n    /* \"#utility.yul\":5317:5322   */\n  dup3\n    /* \"#utility.yul\":5311:5315   */\n  dup3\n    /* \"#utility.yul\":5307:5323   */\n  shl\n    /* \"#utility.yul\":5286:5323   */\n  swap1\n  pop\n    /* \"#utility.yul\":5223:5330   */\n  swap3\n  swap2\n  pop\n  pop\n  jump\t// out\n    /* \"#utility.yul\":5336:5729   */\ntag_49:\n    /* \"#utility.yul\":5405:5411   */\n  0x00\n    /* \"#utility.yul\":5455:5456   */\n  0x08\n    /* \"#utility.yul\":5443:5453   */\n  dup4\n    /* \"#utility.yul\":5439:5457   */\n  mul\n    /* \"#utility.yul\":5478:5575   */\n  tag_124\n    /* \"#utility.yul\":5508:5574   */\n  0xffffffffffffffffffffffffffffffffffffffffffffffffffffffffffffffff\n    /* \"#utility.yul\":5497:5506   */\n  dup3\n    /* \"#utility.yul\":5478:5575   */\n  tag_48\n  jump\t// in\ntag_124:\n    /* \"#utility.yul\":5596:5635   */\n  tag_125\n    /* \"#utility.yul\":5626:5634   */\n  dup7\n    /* \"#utility.yul\":5615:5624   */\n  dup4\n    /* \"#utility.yul\":5596:5635   */\n  tag_48\n  jump\t// in\ntag_125:\n    /* \"#utility.yul\":5584:5635   */\n  swap6\n  pop\n    /* \"#utility.yul\":5668:5672   */\n  dup1\n    /* \"#utility.yul\":5664:5673   */\n  not\n    /* \"#utility.yul\":5657:5662   */\n  dup5\n    /* \"#utility.yul\":5653:5674   */\n  and\n    /* \"#utility.yul\":5644:5674   */\n  swap4\n  pop\n    /* \"#utility.yul\":5717:5721   */\n  dup1\n    /* \"#utility.yul\":5707:5715   */\n  dup7\n    /* \"#utility.yul\":5703:5722   */\n  and\n    /* \"#utility.yul\":5696:5701   */\n  dup5\n    /* \"#utility.yul\":5693:5723   */\n  or\n    /* \"#utility.yul\":5683:5723   */\n  swap3\n  pop\n    /* \"#utility.yul\":5412:5729   */\n  pop\n  pop\n    /* \"#utility.yul\":5336:5729   */\n  swap4\n  swap3\n  pop\n  pop\n  pop\n  jump\t// out\n    /* \"#utility.yul\":5735:5812   */\ntag_50:\n    /* \"#utility.yul\":5772:5779   */\n  0x00\n    /* \"#utility.yul\":5801:5806   */\n  dup2\n    /* \"#utility.yul\":5790:5806   */\n  swap1\n  pop\n    /* \"#utility.yul\":5735:5812   */\n  swap2\n  swap1\n  pop\n  jump\t// out\n    /* \"#utility.yul\":5818:5878   */\ntag_51:\n    /* \"#utility.yul\":5846:5849   */\n  0x00\n    /* \"#utility.yul\":5867:5872   */\n  dup2\n    /* \"#utility.yul\":5860:5872   */\n  swap1\n  pop\n    /* \"#utility.yul\":5818:5878   */\n  swap2\n  swap1\n  pop\n  jump\t// out\n    /* \"#utility.yul\":5884:6026   */\ntag_52:\n    /* \"#utility.yul\":5934:5943   */\n  0x00\n    /* \"#utility.yul\":5967:6020   */\n  tag_129\n    /* \"#utility.yul\":5985:6019   */\n  tag_130\n    /* \"#utility.yul\":5994:6018   */\n  tag_131\n    /* \"#utility.yul\":6012:6017   */\n  dup5\n    /* \"#utility.yul\":5994:6018   */\n  tag_50\n  jump\t// in\ntag_131:\n    /* \"#utility.yul\":5985:6019   */\n  tag_51\n  jump\t// in\ntag_130:\n    /* \"#utility.yul\":5967:6020   */\n  tag_50\n  jump\t// in\ntag_129:\n    /* \"#utility.yul\":5954:6020   */\n  swap1\n  pop\n    /* \"#utility.yul\":5884:6026   */\n  swap2\n  swap1\n  pop\n  jump\t// out\n    /* \"#utility.yul\":6032:6107   */\ntag_53:\n    /* \"#utility.yul\":6075:6078   */\n  0x00\n    /* \"#utility.yul\":6096:6101   */\n  dup2\n    /* \"#utility.yul\":6089:6101   */\n  swap1\n  pop\n    /* \"#utility.yul\":6032:6107   */\n  swap2\n  swap1\n  pop\n  jump\t// out\n    /* \"#utility.yul\":6113:6382   */\ntag_54:\n    /* \"#utility.yul\":6223:6262   */\n  tag_134\n    /* \"#utility.yul\":6254:6261   */\n  dup4\n    /* \"#utility.yul\":6223:6262   */\n  tag_52\n  jump\t// in\ntag_134:\n    /* \"#utility.yul\":6284:6375   */\n  tag_135\n    /* \"#utility.yul\":6333:6374   */\n  tag_136\n    /* \"#utility.yul\":6357:6373   */\n  dup3\n    /* \"#utility.yul\":6333:6374   */\n  tag_53\n  jump\t// in\ntag_136:\n    /* \"#utility.yul\":6325:6331   */\n  dup5\n    /* \"#utility.yul\":6318:6322   */\n  dup5\n    /* \"#utility.yul\":6312:6323   */\n  sload\n    /* \"#utility.yul\":6284:6375   */\n  tag_49\n  jump\t// in\ntag_135:\n    /* \"#utility.yul\":6278:6282   */\n  dup3\n    /* \"#utility.yul\":6271:6376   */\n  sstore\n    /* \"#utility.yul\":6189:6382   */\n  pop\n    /* \"#utility.yul\":6113:6382   */\n  pop\n  pop\n  pop\n  jump\t// out\n    /* \"#utility.yul\":6388:6461   */\ntag_55:\n    /* \"#utility.yul\":6433:6436   */\n  0x00\n    /* \"#utility.yul\":6388:6461   */\n  swap1\n  jump\t// out\n    /* \"#utility.yul\":6467:6656   */\ntag_56:\n    /* \"#utility.yul\":6544:6576   */\n  tag_139\n  tag_55\n  jump\t// in\ntag_139:\n    /* \"#utility.yul\":6585:6650   */\n  tag_140\n    /* \"#utility.yul\":6643:6649   */\n  dup2\n    /* \"#utility.yul\":6635:6641   */\n  dup5\n    /* \"#utility.yul\":6629:6633   */\n  dup5\n    /* \"#utility.yul\":6585:6650   */\n  tag_54\n  jump\t// in\ntag_140:\n    /* \"#utility.yul\":6520:6656   */\n  pop\n    /* \"#utility.yul\":6467:6656   */\n  pop\n  pop\n  jump\t// out\n    /* \"#utility.yul\":6662:6848   */\ntag_57:\n    /* \"#utility.yul\":6722:6842   */\ntag_142:\n    /* \"#utility.yul\":6739:6742   */\n  dup2\n    /* \"#utility.yul\":6732:6737   */\n  dup2\n    /* \"#utility.yul\":6729:6743   */\n  lt\n    /* \"#utility.yul\":6722:6842   */\n  iszero\n  tag_144\n  jumpi\n    /* \"#utility.yul\":6793:6832   */\n  tag_145\n    /* \"#utility.yul\":6830:6831   */\n  0x00\n    /* \"#utility.yul\":6823:6828   */\n  dup3\n    /* \"#utility.yul\":6793:6832   */\n  tag_56\n  jump\t// in\ntag_145:\n    /* \"#utility.yul\":6766:6767   */\n  0x01\n    /* \"#utility.yul\":6759:6764   */\n  dup2\n    /* \"#utility.yul\":6755:6768   */\n  add\n    /* \"#utility.yul\":6746:6768   */\n  swap1\n  pop\n    /* \"#utility.yul\":6722:6842   */\n  jump(tag_142)\ntag_144:\n    /* \"#utility.yul\":6662:6848   */\n  pop\n  pop\n  jump\t// out\n    /* \"#utility.yul\":6854:7397   */\ntag_58:\n    /* \"#utility.yul\":6955:6957   */\n  0x1f\n    /* \"#utility.yul\":6950:6953   */\n  dup3\n    /* \"#utility.yul\":6947:6958   */\n  gt\n    /* \"#utility.yul\":6944:7390   */\n  iszero\n  tag_147\n  jumpi\n    /* \"#utility.yul\":6989:7027   */\n  tag_148\n    /* \"#utility.yul\":7021:7026   */\n  dup2\n    /* \"#utility.yul\":6989:7027   */\n  tag_46\n  jump\t// in\ntag_148:\n    /* \"#utility.yul\":7073:7102   */\n  tag_149\n    /* \"#utility.yul\":7091:7101   */\n  dup5\n    /* \"#utility.yul\":7073:7102   */\n  tag_47\n  jump\t// in\ntag_149:\n    /* \"#utility.yul\":7063:7071   */\n  dup2\n    /* \"#utility.yul\":7059:7103   */\n  add\n    /* \"#utility.yul\":7256:7258   */\n  0x20\n    /* \"#utility.yul\":7244:7254   */\n  dup6\n    /* \"#utility.yul\":7241:7259   */\n  lt\n    /* \"#utility.yul\":7238:7287   */\n  iszero\n  tag_150\n  jumpi\n    /* \"#utility.yul\":7277:7285   */\n  dup2\n    /* \"#utility.yul\":7262:7285   */\n  swap1\n  pop\n    /* \"#utility.yul\":7238:7287   */\ntag_150:\n    /* \"#utility.yul\":7300:7380   */\n  tag_151\n    /* \"#utility.yul\":7356:7378   */\n  tag_152\n    /* \"#utility.yul\":7374:7377   */\n  dup6\n    /* \"#utility.yul\":7356:7378   */\n  tag_47\n  jump\t// in\ntag_152:\n    /* \"#utility.yul\":7346:7354   */\n  dup4\n    /* \"#utility.yul\":7342:7379   */\n  add\n    /* \"#utility.yul\":7329:7340   */\n  dup3\n    /* \"#utility.yul\":7300:7380   */\n  tag_57\n  jump\t// in\ntag_151:\n    /* \"#utility.yul\":6959:7390   */\n  pop\n  pop\n    /* \"#utility.yul\":6944:7390   */\ntag_147:\n    /* \"#utility.yul\":6854:7397   */\n  pop\n  pop\n  pop\n  jump\t// out\n    /* \"#utility.yul\":7403:7520   */\ntag_59:\n    /* \"#utility.yul\":7457:7465   */\n  0x00\n    /* \"#utility.yul\":7507:7512   */\n  dup3\n    /* \"#utility.yul\":7501:7505   */\n  dup3\n    /* \"#utility.yul\":7497:7513   */\n  shr\n    /* \"#utility.yul\":7476:7513   */\n  swap1\n  pop\n    /* \"#utility.yul\":7403:7520   */\n  swap3\n  swap2\n  pop\n  pop\n  jump\t// out\n    /* \"#utility.yul\":7526:7695   */\ntag_60:\n    /* \"#utility.yul\":7570:7576   */\n  0x00\n    /* \"#utility.yul\":7603:7654   */\n  tag_155\n    /* \"#utility.yul\":7651:7652   */\n  0x00\n    /* \"#utility.yul\":7647:7653   */\n  not\n    /* \"#utility.yul\":7639:7644   */\n  dup5\n    /* \"#utility.yul\":7636:7637   */\n  0x08\n    /* \"#utility.yul\":7632:7645   */\n  mul\n    /* \"#utility.yul\":7603:7654   */\n  tag_59\n  jump\t// in\ntag_155:\n    /* \"#utility.yul\":7599:7655   */\n  not\n    /* \"#utility.yul\":7684:7688   */\n  dup1\n    /* \"#utility.yul\":7678:7682   */\n  dup4\n    /* \"#utility.yul\":7674:7689   */\n  and\n    /* \"#utility.yul\":7664:7689   */\n  swap2\n  pop\n    /* \"#utility.yul\":7577:7695   */\n  pop\n    /* \"#utility.yul\":7526:7695   */\n  swap3\n  swap2\n  pop\n  pop\n  jump\t// out\n    /* \"#utility.yul\":7700:7995   */\ntag_61:\n    /* \"#utility.yul\":7776:7780   */\n  0x00\n    /* \"#utility.yul\":7922:7951   */\n  tag_157\n    /* \"#utility.yul\":7947:7950   */\n  dup4\n    /* \"#utility.yul\":7941:7945   */\n  dup4\n    /* \"#utility.yul\":7922:7951   */\n  tag_60\n  jump\t// in\ntag_157:\n    /* \"#utility.yul\":7914:7951   */\n  swap2\n  pop\n    /* \"#utility.yul\":7984:7987   */\n  dup3\n    /* \"#utility.yul\":7981:7982   */\n  0x02\n    /* \"#utility.yul\":7977:7988   */\n  mul\n    /* \"#utility.yul\":7971:7975   */\n  dup3\n    /* \"#utility.yul\":7968:7989   */\n  or\n    /* \"#utility.yul\":7960:7989   */\n  swap1\n  pop\n    /* \"#utility.yul\":7700:7995   */\n  swap3\n  swap2\n  pop\n  pop\n  jump\t// out\n    /* \"#utility.yul\":8000:9395   */\ntag_9:\n    /* \"#utility.yul\":8117:8154   */\n  tag_159\n    /* \"#utility.yul\":8150:8153   */\n  dup3\n    /* \"#utility.yul\":8117:8154   */\n  tag_43\n  jump\t// in\ntag_159:\n    /* \"#utility.yul\":8219:8237   */\n  0xffffffffffffffff\n    /* \"#utility.yul\":8211:8217   */\n  dup2\n    /* \"#utility.yul\":8208:8238   */\n  gt\n    /* \"#utility.yul\":8205:8261   */\n  iszero\n  tag_160\n  jumpi\n    /* \"#utility.yul\":8241:8259   */\n  tag_161\n  tag_32\n  jump\t// in\ntag_161:\n    /* \"#utility.yul\":8205:8261   */\ntag_160:\n    /* \"#utility.yul\":8285:8323   */\n  tag_162\n    /* \"#utility.yul\":8317:8321   */\n  dup3\n    /* \"#utility.yul\":8311:8322   */\n  sload\n    /* \"#utility.yul\":8285:8323   */\n  tag_45\n  jump\t// in\ntag_162:\n    /* \"#utility.yul\":8370:8437   */\n  tag_163\n    /* \"#utility.yul\":8430:8436   */\n  dup3\n    /* \"#utility.yul\":8422:8428   */\n  dup3\n    /* \"#utility.yul\":8416:8420   */\n  dup6\n    /* \"#utility.yul\":8370:8437   */\n  tag_58\n  jump\t// in\ntag_163:\n    /* \"#utility.yul\":8464:8465   */\n  0x00\n    /* \"#utility.yul\":8488:8492   */\n  0x20\n    /* \"#utility.yul\":8475:8492   */\n  swap1\n  pop\n    /* \"#utility.yul\":8520:8522   */\n  0x1f\n    /* \"#utility.yul\":8512:8518   */\n  dup4\n    /* \"#utility.yul\":8509:8523   */\n  gt\n    /* \"#utility.yul\":8537:8538   */\n  0x01\n    /* \"#utility.yul\":8532:9150   */\n  dup2\n  eq\n  tag_165\n  jumpi\n    /* \"#utility.yul\":9194:9195   */\n  0x00\n    /* \"#utility.yul\":9211:9217   */\n  dup5\n    /* \"#utility.yul\":9208:9285   */\n  iszero\n  tag_166\n  jumpi\n    /* \"#utility.yul\":9260:9269   */\n  dup3\n    /* \"#utility.yul\":9255:9258   */\n  dup8\n    /* \"#utility.yul\":9251:9270   */\n  add\n    /* \"#utility.yul\":9245:9271   */\n  mload\n    /* \"#utility.yul\":9236:9271   */\n  swap1\n  pop\n    /* \"#utility.yul\":9208:9285   */\ntag_166:\n    /* \"#utility.yul\":9311:9378   */\n  tag_167\n    /* \"#utility.yul\":9371:9377   */\n  dup6\n    /* \"#utility.yul\":9364:9369   */\n  dup3\n    /* \"#utility.yul\":9311:9378   */\n  tag_61\n  jump\t// in\ntag_167:\n    /* \"#utility.yul\":9305:9309   */\n  dup7\n    /* \"#utility.yul\":9298:9379   */\n  sstore\n    /* \"#utility.yul\":9167:9389   */\n  pop\n    /* \"#utility.yul\":8502:9389   */\n  jump(tag_164)\n    /* \"#utility.yul\":8532:9150   */\ntag_165:\n    /* \"#utility.yul\":8584:8588   */\n  0x1f\n    /* \"#utility.yul\":8580:8589   */\n  not\n    /* \"#utility.yul\":8572:8578   */\n  dup5\n    /* \"#utility.yul\":8568:8590   */\n  and\n    /* \"#utility.yul\":8618:8655   */\n  tag_168\n    /* \"#utility.yul\":8650:8654   */\n  dup7\n    /* \"#utility.yul\":8618:8655   */\n  tag_46\n  jump\t// in\ntag_168:\n    /* \"#utility.yul\":8677:8678   */\n  0x00\n    /* \"#utility.yul\":8691:8899   */\ntag_169:\n    /* \"#utility.yul\":8705:8712   */\n  dup3\n    /* \"#utility.yul\":8702:8703   */\n  dup2\n    /* \"#utility.yul\":8699:8713   */\n  lt\n    /* \"#utility.yul\":8691:8899   */\n  iszero\n  tag_171\n  jumpi\n    /* \"#utility.yul\":8784:8793   */\n  dup5\n    /* \"#utility.yul\":8779:8782   */\n  dup10\n    /* \"#utility.yul\":8775:8794   */\n  add\n    /* \"#utility.yul\":8769:8795   */\n  mload\n    /* \"#utility.yul\":8761:8767   */\n  dup3\n    /* \"#utility.yul\":8754:8796   */\n  sstore\n    /* \"#utility.yul\":8835:8836   */\n  0x01\n    /* \"#utility.yul\":8827:8833   */\n  dup3\n    /* \"#utility.yul\":8823:8837   */\n  add\n    /* \"#utility.yul\":8813:8837   */\n  swap2\n  pop\n    /* \"#utility.yul\":8882:8884   */\n  0x20\n    /* \"#utility.yul\":8871:8880   */\n  dup6\n    /* \"#utility.yul\":8867:8885   */\n  add\n    /* \"#utility.yul\":8854:8885   */\n  swap5\n  pop\n    /* \"#utility.yul\":8728:8732   */\n  0x20\n    /* \"#utility.yul\":8725:8726   */\n  dup2\n    /* \"#utility.yul\":8721:8733   */\n  add\n    /* \"#utility.yul\":8716:8733   */\n  swap1\n  pop\n    /* \"#utility.yul\":8691:8899   */\n  jump(tag_169)\ntag_171:\n    /* \"#utility.yul\":8927:8933   */\n  dup7\n    /* \"#utility.yul\":8918:8925   */\n  dup4\n    /* \"#utility.yul\":8915:8934   */\n  lt\n    /* \"#utility.yul\":8912:9091   */\n  iszero\n  tag_172\n  jumpi\n    /* \"#utility.yul\":8985:8994   */\n  dup5\n    /* \"#utility.yul\":8980:8983   */\n  dup10\n    /* \"#utility.yul\":8976:8995   */\n  add\n    /* \"#utility.yul\":8970:8996   */\n  mload\n    /* \"#utility.yul\":9028:9076   */\n  tag_173\n    /* \"#utility.yul\":9070:9074   */\n  0x1f\n    /* \"#utility.yul\":9062:9068   */\n  dup10\n    /* \"#utility.yul\":9058:9075   */\n  and\n    /* \"#utility.yul\":9047:9056   */\n  dup3\n    /* \"#utility.yul\":9028:9076   */\n  tag_60\n  jump\t// in\ntag_173:\n    /* \"#utility.yul\":9020:9026   */\n  dup4\n    /* \"#utility.yul\":9013:9077   */\n  sstore\n    /* \"#utility.yul\":8935:9091   */\n  pop\n    /* \"#utility.yul\":8912:9091   */\ntag_172:\n    /* \"#utility.yul\":9137:9138   */\n  0x01\n    /* \"#utility.yul\":9133:9134   */\n  0x02\n    /* \"#utility.yul\":9125:9131   */\n  dup9\n    /* \"#utility.yul\":9121:9135   */\n  mul\n    /* \"#utility.yul\":9117:9139   */\n  add\n    /* \"#utility.yul\":9111:9115   */\n  dup9\n    /* \"#utility.yul\":9104:9140   */\n  sstore\n    /* \"#utility.yul\":8539:9150   */\n  pop\n  pop\n  pop\n    /* \"#utility.yul\":8502:9389   */\ntag_164:\n  pop\n    /* \"#utility.yul\":8092:9395   */\n  pop\n  pop\n  pop\n    /* \"#utility.yul\":8000:9395   */\n  pop\n  pop\n  jump\t// out\n    /* \"contracts/RwaToken.sol\":570:2307  contract RwaToken is ERC20, AccessControl, Pausable {... */\ntag_16:\n  dataSize(sub_0)\n  dup1\n  dataOffset(sub_0)\n  0x00\n  codecopy\n  0x00\n  return\nstop\n\nsub_0: assembly {\n        /* \"contracts/RwaToken.sol\":570:2307  contract RwaToken is ERC20, AccessControl, Pausable {... */\n      mstore(0x40, 0x80)\n      callvalue\n      dup1\n      iszero\n      tag_1\n      jumpi\n      0x00\n      dup1\n      revert\n    tag_1:\n      pop\n      jumpi(tag_2, lt(calldatasize, 0x04))\n      shr(0xe0, calldataload(0x00))\n      dup1\n      0x5c975abb\n      gt\n      tag_26\n      jumpi\n      dup1\n      0x91d14854\n      gt\n      tag_27\n      jumpi\n      dup1\n      0x91d14854\n      eq\n      tag_20\n      jumpi\n      dup1\n      0x95d89b41\n      eq\n      tag_21\n      jumpi\n      dup1\n      0xa217fddf\n      eq\n      tag_22\n      jumpi\n      dup1\n      0xa9059cbb\n      eq\n      tag_23\n      jumpi\n      dup1\n      0xd547741f\n      eq\n      tag_24\n      jumpi\n      dup1\n      0xdd62ed3e\n      eq\n      tag_25\n      jumpi\n      jump(tag_2)\n    tag_27:\n      dup1\n      0x5c975abb\n      eq\n      tag_14\n      jumpi\n      dup1\n      0x6290865d\n      eq\n      tag_15\n      jumpi\n      dup1\n      0x70a08231\n      eq\n      tag_16\n      jumpi\n      dup1\n      0x82aefa24\n      eq\n      tag_17\n      jumpi\n      dup1\n      0x8456cb59\n      eq\n      tag_18\n      jumpi\n      dup1\n      0x89021456\n      eq\n      tag_19\n      jumpi\n      jump(tag_2)\n    tag_26:\n      dup1\n      0x248a9ca3\n      gt\n      tag_28\n      jumpi\n      dup1\n      0x248a9ca3\n      eq\n      tag_8\n      jumpi\n      dup1\n      0x2f2ff15d\n      eq\n      tag_9\n      jumpi\n      dup1\n      0x313ce567\n      eq\n      tag_10\n      jumpi\n      dup1\n      0x36568abe\n      eq\n      tag_11\n      jumpi\n      dup1\n      0x3f4ba83a\n      eq\n      tag_12\n      jumpi\n      dup1\n      0x40c10f19\n      eq\n      tag_13\n      jumpi\n      jump(tag_2)\n    tag_28:\n      dup1\n      0x01ffc9a7\n      eq\n      tag_3\n      jumpi\n      dup1\n      0x06fdde03\n      eq\n      tag_4\n      jumpi\n      dup1\n      0x095ea7b3\n      eq\n      tag_5\n      jumpi\n      dup1\n      0x18160ddd\n      eq\n      tag_6\n      jumpi\n      dup1\n      0x23b872dd\n      eq\n      tag_7\n      jumpi\n    tag_2:\n      0x00\n      dup1\n      revert\n        /* \"https://raw.githubusercontent.com/OpenZeppelin/openzeppelin-contracts/v5.0.2/contracts/access/AccessControl.sol\":2565:2767  function supportsInterface(bytes4 interfaceId) public view virtual override returns (bool) {... */\n    tag_3:\n      tag_29\n      0x04\n      dup1\n      calldatasize\n      sub\n      dup2\n      add\n      swap1\n      tag_30\n      swap2\n      swap1\n      tag_31\n      jump\t// in\n    tag_30:\n      tag_32\n      jump\t// in\n    tag_29:\n      mload(0x40)\n      tag_33\n      swap2\n      swap1\n      tag_34\n      jump\t// in\n    tag_33:\n      mload(0x40)\n      dup1\n      swap2\n      sub\n      swap1\n      return\n        /* \"https://raw.githubusercontent.com/OpenZeppelin/openzeppelin-contracts/v5.0.2/contracts/token/ERC20/ERC20.sol\":2074:2163  function name() public view virtual returns (string memory) {... */\n    tag_4:\n      tag_35\n      tag_36\n      jump\t// in\n    tag_35:\n      mload(0x40)\n      tag_37\n      swap2\n      swap1\n      tag_38\n      jump\t// in\n    tag_37:\n      mload(0x40)\n      dup1\n      swap2\n      sub\n      swap1\n      return\n        /* \"https://raw.githubusercontent.com/OpenZeppelin/openzeppelin-contracts/v5.0.2/contracts/token/ERC20/ERC20.sol\":4293:4479  function approve(address spender, uint256 value) public virtual returns (bool) {... */\n    tag_5:\n      tag_39\n      0x04\n      dup1\n      calldatasize\n      sub\n      dup2\n      add\n      swap1\n      tag_40\n      swap2\n      swap1\n      tag_41\n      jump\t// in\n    tag_40:\n      tag_42\n      jump\t// in\n    tag_39:\n      mload(0x40)\n      tag_43\n      swap2\n      swap1\n      tag_34\n      jump\t// in\n    tag_43:\n      mload(0x40)\n      dup1\n      swap2\n      sub\n      swap1\n      return\n        /* \"https://raw.githubusercontent.com/OpenZeppelin/openzeppelin-contracts/v5.0.2/contracts/token/ERC20/ERC20.sol\":3144:3241  function totalSupply() public view virtual returns (uint256) {... */\n    tag_6:\n      tag_44\n      tag_45\n      jump\t// in\n    tag_44:\n      mload(0x40)\n      tag_46\n      swap2\n      swap1\n      tag_47\n      jump\t// in\n    tag_46:\n      mload(0x40)\n      dup1\n      swap2\n      sub\n      swap1\n      return\n        /* \"https://raw.githubusercontent.com/OpenZeppelin/openzeppelin-contracts/v5.0.2/contracts/token/ERC20/ERC20.sol\":5039:5283  function transferFrom(address from, address to, uint256 value) public virtual returns (bool) {... */\n    tag_7:\n      tag_48\n      0x04\n      dup1\n      calldatasize\n      sub\n      dup2\n      add\n      swap1\n      tag_49\n      swap2\n      swap1\n      tag_50\n      jump\t// in\n    tag_49:\n      tag_51\n      jump\t// in\n    tag_48:\n      mload(0x40)\n      tag_52\n      swap2\n      swap1\n      tag_34\n      jump\t// in\n    tag_52:\n      mload(0x40)\n      dup1\n      swap2\n      sub\n      swap1\n      return\n        /* \"https://raw.githubusercontent.com/OpenZeppelin/openzeppelin-contracts/v5.0.2/contracts/access/AccessControl.sol\":3810:3930  function getRoleAdmin(bytes32 role) public view virtual returns (bytes32) {... */\n    tag_8:\n      tag_53\n      0x04\n      dup1\n      calldatasize\n      sub\n      dup2\n      add\n      swap1\n      tag_54\n      swap2\n      swap1\n      tag_55\n      jump\t// in\n    tag_54:\n      tag_56\n      jump\t// in\n    tag_53:\n      mload(0x40)\n      tag_57\n      swap2\n      swap1\n      tag_58\n      jump\t// in\n    tag_57:\n      mload(0x40)\n      dup1\n      swap2\n      sub\n      swap1\n      return\n        /* \"https://raw.githubusercontent.com/OpenZeppelin/openzeppelin-contracts/v5.0.2/contracts/access/AccessControl.sol\":4226:4362  function grantRole(bytes32 role, address account) public virtual onlyRole(getRoleAdmin(role)) {... */\n    tag_9:\n      tag_59\n      0x04\n      dup1\n      calldatasize\n      sub\n      dup2\n      add\n      swap1\n      tag_60\n      swap2\n      swap1\n      tag_61\n      jump\t// in\n    tag_60:\n      tag_62\n      jump\t// in\n    tag_59:\n      stop\n        /* \"https://raw.githubusercontent.com/OpenZeppelin/openzeppelin-contracts/v5.0.2/contracts/token/ERC20/ERC20.sol\":3002:3084  function decimals() public view virtual returns (uint8) {... */\n    tag_10:\n      tag_63\n      tag_64\n      jump\t// in\n    tag_63:\n      mload(0x40)\n      tag_65\n      swap2\n      swap1\n      tag_66\n      jump\t// in\n    tag_65:\n      mload(0x40)\n      dup1\n      swap2\n      sub\n      swap1\n      return\n        /* \"https://raw.githubusercontent.com/OpenZeppelin/openzeppelin-contracts/v5.0.2/contracts/access/AccessControl.sol\":5328:5573  function renounceRole(bytes32 role, address callerConfirmation) public virtual {... */\n    tag_11:\n      tag_67\n      0x04\n      dup1\n      calldatasize\n      sub\n      dup2\n      add\n      swap1\n      tag_68\n      swap2\n      swap1\n      tag_61\n      jump\t// in\n    tag_68:\n      tag_69\n      jump\t// in\n    tag_67:\n      stop\n        /* \"contracts/RwaToken.sol\":1142:1214  function unpause() external onlyRole(DEFAULT_ADMIN_ROLE) { _unpause(); } */\n    tag_12:\n      tag_70\n      tag_71\n      jump\t// in\n    tag_70:\n      stop\n        /* \"contracts/RwaToken.sol\":1653:1841  function mint(address to, uint256 value) external onlyRole(ISSUER_ROLE) {... */\n    tag_13:\n      tag_72\n      0x04\n      dup1\n      calldatasize\n      sub\n      dup2\n      add\n      swap1\n      tag_73\n      swap2\n      swap1\n      tag_41\n      jump\t// in\n    tag_73:\n      tag_74\n      jump\t// in\n    tag_72:\n      stop\n        /* \"https://raw.githubusercontent.com/OpenZeppelin/openzeppelin-contracts/v5.0.2/contracts/utils/Pausable.sol\":1850:1934  function paused() public view virtual returns (bool) {... */\n    tag_14:\n      tag_75\n      tag_76\n      jump\t// in\n    tag_75:\n      mload(0x40)\n      tag_77\n      swap2\n      swap1\n      tag_34\n      jump\t// in\n    tag_77:\n      mload(0x40)\n      dup1\n      swap2\n      sub\n      swap1\n      return\n        /* \"contracts/RwaToken.sol\":696:725  ICompliance public compliance */\n    tag_15:\n      tag_78\n      tag_79\n      jump\t// in\n    tag_78:\n      mload(0x40)\n      tag_80\n      swap2\n      swap1\n      tag_81\n      jump\t// in\n    tag_80:\n      mload(0x40)\n      dup1\n      swap2\n      sub\n      swap1\n      return\n        /* \"https://raw.githubusercontent.com/OpenZeppelin/openzeppelin-contracts/v5.0.2/contracts/token/ERC20/ERC20.sol\":3299:3415  function balanceOf(address account) public view virtual returns (uint256) {... */\n    tag_16:\n      tag_82\n      0x04\n      dup1\n      calldatasize\n      sub\n      dup2\n      add\n      swap1\n      tag_83\n      swap2\n      swap1\n      tag_84\n      jump\t// in\n    tag_83:\n      tag_85\n      jump\t// in\n    tag_82:\n      mload(0x40)\n      tag_86\n      swap2\n      swap1\n      tag_47\n      jump\t// in\n    tag_86:\n      mload(0x40)\n      dup1\n      swap2\n      sub\n      swap1\n      return\n        /* \"contracts/RwaToken.sol\":628:690  bytes32 public constant ISSUER_ROLE = keccak256(\"ISSUER_ROLE\") */\n    tag_17:\n      tag_87\n      tag_88\n      jump\t// in\n    tag_87:\n      mload(0x40)\n      tag_89\n      swap2\n      swap1\n      tag_58\n      jump\t// in\n    tag_89:\n      mload(0x40)\n      dup1\n      swap2\n      sub\n      swap1\n      return\n        /* \"contracts/RwaToken.sol\":1069:1137  function pause() external onlyRole(DEFAULT_ADMIN_ROLE) { _pause(); } */\n    tag_18:\n      tag_90\n      tag_91\n      jump\t// in\n    tag_90:\n      stop\n        /* \"contracts/RwaToken.sol\":1847:2072  function forceTransfer(address from, address to, uint256 value, string calldata reason)... */\n    tag_19:\n      tag_92\n      0x04\n      dup1\n      calldatasize\n      sub\n      dup2\n      add\n      swap1\n      tag_93\n      swap2\n      swap1\n      tag_94\n      jump\t// in\n    tag_93:\n      tag_95\n      jump\t// in\n    tag_92:\n      stop\n        /* \"https://raw.githubusercontent.com/OpenZeppelin/openzeppelin-contracts/v5.0.2/contracts/access/AccessControl.sol\":2854:2990  function hasRole(bytes32 role, address account) public view virtual returns (bool) {... */\n    tag_20:\n      tag_96\n      0x04\n      dup1\n      calldatasize\n      sub\n      dup2\n      add\n      swap1\n      tag_97\n      swap2\n      swap1\n      tag_61\n      jump\t// in\n    tag_97:\n      tag_98\n      jump\t// in\n    tag_96:\n      mload(0x40)\n      tag_99\n      swap2\n      swap1\n      tag_34\n      jump\t// in\n    tag_99:\n      mload(0x40)\n      dup1\n      swap2\n      sub\n      swap1\n      return\n        /* \"https://raw.githubusercontent.com/OpenZeppelin/openzeppelin-contracts/v5.0.2/contracts/token/ERC20/ERC20.sol\":2276:2369  function symbol() public view virtual returns (string memory) {... */\n    tag_21:\n      tag_100\n      tag_101\n      jump\t// in\n    tag_100:\n      mload(0x40)\n      tag_102\n      swap2\n      swap1\n      tag_38\n      jump\t// in\n    tag_102:\n      mload(0x40)\n      dup1\n      swap2\n      sub\n      swap1\n      return\n        /* \"https://raw.githubusercontent.com/OpenZeppelin/openzeppelin-contracts/v5.0.2/contracts/access/AccessControl.sol\":2187:2236  bytes32 public constant DEFAULT_ADMIN_ROLE = 0x00 */\n    tag_22:\n      tag_103\n      tag_104\n      jump\t// in\n    tag_103:\n      mload(0x40)\n      tag_105\n      swap2\n      swap1\n      tag_58\n      jump\t// in\n    tag_105:\n      mload(0x40)\n      dup1\n      swap2\n      sub\n      swap1\n      return\n        /* \"https://raw.githubusercontent.com/OpenZeppelin/openzeppelin-contracts/v5.0.2/contracts/token/ERC20/ERC20.sol\":3610:3788  function transfer(address to, uint256 value) public virtual returns (bool) {... */\n    tag_23:\n      tag_106\n      0x04\n      dup1\n      calldatasize\n      sub\n      dup2\n      add\n      swap1\n      tag_107\n      swap2\n      swap1\n      tag_41\n      jump\t// in\n    tag_107:\n      tag_108\n      jump\t// in\n    tag_106:\n      mload(0x40)\n      tag_109\n      swap2\n      swap1\n      tag_34\n      jump\t// in\n    tag_109:\n      mload(0x40)\n      dup1\n      swap2\n      sub\n      swap1\n      return\n        /* \"https://raw.githubusercontent.com/OpenZeppelin/openzeppelin-contracts/v5.0.2/contracts/access/AccessControl.sol\":4642:4780  function revokeRole(bytes32 role, address account) public virtual onlyRole(getRoleAdmin(role)) {... */\n    tag_24:\n      tag_110\n      0x04\n      dup1\n      calldatasize\n      sub\n      dup2\n      add\n      swap1\n      tag_111\n      swap2\n      swap1\n      tag_61\n      jump\t// in\n    tag_111:\n      tag_112\n      jump\t// in\n    tag_110:\n      stop\n        /* \"https://raw.githubusercontent.com/OpenZeppelin/openzeppelin-contracts/v5.0.2/contracts/token/ERC20/ERC20.sol\":3846:3986  function allowance(address owner, address spender) public view virtual returns (uint256) {... */\n    tag_25:\n      tag_113\n      0x04\n      dup1\n      calldatasize\n      sub\n      dup2\n      add\n      swap1\n      tag_114\n      swap2\n      swap1\n      tag_115\n      jump\t// in\n    tag_114:\n      tag_116\n      jump\t// in\n    tag_113:\n      mload(0x40)\n      tag_117\n      swap2\n      swap1\n      tag_47\n      jump\t// in\n    tag_117:\n      mload(0x40)\n      dup1\n      swap2\n      sub\n      swap1\n      return\n        /* \"https://raw.githubusercontent.com/OpenZeppelin/openzeppelin-contracts/v5.0.2/contracts/access/AccessControl.sol\":2565:2767  function supportsInterface(bytes4 interfaceId) public view virtual override returns (bool) {... */\n    tag_32:\n        /* \"https://raw.githubusercontent.com/OpenZeppelin/openzeppelin-contracts/v5.0.2/contracts/access/AccessControl.sol\":2650:2654  bool */\n      0x00\n        /* \"https://raw.githubusercontent.com/OpenZeppelin/openzeppelin-contracts/v5.0.2/contracts/access/AccessControl.sol\":2688:2720  type(IAccessControl).interfaceId */\n      0x7965db0b00000000000000000000000000000000000000000000000000000000\n        /* \"https://raw.githubusercontent.com/OpenZeppelin/openzeppelin-contracts/v5.0.2/contracts/access/AccessControl.sol\":2673:2720  interfaceId == type(IAccessControl).interfaceId */\n      not(0xffffffffffffffffffffffffffffffffffffffffffffffffffffffff)\n      and\n        /* \"https://raw.githubusercontent.com/OpenZeppelin/openzeppelin-contracts/v5.0.2/contracts/access/AccessControl.sol\":2673:2684  interfaceId */\n      dup3\n        /* \"https://raw.githubusercontent.com/OpenZeppelin/openzeppelin-contracts/v5.0.2/contracts/access/AccessControl.sol\":2673:2720  interfaceId == type(IAccessControl).interfaceId */\n      not(0xffffffffffffffffffffffffffffffffffffffffffffffffffffffff)\n      and\n      eq\n        /* \"https://raw.githubusercontent.com/OpenZeppelin/openzeppelin-contracts/v5.0.2/contracts/access/AccessControl.sol\":2673:2760  interfaceId == type(IAccessControl).interfaceId || super.supportsInterface(interfaceId) */\n      dup1\n      tag_119\n      jumpi\n      pop\n        /* \"https://raw.githubusercontent.com/OpenZeppelin/openzeppelin-contracts/v5.0.2/contracts/access/AccessControl.sol\":2724:2760  super.supportsInterface(interfaceId) */\n      tag_120\n        /* \"https://raw.githubusercontent.com/OpenZeppelin/openzeppelin-contracts/v5.0.2/contracts/access/AccessControl.sol\":2748:2759  interfaceId */\n      dup3\n        /* \"https://raw.githubusercontent.com/OpenZeppelin/openzeppelin-contracts/v5.0.2/contracts/access/AccessControl.sol\":2724:2747  super.supportsInterface */\n      tag_121\n        /* \"https://raw.githubusercontent.com/OpenZeppelin/openzeppelin-contracts/v5.0.2/contracts/access/AccessControl.sol\":2724:2760  super.supportsInterface(interfaceId) */\n      jump\t// in\n    tag_120:\n        /* \"https://raw.githubusercontent.com/OpenZeppelin/openzeppelin-contracts/v5.0.2/contracts/access/AccessControl.sol\":2673:2760  interfaceId == type(IAccessControl).interfaceId || super.supportsInterface(interfaceId) */\n    tag_119:\n        /* \"https://raw.githubusercontent.com/OpenZeppelin/openzeppelin-contracts/v5.0.2/contracts/access/AccessControl.sol\":2666:2760  return interfaceId == type(IAccessControl).interfaceId || super.supportsInterface(interfaceId) */\n      swap1\n      pop\n        /* \"https://raw.githubusercontent.com/OpenZeppelin/openzeppelin-contracts/v5.0.2/contracts/access/AccessControl.sol\":2565:2767  function supportsInterface(bytes4 interfaceId) public view virtual override returns (bool) {... */\n      swap2\n      swap1\n      pop\n      jump\t// out\n        /* \"https://raw.githubusercontent.com/OpenZeppelin/openzeppelin-contracts/v5.0.2/contracts/token/ERC20/ERC20.sol\":2074:2163  function name() public view virtual returns (string memory) {... */\n    tag_36:\n        /* \"https://raw.githubusercontent.com/OpenZeppelin/openzeppelin-contracts/v5.0.2/contracts/token/ERC20/ERC20.sol\":2119:2132  string memory */\n      0x60\n        /* \"https://raw.githubusercontent.com/OpenZeppelin/openzeppelin-contracts/v5.0.2/contracts/token/ERC20/ERC20.sol\":2151:2156  _name */\n      0x03\n        /* \"https://raw.githubusercontent.com/OpenZeppelin/openzeppelin-contracts/v5.0.2/contracts/token/ERC20/ERC20.sol\":2144:2156  return _name */\n      dup1\n      sload\n      tag_123\n      swap1\n      tag_124\n      jump\t// in\n    tag_123:\n      dup1\n      0x1f\n      add\n      0x20\n      dup1\n      swap2\n      div\n      mul\n      0x20\n      add\n      mload(0x40)\n      swap1\n      dup2\n      add\n      0x40\n      mstore\n      dup1\n      swap3\n      swap2\n      swap1\n      dup2\n      dup2\n      mstore\n      0x20\n      add\n      dup3\n      dup1\n      sload\n      tag_125\n      swap1\n      tag_124\n      jump\t// in\n    tag_125:\n      dup1\n      iszero\n      tag_126\n      jumpi\n      dup1\n      0x1f\n      lt\n      tag_127\n      jumpi\n      0x0100\n      dup1\n      dup4\n      sload\n      div\n      mul\n      dup4\n      mstore\n      swap2\n      0x20\n      add\n      swap2\n      jump(tag_126)\n    tag_127:\n      dup3\n      add\n      swap2\n      swap1\n      0x00\n      mstore\n      keccak256(0x00, 0x20)\n      swap1\n    tag_128:\n      dup2\n      sload\n      dup2\n      mstore\n      swap1\n      0x01\n      add\n      swap1\n      0x20\n      add\n      dup1\n      dup4\n      gt\n      tag_128\n      jumpi\n      dup3\n      swap1\n      sub\n      0x1f\n      and\n      dup3\n      add\n      swap2\n    tag_126:\n      pop\n      pop\n      pop\n      pop\n      pop\n      swap1\n      pop\n        /* \"https://raw.githubusercontent.com/OpenZeppelin/openzeppelin-contracts/v5.0.2/contracts/token/ERC20/ERC20.sol\":2074:2163  function name() public view virtual returns (string memory) {... */\n      swap1\n      jump\t// out\n        /* \"https://raw.githubusercontent.com/OpenZeppelin/openzeppelin-contracts/v5.0.2/contracts/token/ERC20/ERC20.sol\":4293:4479  function approve(address spender, uint256 value) public virtual returns (bool) {... */\n    tag_42:\n        /* \"https://raw.githubusercontent.com/OpenZeppelin/openzeppelin-contracts/v5.0.2/contracts/token/ERC20/ERC20.sol\":4366:4370  bool */\n      0x00\n        /* \"https://raw.githubusercontent.com/OpenZeppelin/openzeppelin-contracts/v5.0.2/contracts/token/ERC20/ERC20.sol\":4382:4395  address owner */\n      dup1\n        /* \"https://raw.githubusercontent.com/OpenZeppelin/openzeppelin-contracts/v5.0.2/contracts/token/ERC20/ERC20.sol\":4398:4410  _msgSender() */\n      tag_130\n        /* \"https://raw.githubusercontent.com/OpenZeppelin/openzeppelin-contracts/v5.0.2/contracts/token/ERC20/ERC20.sol\":4398:4408  _msgSender */\n      tag_131\n        /* \"https://raw.githubusercontent.com/OpenZeppelin/openzeppelin-contracts/v5.0.2/contracts/token/ERC20/ERC20.sol\":4398:4410  _msgSender() */\n      jump\t// in\n    tag_130:\n        /* \"https://raw.githubusercontent.com/OpenZeppelin/openzeppelin-contracts/v5.0.2/contracts/token/ERC20/ERC20.sol\":4382:4410  address owner = _msgSender() */\n      swap1\n      pop\n        /* \"https://raw.githubusercontent.com/OpenZeppelin/openzeppelin-contracts/v5.0.2/contracts/token/ERC20/ERC20.sol\":4420:4451  _approve(owner, spender, value) */\n      tag_132\n        /* \"https://raw.githubusercontent.com/OpenZeppelin/openzeppelin-contracts/v5.0.2/contracts/token/ERC20/ERC20.sol\":4429:4434  owner */\n      dup2\n        /* \"https://raw.githubusercontent.com/OpenZeppelin/openzeppelin-contracts/v5.0.2/contracts/token/ERC20/ERC20.sol\":4436:4443  spender */\n      dup6\n        /* \"https://raw.githubusercontent.com/OpenZeppelin/openzeppelin-contracts/v5.0.2/contracts/token/ERC20/ERC20.sol\":4445:4450  value */\n      dup6\n        /* \"https://raw.githubusercontent.com/OpenZeppelin/openzeppelin-contracts/v5.0.2/contracts/token/ERC20/ERC20.sol\":4420:4428  _approve */\n      tag_133\n        /* \"https://raw.githubusercontent.com/OpenZeppelin/openzeppelin-contracts/v5.0.2/contracts/token/ERC20/ERC20.sol\":4420:4451  _approve(owner, spender, value) */\n      jump\t// in\n    tag_132:\n        /* \"https://raw.githubusercontent.com/OpenZeppelin/openzeppelin-contracts/v5.0.2/contracts/token/ERC20/ERC20.sol\":4468:4472  true */\n      0x01\n        /* \"https://raw.githubusercontent.com/OpenZeppelin/openzeppelin-contracts/v5.0.2/contracts/token/ERC20/ERC20.sol\":4461:4472  return true */\n      swap2\n      pop\n      pop\n        /* \"https://raw.githubusercontent.com/OpenZeppelin/openzeppelin-contracts/v5.0.2/contracts/token/ERC20/ERC20.sol\":4293:4479  function approve(address spender, uint256 value) public virtual returns (bool) {... */\n      swap3\n      swap2\n      pop\n      pop\n      jump\t// out\n        /* \"https://raw.githubusercontent.com/OpenZeppelin/openzeppelin-contracts/v5.0.2/contracts/token/ERC20/ERC20.sol\":3144:3241  function totalSupply() public view virtual returns (uint256) {... */\n    tag_45:\n        /* \"https://raw.githubusercontent.com/OpenZeppelin/openzeppelin-contracts/v5.0.2/contracts/token/ERC20/ERC20.sol\":3196:3203  uint256 */\n      0x00\n        /* \"https://raw.githubusercontent.com/OpenZeppelin/openzeppelin-contracts/v5.0.2/contracts/token/ERC20/ERC20.sol\":3222:3234  _totalSupply */\n      sload(0x02)\n        /* \"https://raw.githubusercontent.com/OpenZeppelin/openzeppelin-contracts/v5.0.2/contracts/token/ERC20/ERC20.sol\":3215:3234  return _totalSupply */\n      swap1\n      pop\n        /* \"https://raw.githubusercontent.com/OpenZeppelin/openzeppelin-contracts/v5.0.2/contracts/token/ERC20/ERC20.sol\":3144:3241  function totalSupply() public view virtual returns (uint256) {... */\n      swap1\n      jump\t// out\n        /* \"https://raw.githubusercontent.com/OpenZeppelin/openzeppelin-contracts/v5.0.2/contracts/token/ERC20/ERC20.sol\":5039:5283  function transferFrom(address from, address to, uint256 value) public virtual returns (bool) {... */\n    tag_51:\n        /* \"https://raw.githubusercontent.com/OpenZeppelin/openzeppelin-contracts/v5.0.2/contracts/token/ERC20/ERC20.sol\":5126:5130  bool */\n      0x00\n        /* \"https://raw.githubusercontent.com/OpenZeppelin/openzeppelin-contracts/v5.0.2/contracts/token/ERC20/ERC20.sol\":5142:5157  address spender */\n      dup1\n        /* \"https://raw.githubusercontent.com/OpenZeppelin/openzeppelin-contracts/v5.0.2/contracts/token/ERC20/ERC20.sol\":5160:5172  _msgSender() */\n      tag_136\n        /* \"https://raw.githubusercontent.com/OpenZeppelin/openzeppelin-contracts/v5.0.2/contracts/token/ERC20/ERC20.sol\":5160:5170  _msgSender */\n      tag_131\n        /* \"https://raw.githubusercontent.com/OpenZeppelin/openzeppelin-contracts/v5.0.2/contracts/token/ERC20/ERC20.sol\":5160:5172  _msgSender() */\n      jump\t// in\n    tag_136:\n        /* \"https://raw.githubusercontent.com/OpenZeppelin/openzeppelin-contracts/v5.0.2/contracts/token/ERC20/ERC20.sol\":5142:5172  address spender = _msgSender() */\n      swap1\n      pop\n        /* \"https://raw.githubusercontent.com/OpenZeppelin/openzeppelin-contracts/v5.0.2/contracts/token/ERC20/ERC20.sol\":5182:5219  _spendAllowance(from, spender, value) */\n      tag_137\n        /* \"https://raw.githubusercontent.com/OpenZeppelin/openzeppelin-contracts/v5.0.2/contracts/token/ERC20/ERC20.sol\":5198:5202  from */\n      dup6\n        /* \"https://raw.githubusercontent.com/OpenZeppelin/openzeppelin-contracts/v5.0.2/contracts/token/ERC20/ERC20.sol\":5204:5211  spender */\n      dup3\n        /* \"https://raw.githubusercontent.com/OpenZeppelin/openzeppelin-contracts/v5.0.2/contracts/token/ERC20/ERC20.sol\":5213:5218  value */\n      dup6\n        /* \"https://raw.githubusercontent.com/OpenZeppelin/openzeppelin-contracts/v5.0.2/contracts/token/ERC20/ERC20.sol\":5182:5197  _spendAllowance */\n      tag_138\n        /* \"https://raw.githubusercontent.com/OpenZeppelin/openzeppelin-contracts/v5.0.2/contracts/token/ERC20/ERC20.sol\":5182:5219  _spendAllowance(from, spender, value) */\n      jump\t// in\n    tag_137:\n        /* \"https://raw.githubusercontent.com/OpenZeppelin/openzeppelin-contracts/v5.0.2/contracts/token/ERC20/ERC20.sol\":5229:5255  _transfer(from, to, value) */\n      tag_139\n        /* \"https://raw.githubusercontent.com/OpenZeppelin/openzeppelin-contracts/v5.0.2/contracts/token/ERC20/ERC20.sol\":5239:5243  from */\n      dup6\n        /* \"https://raw.githubusercontent.com/OpenZeppelin/openzeppelin-contracts/v5.0.2/contracts/token/ERC20/ERC20.sol\":5245:5247  to */\n      dup6\n        /* \"https://raw.githubusercontent.com/OpenZeppelin/openzeppelin-contracts/v5.0.2/contracts/token/ERC20/ERC20.sol\":5249:5254  value */\n      dup6\n        /* \"https://raw.githubusercontent.com/OpenZeppelin/openzeppelin-contracts/v5.0.2/contracts/token/ERC20/ERC20.sol\":5229:5238  _transfer */\n      tag_140\n        /* \"https://raw.githubusercontent.com/OpenZeppelin/openzeppelin-contracts/v5.0.2/contracts/token/ERC20/ERC20.sol\":5229:5255  _transfer(from, to, value) */\n      jump\t// in\n    tag_139:\n        /* \"https://raw.githubusercontent.com/OpenZeppelin/openzeppelin-contracts/v5.0.2/contracts/token/ERC20/ERC20.sol\":5272:5276  true */\n      0x01\n        /* \"https://raw.githubusercontent.com/OpenZeppelin/openzeppelin-contracts/v5.0.2/contracts/token/ERC20/ERC20.sol\":5265:5276  return true */\n      swap2\n      pop\n      pop\n        /* \"https://raw.githubusercontent.com/OpenZeppelin/openzeppelin-contracts/v5.0.2/contracts/token/ERC20/ERC20.sol\":5039:5283  function transferFrom(address from, address to, uint256 value) public virtual returns (bool) {... */\n      swap4\n      swap3\n      pop\n      pop\n      pop\n      jump\t// out\n        /* \"https://raw.githubusercontent.com/OpenZeppelin/openzeppelin-contracts/v5.0.2/contracts/access/AccessControl.sol\":3810:3930  function getRoleAdmin(bytes32 role) public view virtual returns (bytes32) {... */\n    tag_56:\n        /* \"https://raw.githubusercontent.com/OpenZeppelin/openzeppelin-contracts/v5.0.2/contracts/access/AccessControl.sol\":3875:3882  bytes32 */\n      0x00\n        /* \"https://raw.githubusercontent.com/OpenZeppelin/openzeppelin-contracts/v5.0.2/contracts/access/AccessControl.sol\":3901:3907  _roles */\n      0x05\n        /* \"https://raw.githubusercontent.com/OpenZeppelin/openzeppelin-contracts/v5.0.2/contracts/access/AccessControl.sol\":3901:3913  _roles[role] */\n      0x00\n        /* \"https://raw.githubusercontent.com/OpenZeppelin/openzeppelin-contracts/v5.0.2/contracts/access/AccessControl.sol\":3908:3912  role */\n      dup4\n        /* \"https://raw.githubusercontent.com/OpenZeppelin/openzeppelin-contracts/v5.0.2/contracts/access/AccessControl.sol\":3901:3913  _roles[role] */\n      dup2\n      mstore\n      0x20\n      add\n      swap1\n      dup2\n      mstore\n      0x20\n      add\n      0x00\n      keccak256\n        /* \"https://raw.githubusercontent.com/OpenZeppelin/openzeppelin-contracts/v5.0.2/contracts/access/AccessControl.sol\":3901:3923  _roles[role].adminRole */\n      0x01\n      add\n      sload\n        /* \"https://raw.githubusercontent.com/OpenZeppelin/openzeppelin-contracts/v5.0.2/contracts/access/AccessControl.sol\":3894:3923  return _roles[role].adminRole */\n      swap1\n      pop\n        /* \"https://raw.githubusercontent.com/OpenZeppelin/openzeppelin-contracts/v5.0.2/contracts/access/AccessControl.sol\":3810:3930  function getRoleAdmin(bytes32 role) public view virtual returns (bytes32) {... */\n      swap2\n      swap1\n      pop\n      jump\t// out\n        /* \"https://raw.githubusercontent.com/OpenZeppelin/openzeppelin-contracts/v5.0.2/contracts/access/AccessControl.sol\":4226:4362  function grantRole(bytes32 role, address account) public virtual onlyRole(getRoleAdmin(role)) {... */\n    tag_62:\n        /* \"https://raw.githubusercontent.com/OpenZeppelin/openzeppelin-contracts/v5.0.2/contracts/access/AccessControl.sol\":4300:4318  getRoleAdmin(role) */\n      tag_142\n        /* \"https://raw.githubusercontent.com/OpenZeppelin/openzeppelin-contracts/v5.0.2/contracts/access/AccessControl.sol\":4313:4317  role */\n      dup3\n        /* \"https://raw.githubusercontent.com/OpenZeppelin/openzeppelin-contracts/v5.0.2/contracts/access/AccessControl.sol\":4300:4312  getRoleAdmin */\n      tag_56\n        /* \"https://raw.githubusercontent.com/OpenZeppelin/openzeppelin-contracts/v5.0.2/contracts/access/AccessControl.sol\":4300:4318  getRoleAdmin(role) */\n      jump\t// in\n    tag_142:\n        /* \"https://raw.githubusercontent.com/OpenZeppelin/openzeppelin-contracts/v5.0.2/contracts/access/AccessControl.sol\":2464:2480  _checkRole(role) */\n      tag_144\n        /* \"https://raw.githubusercontent.com/OpenZeppelin/openzeppelin-contracts/v5.0.2/contracts/access/AccessControl.sol\":2475:2479  role */\n      dup2\n        /* \"https://raw.githubusercontent.com/OpenZeppelin/openzeppelin-contracts/v5.0.2/contracts/access/AccessControl.sol\":2464:2474  _checkRole */\n      tag_145\n        /* \"https://raw.githubusercontent.com/OpenZeppelin/openzeppelin-contracts/v5.0.2/contracts/access/AccessControl.sol\":2464:2480  _checkRole(role) */\n      jump\t// in\n    tag_144:\n        /* \"https://raw.githubusercontent.com/OpenZeppelin/openzeppelin-contracts/v5.0.2/contracts/access/AccessControl.sol\":4330:4355  _grantRole(role, account) */\n      tag_147\n        /* \"https://raw.githubusercontent.com/OpenZeppelin/openzeppelin-contracts/v5.0.2/contracts/access/AccessControl.sol\":4341:4345  role */\n      dup4\n        /* \"https://raw.githubusercontent.com/OpenZeppelin/openzeppelin-contracts/v5.0.2/contracts/access/AccessControl.sol\":4347:4354  account */\n      dup4\n        /* \"https://raw.githubusercontent.com/OpenZeppelin/openzeppelin-contracts/v5.0.2/contracts/access/AccessControl.sol\":4330:4340  _grantRole */\n      tag_148\n        /* \"https://raw.githubusercontent.com/OpenZeppelin/openzeppelin-contracts/v5.0.2/contracts/access/AccessControl.sol\":4330:4355  _grantRole(role, account) */\n      jump\t// in\n    tag_147:\n      pop\n        /* \"https://raw.githubusercontent.com/OpenZeppelin/openzeppelin-contracts/v5.0.2/contracts/access/AccessControl.sol\":4226:4362  function grantRole(bytes32 role, address account) public virtual onlyRole(getRoleAdmin(role)) {... */\n      pop\n      pop\n      pop\n      jump\t// out\n        /* \"https://raw.githubusercontent.com/OpenZeppelin/openzeppelin-contracts/v5.0.2/contracts/token/ERC20/ERC20.sol\":3002:3084  function decimals() public view virtual returns (uint8) {... */\n    tag_64:\n        /* \"https://raw.githubusercontent.com/OpenZeppelin/openzeppelin-contracts/v5.0.2/contracts/token/ERC20/ERC20.sol\":3051:3056  uint8 */\n      0x00\n        /* \"https://raw.githubusercontent.com/OpenZeppelin/openzeppelin-contracts/v5.0.2/contracts/token/ERC20/ERC20.sol\":3075:3077  18 */\n      0x12\n        /* \"https://raw.githubusercontent.com/OpenZeppelin/openzeppelin-contracts/v5.0.2/contracts/token/ERC20/ERC20.sol\":3068:3077  return 18 */\n      swap1\n      pop\n        /* \"https://raw.githubusercontent.com/OpenZeppelin/openzeppelin-contracts/v5.0.2/contracts/token/ERC20/ERC20.sol\":3002:3084  function decimals() public view virtual returns (uint8) {... */\n      swap1\n      jump\t// out\n        /* \"https://raw.githubusercontent.com/OpenZeppelin/openzeppelin-contracts/v5.0.2/contracts/access/AccessControl.sol\":5328:5573  function renounceRole(bytes32 role, address callerConfirmation) public virtual {... */\n    tag_69:\n        /* \"https://raw.githubusercontent.com/OpenZeppelin/openzeppelin-contracts/v5.0.2/contracts/access/AccessControl.sol\":5443:5455  _msgSender() */\n      tag_151\n        /* \"https://raw.githubusercontent.com/OpenZeppelin/openzeppelin-contracts/v5.0.2/contracts/access/AccessControl.sol\":5443:5453  _msgSender */\n      tag_131\n        /* \"https://raw.githubusercontent.com/OpenZeppelin/openzeppelin-contracts/v5.0.2/contracts/access/AccessControl.sol\":5443:5455  _msgSender() */\n      jump\t// in\n    tag_151:\n        /* \"https://raw.githubusercontent.com/OpenZeppelin/openzeppelin-contracts/v5.0.2/contracts/access/AccessControl.sol\":5421:5455  callerConfirmation != _msgSender() */\n      0xffffffffffffffffffffffffffffffffffffffff\n      and\n        /* \"https://raw.githubusercontent.com/OpenZeppelin/openzeppelin-contracts/v5.0.2/contracts/access/AccessControl.sol\":5421:5439  callerConfirmation */\n      dup2\n        /* \"https://raw.githubusercontent.com/OpenZeppelin/openzeppelin-contracts/v5.0.2/contracts/access/AccessControl.sol\":5421:5455  callerConfirmation != _msgSender() */\n      0xffffffffffffffffffffffffffffffffffffffff\n      and\n      eq\n        /* \"https://raw.githubusercontent.com/OpenZeppelin/openzeppelin-contracts/v5.0.2/contracts/access/AccessControl.sol\":5417:5519  if (callerConfirmation != _msgSender()) {... */\n      tag_152\n      jumpi\n        /* \"https://raw.githubusercontent.com/OpenZeppelin/openzeppelin-contracts/v5.0.2/contracts/access/AccessControl.sol\":5478:5508  AccessControlBadConfirmation() */\n      mload(0x40)\n      0x6697b23200000000000000000000000000000000000000000000000000000000\n      dup2\n      mstore\n      0x04\n      add\n      mload(0x40)\n      dup1\n      swap2\n      sub\n      swap1\n      revert\n        /* \"https://raw.githubusercontent.com/OpenZeppelin/openzeppelin-contracts/v5.0.2/contracts/access/AccessControl.sol\":5417:5519  if (callerConfirmation != _msgSender()) {... */\n    tag_152:\n        /* \"https://raw.githubusercontent.com/OpenZeppelin/openzeppelin-contracts/v5.0.2/contracts/access/AccessControl.sol\":5529:5566  _revokeRole(role, callerConfirmation) */\n      tag_153\n        /* \"https://raw.githubusercontent.com/OpenZeppelin/openzeppelin-contracts/v5.0.2/contracts/access/AccessControl.sol\":5541:5545  role */\n      dup3\n        /* \"https://raw.githubusercontent.com/OpenZeppelin/openzeppelin-contracts/v5.0.2/contracts/access/AccessControl.sol\":5547:5565  callerConfirmation */\n      dup3\n        /* \"https://raw.githubusercontent.com/OpenZeppelin/openzeppelin-contracts/v5.0.2/contracts/access/AccessControl.sol\":5529:5540  _revokeRole */\n      tag_154\n        /* \"https://raw.githubusercontent.com/OpenZeppelin/openzeppelin-contracts/v5.0.2/contracts/access/AccessControl.sol\":5529:5566  _revokeRole(role, callerConfirmation) */\n      jump\t// in\n    tag_153:\n      pop\n        /* \"https://raw.githubusercontent.com/OpenZeppelin/openzeppelin-contracts/v5.0.2/contracts/access/AccessControl.sol\":5328:5573  function renounceRole(bytes32 role, address callerConfirmation) public virtual {... */\n      pop\n      pop\n      jump\t// out\n        /* \"contracts/RwaToken.sol\":1142:1214  function unpause() external onlyRole(DEFAULT_ADMIN_ROLE) { _unpause(); } */\n    tag_71:\n        /* \"https://raw.githubusercontent.com/OpenZeppelin/openzeppelin-contracts/v5.0.2/contracts/access/AccessControl.sol\":2232:2236  0x00 */\n      0x00\n        /* \"contracts/RwaToken.sol\":1179:1197  DEFAULT_ADMIN_ROLE */\n      dup1\n      shl\n        /* \"https://raw.githubusercontent.com/OpenZeppelin/openzeppelin-contracts/v5.0.2/contracts/access/AccessControl.sol\":2464:2480  _checkRole(role) */\n      tag_156\n        /* \"https://raw.githubusercontent.com/OpenZeppelin/openzeppelin-contracts/v5.0.2/contracts/access/AccessControl.sol\":2475:2479  role */\n      dup2\n        /* \"https://raw.githubusercontent.com/OpenZeppelin/openzeppelin-contracts/v5.0.2/contracts/access/AccessControl.sol\":2464:2474  _checkRole */\n      tag_145\n        /* \"https://raw.githubusercontent.com/OpenZeppelin/openzeppelin-contracts/v5.0.2/contracts/access/AccessControl.sol\":2464:2480  _checkRole(role) */\n      jump\t// in\n    tag_156:\n        /* \"contracts/RwaToken.sol\":1201:1211  _unpause() */\n      tag_158\n        /* \"contracts/RwaToken.sol\":1201:1209  _unpause */\n      tag_159\n        /* \"contracts/RwaToken.sol\":1201:1211  _unpause() */\n      jump\t// in\n    tag_158:\n        /* \"contracts/RwaToken.sol\":1142:1214  function unpause() external onlyRole(DEFAULT_ADMIN_ROLE) { _unpause(); } */\n      pop\n      jump\t// out\n        /* \"contracts/RwaToken.sol\":1653:1841  function mint(address to, uint256 value) external onlyRole(ISSUER_ROLE) {... */\n    tag_74:\n        /* \"contracts/RwaToken.sol\":666:690  keccak256(\"ISSUER_ROLE\") */\n      0x114e74f6ea3bd819998f78687bfcb11b140da08e9b7d222fa9c1f1ba1f2aa122\n        /* \"https://raw.githubusercontent.com/OpenZeppelin/openzeppelin-contracts/v5.0.2/contracts/access/AccessControl.sol\":2464:2480  _checkRole(role) */\n      tag_161\n        /* \"https://raw.githubusercontent.com/OpenZeppelin/openzeppelin-contracts/v5.0.2/contracts/access/AccessControl.sol\":2475:2479  role */\n      dup2\n        /* \"https://raw.githubusercontent.com/OpenZeppelin/openzeppelin-contracts/v5.0.2/contracts/access/AccessControl.sol\":2464:2474  _checkRole */\n      tag_145\n        /* \"https://raw.githubusercontent.com/OpenZeppelin/openzeppelin-contracts/v5.0.2/contracts/access/AccessControl.sol\":2464:2480  _checkRole(role) */\n      jump\t// in\n    tag_161:\n        /* \"contracts/RwaToken.sol\":1735:1765  _update(address(0), to, value) */\n      tag_163\n        /* \"contracts/RwaToken.sol\":1751:1752  0 */\n      0x00\n        /* \"contracts/RwaToken.sol\":1755:1757  to */\n      dup5\n        /* \"contracts/RwaToken.sol\":1759:1764  value */\n      dup5\n        /* \"contracts/RwaToken.sol\":1735:1742  _update */\n      tag_164\n        /* \"contracts/RwaToken.sol\":1735:1765  _update(address(0), to, value) */\n      jump\t// in\n    tag_163:\n        /* \"contracts/RwaToken.sol\":1818:1834  _mint(to, value) */\n      tag_165\n        /* \"contracts/RwaToken.sol\":1824:1826  to */\n      dup4\n        /* \"contracts/RwaToken.sol\":1828:1833  value */\n      dup4\n        /* \"contracts/RwaToken.sol\":1818:1823  _mint */\n      tag_166\n        /* \"contracts/RwaToken.sol\":1818:1834  _mint(to, value) */\n      jump\t// in\n    tag_165:\n        /* \"contracts/RwaToken.sol\":1653:1841  function mint(address to, uint256 value) external onlyRole(ISSUER_ROLE) {... */\n      pop\n      pop\n      pop\n      jump\t// out\n        /* \"https://raw.githubusercontent.com/OpenZeppelin/openzeppelin-contracts/v5.0.2/contracts/utils/Pausable.sol\":1850:1934  function paused() public view virtual returns (bool) {... */\n    tag_76:\n        /* \"https://raw.githubusercontent.com/OpenZeppelin/openzeppelin-contracts/v5.0.2/contracts/utils/Pausable.sol\":1897:1901  bool */\n      0x00\n        /* \"https://raw.githubusercontent.com/OpenZeppelin/openzeppelin-contracts/v5.0.2/contracts/utils/Pausable.sol\":1920:1927  _paused */\n      0x06\n      0x00\n      swap1\n      sload\n      swap1\n      0x0100\n      exp\n      swap1\n      div\n      0xff\n      and\n        /* \"https://raw.githubusercontent.com/OpenZeppelin/openzeppelin-contracts/v5.0.2/contracts/utils/Pausable.sol\":1913:1927  return _paused */\n      swap1\n      pop\n        /* \"https://raw.githubusercontent.com/OpenZeppelin/openzeppelin-contracts/v5.0.2/contracts/utils/Pausable.sol\":1850:1934  function paused() public view virtual returns (bool) {... */\n      swap1\n      jump\t// out\n        /* \"contracts/RwaToken.sol\":696:725  ICompliance public compliance */\n    tag_79:\n      0x06\n      0x01\n      swap1\n      sload\n      swap1\n      0x0100\n      exp\n      swap1\n      div\n      0xffffffffffffffffffffffffffffffffffffffff\n      and\n      dup2\n      jump\t// out\n        /* \"https://raw.githubusercontent.com/OpenZeppelin/openzeppelin-contracts/v5.0.2/contracts/token/ERC20/ERC20.sol\":3299:3415  function balanceOf(address account) public view virtual returns (uint256) {... */\n    tag_85:\n        /* \"https://raw.githubusercontent.com/OpenZeppelin/openzeppelin-contracts/v5.0.2/contracts/token/ERC20/ERC20.sol\":3364:3371  uint256 */\n      0x00\n        /* \"https://raw.githubusercontent.com/OpenZeppelin/openzeppelin-contracts/v5.0.2/contracts/token/ERC20/ERC20.sol\":3390:3399  _balances */\n      dup1\n        /* \"https://raw.githubusercontent.com/OpenZeppelin/openzeppelin-contracts/v5.0.2/contracts/token/ERC20/ERC20.sol\":3390:3408  _balances[account] */\n      0x00\n        /* \"https://raw.githubusercontent.com/OpenZeppelin/openzeppelin-contracts/v5.0.2/contracts/token/ERC20/ERC20.sol\":3400:3407  account */\n      dup4\n        /* \"https://raw.githubusercontent.com/OpenZeppelin/openzeppelin-contracts/v5.0.2/contracts/token/ERC20/ERC20.sol\":3390:3408  _balances[account] */\n      0xffffffffffffffffffffffffffffffffffffffff\n      and\n      0xffffffffffffffffffffffffffffffffffffffff\n      and\n      dup2\n      mstore\n      0x20\n      add\n      swap1\n      dup2\n      mstore\n      0x20\n      add\n      0x00\n      keccak256\n      sload\n        /* \"https://raw.githubusercontent.com/OpenZeppelin/openzeppelin-contracts/v5.0.2/contracts/token/ERC20/ERC20.sol\":3383:3408  return _balances[account] */\n      swap1\n      pop\n        /* \"https://raw.githubusercontent.com/OpenZeppelin/openzeppelin-contracts/v5.0.2/contracts/token/ERC20/ERC20.sol\":3299:3415  function balanceOf(address account) public view virtual returns (uint256) {... */\n      swap2\n      swap1\n      pop\n      jump\t// out\n        /* \"contracts/RwaToken.sol\":628:690  bytes32 public constant ISSUER_ROLE = keccak256(\"ISSUER_ROLE\") */\n    tag_88:\n        /* \"contracts/RwaToken.sol\":666:690  keccak256(\"ISSUER_ROLE\") */\n      0x114e74f6ea3bd819998f78687bfcb11b140da08e9b7d222fa9c1f1ba1f2aa122\n        /* \"contracts/RwaToken.sol\":628:690  bytes32 public constant ISSUER_ROLE = keccak256(\"ISSUER_ROLE\") */\n      dup2\n      jump\t// out\n        /* \"contracts/RwaToken.sol\":1069:1137  function pause() external onlyRole(DEFAULT_ADMIN_ROLE) { _pause(); } */\n    tag_91:\n        /* \"https://raw.githubusercontent.com/OpenZeppelin/openzeppelin-contracts/v5.0.2/contracts/access/AccessControl.sol\":2232:2236  0x00 */\n      0x00\n        /* \"contracts/RwaToken.sol\":1104:1122  DEFAULT_ADMIN_ROLE */\n      dup1\n      shl\n        /* \"https://raw.githubusercontent.com/OpenZeppelin/openzeppelin-contracts/v5.0.2/contracts/access/AccessControl.sol\":2464:2480  _checkRole(role) */\n      tag_170\n        /* \"https://raw.githubusercontent.com/OpenZeppelin/openzeppelin-contracts/v5.0.2/contracts/access/AccessControl.sol\":2475:2479  role */\n      dup2\n        /* \"https://raw.githubusercontent.com/OpenZeppelin/openzeppelin-contracts/v5.0.2/contracts/access/AccessControl.sol\":2464:2474  _checkRole */\n      tag_145\n        /* \"https://raw.githubusercontent.com/OpenZeppelin/openzeppelin-contracts/v5.0.2/contracts/access/AccessControl.sol\":2464:2480  _checkRole(role) */\n      jump\t// in\n    tag_170:\n        /* \"contracts/RwaToken.sol\":1126:1134  _pause() */\n      tag_172\n        /* \"contracts/RwaToken.sol\":1126:1132  _pause */\n      tag_173\n        /* \"contracts/RwaToken.sol\":1126:1134  _pause() */\n      jump\t// in\n    tag_172:\n        /* \"contracts/RwaToken.sol\":1069:1137  function pause() external onlyRole(DEFAULT_ADMIN_ROLE) { _pause(); } */\n      pop\n      jump\t// out\n        /* \"contracts/RwaToken.sol\":1847:2072  function forceTransfer(address from, address to, uint256 value, string calldata reason)... */\n    tag_95:\n        /* \"contracts/RwaToken.sol\":666:690  keccak256(\"ISSUER_ROLE\") */\n      0x114e74f6ea3bd819998f78687bfcb11b140da08e9b7d222fa9c1f1ba1f2aa122\n        /* \"https://raw.githubusercontent.com/OpenZeppelin/openzeppelin-contracts/v5.0.2/contracts/access/AccessControl.sol\":2464:2480  _checkRole(role) */\n      tag_175\n        /* \"https://raw.githubusercontent.com/OpenZeppelin/openzeppelin-contracts/v5.0.2/contracts/access/AccessControl.sol\":2475:2479  role */\n      dup2\n        /* \"https://raw.githubusercontent.com/OpenZeppelin/openzeppelin-contracts/v5.0.2/contracts/access/AccessControl.sol\":2464:2474  _checkRole */\n      tag_145\n        /* \"https://raw.githubusercontent.com/OpenZeppelin/openzeppelin-contracts/v5.0.2/contracts/access/AccessControl.sol\":2464:2480  _checkRole(role) */\n      jump\t// in\n    tag_175:\n        /* \"contracts/RwaToken.sol\":1988:2012  _update(from, to, value) */\n      tag_177\n        /* \"contracts/RwaToken.sol\":1996:2000  from */\n      dup7\n        /* \"contracts/RwaToken.sol\":2002:2004  to */\n      dup7\n        /* \"contracts/RwaToken.sol\":2006:2011  value */\n      dup7\n        /* \"contracts/RwaToken.sol\":1988:1995  _update */\n      tag_164\n        /* \"contracts/RwaToken.sol\":1988:2012  _update(from, to, value) */\n      jump\t// in\n    tag_177:\n        /* \"contracts/RwaToken.sol\":2047:2049  to */\n      dup5\n        /* \"contracts/RwaToken.sol\":2027:2065  ForceTransfer(from, to, value, reason) */\n      0xffffffffffffffffffffffffffffffffffffffff\n      and\n        /* \"contracts/RwaToken.sol\":2041:2045  from */\n      dup7\n        /* \"contracts/RwaToken.sol\":2027:2065  ForceTransfer(from, to, value, reason) */\n      0xffffffffffffffffffffffffffffffffffffffff\n      and\n      0x2eaee783069d2f4cc557477a5af4ed6420985b57c0f64b600e0601415b580ba0\n        /* \"contracts/RwaToken.sol\":2051:2056  value */\n      dup7\n        /* \"contracts/RwaToken.sol\":2058:2064  reason */\n      dup7\n      dup7\n        /* \"contracts/RwaToken.sol\":2027:2065  ForceTransfer(from, to, value, reason) */\n      mload(0x40)\n      tag_178\n      swap4\n      swap3\n      swap2\n      swap1\n      tag_179\n      jump\t// in\n    tag_178:\n      mload(0x40)\n      dup1\n      swap2\n      sub\n      swap1\n      log3\n        /* \"contracts/RwaToken.sol\":1847:2072  function forceTransfer(address from, address to, uint256 value, string calldata reason)... */\n      pop\n      pop\n      pop\n      pop\n      pop\n      pop\n      jump\t// out\n        /* \"https://raw.githubusercontent.com/OpenZeppelin/openzeppelin-contracts/v5.0.2/contracts/access/AccessControl.sol\":2854:2990  function hasRole(bytes32 role, address account) public view virtual returns (bool) {... */\n    tag_98:\n        /* \"https://raw.githubusercontent.com/OpenZeppelin/openzeppelin-contracts/v5.0.2/contracts/access/AccessControl.sol\":2931:2935  bool */\n      0x00\n        /* \"https://raw.githubusercontent.com/OpenZeppelin/openzeppelin-contracts/v5.0.2/contracts/access/AccessControl.sol\":2954:2960  _roles */\n      0x05\n        /* \"https://raw.githubusercontent.com/OpenZeppelin/openzeppelin-contracts/v5.0.2/contracts/access/AccessControl.sol\":2954:2966  _roles[role] */\n      0x00\n        /* \"https://raw.githubusercontent.com/OpenZeppelin/openzeppelin-contracts/v5.0.2/contracts/access/AccessControl.sol\":2961:2965  role */\n      dup5\n        /* \"https://raw.githubusercontent.com/OpenZeppelin/openzeppelin-contracts/v5.0.2/contracts/access/AccessControl.sol\":2954:2966  _roles[role] */\n      dup2\n      mstore\n      0x20\n      add\n      swap1\n      dup2\n      mstore\n      0x20\n      add\n      0x00\n      keccak256\n        /* \"https://raw.githubusercontent.com/OpenZeppelin/openzeppelin-contracts/v5.0.2/contracts/access/AccessControl.sol\":2954:2974  _roles[role].hasRole */\n      0x00\n      add\n        /* \"https://raw.githubusercontent.com/OpenZeppelin/openzeppelin-contracts/v5.0.2/contracts/access/AccessControl.sol\":2954:2983  _roles[role].hasRole[account] */\n      0x00\n        /* \"https://raw.githubusercontent.com/OpenZeppelin/openzeppelin-contracts/v5.0.2/contracts/access/AccessControl.sol\":2975:2982  account */\n      dup4\n        /* \"https://raw.githubusercontent.com/OpenZeppelin/openzeppelin-contracts/v5.0.2/contracts/access/AccessControl.sol\":2954:2983  _roles[role].hasRole[account] */\n      0xffffffffffffffffffffffffffffffffffffffff\n      and\n      0xffffffffffffffffffffffffffffffffffffffff\n      and\n      dup2\n      mstore\n      0x20\n      add\n      swap1\n      dup2\n      mstore\n      0x20\n      add\n      0x00\n      keccak256\n      0x00\n      swap1\n      sload\n      swap1\n      0x0100\n      exp\n      swap1\n      div\n      0xff\n      and\n        /* \"https://raw.githubusercontent.com/OpenZeppelin/openzeppelin-contracts/v5.0.2/contracts/access/AccessControl.sol\":2947:2983  return _roles[role].hasRole[account] */\n      swap1\n      pop\n        /* \"https://raw.githubusercontent.com/OpenZeppelin/openzeppelin-contracts/v5.0.2/contracts/access/AccessControl.sol\":2854:2990  function hasRole(bytes32 role, address account) public view virtual returns (bool) {... */\n      swap3\n      swap2\n      pop\n      pop\n      jump\t// out\n        /* \"https://raw.githubusercontent.com/OpenZeppelin/openzeppelin-contracts/v5.0.2/contracts/token/ERC20/ERC20.sol\":2276:2369  function symbol() public view virtual returns (string memory) {... */\n    tag_101:\n        /* \"https://raw.githubusercontent.com/OpenZeppelin/openzeppelin-contracts/v5.0.2/contracts/token/ERC20/ERC20.sol\":2323:2336  string memory */\n      0x60\n        /* \"https://raw.githubusercontent.com/OpenZeppelin/openzeppelin-contracts/v5.0.2/contracts/token/ERC20/ERC20.sol\":2355:2362  _symbol */\n      0x04\n        /* \"https://raw.githubusercontent.com/OpenZeppelin/openzeppelin-contracts/v5.0.2/contracts/token/ERC20/ERC20.sol\":2348:2362  return _symbol */\n      dup1\n      sload\n      tag_182\n      swap1\n      tag_124\n      jump\t// in\n    tag_182:\n      dup1\n      0x1f\n      add\n      0x20\n      dup1\n      swap2\n      div\n      mul\n      0x20\n      add\n      mload(0x40)\n      swap1\n      dup2\n      add\n      0x40\n      mstore\n      dup1\n      swap3\n      swap2\n      swap1\n      dup2\n      dup2\n      mstore\n      0x20\n      add\n      dup3\n      dup1\n      sload\n      tag_183\n      swap1\n      tag_124\n      jump\t// in\n    tag_183:\n      dup1\n      iszero\n      tag_184\n      jumpi\n      dup1\n      0x1f\n      lt\n      tag_185\n      jumpi\n      0x0100\n      dup1\n      dup4\n      sload\n      div\n      mul\n      dup4\n      mstore\n      swap2\n      0x20\n      add\n      swap2\n      jump(tag_184)\n    tag_185:\n      dup3\n      add\n      swap2\n      swap1\n      0x00\n      mstore\n      keccak256(0x00, 0x20)\n      swap1\n    tag_186:\n      dup2\n      sload\n      dup2\n      mstore\n      swap1\n      0x01\n      add\n      swap1\n      0x20\n      add\n      dup1\n      dup4\n      gt\n      tag_186\n      jumpi\n      dup3\n      swap1\n      sub\n      0x1f\n      and\n      dup3\n      add\n      swap2\n    tag_184:\n      pop\n      pop\n      pop\n      pop\n      pop\n      swap1\n      pop\n        /* \"https://raw.githubusercontent.com/OpenZeppelin/openzeppelin-contracts/v5.0.2/contracts/token/ERC20/ERC20.sol\":2276:2369  function symbol() public view virtual returns (string memory) {... */\n      swap1\n      jump\t// out\n        /* \"https://raw.githubusercontent.com/OpenZeppelin/openzeppelin-contracts/v5.0.2/contracts/access/AccessControl.sol\":2187:2236  bytes32 public constant DEFAULT_ADMIN_ROLE = 0x00 */\n    tag_104:\n        /* \"https://raw.githubusercontent.com/OpenZeppelin/openzeppelin-contracts/v5.0.2/contracts/access/AccessControl.sol\":2232:2236  0x00 */\n      0x00\n        /* \"https://raw.githubusercontent.com/OpenZeppelin/openzeppelin-contracts/v5.0.2/contracts/access/AccessControl.sol\":2187:2236  bytes32 public constant DEFAULT_ADMIN_ROLE = 0x00 */\n      dup1\n      shl\n      dup2\n      jump\t// out\n        /* \"https://raw.githubusercontent.com/OpenZeppelin/openzeppelin-contracts/v5.0.2/contracts/token/ERC20/ERC20.sol\":3610:3788  function transfer(address to, uint256 value) public virtual returns (bool) {... */\n    tag_108:\n        /* \"https://raw.githubusercontent.com/OpenZeppelin/openzeppelin-contracts/v5.0.2/contracts/token/ERC20/ERC20.sol\":3679:3683  bool */\n      0x00\n        /* \"https://raw.githubusercontent.com/OpenZeppelin/openzeppelin-contracts/v5.0.2/contracts/token/ERC20/ERC20.sol\":3695:3708  address owner */\n      dup1\n        /* \"https://raw.githubusercontent.com/OpenZeppelin/openzeppelin-contracts/v5.0.2/contracts/token/ERC20/ERC20.sol\":3711:3723  _msgSender() */\n      tag_188\n        /* \"https://raw.githubusercontent.com/OpenZeppelin/openzeppelin-contracts/v5.0.2/contracts/token/ERC20/ERC20.sol\":3711:3721  _msgSender */\n      tag_131\n        /* \"https://raw.githubusercontent.com/OpenZeppelin/openzeppelin-contracts/v5.0.2/contracts/token/ERC20/ERC20.sol\":3711:3723  _msgSender() */\n      jump\t// in\n    tag_188:\n        /* \"https://raw.githubusercontent.com/OpenZeppelin/openzeppelin-contracts/v5.0.2/contracts/token/ERC20/ERC20.sol\":3695:3723  address owner = _msgSender() */\n      swap1\n      pop\n        /* \"https://raw.githubusercontent.com/OpenZeppelin/openzeppelin-contracts/v5.0.2/contracts/token/ERC20/ERC20.sol\":3733:3760  _transfer(owner, to, value) */\n      tag_189\n        /* \"https://raw.githubusercontent.com/OpenZeppelin/openzeppelin-contracts/v5.0.2/contracts/token/ERC20/ERC20.sol\":3743:3748  owner */\n      dup2\n        /* \"https://raw.githubusercontent.com/OpenZeppelin/openzeppelin-contracts/v5.0.2/contracts/token/ERC20/ERC20.sol\":3750:3752  to */\n      dup6\n        /* \"https://raw.githubusercontent.com/OpenZeppelin/openzeppelin-contracts/v5.0.2/contracts/token/ERC20/ERC20.sol\":3754:3759  value */\n      dup6\n        /* \"https://raw.githubusercontent.com/OpenZeppelin/openzeppelin-contracts/v5.0.2/contracts/token/ERC20/ERC20.sol\":3733:3742  _transfer */\n      tag_140\n        /* \"https://raw.githubusercontent.com/OpenZeppelin/openzeppelin-contracts/v5.0.2/contracts/token/ERC20/ERC20.sol\":3733:3760  _transfer(owner, to, value) */\n      jump\t// in\n    tag_189:\n        /* \"https://raw.githubusercontent.com/OpenZeppelin/openzeppelin-contracts/v5.0.2/contracts/token/ERC20/ERC20.sol\":3777:3781  true */\n      0x01\n        /* \"https://raw.githubusercontent.com/OpenZeppelin/openzeppelin-contracts/v5.0.2/contracts/token/ERC20/ERC20.sol\":3770:3781  return true */\n      swap2\n      pop\n      pop\n        /* \"https://raw.githubusercontent.com/OpenZeppelin/openzeppelin-contracts/v5.0.2/contracts/token/ERC20/ERC20.sol\":3610:3788  function transfer(address to, uint256 value) public virtual returns (bool) {... */\n      swap3\n      swap2\n      pop\n      pop\n      jump\t// out\n        /* \"https://raw.githubusercontent.com/OpenZeppelin/openzeppelin-contracts/v5.0.2/contracts/access/AccessControl.sol\":4642:4780  function revokeRole(bytes32 role, address account) public virtual onlyRole(getRoleAdmin(role)) {... */\n    tag_112:\n        /* \"https://raw.githubusercontent.com/OpenZeppelin/openzeppelin-contracts/v5.0.2/contracts/access/AccessControl.sol\":4717:4735  getRoleAdmin(role) */\n      tag_190\n        /* \"https://raw.githubusercontent.com/OpenZeppelin/openzeppelin-contracts/v5.0.2/contracts/access/AccessControl.sol\":4730:4734  role */\n      dup3\n        /* \"https://raw.githubusercontent.com/OpenZeppelin/openzeppelin-contracts/v5.0.2/contracts/access/AccessControl.sol\":4717:4729  getRoleAdmin */\n      tag_56\n        /* \"https://raw.githubusercontent.com/OpenZeppelin/openzeppelin-contracts/v5.0.2/contracts/access/AccessControl.sol\":4717:4735  getRoleAdmin(role) */\n      jump\t// in\n    tag_190:\n        /* \"https://raw.githubusercontent.com/OpenZeppelin/openzeppelin-contracts/v5.0.2/contracts/access/AccessControl.sol\":2464:2480  _checkRole(role) */\n      tag_192\n        /* \"https://raw.githubusercontent.com/OpenZeppelin/openzeppelin-contracts/v5.0.2/contracts/access/AccessControl.sol\":2475:2479  role */\n      dup2\n        /* \"https://raw.githubusercontent.com/OpenZeppelin/openzeppelin-contracts/v5.0.2/contracts/access/AccessControl.sol\":2464:2474  _checkRole */\n      tag_145\n        /* \"https://raw.githubusercontent.com/OpenZeppelin/openzeppelin-contracts/v5.0.2/contracts/access/AccessControl.sol\":2464:2480  _checkRole(role) */\n      jump\t// in\n    tag_192:\n        /* \"https://raw.githubusercontent.com/OpenZeppelin/openzeppelin-contracts/v5.0.2/contracts/access/AccessControl.sol\":4747:4773  _revokeRole(role, account) */\n      tag_194\n        /* \"https://raw.githubusercontent.com/OpenZeppelin/openzeppelin-contracts/v5.0.2/contracts/access/AccessControl.sol\":4759:4763  role */\n      dup4\n        /* \"https://raw.githubusercontent.com/OpenZeppelin/openzeppelin-contracts/v5.0.2/contracts/access/AccessControl.sol\":4765:4772  account */\n      dup4\n        /* \"https://raw.githubusercontent.com/OpenZeppelin/openzeppelin-contracts/v5.0.2/contracts/access/AccessControl.sol\":4747:4758  _revokeRole */\n      tag_154\n        /* \"https://raw.githubusercontent.com/OpenZeppelin/openzeppelin-contracts/v5.0.2/contracts/access/AccessControl.sol\":4747:4773  _revokeRole(role, account) */\n      jump\t// in\n    tag_194:\n      pop\n        /* \"https://raw.githubusercontent.com/OpenZeppelin/openzeppelin-contracts/v5.0.2/contracts/access/AccessControl.sol\":4642:4780  function revokeRole(bytes32 role, address account) public virtual onlyRole(getRoleAdmin(role)) {... */\n      pop\n      pop\n      pop\n      jump\t// out\n        /* \"https://raw.githubusercontent.com/OpenZeppelin/openzeppelin-contracts/v5.0.2/contracts/token/ERC20/ERC20.sol\":3846:3986  function allowance(address owner, address spender) public view virtual returns (uint256) {... */\n    tag_116:\n        /* \"https://raw.githubusercontent.com/OpenZeppelin/openzeppelin-contracts/v5.0.2/contracts/token/ERC20/ERC20.sol\":3926:3933  uint256 */\n      0x00\n        /* \"https://raw.githubusercontent.com/OpenZeppelin/openzeppelin-contracts/v5.0.2/contracts/token/ERC20/ERC20.sol\":3952:3963  _allowances */\n      0x01\n        /* \"https://raw.githubusercontent.com/OpenZeppelin/openzeppelin-contracts/v5.0.2/contracts/token/ERC20/ERC20.sol\":3952:3970  _allowances[owner] */\n      0x00\n        /* \"https://raw.githubusercontent.com/OpenZeppelin/openzeppelin-contracts/v5.0.2/contracts/token/ERC20/ERC20.sol\":3964:3969  owner */\n      dup5\n        /* \"https://raw.githubusercontent.com/OpenZeppelin/openzeppelin-contracts/v5.0.2/contracts/token/ERC20/ERC20.sol\":3952:3970  _allowances[owner] */\n      0xffffffffffffffffffffffffffffffffffffffff\n      and\n      0xffffffffffffffffffffffffffffffffffffffff\n      and\n      dup2\n      mstore\n      0x20\n      add\n      swap1\n      dup2\n      mstore\n      0x20\n      add\n      0x00\n      keccak256\n        /* \"https://raw.githubusercontent.com/OpenZeppelin/openzeppelin-contracts/v5.0.2/contracts/token/ERC20/ERC20.sol\":3952:3979  _allowances[owner][spender] */\n      0x00\n        /* \"https://raw.githubusercontent.com/OpenZeppelin/openzeppelin-contracts/v5.0.2/contracts/token/ERC20/ERC20.sol\":3971:3978  spender */\n      dup4\n        /* \"https://raw.githubusercontent.com/OpenZeppelin/openzeppelin-contracts/v5.0.2/contracts/token/ERC20/ERC20.sol\":3952:3979  _allowances[owner][spender] */\n      0xffffffffffffffffffffffffffffffffffffffff\n      and\n      0xffffffffffffffffffffffffffffffffffffffff\n      and\n      dup2\n      mstore\n      0x20\n      add\n      swap1\n      dup2\n      mstore\n      0x20\n      add\n      0x00\n      keccak256\n      sload\n        /* \"https://raw.githubusercontent.com/OpenZeppelin/openzeppelin-contracts/v5.0.2/contracts/token/ERC20/ERC20.sol\":3945:3979  return _allowances[owner][spender] */\n      swap1\n      pop\n        /* \"https://raw.githubusercontent.com/OpenZeppelin/openzeppelin-contracts/v5.0.2/contracts/token/ERC20/ERC20.sol\":3846:3986  function allowance(address owner, address spender) public view virtual returns (uint256) {... */\n      swap3\n      swap2\n      pop\n      pop\n      jump\t// out\n        /* \"https://raw.githubusercontent.com/OpenZeppelin/openzeppelin-contracts/v5.0.2/contracts/utils/introspection/ERC165.sol\":762:908  function supportsInterface(bytes4 interfaceId) public view virtual returns (bool) {... */\n    tag_121:\n        /* \"https://raw.githubusercontent.com/OpenZeppelin/openzeppelin-contracts/v5.0.2/contracts/utils/introspection/ERC165.sol\":838:842  bool */\n      0x00\n        /* \"https://raw.githubusercontent.com/OpenZeppelin/openzeppelin-contracts/v5.0.2/contracts/utils/introspection/ERC165.sol\":876:901  type(IERC165).interfaceId */\n      0x01ffc9a700000000000000000000000000000000000000000000000000000000\n        /* \"https://raw.githubusercontent.com/OpenZeppelin/openzeppelin-contracts/v5.0.2/contracts/utils/introspection/ERC165.sol\":861:901  interfaceId == type(IERC165).interfaceId */\n      not(0xffffffffffffffffffffffffffffffffffffffffffffffffffffffff)\n      and\n        /* \"https://raw.githubusercontent.com/OpenZeppelin/openzeppelin-contracts/v5.0.2/contracts/utils/introspection/ERC165.sol\":861:872  interfaceId */\n      dup3\n        /* \"https://raw.githubusercontent.com/OpenZeppelin/openzeppelin-contracts/v5.0.2/contracts/utils/introspection/ERC165.sol\":861:901  interfaceId == type(IERC165).interfaceId */\n      not(0xffffffffffffffffffffffffffffffffffffffffffffffffffffffff)\n      and\n      eq\n        /* \"https://raw.githubusercontent.com/OpenZeppelin/openzeppelin-contracts/v5.0.2/contracts/utils/introspection/ERC165.sol\":854:901  return interfaceId == type(IERC165).interfaceId */\n      swap1\n      pop\n        /* \"https://raw.githubusercontent.com/OpenZeppelin/openzeppelin-contracts/v5.0.2/contracts/utils/introspection/ERC165.sol\":762:908  function supportsInterface(bytes4 interfaceId) public view virtual returns (bool) {... */\n      swap2\n      swap1\n      pop\n      jump\t// out\n        /* \"https://raw.githubusercontent.com/OpenZeppelin/openzeppelin-contracts/v5.0.2/contracts/utils/Context.sol\":656:752  function _msgSender() internal view virtual returns (address) {... */\n    tag_131:\n        /* \"https://raw.githubusercontent.com/OpenZeppelin/openzeppelin-contracts/v5.0.2/contracts/utils/Context.sol\":709:716  address */\n      0x00\n        /* \"https://raw.githubusercontent.com/OpenZeppelin/openzeppelin-contracts/v5.0.2/contracts/utils/Context.sol\":735:745  msg.sender */\n      caller\n        /* \"https://raw.githubusercontent.com/OpenZeppelin/openzeppelin-contracts/v5.0.2/contracts/utils/Context.sol\":728:745  return msg.sender */\n      swap1\n      pop\n        /* \"https://raw.githubusercontent.com/OpenZeppelin/openzeppelin-contracts/v5.0.2/contracts/utils/Context.sol\":656:752  function _msgSender() internal view virtual returns (address) {... */\n      swap1\n      jump\t// out\n        /* \"https://raw.githubusercontent.com/OpenZeppelin/openzeppelin-contracts/v5.0.2/contracts/token/ERC20/ERC20.sol\":8989:9117  function _approve(address owner, address spender, uint256 value) internal {... */\n    tag_133:\n        /* \"https://raw.githubusercontent.com/OpenZeppelin/openzeppelin-contracts/v5.0.2/contracts/token/ERC20/ERC20.sol\":9073:9110  _approve(owner, spender, value, true) */\n      tag_199\n        /* \"https://raw.githubusercontent.com/OpenZeppelin/openzeppelin-contracts/v5.0.2/contracts/token/ERC20/ERC20.sol\":9082:9087  owner */\n      dup4\n        /* \"https://raw.githubusercontent.com/OpenZeppelin/openzeppelin-contracts/v5.0.2/contracts/token/ERC20/ERC20.sol\":9089:9096  spender */\n      dup4\n        /* \"https://raw.githubusercontent.com/OpenZeppelin/openzeppelin-contracts/v5.0.2/contracts/token/ERC20/ERC20.sol\":9098:9103  value */\n      dup4\n        /* \"https://raw.githubusercontent.com/OpenZeppelin/openzeppelin-contracts/v5.0.2/contracts/token/ERC20/ERC20.sol\":9105:9109  true */\n      0x01\n        /* \"https://raw.githubusercontent.com/OpenZeppelin/openzeppelin-contracts/v5.0.2/contracts/token/ERC20/ERC20.sol\":9073:9081  _approve */\n      tag_200\n        /* \"https://raw.githubusercontent.com/OpenZeppelin/openzeppelin-contracts/v5.0.2/contracts/token/ERC20/ERC20.sol\":9073:9110  _approve(owner, spender, value, true) */\n      jump\t// in\n    tag_199:\n        /* \"https://raw.githubusercontent.com/OpenZeppelin/openzeppelin-contracts/v5.0.2/contracts/token/ERC20/ERC20.sol\":8989:9117  function _approve(address owner, address spender, uint256 value) internal {... */\n      pop\n      pop\n      pop\n      jump\t// out\n        /* \"https://raw.githubusercontent.com/OpenZeppelin/openzeppelin-contracts/v5.0.2/contracts/token/ERC20/ERC20.sol\":10663:11140  function _spendAllowance(address owner, address spender, uint256 value) internal virtual {... */\n    tag_138:\n        /* \"https://raw.githubusercontent.com/OpenZeppelin/openzeppelin-contracts/v5.0.2/contracts/token/ERC20/ERC20.sol\":10762:10786  uint256 currentAllowance */\n      0x00\n        /* \"https://raw.githubusercontent.com/OpenZeppelin/openzeppelin-contracts/v5.0.2/contracts/token/ERC20/ERC20.sol\":10789:10814  allowance(owner, spender) */\n      tag_202\n        /* \"https://raw.githubusercontent.com/OpenZeppelin/openzeppelin-contracts/v5.0.2/contracts/token/ERC20/ERC20.sol\":10799:10804  owner */\n      dup5\n        /* \"https://raw.githubusercontent.com/OpenZeppelin/openzeppelin-contracts/v5.0.2/contracts/token/ERC20/ERC20.sol\":10806:10813  spender */\n      dup5\n        /* \"https://raw.githubusercontent.com/OpenZeppelin/openzeppelin-contracts/v5.0.2/contracts/token/ERC20/ERC20.sol\":10789:10798  allowance */\n      tag_116\n        /* \"https://raw.githubusercontent.com/OpenZeppelin/openzeppelin-contracts/v5.0.2/contracts/token/ERC20/ERC20.sol\":10789:10814  allowance(owner, spender) */\n      jump\t// in\n    tag_202:\n        /* \"https://raw.githubusercontent.com/OpenZeppelin/openzeppelin-contracts/v5.0.2/contracts/token/ERC20/ERC20.sol\":10762:10814  uint256 currentAllowance = allowance(owner, spender) */\n      swap1\n      pop\n        /* \"https://raw.githubusercontent.com/OpenZeppelin/openzeppelin-contracts/v5.0.2/contracts/token/ERC20/ERC20.sol\":10848:10865  type(uint256).max */\n      0xffffffffffffffffffffffffffffffffffffffffffffffffffffffffffffffff\n        /* \"https://raw.githubusercontent.com/OpenZeppelin/openzeppelin-contracts/v5.0.2/contracts/token/ERC20/ERC20.sol\":10828:10844  currentAllowance */\n      dup2\n        /* \"https://raw.githubusercontent.com/OpenZeppelin/openzeppelin-contracts/v5.0.2/contracts/token/ERC20/ERC20.sol\":10828:10865  currentAllowance != type(uint256).max */\n      eq\n        /* \"https://raw.githubusercontent.com/OpenZeppelin/openzeppelin-contracts/v5.0.2/contracts/token/ERC20/ERC20.sol\":10824:11134  if (currentAllowance != type(uint256).max) {... */\n      tag_203\n      jumpi\n        /* \"https://raw.githubusercontent.com/OpenZeppelin/openzeppelin-contracts/v5.0.2/contracts/token/ERC20/ERC20.sol\":10904:10909  value */\n      dup2\n        /* \"https://raw.githubusercontent.com/OpenZeppelin/openzeppelin-contracts/v5.0.2/contracts/token/ERC20/ERC20.sol\":10885:10901  currentAllowance */\n      dup2\n        /* \"https://raw.githubusercontent.com/OpenZeppelin/openzeppelin-contracts/v5.0.2/contracts/token/ERC20/ERC20.sol\":10885:10909  currentAllowance < value */\n      lt\n        /* \"https://raw.githubusercontent.com/OpenZeppelin/openzeppelin-contracts/v5.0.2/contracts/token/ERC20/ERC20.sol\":10881:11011  if (currentAllowance < value) {... */\n      iszero\n      tag_204\n      jumpi\n        /* \"https://raw.githubusercontent.com/OpenZeppelin/openzeppelin-contracts/v5.0.2/contracts/token/ERC20/ERC20.sol\":10963:10970  spender */\n      dup3\n        /* \"https://raw.githubusercontent.com/OpenZeppelin/openzeppelin-contracts/v5.0.2/contracts/token/ERC20/ERC20.sol\":10972:10988  currentAllowance */\n      dup2\n        /* \"https://raw.githubusercontent.com/OpenZeppelin/openzeppelin-contracts/v5.0.2/contracts/token/ERC20/ERC20.sol\":10990:10995  value */\n      dup4\n        /* \"https://raw.githubusercontent.com/OpenZeppelin/openzeppelin-contracts/v5.0.2/contracts/token/ERC20/ERC20.sol\":10936:10996  ERC20InsufficientAllowance(spender, currentAllowance, value) */\n      mload(0x40)\n      0xfb8f41b200000000000000000000000000000000000000000000000000000000\n      dup2\n      mstore\n      0x04\n      add\n      tag_205\n      swap4\n      swap3\n      swap2\n      swap1\n      tag_206\n      jump\t// in\n    tag_205:\n      mload(0x40)\n      dup1\n      swap2\n      sub\n      swap1\n      revert\n        /* \"https://raw.githubusercontent.com/OpenZeppelin/openzeppelin-contracts/v5.0.2/contracts/token/ERC20/ERC20.sol\":10881:11011  if (currentAllowance < value) {... */\n    tag_204:\n        /* \"https://raw.githubusercontent.com/OpenZeppelin/openzeppelin-contracts/v5.0.2/contracts/token/ERC20/ERC20.sol\":11052:11109  _approve(owner, spender, currentAllowance - value, false) */\n      tag_207\n        /* \"https://raw.githubusercontent.com/OpenZeppelin/openzeppelin-contracts/v5.0.2/contracts/token/ERC20/ERC20.sol\":11061:11066  owner */\n      dup5\n        /* \"https://raw.githubusercontent.com/OpenZeppelin/openzeppelin-contracts/v5.0.2/contracts/token/ERC20/ERC20.sol\":11068:11075  spender */\n      dup5\n        /* \"https://raw.githubusercontent.com/OpenZeppelin/openzeppelin-contracts/v5.0.2/contracts/token/ERC20/ERC20.sol\":11096:11101  value */\n      dup5\n        /* \"https://raw.githubusercontent.com/OpenZeppelin/openzeppelin-contracts/v5.0.2/contracts/token/ERC20/ERC20.sol\":11077:11093  currentAllowance */\n      dup5\n        /* \"https://raw.githubusercontent.com/OpenZeppelin/openzeppelin-contracts/v5.0.2/contracts/token/ERC20/ERC20.sol\":11077:11101  currentAllowance - value */\n      sub\n        /* \"https://raw.githubusercontent.com/OpenZeppelin/openzeppelin-contracts/v5.0.2/contracts/token/ERC20/ERC20.sol\":11103:11108  false */\n      0x00\n        /* \"https://raw.githubusercontent.com/OpenZeppelin/openzeppelin-contracts/v5.0.2/contracts/token/ERC20/ERC20.sol\":11052:11060  _approve */\n      tag_200\n        /* \"https://raw.githubusercontent.com/OpenZeppelin/openzeppelin-contracts/v5.0.2/contracts/token/ERC20/ERC20.sol\":11052:11109  _approve(owner, spender, currentAllowance - value, false) */\n      jump\t// in\n    tag_207:\n        /* \"https://raw.githubusercontent.com/OpenZeppelin/openzeppelin-contracts/v5.0.2/contracts/token/ERC20/ERC20.sol\":10824:11134  if (currentAllowance != type(uint256).max) {... */\n    tag_203:\n        /* \"https://raw.githubusercontent.com/OpenZeppelin/openzeppelin-contracts/v5.0.2/contracts/token/ERC20/ERC20.sol\":10752:11140  {... */\n      pop\n        /* \"https://raw.githubusercontent.com/OpenZeppelin/openzeppelin-contracts/v5.0.2/contracts/token/ERC20/ERC20.sol\":10663:11140  function _spendAllowance(address owner, address spender, uint256 value) internal virtual {... */\n      pop\n      pop\n      pop\n      jump\t// out\n        /* \"https://raw.githubusercontent.com/OpenZeppelin/openzeppelin-contracts/v5.0.2/contracts/token/ERC20/ERC20.sol\":5656:5956  function _transfer(address from, address to, uint256 value) internal {... */\n    tag_140:\n        /* \"https://raw.githubusercontent.com/OpenZeppelin/openzeppelin-contracts/v5.0.2/contracts/token/ERC20/ERC20.sol\":5755:5756  0 */\n      0x00\n        /* \"https://raw.githubusercontent.com/OpenZeppelin/openzeppelin-contracts/v5.0.2/contracts/token/ERC20/ERC20.sol\":5739:5757  from == address(0) */\n      0xffffffffffffffffffffffffffffffffffffffff\n      and\n        /* \"https://raw.githubusercontent.com/OpenZeppelin/openzeppelin-contracts/v5.0.2/contracts/token/ERC20/ERC20.sol\":5739:5743  from */\n      dup4\n        /* \"https://raw.githubusercontent.com/OpenZeppelin/openzeppelin-contracts/v5.0.2/contracts/token/ERC20/ERC20.sol\":5739:5757  from == address(0) */\n      0xffffffffffffffffffffffffffffffffffffffff\n      and\n      sub\n        /* \"https://raw.githubusercontent.com/OpenZeppelin/openzeppelin-contracts/v5.0.2/contracts/token/ERC20/ERC20.sol\":5735:5821  if (from == address(0)) {... */\n      tag_209\n      jumpi\n        /* \"https://raw.githubusercontent.com/OpenZeppelin/openzeppelin-contracts/v5.0.2/contracts/token/ERC20/ERC20.sol\":5807:5808  0 */\n      0x00\n        /* \"https://raw.githubusercontent.com/OpenZeppelin/openzeppelin-contracts/v5.0.2/contracts/token/ERC20/ERC20.sol\":5780:5810  ERC20InvalidSender(address(0)) */\n      mload(0x40)\n      0x96c6fd1e00000000000000000000000000000000000000000000000000000000\n      dup2\n      mstore\n      0x04\n      add\n      tag_210\n      swap2\n      swap1\n      tag_211\n      jump\t// in\n    tag_210:\n      mload(0x40)\n      dup1\n      swap2\n      sub\n      swap1\n      revert\n        /* \"https://raw.githubusercontent.com/OpenZeppelin/openzeppelin-contracts/v5.0.2/contracts/token/ERC20/ERC20.sol\":5735:5821  if (from == address(0)) {... */\n    tag_209:\n        /* \"https://raw.githubusercontent.com/OpenZeppelin/openzeppelin-contracts/v5.0.2/contracts/token/ERC20/ERC20.sol\":5848:5849  0 */\n      0x00\n        /* \"https://raw.githubusercontent.com/OpenZeppelin/openzeppelin-contracts/v5.0.2/contracts/token/ERC20/ERC20.sol\":5834:5850  to == address(0) */\n      0xffffffffffffffffffffffffffffffffffffffff\n      and\n        /* \"https://raw.githubusercontent.com/OpenZeppelin/openzeppelin-contracts/v5.0.2/contracts/token/ERC20/ERC20.sol\":5834:5836  to */\n      dup3\n        /* \"https://raw.githubusercontent.com/OpenZeppelin/openzeppelin-contracts/v5.0.2/contracts/token/ERC20/ERC20.sol\":5834:5850  to == address(0) */\n      0xffffffffffffffffffffffffffffffffffffffff\n      and\n      sub\n        /* \"https://raw.githubusercontent.com/OpenZeppelin/openzeppelin-contracts/v5.0.2/contracts/token/ERC20/ERC20.sol\":5830:5916  if (to == address(0)) {... */\n      tag_212\n      jumpi\n        /* \"https://raw.githubusercontent.com/OpenZeppelin/openzeppelin-contracts/v5.0.2/contracts/token/ERC20/ERC20.sol\":5902:5903  0 */\n      0x00\n        /* \"https://raw.githubusercontent.com/OpenZeppelin/openzeppelin-contracts/v5.0.2/contracts/token/ERC20/ERC20.sol\":5873:5905  ERC20InvalidReceiver(address(0)) */\n      mload(0x40)\n      0xec442f0500000000000000000000000000000000000000000000000000000000\n      dup2\n      mstore\n      0x04\n      add\n      tag_213\n      swap2\n      swap1\n      tag_211\n      jump\t// in\n    tag_213:\n      mload(0x40)\n      dup1\n      swap2\n      sub\n      swap1\n      revert\n        /* \"https://raw.githubusercontent.com/OpenZeppelin/openzeppelin-contracts/v5.0.2/contracts/token/ERC20/ERC20.sol\":5830:5916  if (to == address(0)) {... */\n    tag_212:\n        /* \"https://raw.githubusercontent.com/OpenZeppelin/openzeppelin-contracts/v5.0.2/contracts/token/ERC20/ERC20.sol\":5925:5949  _update(from, to, value) */\n      tag_214\n        /* \"https://raw.githubusercontent.com/OpenZeppelin/openzeppelin-contracts/v5.0.2/contracts/token/ERC20/ERC20.sol\":5933:5937  from */\n      dup4\n        /* \"https://raw.githubusercontent.com/OpenZeppelin/openzeppelin-contracts/v5.0.2/contracts/token/ERC20/ERC20.sol\":5939:5941  to */\n      dup4\n        /* \"https://raw.githubusercontent.com/OpenZeppelin/openzeppelin-contracts/v5.0.2/contracts/token/ERC20/ERC20.sol\":5943:5948  value */\n      dup4\n        /* \"https://raw.githubusercontent.com/OpenZeppelin/openzeppelin-contracts/v5.0.2/contracts/token/ERC20/ERC20.sol\":5925:5932  _update */\n      tag_164\n        /* \"https://raw.githubusercontent.com/OpenZeppelin/openzeppelin-contracts/v5.0.2/contracts/token/ERC20/ERC20.sol\":5925:5949  _update(from, to, value) */\n      jump\t// in\n    tag_214:\n        /* \"https://raw.githubusercontent.com/OpenZeppelin/openzeppelin-contracts/v5.0.2/contracts/token/ERC20/ERC20.sol\":5656:5956  function _transfer(address from, address to, uint256 value) internal {... */\n      pop\n      pop\n      pop\n      jump\t// out\n        /* \"https://raw.githubusercontent.com/OpenZeppelin/openzeppelin-contracts/v5.0.2/contracts/access/AccessControl.sol\":3199:3302  function _checkRole(bytes32 role) internal view virtual {... */\n    tag_145:\n        /* \"https://raw.githubusercontent.com/OpenZeppelin/openzeppelin-contracts/v5.0.2/contracts/access/AccessControl.sol\":3265:3295  _checkRole(role, _msgSender()) */\n      tag_216\n        /* \"https://raw.githubusercontent.com/OpenZeppelin/openzeppelin-contracts/v5.0.2/contracts/access/AccessControl.sol\":3276:3280  role */\n      dup2\n        /* \"https://raw.githubusercontent.com/OpenZeppelin/openzeppelin-contracts/v5.0.2/contracts/access/AccessControl.sol\":3282:3294  _msgSender() */\n      tag_217\n        /* \"https://raw.githubusercontent.com/OpenZeppelin/openzeppelin-contracts/v5.0.2/contracts/access/AccessControl.sol\":3282:3292  _msgSender */\n      tag_131\n        /* \"https://raw.githubusercontent.com/OpenZeppelin/openzeppelin-contracts/v5.0.2/contracts/access/AccessControl.sol\":3282:3294  _msgSender() */\n      jump\t// in\n    tag_217:\n        /* \"https://raw.githubusercontent.com/OpenZeppelin/openzeppelin-contracts/v5.0.2/contracts/access/AccessControl.sol\":3265:3275  _checkRole */\n      tag_218\n        /* \"https://raw.githubusercontent.com/OpenZeppelin/openzeppelin-contracts/v5.0.2/contracts/access/AccessControl.sol\":3265:3295  _checkRole(role, _msgSender()) */\n      jump\t// in\n    tag_216:\n        /* \"https://raw.githubusercontent.com/OpenZeppelin/openzeppelin-contracts/v5.0.2/contracts/access/AccessControl.sol\":3199:3302  function _checkRole(bytes32 role) internal view virtual {... */\n      pop\n      jump\t// out\n        /* \"https://raw.githubusercontent.com/OpenZeppelin/openzeppelin-contracts/v5.0.2/contracts/access/AccessControl.sol\":6179:6495  function _grantRole(bytes32 role, address account) internal virtual returns (bool) {... */\n    tag_148:\n        /* \"https://raw.githubusercontent.com/OpenZeppelin/openzeppelin-contracts/v5.0.2/contracts/access/AccessControl.sol\":6256:6260  bool */\n      0x00\n        /* \"https://raw.githubusercontent.com/OpenZeppelin/openzeppelin-contracts/v5.0.2/contracts/access/AccessControl.sol\":6277:6299  hasRole(role, account) */\n      tag_220\n        /* \"https://raw.githubusercontent.com/OpenZeppelin/openzeppelin-contracts/v5.0.2/contracts/access/AccessControl.sol\":6285:6289  role */\n      dup4\n        /* \"https://raw.githubusercontent.com/OpenZeppelin/openzeppelin-contracts/v5.0.2/contracts/access/AccessControl.sol\":6291:6298  account */\n      dup4\n        /* \"https://raw.githubusercontent.com/OpenZeppelin/openzeppelin-contracts/v5.0.2/contracts/access/AccessControl.sol\":6277:6284  hasRole */\n      tag_98\n        /* \"https://raw.githubusercontent.com/OpenZeppelin/openzeppelin-contracts/v5.0.2/contracts/access/AccessControl.sol\":6277:6299  hasRole(role, account) */\n      jump\t// in\n    tag_220:\n        /* \"https://raw.githubusercontent.com/OpenZeppelin/openzeppelin-contracts/v5.0.2/contracts/access/AccessControl.sol\":6272:6489  if (!hasRole(role, account)) {... */\n      tag_221\n      jumpi\n        /* \"https://raw.githubusercontent.com/OpenZeppelin/openzeppelin-contracts/v5.0.2/contracts/access/AccessControl.sol\":6347:6351  true */\n      0x01\n        /* \"https://raw.githubusercontent.com/OpenZeppelin/openzeppelin-contracts/v5.0.2/contracts/access/AccessControl.sol\":6315:6321  _roles */\n      0x05\n        /* \"https://raw.githubusercontent.com/OpenZeppelin/openzeppelin-contracts/v5.0.2/contracts/access/AccessControl.sol\":6315:6327  _roles[role] */\n      0x00\n        /* \"https://raw.githubusercontent.com/OpenZeppelin/openzeppelin-contracts/v5.0.2/contracts/access/AccessControl.sol\":6322:6326  role */\n      dup6\n        /* \"https://raw.githubusercontent.com/OpenZeppelin/openzeppelin-contracts/v5.0.2/contracts/access/AccessControl.sol\":6315:6327  _roles[role] */\n      dup2\n      mstore\n      0x20\n      add\n      swap1\n      dup2\n      mstore\n      0x20\n      add\n      0x00\n      keccak256\n        /* \"https://raw.githubusercontent.com/OpenZeppelin/openzeppelin-contracts/v5.0.2/contracts/access/AccessControl.sol\":6315:6335  _roles[role].hasRole */\n      0x00\n      add\n        /* \"https://raw.githubusercontent.com/OpenZeppelin/openzeppelin-contracts/v5.0.2/contracts/access/AccessControl.sol\":6315:6344  _roles[role].hasRole[account] */\n      0x00\n        /* \"https://raw.githubusercontent.com/OpenZeppelin/openzeppelin-contracts/v5.0.2/contracts/access/AccessControl.sol\":6336:6343  account */\n      dup5\n        /* \"https://raw.githubusercontent.com/OpenZeppelin/openzeppelin-contracts/v5.0.2/contracts/access/AccessControl.sol\":6315:6344  _roles[role].hasRole[account] */\n      0xffffffffffffffffffffffffffffffffffffffff\n      and\n      0xffffffffffffffffffffffffffffffffffffffff\n      and\n      dup2\n      mstore\n      0x20\n      add\n      swap1\n      dup2\n      mstore\n      0x20\n      add\n      0x00\n      keccak256\n      0x00\n        /* \"https://raw.githubusercontent.com/OpenZeppelin/openzeppelin-contracts/v5.0.2/contracts/access/AccessControl.sol\":6315:6351  _roles[role].hasRole[account] = true */\n      0x0100\n      exp\n      dup2\n      sload\n      dup2\n      0xff\n      mul\n      not\n      and\n      swap1\n      dup4\n      iszero\n      iszero\n      mul\n      or\n      swap1\n      sstore\n      pop\n        /* \"https://raw.githubusercontent.com/OpenZeppelin/openzeppelin-contracts/v5.0.2/contracts/access/AccessControl.sol\":6397:6409  _msgSender() */\n      tag_222\n        /* \"https://raw.githubusercontent.com/OpenZeppelin/openzeppelin-contracts/v5.0.2/contracts/access/AccessControl.sol\":6397:6407  _msgSender */\n      tag_131\n        /* \"https://raw.githubusercontent.com/OpenZeppelin/openzeppelin-contracts/v5.0.2/contracts/access/AccessControl.sol\":6397:6409  _msgSender() */\n      jump\t// in\n    tag_222:\n        /* \"https://raw.githubusercontent.com/OpenZeppelin/openzeppelin-contracts/v5.0.2/contracts/access/AccessControl.sol\":6370:6410  RoleGranted(role, account, _msgSender()) */\n      0xffffffffffffffffffffffffffffffffffffffff\n      and\n        /* \"https://raw.githubusercontent.com/OpenZeppelin/openzeppelin-contracts/v5.0.2/contracts/access/AccessControl.sol\":6388:6395  account */\n      dup3\n        /* \"https://raw.githubusercontent.com/OpenZeppelin/openzeppelin-contracts/v5.0.2/contracts/access/AccessControl.sol\":6370:6410  RoleGranted(role, account, _msgSender()) */\n      0xffffffffffffffffffffffffffffffffffffffff\n      and\n        /* \"https://raw.githubusercontent.com/OpenZeppelin/openzeppelin-contracts/v5.0.2/contracts/access/AccessControl.sol\":6382:6386  role */\n      dup5\n        /* \"https://raw.githubusercontent.com/OpenZeppelin/openzeppelin-contracts/v5.0.2/contracts/access/AccessControl.sol\":6370:6410  RoleGranted(role, account, _msgSender()) */\n      0x2f8788117e7eff1d82e926ec794901d17c78024a50270940304540a733656f0d\n      mload(0x40)\n      mload(0x40)\n      dup1\n      swap2\n      sub\n      swap1\n      log4\n        /* \"https://raw.githubusercontent.com/OpenZeppelin/openzeppelin-contracts/v5.0.2/contracts/access/AccessControl.sol\":6431:6435  true */\n      0x01\n        /* \"https://raw.githubusercontent.com/OpenZeppelin/openzeppelin-contracts/v5.0.2/contracts/access/AccessControl.sol\":6424:6435  return true */\n      swap1\n      pop\n      jump(tag_219)\n        /* \"https://raw.githubusercontent.com/OpenZeppelin/openzeppelin-contracts/v5.0.2/contracts/access/AccessControl.sol\":6272:6489  if (!hasRole(role, account)) {... */\n    tag_221:\n        /* \"https://raw.githubusercontent.com/OpenZeppelin/openzeppelin-contracts/v5.0.2/contracts/access/AccessControl.sol\":6473:6478  false */\n      0x00\n        /* \"https://raw.githubusercontent.com/OpenZeppelin/openzeppelin-contracts/v5.0.2/contracts/access/AccessControl.sol\":6466:6478  return false */\n      swap1\n      pop\n        /* \"https://raw.githubusercontent.com/OpenZeppelin/openzeppelin-contracts/v5.0.2/contracts/access/AccessControl.sol\":6179:6495  function _grantRole(bytes32 role, address account) internal virtual returns (bool) {... */\n    tag_219:\n      swap3\n      swap2\n      pop\n      pop\n      jump\t// out\n        /* \"https://raw.githubusercontent.com/OpenZeppelin/openzeppelin-contracts/v5.0.2/contracts/access/AccessControl.sol\":6730:7047  function _revokeRole(bytes32 role, address account) internal virtual returns (bool) {... */\n    tag_154:\n        /* \"https://raw.githubusercontent.com/OpenZeppelin/openzeppelin-contracts/v5.0.2/contracts/access/AccessControl.sol\":6808:6812  bool */\n      0x00\n        /* \"https://raw.githubusercontent.com/OpenZeppelin/openzeppelin-contracts/v5.0.2/contracts/access/AccessControl.sol\":6828:6850  hasRole(role, account) */\n      tag_225\n        /* \"https://raw.githubusercontent.com/OpenZeppelin/openzeppelin-contracts/v5.0.2/contracts/access/AccessControl.sol\":6836:6840  role */\n      dup4\n        /* \"https://raw.githubusercontent.com/OpenZeppelin/openzeppelin-contracts/v5.0.2/contracts/access/AccessControl.sol\":6842:6849  account */\n      dup4\n        /* \"https://raw.githubusercontent.com/OpenZeppelin/openzeppelin-contracts/v5.0.2/contracts/access/AccessControl.sol\":6828:6835  hasRole */\n      tag_98\n        /* \"https://raw.githubusercontent.com/OpenZeppelin/openzeppelin-contracts/v5.0.2/contracts/access/AccessControl.sol\":6828:6850  hasRole(role, account) */\n      jump\t// in\n    tag_225:\n        /* \"https://raw.githubusercontent.com/OpenZeppelin/openzeppelin-contracts/v5.0.2/contracts/access/AccessControl.sol\":6824:7041  if (hasRole(role, account)) {... */\n      iszero\n      tag_226\n      jumpi\n        /* \"https://raw.githubusercontent.com/OpenZeppelin/openzeppelin-contracts/v5.0.2/contracts/access/AccessControl.sol\":6898:6903  false */\n      0x00\n        /* \"https://raw.githubusercontent.com/OpenZeppelin/openzeppelin-contracts/v5.0.2/contracts/access/AccessControl.sol\":6866:6872  _roles */\n      0x05\n        /* \"https://raw.githubusercontent.com/OpenZeppelin/openzeppelin-contracts/v5.0.2/contracts/access/AccessControl.sol\":6866:6878  _roles[role] */\n      0x00\n        /* \"https://raw.githubusercontent.com/OpenZeppelin/openzeppelin-contracts/v5.0.2/contracts/access/AccessControl.sol\":6873:6877  role */\n      dup6\n        /* \"https://raw.githubusercontent.com/OpenZeppelin/openzeppelin-contracts/v5.0.2/contracts/access/AccessControl.sol\":6866:6878  _roles[role] */\n      dup2\n      mstore\n      0x20\n      add\n      swap1\n      dup2\n      mstore\n      0x20\n      add\n      0x00\n      keccak256\n        /* \"https://raw.githubusercontent.com/OpenZeppelin/openzeppelin-contracts/v5.0.2/contracts/access/AccessControl.sol\":6866:6886  _roles[role].hasRole */\n      0x00\n      add\n        /* \"https://raw.githubusercontent.com/OpenZeppelin/openzeppelin-contracts/v5.0.2/contracts/access/AccessControl.sol\":6866:6895  _roles[role].hasRole[account] */\n      0x00\n        /* \"https://raw.githubusercontent.com/OpenZeppelin/openzeppelin-contracts/v5.0.2/contracts/access/AccessControl.sol\":6887:6894  account */\n      dup5\n        /* \"https://raw.githubusercontent.com/OpenZeppelin/openzeppelin-contracts/v5.0.2/contracts/access/AccessControl.sol\":6866:6895  _roles[role].hasRole[account] */\n      0xffffffffffffffffffffffffffffffffffffffff\n      and\n      0xffffffffffffffffffffffffffffffffffffffff\n      and\n      dup2\n      mstore\n      0x20\n      add\n      swap1\n      dup2\n      mstore\n      0x20\n      add\n      0x00\n      keccak256\n      0x00\n        /* \"https://raw.githubusercontent.com/OpenZeppelin/openzeppelin-contracts/v5.0.2/contracts/access/AccessControl.sol\":6866:6903  _roles[role].hasRole[account] = false */\n      0x0100\n      exp\n      dup2\n      sload\n      dup2\n      0xff\n      mul\n      not\n      and\n      swap1\n      dup4\n      iszero\n      iszero\n      mul\n      or\n      swap1\n      sstore\n      pop\n        /* \"https://raw.githubusercontent.com/OpenZeppelin/openzeppelin-contracts/v5.0.2/contracts/access/AccessControl.sol\":6949:6961  _msgSender() */\n      tag_227\n        /* \"https://raw.githubusercontent.com/OpenZeppelin/openzeppelin-contracts/v5.0.2/contracts/access/AccessControl.sol\":6949:6959  _msgSender */\n      tag_131\n        /* \"https://raw.githubusercontent.com/OpenZeppelin/openzeppelin-contracts/v5.0.2/contracts/access/AccessControl.sol\":6949:6961  _msgSender() */\n      jump\t// in\n    tag_227:\n        /* \"https://raw.githubusercontent.com/OpenZeppelin/openzeppelin-contracts/v5.0.2/contracts/access/AccessControl.sol\":6922:6962  RoleRevoked(role, account, _msgSender()) */\n      0xffffffffffffffffffffffffffffffffffffffff\n      and\n        /* \"https://raw.githubusercontent.com/OpenZeppelin/openzeppelin-contracts/v5.0.2/contracts/access/AccessControl.sol\":6940:6947  account */\n      dup3\n        /* \"https://raw.githubusercontent.com/OpenZeppelin/openzeppelin-contracts/v5.0.2/contracts/access/AccessControl.sol\":6922:6962  RoleRevoked(role, account, _msgSender()) */\n      0xffffffffffffffffffffffffffffffffffffffff\n      and\n        /* \"https://raw.githubusercontent.com/OpenZeppelin/openzeppelin-contracts/v5.0.2/contracts/access/AccessControl.sol\":6934:6938  role */\n      dup5\n        /* \"https://raw.githubusercontent.com/OpenZeppelin/openzeppelin-contracts/v5.0.2/contracts/access/AccessControl.sol\":6922:6962  RoleRevoked(role, account, _msgSender()) */\n      0xf6391f5c32d9c69d2a47ea670b442974b53935d1edc7fd64eb21e047a839171b\n      mload(0x40)\n      mload(0x40)\n      dup1\n      swap2\n      sub\n      swap1\n      log4\n        /* \"https://raw.githubusercontent.com/OpenZeppelin/openzeppelin-contracts/v5.0.2/contracts/access/AccessControl.sol\":6983:6987  true */\n      0x01\n        /* \"https://raw.githubusercontent.com/OpenZeppelin/openzeppelin-contracts/v5.0.2/contracts/access/AccessControl.sol\":6976:6987  return true */\n      swap1\n      pop\n      jump(tag_224)\n        /* \"https://raw.githubusercontent.com/OpenZeppelin/openzeppelin-contracts/v5.0.2/contracts/access/AccessControl.sol\":6824:7041  if (hasRole(role, account)) {... */\n    tag_226:\n        /* \"https://raw.githubusercontent.com/OpenZeppelin/openzeppelin-contracts/v5.0.2/contracts/access/AccessControl.sol\":7025:7030  false */\n      0x00\n        /* \"https://raw.githubusercontent.com/OpenZeppelin/openzeppelin-contracts/v5.0.2/contracts/access/AccessControl.sol\":7018:7030  return false */\n      swap1\n      pop\n        /* \"https://raw.githubusercontent.com/OpenZeppelin/openzeppelin-contracts/v5.0.2/contracts/access/AccessControl.sol\":6730:7047  function _revokeRole(bytes32 role, address account) internal virtual returns (bool) {... */\n    tag_224:\n      swap3\n      swap2\n      pop\n      pop\n      jump\t// out\n        /* \"https://raw.githubusercontent.com/OpenZeppelin/openzeppelin-contracts/v5.0.2/contracts/utils/Pausable.sol\":2710:2827  function _unpause() internal virtual whenPaused {... */\n    tag_159:\n        /* \"https://raw.githubusercontent.com/OpenZeppelin/openzeppelin-contracts/v5.0.2/contracts/utils/Pausable.sol\":1721:1737  _requirePaused() */\n      tag_230\n        /* \"https://raw.githubusercontent.com/OpenZeppelin/openzeppelin-contracts/v5.0.2/contracts/utils/Pausable.sol\":1721:1735  _requirePaused */\n      tag_231\n        /* \"https://raw.githubusercontent.com/OpenZeppelin/openzeppelin-contracts/v5.0.2/contracts/utils/Pausable.sol\":1721:1737  _requirePaused() */\n      jump\t// in\n    tag_230:\n        /* \"https://raw.githubusercontent.com/OpenZeppelin/openzeppelin-contracts/v5.0.2/contracts/utils/Pausable.sol\":2778:2783  false */\n      0x00\n        /* \"https://raw.githubusercontent.com/OpenZeppelin/openzeppelin-contracts/v5.0.2/contracts/utils/Pausable.sol\":2768:2775  _paused */\n      0x06\n      0x00\n        /* \"https://raw.githubusercontent.com/OpenZeppelin/openzeppelin-contracts/v5.0.2/contracts/utils/Pausable.sol\":2768:2783  _paused = false */\n      0x0100\n      exp\n      dup2\n      sload\n      dup2\n      0xff\n      mul\n      not\n      and\n      swap1\n      dup4\n      iszero\n      iszero\n      mul\n      or\n      swap1\n      sstore\n      pop\n        /* \"https://raw.githubusercontent.com/OpenZeppelin/openzeppelin-contracts/v5.0.2/contracts/utils/Pausable.sol\":2798:2820  Unpaused(_msgSender()) */\n      0x5db9ee0a495bf2e6ff9c91a7834c1ba4fdd244a5e8aa4e537bd38aeae4b073aa\n        /* \"https://raw.githubusercontent.com/OpenZeppelin/openzeppelin-contracts/v5.0.2/contracts/utils/Pausable.sol\":2807:2819  _msgSender() */\n      tag_233\n        /* \"https://raw.githubusercontent.com/OpenZeppelin/openzeppelin-contracts/v5.0.2/contracts/utils/Pausable.sol\":2807:2817  _msgSender */\n      tag_131\n        /* \"https://raw.githubusercontent.com/OpenZeppelin/openzeppelin-contracts/v5.0.2/contracts/utils/Pausable.sol\":2807:2819  _msgSender() */\n      jump\t// in\n    tag_233:\n        /* \"https://raw.githubusercontent.com/OpenZeppelin/openzeppelin-contracts/v5.0.2/contracts/utils/Pausable.sol\":2798:2820  Unpaused(_msgSender()) */\n      mload(0x40)\n      tag_234\n      swap2\n      swap1\n      tag_211\n      jump\t// in\n    tag_234:\n      mload(0x40)\n      dup1\n      swap2\n      sub\n      swap1\n      log1\n        /* \"https://raw.githubusercontent.com/OpenZeppelin/openzeppelin-contracts/v5.0.2/contracts/utils/Pausable.sol\":2710:2827  function _unpause() internal virtual whenPaused {... */\n      jump\t// out\n        /* \"contracts/RwaToken.sol\":1220:1618  function _update(address from, address to, uint256 value) internal override {... */\n    tag_164:\n        /* \"contracts/RwaToken.sol\":1315:1323  paused() */\n      tag_236\n        /* \"contracts/RwaToken.sol\":1315:1321  paused */\n      tag_76\n        /* \"contracts/RwaToken.sol\":1315:1323  paused() */\n      jump\t// in\n    tag_236:\n        /* \"contracts/RwaToken.sol\":1314:1323  !paused() */\n      iszero\n        /* \"contracts/RwaToken.sol\":1306:1334  require(!paused(), \"paused\") */\n      tag_237\n      jumpi\n      mload(0x40)\n      0x08c379a000000000000000000000000000000000000000000000000000000000\n      dup2\n      mstore\n      0x04\n      add\n      tag_238\n      swap1\n      tag_239\n      jump\t// in\n    tag_238:\n      mload(0x40)\n      dup1\n      swap2\n      sub\n      swap1\n      revert\n    tag_237:\n        /* \"contracts/RwaToken.sol\":1364:1365  0 */\n      0x00\n        /* \"contracts/RwaToken.sol\":1348:1366  from != address(0) */\n      0xffffffffffffffffffffffffffffffffffffffff\n      and\n        /* \"contracts/RwaToken.sol\":1348:1352  from */\n      dup4\n        /* \"contracts/RwaToken.sol\":1348:1366  from != address(0) */\n      0xffffffffffffffffffffffffffffffffffffffff\n      and\n      eq\n      iszero\n        /* \"contracts/RwaToken.sol\":1348:1386  from != address(0) || to != address(0) */\n      dup1\n      tag_240\n      jumpi\n      pop\n        /* \"contracts/RwaToken.sol\":1384:1385  0 */\n      0x00\n        /* \"contracts/RwaToken.sol\":1370:1386  to != address(0) */\n      0xffffffffffffffffffffffffffffffffffffffff\n      and\n        /* \"contracts/RwaToken.sol\":1370:1372  to */\n      dup3\n        /* \"contracts/RwaToken.sol\":1370:1386  to != address(0) */\n      0xffffffffffffffffffffffffffffffffffffffff\n      and\n      eq\n      iszero\n        /* \"contracts/RwaToken.sol\":1348:1386  from != address(0) || to != address(0) */\n    tag_240:\n        /* \"contracts/RwaToken.sol\":1344:1572  if (from != address(0) || to != address(0)) {... */\n      iszero\n      tag_241\n      jumpi\n        /* \"contracts/RwaToken.sol\":1403:1410  bool ok */\n      0x00\n        /* \"contracts/RwaToken.sol\":1412:1426  uint256 reason */\n      dup1\n        /* \"contracts/RwaToken.sol\":1430:1440  compliance */\n      0x06\n      0x01\n      swap1\n      sload\n      swap1\n      0x0100\n      exp\n      swap1\n      div\n      0xffffffffffffffffffffffffffffffffffffffff\n      and\n        /* \"contracts/RwaToken.sol\":1430:1452  compliance.canTransfer */\n      0xffffffffffffffffffffffffffffffffffffffff\n      and\n      0x9d6232fa\n        /* \"contracts/RwaToken.sol\":1453:1457  from */\n      dup7\n        /* \"contracts/RwaToken.sol\":1459:1461  to */\n      dup7\n        /* \"contracts/RwaToken.sol\":1463:1468  value */\n      dup7\n        /* \"contracts/RwaToken.sol\":1430:1473  compliance.canTransfer(from, to, value, \"\") */\n      mload(0x40)\n      dup5\n      0xffffffff\n      and\n      0xe0\n      shl\n      dup2\n      mstore\n      0x04\n      add\n      tag_242\n      swap4\n      swap3\n      swap2\n      swap1\n      tag_243\n      jump\t// in\n    tag_242:\n      0x40\n      dup1\n      mload\n      dup1\n      dup4\n      sub\n      dup2\n      dup7\n      gas\n      staticcall\n      iszero\n      dup1\n      iszero\n      tag_245\n      jumpi\n      returndatasize\n      0x00\n      dup1\n      returndatacopy\n      revert(0x00, returndatasize)\n    tag_245:\n      pop\n      pop\n      pop\n      pop\n      mload(0x40)\n      returndatasize\n      not(0x1f)\n      0x1f\n      dup3\n      add\n      and\n      dup3\n      add\n      dup1\n      0x40\n      mstore\n      pop\n      dup2\n      add\n      swap1\n      tag_246\n      swap2\n      swap1\n      tag_247\n      jump\t// in\n    tag_246:\n        /* \"contracts/RwaToken.sol\":1402:1473  (bool ok, uint256 reason) = compliance.canTransfer(from, to, value, \"\") */\n      swap2\n      pop\n      swap2\n      pop\n        /* \"contracts/RwaToken.sol\":1495:1497  ok */\n      dup2\n        /* \"contracts/RwaToken.sol\":1544:1558  _toStr(reason) */\n      tag_248\n        /* \"contracts/RwaToken.sol\":1551:1557  reason */\n      dup3\n        /* \"contracts/RwaToken.sol\":1544:1550  _toStr */\n      tag_249\n        /* \"contracts/RwaToken.sol\":1544:1558  _toStr(reason) */\n      jump\t// in\n    tag_248:\n        /* \"contracts/RwaToken.sol\":1506:1559  abi.encodePacked(\"compliance fail: \", _toStr(reason)) */\n      add(0x20, mload(0x40))\n      tag_250\n      swap2\n      swap1\n      tag_251\n      jump\t// in\n    tag_250:\n      mload(0x40)\n      0x20\n      dup2\n      dup4\n      sub\n      sub\n      dup2\n      mstore\n      swap1\n      0x40\n      mstore\n        /* \"contracts/RwaToken.sol\":1487:1561  require(ok, string(abi.encodePacked(\"compliance fail: \", _toStr(reason)))) */\n      swap1\n      tag_252\n      jumpi\n      mload(0x40)\n      0x08c379a000000000000000000000000000000000000000000000000000000000\n      dup2\n      mstore\n      0x04\n      add\n      tag_253\n      swap2\n      swap1\n      tag_38\n      jump\t// in\n    tag_253:\n      mload(0x40)\n      dup1\n      swap2\n      sub\n      swap1\n      revert\n    tag_252:\n      pop\n        /* \"contracts/RwaToken.sol\":1388:1572  {... */\n      pop\n      pop\n        /* \"contracts/RwaToken.sol\":1344:1572  if (from != address(0) || to != address(0)) {... */\n    tag_241:\n        /* \"contracts/RwaToken.sol\":1581:1611  super._update(from, to, value) */\n      tag_254\n        /* \"contracts/RwaToken.sol\":1595:1599  from */\n      dup4\n        /* \"contracts/RwaToken.sol\":1601:1603  to */\n      dup4\n        /* \"contracts/RwaToken.sol\":1605:1610  value */\n      dup4\n        /* \"contracts/RwaToken.sol\":1581:1594  super._update */\n      tag_255\n        /* \"contracts/RwaToken.sol\":1581:1611  super._update(from, to, value) */\n      jump\t// in\n    tag_254:\n        /* \"contracts/RwaToken.sol\":1220:1618  function _update(address from, address to, uint256 value) internal override {... */\n      pop\n      pop\n      pop\n      jump\t// out\n        /* \"https://raw.githubusercontent.com/OpenZeppelin/openzeppelin-contracts/v5.0.2/contracts/token/ERC20/ERC20.sol\":7721:7929  function _mint(address account, uint256 value) internal {... */\n    tag_166:\n        /* \"https://raw.githubusercontent.com/OpenZeppelin/openzeppelin-contracts/v5.0.2/contracts/token/ERC20/ERC20.sol\":7810:7811  0 */\n      0x00\n        /* \"https://raw.githubusercontent.com/OpenZeppelin/openzeppelin-contracts/v5.0.2/contracts/token/ERC20/ERC20.sol\":7791:7812  account == address(0) */\n      0xffffffffffffffffffffffffffffffffffffffff\n      and\n        /* \"https://raw.githubusercontent.com/OpenZeppelin/openzeppelin-contracts/v5.0.2/contracts/token/ERC20/ERC20.sol\":7791:7798  account */\n      dup3\n        /* \"https://raw.githubusercontent.com/OpenZeppelin/openzeppelin-contracts/v5.0.2/contracts/token/ERC20/ERC20.sol\":7791:7812  account == address(0) */\n      0xffffffffffffffffffffffffffffffffffffffff\n      and\n      sub\n        /* \"https://raw.githubusercontent.com/OpenZeppelin/openzeppelin-contracts/v5.0.2/contracts/token/ERC20/ERC20.sol\":7787:7878  if (account == address(0)) {... */\n      tag_257\n      jumpi\n        /* \"https://raw.githubusercontent.com/OpenZeppelin/openzeppelin-contracts/v5.0.2/contracts/token/ERC20/ERC20.sol\":7864:7865  0 */\n      0x00\n        /* \"https://raw.githubusercontent.com/OpenZeppelin/openzeppelin-contracts/v5.0.2/contracts/token/ERC20/ERC20.sol\":7835:7867  ERC20InvalidReceiver(address(0)) */\n      mload(0x40)\n      0xec442f0500000000000000000000000000000000000000000000000000000000\n      dup2\n      mstore\n      0x04\n      add\n      tag_258\n      swap2\n      swap1\n      tag_211\n      jump\t// in\n    tag_258:\n      mload(0x40)\n      dup1\n      swap2\n      sub\n      swap1\n      revert\n        /* \"https://raw.githubusercontent.com/OpenZeppelin/openzeppelin-contracts/v5.0.2/contracts/token/ERC20/ERC20.sol\":7787:7878  if (account == address(0)) {... */\n    tag_257:\n        /* \"https://raw.githubusercontent.com/OpenZeppelin/openzeppelin-contracts/v5.0.2/contracts/token/ERC20/ERC20.sol\":7887:7922  _update(address(0), account, value) */\n      tag_259\n        /* \"https://raw.githubusercontent.com/OpenZeppelin/openzeppelin-contracts/v5.0.2/contracts/token/ERC20/ERC20.sol\":7903:7904  0 */\n      0x00\n        /* \"https://raw.githubusercontent.com/OpenZeppelin/openzeppelin-contracts/v5.0.2/contracts/token/ERC20/ERC20.sol\":7907:7914  account */\n      dup4\n        /* \"https://raw.githubusercontent.com/OpenZeppelin/openzeppelin-contracts/v5.0.2/contracts/token/ERC20/ERC20.sol\":7916:7921  value */\n      dup4\n        /* \"https://raw.githubusercontent.com/OpenZeppelin/openzeppelin-contracts/v5.0.2/contracts/token/ERC20/ERC20.sol\":7887:7894  _update */\n      tag_164\n        /* \"https://raw.githubusercontent.com/OpenZeppelin/openzeppelin-contracts/v5.0.2/contracts/token/ERC20/ERC20.sol\":7887:7922  _update(address(0), account, value) */\n      jump\t// in\n    tag_259:\n        /* \"https://raw.githubusercontent.com/OpenZeppelin/openzeppelin-contracts/v5.0.2/contracts/token/ERC20/ERC20.sol\":7721:7929  function _mint(address account, uint256 value) internal {... */\n      pop\n      pop\n      jump\t// out\n        /* \"https://raw.githubusercontent.com/OpenZeppelin/openzeppelin-contracts/v5.0.2/contracts/utils/Pausable.sol\":2463:2578  function _pause() internal virtual whenNotPaused {... */\n    tag_173:\n        /* \"https://raw.githubusercontent.com/OpenZeppelin/openzeppelin-contracts/v5.0.2/contracts/utils/Pausable.sol\":1474:1493  _requireNotPaused() */\n      tag_261\n        /* \"https://raw.githubusercontent.com/OpenZeppelin/openzeppelin-contracts/v5.0.2/contracts/utils/Pausable.sol\":1474:1491  _requireNotPaused */\n      tag_262\n        /* \"https://raw.githubusercontent.com/OpenZeppelin/openzeppelin-contracts/v5.0.2/contracts/utils/Pausable.sol\":1474:1493  _requireNotPaused() */\n      jump\t// in\n    tag_261:\n        /* \"https://raw.githubusercontent.com/OpenZeppelin/openzeppelin-contracts/v5.0.2/contracts/utils/Pausable.sol\":2532:2536  true */\n      0x01\n        /* \"https://raw.githubusercontent.com/OpenZeppelin/openzeppelin-contracts/v5.0.2/contracts/utils/Pausable.sol\":2522:2529  _paused */\n      0x06\n      0x00\n        /* \"https://raw.githubusercontent.com/OpenZeppelin/openzeppelin-contracts/v5.0.2/contracts/utils/Pausable.sol\":2522:2536  _paused = true */\n      0x0100\n      exp\n      dup2\n      sload\n      dup2\n      0xff\n      mul\n      not\n      and\n      swap1\n      dup4\n      iszero\n      iszero\n      mul\n      or\n      swap1\n      sstore\n      pop\n        /* \"https://raw.githubusercontent.com/OpenZeppelin/openzeppelin-contracts/v5.0.2/contracts/utils/Pausable.sol\":2551:2571  Paused(_msgSender()) */\n      0x62e78cea01bee320cd4e420270b5ea74000d11b0c9f74754ebdbfc544b05a258\n        /* \"https://raw.githubusercontent.com/OpenZeppelin/openzeppelin-contracts/v5.0.2/contracts/utils/Pausable.sol\":2558:2570  _msgSender() */\n      tag_264\n        /* \"https://raw.githubusercontent.com/OpenZeppelin/openzeppelin-contracts/v5.0.2/contracts/utils/Pausable.sol\":2558:2568  _msgSender */\n      tag_131\n        /* \"https://raw.githubusercontent.com/OpenZeppelin/openzeppelin-contracts/v5.0.2/contracts/utils/Pausable.sol\":2558:2570  _msgSender() */\n      jump\t// in\n    tag_264:\n        /* \"https://raw.githubusercontent.com/OpenZeppelin/openzeppelin-contracts/v5.0.2/contracts/utils/Pausable.sol\":2551:2571  Paused(_msgSender()) */\n      mload(0x40)\n      tag_265\n      swap2\n      swap1\n      tag_211\n      jump\t// in\n    tag_265:\n      mload(0x40)\n      dup1\n      swap2\n      sub\n      swap1\n      log1\n        /* \"https://raw.githubusercontent.com/OpenZeppelin/openzeppelin-contracts/v5.0.2/contracts/utils/Pausable.sol\":2463:2578  function _pause() internal virtual whenNotPaused {... */\n      jump\t// out\n        /* \"https://raw.githubusercontent.com/OpenZeppelin/openzeppelin-contracts/v5.0.2/contracts/token/ERC20/ERC20.sol\":9949:10381  function _approve(address owner, address spender, uint256 value, bool emitEvent) internal virtual {... */\n    tag_200:\n        /* \"https://raw.githubusercontent.com/OpenZeppelin/openzeppelin-contracts/v5.0.2/contracts/token/ERC20/ERC20.sol\":10078:10079  0 */\n      0x00\n        /* \"https://raw.githubusercontent.com/OpenZeppelin/openzeppelin-contracts/v5.0.2/contracts/token/ERC20/ERC20.sol\":10061:10080  owner == address(0) */\n      0xffffffffffffffffffffffffffffffffffffffff\n      and\n        /* \"https://raw.githubusercontent.com/OpenZeppelin/openzeppelin-contracts/v5.0.2/contracts/token/ERC20/ERC20.sol\":10061:10066  owner */\n      dup5\n        /* \"https://raw.githubusercontent.com/OpenZeppelin/openzeppelin-contracts/v5.0.2/contracts/token/ERC20/ERC20.sol\":10061:10080  owner == address(0) */\n      0xffffffffffffffffffffffffffffffffffffffff\n      and\n      sub\n        /* \"https://raw.githubusercontent.com/OpenZeppelin/openzeppelin-contracts/v5.0.2/contracts/token/ERC20/ERC20.sol\":10057:10146  if (owner == address(0)) {... */\n      tag_267\n      jumpi\n        /* \"https://raw.githubusercontent.com/OpenZeppelin/openzeppelin-contracts/v5.0.2/contracts/token/ERC20/ERC20.sol\":10132:10133  0 */\n      0x00\n        /* \"https://raw.githubusercontent.com/OpenZeppelin/openzeppelin-contracts/v5.0.2/contracts/token/ERC20/ERC20.sol\":10103:10135  ERC20InvalidApprover(address(0)) */\n      mload(0x40)\n      0xe602df0500000000000000000000000000000000000000000000000000000000\n      dup2\n      mstore\n      0x04\n      add\n      tag_268\n      swap2\n      swap1\n      tag_211\n      jump\t// in\n    tag_268:\n      mload(0x40)\n      dup1\n      swap2\n      sub\n      swap1\n      revert\n        /* \"https://raw.githubusercontent.com/OpenZeppelin/openzeppelin-contracts/v5.0.2/contracts/token/ERC20/ERC20.sol\":10057:10146  if (owner == address(0)) {... */\n    tag_267:\n        /* \"https://raw.githubusercontent.com/OpenZeppelin/openzeppelin-contracts/v5.0.2/contracts/token/ERC20/ERC20.sol\":10178:10179  0 */\n      0x00\n        /* \"https://raw.githubusercontent.com/OpenZeppelin/openzeppelin-contracts/v5.0.2/contracts/token/ERC20/ERC20.sol\":10159:10180  spender == address(0) */\n      0xffffffffffffffffffffffffffffffffffffffff\n      and\n        /* \"https://raw.githubusercontent.com/OpenZeppelin/openzeppelin-contracts/v5.0.2/contracts/token/ERC20/ERC20.sol\":10159:10166  spender */\n      dup4\n        /* \"https://raw.githubusercontent.com/OpenZeppelin/openzeppelin-contracts/v5.0.2/contracts/token/ERC20/ERC20.sol\":10159:10180  spender == address(0) */\n      0xffffffffffffffffffffffffffffffffffffffff\n      and\n      sub\n        /* \"https://raw.githubusercontent.com/OpenZeppelin/openzeppelin-contracts/v5.0.2/contracts/token/ERC20/ERC20.sol\":10155:10245  if (spender == address(0)) {... */\n      tag_269\n      jumpi\n        /* \"https://raw.githubusercontent.com/OpenZeppelin/openzeppelin-contracts/v5.0.2/contracts/token/ERC20/ERC20.sol\":10231:10232  0 */\n      0x00\n        /* \"https://raw.githubusercontent.com/OpenZeppelin/openzeppelin-contracts/v5.0.2/contracts/token/ERC20/ERC20.sol\":10203:10234  ERC20InvalidSpender(address(0)) */\n      mload(0x40)\n      0x94280d6200000000000000000000000000000000000000000000000000000000\n      dup2\n      mstore\n      0x04\n      add\n      tag_270\n      swap2\n      swap1\n      tag_211\n      jump\t// in\n    tag_270:\n      mload(0x40)\n      dup1\n      swap2\n      sub\n      swap1\n      revert\n        /* \"https://raw.githubusercontent.com/OpenZeppelin/openzeppelin-contracts/v5.0.2/contracts/token/ERC20/ERC20.sol\":10155:10245  if (spender == address(0)) {... */\n    tag_269:\n        /* \"https://raw.githubusercontent.com/OpenZeppelin/openzeppelin-contracts/v5.0.2/contracts/token/ERC20/ERC20.sol\":10284:10289  value */\n      dup2\n        /* \"https://raw.githubusercontent.com/OpenZeppelin/openzeppelin-contracts/v5.0.2/contracts/token/ERC20/ERC20.sol\":10254:10265  _allowances */\n      0x01\n        /* \"https://raw.githubusercontent.com/OpenZeppelin/openzeppelin-contracts/v5.0.2/contracts/token/ERC20/ERC20.sol\":10254:10272  _allowances[owner] */\n      0x00\n        /* \"https://raw.githubusercontent.com/OpenZeppelin/openzeppelin-contracts/v5.0.2/contracts/token/ERC20/ERC20.sol\":10266:10271  owner */\n      dup7\n        /* \"https://raw.githubusercontent.com/OpenZeppelin/openzeppelin-contracts/v5.0.2/contracts/token/ERC20/ERC20.sol\":10254:10272  _allowances[owner] */\n      0xffffffffffffffffffffffffffffffffffffffff\n      and\n      0xffffffffffffffffffffffffffffffffffffffff\n      and\n      dup2\n      mstore\n      0x20\n      add\n      swap1\n      dup2\n      mstore\n      0x20\n      add\n      0x00\n      keccak256\n        /* \"https://raw.githubusercontent.com/OpenZeppelin/openzeppelin-contracts/v5.0.2/contracts/token/ERC20/ERC20.sol\":10254:10281  _allowances[owner][spender] */\n      0x00\n        /* \"https://raw.githubusercontent.com/OpenZeppelin/openzeppelin-contracts/v5.0.2/contracts/token/ERC20/ERC20.sol\":10273:10280  spender */\n      dup6\n        /* \"https://raw.githubusercontent.com/OpenZeppelin/openzeppelin-contracts/v5.0.2/contracts/token/ERC20/ERC20.sol\":10254:10281  _allowances[owner][spender] */\n      0xffffffffffffffffffffffffffffffffffffffff\n      and\n      0xffffffffffffffffffffffffffffffffffffffff\n      and\n      dup2\n      mstore\n      0x20\n      add\n      swap1\n      dup2\n      mstore\n      0x20\n      add\n      0x00\n      keccak256\n        /* \"https://raw.githubusercontent.com/OpenZeppelin/openzeppelin-contracts/v5.0.2/contracts/token/ERC20/ERC20.sol\":10254:10289  _allowances[owner][spender] = value */\n      dup2\n      swap1\n      sstore\n      pop\n        /* \"https://raw.githubusercontent.com/OpenZeppelin/openzeppelin-contracts/v5.0.2/contracts/token/ERC20/ERC20.sol\":10303:10312  emitEvent */\n      dup1\n        /* \"https://raw.githubusercontent.com/OpenZeppelin/openzeppelin-contracts/v5.0.2/contracts/token/ERC20/ERC20.sol\":10299:10375  if (emitEvent) {... */\n      iszero\n      tag_271\n      jumpi\n        /* \"https://raw.githubusercontent.com/OpenZeppelin/openzeppelin-contracts/v5.0.2/contracts/token/ERC20/ERC20.sol\":10349:10356  spender */\n      dup3\n        /* \"https://raw.githubusercontent.com/OpenZeppelin/openzeppelin-contracts/v5.0.2/contracts/token/ERC20/ERC20.sol\":10333:10364  Approval(owner, spender, value) */\n      0xffffffffffffffffffffffffffffffffffffffff\n      and\n        /* \"https://raw.githubusercontent.com/OpenZeppelin/openzeppelin-contracts/v5.0.2/contracts/token/ERC20/ERC20.sol\":10342:10347  owner */\n      dup5\n        /* \"https://raw.githubusercontent.com/OpenZeppelin/openzeppelin-contracts/v5.0.2/contracts/token/ERC20/ERC20.sol\":10333:10364  Approval(owner, spender, value) */\n      0xffffffffffffffffffffffffffffffffffffffff\n      and\n      0x8c5be1e5ebec7d5bd14f71427d1e84f3dd0314c0f7b2291e5b200ac8c7c3b925\n        /* \"https://raw.githubusercontent.com/OpenZeppelin/openzeppelin-contracts/v5.0.2/contracts/token/ERC20/ERC20.sol\":10358:10363  value */\n      dup5\n        /* \"https://raw.githubusercontent.com/OpenZeppelin/openzeppelin-contracts/v5.0.2/contracts/token/ERC20/ERC20.sol\":10333:10364  Approval(owner, spender, value) */\n      mload(0x40)\n      tag_272\n      swap2\n      swap1\n      tag_47\n      jump\t// in\n    tag_272:\n      mload(0x40)\n      dup1\n      swap2\n      sub\n      swap1\n      log3\n        /* \"https://raw.githubusercontent.com/OpenZeppelin/openzeppelin-contracts/v5.0.2/contracts/token/ERC20/ERC20.sol\":10299:10375  if (emitEvent) {... */\n    tag_271:\n        /* \"https://raw.githubusercontent.com/OpenZeppelin/openzeppelin-contracts/v5.0.2/contracts/token/ERC20/ERC20.sol\":9949:10381  function _approve(address owner, address spender, uint256 value, bool emitEvent) internal virtual {... */\n      pop\n      pop\n      pop\n      pop\n      jump\t// out\n        /* \"https://raw.githubusercontent.com/OpenZeppelin/openzeppelin-contracts/v5.0.2/contracts/access/AccessControl.sol\":3432:3629  function _checkRole(bytes32 role, address account) internal view virtual {... */\n    tag_218:\n        /* \"https://raw.githubusercontent.com/OpenZeppelin/openzeppelin-contracts/v5.0.2/contracts/access/AccessControl.sol\":3520:3542  hasRole(role, account) */\n      tag_274\n        /* \"https://raw.githubusercontent.com/OpenZeppelin/openzeppelin-contracts/v5.0.2/contracts/access/AccessControl.sol\":3528:3532  role */\n      dup3\n        /* \"https://raw.githubusercontent.com/OpenZeppelin/openzeppelin-contracts/v5.0.2/contracts/access/AccessControl.sol\":3534:3541  account */\n      dup3\n        /* \"https://raw.githubusercontent.com/OpenZeppelin/openzeppelin-contracts/v5.0.2/contracts/access/AccessControl.sol\":3520:3527  hasRole */\n      tag_98\n        /* \"https://raw.githubusercontent.com/OpenZeppelin/openzeppelin-contracts/v5.0.2/contracts/access/AccessControl.sol\":3520:3542  hasRole(role, account) */\n      jump\t// in\n    tag_274:\n        /* \"https://raw.githubusercontent.com/OpenZeppelin/openzeppelin-contracts/v5.0.2/contracts/access/AccessControl.sol\":3515:3623  if (!hasRole(role, account)) {... */\n      tag_275\n      jumpi\n        /* \"https://raw.githubusercontent.com/OpenZeppelin/openzeppelin-contracts/v5.0.2/contracts/access/AccessControl.sol\":3598:3605  account */\n      dup1\n        /* \"https://raw.githubusercontent.com/OpenZeppelin/openzeppelin-contracts/v5.0.2/contracts/access/AccessControl.sol\":3607:3611  role */\n      dup3\n        /* \"https://raw.githubusercontent.com/OpenZeppelin/openzeppelin-contracts/v5.0.2/contracts/access/AccessControl.sol\":3565:3612  AccessControlUnauthorizedAccount(account, role) */\n      mload(0x40)\n      0xe2517d3f00000000000000000000000000000000000000000000000000000000\n      dup2\n      mstore\n      0x04\n      add\n      tag_276\n      swap3\n      swap2\n      swap1\n      tag_277\n      jump\t// in\n    tag_276:\n      mload(0x40)\n      dup1\n      swap2\n      sub\n      swap1\n      revert\n        /* \"https://raw.githubusercontent.com/OpenZeppelin/openzeppelin-contracts/v5.0.2/contracts/access/AccessControl.sol\":3515:3623  if (!hasRole(role, account)) {... */\n    tag_275:\n        /* \"https://raw.githubusercontent.com/OpenZeppelin/openzeppelin-contracts/v5.0.2/contracts/access/AccessControl.sol\":3432:3629  function _checkRole(bytes32 role, address account) internal view virtual {... */\n      pop\n      pop\n      jump\t// out\n        /* \"https://raw.githubusercontent.com/OpenZeppelin/openzeppelin-contracts/v5.0.2/contracts/utils/Pausable.sol\":2202:2328  function _requirePaused() internal view virtual {... */\n    tag_231:\n        /* \"https://raw.githubusercontent.com/OpenZeppelin/openzeppelin-contracts/v5.0.2/contracts/utils/Pausable.sol\":2265:2273  paused() */\n      tag_279\n        /* \"https://raw.githubusercontent.com/OpenZeppelin/openzeppelin-contracts/v5.0.2/contracts/utils/Pausable.sol\":2265:2271  paused */\n      tag_76\n        /* \"https://raw.githubusercontent.com/OpenZeppelin/openzeppelin-contracts/v5.0.2/contracts/utils/Pausable.sol\":2265:2273  paused() */\n      jump\t// in\n    tag_279:\n        /* \"https://raw.githubusercontent.com/OpenZeppelin/openzeppelin-contracts/v5.0.2/contracts/utils/Pausable.sol\":2260:2322  if (!paused()) {... */\n      tag_280\n      jumpi\n        /* \"https://raw.githubusercontent.com/OpenZeppelin/openzeppelin-contracts/v5.0.2/contracts/utils/Pausable.sol\":2296:2311  ExpectedPause() */\n      mload(0x40)\n      0x8dfc202b00000000000000000000000000000000000000000000000000000000\n      dup2\n      mstore\n      0x04\n      add\n      mload(0x40)\n      dup1\n      swap2\n      sub\n      swap1\n      revert\n        /* \"https://raw.githubusercontent.com/OpenZeppelin/openzeppelin-contracts/v5.0.2/contracts/utils/Pausable.sol\":2260:2322  if (!paused()) {... */\n    tag_280:\n        /* \"https://raw.githubusercontent.com/OpenZeppelin/openzeppelin-contracts/v5.0.2/contracts/utils/Pausable.sol\":2202:2328  function _requirePaused() internal view virtual {... */\n      jump\t// out\n        /* \"contracts/RwaToken.sol\":2078:2305  function _toStr(uint256 x) internal pure returns (string memory) {... */\n    tag_249:\n        /* \"contracts/RwaToken.sol\":2128:2141  string memory */\n      0x60\n        /* \"contracts/RwaToken.sol\":2162:2163  0 */\n      0x00\n        /* \"contracts/RwaToken.sol\":2157:2158  x */\n      dup3\n        /* \"contracts/RwaToken.sol\":2157:2163  x == 0 */\n      sub\n        /* \"contracts/RwaToken.sol\":2153:2175  if (x == 0) return \"0\" */\n      tag_282\n      jumpi\n        /* \"contracts/RwaToken.sol\":2165:2175  return \"0\" */\n      mload(0x40)\n      dup1\n      0x40\n      add\n      0x40\n      mstore\n      dup1\n      0x01\n      dup2\n      mstore\n      0x20\n      add\n      0x3000000000000000000000000000000000000000000000000000000000000000\n      dup2\n      mstore\n      pop\n      swap1\n      pop\n      jump(tag_281)\n        /* \"contracts/RwaToken.sol\":2153:2175  if (x == 0) return \"0\" */\n    tag_282:\n        /* \"contracts/RwaToken.sol\":2185:2199  bytes memory b */\n      0x60\n        /* \"contracts/RwaToken.sol\":2201:2273  while (x != 0) { b = abi.encodePacked(uint8(48 + x % 10), b); x /= 10; } */\n    tag_283:\n        /* \"contracts/RwaToken.sol\":2213:2214  0 */\n      0x00\n        /* \"contracts/RwaToken.sol\":2208:2209  x */\n      dup4\n        /* \"contracts/RwaToken.sol\":2208:2214  x != 0 */\n      eq\n        /* \"contracts/RwaToken.sol\":2201:2273  while (x != 0) { b = abi.encodePacked(uint8(48 + x % 10), b); x /= 10; } */\n      tag_284\n      jumpi\n        /* \"contracts/RwaToken.sol\":2254:2256  10 */\n      0x0a\n        /* \"contracts/RwaToken.sol\":2250:2251  x */\n      dup4\n        /* \"contracts/RwaToken.sol\":2250:2256  x % 10 */\n      tag_285\n      swap2\n      swap1\n      tag_286\n      jump\t// in\n    tag_285:\n        /* \"contracts/RwaToken.sol\":2245:2247  48 */\n      0x30\n        /* \"contracts/RwaToken.sol\":2245:2256  48 + x % 10 */\n      tag_287\n      swap2\n      swap1\n      tag_288\n      jump\t// in\n    tag_287:\n        /* \"contracts/RwaToken.sol\":2259:2260  b */\n      dup2\n        /* \"contracts/RwaToken.sol\":2222:2261  abi.encodePacked(uint8(48 + x % 10), b) */\n      add(0x20, mload(0x40))\n      tag_289\n      swap3\n      swap2\n      swap1\n      tag_290\n      jump\t// in\n    tag_289:\n      mload(0x40)\n      0x20\n      dup2\n      dup4\n      sub\n      sub\n      dup2\n      mstore\n      swap1\n      0x40\n      mstore\n        /* \"contracts/RwaToken.sol\":2218:2261  b = abi.encodePacked(uint8(48 + x % 10), b) */\n      swap1\n      pop\n        /* \"contracts/RwaToken.sol\":2268:2270  10 */\n      0x0a\n        /* \"contracts/RwaToken.sol\":2263:2270  x /= 10 */\n      dup4\n      tag_291\n      swap2\n      swap1\n      tag_292\n      jump\t// in\n    tag_291:\n      swap3\n      pop\n        /* \"contracts/RwaToken.sol\":2201:2273  while (x != 0) { b = abi.encodePacked(uint8(48 + x % 10), b); x /= 10; } */\n      jump(tag_283)\n    tag_284:\n        /* \"contracts/RwaToken.sol\":2296:2297  b */\n      dup1\n        /* \"contracts/RwaToken.sol\":2282:2298  return string(b) */\n      swap2\n      pop\n      pop\n        /* \"contracts/RwaToken.sol\":2078:2305  function _toStr(uint256 x) internal pure returns (string memory) {... */\n    tag_281:\n      swap2\n      swap1\n      pop\n      jump\t// out\n        /* \"https://raw.githubusercontent.com/OpenZeppelin/openzeppelin-contracts/v5.0.2/contracts/token/ERC20/ERC20.sol\":6271:7378  function _update(address from, address to, uint256 value) internal virtual {... */\n    tag_255:\n        /* \"https://raw.githubusercontent.com/OpenZeppelin/openzeppelin-contracts/v5.0.2/contracts/token/ERC20/ERC20.sol\":6376:6377  0 */\n      0x00\n        /* \"https://raw.githubusercontent.com/OpenZeppelin/openzeppelin-contracts/v5.0.2/contracts/token/ERC20/ERC20.sol\":6360:6378  from == address(0) */\n      0xffffffffffffffffffffffffffffffffffffffff\n      and\n        /* \"https://raw.githubusercontent.com/OpenZeppelin/openzeppelin-contracts/v5.0.2/contracts/token/ERC20/ERC20.sol\":6360:6364  from */\n      dup4\n        /* \"https://raw.githubusercontent.com/OpenZeppelin/openzeppelin-contracts/v5.0.2/contracts/token/ERC20/ERC20.sol\":6360:6378  from == address(0) */\n      0xffffffffffffffffffffffffffffffffffffffff\n      and\n      sub\n        /* \"https://raw.githubusercontent.com/OpenZeppelin/openzeppelin-contracts/v5.0.2/contracts/token/ERC20/ERC20.sol\":6356:6896  if (from == address(0)) {... */\n      tag_294\n      jumpi\n        /* \"https://raw.githubusercontent.com/OpenZeppelin/openzeppelin-contracts/v5.0.2/contracts/token/ERC20/ERC20.sol\":6512:6517  value */\n      dup1\n        /* \"https://raw.githubusercontent.com/OpenZeppelin/openzeppelin-contracts/v5.0.2/contracts/token/ERC20/ERC20.sol\":6496:6508  _totalSupply */\n      0x02\n      0x00\n        /* \"https://raw.githubusercontent.com/OpenZeppelin/openzeppelin-contracts/v5.0.2/contracts/token/ERC20/ERC20.sol\":6496:6517  _totalSupply += value */\n      dup3\n      dup3\n      sload\n      tag_295\n      swap2\n      swap1\n      tag_288\n      jump\t// in\n    tag_295:\n      swap3\n      pop\n      pop\n      dup2\n      swap1\n      sstore\n      pop\n        /* \"https://raw.githubusercontent.com/OpenZeppelin/openzeppelin-contracts/v5.0.2/contracts/token/ERC20/ERC20.sol\":6356:6896  if (from == address(0)) {... */\n      jump(tag_296)\n    tag_294:\n        /* \"https://raw.githubusercontent.com/OpenZeppelin/openzeppelin-contracts/v5.0.2/contracts/token/ERC20/ERC20.sol\":6548:6567  uint256 fromBalance */\n      0x00\n        /* \"https://raw.githubusercontent.com/OpenZeppelin/openzeppelin-contracts/v5.0.2/contracts/token/ERC20/ERC20.sol\":6570:6579  _balances */\n      dup1\n        /* \"https://raw.githubusercontent.com/OpenZeppelin/openzeppelin-contracts/v5.0.2/contracts/token/ERC20/ERC20.sol\":6570:6585  _balances[from] */\n      0x00\n        /* \"https://raw.githubusercontent.com/OpenZeppelin/openzeppelin-contracts/v5.0.2/contracts/token/ERC20/ERC20.sol\":6580:6584  from */\n      dup6\n        /* \"https://raw.githubusercontent.com/OpenZeppelin/openzeppelin-contracts/v5.0.2/contracts/token/ERC20/ERC20.sol\":6570:6585  _balances[from] */\n      0xffffffffffffffffffffffffffffffffffffffff\n      and\n      0xffffffffffffffffffffffffffffffffffffffff\n      and\n      dup2\n      mstore\n      0x20\n      add\n      swap1\n      dup2\n      mstore\n      0x20\n      add\n      0x00\n      keccak256\n      sload\n        /* \"https://raw.githubusercontent.com/OpenZeppelin/openzeppelin-contracts/v5.0.2/contracts/token/ERC20/ERC20.sol\":6548:6585  uint256 fromBalance = _balances[from] */\n      swap1\n      pop\n        /* \"https://raw.githubusercontent.com/OpenZeppelin/openzeppelin-contracts/v5.0.2/contracts/token/ERC20/ERC20.sol\":6617:6622  value */\n      dup2\n        /* \"https://raw.githubusercontent.com/OpenZeppelin/openzeppelin-contracts/v5.0.2/contracts/token/ERC20/ERC20.sol\":6603:6614  fromBalance */\n      dup2\n        /* \"https://raw.githubusercontent.com/OpenZeppelin/openzeppelin-contracts/v5.0.2/contracts/token/ERC20/ERC20.sol\":6603:6622  fromBalance < value */\n      lt\n        /* \"https://raw.githubusercontent.com/OpenZeppelin/openzeppelin-contracts/v5.0.2/contracts/token/ERC20/ERC20.sol\":6599:6714  if (fromBalance < value) {... */\n      iszero\n      tag_297\n      jumpi\n        /* \"https://raw.githubusercontent.com/OpenZeppelin/openzeppelin-contracts/v5.0.2/contracts/token/ERC20/ERC20.sol\":6674:6678  from */\n      dup4\n        /* \"https://raw.githubusercontent.com/OpenZeppelin/openzeppelin-contracts/v5.0.2/contracts/token/ERC20/ERC20.sol\":6680:6691  fromBalance */\n      dup2\n        /* \"https://raw.githubusercontent.com/OpenZeppelin/openzeppelin-contracts/v5.0.2/contracts/token/ERC20/ERC20.sol\":6693:6698  value */\n      dup4\n        /* \"https://raw.githubusercontent.com/OpenZeppelin/openzeppelin-contracts/v5.0.2/contracts/token/ERC20/ERC20.sol\":6649:6699  ERC20InsufficientBalance(from, fromBalance, value) */\n      mload(0x40)\n      0xe450d38c00000000000000000000000000000000000000000000000000000000\n      dup2\n      mstore\n      0x04\n      add\n      tag_298\n      swap4\n      swap3\n      swap2\n      swap1\n      tag_206\n      jump\t// in\n    tag_298:\n      mload(0x40)\n      dup1\n      swap2\n      sub\n      swap1\n      revert\n        /* \"https://raw.githubusercontent.com/OpenZeppelin/openzeppelin-contracts/v5.0.2/contracts/token/ERC20/ERC20.sol\":6599:6714  if (fromBalance < value) {... */\n    tag_297:\n        /* \"https://raw.githubusercontent.com/OpenZeppelin/openzeppelin-contracts/v5.0.2/contracts/token/ERC20/ERC20.sol\":6866:6871  value */\n      dup2\n        /* \"https://raw.githubusercontent.com/OpenZeppelin/openzeppelin-contracts/v5.0.2/contracts/token/ERC20/ERC20.sol\":6852:6863  fromBalance */\n      dup2\n        /* \"https://raw.githubusercontent.com/OpenZeppelin/openzeppelin-contracts/v5.0.2/contracts/token/ERC20/ERC20.sol\":6852:6871  fromBalance - value */\n      sub\n        /* \"https://raw.githubusercontent.com/OpenZeppelin/openzeppelin-contracts/v5.0.2/contracts/token/ERC20/ERC20.sol\":6834:6843  _balances */\n      0x00\n        /* \"https://raw.githubusercontent.com/OpenZeppelin/openzeppelin-contracts/v5.0.2/contracts/token/ERC20/ERC20.sol\":6834:6849  _balances[from] */\n      dup1\n        /* \"https://raw.githubusercontent.com/OpenZeppelin/openzeppelin-contracts/v5.0.2/contracts/token/ERC20/ERC20.sol\":6844:6848  from */\n      dup7\n        /* \"https://raw.githubusercontent.com/OpenZeppelin/openzeppelin-contracts/v5.0.2/contracts/token/ERC20/ERC20.sol\":6834:6849  _balances[from] */\n      0xffffffffffffffffffffffffffffffffffffffff\n      and\n      0xffffffffffffffffffffffffffffffffffffffff\n      and\n      dup2\n      mstore\n      0x20\n      add\n      swap1\n      dup2\n      mstore\n      0x20\n      add\n      0x00\n      keccak256\n        /* \"https://raw.githubusercontent.com/OpenZeppelin/openzeppelin-contracts/v5.0.2/contracts/token/ERC20/ERC20.sol\":6834:6871  _balances[from] = fromBalance - value */\n      dup2\n      swap1\n      sstore\n      pop\n        /* \"https://raw.githubusercontent.com/OpenZeppelin/openzeppelin-contracts/v5.0.2/contracts/token/ERC20/ERC20.sol\":6534:6896  {... */\n      pop\n        /* \"https://raw.githubusercontent.com/OpenZeppelin/openzeppelin-contracts/v5.0.2/contracts/token/ERC20/ERC20.sol\":6356:6896  if (from == address(0)) {... */\n    tag_296:\n        /* \"https://raw.githubusercontent.com/OpenZeppelin/openzeppelin-contracts/v5.0.2/contracts/token/ERC20/ERC20.sol\":6924:6925  0 */\n      0x00\n        /* \"https://raw.githubusercontent.com/OpenZeppelin/openzeppelin-contracts/v5.0.2/contracts/token/ERC20/ERC20.sol\":6910:6926  to == address(0) */\n      0xffffffffffffffffffffffffffffffffffffffff\n      and\n        /* \"https://raw.githubusercontent.com/OpenZeppelin/openzeppelin-contracts/v5.0.2/contracts/token/ERC20/ERC20.sol\":6910:6912  to */\n      dup3\n        /* \"https://raw.githubusercontent.com/OpenZeppelin/openzeppelin-contracts/v5.0.2/contracts/token/ERC20/ERC20.sol\":6910:6926  to == address(0) */\n      0xffffffffffffffffffffffffffffffffffffffff\n      and\n      sub\n        /* \"https://raw.githubusercontent.com/OpenZeppelin/openzeppelin-contracts/v5.0.2/contracts/token/ERC20/ERC20.sol\":6906:7331  if (to == address(0)) {... */\n      tag_299\n      jumpi\n        /* \"https://raw.githubusercontent.com/OpenZeppelin/openzeppelin-contracts/v5.0.2/contracts/token/ERC20/ERC20.sol\":7089:7094  value */\n      dup1\n        /* \"https://raw.githubusercontent.com/OpenZeppelin/openzeppelin-contracts/v5.0.2/contracts/token/ERC20/ERC20.sol\":7073:7085  _totalSupply */\n      0x02\n      0x00\n        /* \"https://raw.githubusercontent.com/OpenZeppelin/openzeppelin-contracts/v5.0.2/contracts/token/ERC20/ERC20.sol\":7073:7094  _totalSupply -= value */\n      dup3\n      dup3\n      sload\n      sub\n      swap3\n      pop\n      pop\n      dup2\n      swap1\n      sstore\n      pop\n        /* \"https://raw.githubusercontent.com/OpenZeppelin/openzeppelin-contracts/v5.0.2/contracts/token/ERC20/ERC20.sol\":6906:7331  if (to == address(0)) {... */\n      jump(tag_300)\n    tag_299:\n        /* \"https://raw.githubusercontent.com/OpenZeppelin/openzeppelin-contracts/v5.0.2/contracts/token/ERC20/ERC20.sol\":7301:7306  value */\n      dup1\n        /* \"https://raw.githubusercontent.com/OpenZeppelin/openzeppelin-contracts/v5.0.2/contracts/token/ERC20/ERC20.sol\":7284:7293  _balances */\n      0x00\n        /* \"https://raw.githubusercontent.com/OpenZeppelin/openzeppelin-contracts/v5.0.2/contracts/token/ERC20/ERC20.sol\":7284:7297  _balances[to] */\n      dup1\n        /* \"https://raw.githubusercontent.com/OpenZeppelin/openzeppelin-contracts/v5.0.2/contracts/token/ERC20/ERC20.sol\":7294:7296  to */\n      dup5\n        /* \"https://raw.githubusercontent.com/OpenZeppelin/openzeppelin-contracts/v5.0.2/contracts/token/ERC20/ERC20.sol\":7284:7297  _balances[to] */\n      0xffffffffffffffffffffffffffffffffffffffff\n      and\n      0xffffffffffffffffffffffffffffffffffffffff\n      and\n      dup2\n      mstore\n      0x20\n      add\n      swap1\n      dup2\n      mstore\n      0x20\n      add\n      0x00\n      keccak256\n      0x00\n        /* \"https://raw.githubusercontent.com/OpenZeppelin/openzeppelin-contracts/v5.0.2/contracts/token/ERC20/ERC20.sol\":7284:7306  _balances[to] += value */\n      dup3\n      dup3\n      sload\n      add\n      swap3\n      pop\n      pop\n      dup2\n      swap1\n      sstore\n      pop\n        /* \"https://raw.githubusercontent.com/OpenZeppelin/openzeppelin-contracts/v5.0.2/contracts/token/ERC20/ERC20.sol\":6906:7331  if (to == address(0)) {... */\n    tag_300:\n        /* \"https://raw.githubusercontent.com/OpenZeppelin/openzeppelin-contracts/v5.0.2/contracts/token/ERC20/ERC20.sol\":7361:7363  to */\n      dup2\n        /* \"https://raw.githubusercontent.com/OpenZeppelin/openzeppelin-contracts/v5.0.2/contracts/token/ERC20/ERC20.sol\":7346:7371  Transfer(from, to, value) */\n      0xffffffffffffffffffffffffffffffffffffffff\n      and\n        /* \"https://raw.githubusercontent.com/OpenZeppelin/openzeppelin-contracts/v5.0.2/contracts/token/ERC20/ERC20.sol\":7355:7359  from */\n      dup4\n        /* \"https://raw.githubusercontent.com/OpenZeppelin/openzeppelin-contracts/v5.0.2/contracts/token/ERC20/ERC20.sol\":7346:7371  Transfer(from, to, value) */\n      0xffffffffffffffffffffffffffffffffffffffff\n      and\n      0xddf252ad1be2c89b69c2b068fc378daa952ba7f163c4a11628f55a4df523b3ef\n        /* \"https://raw.githubusercontent.com/OpenZeppelin/openzeppelin-contracts/v5.0.2/contracts/token/ERC20/ERC20.sol\":7365:7370  value */\n      dup4\n        /* \"https://raw.githubusercontent.com/OpenZeppelin/openzeppelin-contracts/v5.0.2/contracts/token/ERC20/ERC20.sol\":7346:7371  Transfer(from, to, value) */\n      mload(0x40)\n      tag_301\n      swap2\n      swap1\n      tag_47\n      jump\t// in\n    tag_301:\n      mload(0x40)\n      dup1\n      swap2\n      sub\n      swap1\n      log3\n        /* \"https://raw.githubusercontent.com/OpenZeppelin/openzeppelin-contracts/v5.0.2/contracts/token/ERC20/ERC20.sol\":6271:7378  function _update(address from, address to, uint256 value) internal virtual {... */\n      pop\n      pop\n      pop\n      jump\t// out\n        /* \"https://raw.githubusercontent.com/OpenZeppelin/openzeppelin-contracts/v5.0.2/contracts/utils/Pausable.sol\":2002:2130  function _requireNotPaused() internal view virtual {... */\n    tag_262:\n        /* \"https://raw.githubusercontent.com/OpenZeppelin/openzeppelin-contracts/v5.0.2/contracts/utils/Pausable.sol\":2067:2075  paused() */\n      tag_303\n        /* \"https://raw.githubusercontent.com/OpenZeppelin/openzeppelin-contracts/v5.0.2/contracts/utils/Pausable.sol\":2067:2073  paused */\n      tag_76\n        /* \"https://raw.githubusercontent.com/OpenZeppelin/openzeppelin-contracts/v5.0.2/contracts/utils/Pausable.sol\":2067:2075  paused() */\n      jump\t// in\n    tag_303:\n        /* \"https://raw.githubusercontent.com/OpenZeppelin/openzeppelin-contracts/v5.0.2/contracts/utils/Pausable.sol\":2063:2124  if (paused()) {... */\n      iszero\n      tag_304\n      jumpi\n        /* \"https://raw.githubusercontent.com/OpenZeppelin/openzeppelin-contracts/v5.0.2/contracts/utils/Pausable.sol\":2098:2113  EnforcedPause() */\n      mload(0x40)\n      0xd93c066500000000000000000000000000000000000000000000000000000000\n      dup2\n      mstore\n      0x04\n      add\n      mload(0x40)\n      dup1\n      swap2\n      sub\n      swap1\n      revert\n        /* \"https://raw.githubusercontent.com/OpenZeppelin/openzeppelin-contracts/v5.0.2/contracts/utils/Pausable.sol\":2063:2124  if (paused()) {... */\n    tag_304:\n        /* \"https://raw.githubusercontent.com/OpenZeppelin/openzeppelin-contracts/v5.0.2/contracts/utils/Pausable.sol\":2002:2130  function _requireNotPaused() internal view virtual {... */\n      jump\t// out\n        /* \"#utility.yul\":88:205   */\n    tag_306:\n        /* \"#utility.yul\":197:198   */\n      0x00\n        /* \"#utility.yul\":194:195   */\n      dup1\n        /* \"#utility.yul\":187:199   */\n      revert\n        /* \"#utility.yul\":211:328   */\n    tag_307:\n        /* \"#utility.yul\":320:321   */\n      0x00\n        /* \"#utility.yul\":317:318   */\n      dup1\n        /* \"#utility.yul\":310:322   */\n      revert\n        /* \"#utility.yul\":334:483   */\n    tag_308:\n        /* \"#utility.yul\":370:377   */\n      0x00\n        /* \"#utility.yul\":410:476   */\n      0xffffffff00000000000000000000000000000000000000000000000000000000\n        /* \"#utility.yul\":403:408   */\n      dup3\n        /* \"#utility.yul\":399:477   */\n      and\n        /* \"#utility.yul\":388:477   */\n      swap1\n      pop\n        /* \"#utility.yul\":334:483   */\n      swap2\n      swap1\n      pop\n      jump\t// out\n        /* \"#utility.yul\":489:609   */\n    tag_309:\n        /* \"#utility.yul\":561:584   */\n      tag_371\n        /* \"#utility.yul\":578:583   */\n      dup2\n        /* \"#utility.yul\":561:584   */\n      tag_308\n      jump\t// in\n    tag_371:\n        /* \"#utility.yul\":554:559   */\n      dup2\n        /* \"#utility.yul\":551:585   */\n      eq\n        /* \"#utility.yul\":541:603   */\n      tag_372\n      jumpi\n        /* \"#utility.yul\":599:600   */\n      0x00\n        /* \"#utility.yul\":596:597   */\n      dup1\n        /* \"#utility.yul\":589:601   */\n      revert\n        /* \"#utility.yul\":541:603   */\n    tag_372:\n        /* \"#utility.yul\":489:609   */\n      pop\n      jump\t// out\n        /* \"#utility.yul\":615:752   */\n    tag_310:\n        /* \"#utility.yul\":660:665   */\n      0x00\n        /* \"#utility.yul\":698:704   */\n      dup2\n        /* \"#utility.yul\":685:705   */\n      calldataload\n        /* \"#utility.yul\":676:705   */\n      swap1\n      pop\n        /* \"#utility.yul\":714:746   */\n      tag_374\n        /* \"#utility.yul\":740:745   */\n      dup2\n        /* \"#utility.yul\":714:746   */\n      tag_309\n      jump\t// in\n    tag_374:\n        /* \"#utility.yul\":615:752   */\n      swap3\n      swap2\n      pop\n      pop\n      jump\t// out\n        /* \"#utility.yul\":758:1085   */\n    tag_31:\n        /* \"#utility.yul\":816:822   */\n      0x00\n        /* \"#utility.yul\":865:867   */\n      0x20\n        /* \"#utility.yul\":853:862   */\n      dup3\n        /* \"#utility.yul\":844:851   */\n      dup5\n        /* \"#utility.yul\":840:863   */\n      sub\n        /* \"#utility.yul\":836:868   */\n      slt\n        /* \"#utility.yul\":833:952   */\n      iszero\n      tag_376\n      jumpi\n        /* \"#utility.yul\":871:950   */\n      tag_377\n      tag_306\n      jump\t// in\n    tag_377:\n        /* \"#utility.yul\":833:952   */\n    tag_376:\n        /* \"#utility.yul\":991:992   */\n      0x00\n        /* \"#utility.yul\":1016:1068   */\n      tag_378\n        /* \"#utility.yul\":1060:1067   */\n      dup5\n        /* \"#utility.yul\":1051:1057   */\n      dup3\n        /* \"#utility.yul\":1040:1049   */\n      dup6\n        /* \"#utility.yul\":1036:1058   */\n      add\n        /* \"#utility.yul\":1016:1068   */\n      tag_310\n      jump\t// in\n    tag_378:\n        /* \"#utility.yul\":1006:1068   */\n      swap2\n      pop\n        /* \"#utility.yul\":962:1078   */\n      pop\n        /* \"#utility.yul\":758:1085   */\n      swap3\n      swap2\n      pop\n      pop\n      jump\t// out\n        /* \"#utility.yul\":1091:1181   */\n    tag_311:\n        /* \"#utility.yul\":1125:1132   */\n      0x00\n        /* \"#utility.yul\":1168:1173   */\n      dup2\n        /* \"#utility.yul\":1161:1174   */\n      iszero\n        /* \"#utility.yul\":1154:1175   */\n      iszero\n        /* \"#utility.yul\":1143:1175   */\n      swap1\n      pop\n        /* \"#utility.yul\":1091:1181   */\n      swap2\n      swap1\n      pop\n      jump\t// out\n        /* \"#utility.yul\":1187:1296   */\n    tag_312:\n        /* \"#utility.yul\":1268:1289   */\n      tag_381\n        /* \"#utility.yul\":1283:1288   */\n      dup2\n        /* \"#utility.yul\":1268:1289   */\n      tag_311\n      jump\t// in\n    tag_381:\n        /* \"#utility.yul\":1263:1266   */\n      dup3\n        /* \"#utility.yul\":1256:1290   */\n      mstore\n        /* \"#utility.yul\":1187:1296   */\n      pop\n      pop\n      jump\t// out\n        /* \"#utility.yul\":1302:1512   */\n    tag_34:\n        /* \"#utility.yul\":1389:1393   */\n      0x00\n        /* \"#utility.yul\":1427:1429   */\n      0x20\n        /* \"#utility.yul\":1416:1425   */\n      dup3\n        /* \"#utility.yul\":1412:1430   */\n      add\n        /* \"#utility.yul\":1404:1430   */\n      swap1\n      pop\n        /* \"#utility.yul\":1440:1505   */\n      tag_383\n        /* \"#utility.yul\":1502:1503   */\n      0x00\n        /* \"#utility.yul\":1491:1500   */\n      dup4\n        /* \"#utility.yul\":1487:1504   */\n      add\n        /* \"#utility.yul\":1478:1484   */\n      dup5\n        /* \"#utility.yul\":1440:1505   */\n      tag_312\n      jump\t// in\n    tag_383:\n        /* \"#utility.yul\":1302:1512   */\n      swap3\n      swap2\n      pop\n      pop\n      jump\t// out\n        /* \"#utility.yul\":1518:1617   */\n    tag_313:\n        /* \"#utility.yul\":1570:1576   */\n      0x00\n        /* \"#utility.yul\":1604:1609   */\n      dup2\n        /* \"#utility.yul\":1598:1610   */\n      mload\n        /* \"#utility.yul\":1588:1610   */\n      swap1\n      pop\n        /* \"#utility.yul\":1518:1617   */\n      swap2\n      swap1\n      pop\n      jump\t// out\n        /* \"#utility.yul\":1623:1792   */\n    tag_314:\n        /* \"#utility.yul\":1707:1718   */\n      0x00\n        /* \"#utility.yul\":1741:1747   */\n      dup3\n        /* \"#utility.yul\":1736:1739   */\n      dup3\n        /* \"#utility.yul\":1729:1748   */\n      mstore\n        /* \"#utility.yul\":1781:1785   */\n      0x20\n        /* \"#utility.yul\":1776:1779   */\n      dup3\n        /* \"#utility.yul\":1772:1786   */\n      add\n        /* \"#utility.yul\":1757:1786   */\n      swap1\n      pop\n        /* \"#utility.yul\":1623:1792   */\n      swap3\n      swap2\n      pop\n      pop\n      jump\t// out\n        /* \"#utility.yul\":1798:2044   */\n    tag_315:\n        /* \"#utility.yul\":1879:1880   */\n      0x00\n        /* \"#utility.yul\":1889:2002   */\n    tag_387:\n        /* \"#utility.yul\":1903:1909   */\n      dup4\n        /* \"#utility.yul\":1900:1901   */\n      dup2\n        /* \"#utility.yul\":1897:1910   */\n      lt\n        /* \"#utility.yul\":1889:2002   */\n      iszero\n      tag_389\n      jumpi\n        /* \"#utility.yul\":1988:1989   */\n      dup1\n        /* \"#utility.yul\":1983:1986   */\n      dup3\n        /* \"#utility.yul\":1979:1990   */\n      add\n        /* \"#utility.yul\":1973:1991   */\n      mload\n        /* \"#utility.yul\":1969:1970   */\n      dup2\n        /* \"#utility.yul\":1964:1967   */\n      dup5\n        /* \"#utility.yul\":1960:1971   */\n      add\n        /* \"#utility.yul\":1953:1992   */\n      mstore\n        /* \"#utility.yul\":1925:1927   */\n      0x20\n        /* \"#utility.yul\":1922:1923   */\n      dup2\n        /* \"#utility.yul\":1918:1928   */\n      add\n        /* \"#utility.yul\":1913:1928   */\n      swap1\n      pop\n        /* \"#utility.yul\":1889:2002   */\n      jump(tag_387)\n    tag_389:\n        /* \"#utility.yul\":2036:2037   */\n      0x00\n        /* \"#utility.yul\":2027:2033   */\n      dup5\n        /* \"#utility.yul\":2022:2025   */\n      dup5\n        /* \"#utility.yul\":2018:2034   */\n      add\n        /* \"#utility.yul\":2011:2038   */\n      mstore\n        /* \"#utility.yul\":1860:2044   */\n      pop\n        /* \"#utility.yul\":1798:2044   */\n      pop\n      pop\n      pop\n      jump\t// out\n        /* \"#utility.yul\":2050:2152   */\n    tag_316:\n        /* \"#utility.yul\":2091:2097   */\n      0x00\n        /* \"#utility.yul\":2142:2144   */\n      0x1f\n        /* \"#utility.yul\":2138:2145   */\n      not\n        /* \"#utility.yul\":2133:2135   */\n      0x1f\n        /* \"#utility.yul\":2126:2131   */\n      dup4\n        /* \"#utility.yul\":2122:2136   */\n      add\n        /* \"#utility.yul\":2118:2146   */\n      and\n        /* \"#utility.yul\":2108:2146   */\n      swap1\n      pop\n        /* \"#utility.yul\":2050:2152   */\n      swap2\n      swap1\n      pop\n      jump\t// out\n        /* \"#utility.yul\":2158:2535   */\n    tag_317:\n        /* \"#utility.yul\":2246:2249   */\n      0x00\n        /* \"#utility.yul\":2274:2313   */\n      tag_392\n        /* \"#utility.yul\":2307:2312   */\n      dup3\n        /* \"#utility.yul\":2274:2313   */\n      tag_313\n      jump\t// in\n    tag_392:\n        /* \"#utility.yul\":2329:2400   */\n      tag_393\n        /* \"#utility.yul\":2393:2399   */\n      dup2\n        /* \"#utility.yul\":2388:2391   */\n      dup6\n        /* \"#utility.yul\":2329:2400   */\n      tag_314\n      jump\t// in\n    tag_393:\n        /* \"#utility.yul\":2322:2400   */\n      swap4\n      pop\n        /* \"#utility.yul\":2409:2474   */\n      tag_394\n        /* \"#utility.yul\":2467:2473   */\n      dup2\n        /* \"#utility.yul\":2462:2465   */\n      dup6\n        /* \"#utility.yul\":2455:2459   */\n      0x20\n        /* \"#utility.yul\":2448:2453   */\n      dup7\n        /* \"#utility.yul\":2444:2460   */\n      add\n        /* \"#utility.yul\":2409:2474   */\n      tag_315\n      jump\t// in\n    tag_394:\n        /* \"#utility.yul\":2499:2528   */\n      tag_395\n        /* \"#utility.yul\":2521:2527   */\n      dup2\n        /* \"#utility.yul\":2499:2528   */\n      tag_316\n      jump\t// in\n    tag_395:\n        /* \"#utility.yul\":2494:2497   */\n      dup5\n        /* \"#utility.yul\":2490:2529   */\n      add\n        /* \"#utility.yul\":2483:2529   */\n      swap2\n      pop\n        /* \"#utility.yul\":2250:2535   */\n      pop\n        /* \"#utility.yul\":2158:2535   */\n      swap3\n      swap2\n      pop\n      pop\n      jump\t// out\n        /* \"#utility.yul\":2541:2854   */\n    tag_38:\n        /* \"#utility.yul\":2654:2658   */\n      0x00\n        /* \"#utility.yul\":2692:2694   */\n      0x20\n        /* \"#utility.yul\":2681:2690   */\n      dup3\n        /* \"#utility.yul\":2677:2695   */\n      add\n        /* \"#utility.yul\":2669:2695   */\n      swap1\n      pop\n        /* \"#utility.yul\":2741:2750   */\n      dup2\n        /* \"#utility.yul\":2735:2739   */\n      dup2\n        /* \"#utility.yul\":2731:2751   */\n      sub\n        /* \"#utility.yul\":2727:2728   */\n      0x00\n        /* \"#utility.yul\":2716:2725   */\n      dup4\n        /* \"#utility.yul\":2712:2729   */\n      add\n        /* \"#utility.yul\":2705:2752   */\n      mstore\n        /* \"#utility.yul\":2769:2847   */\n      tag_397\n        /* \"#utility.yul\":2842:2846   */\n      dup2\n        /* \"#utility.yul\":2833:2839   */\n      dup5\n        /* \"#utility.yul\":2769:2847   */\n      tag_317\n      jump\t// in\n    tag_397:\n        /* \"#utility.yul\":2761:2847   */\n      swap1\n      pop\n        /* \"#utility.yul\":2541:2854   */\n      swap3\n      swap2\n      pop\n      pop\n      jump\t// out\n        /* \"#utility.yul\":2860:2986   */\n    tag_318:\n        /* \"#utility.yul\":2897:2904   */\n      0x00\n        /* \"#utility.yul\":2937:2979   */\n      0xffffffffffffffffffffffffffffffffffffffff\n        /* \"#utility.yul\":2930:2935   */\n      dup3\n        /* \"#utility.yul\":2926:2980   */\n      and\n        /* \"#utility.yul\":2915:2980   */\n      swap1\n      pop\n        /* \"#utility.yul\":2860:2986   */\n      swap2\n      swap1\n      pop\n      jump\t// out\n        /* \"#utility.yul\":2992:3088   */\n    tag_319:\n        /* \"#utility.yul\":3029:3036   */\n      0x00\n        /* \"#utility.yul\":3058:3082   */\n      tag_400\n        /* \"#utility.yul\":3076:3081   */\n      dup3\n        /* \"#utility.yul\":3058:3082   */\n      tag_318\n      jump\t// in\n    tag_400:\n        /* \"#utility.yul\":3047:3082   */\n      swap1\n      pop\n        /* \"#utility.yul\":2992:3088   */\n      swap2\n      swap1\n      pop\n      jump\t// out\n        /* \"#utility.yul\":3094:3216   */\n    tag_320:\n        /* \"#utility.yul\":3167:3191   */\n      tag_402\n        /* \"#utility.yul\":3185:3190   */\n      dup2\n        /* \"#utility.yul\":3167:3191   */\n      tag_319\n      jump\t// in\n    tag_402:\n        /* \"#utility.yul\":3160:3165   */\n      dup2\n        /* \"#utility.yul\":3157:3192   */\n      eq\n        /* \"#utility.yul\":3147:3210   */\n      tag_403\n      jumpi\n        /* \"#utility.yul\":3206:3207   */\n      0x00\n        /* \"#utility.yul\":3203:3204   */\n      dup1\n        /* \"#utility.yul\":3196:3208   */\n      revert\n        /* \"#utility.yul\":3147:3210   */\n    tag_403:\n        /* \"#utility.yul\":3094:3216   */\n      pop\n      jump\t// out\n        /* \"#utility.yul\":3222:3361   */\n    tag_321:\n        /* \"#utility.yul\":3268:3273   */\n      0x00\n        /* \"#utility.yul\":3306:3312   */\n      dup2\n        /* \"#utility.yul\":3293:3313   */\n      calldataload\n        /* \"#utility.yul\":3284:3313   */\n      swap1\n      pop\n        /* \"#utility.yul\":3322:3355   */\n      tag_405\n        /* \"#utility.yul\":3349:3354   */\n      dup2\n        /* \"#utility.yul\":3322:3355   */\n      tag_320\n      jump\t// in\n    tag_405:\n        /* \"#utility.yul\":3222:3361   */\n      swap3\n      swap2\n      pop\n      pop\n      jump\t// out\n        /* \"#utility.yul\":3367:3444   */\n    tag_322:\n        /* \"#utility.yul\":3404:3411   */\n      0x00\n        /* \"#utility.yul\":3433:3438   */\n      dup2\n        /* \"#utility.yul\":3422:3438   */\n      swap1\n      pop\n        /* \"#utility.yul\":3367:3444   */\n      swap2\n      swap1\n      pop\n      jump\t// out\n        /* \"#utility.yul\":3450:3572   */\n    tag_323:\n        /* \"#utility.yul\":3523:3547   */\n      tag_408\n        /* \"#utility.yul\":3541:3546   */\n      dup2\n        /* \"#utility.yul\":3523:3547   */\n      tag_322\n      jump\t// in\n    tag_408:\n        /* \"#utility.yul\":3516:3521   */\n      dup2\n        /* \"#utility.yul\":3513:3548   */\n      eq\n        /* \"#utility.yul\":3503:3566   */\n      tag_409\n      jumpi\n        /* \"#utility.yul\":3562:3563   */\n      0x00\n        /* \"#utility.yul\":3559:3560   */\n      dup1\n        /* \"#utility.yul\":3552:3564   */\n      revert\n        /* \"#utility.yul\":3503:3566   */\n    tag_409:\n        /* \"#utility.yul\":3450:3572   */\n      pop\n      jump\t// out\n        /* \"#utility.yul\":3578:3717   */\n    tag_324:\n        /* \"#utility.yul\":3624:3629   */\n      0x00\n        /* \"#utility.yul\":3662:3668   */\n      dup2\n        /* \"#utility.yul\":3649:3669   */\n      calldataload\n        /* \"#utility.yul\":3640:3669   */\n      swap1\n      pop\n        /* \"#utility.yul\":3678:3711   */\n      tag_411\n        /* \"#utility.yul\":3705:3710   */\n      dup2\n        /* \"#utility.yul\":3678:3711   */\n      tag_323\n      jump\t// in\n    tag_411:\n        /* \"#utility.yul\":3578:3717   */\n      swap3\n      swap2\n      pop\n      pop\n      jump\t// out\n        /* \"#utility.yul\":3723:4197   */\n    tag_41:\n        /* \"#utility.yul\":3791:3797   */\n      0x00\n        /* \"#utility.yul\":3799:3805   */\n      dup1\n        /* \"#utility.yul\":3848:3850   */\n      0x40\n        /* \"#utility.yul\":3836:3845   */\n      dup4\n        /* \"#utility.yul\":3827:3834   */\n      dup6\n        /* \"#utility.yul\":3823:3846   */\n      sub\n        /* \"#utility.yul\":3819:3851   */\n      slt\n        /* \"#utility.yul\":3816:3935   */\n      iszero\n      tag_413\n      jumpi\n        /* \"#utility.yul\":3854:3933   */\n      tag_414\n      tag_306\n      jump\t// in\n    tag_414:\n        /* \"#utility.yul\":3816:3935   */\n    tag_413:\n        /* \"#utility.yul\":3974:3975   */\n      0x00\n        /* \"#utility.yul\":3999:4052   */\n      tag_415\n        /* \"#utility.yul\":4044:4051   */\n      dup6\n        /* \"#utility.yul\":4035:4041   */\n      dup3\n        /* \"#utility.yul\":4024:4033   */\n      dup7\n        /* \"#utility.yul\":4020:4042   */\n      add\n        /* \"#utility.yul\":3999:4052   */\n      tag_321\n      jump\t// in\n    tag_415:\n        /* \"#utility.yul\":3989:4052   */\n      swap3\n      pop\n        /* \"#utility.yul\":3945:4062   */\n      pop\n        /* \"#utility.yul\":4101:4103   */\n      0x20\n        /* \"#utility.yul\":4127:4180   */\n      tag_416\n        /* \"#utility.yul\":4172:4179   */\n      dup6\n        /* \"#utility.yul\":4163:4169   */\n      dup3\n        /* \"#utility.yul\":4152:4161   */\n      dup7\n        /* \"#utility.yul\":4148:4170   */\n      add\n        /* \"#utility.yul\":4127:4180   */\n      tag_324\n      jump\t// in\n    tag_416:\n        /* \"#utility.yul\":4117:4180   */\n      swap2\n      pop\n        /* \"#utility.yul\":4072:4190   */\n      pop\n        /* \"#utility.yul\":3723:4197   */\n      swap3\n      pop\n      swap3\n      swap1\n      pop\n      jump\t// out\n        /* \"#utility.yul\":4203:4321   */\n    tag_325:\n        /* \"#utility.yul\":4290:4314   */\n      tag_418\n        /* \"#utility.yul\":4308:4313   */\n      dup2\n        /* \"#utility.yul\":4290:4314   */\n      tag_322\n      jump\t// in\n    tag_418:\n        /* \"#utility.yul\":4285:4288   */\n      dup3\n        /* \"#utility.yul\":4278:4315   */\n      mstore\n        /* \"#utility.yul\":4203:4321   */\n      pop\n      pop\n      jump\t// out\n        /* \"#utility.yul\":4327:4549   */\n    tag_47:\n        /* \"#utility.yul\":4420:4424   */\n      0x00\n        /* \"#utility.yul\":4458:4460   */\n      0x20\n        /* \"#utility.yul\":4447:4456   */\n      dup3\n        /* \"#utility.yul\":4443:4461   */\n      add\n        /* \"#utility.yul\":4435:4461   */\n      swap1\n      pop\n        /* \"#utility.yul\":4471:4542   */\n      tag_420\n        /* \"#utility.yul\":4539:4540   */\n      0x00\n        /* \"#utility.yul\":4528:4537   */\n      dup4\n        /* \"#utility.yul\":4524:4541   */\n      add\n        /* \"#utility.yul\":4515:4521   */\n      dup5\n        /* \"#utility.yul\":4471:4542   */\n      tag_325\n      jump\t// in\n    tag_420:\n        /* \"#utility.yul\":4327:4549   */\n      swap3\n      swap2\n      pop\n      pop\n      jump\t// out\n        /* \"#utility.yul\":4555:5174   */\n    tag_50:\n        /* \"#utility.yul\":4632:4638   */\n      0x00\n        /* \"#utility.yul\":4640:4646   */\n      dup1\n        /* \"#utility.yul\":4648:4654   */\n      0x00\n        /* \"#utility.yul\":4697:4699   */\n      0x60\n        /* \"#utility.yul\":4685:4694   */\n      dup5\n        /* \"#utility.yul\":4676:4683   */\n      dup7\n        /* \"#utility.yul\":4672:4695   */\n      sub\n        /* \"#utility.yul\":4668:4700   */\n      slt\n        /* \"#utility.yul\":4665:4784   */\n      iszero\n      tag_422\n      jumpi\n        /* \"#utility.yul\":4703:4782   */\n      tag_423\n      tag_306\n      jump\t// in\n    tag_423:\n        /* \"#utility.yul\":4665:4784   */\n    tag_422:\n        /* \"#utility.yul\":4823:4824   */\n      0x00\n        /* \"#utility.yul\":4848:4901   */\n      tag_424\n        /* \"#utility.yul\":4893:4900   */\n      dup7\n        /* \"#utility.yul\":4884:4890   */\n      dup3\n        /* \"#utility.yul\":4873:4882   */\n      dup8\n        /* \"#utility.yul\":4869:4891   */\n      add\n        /* \"#utility.yul\":4848:4901   */\n      tag_321\n      jump\t// in\n    tag_424:\n        /* \"#utility.yul\":4838:4901   */\n      swap4\n      pop\n        /* \"#utility.yul\":4794:4911   */\n      pop\n        /* \"#utility.yul\":4950:4952   */\n      0x20\n        /* \"#utility.yul\":4976:5029   */\n      tag_425\n        /* \"#utility.yul\":5021:5028   */\n      dup7\n        /* \"#utility.yul\":5012:5018   */\n      dup3\n        /* \"#utility.yul\":5001:5010   */\n      dup8\n        /* \"#utility.yul\":4997:5019   */\n      add\n        /* \"#utility.yul\":4976:5029   */\n      tag_321\n      jump\t// in\n    tag_425:\n        /* \"#utility.yul\":4966:5029   */\n      swap3\n      pop\n        /* \"#utility.yul\":4921:5039   */\n      pop\n        /* \"#utility.yul\":5078:5080   */\n      0x40\n        /* \"#utility.yul\":5104:5157   */\n      tag_426\n        /* \"#utility.yul\":5149:5156   */\n      dup7\n        /* \"#utility.yul\":5140:5146   */\n      dup3\n        /* \"#utility.yul\":5129:5138   */\n      dup8\n        /* \"#utility.yul\":5125:5147   */\n      add\n        /* \"#utility.yul\":5104:5157   */\n      tag_324\n      jump\t// in\n    tag_426:\n        /* \"#utility.yul\":5094:5157   */\n      swap2\n      pop\n        /* \"#utility.yul\":5049:5167   */\n      pop\n        /* \"#utility.yul\":4555:5174   */\n      swap3\n      pop\n      swap3\n      pop\n      swap3\n      jump\t// out\n        /* \"#utility.yul\":5180:5257   */\n    tag_326:\n        /* \"#utility.yul\":5217:5224   */\n      0x00\n        /* \"#utility.yul\":5246:5251   */\n      dup2\n        /* \"#utility.yul\":5235:5251   */\n      swap1\n      pop\n        /* \"#utility.yul\":5180:5257   */\n      swap2\n      swap1\n      pop\n      jump\t// out\n        /* \"#utility.yul\":5263:5385   */\n    tag_327:\n        /* \"#utility.yul\":5336:5360   */\n      tag_429\n        /* \"#utility.yul\":5354:5359   */\n      dup2\n        /* \"#utility.yul\":5336:5360   */\n      tag_326\n      jump\t// in\n    tag_429:\n        /* \"#utility.yul\":5329:5334   */\n      dup2\n        /* \"#utility.yul\":5326:5361   */\n      eq\n        /* \"#utility.yul\":5316:5379   */\n      tag_430\n      jumpi\n        /* \"#utility.yul\":5375:5376   */\n      0x00\n        /* \"#utility.yul\":5372:5373   */\n      dup1\n        /* \"#utility.yul\":5365:5377   */\n      revert\n        /* \"#utility.yul\":5316:5379   */\n    tag_430:\n        /* \"#utility.yul\":5263:5385   */\n      pop\n      jump\t// out\n        /* \"#utility.yul\":5391:5530   */\n    tag_328:\n        /* \"#utility.yul\":5437:5442   */\n      0x00\n        /* \"#utility.yul\":5475:5481   */\n      dup2\n        /* \"#utility.yul\":5462:5482   */\n      calldataload\n        /* \"#utility.yul\":5453:5482   */\n      swap1\n      pop\n        /* \"#utility.yul\":5491:5524   */\n      tag_432\n        /* \"#utility.yul\":5518:5523   */\n      dup2\n        /* \"#utility.yul\":5491:5524   */\n      tag_327\n      jump\t// in\n    tag_432:\n        /* \"#utility.yul\":5391:5530   */\n      swap3\n      swap2\n      pop\n      pop\n      jump\t// out\n        /* \"#utility.yul\":5536:5865   */\n    tag_55:\n        /* \"#utility.yul\":5595:5601   */\n      0x00\n        /* \"#utility.yul\":5644:5646   */\n      0x20\n        /* \"#utility.yul\":5632:5641   */\n      dup3\n        /* \"#utility.yul\":5623:5630   */\n      dup5\n        /* \"#utility.yul\":5619:5642   */\n      sub\n        /* \"#utility.yul\":5615:5647   */\n      slt\n        /* \"#utility.yul\":5612:5731   */\n      iszero\n      tag_434\n      jumpi\n        /* \"#utility.yul\":5650:5729   */\n      tag_435\n      tag_306\n      jump\t// in\n    tag_435:\n        /* \"#utility.yul\":5612:5731   */\n    tag_434:\n        /* \"#utility.yul\":5770:5771   */\n      0x00\n        /* \"#utility.yul\":5795:5848   */\n      tag_436\n        /* \"#utility.yul\":5840:5847   */\n      dup5\n        /* \"#utility.yul\":5831:5837   */\n      dup3\n        /* \"#utility.yul\":5820:5829   */\n      dup6\n        /* \"#utility.yul\":5816:5838   */\n      add\n        /* \"#utility.yul\":5795:5848   */\n      tag_328\n      jump\t// in\n    tag_436:\n        /* \"#utility.yul\":5785:5848   */\n      swap2\n      pop\n        /* \"#utility.yul\":5741:5858   */\n      pop\n        /* \"#utility.yul\":5536:5865   */\n      swap3\n      swap2\n      pop\n      pop\n      jump\t// out\n        /* \"#utility.yul\":5871:5989   */\n    tag_329:\n        /* \"#utility.yul\":5958:5982   */\n      tag_438\n        /* \"#utility.yul\":5976:5981   */\n      dup2\n        /* \"#utility.yul\":5958:5982   */\n      tag_326\n      jump\t// in\n    tag_438:\n        /* \"#utility.yul\":5953:5956   */\n      dup3\n        /* \"#utility.yul\":5946:5983   */\n      mstore\n        /* \"#utility.yul\":5871:5989   */\n      pop\n      pop\n      jump\t// out\n        /* \"#utility.yul\":5995:6217   */\n    tag_58:\n        /* \"#utility.yul\":6088:6092   */\n      0x00\n        /* \"#utility.yul\":6126:6128   */\n      0x20\n        /* \"#utility.yul\":6115:6124   */\n      dup3\n        /* \"#utility.yul\":6111:6129   */\n      add\n        /* \"#utility.yul\":6103:6129   */\n      swap1\n      pop\n        /* \"#utility.yul\":6139:6210   */\n      tag_440\n        /* \"#utility.yul\":6207:6208   */\n      0x00\n        /* \"#utility.yul\":6196:6205   */\n      dup4\n        /* \"#utility.yul\":6192:6209   */\n      add\n        /* \"#utility.yul\":6183:6189   */\n      dup5\n        /* \"#utility.yul\":6139:6210   */\n      tag_329\n      jump\t// in\n    tag_440:\n        /* \"#utility.yul\":5995:6217   */\n      swap3\n      swap2\n      pop\n      pop\n      jump\t// out\n        /* \"#utility.yul\":6223:6697   */\n    tag_61:\n        /* \"#utility.yul\":6291:6297   */\n      0x00\n        /* \"#utility.yul\":6299:6305   */\n      dup1\n        /* \"#utility.yul\":6348:6350   */\n      0x40\n        /* \"#utility.yul\":6336:6345   */\n      dup4\n        /* \"#utility.yul\":6327:6334   */\n      dup6\n        /* \"#utility.yul\":6323:6346   */\n      sub\n        /* \"#utility.yul\":6319:6351   */\n      slt\n        /* \"#utility.yul\":6316:6435   */\n      iszero\n      tag_442\n      jumpi\n        /* \"#utility.yul\":6354:6433   */\n      tag_443\n      tag_306\n      jump\t// in\n    tag_443:\n        /* \"#utility.yul\":6316:6435   */\n    tag_442:\n        /* \"#utility.yul\":6474:6475   */\n      0x00\n        /* \"#utility.yul\":6499:6552   */\n      tag_444\n        /* \"#utility.yul\":6544:6551   */\n      dup6\n        /* \"#utility.yul\":6535:6541   */\n      dup3\n        /* \"#utility.yul\":6524:6533   */\n      dup7\n        /* \"#utility.yul\":6520:6542   */\n      add\n        /* \"#utility.yul\":6499:6552   */\n      tag_328\n      jump\t// in\n    tag_444:\n        /* \"#utility.yul\":6489:6552   */\n      swap3\n      pop\n        /* \"#utility.yul\":6445:6562   */\n      pop\n        /* \"#utility.yul\":6601:6603   */\n      0x20\n        /* \"#utility.yul\":6627:6680   */\n      tag_445\n        /* \"#utility.yul\":6672:6679   */\n      dup6\n        /* \"#utility.yul\":6663:6669   */\n      dup3\n        /* \"#utility.yul\":6652:6661   */\n      dup7\n        /* \"#utility.yul\":6648:6670   */\n      add\n        /* \"#utility.yul\":6627:6680   */\n      tag_321\n      jump\t// in\n    tag_445:\n        /* \"#utility.yul\":6617:6680   */\n      swap2\n      pop\n        /* \"#utility.yul\":6572:6690   */\n      pop\n        /* \"#utility.yul\":6223:6697   */\n      swap3\n      pop\n      swap3\n      swap1\n      pop\n      jump\t// out\n        /* \"#utility.yul\":6703:6789   */\n    tag_330:\n        /* \"#utility.yul\":6738:6745   */\n      0x00\n        /* \"#utility.yul\":6778:6782   */\n      0xff\n        /* \"#utility.yul\":6771:6776   */\n      dup3\n        /* \"#utility.yul\":6767:6783   */\n      and\n        /* \"#utility.yul\":6756:6783   */\n      swap1\n      pop\n        /* \"#utility.yul\":6703:6789   */\n      swap2\n      swap1\n      pop\n      jump\t// out\n        /* \"#utility.yul\":6795:6907   */\n    tag_331:\n        /* \"#utility.yul\":6878:6900   */\n      tag_448\n        /* \"#utility.yul\":6894:6899   */\n      dup2\n        /* \"#utility.yul\":6878:6900   */\n      tag_330\n      jump\t// in\n    tag_448:\n        /* \"#utility.yul\":6873:6876   */\n      dup3\n        /* \"#utility.yul\":6866:6901   */\n      mstore\n        /* \"#utility.yul\":6795:6907   */\n      pop\n      pop\n      jump\t// out\n        /* \"#utility.yul\":6913:7127   */\n    tag_66:\n        /* \"#utility.yul\":7002:7006   */\n      0x00\n        /* \"#utility.yul\":7040:7042   */\n      0x20\n        /* \"#utility.yul\":7029:7038   */\n      dup3\n        /* \"#utility.yul\":7025:7043   */\n      add\n        /* \"#utility.yul\":7017:7043   */\n      swap1\n      pop\n        /* \"#utility.yul\":7053:7120   */\n      tag_450\n        /* \"#utility.yul\":7117:7118   */\n      0x00\n        /* \"#utility.yul\":7106:7115   */\n      dup4\n        /* \"#utility.yul\":7102:7119   */\n      add\n        /* \"#utility.yul\":7093:7099   */\n      dup5\n        /* \"#utility.yul\":7053:7120   */\n      tag_331\n      jump\t// in\n    tag_450:\n        /* \"#utility.yul\":6913:7127   */\n      swap3\n      swap2\n      pop\n      pop\n      jump\t// out\n        /* \"#utility.yul\":7133:7193   */\n    tag_332:\n        /* \"#utility.yul\":7161:7164   */\n      0x00\n        /* \"#utility.yul\":7182:7187   */\n      dup2\n        /* \"#utility.yul\":7175:7187   */\n      swap1\n      pop\n        /* \"#utility.yul\":7133:7193   */\n      swap2\n      swap1\n      pop\n      jump\t// out\n        /* \"#utility.yul\":7199:7341   */\n    tag_333:\n        /* \"#utility.yul\":7249:7258   */\n      0x00\n        /* \"#utility.yul\":7282:7335   */\n      tag_453\n        /* \"#utility.yul\":7300:7334   */\n      tag_454\n        /* \"#utility.yul\":7309:7333   */\n      tag_455\n        /* \"#utility.yul\":7327:7332   */\n      dup5\n        /* \"#utility.yul\":7309:7333   */\n      tag_318\n      jump\t// in\n    tag_455:\n        /* \"#utility.yul\":7300:7334   */\n      tag_332\n      jump\t// in\n    tag_454:\n        /* \"#utility.yul\":7282:7335   */\n      tag_318\n      jump\t// in\n    tag_453:\n        /* \"#utility.yul\":7269:7335   */\n      swap1\n      pop\n        /* \"#utility.yul\":7199:7341   */\n      swap2\n      swap1\n      pop\n      jump\t// out\n        /* \"#utility.yul\":7347:7473   */\n    tag_334:\n        /* \"#utility.yul\":7397:7406   */\n      0x00\n        /* \"#utility.yul\":7430:7467   */\n      tag_457\n        /* \"#utility.yul\":7461:7466   */\n      dup3\n        /* \"#utility.yul\":7430:7467   */\n      tag_333\n      jump\t// in\n    tag_457:\n        /* \"#utility.yul\":7417:7467   */\n      swap1\n      pop\n        /* \"#utility.yul\":7347:7473   */\n      swap2\n      swap1\n      pop\n      jump\t// out\n        /* \"#utility.yul\":7479:7623   */\n    tag_335:\n        /* \"#utility.yul\":7547:7556   */\n      0x00\n        /* \"#utility.yul\":7580:7617   */\n      tag_459\n        /* \"#utility.yul\":7611:7616   */\n      dup3\n        /* \"#utility.yul\":7580:7617   */\n      tag_334\n      jump\t// in\n    tag_459:\n        /* \"#utility.yul\":7567:7617   */\n      swap1\n      pop\n        /* \"#utility.yul\":7479:7623   */\n      swap2\n      swap1\n      pop\n      jump\t// out\n        /* \"#utility.yul\":7629:7796   */\n    tag_336:\n        /* \"#utility.yul\":7734:7789   */\n      tag_461\n        /* \"#utility.yul\":7783:7788   */\n      dup2\n        /* \"#utility.yul\":7734:7789   */\n      tag_335\n      jump\t// in\n    tag_461:\n        /* \"#utility.yul\":7729:7732   */\n      dup3\n        /* \"#utility.yul\":7722:7790   */\n      mstore\n        /* \"#utility.yul\":7629:7796   */\n      pop\n      pop\n      jump\t// out\n        /* \"#utility.yul\":7802:8060   */\n    tag_81:\n        /* \"#utility.yul\":7913:7917   */\n      0x00\n        /* \"#utility.yul\":7951:7953   */\n      0x20\n        /* \"#utility.yul\":7940:7949   */\n      dup3\n        /* \"#utility.yul\":7936:7954   */\n      add\n        /* \"#utility.yul\":7928:7954   */\n      swap1\n      pop\n        /* \"#utility.yul\":7964:8053   */\n      tag_463\n        /* \"#utility.yul\":8050:8051   */\n      0x00\n        /* \"#utility.yul\":8039:8048   */\n      dup4\n        /* \"#utility.yul\":8035:8052   */\n      add\n        /* \"#utility.yul\":8026:8032   */\n      dup5\n        /* \"#utility.yul\":7964:8053   */\n      tag_336\n      jump\t// in\n    tag_463:\n        /* \"#utility.yul\":7802:8060   */\n      swap3\n      swap2\n      pop\n      pop\n      jump\t// out\n        /* \"#utility.yul\":8066:8395   */\n    tag_84:\n        /* \"#utility.yul\":8125:8131   */\n      0x00\n        /* \"#utility.yul\":8174:8176   */\n      0x20\n        /* \"#utility.yul\":8162:8171   */\n      dup3\n        /* \"#utility.yul\":8153:8160   */\n      dup5\n        /* \"#utility.yul\":8149:8172   */\n      sub\n        /* \"#utility.yul\":8145:8177   */\n      slt\n        /* \"#utility.yul\":8142:8261   */\n      iszero\n      tag_465\n      jumpi\n        /* \"#utility.yul\":8180:8259   */\n      tag_466\n      tag_306\n      jump\t// in\n    tag_466:\n        /* \"#utility.yul\":8142:8261   */\n    tag_465:\n        /* \"#utility.yul\":8300:8301   */\n      0x00\n        /* \"#utility.yul\":8325:8378   */\n      tag_467\n        /* \"#utility.yul\":8370:8377   */\n      dup5\n        /* \"#utility.yul\":8361:8367   */\n      dup3\n        /* \"#utility.yul\":8350:8359   */\n      dup6\n        /* \"#utility.yul\":8346:8368   */\n      add\n        /* \"#utility.yul\":8325:8378   */\n      tag_321\n      jump\t// in\n    tag_467:\n        /* \"#utility.yul\":8315:8378   */\n      swap2\n      pop\n        /* \"#utility.yul\":8271:8388   */\n      pop\n        /* \"#utility.yul\":8066:8395   */\n      swap3\n      swap2\n      pop\n      pop\n      jump\t// out\n        /* \"#utility.yul\":8401:8518   */\n    tag_337:\n        /* \"#utility.yul\":8510:8511   */\n      0x00\n        /* \"#utility.yul\":8507:8508   */\n      dup1\n        /* \"#utility.yul\":8500:8512   */\n      revert\n        /* \"#utility.yul\":8524:8641   */\n    tag_338:\n        /* \"#utility.yul\":8633:8634   */\n      0x00\n        /* \"#utility.yul\":8630:8631   */\n      dup1\n        /* \"#utility.yul\":8623:8635   */\n      revert\n        /* \"#utility.yul\":8647:8764   */\n    tag_339:\n        /* \"#utility.yul\":8756:8757   */\n      0x00\n        /* \"#utility.yul\":8753:8754   */\n      dup1\n        /* \"#utility.yul\":8746:8758   */\n      revert\n        /* \"#utility.yul\":8784:9337   */\n    tag_340:\n        /* \"#utility.yul\":8842:8850   */\n      0x00\n        /* \"#utility.yul\":8852:8858   */\n      dup1\n        /* \"#utility.yul\":8902:8905   */\n      dup4\n        /* \"#utility.yul\":8895:8899   */\n      0x1f\n        /* \"#utility.yul\":8887:8893   */\n      dup5\n        /* \"#utility.yul\":8883:8900   */\n      add\n        /* \"#utility.yul\":8879:8906   */\n      slt\n        /* \"#utility.yul\":8869:8991   */\n      tag_472\n      jumpi\n        /* \"#utility.yul\":8910:8989   */\n      tag_473\n      tag_337\n      jump\t// in\n    tag_473:\n        /* \"#utility.yul\":8869:8991   */\n    tag_472:\n        /* \"#utility.yul\":9023:9029   */\n      dup3\n        /* \"#utility.yul\":9010:9030   */\n      calldataload\n        /* \"#utility.yul\":9000:9030   */\n      swap1\n      pop\n        /* \"#utility.yul\":9053:9071   */\n      0xffffffffffffffff\n        /* \"#utility.yul\":9045:9051   */\n      dup2\n        /* \"#utility.yul\":9042:9072   */\n      gt\n        /* \"#utility.yul\":9039:9156   */\n      iszero\n      tag_474\n      jumpi\n        /* \"#utility.yul\":9075:9154   */\n      tag_475\n      tag_338\n      jump\t// in\n    tag_475:\n        /* \"#utility.yul\":9039:9156   */\n    tag_474:\n        /* \"#utility.yul\":9189:9193   */\n      0x20\n        /* \"#utility.yul\":9181:9187   */\n      dup4\n        /* \"#utility.yul\":9177:9194   */\n      add\n        /* \"#utility.yul\":9165:9194   */\n      swap2\n      pop\n        /* \"#utility.yul\":9243:9246   */\n      dup4\n        /* \"#utility.yul\":9235:9239   */\n      0x01\n        /* \"#utility.yul\":9227:9233   */\n      dup3\n        /* \"#utility.yul\":9223:9240   */\n      mul\n        /* \"#utility.yul\":9213:9221   */\n      dup4\n        /* \"#utility.yul\":9209:9241   */\n      add\n        /* \"#utility.yul\":9206:9247   */\n      gt\n        /* \"#utility.yul\":9203:9331   */\n      iszero\n      tag_476\n      jumpi\n        /* \"#utility.yul\":9250:9329   */\n      tag_477\n      tag_339\n      jump\t// in\n    tag_477:\n        /* \"#utility.yul\":9203:9331   */\n    tag_476:\n        /* \"#utility.yul\":8784:9337   */\n      swap3\n      pop\n      swap3\n      swap1\n      pop\n      jump\t// out\n        /* \"#utility.yul\":9343:10308   */\n    tag_94:\n        /* \"#utility.yul\":9441:9447   */\n      0x00\n        /* \"#utility.yul\":9449:9455   */\n      dup1\n        /* \"#utility.yul\":9457:9463   */\n      0x00\n        /* \"#utility.yul\":9465:9471   */\n      dup1\n        /* \"#utility.yul\":9473:9479   */\n      0x00\n        /* \"#utility.yul\":9522:9525   */\n      0x80\n        /* \"#utility.yul\":9510:9519   */\n      dup7\n        /* \"#utility.yul\":9501:9508   */\n      dup9\n        /* \"#utility.yul\":9497:9520   */\n      sub\n        /* \"#utility.yul\":9493:9526   */\n      slt\n        /* \"#utility.yul\":9490:9610   */\n      iszero\n      tag_479\n      jumpi\n        /* \"#utility.yul\":9529:9608   */\n      tag_480\n      tag_306\n      jump\t// in\n    tag_480:\n        /* \"#utility.yul\":9490:9610   */\n    tag_479:\n        /* \"#utility.yul\":9649:9650   */\n      0x00\n        /* \"#utility.yul\":9674:9727   */\n      tag_481\n        /* \"#utility.yul\":9719:9726   */\n      dup9\n        /* \"#utility.yul\":9710:9716   */\n      dup3\n        /* \"#utility.yul\":9699:9708   */\n      dup10\n        /* \"#utility.yul\":9695:9717   */\n      add\n        /* \"#utility.yul\":9674:9727   */\n      tag_321\n      jump\t// in\n    tag_481:\n        /* \"#utility.yul\":9664:9727   */\n      swap6\n      pop\n        /* \"#utility.yul\":9620:9737   */\n      pop\n        /* \"#utility.yul\":9776:9778   */\n      0x20\n        /* \"#utility.yul\":9802:9855   */\n      tag_482\n        /* \"#utility.yul\":9847:9854   */\n      dup9\n        /* \"#utility.yul\":9838:9844   */\n      dup3\n        /* \"#utility.yul\":9827:9836   */\n      dup10\n        /* \"#utility.yul\":9823:9845   */\n      add\n        /* \"#utility.yul\":9802:9855   */\n      tag_321\n      jump\t// in\n    tag_482:\n        /* \"#utility.yul\":9792:9855   */\n      swap5\n      pop\n        /* \"#utility.yul\":9747:9865   */\n      pop\n        /* \"#utility.yul\":9904:9906   */\n      0x40\n        /* \"#utility.yul\":9930:9983   */\n      tag_483\n        /* \"#utility.yul\":9975:9982   */\n      dup9\n        /* \"#utility.yul\":9966:9972   */\n      dup3\n        /* \"#utility.yul\":9955:9964   */\n      dup10\n        /* \"#utility.yul\":9951:9973   */\n      add\n        /* \"#utility.yul\":9930:9983   */\n      tag_324\n      jump\t// in\n    tag_483:\n        /* \"#utility.yul\":9920:9983   */\n      swap4\n      pop\n        /* \"#utility.yul\":9875:9993   */\n      pop\n        /* \"#utility.yul\":10060:10062   */\n      0x60\n        /* \"#utility.yul\":10049:10058   */\n      dup7\n        /* \"#utility.yul\":10045:10063   */\n      add\n        /* \"#utility.yul\":10032:10064   */\n      calldataload\n        /* \"#utility.yul\":10091:10109   */\n      0xffffffffffffffff\n        /* \"#utility.yul\":10083:10089   */\n      dup2\n        /* \"#utility.yul\":10080:10110   */\n      gt\n        /* \"#utility.yul\":10077:10194   */\n      iszero\n      tag_484\n      jumpi\n        /* \"#utility.yul\":10113:10192   */\n      tag_485\n      tag_307\n      jump\t// in\n    tag_485:\n        /* \"#utility.yul\":10077:10194   */\n    tag_484:\n        /* \"#utility.yul\":10226:10291   */\n      tag_486\n        /* \"#utility.yul\":10283:10290   */\n      dup9\n        /* \"#utility.yul\":10274:10280   */\n      dup3\n        /* \"#utility.yul\":10263:10272   */\n      dup10\n        /* \"#utility.yul\":10259:10281   */\n      add\n        /* \"#utility.yul\":10226:10291   */\n      tag_340\n      jump\t// in\n    tag_486:\n        /* \"#utility.yul\":10208:10291   */\n      swap3\n      pop\n      swap3\n      pop\n        /* \"#utility.yul\":10003:10301   */\n      pop\n        /* \"#utility.yul\":9343:10308   */\n      swap3\n      swap6\n      pop\n      swap3\n      swap6\n      swap1\n      swap4\n      pop\n      jump\t// out\n        /* \"#utility.yul\":10314:10788   */\n    tag_115:\n        /* \"#utility.yul\":10382:10388   */\n      0x00\n        /* \"#utility.yul\":10390:10396   */\n      dup1\n        /* \"#utility.yul\":10439:10441   */\n      0x40\n        /* \"#utility.yul\":10427:10436   */\n      dup4\n        /* \"#utility.yul\":10418:10425   */\n      dup6\n        /* \"#utility.yul\":10414:10437   */\n      sub\n        /* \"#utility.yul\":10410:10442   */\n      slt\n        /* \"#utility.yul\":10407:10526   */\n      iszero\n      tag_488\n      jumpi\n        /* \"#utility.yul\":10445:10524   */\n      tag_489\n      tag_306\n      jump\t// in\n    tag_489:\n        /* \"#utility.yul\":10407:10526   */\n    tag_488:\n        /* \"#utility.yul\":10565:10566   */\n      0x00\n        /* \"#utility.yul\":10590:10643   */\n      tag_490\n        /* \"#utility.yul\":10635:10642   */\n      dup6\n        /* \"#utility.yul\":10626:10632   */\n      dup3\n        /* \"#utility.yul\":10615:10624   */\n      dup7\n        /* \"#utility.yul\":10611:10633   */\n      add\n        /* \"#utility.yul\":10590:10643   */\n      tag_321\n      jump\t// in\n    tag_490:\n        /* \"#utility.yul\":10580:10643   */\n      swap3\n      pop\n        /* \"#utility.yul\":10536:10653   */\n      pop\n        /* \"#utility.yul\":10692:10694   */\n      0x20\n        /* \"#utility.yul\":10718:10771   */\n      tag_491\n        /* \"#utility.yul\":10763:10770   */\n      dup6\n        /* \"#utility.yul\":10754:10760   */\n      dup3\n        /* \"#utility.yul\":10743:10752   */\n      dup7\n        /* \"#utility.yul\":10739:10761   */\n      add\n        /* \"#utility.yul\":10718:10771   */\n      tag_321\n      jump\t// in\n    tag_491:\n        /* \"#utility.yul\":10708:10771   */\n      swap2\n      pop\n        /* \"#utility.yul\":10663:10781   */\n      pop\n        /* \"#utility.yul\":10314:10788   */\n      swap3\n      pop\n      swap3\n      swap1\n      pop\n      jump\t// out\n        /* \"#utility.yul\":10794:10974   */\n    tag_341:\n        /* \"#utility.yul\":10842:10919   */\n      0x4e487b7100000000000000000000000000000000000000000000000000000000\n        /* \"#utility.yul\":10839:10840   */\n      0x00\n        /* \"#utility.yul\":10832:10920   */\n      mstore\n        /* \"#utility.yul\":10939:10943   */\n      0x22\n        /* \"#utility.yul\":10936:10937   */\n      0x04\n        /* \"#utility.yul\":10929:10944   */\n      mstore\n        /* \"#utility.yul\":10963:10967   */\n      0x24\n        /* \"#utility.yul\":10960:10961   */\n      0x00\n        /* \"#utility.yul\":10953:10968   */\n      revert\n        /* \"#utility.yul\":10980:11300   */\n    tag_124:\n        /* \"#utility.yul\":11024:11030   */\n      0x00\n        /* \"#utility.yul\":11061:11062   */\n      0x02\n        /* \"#utility.yul\":11055:11059   */\n      dup3\n        /* \"#utility.yul\":11051:11063   */\n      div\n        /* \"#utility.yul\":11041:11063   */\n      swap1\n      pop\n        /* \"#utility.yul\":11108:11109   */\n      0x01\n        /* \"#utility.yul\":11102:11106   */\n      dup3\n        /* \"#utility.yul\":11098:11110   */\n      and\n        /* \"#utility.yul\":11129:11147   */\n      dup1\n        /* \"#utility.yul\":11119:11200   */\n      tag_494\n      jumpi\n        /* \"#utility.yul\":11185:11189   */\n      0x7f\n        /* \"#utility.yul\":11177:11183   */\n      dup3\n        /* \"#utility.yul\":11173:11190   */\n      and\n        /* \"#utility.yul\":11163:11190   */\n      swap2\n      pop\n        /* \"#utility.yul\":11119:11200   */\n    tag_494:\n        /* \"#utility.yul\":11247:11249   */\n      0x20\n        /* \"#utility.yul\":11239:11245   */\n      dup3\n        /* \"#utility.yul\":11236:11250   */\n      lt\n        /* \"#utility.yul\":11216:11234   */\n      dup2\n        /* \"#utility.yul\":11213:11251   */\n      sub\n        /* \"#utility.yul\":11210:11294   */\n      tag_495\n      jumpi\n        /* \"#utility.yul\":11266:11284   */\n      tag_496\n      tag_341\n      jump\t// in\n    tag_496:\n        /* \"#utility.yul\":11210:11294   */\n    tag_495:\n        /* \"#utility.yul\":11031:11300   */\n      pop\n        /* \"#utility.yul\":10980:11300   */\n      swap2\n      swap1\n      pop\n      jump\t// out\n        /* \"#utility.yul\":11306:11452   */\n    tag_342:\n        /* \"#utility.yul\":11403:11409   */\n      dup3\n        /* \"#utility.yul\":11398:11401   */\n      dup2\n        /* \"#utility.yul\":11393:11396   */\n      dup4\n        /* \"#utility.yul\":11380:11410   */\n      calldatacopy\n        /* \"#utility.yul\":11444:11445   */\n      0x00\n        /* \"#utility.yul\":11435:11441   */\n      dup4\n        /* \"#utility.yul\":11430:11433   */\n      dup4\n        /* \"#utility.yul\":11426:11442   */\n      add\n        /* \"#utility.yul\":11419:11446   */\n      mstore\n        /* \"#utility.yul\":11306:11452   */\n      pop\n      pop\n      pop\n      jump\t// out\n        /* \"#utility.yul\":11482:11799   */\n    tag_343:\n        /* \"#utility.yul\":11580:11583   */\n      0x00\n        /* \"#utility.yul\":11601:11672   */\n      tag_499\n        /* \"#utility.yul\":11665:11671   */\n      dup4\n        /* \"#utility.yul\":11660:11663   */\n      dup6\n        /* \"#utility.yul\":11601:11672   */\n      tag_314\n      jump\t// in\n    tag_499:\n        /* \"#utility.yul\":11594:11672   */\n      swap4\n      pop\n        /* \"#utility.yul\":11682:11738   */\n      tag_500\n        /* \"#utility.yul\":11731:11737   */\n      dup4\n        /* \"#utility.yul\":11726:11729   */\n      dup6\n        /* \"#utility.yul\":11719:11724   */\n      dup5\n        /* \"#utility.yul\":11682:11738   */\n      tag_342\n      jump\t// in\n    tag_500:\n        /* \"#utility.yul\":11763:11792   */\n      tag_501\n        /* \"#utility.yul\":11785:11791   */\n      dup4\n        /* \"#utility.yul\":11763:11792   */\n      tag_316\n      jump\t// in\n    tag_501:\n        /* \"#utility.yul\":11758:11761   */\n      dup5\n        /* \"#utility.yul\":11754:11793   */\n      add\n        /* \"#utility.yul\":11747:11793   */\n      swap1\n      pop\n        /* \"#utility.yul\":11482:11799   */\n      swap4\n      swap3\n      pop\n      pop\n      pop\n      jump\t// out\n        /* \"#utility.yul\":11805:12248   */\n    tag_179:\n        /* \"#utility.yul\":11956:11960   */\n      0x00\n        /* \"#utility.yul\":11994:11996   */\n      0x40\n        /* \"#utility.yul\":11983:11992   */\n      dup3\n        /* \"#utility.yul\":11979:11997   */\n      add\n        /* \"#utility.yul\":11971:11997   */\n      swap1\n      pop\n        /* \"#utility.yul\":12007:12078   */\n      tag_503\n        /* \"#utility.yul\":12075:12076   */\n      0x00\n        /* \"#utility.yul\":12064:12073   */\n      dup4\n        /* \"#utility.yul\":12060:12077   */\n      add\n        /* \"#utility.yul\":12051:12057   */\n      dup7\n        /* \"#utility.yul\":12007:12078   */\n      tag_325\n      jump\t// in\n    tag_503:\n        /* \"#utility.yul\":12125:12134   */\n      dup2\n        /* \"#utility.yul\":12119:12123   */\n      dup2\n        /* \"#utility.yul\":12115:12135   */\n      sub\n        /* \"#utility.yul\":12110:12112   */\n      0x20\n        /* \"#utility.yul\":12099:12108   */\n      dup4\n        /* \"#utility.yul\":12095:12113   */\n      add\n        /* \"#utility.yul\":12088:12136   */\n      mstore\n        /* \"#utility.yul\":12153:12241   */\n      tag_504\n        /* \"#utility.yul\":12236:12240   */\n      dup2\n        /* \"#utility.yul\":12227:12233   */\n      dup5\n        /* \"#utility.yul\":12219:12225   */\n      dup7\n        /* \"#utility.yul\":12153:12241   */\n      tag_343\n      jump\t// in\n    tag_504:\n        /* \"#utility.yul\":12145:12241   */\n      swap1\n      pop\n        /* \"#utility.yul\":11805:12248   */\n      swap5\n      swap4\n      pop\n      pop\n      pop\n      pop\n      jump\t// out\n        /* \"#utility.yul\":12254:12372   */\n    tag_344:\n        /* \"#utility.yul\":12341:12365   */\n      tag_506\n        /* \"#utility.yul\":12359:12364   */\n      dup2\n        /* \"#utility.yul\":12341:12365   */\n      tag_319\n      jump\t// in\n    tag_506:\n        /* \"#utility.yul\":12336:12339   */\n      dup3\n        /* \"#utility.yul\":12329:12366   */\n      mstore\n        /* \"#utility.yul\":12254:12372   */\n      pop\n      pop\n      jump\t// out\n        /* \"#utility.yul\":12378:12820   */\n    tag_206:\n        /* \"#utility.yul\":12527:12531   */\n      0x00\n        /* \"#utility.yul\":12565:12567   */\n      0x60\n        /* \"#utility.yul\":12554:12563   */\n      dup3\n        /* \"#utility.yul\":12550:12568   */\n      add\n        /* \"#utility.yul\":12542:12568   */\n      swap1\n      pop\n        /* \"#utility.yul\":12578:12649   */\n      tag_508\n        /* \"#utility.yul\":12646:12647   */\n      0x00\n        /* \"#utility.yul\":12635:12644   */\n      dup4\n        /* \"#utility.yul\":12631:12648   */\n      add\n        /* \"#utility.yul\":12622:12628   */\n      dup7\n        /* \"#utility.yul\":12578:12649   */\n      tag_344\n      jump\t// in\n    tag_508:\n        /* \"#utility.yul\":12659:12731   */\n      tag_509\n        /* \"#utility.yul\":12727:12729   */\n      0x20\n        /* \"#utility.yul\":12716:12725   */\n      dup4\n        /* \"#utility.yul\":12712:12730   */\n      add\n        /* \"#utility.yul\":12703:12709   */\n      dup6\n        /* \"#utility.yul\":12659:12731   */\n      tag_325\n      jump\t// in\n    tag_509:\n        /* \"#utility.yul\":12741:12813   */\n      tag_510\n        /* \"#utility.yul\":12809:12811   */\n      0x40\n        /* \"#utility.yul\":12798:12807   */\n      dup4\n        /* \"#utility.yul\":12794:12812   */\n      add\n        /* \"#utility.yul\":12785:12791   */\n      dup5\n        /* \"#utility.yul\":12741:12813   */\n      tag_325\n      jump\t// in\n    tag_510:\n        /* \"#utility.yul\":12378:12820   */\n      swap5\n      swap4\n      pop\n      pop\n      pop\n      pop\n      jump\t// out\n        /* \"#utility.yul\":12826:13048   */\n    tag_211:\n        /* \"#utility.yul\":12919:12923   */\n      0x00\n        /* \"#utility.yul\":12957:12959   */\n      0x20\n        /* \"#utility.yul\":12946:12955   */\n      dup3\n        /* \"#utility.yul\":12942:12960   */\n      add\n        /* \"#utility.yul\":12934:12960   */\n      swap1\n      pop\n        /* \"#utility.yul\":12970:13041   */\n      tag_512\n        /* \"#utility.yul\":13038:13039   */\n      0x00\n        /* \"#utility.yul\":13027:13036   */\n      dup4\n        /* \"#utility.yul\":13023:13040   */\n      add\n        /* \"#utility.yul\":13014:13020   */\n      dup5\n        /* \"#utility.yul\":12970:13041   */\n      tag_344\n      jump\t// in\n    tag_512:\n        /* \"#utility.yul\":12826:13048   */\n      swap3\n      swap2\n      pop\n      pop\n      jump\t// out\n        /* \"#utility.yul\":13054:13210   */\n    tag_345:\n        /* \"#utility.yul\":13194:13202   */\n      0x7061757365640000000000000000000000000000000000000000000000000000\n        /* \"#utility.yul\":13190:13191   */\n      0x00\n        /* \"#utility.yul\":13182:13188   */\n      dup3\n        /* \"#utility.yul\":13178:13192   */\n      add\n        /* \"#utility.yul\":13171:13203   */\n      mstore\n        /* \"#utility.yul\":13054:13210   */\n      pop\n      jump\t// out\n        /* \"#utility.yul\":13216:13581   */\n    tag_346:\n        /* \"#utility.yul\":13358:13361   */\n      0x00\n        /* \"#utility.yul\":13379:13445   */\n      tag_515\n        /* \"#utility.yul\":13443:13444   */\n      0x06\n        /* \"#utility.yul\":13438:13441   */\n      dup4\n        /* \"#utility.yul\":13379:13445   */\n      tag_314\n      jump\t// in\n    tag_515:\n        /* \"#utility.yul\":13372:13445   */\n      swap2\n      pop\n        /* \"#utility.yul\":13454:13547   */\n      tag_516\n        /* \"#utility.yul\":13543:13546   */\n      dup3\n        /* \"#utility.yul\":13454:13547   */\n      tag_345\n      jump\t// in\n    tag_516:\n        /* \"#utility.yul\":13572:13574   */\n      0x20\n        /* \"#utility.yul\":13567:13570   */\n      dup3\n        /* \"#utility.yul\":13563:13575   */\n      add\n        /* \"#utility.yul\":13556:13575   */\n      swap1\n      pop\n        /* \"#utility.yul\":13216:13581   */\n      swap2\n      swap1\n      pop\n      jump\t// out\n        /* \"#utility.yul\":13587:14006   */\n    tag_239:\n        /* \"#utility.yul\":13753:13757   */\n      0x00\n        /* \"#utility.yul\":13791:13793   */\n      0x20\n        /* \"#utility.yul\":13780:13789   */\n      dup3\n        /* \"#utility.yul\":13776:13794   */\n      add\n        /* \"#utility.yul\":13768:13794   */\n      swap1\n      pop\n        /* \"#utility.yul\":13840:13849   */\n      dup2\n        /* \"#utility.yul\":13834:13838   */\n      dup2\n        /* \"#utility.yul\":13830:13850   */\n      sub\n        /* \"#utility.yul\":13826:13827   */\n      0x00\n        /* \"#utility.yul\":13815:13824   */\n      dup4\n        /* \"#utility.yul\":13811:13828   */\n      add\n        /* \"#utility.yul\":13804:13851   */\n      mstore\n        /* \"#utility.yul\":13868:13999   */\n      tag_518\n        /* \"#utility.yul\":13994:13998   */\n      dup2\n        /* \"#utility.yul\":13868:13999   */\n      tag_346\n      jump\t// in\n    tag_518:\n        /* \"#utility.yul\":13860:13999   */\n      swap1\n      pop\n        /* \"#utility.yul\":13587:14006   */\n      swap2\n      swap1\n      pop\n      jump\t// out\n        /* \"#utility.yul\":14012:14180   */\n    tag_347:\n        /* \"#utility.yul\":14095:14106   */\n      0x00\n        /* \"#utility.yul\":14129:14135   */\n      dup3\n        /* \"#utility.yul\":14124:14127   */\n      dup3\n        /* \"#utility.yul\":14117:14136   */\n      mstore\n        /* \"#utility.yul\":14169:14173   */\n      0x20\n        /* \"#utility.yul\":14164:14167   */\n      dup3\n        /* \"#utility.yul\":14160:14174   */\n      add\n        /* \"#utility.yul\":14145:14174   */\n      swap1\n      pop\n        /* \"#utility.yul\":14012:14180   */\n      swap3\n      swap2\n      pop\n      pop\n      jump\t// out\n        /* \"#utility.yul\":14186:14300   */\n    tag_348:\n      pop\n      jump\t// out\n        /* \"#utility.yul\":14306:14668   */\n    tag_349:\n        /* \"#utility.yul\":14447:14450   */\n      0x00\n        /* \"#utility.yul\":14468:14533   */\n      tag_522\n        /* \"#utility.yul\":14531:14532   */\n      0x00\n        /* \"#utility.yul\":14526:14529   */\n      dup4\n        /* \"#utility.yul\":14468:14533   */\n      tag_347\n      jump\t// in\n    tag_522:\n        /* \"#utility.yul\":14461:14533   */\n      swap2\n      pop\n        /* \"#utility.yul\":14542:14635   */\n      tag_523\n        /* \"#utility.yul\":14631:14634   */\n      dup3\n        /* \"#utility.yul\":14542:14635   */\n      tag_348\n      jump\t// in\n    tag_523:\n        /* \"#utility.yul\":14660:14661   */\n      0x00\n        /* \"#utility.yul\":14655:14658   */\n      dup3\n        /* \"#utility.yul\":14651:14662   */\n      add\n        /* \"#utility.yul\":14644:14662   */\n      swap1\n      pop\n        /* \"#utility.yul\":14306:14668   */\n      swap2\n      swap1\n      pop\n      jump\t// out\n        /* \"#utility.yul\":14674:15422   */\n    tag_243:\n        /* \"#utility.yul\":14923:14927   */\n      0x00\n        /* \"#utility.yul\":14961:14964   */\n      0x80\n        /* \"#utility.yul\":14950:14959   */\n      dup3\n        /* \"#utility.yul\":14946:14965   */\n      add\n        /* \"#utility.yul\":14938:14965   */\n      swap1\n      pop\n        /* \"#utility.yul\":14975:15046   */\n      tag_525\n        /* \"#utility.yul\":15043:15044   */\n      0x00\n        /* \"#utility.yul\":15032:15041   */\n      dup4\n        /* \"#utility.yul\":15028:15045   */\n      add\n        /* \"#utility.yul\":15019:15025   */\n      dup7\n        /* \"#utility.yul\":14975:15046   */\n      tag_344\n      jump\t// in\n    tag_525:\n        /* \"#utility.yul\":15056:15128   */\n      tag_526\n        /* \"#utility.yul\":15124:15126   */\n      0x20\n        /* \"#utility.yul\":15113:15122   */\n      dup4\n        /* \"#utility.yul\":15109:15127   */\n      add\n        /* \"#utility.yul\":15100:15106   */\n      dup6\n        /* \"#utility.yul\":15056:15128   */\n      tag_344\n      jump\t// in\n    tag_526:\n        /* \"#utility.yul\":15138:15210   */\n      tag_527\n        /* \"#utility.yul\":15206:15208   */\n      0x40\n        /* \"#utility.yul\":15195:15204   */\n      dup4\n        /* \"#utility.yul\":15191:15209   */\n      add\n        /* \"#utility.yul\":15182:15188   */\n      dup5\n        /* \"#utility.yul\":15138:15210   */\n      tag_325\n      jump\t// in\n    tag_527:\n        /* \"#utility.yul\":15257:15266   */\n      dup2\n        /* \"#utility.yul\":15251:15255   */\n      dup2\n        /* \"#utility.yul\":15247:15267   */\n      sub\n        /* \"#utility.yul\":15242:15244   */\n      0x60\n        /* \"#utility.yul\":15231:15240   */\n      dup4\n        /* \"#utility.yul\":15227:15245   */\n      add\n        /* \"#utility.yul\":15220:15268   */\n      mstore\n        /* \"#utility.yul\":15285:15415   */\n      tag_528\n        /* \"#utility.yul\":15410:15414   */\n      dup2\n        /* \"#utility.yul\":15285:15415   */\n      tag_349\n      jump\t// in\n    tag_528:\n        /* \"#utility.yul\":15277:15415   */\n      swap1\n      pop\n        /* \"#utility.yul\":14674:15422   */\n      swap5\n      swap4\n      pop\n      pop\n      pop\n      pop\n      jump\t// out\n        /* \"#utility.yul\":15428:15544   */\n    tag_350:\n        /* \"#utility.yul\":15498:15519   */\n      tag_530\n        /* \"#utility.yul\":15513:15518   */\n      dup2\n        /* \"#utility.yul\":15498:15519   */\n      tag_311\n      jump\t// in\n    tag_530:\n        /* \"#utility.yul\":15491:15496   */\n      dup2\n        /* \"#utility.yul\":15488:15520   */\n      eq\n        /* \"#utility.yul\":15478:15538   */\n      tag_531\n      jumpi\n        /* \"#utility.yul\":15534:15535   */\n      0x00\n        /* \"#utility.yul\":15531:15532   */\n      dup1\n        /* \"#utility.yul\":15524:15536   */\n      revert\n        /* \"#utility.yul\":15478:15538   */\n    tag_531:\n        /* \"#utility.yul\":15428:15544   */\n      pop\n      jump\t// out\n        /* \"#utility.yul\":15550:15687   */\n    tag_351:\n        /* \"#utility.yul\":15604:15609   */\n      0x00\n        /* \"#utility.yul\":15635:15641   */\n      dup2\n        /* \"#utility.yul\":15629:15642   */\n      mload\n        /* \"#utility.yul\":15620:15642   */\n      swap1\n      pop\n        /* \"#utility.yul\":15651:15681   */\n      tag_533\n        /* \"#utility.yul\":15675:15680   */\n      dup2\n        /* \"#utility.yul\":15651:15681   */\n      tag_350\n      jump\t// in\n    tag_533:\n        /* \"#utility.yul\":15550:15687   */\n      swap3\n      swap2\n      pop\n      pop\n      jump\t// out\n        /* \"#utility.yul\":15693:15836   */\n    tag_352:\n        /* \"#utility.yul\":15750:15755   */\n      0x00\n        /* \"#utility.yul\":15781:15787   */\n      dup2\n        /* \"#utility.yul\":15775:15788   */\n      mload\n        /* \"#utility.yul\":15766:15788   */\n      swap1\n      pop\n        /* \"#utility.yul\":15797:15830   */\n      tag_535\n        /* \"#utility.yul\":15824:15829   */\n      dup2\n        /* \"#utility.yul\":15797:15830   */\n      tag_323\n      jump\t// in\n    tag_535:\n        /* \"#utility.yul\":15693:15836   */\n      swap3\n      swap2\n      pop\n      pop\n      jump\t// out\n        /* \"#utility.yul\":15842:16343   */\n    tag_247:\n        /* \"#utility.yul\":15918:15924   */\n      0x00\n        /* \"#utility.yul\":15926:15932   */\n      dup1\n        /* \"#utility.yul\":15975:15977   */\n      0x40\n        /* \"#utility.yul\":15963:15972   */\n      dup4\n        /* \"#utility.yul\":15954:15961   */\n      dup6\n        /* \"#utility.yul\":15950:15973   */\n      sub\n        /* \"#utility.yul\":15946:15978   */\n      slt\n        /* \"#utility.yul\":15943:16062   */\n      iszero\n      tag_537\n      jumpi\n        /* \"#utility.yul\":15981:16060   */\n      tag_538\n      tag_306\n      jump\t// in\n    tag_538:\n        /* \"#utility.yul\":15943:16062   */\n    tag_537:\n        /* \"#utility.yul\":16101:16102   */\n      0x00\n        /* \"#utility.yul\":16126:16187   */\n      tag_539\n        /* \"#utility.yul\":16179:16186   */\n      dup6\n        /* \"#utility.yul\":16170:16176   */\n      dup3\n        /* \"#utility.yul\":16159:16168   */\n      dup7\n        /* \"#utility.yul\":16155:16177   */\n      add\n        /* \"#utility.yul\":16126:16187   */\n      tag_351\n      jump\t// in\n    tag_539:\n        /* \"#utility.yul\":16116:16187   */\n      swap3\n      pop\n        /* \"#utility.yul\":16072:16197   */\n      pop\n        /* \"#utility.yul\":16236:16238   */\n      0x20\n        /* \"#utility.yul\":16262:16326   */\n      tag_540\n        /* \"#utility.yul\":16318:16325   */\n      dup6\n        /* \"#utility.yul\":16309:16315   */\n      dup3\n        /* \"#utility.yul\":16298:16307   */\n      dup7\n        /* \"#utility.yul\":16294:16316   */\n      add\n        /* \"#utility.yul\":16262:16326   */\n      tag_352\n      jump\t// in\n    tag_540:\n        /* \"#utility.yul\":16252:16326   */\n      swap2\n      pop\n        /* \"#utility.yul\":16207:16336   */\n      pop\n        /* \"#utility.yul\":15842:16343   */\n      swap3\n      pop\n      swap3\n      swap1\n      pop\n      jump\t// out\n        /* \"#utility.yul\":16349:16497   */\n    tag_353:\n        /* \"#utility.yul\":16451:16462   */\n      0x00\n        /* \"#utility.yul\":16488:16491   */\n      dup2\n        /* \"#utility.yul\":16473:16491   */\n      swap1\n      pop\n        /* \"#utility.yul\":16349:16497   */\n      swap3\n      swap2\n      pop\n      pop\n      jump\t// out\n        /* \"#utility.yul\":16503:16670   */\n    tag_354:\n        /* \"#utility.yul\":16643:16662   */\n      0x636f6d706c69616e6365206661696c3a20000000000000000000000000000000\n        /* \"#utility.yul\":16639:16640   */\n      0x00\n        /* \"#utility.yul\":16631:16637   */\n      dup3\n        /* \"#utility.yul\":16627:16641   */\n      add\n        /* \"#utility.yul\":16620:16663   */\n      mstore\n        /* \"#utility.yul\":16503:16670   */\n      pop\n      jump\t// out\n        /* \"#utility.yul\":16676:17078   */\n    tag_355:\n        /* \"#utility.yul\":16836:16839   */\n      0x00\n        /* \"#utility.yul\":16857:16942   */\n      tag_544\n        /* \"#utility.yul\":16939:16941   */\n      0x11\n        /* \"#utility.yul\":16934:16937   */\n      dup4\n        /* \"#utility.yul\":16857:16942   */\n      tag_353\n      jump\t// in\n    tag_544:\n        /* \"#utility.yul\":16850:16942   */\n      swap2\n      pop\n        /* \"#utility.yul\":16951:17044   */\n      tag_545\n        /* \"#utility.yul\":17040:17043   */\n      dup3\n        /* \"#utility.yul\":16951:17044   */\n      tag_354\n      jump\t// in\n    tag_545:\n        /* \"#utility.yul\":17069:17071   */\n      0x11\n        /* \"#utility.yul\":17064:17067   */\n      dup3\n        /* \"#utility.yul\":17060:17072   */\n      add\n        /* \"#utility.yul\":17053:17072   */\n      swap1\n      pop\n        /* \"#utility.yul\":16676:17078   */\n      swap2\n      swap1\n      pop\n      jump\t// out\n        /* \"#utility.yul\":17084:17474   */\n    tag_356:\n        /* \"#utility.yul\":17190:17193   */\n      0x00\n        /* \"#utility.yul\":17218:17257   */\n      tag_547\n        /* \"#utility.yul\":17251:17256   */\n      dup3\n        /* \"#utility.yul\":17218:17257   */\n      tag_313\n      jump\t// in\n    tag_547:\n        /* \"#utility.yul\":17273:17362   */\n      tag_548\n        /* \"#utility.yul\":17355:17361   */\n      dup2\n        /* \"#utility.yul\":17350:17353   */\n      dup6\n        /* \"#utility.yul\":17273:17362   */\n      tag_353\n      jump\t// in\n    tag_548:\n        /* \"#utility.yul\":17266:17362   */\n      swap4\n      pop\n        /* \"#utility.yul\":17371:17436   */\n      tag_549\n        /* \"#utility.yul\":17429:17435   */\n      dup2\n        /* \"#utility.yul\":17424:17427   */\n      dup6\n        /* \"#utility.yul\":17417:17421   */\n      0x20\n        /* \"#utility.yul\":17410:17415   */\n      dup7\n        /* \"#utility.yul\":17406:17422   */\n      add\n        /* \"#utility.yul\":17371:17436   */\n      tag_315\n      jump\t// in\n    tag_549:\n        /* \"#utility.yul\":17461:17467   */\n      dup1\n        /* \"#utility.yul\":17456:17459   */\n      dup5\n        /* \"#utility.yul\":17452:17468   */\n      add\n        /* \"#utility.yul\":17445:17468   */\n      swap2\n      pop\n        /* \"#utility.yul\":17194:17474   */\n      pop\n        /* \"#utility.yul\":17084:17474   */\n      swap3\n      swap2\n      pop\n      pop\n      jump\t// out\n        /* \"#utility.yul\":17480:18021   */\n    tag_251:\n        /* \"#utility.yul\":17713:17716   */\n      0x00\n        /* \"#utility.yul\":17735:17883   */\n      tag_551\n        /* \"#utility.yul\":17879:17882   */\n      dup3\n        /* \"#utility.yul\":17735:17883   */\n      tag_355\n      jump\t// in\n    tag_551:\n        /* \"#utility.yul\":17728:17883   */\n      swap2\n      pop\n        /* \"#utility.yul\":17900:17995   */\n      tag_552\n        /* \"#utility.yul\":17991:17994   */\n      dup3\n        /* \"#utility.yul\":17982:17988   */\n      dup5\n        /* \"#utility.yul\":17900:17995   */\n      tag_356\n      jump\t// in\n    tag_552:\n        /* \"#utility.yul\":17893:17995   */\n      swap2\n      pop\n        /* \"#utility.yul\":18012:18015   */\n      dup2\n        /* \"#utility.yul\":18005:18015   */\n      swap1\n      pop\n        /* \"#utility.yul\":17480:18021   */\n      swap3\n      swap2\n      pop\n      pop\n      jump\t// out\n        /* \"#utility.yul\":18027:18359   */\n    tag_277:\n        /* \"#utility.yul\":18148:18152   */\n      0x00\n        /* \"#utility.yul\":18186:18188   */\n      0x40\n        /* \"#utility.yul\":18175:18184   */\n      dup3\n        /* \"#utility.yul\":18171:18189   */\n      add\n        /* \"#utility.yul\":18163:18189   */\n      swap1\n      pop\n        /* \"#utility.yul\":18199:18270   */\n      tag_554\n        /* \"#utility.yul\":18267:18268   */\n      0x00\n        /* \"#utility.yul\":18256:18265   */\n      dup4\n        /* \"#utility.yul\":18252:18269   */\n      add\n        /* \"#utility.yul\":18243:18249   */\n      dup6\n        /* \"#utility.yul\":18199:18270   */\n      tag_344\n      jump\t// in\n    tag_554:\n        /* \"#utility.yul\":18280:18352   */\n      tag_555\n        /* \"#utility.yul\":18348:18350   */\n      0x20\n        /* \"#utility.yul\":18337:18346   */\n      dup4\n        /* \"#utility.yul\":18333:18351   */\n      add\n        /* \"#utility.yul\":18324:18330   */\n      dup5\n        /* \"#utility.yul\":18280:18352   */\n      tag_329\n      jump\t// in\n    tag_555:\n        /* \"#utility.yul\":18027:18359   */\n      swap4\n      swap3\n      pop\n      pop\n      pop\n      jump\t// out\n        /* \"#utility.yul\":18365:18545   */\n    tag_357:\n        /* \"#utility.yul\":18413:18490   */\n      0x4e487b7100000000000000000000000000000000000000000000000000000000\n        /* \"#utility.yul\":18410:18411   */\n      0x00\n        /* \"#utility.yul\":18403:18491   */\n      mstore\n        /* \"#utility.yul\":18510:18514   */\n      0x12\n        /* \"#utility.yul\":18507:18508   */\n      0x04\n        /* \"#utility.yul\":18500:18515   */\n      mstore\n        /* \"#utility.yul\":18534:18538   */\n      0x24\n        /* \"#utility.yul\":18531:18532   */\n      0x00\n        /* \"#utility.yul\":18524:18539   */\n      revert\n        /* \"#utility.yul\":18551:18727   */\n    tag_286:\n        /* \"#utility.yul\":18583:18584   */\n      0x00\n        /* \"#utility.yul\":18600:18620   */\n      tag_558\n        /* \"#utility.yul\":18618:18619   */\n      dup3\n        /* \"#utility.yul\":18600:18620   */\n      tag_322\n      jump\t// in\n    tag_558:\n        /* \"#utility.yul\":18595:18620   */\n      swap2\n      pop\n        /* \"#utility.yul\":18634:18654   */\n      tag_559\n        /* \"#utility.yul\":18652:18653   */\n      dup4\n        /* \"#utility.yul\":18634:18654   */\n      tag_322\n      jump\t// in\n    tag_559:\n        /* \"#utility.yul\":18629:18654   */\n      swap3\n      pop\n        /* \"#utility.yul\":18673:18674   */\n      dup3\n        /* \"#utility.yul\":18663:18698   */\n      tag_560\n      jumpi\n        /* \"#utility.yul\":18678:18696   */\n      tag_561\n      tag_357\n      jump\t// in\n    tag_561:\n        /* \"#utility.yul\":18663:18698   */\n    tag_560:\n        /* \"#utility.yul\":18719:18720   */\n      dup3\n        /* \"#utility.yul\":18716:18717   */\n      dup3\n        /* \"#utility.yul\":18712:18721   */\n      mod\n        /* \"#utility.yul\":18707:18721   */\n      swap1\n      pop\n        /* \"#utility.yul\":18551:18727   */\n      swap3\n      swap2\n      pop\n      pop\n      jump\t// out\n        /* \"#utility.yul\":18733:18913   */\n    tag_358:\n        /* \"#utility.yul\":18781:18858   */\n      0x4e487b7100000000000000000000000000000000000000000000000000000000\n        /* \"#utility.yul\":18778:18779   */\n      0x00\n        /* \"#utility.yul\":18771:18859   */\n      mstore\n        /* \"#utility.yul\":18878:18882   */\n      0x11\n        /* \"#utility.yul\":18875:18876   */\n      0x04\n        /* \"#utility.yul\":18868:18883   */\n      mstore\n        /* \"#utility.yul\":18902:18906   */\n      0x24\n        /* \"#utility.yul\":18899:18900   */\n      0x00\n        /* \"#utility.yul\":18892:18907   */\n      revert\n        /* \"#utility.yul\":18919:19110   */\n    tag_288:\n        /* \"#utility.yul\":18959:18962   */\n      0x00\n        /* \"#utility.yul\":18978:18998   */\n      tag_564\n        /* \"#utility.yul\":18996:18997   */\n      dup3\n        /* \"#utility.yul\":18978:18998   */\n      tag_322\n      jump\t// in\n    tag_564:\n        /* \"#utility.yul\":18973:18998   */\n      swap2\n      pop\n        /* \"#utility.yul\":19012:19032   */\n      tag_565\n        /* \"#utility.yul\":19030:19031   */\n      dup4\n        /* \"#utility.yul\":19012:19032   */\n      tag_322\n      jump\t// in\n    tag_565:\n        /* \"#utility.yul\":19007:19032   */\n      swap3\n      pop\n        /* \"#utility.yul\":19055:19056   */\n      dup3\n        /* \"#utility.yul\":19052:19053   */\n      dup3\n        /* \"#utility.yul\":19048:19057   */\n      add\n        /* \"#utility.yul\":19041:19057   */\n      swap1\n      pop\n        /* \"#utility.yul\":19076:19079   */\n      dup1\n        /* \"#utility.yul\":19073:19074   */\n      dup3\n        /* \"#utility.yul\":19070:19080   */\n      gt\n        /* \"#utility.yul\":19067:19103   */\n      iszero\n      tag_566\n      jumpi\n        /* \"#utility.yul\":19083:19101   */\n      tag_567\n      tag_358\n      jump\t// in\n    tag_567:\n        /* \"#utility.yul\":19067:19103   */\n    tag_566:\n        /* \"#utility.yul\":18919:19110   */\n      swap3\n      swap2\n      pop\n      pop\n      jump\t// out\n        /* \"#utility.yul\":19116:19212   */\n    tag_359:\n        /* \"#utility.yul\":19150:19158   */\n      0x00\n        /* \"#utility.yul\":19199:19204   */\n      dup2\n        /* \"#utility.yul\":19194:19197   */\n      0xf8\n        /* \"#utility.yul\":19190:19205   */\n      shl\n        /* \"#utility.yul\":19169:19205   */\n      swap1\n      pop\n        /* \"#utility.yul\":19116:19212   */\n      swap2\n      swap1\n      pop\n      jump\t// out\n        /* \"#utility.yul\":19218:19311   */\n    tag_360:\n        /* \"#utility.yul\":19255:19262   */\n      0x00\n        /* \"#utility.yul\":19284:19305   */\n      tag_570\n        /* \"#utility.yul\":19299:19304   */\n      dup3\n        /* \"#utility.yul\":19284:19305   */\n      tag_359\n      jump\t// in\n    tag_570:\n        /* \"#utility.yul\":19273:19305   */\n      swap1\n      pop\n        /* \"#utility.yul\":19218:19311   */\n      swap2\n      swap1\n      pop\n      jump\t// out\n        /* \"#utility.yul\":19317:19466   */\n    tag_361:\n        /* \"#utility.yul\":19418:19459   */\n      tag_572\n        /* \"#utility.yul\":19436:19458   */\n      tag_573\n        /* \"#utility.yul\":19452:19457   */\n      dup3\n        /* \"#utility.yul\":19436:19458   */\n      tag_330\n      jump\t// in\n    tag_573:\n        /* \"#utility.yul\":19418:19459   */\n      tag_360\n      jump\t// in\n    tag_572:\n        /* \"#utility.yul\":19413:19416   */\n      dup3\n        /* \"#utility.yul\":19406:19460   */\n      mstore\n        /* \"#utility.yul\":19317:19466   */\n      pop\n      pop\n      jump\t// out\n        /* \"#utility.yul\":19472:19570   */\n    tag_362:\n        /* \"#utility.yul\":19523:19529   */\n      0x00\n        /* \"#utility.yul\":19557:19562   */\n      dup2\n        /* \"#utility.yul\":19551:19563   */\n      mload\n        /* \"#utility.yul\":19541:19563   */\n      swap1\n      pop\n        /* \"#utility.yul\":19472:19570   */\n      swap2\n      swap1\n      pop\n      jump\t// out\n        /* \"#utility.yul\":19576:19723   */\n    tag_363:\n        /* \"#utility.yul\":19677:19688   */\n      0x00\n        /* \"#utility.yul\":19714:19717   */\n      dup2\n        /* \"#utility.yul\":19699:19717   */\n      swap1\n      pop\n        /* \"#utility.yul\":19576:19723   */\n      swap3\n      swap2\n      pop\n      pop\n      jump\t// out\n        /* \"#utility.yul\":19729:20115   */\n    tag_364:\n        /* \"#utility.yul\":19833:19836   */\n      0x00\n        /* \"#utility.yul\":19861:19899   */\n      tag_577\n        /* \"#utility.yul\":19893:19898   */\n      dup3\n        /* \"#utility.yul\":19861:19899   */\n      tag_362\n      jump\t// in\n    tag_577:\n        /* \"#utility.yul\":19915:20003   */\n      tag_578\n        /* \"#utility.yul\":19996:20002   */\n      dup2\n        /* \"#utility.yul\":19991:19994   */\n      dup6\n        /* \"#utility.yul\":19915:20003   */\n      tag_363\n      jump\t// in\n    tag_578:\n        /* \"#utility.yul\":19908:20003   */\n      swap4\n      pop\n        /* \"#utility.yul\":20012:20077   */\n      tag_579\n        /* \"#utility.yul\":20070:20076   */\n      dup2\n        /* \"#utility.yul\":20065:20068   */\n      dup6\n        /* \"#utility.yul\":20058:20062   */\n      0x20\n        /* \"#utility.yul\":20051:20056   */\n      dup7\n        /* \"#utility.yul\":20047:20063   */\n      add\n        /* \"#utility.yul\":20012:20077   */\n      tag_315\n      jump\t// in\n    tag_579:\n        /* \"#utility.yul\":20102:20108   */\n      dup1\n        /* \"#utility.yul\":20097:20100   */\n      dup5\n        /* \"#utility.yul\":20093:20109   */\n      add\n        /* \"#utility.yul\":20086:20109   */\n      swap2\n      pop\n        /* \"#utility.yul\":19837:20115   */\n      pop\n        /* \"#utility.yul\":19729:20115   */\n      swap3\n      swap2\n      pop\n      pop\n      jump\t// out\n        /* \"#utility.yul\":20121:20524   */\n    tag_290:\n        /* \"#utility.yul\":20275:20278   */\n      0x00\n        /* \"#utility.yul\":20290:20361   */\n      tag_581\n        /* \"#utility.yul\":20357:20360   */\n      dup3\n        /* \"#utility.yul\":20348:20354   */\n      dup6\n        /* \"#utility.yul\":20290:20361   */\n      tag_361\n      jump\t// in\n    tag_581:\n        /* \"#utility.yul\":20386:20387   */\n      0x01\n        /* \"#utility.yul\":20381:20384   */\n      dup3\n        /* \"#utility.yul\":20377:20388   */\n      add\n        /* \"#utility.yul\":20370:20388   */\n      swap2\n      pop\n        /* \"#utility.yul\":20405:20498   */\n      tag_582\n        /* \"#utility.yul\":20494:20497   */\n      dup3\n        /* \"#utility.yul\":20485:20491   */\n      dup5\n        /* \"#utility.yul\":20405:20498   */\n      tag_364\n      jump\t// in\n    tag_582:\n        /* \"#utility.yul\":20398:20498   */\n      swap2\n      pop\n        /* \"#utility.yul\":20515:20518   */\n      dup2\n        /* \"#utility.yul\":20508:20518   */\n      swap1\n      pop\n        /* \"#utility.yul\":20121:20524   */\n      swap4\n      swap3\n      pop\n      pop\n      pop\n      jump\t// out\n        /* \"#utility.yul\":20530:20715   */\n    tag_292:\n        /* \"#utility.yul\":20570:20571   */\n      0x00\n        /* \"#utility.yul\":20587:20607   */\n      tag_584\n        /* \"#utility.yul\":20605:20606   */\n      dup3\n        /* \"#utility.yul\":20587:20607   */\n      tag_322\n      jump\t// in\n    tag_584:\n        /* \"#utility.yul\":20582:20607   */\n      swap2\n      pop\n        /* \"#utility.yul\":20621:20641   */\n      tag_585\n        /* \"#utility.yul\":20639:20640   */\n      dup4\n        /* \"#utility.yul\":20621:20641   */\n      tag_322\n      jump\t// in\n    tag_585:\n        /* \"#utility.yul\":20616:20641   */\n      swap3\n      pop\n        /* \"#utility.yul\":20660:20661   */\n      dup3\n        /* \"#utility.yul\":20650:20685   */\n      tag_586\n      jumpi\n        /* \"#utility.yul\":20665:20683   */\n      tag_587\n      tag_357\n      jump\t// in\n    tag_587:\n        /* \"#utility.yul\":20650:20685   */\n    tag_586:\n        /* \"#utility.yul\":20707:20708   */\n      dup3\n        /* \"#utility.yul\":20704:20705   */\n      dup3\n        /* \"#utility.yul\":20700:20709   */\n      div\n        /* \"#utility.yul\":20695:20709   */\n      swap1\n      pop\n        /* \"#utility.yul\":20530:20715   */\n      swap3\n      swap2\n      pop\n      pop\n      jump\t// out\n\n    auxdata: 0xa2646970667358221220e1a9aead7c8a14c41aeaf8781aa34d3eadba8ce360bb62067f8463912e41f80664736f6c63430008140033\n}\n",
				"bytecode": {
					"linkReferences": {},
					"object": "608060405234801562000010575f80fd5b506040516200290638038062002906833981810160405281019062000036919062000457565b838381600390816200004991906200073b565b5080600490816200005b91906200073b565b5050505f60065f6101000a81548160ff0219169083151502179055506200008b5f801b836200010a60201b60201c565b50620000be7f114e74f6ea3bd819998f78687bfcb11b140da08e9b7d222fa9c1f1ba1f2aa122836200010a60201b60201c565b5080600660016101000a81548173ffffffffffffffffffffffffffffffffffffffff021916908373ffffffffffffffffffffffffffffffffffffffff160217905550505050506200081f565b5f6200011d83836200020660201b60201c565b620001fc57600160055f8581526020019081526020015f205f015f8473ffffffffffffffffffffffffffffffffffffffff1673ffffffffffffffffffffffffffffffffffffffff1681526020019081526020015f205f6101000a81548160ff021916908315150217905550620001986200026a60201b60201c565b73ffffffffffffffffffffffffffffffffffffffff168273ffffffffffffffffffffffffffffffffffffffff16847f2f8788117e7eff1d82e926ec794901d17c78024a50270940304540a733656f0d60405160405180910390a46001905062000200565b5f90505b92915050565b5f60055f8481526020019081526020015f205f015f8373ffffffffffffffffffffffffffffffffffffffff1673ffffffffffffffffffffffffffffffffffffffff1681526020019081526020015f205f9054906101000a900460ff16905092915050565b5f33905090565b5f604051905090565b5f80fd5b5f80fd5b5f80fd5b5f80fd5b5f601f19601f8301169050919050565b7f4e487b71000000000000000000000000000000000000000000000000000000005f52604160045260245ffd5b620002d2826200028a565b810181811067ffffffffffffffff82111715620002f457620002f36200029a565b5b80604052505050565b5f6200030862000271565b9050620003168282620002c7565b919050565b5f67ffffffffffffffff8211156200033857620003376200029a565b5b62000343826200028a565b9050602081019050919050565b5f5b838110156200036f57808201518184015260208101905062000352565b5f8484015250505050565b5f620003906200038a846200031b565b620002fd565b905082815260208101848484011115620003af57620003ae62000286565b5b620003bc84828562000350565b509392505050565b5f82601f830112620003db57620003da62000282565b5b8151620003ed8482602086016200037a565b91505092915050565b5f73ffffffffffffffffffffffffffffffffffffffff82169050919050565b5f6200042182620003f6565b9050919050565b620004338162000415565b81146200043e575f80fd5b50565b5f81519050620004518162000428565b92915050565b5f805f80608085870312156200047257620004716200027a565b5b5f85015167ffffffffffffffff8111156200049257620004916200027e565b5b620004a087828801620003c4565b945050602085015167ffffffffffffffff811115620004c457620004c36200027e565b5b620004d287828801620003c4565b9350506040620004e58782880162000441565b9250506060620004f88782880162000441565b91505092959194509250565b5f81519050919050565b7f4e487b71000000000000000000000000000000000000000000000000000000005f52602260045260245ffd5b5f60028204905060018216806200055357607f821691505b6020821081036200056957620005686200050e565b5b50919050565b5f819050815f5260205f209050919050565b5f6020601f8301049050919050565b5f82821b905092915050565b5f60088302620005cd7fffffffffffffffffffffffffffffffffffffffffffffffffffffffffffffffff8262000590565b620005d9868362000590565b95508019841693508086168417925050509392505050565b5f819050919050565b5f819050919050565b5f620006236200061d6200061784620005f1565b620005fa565b620005f1565b9050919050565b5f819050919050565b6200063e8362000603565b620006566200064d826200062a565b8484546200059c565b825550505050565b5f90565b6200066c6200065e565b6200067981848462000633565b505050565b5b81811015620006a057620006945f8262000662565b6001810190506200067f565b5050565b601f821115620006ef57620006b9816200056f565b620006c48462000581565b81016020851015620006d4578190505b620006ec620006e38562000581565b8301826200067e565b50505b505050565b5f82821c905092915050565b5f620007115f1984600802620006f4565b1980831691505092915050565b5f6200072b838362000700565b9150826002028217905092915050565b620007468262000504565b67ffffffffffffffff8111156200076257620007616200029a565b5b6200076e82546200053b565b6200077b828285620006a4565b5f60209050601f831160018114620007b1575f84156200079c578287015190505b620007a885826200071e565b86555062000817565b601f198416620007c1866200056f565b5f5b82811015620007ea57848901518255600182019150602085019450602081019050620007c3565b868310156200080a578489015162000806601f89168262000700565b8355505b6001600288020188555050505b505050505050565b6120d9806200082d5f395ff3fe608060405234801561000f575f80fd5b506004361061014b575f3560e01c80635c975abb116100c157806391d148541161007a57806391d148541461037757806395d89b41146103a7578063a217fddf146103c5578063a9059cbb146103e3578063d547741f14610413578063dd62ed3e1461042f5761014b565b80635c975abb146102c75780636290865d146102e557806370a082311461030357806382aefa24146103335780638456cb5914610351578063890214561461035b5761014b565b8063248a9ca311610113578063248a9ca31461021b5780632f2ff15d1461024b578063313ce5671461026757806336568abe146102855780633f4ba83a146102a157806340c10f19146102ab5761014b565b806301ffc9a71461014f57806306fdde031461017f578063095ea7b31461019d57806318160ddd146101cd57806323b872dd146101eb575b5f80fd5b610169600480360381019061016491906116c3565b61045f565b6040516101769190611708565b60405180910390f35b6101876104d8565b60405161019491906117ab565b60405180910390f35b6101b760048036038101906101b29190611858565b610568565b6040516101c49190611708565b60405180910390f35b6101d561058a565b6040516101e291906118a5565b60405180910390f35b610205600480360381019061020091906118be565b610593565b6040516102129190611708565b60405180910390f35b61023560048036038101906102309190611941565b6105c1565b604051610242919061197b565b60405180910390f35b61026560048036038101906102609190611994565b6105de565b005b61026f610600565b60405161027c91906119ed565b60405180910390f35b61029f600480360381019061029a9190611994565b610608565b005b6102a9610683565b005b6102c560048036038101906102c09190611858565b61069a565b005b6102cf6106de565b6040516102dc9190611708565b60405180910390f35b6102ed6106f3565b6040516102fa9190611a61565b60405180910390f35b61031d60048036038101906103189190611a7a565b610719565b60405161032a91906118a5565b60405180910390f35b61033b61075e565b604051610348919061197b565b60405180910390f35b610359610782565b005b61037560048036038101906103709190611b06565b610799565b005b610391600480360381019061038c9190611994565b61083f565b60405161039e9190611708565b60405180910390f35b6103af6108a3565b6040516103bc91906117ab565b60405180910390f35b6103cd610933565b6040516103da919061197b565b60405180910390f35b6103fd60048036038101906103f89190611858565b610939565b60405161040a9190611708565b60405180910390f35b61042d60048036038101906104289190611994565b61095b565b005b61044960048036038101906104449190611b8a565b61097d565b60405161045691906118a5565b60405180910390f35b5f7f7965db0b000000000000000000000000000000000000000000000000000000007bffffffffffffffffffffffffffffffffffffffffffffffffffffffff1916827bffffffffffffffffffffffffffffffffffffffffffffffffffffffff191614806104d157506104d0826109ff565b5b9050919050565b6060600380546104e790611bf5565b80601f016020809104026020016040519081016040528092919081815260200182805461051390611bf5565b801561055e5780601f106105355761010080835404028352916020019161055e565b820191905f5260205f20905b81548152906001019060200180831161054157829003601f168201915b5050505050905090565b5f80610572610a68565b905061057f818585610a6f565b600191505092915050565b5f600254905090565b5f8061059d610a68565b90506105aa858285610a81565b6105b5858585610b13565b60019150509392505050565b5f60055f8381526020019081526020015f20600101549050919050565b6105e7826105c1565b6105f081610c03565b6105fa8383610c17565b50505050565b5f6012905090565b610610610a68565b73ffffffffffffffffffffffffffffffffffffffff168173ffffffffffffffffffffffffffffffffffffffff1614610674576040517f6697b23200000000000000000000000000000000000000000000000000000000815260040160405180910390fd5b61067e8282610d01565b505050565b5f801b61068f81610c03565b610697610deb565b50565b7f114e74f6ea3bd819998f78687bfcb11b140da08e9b7d222fa9c1f1ba1f2aa1226106c481610c03565b6106cf5f8484610e4c565b6106d98383611021565b505050565b5f60065f9054906101000a900460ff16905090565b600660019054906101000a900473ffffffffffffffffffffffffffffffffffffffff1681565b5f805f8373ffffffffffffffffffffffffffffffffffffffff1673ffffffffffffffffffffffffffffffffffffffff1681526020019081526020015f20549050919050565b7f114e74f6ea3bd819998f78687bfcb11b140da08e9b7d222fa9c1f1ba1f2aa12281565b5f801b61078e81610c03565b6107966110a0565b50565b7f114e74f6ea3bd819998f78687bfcb11b140da08e9b7d222fa9c1f1ba1f2aa1226107c381610c03565b6107ce868686610e4c565b8473ffffffffffffffffffffffffffffffffffffffff168673ffffffffffffffffffffffffffffffffffffffff167f2eaee783069d2f4cc557477a5af4ed6420985b57c0f64b600e0601415b580ba086868660405161082f93929190611c5f565b60405180910390a3505050505050565b5f60055f8481526020019081526020015f205f015f8373ffffffffffffffffffffffffffffffffffffffff1673ffffffffffffffffffffffffffffffffffffffff1681526020019081526020015f205f9054906101000a900460ff16905092915050565b6060600480546108b290611bf5565b80601f01602080910402602001604051908101604052809291908181526020018280546108de90611bf5565b80156109295780601f1061090057610100808354040283529160200191610929565b820191905f5260205f20905b81548152906001019060200180831161090c57829003601f168201915b5050505050905090565b5f801b81565b5f80610943610a68565b9050610950818585610b13565b600191505092915050565b610964826105c1565b61096d81610c03565b6109778383610d01565b50505050565b5f60015f8473ffffffffffffffffffffffffffffffffffffffff1673ffffffffffffffffffffffffffffffffffffffff1681526020019081526020015f205f8373ffffffffffffffffffffffffffffffffffffffff1673ffffffffffffffffffffffffffffffffffffffff1681526020019081526020015f2054905092915050565b5f7f01ffc9a7000000000000000000000000000000000000000000000000000000007bffffffffffffffffffffffffffffffffffffffffffffffffffffffff1916827bffffffffffffffffffffffffffffffffffffffffffffffffffffffff1916149050919050565b5f33905090565b610a7c8383836001611102565b505050565b5f610a8c848461097d565b90507fffffffffffffffffffffffffffffffffffffffffffffffffffffffffffffffff8114610b0d5781811015610afe578281836040517ffb8f41b2000000000000000000000000000000000000000000000000000000008152600401610af593929190611c9e565b60405180910390fd5b610b0c84848484035f611102565b5b50505050565b5f73ffffffffffffffffffffffffffffffffffffffff168373ffffffffffffffffffffffffffffffffffffffff1603610b83575f6040517f96c6fd1e000000000000000000000000000000000000000000000000000000008152600401610b7a9190611cd3565b60405180910390fd5b5f73ffffffffffffffffffffffffffffffffffffffff168273ffffffffffffffffffffffffffffffffffffffff1603610bf3575f6040517fec442f05000000000000000000000000000000000000000000000000000000008152600401610bea9190611cd3565b60405180910390fd5b610bfe838383610e4c565b505050565b610c1481610c0f610a68565b6112d1565b50565b5f610c22838361083f565b610cf757600160055f8581526020019081526020015f205f015f8473ffffffffffffffffffffffffffffffffffffffff1673ffffffffffffffffffffffffffffffffffffffff1681526020019081526020015f205f6101000a81548160ff021916908315150217905550610c94610a68565b73ffffffffffffffffffffffffffffffffffffffff168273ffffffffffffffffffffffffffffffffffffffff16847f2f8788117e7eff1d82e926ec794901d17c78024a50270940304540a733656f0d60405160405180910390a460019050610cfb565b5f90505b92915050565b5f610d0c838361083f565b15610de1575f60055f8581526020019081526020015f205f015f8473ffffffffffffffffffffffffffffffffffffffff1673ffffffffffffffffffffffffffffffffffffffff1681526020019081526020015f205f6101000a81548160ff021916908315150217905550610d7e610a68565b73ffffffffffffffffffffffffffffffffffffffff168273ffffffffffffffffffffffffffffffffffffffff16847ff6391f5c32d9c69d2a47ea670b442974b53935d1edc7fd64eb21e047a839171b60405160405180910390a460019050610de5565b5f90505b92915050565b610df3611322565b5f60065f6101000a81548160ff0219169083151502179055507f5db9ee0a495bf2e6ff9c91a7834c1ba4fdd244a5e8aa4e537bd38aeae4b073aa610e35610a68565b604051610e429190611cd3565b60405180910390a1565b610e546106de565b15610e94576040517f08c379a0000000000000000000000000000000000000000000000000000000008152600401610e8b90611d36565b60405180910390fd5b5f73ffffffffffffffffffffffffffffffffffffffff168373ffffffffffffffffffffffffffffffffffffffff16141580610efb57505f73ffffffffffffffffffffffffffffffffffffffff168273ffffffffffffffffffffffffffffffffffffffff1614155b15611011575f80600660019054906101000a900473ffffffffffffffffffffffffffffffffffffffff1673ffffffffffffffffffffffffffffffffffffffff16639d6232fa8686866040518463ffffffff1660e01b8152600401610f6193929190611d87565b6040805180830381865afa158015610f7b573d5f803e3d5ffd5b505050506040513d601f19601f82011682018060405250810190610f9f9190611e0d565b9150915081610fad82611362565b604051602001610fbd9190611ecf565b6040516020818303038152906040529061100d576040517f08c379a000000000000000000000000000000000000000000000000000000000815260040161100491906117ab565b60405180910390fd5b5050505b61101c83838361140c565b505050565b5f73ffffffffffffffffffffffffffffffffffffffff168273ffffffffffffffffffffffffffffffffffffffff1603611091575f6040517fec442f050000000000000000000000000000000000000000000000000000000081526004016110889190611cd3565b60405180910390fd5b61109c5f8383610e4c565b5050565b6110a8611625565b600160065f6101000a81548160ff0219169083151502179055507f62e78cea01bee320cd4e420270b5ea74000d11b0c9f74754ebdbfc544b05a2586110eb610a68565b6040516110f89190611cd3565b60405180910390a1565b5f73ffffffffffffffffffffffffffffffffffffffff168473ffffffffffffffffffffffffffffffffffffffff1603611172575f6040517fe602df050000000000000000000000000000000000000000000000000000000081526004016111699190611cd3565b60405180910390fd5b5f73ffffffffffffffffffffffffffffffffffffffff168373ffffffffffffffffffffffffffffffffffffffff16036111e2575f6040517f94280d620000000000000000000000000000000000000000000000000000000081526004016111d99190611cd3565b60405180910390fd5b8160015f8673ffffffffffffffffffffffffffffffffffffffff1673ffffffffffffffffffffffffffffffffffffffff1681526020019081526020015f205f8573ffffffffffffffffffffffffffffffffffffffff1673ffffffffffffffffffffffffffffffffffffffff1681526020019081526020015f208190555080156112cb578273ffffffffffffffffffffffffffffffffffffffff168473ffffffffffffffffffffffffffffffffffffffff167f8c5be1e5ebec7d5bd14f71427d1e84f3dd0314c0f7b2291e5b200ac8c7c3b925846040516112c291906118a5565b60405180910390a35b50505050565b6112db828261083f565b61131e5780826040517fe2517d3f000000000000000000000000000000000000000000000000000000008152600401611315929190611ef0565b60405180910390fd5b5050565b61132a6106de565b611360576040517f8dfc202b00000000000000000000000000000000000000000000000000000000815260040160405180910390fd5b565b60605f82036113a8576040518060400160405280600181526020017f30000000000000000000000000000000000000000000000000000000000000008152509050611407565b60605b5f831461140257600a836113bf9190611f44565b60306113cb9190611fa1565b816040516020016113dd92919061204c565b6040516020818303038152906040529050600a836113fb9190612073565b92506113ab565b809150505b919050565b5f73ffffffffffffffffffffffffffffffffffffffff168373ffffffffffffffffffffffffffffffffffffffff160361145c578060025f8282546114509190611fa1565b9250508190555061152a565b5f805f8573ffffffffffffffffffffffffffffffffffffffff1673ffffffffffffffffffffffffffffffffffffffff1681526020019081526020015f20549050818110156114e5578381836040517fe450d38c0000000000000000000000000000000000000000000000000000000081526004016114dc93929190611c9e565b60405180910390fd5b8181035f808673ffffffffffffffffffffffffffffffffffffffff1673ffffffffffffffffffffffffffffffffffffffff1681526020019081526020015f2081905550505b5f73ffffffffffffffffffffffffffffffffffffffff168273ffffffffffffffffffffffffffffffffffffffff1603611571578060025f82825403925050819055506115bb565b805f808473ffffffffffffffffffffffffffffffffffffffff1673ffffffffffffffffffffffffffffffffffffffff1681526020019081526020015f205f82825401925050819055505b8173ffffffffffffffffffffffffffffffffffffffff168373ffffffffffffffffffffffffffffffffffffffff167fddf252ad1be2c89b69c2b068fc378daa952ba7f163c4a11628f55a4df523b3ef8360405161161891906118a5565b60405180910390a3505050565b61162d6106de565b15611664576040517fd93c066500000000000000000000000000000000000000000000000000000000815260040160405180910390fd5b565b5f80fd5b5f80fd5b5f7fffffffff0000000000000000000000000000000000000000000000000000000082169050919050565b6116a28161166e565b81146116ac575f80fd5b50565b5f813590506116bd81611699565b92915050565b5f602082840312156116d8576116d7611666565b5b5f6116e5848285016116af565b91505092915050565b5f8115159050919050565b611702816116ee565b82525050565b5f60208201905061171b5f8301846116f9565b92915050565b5f81519050919050565b5f82825260208201905092915050565b5f5b8381101561175857808201518184015260208101905061173d565b5f8484015250505050565b5f601f19601f8301169050919050565b5f61177d82611721565b611787818561172b565b935061179781856020860161173b565b6117a081611763565b840191505092915050565b5f6020820190508181035f8301526117c38184611773565b905092915050565b5f73ffffffffffffffffffffffffffffffffffffffff82169050919050565b5f6117f4826117cb565b9050919050565b611804816117ea565b811461180e575f80fd5b50565b5f8135905061181f816117fb565b92915050565b5f819050919050565b61183781611825565b8114611841575f80fd5b50565b5f813590506118528161182e565b92915050565b5f806040838503121561186e5761186d611666565b5b5f61187b85828601611811565b925050602061188c85828601611844565b9150509250929050565b61189f81611825565b82525050565b5f6020820190506118b85f830184611896565b92915050565b5f805f606084860312156118d5576118d4611666565b5b5f6118e286828701611811565b93505060206118f386828701611811565b925050604061190486828701611844565b9150509250925092565b5f819050919050565b6119208161190e565b811461192a575f80fd5b50565b5f8135905061193b81611917565b92915050565b5f6020828403121561195657611955611666565b5b5f6119638482850161192d565b91505092915050565b6119758161190e565b82525050565b5f60208201905061198e5f83018461196c565b92915050565b5f80604083850312156119aa576119a9611666565b5b5f6119b78582860161192d565b92505060206119c885828601611811565b9150509250929050565b5f60ff82169050919050565b6119e7816119d2565b82525050565b5f602082019050611a005f8301846119de565b92915050565b5f819050919050565b5f611a29611a24611a1f846117cb565b611a06565b6117cb565b9050919050565b5f611a3a82611a0f565b9050919050565b5f611a4b82611a30565b9050919050565b611a5b81611a41565b82525050565b5f602082019050611a745f830184611a52565b92915050565b5f60208284031215611a8f57611a8e611666565b5b5f611a9c84828501611811565b91505092915050565b5f80fd5b5f80fd5b5f80fd5b5f8083601f840112611ac657611ac5611aa5565b5b8235905067ffffffffffffffff811115611ae357611ae2611aa9565b5b602083019150836001820283011115611aff57611afe611aad565b5b9250929050565b5f805f805f60808688031215611b1f57611b1e611666565b5b5f611b2c88828901611811565b9550506020611b3d88828901611811565b9450506040611b4e88828901611844565b935050606086013567ffffffffffffffff811115611b6f57611b6e61166a565b5b611b7b88828901611ab1565b92509250509295509295909350565b5f8060408385031215611ba057611b9f611666565b5b5f611bad85828601611811565b9250506020611bbe85828601611811565b9150509250929050565b7f4e487b71000000000000000000000000000000000000000000000000000000005f52602260045260245ffd5b5f6002820490506001821680611c0c57607f821691505b602082108103611c1f57611c1e611bc8565b5b50919050565b828183375f83830152505050565b5f611c3e838561172b565b9350611c4b838584611c25565b611c5483611763565b840190509392505050565b5f604082019050611c725f830186611896565b8181036020830152611c85818486611c33565b9050949350505050565b611c98816117ea565b82525050565b5f606082019050611cb15f830186611c8f565b611cbe6020830185611896565b611ccb6040830184611896565b949350505050565b5f602082019050611ce65f830184611c8f565b92915050565b7f70617573656400000000000000000000000000000000000000000000000000005f82015250565b5f611d2060068361172b565b9150611d2b82611cec565b602082019050919050565b5f6020820190508181035f830152611d4d81611d14565b9050919050565b5f82825260208201905092915050565b50565b5f611d725f83611d54565b9150611d7d82611d64565b5f82019050919050565b5f608082019050611d9a5f830186611c8f565b611da76020830185611c8f565b611db46040830184611896565b8181036060830152611dc581611d67565b9050949350505050565b611dd8816116ee565b8114611de2575f80fd5b50565b5f81519050611df381611dcf565b92915050565b5f81519050611e078161182e565b92915050565b5f8060408385031215611e2357611e22611666565b5b5f611e3085828601611de5565b9250506020611e4185828601611df9565b9150509250929050565b5f81905092915050565b7f636f6d706c69616e6365206661696c3a200000000000000000000000000000005f82015250565b5f611e89601183611e4b565b9150611e9482611e55565b601182019050919050565b5f611ea982611721565b611eb38185611e4b565b9350611ec381856020860161173b565b80840191505092915050565b5f611ed982611e7d565b9150611ee58284611e9f565b915081905092915050565b5f604082019050611f035f830185611c8f565b611f10602083018461196c565b9392505050565b7f4e487b71000000000000000000000000000000000000000000000000000000005f52601260045260245ffd5b5f611f4e82611825565b9150611f5983611825565b925082611f6957611f68611f17565b5b828206905092915050565b7f4e487b71000000000000000000000000000000000000000000000000000000005f52601160045260245ffd5b5f611fab82611825565b9150611fb683611825565b9250828201905080821115611fce57611fcd611f74565b5b92915050565b5f8160f81b9050919050565b5f611fea82611fd4565b9050919050565b612002611ffd826119d2565b611fe0565b82525050565b5f81519050919050565b5f81905092915050565b5f61202682612008565b6120308185612012565b935061204081856020860161173b565b80840191505092915050565b5f6120578285611ff1565b600182019150612067828461201c565b91508190509392505050565b5f61207d82611825565b915061208883611825565b92508261209857612097611f17565b5b82820490509291505056fea2646970667358221220e1a9aead7c8a14c41aeaf8781aa34d3eadba8ce360bb62067f8463912e41f80664736f6c63430008140033",
					"opcodes": "PUSH1 0x80 PUSH1 0x40 MSTORE CALLVALUE DUP1 ISZERO PUSH3 0x10 JUMPI PUSH0 DUP1 REVERT JUMPDEST POP PUSH1 0x40 MLOAD PUSH3 0x2906 CODESIZE SUB DUP1 PUSH3 0x2906 DUP4 CODECOPY DUP2 DUP2 ADD PUSH1 0x40 MSTORE DUP2 ADD SWAP1 PUSH3 0x36 SWAP2 SWAP1 PUSH3 0x457 JUMP JUMPDEST DUP4 DUP4 DUP2 PUSH1 0x3 SWAP1 DUP2 PUSH3 0x49 SWAP2 SWAP1 PUSH3 0x73B JUMP JUMPDEST POP DUP1 PUSH1 0x4 SWAP1 DUP2 PUSH3 0x5B SWAP2 SWAP1 PUSH3 0x73B JUMP JUMPDEST POP POP POP PUSH0 PUSH1 0x6 PUSH0 PUSH2 0x100 EXP DUP2 SLOAD DUP2 PUSH1 0xFF MUL NOT AND SWAP1 DUP4 ISZERO ISZERO MUL OR SWAP1 SSTORE POP PUSH3 0x8B PUSH0 DUP1 SHL DUP4 PUSH3 0x10A PUSH1 0x20 SHL PUSH1 0x20 SHR JUMP JUMPDEST POP PUSH3 0xBE PUSH32 0x114E74F6EA3BD819998F78687BFCB11B140DA08E9B7D222FA9C1F1BA1F2AA122 DUP4 PUSH3 0x10A PUSH1 0x20 SHL PUSH1 0x20 SHR JUMP JUMPDEST POP DUP1 PUSH1 0x6 PUSH1 0x1 PUSH2 0x100 EXP DUP2 SLOAD DUP2 PUSH20 0xFFFFFFFFFFFFFFFFFFFFFFFFFFFFFFFFFFFFFFFF MUL NOT AND SWAP1 DUP4 PUSH20 0xFFFFFFFFFFFFFFFFFFFFFFFFFFFFFFFFFFFFFFFF AND MUL OR SWAP1 SSTORE POP POP POP POP POP PUSH3 0x81F JUMP JUMPDEST PUSH0 PUSH3 0x11D DUP4 DUP4 PUSH3 0x206 PUSH1 0x20 SHL PUSH1 0x20 SHR JUMP JUMPDEST PUSH3 0x1FC JUMPI PUSH1 0x1 PUSH1 0x5 PUSH0 DUP6 DUP2 MSTORE PUSH1 0x20 ADD SWAP1 DUP2 MSTORE PUSH1 0x20 ADD PUSH0 KECCAK256 PUSH0 ADD PUSH0 DUP5 PUSH20 0xFFFFFFFFFFFFFFFFFFFFFFFFFFFFFFFFFFFFFFFF AND PUSH20 0xFFFFFFFFFFFFFFFFFFFFFFFFFFFFFFFFFFFFFFFF AND DUP2 MSTORE PUSH1 0x20 ADD SWAP1 DUP2 MSTORE PUSH1 0x20 ADD PUSH0 KECCAK256 PUSH0 PUSH2 0x100 EXP DUP2 SLOAD DUP2 PUSH1 0xFF MUL NOT AND SWAP1 DUP4 ISZERO ISZERO MUL OR SWAP1 SSTORE POP PUSH3 0x198 PUSH3 0x26A PUSH1 0x20 SHL PUSH1 0x20 SHR JUMP JUMPDEST PUSH20 0xFFFFFFFFFFFFFFFFFFFFFFFFFFFFFFFFFFFFFFFF AND DUP3 PUSH20 0xFFFFFFFFFFFFFFFFFFFFFFFFFFFFFFFFFFFFFFFF AND DUP5 PUSH32 0x2F8788117E7EFF1D82E926EC794901D17C78024A50270940304540A733656F0D PUSH1 0x40 MLOAD PUSH1 0x40 MLOAD DUP1 SWAP2 SUB SWAP1 LOG4 PUSH1 0x1 SWAP1 POP PUSH3 0x200 JUMP JUMPDEST PUSH0 SWAP1 POP JUMPDEST SWAP3 SWAP2 POP POP JUMP JUMPDEST PUSH0 PUSH1 0x5 PUSH0 DUP5 DUP2 MSTORE PUSH1 0x20 ADD SWAP1 DUP2 MSTORE PUSH1 0x20 ADD PUSH0 KECCAK256 PUSH0 ADD PUSH0 DUP4 PUSH20 0xFFFFFFFFFFFFFFFFFFFFFFFFFFFFFFFFFFFFFFFF AND PUSH20 0xFFFFFFFFFFFFFFFFFFFFFFFFFFFFFFFFFFFFFFFF AND DUP2 MSTORE PUSH1 0x20 ADD SWAP1 DUP2 MSTORE PUSH1 0x20 ADD PUSH0 KECCAK256 PUSH0 SWAP1 SLOAD SWAP1 PUSH2 0x100 EXP SWAP1 DIV PUSH1 0xFF AND SWAP1 POP SWAP3 SWAP2 POP POP JUMP JUMPDEST PUSH0 CALLER SWAP1 POP SWAP1 JUMP JUMPDEST PUSH0 PUSH1 0x40 MLOAD SWAP1 POP SWAP1 JUMP JUMPDEST PUSH0 DUP1 REVERT JUMPDEST PUSH0 DUP1 REVERT JUMPDEST PUSH0 DUP1 REVERT JUMPDEST PUSH0 DUP1 REVERT JUMPDEST PUSH0 PUSH1 0x1F NOT PUSH1 0x1F DUP4 ADD AND SWAP1 POP SWAP2 SWAP1 POP JUMP JUMPDEST PUSH32 0x4E487B7100000000000000000000000000000000000000000000000000000000 PUSH0 MSTORE PUSH1 0x41 PUSH1 0x4 MSTORE PUSH1 0x24 PUSH0 REVERT JUMPDEST PUSH3 0x2D2 DUP3 PUSH3 0x28A JUMP JUMPDEST DUP2 ADD DUP2 DUP2 LT PUSH8 0xFFFFFFFFFFFFFFFF DUP3 GT OR ISZERO PUSH3 0x2F4 JUMPI PUSH3 0x2F3 PUSH3 0x29A JUMP JUMPDEST JUMPDEST DUP1 PUSH1 0x40 MSTORE POP POP POP JUMP JUMPDEST PUSH0 PUSH3 0x308 PUSH3 0x271 JUMP JUMPDEST SWAP1 POP PUSH3 0x316 DUP3 DUP3 PUSH3 0x2C7 JUMP JUMPDEST SWAP2 SWAP1 POP JUMP JUMPDEST PUSH0 PUSH8 0xFFFFFFFFFFFFFFFF DUP3 GT ISZERO PUSH3 0x338 JUMPI PUSH3 0x337 PUSH3 0x29A JUMP JUMPDEST JUMPDEST PUSH3 0x343 DUP3 PUSH3 0x28A JUMP JUMPDEST SWAP1 POP PUSH1 0x20 DUP2 ADD SWAP1 POP SWAP2 SWAP1 POP JUMP JUMPDEST PUSH0 JUMPDEST DUP4 DUP2 LT ISZERO PUSH3 0x36F JUMPI DUP1 DUP3 ADD MLOAD DUP2 DUP5 ADD MSTORE PUSH1 0x20 DUP2 ADD SWAP1 POP PUSH3 0x352 JUMP JUMPDEST PUSH0 DUP5 DUP5 ADD MSTORE POP POP POP POP JUMP JUMPDEST PUSH0 PUSH3 0x390 PUSH3 0x38A DUP5 PUSH3 0x31B JUMP JUMPDEST PUSH3 0x2FD JUMP JUMPDEST SWAP1 POP DUP3 DUP2 MSTORE PUSH1 0x20 DUP2 ADD DUP5 DUP5 DUP5 ADD GT ISZERO PUSH3 0x3AF JUMPI PUSH3 0x3AE PUSH3 0x286 JUMP JUMPDEST JUMPDEST PUSH3 0x3BC DUP5 DUP3 DUP6 PUSH3 0x350 JUMP JUMPDEST POP SWAP4 SWAP3 POP POP POP JUMP JUMPDEST PUSH0 DUP3 PUSH1 0x1F DUP4 ADD SLT PUSH3 0x3DB JUMPI PUSH3 0x3DA PUSH3 0x282 JUMP JUMPDEST JUMPDEST DUP2 MLOAD PUSH3 0x3ED DUP5 DUP3 PUSH1 0x20 DUP7 ADD PUSH3 0x37A JUMP JUMPDEST SWAP2 POP POP SWAP3 SWAP2 POP POP JUMP JUMPDEST PUSH0 PUSH20 0xFFFFFFFFFFFFFFFFFFFFFFFFFFFFFFFFFFFFFFFF DUP3 AND SWAP1 POP SWAP2 SWAP1 POP JUMP JUMPDEST PUSH0 PUSH3 0x421 DUP3 PUSH3 0x3F6 JUMP JUMPDEST SWAP1 POP SWAP2 SWAP1 POP JUMP JUMPDEST PUSH3 0x433 DUP2 PUSH3 0x415 JUMP JUMPDEST DUP2 EQ PUSH3 0x43E JUMPI PUSH0 DUP1 REVERT JUMPDEST POP JUMP JUMPDEST PUSH0 DUP2 MLOAD SWAP1 POP PUSH3 0x451 DUP2 PUSH3 0x428 JUMP JUMPDEST SWAP3 SWAP2 POP POP JUMP JUMPDEST PUSH0 DUP1 PUSH0 DUP1 PUSH1 0x80 DUP6 DUP8 SUB SLT ISZERO PUSH3 0x472 JUMPI PUSH3 0x471 PUSH3 0x27A JUMP JUMPDEST JUMPDEST PUSH0 DUP6 ADD MLOAD PUSH8 0xFFFFFFFFFFFFFFFF DUP2 GT ISZERO PUSH3 0x492 JUMPI PUSH3 0x491 PUSH3 0x27E JUMP JUMPDEST JUMPDEST PUSH3 0x4A0 DUP8 DUP3 DUP9 ADD PUSH3 0x3C4 JUMP JUMPDEST SWAP5 POP POP PUSH1 0x20 DUP6 ADD MLOAD PUSH8 0xFFFFFFFFFFFFFFFF DUP2 GT ISZERO PUSH3 0x4C4 JUMPI PUSH3 0x4C3 PUSH3 0x27E JUMP JUMPDEST JUMPDEST PUSH3 0x4D2 DUP8 DUP3 DUP9 ADD PUSH3 0x3C4 JUMP JUMPDEST SWAP4 POP POP PUSH1 0x40 PUSH3 0x4E5 DUP8 DUP3 DUP9 ADD PUSH3 0x441 JUMP JUMPDEST SWAP3 POP POP PUSH1 0x60 PUSH3 0x4F8 DUP8 DUP3 DUP9 ADD PUSH3 0x441 JUMP JUMPDEST SWAP2 POP POP SWAP3 SWAP6 SWAP2 SWAP5 POP SWAP3 POP JUMP JUMPDEST PUSH0 DUP2 MLOAD SWAP1 POP SWAP2 SWAP1 POP JUMP JUMPDEST PUSH32 0x4E487B7100000000000000000000000000000000000000000000000000000000 PUSH0 MSTORE PUSH1 0x22 PUSH1 0x4 MSTORE PUSH1 0x24 PUSH0 REVERT JUMPDEST PUSH0 PUSH1 0x2 DUP3 DIV SWAP1 POP PUSH1 0x1 DUP3 AND DUP1 PUSH3 0x553 JUMPI PUSH1 0x7F DUP3 AND SWAP2 POP JUMPDEST PUSH1 0x20 DUP3 LT DUP2 SUB PUSH3 0x569 JUMPI PUSH3 0x568 PUSH3 0x50E JUMP JUMPDEST JUMPDEST POP SWAP2 SWAP1 POP JUMP JUMPDEST PUSH0 DUP2 SWAP1 POP DUP2 PUSH0 MSTORE PUSH1 0x20 PUSH0 KECCAK256 SWAP1 POP SWAP2 SWAP1 POP JUMP JUMPDEST PUSH0 PUSH1 0x20 PUSH1 0x1F DUP4 ADD DIV SWAP1 POP SWAP2 SWAP1 POP JUMP JUMPDEST PUSH0 DUP3 DUP3 SHL SWAP1 POP SWAP3 SWAP2 POP POP JUMP JUMPDEST PUSH0 PUSH1 0x8 DUP4 MUL PUSH3 0x5CD PUSH32 0xFFFFFFFFFFFFFFFFFFFFFFFFFFFFFFFFFFFFFFFFFFFFFFFFFFFFFFFFFFFFFFFF DUP3 PUSH3 0x590 JUMP JUMPDEST PUSH3 0x5D9 DUP7 DUP4 PUSH3 0x590 JUMP JUMPDEST SWAP6 POP DUP1 NOT DUP5 AND SWAP4 POP DUP1 DUP7 AND DUP5 OR SWAP3 POP POP POP SWAP4 SWAP3 POP POP POP JUMP JUMPDEST PUSH0 DUP2 SWAP1 POP SWAP2 SWAP1 POP JUMP JUMPDEST PUSH0 DUP2 SWAP1 POP SWAP2 SWAP1 POP JUMP JUMPDEST PUSH0 PUSH3 0x623 PUSH3 0x61D PUSH3 0x617 DUP5 PUSH3 0x5F1 JUMP JUMPDEST PUSH3 0x5FA JUMP JUMPDEST PUSH3 0x5F1 JUMP JUMPDEST SWAP1 POP SWAP2 SWAP1 POP JUMP JUMPDEST PUSH0 DUP2 SWAP1 POP SWAP2 SWAP1 POP JUMP JUMPDEST PUSH3 0x63E DUP4 PUSH3 0x603 JUMP JUMPDEST PUSH3 0x656 PUSH3 0x64D DUP3 PUSH3 0x62A JUMP JUMPDEST DUP5 DUP5 SLOAD PUSH3 0x59C JUMP JUMPDEST DUP3 SSTORE POP POP POP POP JUMP JUMPDEST PUSH0 SWAP1 JUMP JUMPDEST PUSH3 0x66C PUSH3 0x65E JUMP JUMPDEST PUSH3 0x679 DUP2 DUP5 DUP5 PUSH3 0x633 JUMP JUMPDEST POP POP POP JUMP JUMPDEST JUMPDEST DUP2 DUP2 LT ISZERO PUSH3 0x6A0 JUMPI PUSH3 0x694 PUSH0 DUP3 PUSH3 0x662 JUMP JUMPDEST PUSH1 0x1 DUP2 ADD SWAP1 POP PUSH3 0x67F JUMP JUMPDEST POP POP JUMP JUMPDEST PUSH1 0x1F DUP3 GT ISZERO PUSH3 0x6EF JUMPI PUSH3 0x6B9 DUP2 PUSH3 0x56F JUMP JUMPDEST PUSH3 0x6C4 DUP5 PUSH3 0x581 JUMP JUMPDEST DUP2 ADD PUSH1 0x20 DUP6 LT ISZERO PUSH3 0x6D4 JUMPI DUP2 SWAP1 POP JUMPDEST PUSH3 0x6EC PUSH3 0x6E3 DUP6 PUSH3 0x581 JUMP JUMPDEST DUP4 ADD DUP3 PUSH3 0x67E JUMP JUMPDEST POP POP JUMPDEST POP POP POP JUMP JUMPDEST PUSH0 DUP3 DUP3 SHR SWAP1 POP SWAP3 SWAP2 POP POP JUMP JUMPDEST PUSH0 PUSH3 0x711 PUSH0 NOT DUP5 PUSH1 0x8 MUL PUSH3 0x6F4 JUMP JUMPDEST NOT DUP1 DUP4 AND SWAP2 POP POP SWAP3 SWAP2 POP POP JUMP JUMPDEST PUSH0 PUSH3 0x72B DUP4 DUP4 PUSH3 0x700 JUMP JUMPDEST SWAP2 POP DUP3 PUSH1 0x2 MUL DUP3 OR SWAP1 POP SWAP3 SWAP2 POP POP JUMP JUMPDEST PUSH3 0x746 DUP3 PUSH3 0x504 JUMP JUMPDEST PUSH8 0xFFFFFFFFFFFFFFFF DUP2 GT ISZERO PUSH3 0x762 JUMPI PUSH3 0x761 PUSH3 0x29A JUMP JUMPDEST JUMPDEST PUSH3 0x76E DUP3 SLOAD PUSH3 0x53B JUMP JUMPDEST PUSH3 0x77B DUP3 DUP3 DUP6 PUSH3 0x6A4 JUMP JUMPDEST PUSH0 PUSH1 0x20 SWAP1 POP PUSH1 0x1F DUP4 GT PUSH1 0x1 DUP2 EQ PUSH3 0x7B1 JUMPI PUSH0 DUP5 ISZERO PUSH3 0x79C JUMPI DUP3 DUP8 ADD MLOAD SWAP1 POP JUMPDEST PUSH3 0x7A8 DUP6 DUP3 PUSH3 0x71E JUMP JUMPDEST DUP7 SSTORE POP PUSH3 0x817 JUMP JUMPDEST PUSH1 0x1F NOT DUP5 AND PUSH3 0x7C1 DUP7 PUSH3 0x56F JUMP JUMPDEST PUSH0 JUMPDEST DUP3 DUP2 LT ISZERO PUSH3 0x7EA JUMPI DUP5 DUP10 ADD MLOAD DUP3 SSTORE PUSH1 0x1 DUP3 ADD SWAP2 POP PUSH1 0x20 DUP6 ADD SWAP5 POP PUSH1 0x20 DUP2 ADD SWAP1 POP PUSH3 0x7C3 JUMP JUMPDEST DUP7 DUP4 LT ISZERO PUSH3 0x80A JUMPI DUP5 DUP10 ADD MLOAD PUSH3 0x806 PUSH1 0x1F DUP10 AND DUP3 PUSH3 0x700 JUMP JUMPDEST DUP4 SSTORE POP JUMPDEST PUSH1 0x1 PUSH1 0x2 DUP9 MUL ADD DUP9 SSTORE POP POP POP JUMPDEST POP POP POP POP POP POP JUMP JUMPDEST PUSH2 0x20D9 DUP1 PUSH3 0x82D PUSH0 CODECOPY PUSH0 RETURN INVALID PUSH1 0x80 PUSH1 0x40 MSTORE CALLVALUE DUP1 ISZERO PUSH2 0xF JUMPI PUSH0 DUP1 REVERT JUMPDEST POP PUSH1 0x4 CALLDATASIZE LT PUSH2 0x14B JUMPI PUSH0 CALLDATALOAD PUSH1 0xE0 SHR DUP1 PUSH4 0x5C975ABB GT PUSH2 0xC1 JUMPI DUP1 PUSH4 0x91D14854 GT PUSH2 0x7A JUMPI DUP1 PUSH4 0x91D14854 EQ PUSH2 0x377 JUMPI DUP1 PUSH4 0x95D89B41 EQ PUSH2 0x3A7 JUMPI DUP1 PUSH4 0xA217FDDF EQ PUSH2 0x3C5 JUMPI DUP1 PUSH4 0xA9059CBB EQ PUSH2 0x3E3 JUMPI DUP1 PUSH4 0xD547741F EQ PUSH2 0x413 JUMPI DUP1 PUSH4 0xDD62ED3E EQ PUSH2 0x42F JUMPI PUSH2 0x14B JUMP JUMPDEST DUP1 PUSH4 0x5C975ABB EQ PUSH2 0x2C7 JUMPI DUP1 PUSH4 0x6290865D EQ PUSH2 0x2E5 JUMPI DUP1 PUSH4 0x70A08231 EQ PUSH2 0x303 JUMPI DUP1 PUSH4 0x82AEFA24 EQ PUSH2 0x333 JUMPI DUP1 PUSH4 0x8456CB59 EQ PUSH2 0x351 JUMPI DUP1 PUSH4 0x89021456 EQ PUSH2 0x35B JUMPI PUSH2 0x14B JUMP JUMPDEST DUP1 PUSH4 0x248A9CA3 GT PUSH2 0x113 JUMPI DUP1 PUSH4 0x248A9CA3 EQ PUSH2 0x21B JUMPI DUP1 PUSH4 0x2F2FF15D EQ PUSH2 0x24B JUMPI DUP1 PUSH4 0x313CE567 EQ PUSH2 0x267 JUMPI DUP1 PUSH4 0x36568ABE EQ PUSH2 0x285 JUMPI DUP1 PUSH4 0x3F4BA83A EQ PUSH2 0x2A1 JUMPI DUP1 PUSH4 0x40C10F19 EQ PUSH2 0x2AB JUMPI PUSH2 0x14B JUMP JUMPDEST DUP1 PUSH4 0x1FFC9A7 EQ PUSH2 0x14F JUMPI DUP1 PUSH4 0x6FDDE03 EQ PUSH2 0x17F JUMPI DUP1 PUSH4 0x95EA7B3 EQ PUSH2 0x19D JUMPI DUP1 PUSH4 0x18160DDD EQ PUSH2 0x1CD JUMPI DUP1 PUSH4 0x23B872DD EQ PUSH2 0x1EB JUMPI JUMPDEST PUSH0 DUP1 REVERT JUMPDEST PUSH2 0x169 PUSH1 0x4 DUP1 CALLDATASIZE SUB DUP2 ADD SWAP1 PUSH2 0x164 SWAP2 SWAP1 PUSH2 0x16C3 JUMP JUMPDEST PUSH2 0x45F JUMP JUMPDEST PUSH1 0x40 MLOAD PUSH2 0x176 SWAP2 SWAP1 PUSH2 0x1708 JUMP JUMPDEST PUSH1 0x40 MLOAD DUP1 SWAP2 SUB SWAP1 RETURN JUMPDEST PUSH2 0x187 PUSH2 0x4D8 JUMP JUMPDEST PUSH1 0x40 MLOAD PUSH2 0x194 SWAP2 SWAP1 PUSH2 0x17AB JUMP JUMPDEST PUSH1 0x40 MLOAD DUP1 SWAP2 SUB SWAP1 RETURN JUMPDEST PUSH2 0x1B7 PUSH1 0x4 DUP1 CALLDATASIZE SUB DUP2 ADD SWAP1 PUSH2 0x1B2 SWAP2 SWAP1 PUSH2 0x1858 JUMP JUMPDEST PUSH2 0x568 JUMP JUMPDEST PUSH1 0x40 MLOAD PUSH2 0x1C4 SWAP2 SWAP1 PUSH2 0x1708 JUMP JUMPDEST PUSH1 0x40 MLOAD DUP1 SWAP2 SUB SWAP1 RETURN JUMPDEST PUSH2 0x1D5 PUSH2 0x58A JUMP JUMPDEST PUSH1 0x40 MLOAD PUSH2 0x1E2 SWAP2 SWAP1 PUSH2 0x18A5 JUMP JUMPDEST PUSH1 0x40 MLOAD DUP1 SWAP2 SUB SWAP1 RETURN JUMPDEST PUSH2 0x205 PUSH1 0x4 DUP1 CALLDATASIZE SUB DUP2 ADD SWAP1 PUSH2 0x200 SWAP2 SWAP1 PUSH2 0x18BE JUMP JUMPDEST PUSH2 0x593 JUMP JUMPDEST PUSH1 0x40 MLOAD PUSH2 0x212 SWAP2 SWAP1 PUSH2 0x1708 JUMP JUMPDEST PUSH1 0x40 MLOAD DUP1 SWAP2 SUB SWAP1 RETURN JUMPDEST PUSH2 0x235 PUSH1 0x4 DUP1 CALLDATASIZE SUB DUP2 ADD SWAP1 PUSH2 0x230 SWAP2 SWAP1 PUSH2 0x1941 JUMP JUMPDEST PUSH2 0x5C1 JUMP JUMPDEST PUSH1 0x40 MLOAD PUSH2 0x242 SWAP2 SWAP1 PUSH2 0x197B JUMP JUMPDEST PUSH1 0x40 MLOAD DUP1 SWAP2 SUB SWAP1 RETURN JUMPDEST PUSH2 0x265 PUSH1 0x4 DUP1 CALLDATASIZE SUB DUP2 ADD SWAP1 PUSH2 0x260 SWAP2 SWAP1 PUSH2 0x1994 JUMP JUMPDEST PUSH2 0x5DE JUMP JUMPDEST STOP JUMPDEST PUSH2 0x26F PUSH2 0x600 JUMP JUMPDEST PUSH1 0x40 MLOAD PUSH2 0x27C SWAP2 SWAP1 PUSH2 0x19ED JUMP JUMPDEST PUSH1 0x40 MLOAD DUP1 SWAP2 SUB SWAP1 RETURN JUMPDEST PUSH2 0x29F PUSH1 0x4 DUP1 CALLDATASIZE SUB DUP2 ADD SWAP1 PUSH2 0x29A SWAP2 SWAP1 PUSH2 0x1994 JUMP JUMPDEST PUSH2 0x608 JUMP JUMPDEST STOP JUMPDEST PUSH2 0x2A9 PUSH2 0x683 JUMP JUMPDEST STOP JUMPDEST PUSH2 0x2C5 PUSH1 0x4 DUP1 CALLDATASIZE SUB DUP2 ADD SWAP1 PUSH2 0x2C0 SWAP2 SWAP1 PUSH2 0x1858 JUMP JUMPDEST PUSH2 0x69A JUMP JUMPDEST STOP JUMPDEST PUSH2 0x2CF PUSH2 0x6DE JUMP JUMPDEST PUSH1 0x40 MLOAD PUSH2 0x2DC SWAP2 SWAP1 PUSH2 0x1708 JUMP JUMPDEST PUSH1 0x40 MLOAD DUP1 SWAP2 SUB SWAP1 RETURN JUMPDEST PUSH2 0x2ED PUSH2 0x6F3 JUMP JUMPDEST PUSH1 0x40 MLOAD PUSH2 0x2FA SWAP2 SWAP1 PUSH2 0x1A61 JUMP JUMPDEST PUSH1 0x40 MLOAD DUP1 SWAP2 SUB SWAP1 RETURN JUMPDEST PUSH2 0x31D PUSH1 0x4 DUP1 CALLDATASIZE SUB DUP2 ADD SWAP1 PUSH2 0x318 SWAP2 SWAP1 PUSH2 0x1A7A JUMP JUMPDEST PUSH2 0x719 JUMP JUMPDEST PUSH1 0x40 MLOAD PUSH2 0x32A SWAP2 SWAP1 PUSH2 0x18A5 JUMP JUMPDEST PUSH1 0x40 MLOAD DUP1 SWAP2 SUB SWAP1 RETURN JUMPDEST PUSH2 0x33B PUSH2 0x75E JUMP JUMPDEST PUSH1 0x40 MLOAD PUSH2 0x348 SWAP2 SWAP1 PUSH2 0x197B JUMP JUMPDEST PUSH1 0x40 MLOAD DUP1 SWAP2 SUB SWAP1 RETURN JUMPDEST PUSH2 0x359 PUSH2 0x782 JUMP JUMPDEST STOP JUMPDEST PUSH2 0x375 PUSH1 0x4 DUP1 CALLDATASIZE SUB DUP2 ADD SWAP1 PUSH2 0x370 SWAP2 SWAP1 PUSH2 0x1B06 JUMP JUMPDEST PUSH2 0x799 JUMP JUMPDEST STOP JUMPDEST PUSH2 0x391 PUSH1 0x4 DUP1 CALLDATASIZE SUB DUP2 ADD SWAP1 PUSH2 0x38C SWAP2 SWAP1 PUSH2 0x1994 JUMP JUMPDEST PUSH2 0x83F JUMP JUMPDEST PUSH1 0x40 MLOAD PUSH2 0x39E SWAP2 SWAP1 PUSH2 0x1708 JUMP JUMPDEST PUSH1 0x40 MLOAD DUP1 SWAP2 SUB SWAP1 RETURN JUMPDEST PUSH2 0x3AF PUSH2 0x8A3 JUMP JUMPDEST PUSH1 0x40 MLOAD PUSH2 0x3BC SWAP2 SWAP1 PUSH2 0x17AB JUMP JUMPDEST PUSH1 0x40 MLOAD DUP1 SWAP2 SUB SWAP1 RETURN JUMPDEST PUSH2 0x3CD PUSH2 0x933 JUMP JUMPDEST PUSH1 0x40 MLOAD PUSH2 0x3DA SWAP2 SWAP1 PUSH2 0x197B JUMP JUMPDEST PUSH1 0x40 MLOAD DUP1 SWAP2 SUB SWAP1 RETURN JUMPDEST PUSH2 0x3FD PUSH1 0x4 DUP1 CALLDATASIZE SUB DUP2 ADD SWAP1 PUSH2 0x3F8 SWAP2 SWAP1 PUSH2 0x1858 JUMP JUMPDEST PUSH2 0x939 JUMP JUMPDEST PUSH1 0x40 MLOAD PUSH2 0x40A SWAP2 SWAP1 PUSH2 0x1708 JUMP JUMPDEST PUSH1 0x40 MLOAD DUP1 SWAP2 SUB SWAP1 RETURN JUMPDEST PUSH2 0x42D PUSH1 0x4 DUP1 CALLDATASIZE SUB DUP2 ADD SWAP1 PUSH2 0x428 SWAP2 SWAP1 PUSH2 0x1994 JUMP JUMPDEST PUSH2 0x95B JUMP JUMPDEST STOP JUMPDEST PUSH2 0x449 PUSH1 0x4 DUP1 CALLDATASIZE SUB DUP2 ADD SWAP1 PUSH2 0x444 SWAP2 SWAP1 PUSH2 0x1B8A JUMP JUMPDEST PUSH2 0x97D JUMP JUMPDEST PUSH1 0x40 MLOAD PUSH2 0x456 SWAP2 SWAP1 PUSH2 0x18A5 JUMP JUMPDEST PUSH1 0x40 MLOAD DUP1 SWAP2 SUB SWAP1 RETURN JUMPDEST PUSH0 PUSH32 0x7965DB0B00000000000000000000000000000000000000000000000000000000 PUSH28 0xFFFFFFFFFFFFFFFFFFFFFFFFFFFFFFFFFFFFFFFFFFFFFFFFFFFFFFFF NOT AND DUP3 PUSH28 0xFFFFFFFFFFFFFFFFFFFFFFFFFFFFFFFFFFFFFFFFFFFFFFFFFFFFFFFF NOT AND EQ DUP1 PUSH2 0x4D1 JUMPI POP PUSH2 0x4D0 DUP3 PUSH2 0x9FF JUMP JUMPDEST JUMPDEST SWAP1 POP SWAP2 SWAP1 POP JUMP JUMPDEST PUSH1 0x60 PUSH1 0x3 DUP1 SLOAD PUSH2 0x4E7 SWAP1 PUSH2 0x1BF5 JUMP JUMPDEST DUP1 PUSH1 0x1F ADD PUSH1 0x20 DUP1 SWAP2 DIV MUL PUSH1 0x20 ADD PUSH1 0x40 MLOAD SWAP1 DUP2 ADD PUSH1 0x40 MSTORE DUP1 SWAP3 SWAP2 SWAP1 DUP2 DUP2 MSTORE PUSH1 0x20 ADD DUP3 DUP1 SLOAD PUSH2 0x513 SWAP1 PUSH2 0x1BF5 JUMP JUMPDEST DUP1 ISZERO PUSH2 0x55E JUMPI DUP1 PUSH1 0x1F LT PUSH2 0x535 JUMPI PUSH2 0x100 DUP1 DUP4 SLOAD DIV MUL DUP4 MSTORE SWAP2 PUSH1 0x20 ADD SWAP2 PUSH2 0x55E JUMP JUMPDEST DUP3 ADD SWAP2 SWAP1 PUSH0 MSTORE PUSH1 0x20 PUSH0 KECCAK256 SWAP1 JUMPDEST DUP2 SLOAD DUP2 MSTORE SWAP1 PUSH1 0x1 ADD SWAP1 PUSH1 0x20 ADD DUP1 DUP4 GT PUSH2 0x541 JUMPI DUP3 SWAP1 SUB PUSH1 0x1F AND DUP3 ADD SWAP2 JUMPDEST POP POP POP POP POP SWAP1 POP SWAP1 JUMP JUMPDEST PUSH0 DUP1 PUSH2 0x572 PUSH2 0xA68 JUMP JUMPDEST SWAP1 POP PUSH2 0x57F DUP2 DUP6 DUP6 PUSH2 0xA6F JUMP JUMPDEST PUSH1 0x1 SWAP2 POP POP SWAP3 SWAP2 POP POP JUMP JUMPDEST PUSH0 PUSH1 0x2 SLOAD SWAP1 POP SWAP1 JUMP JUMPDEST PUSH0 DUP1 PUSH2 0x59D PUSH2 0xA68 JUMP JUMPDEST SWAP1 POP PUSH2 0x5AA DUP6 DUP3 DUP6 PUSH2 0xA81 JUMP JUMPDEST PUSH2 0x5B5 DUP6 DUP6 DUP6 PUSH2 0xB13 JUMP JUMPDEST PUSH1 0x1 SWAP2 POP POP SWAP4 SWAP3 POP POP POP JUMP JUMPDEST PUSH0 PUSH1 0x5 PUSH0 DUP4 DUP2 MSTORE PUSH1 0x20 ADD SWAP1 DUP2 MSTORE PUSH1 0x20 ADD PUSH0 KECCAK256 PUSH1 0x1 ADD SLOAD SWAP1 POP SWAP2 SWAP1 POP JUMP JUMPDEST PUSH2 0x5E7 DUP3 PUSH2 0x5C1 JUMP JUMPDEST PUSH2 0x5F0 DUP2 PUSH2 0xC03 JUMP JUMPDEST PUSH2 0x5FA DUP4 DUP4 PUSH2 0xC17 JUMP JUMPDEST POP POP POP POP JUMP JUMPDEST PUSH0 PUSH1 0x12 SWAP1 POP SWAP1 JUMP JUMPDEST PUSH2 0x610 PUSH2 0xA68 JUMP JUMPDEST PUSH20 0xFFFFFFFFFFFFFFFFFFFFFFFFFFFFFFFFFFFFFFFF AND DUP2 PUSH20 0xFFFFFFFFFFFFFFFFFFFFFFFFFFFFFFFFFFFFFFFF AND EQ PUSH2 0x674 JUMPI PUSH1 0x40 MLOAD PUSH32 0x6697B23200000000000000000000000000000000000000000000000000000000 DUP2 MSTORE PUSH1 0x4 ADD PUSH1 0x40 MLOAD DUP1 SWAP2 SUB SWAP1 REVERT JUMPDEST PUSH2 0x67E DUP3 DUP3 PUSH2 0xD01 JUMP JUMPDEST POP POP POP JUMP JUMPDEST PUSH0 DUP1 SHL PUSH2 0x68F DUP2 PUSH2 0xC03 JUMP JUMPDEST PUSH2 0x697 PUSH2 0xDEB JUMP JUMPDEST POP JUMP JUMPDEST PUSH32 0x114E74F6EA3BD819998F78687BFCB11B140DA08E9B7D222FA9C1F1BA1F2AA122 PUSH2 0x6C4 DUP2 PUSH2 0xC03 JUMP JUMPDEST PUSH2 0x6CF PUSH0 DUP5 DUP5 PUSH2 0xE4C JUMP JUMPDEST PUSH2 0x6D9 DUP4 DUP4 PUSH2 0x1021 JUMP JUMPDEST POP POP POP JUMP JUMPDEST PUSH0 PUSH1 0x6 PUSH0 SWAP1 SLOAD SWAP1 PUSH2 0x100 EXP SWAP1 DIV PUSH1 0xFF AND SWAP1 POP SWAP1 JUMP JUMPDEST PUSH1 0x6 PUSH1 0x1 SWAP1 SLOAD SWAP1 PUSH2 0x100 EXP SWAP1 DIV PUSH20 0xFFFFFFFFFFFFFFFFFFFFFFFFFFFFFFFFFFFFFFFF AND DUP2 JUMP JUMPDEST PUSH0 DUP1 PUSH0 DUP4 PUSH20 0xFFFFFFFFFFFFFFFFFFFFFFFFFFFFFFFFFFFFFFFF AND PUSH20 0xFFFFFFFFFFFFFFFFFFFFFFFFFFFFFFFFFFFFFFFF AND DUP2 MSTORE PUSH1 0x20 ADD SWAP1 DUP2 MSTORE PUSH1 0x20 ADD PUSH0 KECCAK256 SLOAD SWAP1 POP SWAP2 SWAP1 POP JUMP JUMPDEST PUSH32 0x114E74F6EA3BD819998F78687BFCB11B140DA08E9B7D222FA9C1F1BA1F2AA122 DUP2 JUMP JUMPDEST PUSH0 DUP1 SHL PUSH2 0x78E DUP2 PUSH2 0xC03 JUMP JUMPDEST PUSH2 0x796 PUSH2 0x10A0 JUMP JUMPDEST POP JUMP JUMPDEST PUSH32 0x114E74F6EA3BD819998F78687BFCB11B140DA08E9B7D222FA9C1F1BA1F2AA122 PUSH2 0x7C3 DUP2 PUSH2 0xC03 JUMP JUMPDEST PUSH2 0x7CE DUP7 DUP7 DUP7 PUSH2 0xE4C JUMP JUMPDEST DUP5 PUSH20 0xFFFFFFFFFFFFFFFFFFFFFFFFFFFFFFFFFFFFFFFF AND DUP7 PUSH20 0xFFFFFFFFFFFFFFFFFFFFFFFFFFFFFFFFFFFFFFFF AND PUSH32 0x2EAEE783069D2F4CC557477A5AF4ED6420985B57C0F64B600E0601415B580BA0 DUP7 DUP7 DUP7 PUSH1 0x40 MLOAD PUSH2 0x82F SWAP4 SWAP3 SWAP2 SWAP1 PUSH2 0x1C5F JUMP JUMPDEST PUSH1 0x40 MLOAD DUP1 SWAP2 SUB SWAP1 LOG3 POP POP POP POP POP POP JUMP JUMPDEST PUSH0 PUSH1 0x5 PUSH0 DUP5 DUP2 MSTORE PUSH1 0x20 ADD SWAP1 DUP2 MSTORE PUSH1 0x20 ADD PUSH0 KECCAK256 PUSH0 ADD PUSH0 DUP4 PUSH20 0xFFFFFFFFFFFFFFFFFFFFFFFFFFFFFFFFFFFFFFFF AND PUSH20 0xFFFFFFFFFFFFFFFFFFFFFFFFFFFFFFFFFFFFFFFF AND DUP2 MSTORE PUSH1 0x20 ADD SWAP1 DUP2 MSTORE PUSH1 0x20 ADD PUSH0 KECCAK256 PUSH0 SWAP1 SLOAD SWAP1 PUSH2 0x100 EXP SWAP1 DIV PUSH1 0xFF AND SWAP1 POP SWAP3 SWAP2 POP POP JUMP JUMPDEST PUSH1 0x60 PUSH1 0x4 DUP1 SLOAD PUSH2 0x8B2 SWAP1 PUSH2 0x1BF5 JUMP JUMPDEST DUP1 PUSH1 0x1F ADD PUSH1 0x20 DUP1 SWAP2 DIV MUL PUSH1 0x20 ADD PUSH1 0x40 MLOAD SWAP1 DUP2 ADD PUSH1 0x40 MSTORE DUP1 SWAP3 SWAP2 SWAP1 DUP2 DUP2 MSTORE PUSH1 0x20 ADD DUP3 DUP1 SLOAD PUSH2 0x8DE SWAP1 PUSH2 0x1BF5 JUMP JUMPDEST DUP1 ISZERO PUSH2 0x929 JUMPI DUP1 PUSH1 0x1F LT PUSH2 0x900 JUMPI PUSH2 0x100 DUP1 DUP4 SLOAD DIV MUL DUP4 MSTORE SWAP2 PUSH1 0x20 ADD SWAP2 PUSH2 0x929 JUMP JUMPDEST DUP3 ADD SWAP2 SWAP1 PUSH0 MSTORE PUSH1 0x20 PUSH0 KECCAK256 SWAP1 JUMPDEST DUP2 SLOAD DUP2 MSTORE SWAP1 PUSH1 0x1 ADD SWAP1 PUSH1 0x20 ADD DUP1 DUP4 GT PUSH2 0x90C JUMPI DUP3 SWAP1 SUB PUSH1 0x1F AND DUP3 ADD SWAP2 JUMPDEST POP POP POP POP POP SWAP1 POP SWAP1 JUMP JUMPDEST PUSH0 DUP1 SHL DUP2 JUMP JUMPDEST PUSH0 DUP1 PUSH2 0x943 PUSH2 0xA68 JUMP JUMPDEST SWAP1 POP PUSH2 0x950 DUP2 DUP6 DUP6 PUSH2 0xB13 JUMP JUMPDEST PUSH1 0x1 SWAP2 POP POP SWAP3 SWAP2 POP POP JUMP JUMPDEST PUSH2 0x964 DUP3 PUSH2 0x5C1 JUMP JUMPDEST PUSH2 0x96D DUP2 PUSH2 0xC03 JUMP JUMPDEST PUSH2 0x977 DUP4 DUP4 PUSH2 0xD01 JUMP JUMPDEST POP POP POP POP JUMP JUMPDEST PUSH0 PUSH1 0x1 PUSH0 DUP5 PUSH20 0xFFFFFFFFFFFFFFFFFFFFFFFFFFFFFFFFFFFFFFFF AND PUSH20 0xFFFFFFFFFFFFFFFFFFFFFFFFFFFFFFFFFFFFFFFF AND DUP2 MSTORE PUSH1 0x20 ADD SWAP1 DUP2 MSTORE PUSH1 0x20 ADD PUSH0 KECCAK256 PUSH0 DUP4 PUSH20 0xFFFFFFFFFFFFFFFFFFFFFFFFFFFFFFFFFFFFFFFF AND PUSH20 0xFFFFFFFFFFFFFFFFFFFFFFFFFFFFFFFFFFFFFFFF AND DUP2 MSTORE PUSH1 0x20 ADD SWAP1 DUP2 MSTORE PUSH1 0x20 ADD PUSH0 KECCAK256 SLOAD SWAP1 POP SWAP3 SWAP2 POP POP JUMP JUMPDEST PUSH0 PUSH32 0x1FFC9A700000000000000000000000000000000000000000000000000000000 PUSH28 0xFFFFFFFFFFFFFFFFFFFFFFFFFFFFFFFFFFFFFFFFFFFFFFFFFFFFFFFF NOT AND DUP3 PUSH28 0xFFFFFFFFFFFFFFFFFFFFFFFFFFFFFFFFFFFFFFFFFFFFFFFFFFFFFFFF NOT AND EQ SWAP1 POP SWAP2 SWAP1 POP JUMP JUMPDEST PUSH0 CALLER SWAP1 POP SWAP1 JUMP JUMPDEST PUSH2 0xA7C DUP4 DUP4 DUP4 PUSH1 0x1 PUSH2 0x1102 JUMP JUMPDEST POP POP POP JUMP JUMPDEST PUSH0 PUSH2 0xA8C DUP5 DUP5 PUSH2 0x97D JUMP JUMPDEST SWAP1 POP PUSH32 0xFFFFFFFFFFFFFFFFFFFFFFFFFFFFFFFFFFFFFFFFFFFFFFFFFFFFFFFFFFFFFFFF DUP2 EQ PUSH2 0xB0D JUMPI DUP2 DUP2 LT ISZERO PUSH2 0xAFE JUMPI DUP3 DUP2 DUP4 PUSH1 0x40 MLOAD PUSH32 0xFB8F41B200000000000000000000000000000000000000000000000000000000 DUP2 MSTORE PUSH1 0x4 ADD PUSH2 0xAF5 SWAP4 SWAP3 SWAP2 SWAP1 PUSH2 0x1C9E JUMP JUMPDEST PUSH1 0x40 MLOAD DUP1 SWAP2 SUB SWAP1 REVERT JUMPDEST PUSH2 0xB0C DUP5 DUP5 DUP5 DUP5 SUB PUSH0 PUSH2 0x1102 JUMP JUMPDEST JUMPDEST POP POP POP POP JUMP JUMPDEST PUSH0 PUSH20 0xFFFFFFFFFFFFFFFFFFFFFFFFFFFFFFFFFFFFFFFF AND DUP4 PUSH20 0xFFFFFFFFFFFFFFFFFFFFFFFFFFFFFFFFFFFFFFFF AND SUB PUSH2 0xB83 JUMPI PUSH0 PUSH1 0x40 MLOAD PUSH32 0x96C6FD1E00000000000000000000000000000000000000000000000000000000 DUP2 MSTORE PUSH1 0x4 ADD PUSH2 0xB7A SWAP2 SWAP1 PUSH2 0x1CD3 JUMP JUMPDEST PUSH1 0x40 MLOAD DUP1 SWAP2 SUB SWAP1 REVERT JUMPDEST PUSH0 PUSH20 0xFFFFFFFFFFFFFFFFFFFFFFFFFFFFFFFFFFFFFFFF AND DUP3 PUSH20 0xFFFFFFFFFFFFFFFFFFFFFFFFFFFFFFFFFFFFFFFF AND SUB PUSH2 0xBF3 JUMPI PUSH0 PUSH1 0x40 MLOAD PUSH32 0xEC442F0500000000000000000000000000000000000000000000000000000000 DUP2 MSTORE PUSH1 0x4 ADD PUSH2 0xBEA SWAP2 SWAP1 PUSH2 0x1CD3 JUMP JUMPDEST PUSH1 0x40 MLOAD DUP1 SWAP2 SUB SWAP1 REVERT JUMPDEST PUSH2 0xBFE DUP4 DUP4 DUP4 PUSH2 0xE4C JUMP JUMPDEST POP POP POP JUMP JUMPDEST PUSH2 0xC14 DUP2 PUSH2 0xC0F PUSH2 0xA68 JUMP JUMPDEST PUSH2 0x12D1 JUMP JUMPDEST POP JUMP JUMPDEST PUSH0 PUSH2 0xC22 DUP4 DUP4 PUSH2 0x83F JUMP JUMPDEST PUSH2 0xCF7 JUMPI PUSH1 0x1 PUSH1 0x5 PUSH0 DUP6 DUP2 MSTORE PUSH1 0x20 ADD SWAP1 DUP2 MSTORE PUSH1 0x20 ADD PUSH0 KECCAK256 PUSH0 ADD PUSH0 DUP5 PUSH20 0xFFFFFFFFFFFFFFFFFFFFFFFFFFFFFFFFFFFFFFFF AND PUSH20 0xFFFFFFFFFFFFFFFFFFFFFFFFFFFFFFFFFFFFFFFF AND DUP2 MSTORE PUSH1 0x20 ADD SWAP1 DUP2 MSTORE PUSH1 0x20 ADD PUSH0 KECCAK256 PUSH0 PUSH2 0x100 EXP DUP2 SLOAD DUP2 PUSH1 0xFF MUL NOT AND SWAP1 DUP4 ISZERO ISZERO MUL OR SWAP1 SSTORE POP PUSH2 0xC94 PUSH2 0xA68 JUMP JUMPDEST PUSH20 0xFFFFFFFFFFFFFFFFFFFFFFFFFFFFFFFFFFFFFFFF AND DUP3 PUSH20 0xFFFFFFFFFFFFFFFFFFFFFFFFFFFFFFFFFFFFFFFF AND DUP5 PUSH32 0x2F8788117E7EFF1D82E926EC794901D17C78024A50270940304540A733656F0D PUSH1 0x40 MLOAD PUSH1 0x40 MLOAD DUP1 SWAP2 SUB SWAP1 LOG4 PUSH1 0x1 SWAP1 POP PUSH2 0xCFB JUMP JUMPDEST PUSH0 SWAP1 POP JUMPDEST SWAP3 SWAP2 POP POP JUMP JUMPDEST PUSH0 PUSH2 0xD0C DUP4 DUP4 PUSH2 0x83F JUMP JUMPDEST ISZERO PUSH2 0xDE1 JUMPI PUSH0 PUSH1 0x5 PUSH0 DUP6 DUP2 MSTORE PUSH1 0x20 ADD SWAP1 DUP2 MSTORE PUSH1 0x20 ADD PUSH0 KECCAK256 PUSH0 ADD PUSH0 DUP5 PUSH20 0xFFFFFFFFFFFFFFFFFFFFFFFFFFFFFFFFFFFFFFFF AND PUSH20 0xFFFFFFFFFFFFFFFFFFFFFFFFFFFFFFFFFFFFFFFF AND DUP2 MSTORE PUSH1 0x20 ADD SWAP1 DUP2 MSTORE PUSH1 0x20 ADD PUSH0 KECCAK256 PUSH0 PUSH2 0x100 EXP DUP2 SLOAD DUP2 PUSH1 0xFF MUL NOT AND SWAP1 DUP4 ISZERO ISZERO MUL OR SWAP1 SSTORE POP PUSH2 0xD7E PUSH2 0xA68 JUMP JUMPDEST PUSH20 0xFFFFFFFFFFFFFFFFFFFFFFFFFFFFFFFFFFFFFFFF AND DUP3 PUSH20 0xFFFFFFFFFFFFFFFFFFFFFFFFFFFFFFFFFFFFFFFF AND DUP5 PUSH32 0xF6391F5C32D9C69D2A47EA670B442974B53935D1EDC7FD64EB21E047A839171B PUSH1 0x40 MLOAD PUSH1 0x40 MLOAD DUP1 SWAP2 SUB SWAP1 LOG4 PUSH1 0x1 SWAP1 POP PUSH2 0xDE5 JUMP JUMPDEST PUSH0 SWAP1 POP JUMPDEST SWAP3 SWAP2 POP POP JUMP JUMPDEST PUSH2 0xDF3 PUSH2 0x1322 JUMP JUMPDEST PUSH0 PUSH1 0x6 PUSH0 PUSH2 0x100 EXP DUP2 SLOAD DUP2 PUSH1 0xFF MUL NOT AND SWAP1 DUP4 ISZERO ISZERO MUL OR SWAP1 SSTORE POP PUSH32 0x5DB9EE0A495BF2E6FF9C91A7834C1BA4FDD244A5E8AA4E537BD38AEAE4B073AA PUSH2 0xE35 PUSH2 0xA68 JUMP JUMPDEST PUSH1 0x40 MLOAD PUSH2 0xE42 SWAP2 SWAP1 PUSH2 0x1CD3 JUMP JUMPDEST PUSH1 0x40 MLOAD DUP1 SWAP2 SUB SWAP1 LOG1 JUMP JUMPDEST PUSH2 0xE54 PUSH2 0x6DE JUMP JUMPDEST ISZERO PUSH2 0xE94 JUMPI PUSH1 0x40 MLOAD PUSH32 0x8C379A000000000000000000000000000000000000000000000000000000000 DUP2 MSTORE PUSH1 0x4 ADD PUSH2 0xE8B SWAP1 PUSH2 0x1D36 JUMP JUMPDEST PUSH1 0x40 MLOAD DUP1 SWAP2 SUB SWAP1 REVERT JUMPDEST PUSH0 PUSH20 0xFFFFFFFFFFFFFFFFFFFFFFFFFFFFFFFFFFFFFFFF AND DUP4 PUSH20 0xFFFFFFFFFFFFFFFFFFFFFFFFFFFFFFFFFFFFFFFF AND EQ ISZERO DUP1 PUSH2 0xEFB JUMPI POP PUSH0 PUSH20 0xFFFFFFFFFFFFFFFFFFFFFFFFFFFFFFFFFFFFFFFF AND DUP3 PUSH20 0xFFFFFFFFFFFFFFFFFFFFFFFFFFFFFFFFFFFFFFFF AND EQ ISZERO JUMPDEST ISZERO PUSH2 0x1011 JUMPI PUSH0 DUP1 PUSH1 0x6 PUSH1 0x1 SWAP1 SLOAD SWAP1 PUSH2 0x100 EXP SWAP1 DIV PUSH20 0xFFFFFFFFFFFFFFFFFFFFFFFFFFFFFFFFFFFFFFFF AND PUSH20 0xFFFFFFFFFFFFFFFFFFFFFFFFFFFFFFFFFFFFFFFF AND PUSH4 0x9D6232FA DUP7 DUP7 DUP7 PUSH1 0x40 MLOAD DUP5 PUSH4 0xFFFFFFFF AND PUSH1 0xE0 SHL DUP2 MSTORE PUSH1 0x4 ADD PUSH2 0xF61 SWAP4 SWAP3 SWAP2 SWAP1 PUSH2 0x1D87 JUMP JUMPDEST PUSH1 0x40 DUP1 MLOAD DUP1 DUP4 SUB DUP2 DUP7 GAS STATICCALL ISZERO DUP1 ISZERO PUSH2 0xF7B JUMPI RETURNDATASIZE PUSH0 DUP1 RETURNDATACOPY RETURNDATASIZE PUSH0 REVERT JUMPDEST POP POP POP POP PUSH1 0x40 MLOAD RETURNDATASIZE PUSH1 0x1F NOT PUSH1 0x1F DUP3 ADD AND DUP3 ADD DUP1 PUSH1 0x40 MSTORE POP DUP2 ADD SWAP1 PUSH2 0xF9F SWAP2 SWAP1 PUSH2 0x1E0D JUMP JUMPDEST SWAP2 POP SWAP2 POP DUP2 PUSH2 0xFAD DUP3 PUSH2 0x1362 JUMP JUMPDEST PUSH1 0x40 MLOAD PUSH1 0x20 ADD PUSH2 0xFBD SWAP2 SWAP1 PUSH2 0x1ECF JUMP JUMPDEST PUSH1 0x40 MLOAD PUSH1 0x20 DUP2 DUP4 SUB SUB DUP2 MSTORE SWAP1 PUSH1 0x40 MSTORE SWAP1 PUSH2 0x100D JUMPI PUSH1 0x40 MLOAD PUSH32 0x8C379A000000000000000000000000000000000000000000000000000000000 DUP2 MSTORE PUSH1 0x4 ADD PUSH2 0x1004 SWAP2 SWAP1 PUSH2 0x17AB JUMP JUMPDEST PUSH1 0x40 MLOAD DUP1 SWAP2 SUB SWAP1 REVERT JUMPDEST POP POP POP JUMPDEST PUSH2 0x101C DUP4 DUP4 DUP4 PUSH2 0x140C JUMP JUMPDEST POP POP POP JUMP JUMPDEST PUSH0 PUSH20 0xFFFFFFFFFFFFFFFFFFFFFFFFFFFFFFFFFFFFFFFF AND DUP3 PUSH20 0xFFFFFFFFFFFFFFFFFFFFFFFFFFFFFFFFFFFFFFFF AND SUB PUSH2 0x1091 JUMPI PUSH0 PUSH1 0x40 MLOAD PUSH32 0xEC442F0500000000000000000000000000000000000000000000000000000000 DUP2 MSTORE PUSH1 0x4 ADD PUSH2 0x1088 SWAP2 SWAP1 PUSH2 0x1CD3 JUMP JUMPDEST PUSH1 0x40 MLOAD DUP1 SWAP2 SUB SWAP1 REVERT JUMPDEST PUSH2 0x109C PUSH0 DUP4 DUP4 PUSH2 0xE4C JUMP JUMPDEST POP POP JUMP JUMPDEST PUSH2 0x10A8 PUSH2 0x1625 JUMP JUMPDEST PUSH1 0x1 PUSH1 0x6 PUSH0 PUSH2 0x100 EXP DUP2 SLOAD DUP2 PUSH1 0xFF MUL NOT AND SWAP1 DUP4 ISZERO ISZERO MUL OR SWAP1 SSTORE POP PUSH32 0x62E78CEA01BEE320CD4E420270B5EA74000D11B0C9F74754EBDBFC544B05A258 PUSH2 0x10EB PUSH2 0xA68 JUMP JUMPDEST PUSH1 0x40 MLOAD PUSH2 0x10F8 SWAP2 SWAP1 PUSH2 0x1CD3 JUMP JUMPDEST PUSH1 0x40 MLOAD DUP1 SWAP2 SUB SWAP1 LOG1 JUMP JUMPDEST PUSH0 PUSH20 0xFFFFFFFFFFFFFFFFFFFFFFFFFFFFFFFFFFFFFFFF AND DUP5 PUSH20 0xFFFFFFFFFFFFFFFFFFFFFFFFFFFFFFFFFFFFFFFF AND SUB PUSH2 0x1172 JUMPI PUSH0 PUSH1 0x40 MLOAD PUSH32 0xE602DF0500000000000000000000000000000000000000000000000000000000 DUP2 MSTORE PUSH1 0x4 ADD PUSH2 0x1169 SWAP2 SWAP1 PUSH2 0x1CD3 JUMP JUMPDEST PUSH1 0x40 MLOAD DUP1 SWAP2 SUB SWAP1 REVERT JUMPDEST PUSH0 PUSH20 0xFFFFFFFFFFFFFFFFFFFFFFFFFFFFFFFFFFFFFFFF AND DUP4 PUSH20 0xFFFFFFFFFFFFFFFFFFFFFFFFFFFFFFFFFFFFFFFF AND SUB PUSH2 0x11E2 JUMPI PUSH0 PUSH1 0x40 MLOAD PUSH32 0x94280D6200000000000000000000000000000000000000000000000000000000 DUP2 MSTORE PUSH1 0x4 ADD PUSH2 0x11D9 SWAP2 SWAP1 PUSH2 0x1CD3 JUMP JUMPDEST PUSH1 0x40 MLOAD DUP1 SWAP2 SUB SWAP1 REVERT JUMPDEST DUP2 PUSH1 0x1 PUSH0 DUP7 PUSH20 0xFFFFFFFFFFFFFFFFFFFFFFFFFFFFFFFFFFFFFFFF AND PUSH20 0xFFFFFFFFFFFFFFFFFFFFFFFFFFFFFFFFFFFFFFFF AND DUP2 MSTORE PUSH1 0x20 ADD SWAP1 DUP2 MSTORE PUSH1 0x20 ADD PUSH0 KECCAK256 PUSH0 DUP6 PUSH20 0xFFFFFFFFFFFFFFFFFFFFFFFFFFFFFFFFFFFFFFFF AND PUSH20 0xFFFFFFFFFFFFFFFFFFFFFFFFFFFFFFFFFFFFFFFF AND DUP2 MSTORE PUSH1 0x20 ADD SWAP1 DUP2 MSTORE PUSH1 0x20 ADD PUSH0 KECCAK256 DUP2 SWAP1 SSTORE POP DUP1 ISZERO PUSH2 0x12CB JUMPI DUP3 PUSH20 0xFFFFFFFFFFFFFFFFFFFFFFFFFFFFFFFFFFFFFFFF AND DUP5 PUSH20 0xFFFFFFFFFFFFFFFFFFFFFFFFFFFFFFFFFFFFFFFF AND PUSH32 0x8C5BE1E5EBEC7D5BD14F71427D1E84F3DD0314C0F7B2291E5B200AC8C7C3B925 DUP5 PUSH1 0x40 MLOAD PUSH2 0x12C2 SWAP2 SWAP1 PUSH2 0x18A5 JUMP JUMPDEST PUSH1 0x40 MLOAD DUP1 SWAP2 SUB SWAP1 LOG3 JUMPDEST POP POP POP POP JUMP JUMPDEST PUSH2 0x12DB DUP3 DUP3 PUSH2 0x83F JUMP JUMPDEST PUSH2 0x131E JUMPI DUP1 DUP3 PUSH1 0x40 MLOAD PUSH32 0xE2517D3F00000000000000000000000000000000000000000000000000000000 DUP2 MSTORE PUSH1 0x4 ADD PUSH2 0x1315 SWAP3 SWAP2 SWAP1 PUSH2 0x1EF0 JUMP JUMPDEST PUSH1 0x40 MLOAD DUP1 SWAP2 SUB SWAP1 REVERT JUMPDEST POP POP JUMP JUMPDEST PUSH2 0x132A PUSH2 0x6DE JUMP JUMPDEST PUSH2 0x1360 JUMPI PUSH1 0x40 MLOAD PUSH32 0x8DFC202B00000000000000000000000000000000000000000000000000000000 DUP2 MSTORE PUSH1 0x4 ADD PUSH1 0x40 MLOAD DUP1 SWAP2 SUB SWAP1 REVERT JUMPDEST JUMP JUMPDEST PUSH1 0x60 PUSH0 DUP3 SUB PUSH2 0x13A8 JUMPI PUSH1 0x40 MLOAD DUP1 PUSH1 0x40 ADD PUSH1 0x40 MSTORE DUP1 PUSH1 0x1 DUP2 MSTORE PUSH1 0x20 ADD PUSH32 0x3000000000000000000000000000000000000000000000000000000000000000 DUP2 MSTORE POP SWAP1 POP PUSH2 0x1407 JUMP JUMPDEST PUSH1 0x60 JUMPDEST PUSH0 DUP4 EQ PUSH2 0x1402 JUMPI PUSH1 0xA DUP4 PUSH2 0x13BF SWAP2 SWAP1 PUSH2 0x1F44 JUMP JUMPDEST PUSH1 0x30 PUSH2 0x13CB SWAP2 SWAP1 PUSH2 0x1FA1 JUMP JUMPDEST DUP2 PUSH1 0x40 MLOAD PUSH1 0x20 ADD PUSH2 0x13DD SWAP3 SWAP2 SWAP1 PUSH2 0x204C JUMP JUMPDEST PUSH1 0x40 MLOAD PUSH1 0x20 DUP2 DUP4 SUB SUB DUP2 MSTORE SWAP1 PUSH1 0x40 MSTORE SWAP1 POP PUSH1 0xA DUP4 PUSH2 0x13FB SWAP2 SWAP1 PUSH2 0x2073 JUMP JUMPDEST SWAP3 POP PUSH2 0x13AB JUMP JUMPDEST DUP1 SWAP2 POP POP JUMPDEST SWAP2 SWAP1 POP JUMP JUMPDEST PUSH0 PUSH20 0xFFFFFFFFFFFFFFFFFFFFFFFFFFFFFFFFFFFFFFFF AND DUP4 PUSH20 0xFFFFFFFFFFFFFFFFFFFFFFFFFFFFFFFFFFFFFFFF AND SUB PUSH2 0x145C JUMPI DUP1 PUSH1 0x2 PUSH0 DUP3 DUP3 SLOAD PUSH2 0x1450 SWAP2 SWAP1 PUSH2 0x1FA1 JUMP JUMPDEST SWAP3 POP POP DUP2 SWAP1 SSTORE POP PUSH2 0x152A JUMP JUMPDEST PUSH0 DUP1 PUSH0 DUP6 PUSH20 0xFFFFFFFFFFFFFFFFFFFFFFFFFFFFFFFFFFFFFFFF AND PUSH20 0xFFFFFFFFFFFFFFFFFFFFFFFFFFFFFFFFFFFFFFFF AND DUP2 MSTORE PUSH1 0x20 ADD SWAP1 DUP2 MSTORE PUSH1 0x20 ADD PUSH0 KECCAK256 SLOAD SWAP1 POP DUP2 DUP2 LT ISZERO PUSH2 0x14E5 JUMPI DUP4 DUP2 DUP4 PUSH1 0x40 MLOAD PUSH32 0xE450D38C00000000000000000000000000000000000000000000000000000000 DUP2 MSTORE PUSH1 0x4 ADD PUSH2 0x14DC SWAP4 SWAP3 SWAP2 SWAP1 PUSH2 0x1C9E JUMP JUMPDEST PUSH1 0x40 MLOAD DUP1 SWAP2 SUB SWAP1 REVERT JUMPDEST DUP2 DUP2 SUB PUSH0 DUP1 DUP7 PUSH20 0xFFFFFFFFFFFFFFFFFFFFFFFFFFFFFFFFFFFFFFFF AND PUSH20 0xFFFFFFFFFFFFFFFFFFFFFFFFFFFFFFFFFFFFFFFF AND DUP2 MSTORE PUSH1 0x20 ADD SWAP1 DUP2 MSTORE PUSH1 0x20 ADD PUSH0 KECCAK256 DUP2 SWAP1 SSTORE POP POP JUMPDEST PUSH0 PUSH20 0xFFFFFFFFFFFFFFFFFFFFFFFFFFFFFFFFFFFFFFFF AND DUP3 PUSH20 0xFFFFFFFFFFFFFFFFFFFFFFFFFFFFFFFFFFFFFFFF AND SUB PUSH2 0x1571 JUMPI DUP1 PUSH1 0x2 PUSH0 DUP3 DUP3 SLOAD SUB SWAP3 POP POP DUP2 SWAP1 SSTORE POP PUSH2 0x15BB JUMP JUMPDEST DUP1 PUSH0 DUP1 DUP5 PUSH20 0xFFFFFFFFFFFFFFFFFFFFFFFFFFFFFFFFFFFFFFFF AND PUSH20 0xFFFFFFFFFFFFFFFFFFFFFFFFFFFFFFFFFFFFFFFF AND DUP2 MSTORE PUSH1 0x20 ADD SWAP1 DUP2 MSTORE PUSH1 0x20 ADD PUSH0 KECCAK256 PUSH0 DUP3 DUP3 SLOAD ADD SWAP3 POP POP DUP2 SWAP1 SSTORE POP JUMPDEST DUP2 PUSH20 0xFFFFFFFFFFFFFFFFFFFFFFFFFFFFFFFFFFFFFFFF AND DUP4 PUSH20 0xFFFFFFFFFFFFFFFFFFFFFFFFFFFFFFFFFFFFFFFF AND PUSH32 0xDDF252AD1BE2C89B69C2B068FC378DAA952BA7F163C4A11628F55A4DF523B3EF DUP4 PUSH1 0x40 MLOAD PUSH2 0x1618 SWAP2 SWAP1 PUSH2 0x18A5 JUMP JUMPDEST PUSH1 0x40 MLOAD DUP1 SWAP2 SUB SWAP1 LOG3 POP POP POP JUMP JUMPDEST PUSH2 0x162D PUSH2 0x6DE JUMP JUMPDEST ISZERO PUSH2 0x1664 JUMPI PUSH1 0x40 MLOAD PUSH32 0xD93C066500000000000000000000000000000000000000000000000000000000 DUP2 MSTORE PUSH1 0x4 ADD PUSH1 0x40 MLOAD DUP1 SWAP2 SUB SWAP1 REVERT JUMPDEST JUMP JUMPDEST PUSH0 DUP1 REVERT JUMPDEST PUSH0 DUP1 REVERT JUMPDEST PUSH0 PUSH32 0xFFFFFFFF00000000000000000000000000000000000000000000000000000000 DUP3 AND SWAP1 POP SWAP2 SWAP1 POP JUMP JUMPDEST PUSH2 0x16A2 DUP2 PUSH2 0x166E JUMP JUMPDEST DUP2 EQ PUSH2 0x16AC JUMPI PUSH0 DUP1 REVERT JUMPDEST POP JUMP JUMPDEST PUSH0 DUP2 CALLDATALOAD SWAP1 POP PUSH2 0x16BD DUP2 PUSH2 0x1699 JUMP JUMPDEST SWAP3 SWAP2 POP POP JUMP JUMPDEST PUSH0 PUSH1 0x20 DUP3 DUP5 SUB SLT ISZERO PUSH2 0x16D8 JUMPI PUSH2 0x16D7 PUSH2 0x1666 JUMP JUMPDEST JUMPDEST PUSH0 PUSH2 0x16E5 DUP5 DUP3 DUP6 ADD PUSH2 0x16AF JUMP JUMPDEST SWAP2 POP POP SWAP3 SWAP2 POP POP JUMP JUMPDEST PUSH0 DUP2 ISZERO ISZERO SWAP1 POP SWAP2 SWAP1 POP JUMP JUMPDEST PUSH2 0x1702 DUP2 PUSH2 0x16EE JUMP JUMPDEST DUP3 MSTORE POP POP JUMP JUMPDEST PUSH0 PUSH1 0x20 DUP3 ADD SWAP1 POP PUSH2 0x171B PUSH0 DUP4 ADD DUP5 PUSH2 0x16F9 JUMP JUMPDEST SWAP3 SWAP2 POP POP JUMP JUMPDEST PUSH0 DUP2 MLOAD SWAP1 POP SWAP2 SWAP1 POP JUMP JUMPDEST PUSH0 DUP3 DUP3 MSTORE PUSH1 0x20 DUP3 ADD SWAP1 POP SWAP3 SWAP2 POP POP JUMP JUMPDEST PUSH0 JUMPDEST DUP4 DUP2 LT ISZERO PUSH2 0x1758 JUMPI DUP1 DUP3 ADD MLOAD DUP2 DUP5 ADD MSTORE PUSH1 0x20 DUP2 ADD SWAP1 POP PUSH2 0x173D JUMP JUMPDEST PUSH0 DUP5 DUP5 ADD MSTORE POP POP POP POP JUMP JUMPDEST PUSH0 PUSH1 0x1F NOT PUSH1 0x1F DUP4 ADD AND SWAP1 POP SWAP2 SWAP1 POP JUMP JUMPDEST PUSH0 PUSH2 0x177D DUP3 PUSH2 0x1721 JUMP JUMPDEST PUSH2 0x1787 DUP2 DUP6 PUSH2 0x172B JUMP JUMPDEST SWAP4 POP PUSH2 0x1797 DUP2 DUP6 PUSH1 0x20 DUP7 ADD PUSH2 0x173B JUMP JUMPDEST PUSH2 0x17A0 DUP2 PUSH2 0x1763 JUMP JUMPDEST DUP5 ADD SWAP2 POP POP SWAP3 SWAP2 POP POP JUMP JUMPDEST PUSH0 PUSH1 0x20 DUP3 ADD SWAP1 POP DUP2 DUP2 SUB PUSH0 DUP4 ADD MSTORE PUSH2 0x17C3 DUP2 DUP5 PUSH2 0x1773 JUMP JUMPDEST SWAP1 POP SWAP3 SWAP2 POP POP JUMP JUMPDEST PUSH0 PUSH20 0xFFFFFFFFFFFFFFFFFFFFFFFFFFFFFFFFFFFFFFFF DUP3 AND SWAP1 POP SWAP2 SWAP1 POP JUMP JUMPDEST PUSH0 PUSH2 0x17F4 DUP3 PUSH2 0x17CB JUMP JUMPDEST SWAP1 POP SWAP2 SWAP1 POP JUMP JUMPDEST PUSH2 0x1804 DUP2 PUSH2 0x17EA JUMP JUMPDEST DUP2 EQ PUSH2 0x180E JUMPI PUSH0 DUP1 REVERT JUMPDEST POP JUMP JUMPDEST PUSH0 DUP2 CALLDATALOAD SWAP1 POP PUSH2 0x181F DUP2 PUSH2 0x17FB JUMP JUMPDEST SWAP3 SWAP2 POP POP JUMP JUMPDEST PUSH0 DUP2 SWAP1 POP SWAP2 SWAP1 POP JUMP JUMPDEST PUSH2 0x1837 DUP2 PUSH2 0x1825 JUMP JUMPDEST DUP2 EQ PUSH2 0x1841 JUMPI PUSH0 DUP1 REVERT JUMPDEST POP JUMP JUMPDEST PUSH0 DUP2 CALLDATALOAD SWAP1 POP PUSH2 0x1852 DUP2 PUSH2 0x182E JUMP JUMPDEST SWAP3 SWAP2 POP POP JUMP JUMPDEST PUSH0 DUP1 PUSH1 0x40 DUP4 DUP6 SUB SLT ISZERO PUSH2 0x186E JUMPI PUSH2 0x186D PUSH2 0x1666 JUMP JUMPDEST JUMPDEST PUSH0 PUSH2 0x187B DUP6 DUP3 DUP7 ADD PUSH2 0x1811 JUMP JUMPDEST SWAP3 POP POP PUSH1 0x20 PUSH2 0x188C DUP6 DUP3 DUP7 ADD PUSH2 0x1844 JUMP JUMPDEST SWAP2 POP POP SWAP3 POP SWAP3 SWAP1 POP JUMP JUMPDEST PUSH2 0x189F DUP2 PUSH2 0x1825 JUMP JUMPDEST DUP3 MSTORE POP POP JUMP JUMPDEST PUSH0 PUSH1 0x20 DUP3 ADD SWAP1 POP PUSH2 0x18B8 PUSH0 DUP4 ADD DUP5 PUSH2 0x1896 JUMP JUMPDEST SWAP3 SWAP2 POP POP JUMP JUMPDEST PUSH0 DUP1 PUSH0 PUSH1 0x60 DUP5 DUP7 SUB SLT ISZERO PUSH2 0x18D5 JUMPI PUSH2 0x18D4 PUSH2 0x1666 JUMP JUMPDEST JUMPDEST PUSH0 PUSH2 0x18E2 DUP7 DUP3 DUP8 ADD PUSH2 0x1811 JUMP JUMPDEST SWAP4 POP POP PUSH1 0x20 PUSH2 0x18F3 DUP7 DUP3 DUP8 ADD PUSH2 0x1811 JUMP JUMPDEST SWAP3 POP POP PUSH1 0x40 PUSH2 0x1904 DUP7 DUP3 DUP8 ADD PUSH2 0x1844 JUMP JUMPDEST SWAP2 POP POP SWAP3 POP SWAP3 POP SWAP3 JUMP JUMPDEST PUSH0 DUP2 SWAP1 POP SWAP2 SWAP1 POP JUMP JUMPDEST PUSH2 0x1920 DUP2 PUSH2 0x190E JUMP JUMPDEST DUP2 EQ PUSH2 0x192A JUMPI PUSH0 DUP1 REVERT JUMPDEST POP JUMP JUMPDEST PUSH0 DUP2 CALLDATALOAD SWAP1 POP PUSH2 0x193B DUP2 PUSH2 0x1917 JUMP JUMPDEST SWAP3 SWAP2 POP POP JUMP JUMPDEST PUSH0 PUSH1 0x20 DUP3 DUP5 SUB SLT ISZERO PUSH2 0x1956 JUMPI PUSH2 0x1955 PUSH2 0x1666 JUMP JUMPDEST JUMPDEST PUSH0 PUSH2 0x1963 DUP5 DUP3 DUP6 ADD PUSH2 0x192D JUMP JUMPDEST SWAP2 POP POP SWAP3 SWAP2 POP POP JUMP JUMPDEST PUSH2 0x1975 DUP2 PUSH2 0x190E JUMP JUMPDEST DUP3 MSTORE POP POP JUMP JUMPDEST PUSH0 PUSH1 0x20 DUP3 ADD SWAP1 POP PUSH2 0x198E PUSH0 DUP4 ADD DUP5 PUSH2 0x196C JUMP JUMPDEST SWAP3 SWAP2 POP POP JUMP JUMPDEST PUSH0 DUP1 PUSH1 0x40 DUP4 DUP6 SUB SLT ISZERO PUSH2 0x19AA JUMPI PUSH2 0x19A9 PUSH2 0x1666 JUMP JUMPDEST JUMPDEST PUSH0 PUSH2 0x19B7 DUP6 DUP3 DUP7 ADD PUSH2 0x192D JUMP JUMPDEST SWAP3 POP POP PUSH1 0x20 PUSH2 0x19C8 DUP6 DUP3 DUP7 ADD PUSH2 0x1811 JUMP JUMPDEST SWAP2 POP POP SWAP3 POP SWAP3 SWAP1 POP JUMP JUMPDEST PUSH0 PUSH1 0xFF DUP3 AND SWAP1 POP SWAP2 SWAP1 POP JUMP JUMPDEST PUSH2 0x19E7 DUP2 PUSH2 0x19D2 JUMP JUMPDEST DUP3 MSTORE POP POP JUMP JUMPDEST PUSH0 PUSH1 0x20 DUP3 ADD SWAP1 POP PUSH2 0x1A00 PUSH0 DUP4 ADD DUP5 PUSH2 0x19DE JUMP JUMPDEST SWAP3 SWAP2 POP POP JUMP JUMPDEST PUSH0 DUP2 SWAP1 POP SWAP2 SWAP1 POP JUMP JUMPDEST PUSH0 PUSH2 0x1A29 PUSH2 0x1A24 PUSH2 0x1A1F DUP5 PUSH2 0x17CB JUMP JUMPDEST PUSH2 0x1A06 JUMP JUMPDEST PUSH2 0x17CB JUMP JUMPDEST SWAP1 POP SWAP2 SWAP1 POP JUMP JUMPDEST PUSH0 PUSH2 0x1A3A DUP3 PUSH2 0x1A0F JUMP JUMPDEST SWAP1 POP SWAP2 SWAP1 POP JUMP JUMPDEST PUSH0 PUSH2 0x1A4B DUP3 PUSH2 0x1A30 JUMP JUMPDEST SWAP1 POP SWAP2 SWAP1 POP JUMP JUMPDEST PUSH2 0x1A5B DUP2 PUSH2 0x1A41 JUMP JUMPDEST DUP3 MSTORE POP POP JUMP JUMPDEST PUSH0 PUSH1 0x20 DUP3 ADD SWAP1 POP PUSH2 0x1A74 PUSH0 DUP4 ADD DUP5 PUSH2 0x1A52 JUMP JUMPDEST SWAP3 SWAP2 POP POP JUMP JUMPDEST PUSH0 PUSH1 0x20 DUP3 DUP5 SUB SLT ISZERO PUSH2 0x1A8F JUMPI PUSH2 0x1A8E PUSH2 0x1666 JUMP JUMPDEST JUMPDEST PUSH0 PUSH2 0x1A9C DUP5 DUP3 DUP6 ADD PUSH2 0x1811 JUMP JUMPDEST SWAP2 POP POP SWAP3 SWAP2 POP POP JUMP JUMPDEST PUSH0 DUP1 REVERT JUMPDEST PUSH0 DUP1 REVERT JUMPDEST PUSH0 DUP1 REVERT JUMPDEST PUSH0 DUP1 DUP4 PUSH1 0x1F DUP5 ADD SLT PUSH2 0x1AC6 JUMPI PUSH2 0x1AC5 PUSH2 0x1AA5 JUMP JUMPDEST JUMPDEST DUP3 CALLDATALOAD SWAP1 POP PUSH8 0xFFFFFFFFFFFFFFFF DUP2 GT ISZERO PUSH2 0x1AE3 JUMPI PUSH2 0x1AE2 PUSH2 0x1AA9 JUMP JUMPDEST JUMPDEST PUSH1 0x20 DUP4 ADD SWAP2 POP DUP4 PUSH1 0x1 DUP3 MUL DUP4 ADD GT ISZERO PUSH2 0x1AFF JUMPI PUSH2 0x1AFE PUSH2 0x1AAD JUMP JUMPDEST JUMPDEST SWAP3 POP SWAP3 SWAP1 POP JUMP JUMPDEST PUSH0 DUP1 PUSH0 DUP1 PUSH0 PUSH1 0x80 DUP7 DUP9 SUB SLT ISZERO PUSH2 0x1B1F JUMPI PUSH2 0x1B1E PUSH2 0x1666 JUMP JUMPDEST JUMPDEST PUSH0 PUSH2 0x1B2C DUP9 DUP3 DUP10 ADD PUSH2 0x1811 JUMP JUMPDEST SWAP6 POP POP PUSH1 0x20 PUSH2 0x1B3D DUP9 DUP3 DUP10 ADD PUSH2 0x1811 JUMP JUMPDEST SWAP5 POP POP PUSH1 0x40 PUSH2 0x1B4E DUP9 DUP3 DUP10 ADD PUSH2 0x1844 JUMP JUMPDEST SWAP4 POP POP PUSH1 0x60 DUP7 ADD CALLDATALOAD PUSH8 0xFFFFFFFFFFFFFFFF DUP2 GT ISZERO PUSH2 0x1B6F JUMPI PUSH2 0x1B6E PUSH2 0x166A JUMP JUMPDEST JUMPDEST PUSH2 0x1B7B DUP9 DUP3 DUP10 ADD PUSH2 0x1AB1 JUMP JUMPDEST SWAP3 POP SWAP3 POP POP SWAP3 SWAP6 POP SWAP3 SWAP6 SWAP1 SWAP4 POP JUMP JUMPDEST PUSH0 DUP1 PUSH1 0x40 DUP4 DUP6 SUB SLT ISZERO PUSH2 0x1BA0 JUMPI PUSH2 0x1B9F PUSH2 0x1666 JUMP JUMPDEST JUMPDEST PUSH0 PUSH2 0x1BAD DUP6 DUP3 DUP7 ADD PUSH2 0x1811 JUMP JUMPDEST SWAP3 POP POP PUSH1 0x20 PUSH2 0x1BBE DUP6 DUP3 DUP7 ADD PUSH2 0x1811 JUMP JUMPDEST SWAP2 POP POP SWAP3 POP SWAP3 SWAP1 POP JUMP JUMPDEST PUSH32 0x4E487B7100000000000000000000000000000000000000000000000000000000 PUSH0 MSTORE PUSH1 0x22 PUSH1 0x4 MSTORE PUSH1 0x24 PUSH0 REVERT JUMPDEST PUSH0 PUSH1 0x2 DUP3 DIV SWAP1 POP PUSH1 0x1 DUP3 AND DUP1 PUSH2 0x1C0C JUMPI PUSH1 0x7F DUP3 AND SWAP2 POP JUMPDEST PUSH1 0x20 DUP3 LT DUP2 SUB PUSH2 0x1C1F JUMPI PUSH2 0x1C1E PUSH2 0x1BC8 JUMP JUMPDEST JUMPDEST POP SWAP2 SWAP1 POP JUMP JUMPDEST DUP3 DUP2 DUP4 CALLDATACOPY PUSH0 DUP4 DUP4 ADD MSTORE POP POP POP JUMP JUMPDEST PUSH0 PUSH2 0x1C3E DUP4 DUP6 PUSH2 0x172B JUMP JUMPDEST SWAP4 POP PUSH2 0x1C4B DUP4 DUP6 DUP5 PUSH2 0x1C25 JUMP JUMPDEST PUSH2 0x1C54 DUP4 PUSH2 0x1763 JUMP JUMPDEST DUP5 ADD SWAP1 POP SWAP4 SWAP3 POP POP POP JUMP JUMPDEST PUSH0 PUSH1 0x40 DUP3 ADD SWAP1 POP PUSH2 0x1C72 PUSH0 DUP4 ADD DUP7 PUSH2 0x1896 JUMP JUMPDEST DUP2 DUP2 SUB PUSH1 0x20 DUP4 ADD MSTORE PUSH2 0x1C85 DUP2 DUP5 DUP7 PUSH2 0x1C33 JUMP JUMPDEST SWAP1 POP SWAP5 SWAP4 POP POP POP POP JUMP JUMPDEST PUSH2 0x1C98 DUP2 PUSH2 0x17EA JUMP JUMPDEST DUP3 MSTORE POP POP JUMP JUMPDEST PUSH0 PUSH1 0x60 DUP3 ADD SWAP1 POP PUSH2 0x1CB1 PUSH0 DUP4 ADD DUP7 PUSH2 0x1C8F JUMP JUMPDEST PUSH2 0x1CBE PUSH1 0x20 DUP4 ADD DUP6 PUSH2 0x1896 JUMP JUMPDEST PUSH2 0x1CCB PUSH1 0x40 DUP4 ADD DUP5 PUSH2 0x1896 JUMP JUMPDEST SWAP5 SWAP4 POP POP POP POP JUMP JUMPDEST PUSH0 PUSH1 0x20 DUP3 ADD SWAP1 POP PUSH2 0x1CE6 PUSH0 DUP4 ADD DUP5 PUSH2 0x1C8F JUMP JUMPDEST SWAP3 SWAP2 POP POP JUMP JUMPDEST PUSH32 0x7061757365640000000000000000000000000000000000000000000000000000 PUSH0 DUP3 ADD MSTORE POP JUMP JUMPDEST PUSH0 PUSH2 0x1D20 PUSH1 0x6 DUP4 PUSH2 0x172B JUMP JUMPDEST SWAP2 POP PUSH2 0x1D2B DUP3 PUSH2 0x1CEC JUMP JUMPDEST PUSH1 0x20 DUP3 ADD SWAP1 POP SWAP2 SWAP1 POP JUMP JUMPDEST PUSH0 PUSH1 0x20 DUP3 ADD SWAP1 POP DUP2 DUP2 SUB PUSH0 DUP4 ADD MSTORE PUSH2 0x1D4D DUP2 PUSH2 0x1D14 JUMP JUMPDEST SWAP1 POP SWAP2 SWAP1 POP JUMP JUMPDEST PUSH0 DUP3 DUP3 MSTORE PUSH1 0x20 DUP3 ADD SWAP1 POP SWAP3 SWAP2 POP POP JUMP JUMPDEST POP JUMP JUMPDEST PUSH0 PUSH2 0x1D72 PUSH0 DUP4 PUSH2 0x1D54 JUMP JUMPDEST SWAP2 POP PUSH2 0x1D7D DUP3 PUSH2 0x1D64 JUMP JUMPDEST PUSH0 DUP3 ADD SWAP1 POP SWAP2 SWAP1 POP JUMP JUMPDEST PUSH0 PUSH1 0x80 DUP3 ADD SWAP1 POP PUSH2 0x1D9A PUSH0 DUP4 ADD DUP7 PUSH2 0x1C8F JUMP JUMPDEST PUSH2 0x1DA7 PUSH1 0x20 DUP4 ADD DUP6 PUSH2 0x1C8F JUMP JUMPDEST PUSH2 0x1DB4 PUSH1 0x40 DUP4 ADD DUP5 PUSH2 0x1896 JUMP JUMPDEST DUP2 DUP2 SUB PUSH1 0x60 DUP4 ADD MSTORE PUSH2 0x1DC5 DUP2 PUSH2 0x1D67 JUMP JUMPDEST SWAP1 POP SWAP5 SWAP4 POP POP POP POP JUMP JUMPDEST PUSH2 0x1DD8 DUP2 PUSH2 0x16EE JUMP JUMPDEST DUP2 EQ PUSH2 0x1DE2 JUMPI PUSH0 DUP1 REVERT JUMPDEST POP JUMP JUMPDEST PUSH0 DUP2 MLOAD SWAP1 POP PUSH2 0x1DF3 DUP2 PUSH2 0x1DCF JUMP JUMPDEST SWAP3 SWAP2 POP POP JUMP JUMPDEST PUSH0 DUP2 MLOAD SWAP1 POP PUSH2 0x1E07 DUP2 PUSH2 0x182E JUMP JUMPDEST SWAP3 SWAP2 POP POP JUMP JUMPDEST PUSH0 DUP1 PUSH1 0x40 DUP4 DUP6 SUB SLT ISZERO PUSH2 0x1E23 JUMPI PUSH2 0x1E22 PUSH2 0x1666 JUMP JUMPDEST JUMPDEST PUSH0 PUSH2 0x1E30 DUP6 DUP3 DUP7 ADD PUSH2 0x1DE5 JUMP JUMPDEST SWAP3 POP POP PUSH1 0x20 PUSH2 0x1E41 DUP6 DUP3 DUP7 ADD PUSH2 0x1DF9 JUMP JUMPDEST SWAP2 POP POP SWAP3 POP SWAP3 SWAP1 POP JUMP JUMPDEST PUSH0 DUP2 SWAP1 POP SWAP3 SWAP2 POP POP JUMP JUMPDEST PUSH32 0x636F6D706C69616E6365206661696C3A20000000000000000000000000000000 PUSH0 DUP3 ADD MSTORE POP JUMP JUMPDEST PUSH0 PUSH2 0x1E89 PUSH1 0x11 DUP4 PUSH2 0x1E4B JUMP JUMPDEST SWAP2 POP PUSH2 0x1E94 DUP3 PUSH2 0x1E55 JUMP JUMPDEST PUSH1 0x11 DUP3 ADD SWAP1 POP SWAP2 SWAP1 POP JUMP JUMPDEST PUSH0 PUSH2 0x1EA9 DUP3 PUSH2 0x1721 JUMP JUMPDEST PUSH2 0x1EB3 DUP2 DUP6 PUSH2 0x1E4B JUMP JUMPDEST SWAP4 POP PUSH2 0x1EC3 DUP2 DUP6 PUSH1 0x20 DUP7 ADD PUSH2 0x173B JUMP JUMPDEST DUP1 DUP5 ADD SWAP2 POP POP SWAP3 SWAP2 POP POP JUMP JUMPDEST PUSH0 PUSH2 0x1ED9 DUP3 PUSH2 0x1E7D JUMP JUMPDEST SWAP2 POP PUSH2 0x1EE5 DUP3 DUP5 PUSH2 0x1E9F JUMP JUMPDEST SWAP2 POP DUP2 SWAP1 POP SWAP3 SWAP2 POP POP JUMP JUMPDEST PUSH0 PUSH1 0x40 DUP3 ADD SWAP1 POP PUSH2 0x1F03 PUSH0 DUP4 ADD DUP6 PUSH2 0x1C8F JUMP JUMPDEST PUSH2 0x1F10 PUSH1 0x20 DUP4 ADD DUP5 PUSH2 0x196C JUMP JUMPDEST SWAP4 SWAP3 POP POP POP JUMP JUMPDEST PUSH32 0x4E487B7100000000000000000000000000000000000000000000000000000000 PUSH0 MSTORE PUSH1 0x12 PUSH1 0x4 MSTORE PUSH1 0x24 PUSH0 REVERT JUMPDEST PUSH0 PUSH2 0x1F4E DUP3 PUSH2 0x1825 JUMP JUMPDEST SWAP2 POP PUSH2 0x1F59 DUP4 PUSH2 0x1825 JUMP JUMPDEST SWAP3 POP DUP3 PUSH2 0x1F69 JUMPI PUSH2 0x1F68 PUSH2 0x1F17 JUMP JUMPDEST JUMPDEST DUP3 DUP3 MOD SWAP1 POP SWAP3 SWAP2 POP POP JUMP JUMPDEST PUSH32 0x4E487B7100000000000000000000000000000000000000000000000000000000 PUSH0 MSTORE PUSH1 0x11 PUSH1 0x4 MSTORE PUSH1 0x24 PUSH0 REVERT JUMPDEST PUSH0 PUSH2 0x1FAB DUP3 PUSH2 0x1825 JUMP JUMPDEST SWAP2 POP PUSH2 0x1FB6 DUP4 PUSH2 0x1825 JUMP JUMPDEST SWAP3 POP DUP3 DUP3 ADD SWAP1 POP DUP1 DUP3 GT ISZERO PUSH2 0x1FCE JUMPI PUSH2 0x1FCD PUSH2 0x1F74 JUMP JUMPDEST JUMPDEST SWAP3 SWAP2 POP POP JUMP JUMPDEST PUSH0 DUP2 PUSH1 0xF8 SHL SWAP1 POP SWAP2 SWAP1 POP JUMP JUMPDEST PUSH0 PUSH2 0x1FEA DUP3 PUSH2 0x1FD4 JUMP JUMPDEST SWAP1 POP SWAP2 SWAP1 POP JUMP JUMPDEST PUSH2 0x2002 PUSH2 0x1FFD DUP3 PUSH2 0x19D2 JUMP JUMPDEST PUSH2 0x1FE0 JUMP JUMPDEST DUP3 MSTORE POP POP JUMP JUMPDEST PUSH0 DUP2 MLOAD SWAP1 POP SWAP2 SWAP1 POP JUMP JUMPDEST PUSH0 DUP2 SWAP1 POP SWAP3 SWAP2 POP POP JUMP JUMPDEST PUSH0 PUSH2 0x2026 DUP3 PUSH2 0x2008 JUMP JUMPDEST PUSH2 0x2030 DUP2 DUP6 PUSH2 0x2012 JUMP JUMPDEST SWAP4 POP PUSH2 0x2040 DUP2 DUP6 PUSH1 0x20 DUP7 ADD PUSH2 0x173B JUMP JUMPDEST DUP1 DUP5 ADD SWAP2 POP POP SWAP3 SWAP2 POP POP JUMP JUMPDEST PUSH0 PUSH2 0x2057 DUP3 DUP6 PUSH2 0x1FF1 JUMP JUMPDEST PUSH1 0x1 DUP3 ADD SWAP2 POP PUSH2 0x2067 DUP3 DUP5 PUSH2 0x201C JUMP JUMPDEST SWAP2 POP DUP2 SWAP1 POP SWAP4 SWAP3 POP POP POP JUMP JUMPDEST PUSH0 PUSH2 0x207D DUP3 PUSH2 0x1825 JUMP JUMPDEST SWAP2 POP PUSH2 0x2088 DUP4 PUSH2 0x1825 JUMP JUMPDEST SWAP3 POP DUP3 PUSH2 0x2098 JUMPI PUSH2 0x2097 PUSH2 0x1F17 JUMP JUMPDEST JUMPDEST DUP3 DUP3 DIV SWAP1 POP SWAP3 SWAP2 POP POP JUMP INVALID LOG2 PUSH5 0x6970667358 0x22 SLT KECCAK256 0xE1 0xA9 0xAE 0xAD PUSH29 0x8A14C41AEAF8781AA34D3EADBA8CE360BB62067F8463912E41F8066473 PUSH16 0x6C634300081400330000000000000000 "
				},
				"gasEstimates": {
					"creation": {
						"codeDepositCost": "1681800",
						"executionCost": "infinite",
						"totalCost": "infinite"
					},
					"external": {
						"DEFAULT_ADMIN_ROLE()": "396",
						"ISSUER_ROLE()": "414",
						"allowance(address,address)": "infinite",
						"approve(address,uint256)": "infinite",
						"balanceOf(address)": "2896",
						"compliance()": "infinite",
						"decimals()": "405",
						"forceTransfer(address,address,uint256,string)": "infinite",
						"getRoleAdmin(bytes32)": "infinite",
						"grantRole(bytes32,address)": "infinite",
						"hasRole(bytes32,address)": "3144",
						"mint(address,uint256)": "infinite",
						"name()": "infinite",
						"pause()": "infinite",
						"paused()": "2496",
						"renounceRole(bytes32,address)": "infinite",
						"revokeRole(bytes32,address)": "infinite",
						"supportsInterface(bytes4)": "741",
						"symbol()": "infinite",
						"totalSupply()": "2522",
						"transfer(address,uint256)": "infinite",
						"transferFrom(address,address,uint256)": "infinite",
						"unpause()": "infinite"
					},
					"internal": {
						"_toStr(uint256)": "infinite",
						"_update(address,address,uint256)": "infinite"
					}
				},
				"methodIdentifiers": {
					"DEFAULT_ADMIN_ROLE()": "a217fddf",
					"ISSUER_ROLE()": "82aefa24",
					"allowance(address,address)": "dd62ed3e",
					"approve(address,uint256)": "095ea7b3",
					"balanceOf(address)": "70a08231",
					"compliance()": "6290865d",
					"decimals()": "313ce567",
					"forceTransfer(address,address,uint256,string)": "89021456",
					"getRoleAdmin(bytes32)": "248a9ca3",
					"grantRole(bytes32,address)": "2f2ff15d",
					"hasRole(bytes32,address)": "91d14854",
					"mint(address,uint256)": "40c10f19",
					"name()": "06fdde03",
					"pause()": "8456cb59",
					"paused()": "5c975abb",
					"renounceRole(bytes32,address)": "36568abe",
					"revokeRole(bytes32,address)": "d547741f",
					"supportsInterface(bytes4)": "01ffc9a7",
					"symbol()": "95d89b41",
					"totalSupply()": "18160ddd",
					"transfer(address,uint256)": "a9059cbb",
					"transferFrom(address,address,uint256)": "23b872dd",
					"unpause()": "3f4ba83a"
				}
			},
			"storageLayout": {
				"storage": [
					{
						"astId": 802,
						"contract": "contracts/RwaToken.sol:RwaToken",
						"label": "_balances",
						"offset": 0,
						"slot": "0",
						"type": "t_mapping(t_address,t_uint256)"
					},
					{
						"astId": 808,
						"contract": "contracts/RwaToken.sol:RwaToken",
						"label": "_allowances",
						"offset": 0,
						"slot": "1",
						"type": "t_mapping(t_address,t_mapping(t_address,t_uint256))"
					},
					{
						"astId": 810,
						"contract": "contracts/RwaToken.sol:RwaToken",
						"label": "_totalSupply",
						"offset": 0,
						"slot": "2",
						"type": "t_uint256"
					},
					{
						"astId": 812,
						"contract": "contracts/RwaToken.sol:RwaToken",
						"label": "_name",
						"offset": 0,
						"slot": "3",
						"type": "t_string_storage"
					},
					{
						"astId": 814,
						"contract": "contracts/RwaToken.sol:RwaToken",
						"label": "_symbol",
						"offset": 0,
						"slot": "4",
						"type": "t_string_storage"
					},
					{
						"astId": 290,
						"contract": "contracts/RwaToken.sol:RwaToken",
						"label": "_roles",
						"offset": 0,
						"slot": "5",
						"type": "t_mapping(t_bytes32,t_struct(RoleData)285_storage)"
					},
					{
						"astId": 1437,
						"contract": "contracts/RwaToken.sol:RwaToken",
						"label": "_paused",
						"offset": 0,
						"slot": "6",
						"type": "t_bool"
					},
					{
						"astId": 34,
						"contract": "contracts/RwaToken.sol:RwaToken",
						"label": "compliance",
						"offset": 1,
						"slot": "6",
						"type": "t_contract(ICompliance)20"
					}
				],
				"types": {
					"t_address": {
						"encoding": "inplace",
						"label": "address",
						"numberOfBytes": "20"
					},
					"t_bool": {
						"encoding": "inplace",
						"label": "bool",
						"numberOfBytes": "1"
					},
					"t_bytes32": {
						"encoding": "inplace",
						"label": "bytes32",
						"numberOfBytes": "32"
					},
					"t_contract(ICompliance)20": {
						"encoding": "inplace",
						"label": "contract ICompliance",
						"numberOfBytes": "20"
					},
					"t_mapping(t_address,t_bool)": {
						"encoding": "mapping",
						"key": "t_address",
						"label": "mapping(address => bool)",
						"numberOfBytes": "32",
						"value": "t_bool"
					},
					"t_mapping(t_address,t_mapping(t_address,t_uint256))": {
						"encoding": "mapping",
						"key": "t_address",
						"label": "mapping(address => mapping(address => uint256))",
						"numberOfBytes": "32",
						"value": "t_mapping(t_address,t_uint256)"
					},
					"t_mapping(t_address,t_uint256)": {
						"encoding": "mapping",
						"key": "t_address",
						"label": "mapping(address => uint256)",
						"numberOfBytes": "32",
						"value": "t_uint256"
					},
					"t_mapping(t_bytes32,t_struct(RoleData)285_storage)": {
						"encoding": "mapping",
						"key": "t_bytes32",
						"label": "mapping(bytes32 => struct AccessControl.RoleData)",
						"numberOfBytes": "32",
						"value": "t_struct(RoleData)285_storage"
					},
					"t_string_storage": {
						"encoding": "bytes",
						"label": "string",
						"numberOfBytes": "32"
					},
					"t_struct(RoleData)285_storage": {
						"encoding": "inplace",
						"label": "struct AccessControl.RoleData",
						"members": [
							{
								"astId": 282,
								"contract": "contracts/RwaToken.sol:RwaToken",
								"label": "hasRole",
								"offset": 0,
								"slot": "0",
								"type": "t_mapping(t_address,t_bool)"
							},
							{
								"astId": 284,
								"contract": "contracts/RwaToken.sol:RwaToken",
								"label": "adminRole",
								"offset": 0,
								"slot": "1",
								"type": "t_bytes32"
							}
						],
						"numberOfBytes": "64"
					},
					"t_uint256": {
						"encoding": "inplace",
						"label": "uint256",
						"numberOfBytes": "32"
					}
				}
			},
			"userdoc": {
				"kind": "user",
				"methods": {},
				"version": 1
			}
		}
	}
}