{
	"contracts/RwaToken.sol": {
		"RwaToken": {
			"abi": [
				{
					"inputs": [
						{
							"internalType": "string",
							"name": "n",
							"type": "string"
						},
						{
							"internalType": "string",
							"name": "s",
							"type": "string"
						},
						{
							"internalType": "address",
							"name": "admin",
							"type": "address"
						},
						{
							"internalType": "address",
							"name": "comp",
							"type": "address"
						}
					],
					"stateMutability": "nonpayable",
					"type": "constructor"
				},
				{
					"inputs": [],
					"name": "AccessControlBadConfirmation",
					"type": "error"
				},
				{
					"inputs": [
						{
							"internalType": "address",
							"name": "account",
							"type": "address"
						},
						{
							"internalType": "bytes32",
							"name": "neededRole",
							"type": "bytes32"
						}
					],
					"name": "AccessControlUnauthorizedAccount",
					"type": "error"
				},
				{
					"inputs": [
						{
							"internalType": "address",
							"name": "spender",
							"type": "address"
						},
						{
							"internalType": "uint256",
							"name": "allowance",
							"type": "uint256"
						},
						{
							"internalType": "uint256",
							"name": "needed",
							"type": "uint256"
						}
					],
					"name": "ERC20InsufficientAllowance",
					"type": "error"
				},
				{
					"inputs": [
						{
							"internalType": "address",
							"name": "sender",
							"type": "address"
						},
						{
							"internalType": "uint256",
							"name": "balance",
							"type": "uint256"
						},
						{
							"internalType": "uint256",
							"name": "needed",
							"type": "uint256"
						}
					],
					"name": "ERC20InsufficientBalance",
					"type": "error"
				},
				{
					"inputs": [
						{
							"internalType": "address",
							"name": "approver",
							"type": "address"
						}
					],
					"name": "ERC20InvalidApprover",
					"type": "error"
				},
				{
					"inputs": [
						{
							"internalType": "address",
							"name": "receiver",
							"type": "address"
						}
					],
					"name": "ERC20InvalidReceiver",
					"type": "error"
				},
				{
					"inputs": [
						{
							"internalType": "address",
							"name": "sender",
							"type": "address"
						}
					],
					"name": "ERC20InvalidSender",
					"type": "error"
				},
				{
					"inputs": [
						{
							"internalType": "address",
							"name": "spender",
							"type": "address"
						}
					],
					"name": "ERC20InvalidSpender",
					"type": "error"
				},
				{
					"inputs": [],
					"name": "EnforcedPause",
					"type": "error"
				},
				{
					"inputs": [],
					"name": "ExpectedPause",
					"type": "error"
				},
				{
					"anonymous": false,
					"inputs": [
						{
							"indexed": true,
							"internalType": "address",
							"name": "owner",
							"type": "address"
						},
						{
							"indexed": true,
							"internalType": "address",
							"name": "spender",
							"type": "address"
						},
						{
							"indexed": false,
							"internalType": "uint256",
							"name": "value",
							"type": "uint256"
						}
					],
					"name": "Approval",
					"type": "event"
				},
				{
					"anonymous": false,
					"inputs": [
						{
							"indexed": true,
							"internalType": "address",
							"name": "from",
							"type": "address"
						},
						{
							"indexed": true,
							"internalType": "address",
							"name": "to",
							"type": "address"
						},
						{
							"indexed": false,
							"internalType": "uint256",
							"name": "value",
							"type": "uint256"
						},
						{
							"indexed": false,
							"internalType": "string",
							"name": "reason",
							"type": "string"
						}
					],
					"name": "ForceTransfer",
					"type": "event"
				},
				{
					"anonymous": false,
					"inputs": [
						{
							"indexed": false,
							"internalType": "address",
							"name": "account",
							"type": "address"
						}
					],
					"name": "Paused",
					"type": "event"
				},
				{
					"anonymous": false,
					"inputs": [
						{
							"indexed": true,
							"internalType": "bytes32",
							"name": "role",
							"type": "bytes32"
						},
						{
							"indexed": true,
							"internalType": "bytes32",
							"name": "previousAdminRole",
							"type": "bytes32"
						},
						{
							"indexed": true,
							"internalType": "bytes32",
							"name": "newAdminRole",
							"type": "bytes32"
						}
					],
					"name": "RoleAdminChanged",
					"type": "event"
				},
				{
					"anonymous": false,
					"inputs": [
						{
							"indexed": true,
							"internalType": "bytes32",
							"name": "role",
							"type": "bytes32"
						},
						{
							"indexed": true,
							"internalType": "address",
							"name": "account",
							"type": "address"
						},
						{
							"indexed": true,
							"internalType": "address",
							"name": "sender",
							"type": "address"
						}
					],
					"name": "RoleGranted",
					"type": "event"
				},
				{
					"anonymous": false,
					"inputs": [
						{
							"indexed": true,
							"internalType": "bytes32",
							"name": "role",
							"type": "bytes32"
						},
						{
							"indexed": true,
							"internalType": "address",
							"name": "account",
							"type": "address"
						},
						{
							"indexed": true,
							"internalType": "address",
							"name": "sender",
							"type": "address"
						}
					],
					"name": "RoleRevoked",
					"type": "event"
				},
				{
					"anonymous": false,
					"inputs": [
						{
							"indexed": true,
							"internalType": "address",
							"name": "from",
							"type": "address"
						},
						{
							"indexed": true,
							"internalType": "address",
							"name": "to",
							"type": "address"
						},
						{
							"indexed": false,
							"internalType": "uint256",
							"name": "value",
							"type": "uint256"
						}
					],
					"name": "Transfer",
					"type": "event"
				},
				{
					"anonymous": false,
					"inputs": [
						{
							"indexed": false,
							"internalType": "address",
							"name": "account",
							"type": "address"
						}
					],
					"name": "Unpaused",
					"type": "event"
				},
				{
					"inputs": [],
					"name": "DEFAULT_ADMIN_ROLE",
					"outputs": [
						{
							"internalType": "bytes32",
							"name": "",
							"type": "bytes32"
						}
					],
					"stateMutability": "view",
					"type": "function"
				},
				{
					"inputs": [],
					"name": "ISSUER_ROLE",
					"outputs": [
						{
							"internalType": "bytes32",
							"name": "",
							"type": "bytes32"
						}
					],
					"stateMutability": "view",
					"type": "function"
				},
				{
					"inputs": [
						{
							"internalType": "address",
							"name": "owner",
							"type": "address"
						},
						{
							"internalType": "address",
							"name": "spender",
							"type": "address"
						}
					],
					"name": "allowance",
					"outputs": [
						{
							"internalType": "uint256",
							"name": "",
							"type": "uint256"
						}
					],
					"stateMutability": "view",
					"type": "function"
				},
				{
					"inputs": [
						{
							"internalType": "address",
							"name": "spender",
							"type": "address"
						},
						{
							"internalType": "uint256",
							"name": "value",
							"type": "uint256"
						}
					],
					"name": "approve",
					"outputs": [
						{
							"internalType": "bool",
							"name": "",
							"type": "bool"
						}
					],
					"stateMutability": "nonpayable",
					"type": "function"
				},
				{
					"inputs": [
						{
							"internalType": "address",
							"name": "account",
							"type": "address"
						}
					],
					"name": "balanceOf",
					"outputs": [
						{
							"internalType": "uint256",
							"name": "",
							"type": "uint256"
						}
					],
					"stateMutability": "view",
					"type": "function"
				},
				{
					"inputs": [],
					"name": "compliance",
					"outputs": [
						{
							"internalType": "contract ICompliance",
							"name": "",
							"type": "address"
						}
					],
					"stateMutability": "view",
					"type": "function"
				},
				{
					"inputs": [],
					"name": "decimals",
					"outputs": [
						{
							"internalType": "uint8",
							"name": "",
							"type": "uint8"
						}
					],
					"stateMutability": "view",
					"type": "function"
				},
				{
					"inputs": [
						{
							"internalType": "address",
							"name": "from",
							"type": "address"
						},
						{
							"internalType": "address",
							"name": "to",
							"type": "address"
						},
						{
							"internalType": "uint256",
							"name": "value",
							"type": "uint256"
						},
						{
							"internalType": "string",
							"name": "reason",
							"type": "string"
						}
					],
					"name": "forceTransfer",
					"outputs": [],
					"stateMutability": "nonpayable",
					"type": "function"
				},
				{
					"inputs": [
						{
							"internalType": "bytes32",
							"name": "role",
							"type": "bytes32"
						}
					],
					"name": "getRoleAdmin",
					"outputs": [
						{
							"internalType": "bytes32",
							"name": "",
							"type": "bytes32"
						}
					],
					"stateMutability": "view",
					"type": "function"
				},
				{
					"inputs": [
						{
							"internalType": "bytes32",
							"name": "role",
							"type": "bytes32"
						},
						{
							"internalType": "address",
							"name": "account",
							"type": "address"
						}
					],
					"name": "grantRole",
					"outputs": [],
					"stateMutability": "nonpayable",
					"type": "function"
				},
				{
					"inputs": [
						{
							"internalType": "bytes32",
							"name": "role",
							"type": "bytes32"
						},
						{
							"internalType": "address",
							"name": "account",
							"type": "address"
						}
					],
					"name": "hasRole",
					"outputs": [
						{
							"internalType": "bool",
							"name": "",
							"type": "bool"
						}
					],
					"stateMutability": "view",
					"type": "function"
				},
				{
					"inputs": [],
					"name": "name",
					"outputs": [
						{
							"internalType": "string",
							"name": "",
							"type": "string"
						}
					],
					"stateMutability": "view",
					"type": "function"
				},
				{
					"inputs": [],
					"name": "pause",
					"outputs": [],
					"stateMutability": "nonpayable",
					"type": "function"
				},
				{
					"inputs": [],
					"name": "paused",
					"outputs": [
						{
							"internalType": "bool",
							"name": "",
							"type": "bool"
						}
					],
					"stateMutability": "view",
					"type": "function"
				},
				{
					"inputs": [
						{
							"internalType": "bytes32",
							"name": "role",
							"type": "bytes32"
						},
						{
							"internalType": "address",
							"name": "callerConfirmation",
							"type": "address"
						}
					],
					"name": "renounceRole",
					"outputs": [],
					"stateMutability": "nonpayable",
					"type": "function"
				},
				{
					"inputs": [
						{
							"internalType": "bytes32",
							"name": "role",
							"type": "bytes32"
						},
						{
							"internalType": "address",
							"name": "account",
							"type": "address"
						}
					],
					"name": "revokeRole",
					"outputs": [],
					"stateMutability": "nonpayable",
					"type": "function"
				},
				{
					"inputs": [
						{
							"internalType": "bytes4",
							"name": "interfaceId",
							"type": "bytes4"
						}
					],
					"name": "supportsInterface",
					"outputs": [
						{
							"internalType": "bool",
							"name": "",
							"type": "bool"
						}
					],
					"stateMutability": "view",
					"type": "function"
				},
				{
					"inputs": [],
					"name": "symbol",
					"outputs": [
						{
							"internalType": "string",
							"name": "",
							"type": "string"
						}
					],
					"stateMutability": "view",
					"type": "function"
				},
				{
					"inputs": [],
					"name": "totalSupply",
					"outputs": [
						{
							"internalType": "uint256",
							"name": "",
							"type": "uint256"
						}
					],
					"stateMutability": "view",
					"type": "function"
				},
				{
					"inputs": [
						{
							"internalType": "address",
							"name": "to",
							"type": "address"
						},
						{
							"internalType": "uint256",
							"name": "value",
							"type": "uint256"
						}
					],
					"name": "transfer",
					"outputs": [
						{
							"internalType": "bool",
							"name": "",
							"type": "bool"
						}
					],
					"stateMutability": "nonpayable",
					"type": "function"
				},
				{
					"inputs": [
						{
							"internalType": "address",
							"name": "from",
							"type": "address"
						},
						{
							"internalType": "address",
							"name": "to",
							"type": "address"
						},
						{
							"internalType": "uint256",
							"name": "value",
							"type": "uint256"
						}
					],
					"name": "transferFrom",
					"outputs": [
						{
							"internalType": "bool",
							"name": "",
							"type": "bool"
						}
					],
					"stateMutability": "nonpayable",
					"type": "function"
				},
				{
					"inputs": [],
					"name": "unpause",
					"outputs": [],
					"stateMutability": "nonpayable",
					"type": "function"
				}
			],
			"devdoc": {
				"errors": {
					"AccessControlBadConfirmation()": [
						{
							"details": "The caller of a function is not the expected one. NOTE: Don't confuse with {AccessControlUnauthorizedAccount}."
						}
					],
					"AccessControlUnauthorizedAccount(address,bytes32)": [
						{
							"details": "The `account` is missing a role."
						}
					],
					"ERC20InsufficientAllowance(address,uint256,uint256)": [
						{
							"details": "Indicates a failure with the `spender`’s `allowance`. Used in transfers.",
							"params": {
								"allowance": "Amount of tokens a `spender` is allowed to operate with.",
								"needed": "Minimum amount required to perform a transfer.",
								"spender": "Address that may be allowed to operate on tokens without being their owner."
							}
						}
					],
					"ERC20InsufficientBalance(address,uint256,uint256)": [
						{
							"details": "Indicates an error related to the current `balance` of a `sender`. Used in transfers.",
							"params": {
								"balance": "Current balance for the interacting account.",
								"needed": "Minimum amount required to perform a transfer.",
								"sender": "Address whose tokens are being transferred."
							}
						}
					],
					"ERC20InvalidApprover(address)": [
						{
							"details": "Indicates a failure with the `approver` of a token to be approved. Used in approvals.",
							"params": {
								"approver": "Address initiating an approval operation."
							}
						}
					],
					"ERC20InvalidReceiver(address)": [
						{
							"details": "Indicates a failure with the token `receiver`. Used in transfers.",
							"params": {
								"receiver": "Address to which tokens are being transferred."
							}
						}
					],
					"ERC20InvalidSender(address)": [
						{
							"details": "Indicates a failure with the token `sender`. Used in transfers.",
							"params": {
								"sender": "Address whose tokens are being transferred."
							}
						}
					],
					"ERC20InvalidSpender(address)": [
						{
							"details": "Indicates a failure with the `spender` to be approved. Used in approvals.",
							"params": {
								"spender": "Address that may be allowed to operate on tokens without being their owner."
							}
						}
					],
					"EnforcedPause()": [
						{
							"details": "The operation failed because the contract is paused."
						}
					],
					"ExpectedPause()": [
						{
							"details": "The operation failed because the contract is not paused."
						}
					]
				},
				"events": {
					"Approval(address,address,uint256)": {
						"details": "Emitted when the allowance of a `spender` for an `owner` is set by a call to {approve}. `value` is the new allowance."
					},
					"Paused(address)": {
						"details": "Emitted when the pause is triggered by `account`."
					},
					"RoleAdminChanged(bytes32,bytes32,bytes32)": {
						"details": "Emitted when `newAdminRole` is set as ``role``'s admin role, replacing `previousAdminRole` `DEFAULT_ADMIN_ROLE` is the starting admin for all roles, despite {RoleAdminChanged} not being emitted signaling this."
					},
					"RoleGranted(bytes32,address,address)": {
						"details": "Emitted when `account` is granted `role`. `sender` is the account that originated the contract call, an admin role bearer except when using {AccessControl-_setupRole}."
					},
					"RoleRevoked(bytes32,address,address)": {
						"details": "Emitted when `account` is revoked `role`. `sender` is the account that originated the contract call:   - if using `revokeRole`, it is the admin role bearer   - if using `renounceRole`, it is the role bearer (i.e. `account`)"
					},
					"Transfer(address,address,uint256)": {
						"details": "Emitted when `value` tokens are moved from one account (`from`) to another (`to`). Note that `value` may be zero."
					},
					"Unpaused(address)": {
						"details": "Emitted when the pause is lifted by `account`."
					}
				},
				"kind": "dev",
				"methods": {
					"allowance(address,address)": {
						"details": "See {IERC20-allowance}."
					},
					"approve(address,uint256)": {
						"details": "See {IERC20-approve}. NOTE: If `value` is the maximum `uint256`, the allowance is not updated on `transferFrom`. This is semantically equivalent to an infinite approval. Requirements: - `spender` cannot be the zero address."
					},
					"balanceOf(address)": {
						"details": "See {IERC20-balanceOf}."
					},
					"decimals()": {
						"details": "Returns the number of decimals used to get its user representation. For example, if `decimals` equals `2`, a balance of `505` tokens should be displayed to a user as `5.05` (`505 / 10 ** 2`). Tokens usually opt for a value of 18, imitating the relationship between Ether and Wei. This is the default value returned by this function, unless it's overridden. NOTE: This information is only used for _display_ purposes: it in no way affects any of the arithmetic of the contract, including {IERC20-balanceOf} and {IERC20-transfer}."
					},
					"getRoleAdmin(bytes32)": {
						"details": "Returns the admin role that controls `role`. See {grantRole} and {revokeRole}. To change a role's admin, use {_setRoleAdmin}."
					},
					"grantRole(bytes32,address)": {
						"details": "Grants `role` to `account`. If `account` had not been already granted `role`, emits a {RoleGranted} event. Requirements: - the caller must have ``role``'s admin role. May emit a {RoleGranted} event."
					},
					"hasRole(bytes32,address)": {
						"details": "Returns `true` if `account` has been granted `role`."
					},
					"name()": {
						"details": "Returns the name of the token."
					},
					"paused()": {
						"details": "Returns true if the contract is paused, and false otherwise."
					},
					"renounceRole(bytes32,address)": {
						"details": "Revokes `role` from the calling account. Roles are often managed via {grantRole} and {revokeRole}: this function's purpose is to provide a mechanism for accounts to lose their privileges if they are compromised (such as when a trusted device is misplaced). If the calling account had been revoked `role`, emits a {RoleRevoked} event. Requirements: - the caller must be `callerConfirmation`. May emit a {RoleRevoked} event."
					},
					"revokeRole(bytes32,address)": {
						"details": "Revokes `role` from `account`. If `account` had been granted `role`, emits a {RoleRevoked} event. Requirements: - the caller must have ``role``'s admin role. May emit a {RoleRevoked} event."
					},
					"supportsInterface(bytes4)": {
						"details": "See {IERC165-supportsInterface}."
					},
					"symbol()": {
						"details": "Returns the symbol of the token, usually a shorter version of the name."
					},
					"totalSupply()": {
						"details": "See {IERC20-totalSupply}."
					},
					"transfer(address,uint256)": {
						"details": "See {IERC20-transfer}. Requirements: - `to` cannot be the zero address. - the caller must have a balance of at least `value`."
					},
					"transferFrom(address,address,uint256)": {
						"details": "See {IERC20-transferFrom}. Emits an {Approval} event indicating the updated allowance. This is not required by the EIP. See the note at the beginning of {ERC20}. NOTE: Does not update the allowance if the current allowance is the maximum `uint256`. Requirements: - `from` and `to` cannot be the zero address. - `from` must have a balance of at least `value`. - the caller must have allowance for ``from``'s tokens of at least `value`."
					}
				},
				"version": 1
			},
			"evm": {
				"assembly": "    /* \"contracts/RwaToken.sol\":706:2356  contract RwaToken is ERC20, AccessControl, Pausable {... */\n  mstore(0x40, 0x80)\n    /* \"contracts/RwaToken.sol\":966:1253  constructor(string memory n, string memory s, address admin, address comp)... */\n  callvalue\n  dup1\n  iszero\n  tag_1\n  jumpi\n  revert(0x00, 0x00)\ntag_1:\n  pop\n  mload(0x40)\n  sub(codesize, bytecodeSize)\n  dup1\n  bytecodeSize\n  dup4\n  codecopy\n  dup2\n  dup2\n  add\n  0x40\n  mstore\n  dup2\n  add\n  swap1\n  tag_2\n  swap2\n  swap1\n  tag_3\n  jump\t// in\ntag_2:\n    /* \"contracts/RwaToken.sol\":1055:1056  n */\n  dup4\n    /* \"contracts/RwaToken.sol\":1058:1059  s */\n  dup4\n    /* \"https://raw.githubusercontent.com/OpenZeppelin/openzeppelin-contracts/v5.0.2/contracts/token/ERC20/ERC20.sol\":1970:1975  name_ */\n  dup2\n    /* \"https://raw.githubusercontent.com/OpenZeppelin/openzeppelin-contracts/v5.0.2/contracts/token/ERC20/ERC20.sol\":1962:1967  _name */\n  0x03\n    /* \"https://raw.githubusercontent.com/OpenZeppelin/openzeppelin-contracts/v5.0.2/contracts/token/ERC20/ERC20.sol\":1962:1975  _name = name_ */\n  swap1\n  dup2\n  tag_8\n  swap2\n  swap1\n  tag_9\n  jump\t// in\ntag_8:\n  pop\n    /* \"https://raw.githubusercontent.com/OpenZeppelin/openzeppelin-contracts/v5.0.2/contracts/token/ERC20/ERC20.sol\":1995:2002  symbol_ */\n  dup1\n    /* \"https://raw.githubusercontent.com/OpenZeppelin/openzeppelin-contracts/v5.0.2/contracts/token/ERC20/ERC20.sol\":1985:1992  _symbol */\n  0x04\n    /* \"https://raw.githubusercontent.com/OpenZeppelin/openzeppelin-contracts/v5.0.2/contracts/token/ERC20/ERC20.sol\":1985:2002  _symbol = symbol_ */\n  swap1\n  dup2\n  tag_10\n  swap2\n  swap1\n  tag_9\n  jump\t// in\ntag_10:\n  pop\n    /* \"https://raw.githubusercontent.com/OpenZeppelin/openzeppelin-contracts/v5.0.2/contracts/token/ERC20/ERC20.sol\":1896:2009  constructor(string memory name_, string memory symbol_) {... */\n  pop\n  pop\n    /* \"https://raw.githubusercontent.com/OpenZeppelin/openzeppelin-contracts/v5.0.2/contracts/utils/Pausable.sol\":1241:1246  false */\n  0x00\n    /* \"https://raw.githubusercontent.com/OpenZeppelin/openzeppelin-contracts/v5.0.2/contracts/utils/Pausable.sol\":1231:1238  _paused */\n  0x06\n  0x00\n    /* \"https://raw.githubusercontent.com/OpenZeppelin/openzeppelin-contracts/v5.0.2/contracts/utils/Pausable.sol\":1231:1246  _paused = false */\n  0x0100\n  exp\n  dup2\n  sload\n  dup2\n  0xff\n  mul\n  not\n  and\n  swap1\n  dup4\n  iszero\n  iszero\n  mul\n  or\n  swap1\n  sstore\n  pop\n    /* \"contracts/RwaToken.sol\":1075:1112  _grantRole(DEFAULT_ADMIN_ROLE, admin) */\n  tag_13\n    /* \"https://raw.githubusercontent.com/OpenZeppelin/openzeppelin-contracts/v5.0.2/contracts/access/AccessControl.sol\":2232:2236  0x00 */\n  0x00\n    /* \"contracts/RwaToken.sol\":1086:1104  DEFAULT_ADMIN_ROLE */\n  0x00\n  shl\n    /* \"contracts/RwaToken.sol\":1106:1111  admin */\n  dup4\n    /* \"contracts/RwaToken.sol\":1075:1085  _grantRole */\n  shl(0x20, tag_14)\n    /* \"contracts/RwaToken.sol\":1075:1112  _grantRole(DEFAULT_ADMIN_ROLE, admin) */\n  0x20\n  shr\n  jump\t// in\ntag_13:\n  pop\n    /* \"contracts/RwaToken.sol\":1122:1152  _grantRole(ISSUER_ROLE, admin) */\n  tag_15\n    /* \"contracts/RwaToken.sol\":802:826  keccak256(\"ISSUER_ROLE\") */\n  0x114e74f6ea3bd819998f78687bfcb11b140da08e9b7d222fa9c1f1ba1f2aa122\n    /* \"contracts/RwaToken.sol\":1146:1151  admin */\n  dup4\n    /* \"contracts/RwaToken.sol\":1122:1132  _grantRole */\n  shl(0x20, tag_14)\n    /* \"contracts/RwaToken.sol\":1122:1152  _grantRole(ISSUER_ROLE, admin) */\n  0x20\n  shr\n  jump\t// in\ntag_15:\n  pop\n    /* \"contracts/RwaToken.sol\":1187:1191  comp */\n  dup1\n    /* \"contracts/RwaToken.sol\":1162:1172  compliance */\n  0x06\n  0x01\n    /* \"contracts/RwaToken.sol\":1162:1192  compliance = ICompliance(comp) */\n  0x0100\n  exp\n  dup2\n  sload\n  dup2\n  0xffffffffffffffffffffffffffffffffffffffff\n  mul\n  not\n  and\n  swap1\n  dup4\n  0xffffffffffffffffffffffffffffffffffffffff\n  and\n  mul\n  or\n  swap1\n  sstore\n  pop\n    /* \"contracts/RwaToken.sol\":1202:1231  _mint(admin, 1_000_000 ether) */\n  tag_16\n    /* \"contracts/RwaToken.sol\":1208:1213  admin */\n  dup3\n    /* \"contracts/RwaToken.sol\":1215:1230  1_000_000 ether */\n  0xd3c21bcecceda1000000\n    /* \"contracts/RwaToken.sol\":1202:1207  _mint */\n  shl(0x20, tag_17)\n    /* \"contracts/RwaToken.sol\":1202:1231  _mint(admin, 1_000_000 ether) */\n  0x20\n  shr\n  jump\t// in\ntag_16:\n    /* \"contracts/RwaToken.sol\":966:1253  constructor(string memory n, string memory s, address admin, address comp)... */\n  pop\n  pop\n  pop\n  pop\n    /* \"contracts/RwaToken.sol\":706:2356  contract RwaToken is ERC20, AccessControl, Pausable {... */\n  jump(tag_18)\n    /* \"https://raw.githubusercontent.com/OpenZeppelin/openzeppelin-contracts/v5.0.2/contracts/access/AccessControl.sol\":6179:6495  function _grantRole(bytes32 role, address account) internal virtual returns (bool) {... */\ntag_14:\n    /* \"https://raw.githubusercontent.com/OpenZeppelin/openzeppelin-contracts/v5.0.2/contracts/access/AccessControl.sol\":6256:6260  bool */\n  0x00\n    /* \"https://raw.githubusercontent.com/OpenZeppelin/openzeppelin-contracts/v5.0.2/contracts/access/AccessControl.sol\":6277:6299  hasRole(role, account) */\n  tag_20\n    /* \"https://raw.githubusercontent.com/OpenZeppelin/openzeppelin-contracts/v5.0.2/contracts/access/AccessControl.sol\":6285:6289  role */\n  dup4\n    /* \"https://raw.githubusercontent.com/OpenZeppelin/openzeppelin-contracts/v5.0.2/contracts/access/AccessControl.sol\":6291:6298  account */\n  dup4\n    /* \"https://raw.githubusercontent.com/OpenZeppelin/openzeppelin-contracts/v5.0.2/contracts/access/AccessControl.sol\":6277:6284  hasRole */\n  shl(0x20, tag_21)\n    /* \"https://raw.githubusercontent.com/OpenZeppelin/openzeppelin-contracts/v5.0.2/contracts/access/AccessControl.sol\":6277:6299  hasRole(role, account) */\n  0x20\n  shr\n  jump\t// in\ntag_20:\n    /* \"https://raw.githubusercontent.com/OpenZeppelin/openzeppelin-contracts/v5.0.2/contracts/access/AccessControl.sol\":6272:6489  if (!hasRole(role, account)) {... */\n  tag_22\n  jumpi\n    /* \"https://raw.githubusercontent.com/OpenZeppelin/openzeppelin-contracts/v5.0.2/contracts/access/AccessControl.sol\":6347:6351  true */\n  0x01\n    /* \"https://raw.githubusercontent.com/OpenZeppelin/openzeppelin-contracts/v5.0.2/contracts/access/AccessControl.sol\":6315:6321  _roles */\n  0x05\n    /* \"https://raw.githubusercontent.com/OpenZeppelin/openzeppelin-contracts/v5.0.2/contracts/access/AccessControl.sol\":6315:6327  _roles[role] */\n  0x00\n    /* \"https://raw.githubusercontent.com/OpenZeppelin/openzeppelin-contracts/v5.0.2/contracts/access/AccessControl.sol\":6322:6326  role */\n  dup6\n    /* \"https://raw.githubusercontent.com/OpenZeppelin/openzeppelin-contracts/v5.0.2/contracts/access/AccessControl.sol\":6315:6327  _roles[role] */\n  dup2\n  mstore\n  0x20\n  add\n  swap1\n  dup2\n  mstore\n  0x20\n  add\n  0x00\n  keccak256\n    /* \"https://raw.githubusercontent.com/OpenZeppelin/openzeppelin-contracts/v5.0.2/contracts/access/AccessControl.sol\":6315:6335  _roles[role].hasRole */\n  0x00\n  add\n    /* \"https://raw.githubusercontent.com/OpenZeppelin/openzeppelin-contracts/v5.0.2/contracts/access/AccessControl.sol\":6315:6344  _roles[role].hasRole[account] */\n  0x00\n    /* \"https://raw.githubusercontent.com/OpenZeppelin/openzeppelin-contracts/v5.0.2/contracts/access/AccessControl.sol\":6336:6343  account */\n  dup5\n    /* \"https://raw.githubusercontent.com/OpenZeppelin/openzeppelin-contracts/v5.0.2/contracts/access/AccessControl.sol\":6315:6344  _roles[role].hasRole[account] */\n  0xffffffffffffffffffffffffffffffffffffffff\n  and\n  0xffffffffffffffffffffffffffffffffffffffff\n  and\n  dup2\n  mstore\n  0x20\n  add\n  swap1\n  dup2\n  mstore\n  0x20\n  add\n  0x00\n  keccak256\n  0x00\n    /* \"https://raw.githubusercontent.com/OpenZeppelin/openzeppelin-contracts/v5.0.2/contracts/access/AccessControl.sol\":6315:6351  _roles[role].hasRole[account] = true */\n  0x0100\n  exp\n  dup2\n  sload\n  dup2\n  0xff\n  mul\n  not\n  and\n  swap1\n  dup4\n  iszero\n  iszero\n  mul\n  or\n  swap1\n  sstore\n  pop\n    /* \"https://raw.githubusercontent.com/OpenZeppelin/openzeppelin-contracts/v5.0.2/contracts/access/AccessControl.sol\":6397:6409  _msgSender() */\n  tag_23\n    /* \"https://raw.githubusercontent.com/OpenZeppelin/openzeppelin-contracts/v5.0.2/contracts/access/AccessControl.sol\":6397:6407  _msgSender */\n  shl(0x20, tag_24)\n    /* \"https://raw.githubusercontent.com/OpenZeppelin/openzeppelin-contracts/v5.0.2/contracts/access/AccessControl.sol\":6397:6409  _msgSender() */\n  0x20\n  shr\n  jump\t// in\ntag_23:\n    /* \"https://raw.githubusercontent.com/OpenZeppelin/openzeppelin-contracts/v5.0.2/contracts/access/AccessControl.sol\":6370:6410  RoleGranted(role, account, _msgSender()) */\n  0xffffffffffffffffffffffffffffffffffffffff\n  and\n    /* \"https://raw.githubusercontent.com/OpenZeppelin/openzeppelin-contracts/v5.0.2/contracts/access/AccessControl.sol\":6388:6395  account */\n  dup3\n    /* \"https://raw.githubusercontent.com/OpenZeppelin/openzeppelin-contracts/v5.0.2/contracts/access/AccessControl.sol\":6370:6410  RoleGranted(role, account, _msgSender()) */\n  0xffffffffffffffffffffffffffffffffffffffff\n  and\n    /* \"https://raw.githubusercontent.com/OpenZeppelin/openzeppelin-contracts/v5.0.2/contracts/access/AccessControl.sol\":6382:6386  role */\n  dup5\n    /* \"https://raw.githubusercontent.com/OpenZeppelin/openzeppelin-contracts/v5.0.2/contracts/access/AccessControl.sol\":6370:6410  RoleGranted(role, account, _msgSender()) */\n  0x2f8788117e7eff1d82e926ec794901d17c78024a50270940304540a733656f0d\n  mload(0x40)\n  mload(0x40)\n  dup1\n  swap2\n  sub\n  swap1\n  log4\n    /* \"https://raw.githubusercontent.com/OpenZeppelin/openzeppelin-contracts/v5.0.2/contracts/access/AccessControl.sol\":6431:6435  true */\n  0x01\n    /* \"https://raw.githubusercontent.com/OpenZeppelin/openzeppelin-contracts/v5.0.2/contracts/access/AccessControl.sol\":6424:6435  return true */\n  swap1\n  pop\n  jump(tag_19)\n    /* \"https://raw.githubusercontent.com/OpenZeppelin/openzeppelin-contracts/v5.0.2/contracts/access/AccessControl.sol\":6272:6489  if (!hasRole(role, account)) {... */\ntag_22:\n    /* \"https://raw.githubusercontent.com/OpenZeppelin/openzeppelin-contracts/v5.0.2/contracts/access/AccessControl.sol\":6473:6478  false */\n  0x00\n    /* \"https://raw.githubusercontent.com/OpenZeppelin/openzeppelin-contracts/v5.0.2/contracts/access/AccessControl.sol\":6466:6478  return false */\n  swap1\n  pop\n    /* \"https://raw.githubusercontent.com/OpenZeppelin/openzeppelin-contracts/v5.0.2/contracts/access/AccessControl.sol\":6179:6495  function _grantRole(bytes32 role, address account) internal virtual returns (bool) {... */\ntag_19:\n  swap3\n  swap2\n  pop\n  pop\n  jump\t// out\n    /* \"https://raw.githubusercontent.com/OpenZeppelin/openzeppelin-contracts/v5.0.2/contracts/token/ERC20/ERC20.sol\":7721:7929  function _mint(address account, uint256 value) internal {... */\ntag_17:\n    /* \"https://raw.githubusercontent.com/OpenZeppelin/openzeppelin-contracts/v5.0.2/contracts/token/ERC20/ERC20.sol\":7810:7811  0 */\n  0x00\n    /* \"https://raw.githubusercontent.com/OpenZeppelin/openzeppelin-contracts/v5.0.2/contracts/token/ERC20/ERC20.sol\":7791:7812  account == address(0) */\n  0xffffffffffffffffffffffffffffffffffffffff\n  and\n    /* \"https://raw.githubusercontent.com/OpenZeppelin/openzeppelin-contracts/v5.0.2/contracts/token/ERC20/ERC20.sol\":7791:7798  account */\n  dup3\n    /* \"https://raw.githubusercontent.com/OpenZeppelin/openzeppelin-contracts/v5.0.2/contracts/token/ERC20/ERC20.sol\":7791:7812  account == address(0) */\n  0xffffffffffffffffffffffffffffffffffffffff\n  and\n  sub\n    /* \"https://raw.githubusercontent.com/OpenZeppelin/openzeppelin-contracts/v5.0.2/contracts/token/ERC20/ERC20.sol\":7787:7878  if (account == address(0)) {... */\n  tag_27\n  jumpi\n    /* \"https://raw.githubusercontent.com/OpenZeppelin/openzeppelin-contracts/v5.0.2/contracts/token/ERC20/ERC20.sol\":7864:7865  0 */\n  0x00\n    /* \"https://raw.githubusercontent.com/OpenZeppelin/openzeppelin-contracts/v5.0.2/contracts/token/ERC20/ERC20.sol\":7835:7867  ERC20InvalidReceiver(address(0)) */\n  mload(0x40)\n  0xec442f0500000000000000000000000000000000000000000000000000000000\n  dup2\n  mstore\n  0x04\n  add\n  tag_28\n  swap2\n  swap1\n  tag_29\n  jump\t// in\ntag_28:\n  mload(0x40)\n  dup1\n  swap2\n  sub\n  swap1\n  revert\n    /* \"https://raw.githubusercontent.com/OpenZeppelin/openzeppelin-contracts/v5.0.2/contracts/token/ERC20/ERC20.sol\":7787:7878  if (account == address(0)) {... */\ntag_27:\n    /* \"https://raw.githubusercontent.com/OpenZeppelin/openzeppelin-contracts/v5.0.2/contracts/token/ERC20/ERC20.sol\":7887:7922  _update(address(0), account, value) */\n  tag_30\n    /* \"https://raw.githubusercontent.com/OpenZeppelin/openzeppelin-contracts/v5.0.2/contracts/token/ERC20/ERC20.sol\":7903:7904  0 */\n  0x00\n    /* \"https://raw.githubusercontent.com/OpenZeppelin/openzeppelin-contracts/v5.0.2/contracts/token/ERC20/ERC20.sol\":7907:7914  account */\n  dup4\n    /* \"https://raw.githubusercontent.com/OpenZeppelin/openzeppelin-contracts/v5.0.2/contracts/token/ERC20/ERC20.sol\":7916:7921  value */\n  dup4\n    /* \"https://raw.githubusercontent.com/OpenZeppelin/openzeppelin-contracts/v5.0.2/contracts/token/ERC20/ERC20.sol\":7887:7894  _update */\n  shl(0x20, tag_31)\n    /* \"https://raw.githubusercontent.com/OpenZeppelin/openzeppelin-contracts/v5.0.2/contracts/token/ERC20/ERC20.sol\":7887:7922  _update(address(0), account, value) */\n  0x20\n  shr\n  jump\t// in\ntag_30:\n    /* \"https://raw.githubusercontent.com/OpenZeppelin/openzeppelin-contracts/v5.0.2/contracts/token/ERC20/ERC20.sol\":7721:7929  function _mint(address account, uint256 value) internal {... */\n  pop\n  pop\n  jump\t// out\n    /* \"https://raw.githubusercontent.com/OpenZeppelin/openzeppelin-contracts/v5.0.2/contracts/access/AccessControl.sol\":2854:2990  function hasRole(bytes32 role, address account) public view virtual returns (bool) {... */\ntag_21:\n    /* \"https://raw.githubusercontent.com/OpenZeppelin/openzeppelin-contracts/v5.0.2/contracts/access/AccessControl.sol\":2931:2935  bool */\n  0x00\n    /* \"https://raw.githubusercontent.com/OpenZeppelin/openzeppelin-contracts/v5.0.2/contracts/access/AccessControl.sol\":2954:2960  _roles */\n  0x05\n    /* \"https://raw.githubusercontent.com/OpenZeppelin/openzeppelin-contracts/v5.0.2/contracts/access/AccessControl.sol\":2954:2966  _roles[role] */\n  0x00\n    /* \"https://raw.githubusercontent.com/OpenZeppelin/openzeppelin-contracts/v5.0.2/contracts/access/AccessControl.sol\":2961:2965  role */\n  dup5\n    /* \"https://raw.githubusercontent.com/OpenZeppelin/openzeppelin-contracts/v5.0.2/contracts/access/AccessControl.sol\":2954:2966  _roles[role] */\n  dup2\n  mstore\n  0x20\n  add\n  swap1\n  dup2\n  mstore\n  0x20\n  add\n  0x00\n  keccak256\n    /* \"https://raw.githubusercontent.com/OpenZeppelin/openzeppelin-contracts/v5.0.2/contracts/access/AccessControl.sol\":2954:2974  _roles[role].hasRole */\n  0x00\n  add\n    /* \"https://raw.githubusercontent.com/OpenZeppelin/openzeppelin-contracts/v5.0.2/contracts/access/AccessControl.sol\":2954:2983  _roles[role].hasRole[account] */\n  0x00\n    /* \"https://raw.githubusercontent.com/OpenZeppelin/openzeppelin-contracts/v5.0.2/contracts/access/AccessControl.sol\":2975:2982  account */\n  dup4\n    /* \"https://raw.githubusercontent.com/OpenZeppelin/openzeppelin-contracts/v5.0.2/contracts/access/AccessControl.sol\":2954:2983  _roles[role].hasRole[account] */\n  0xffffffffffffffffffffffffffffffffffffffff\n  and\n  0xffffffffffffffffffffffffffffffffffffffff\n  and\n  dup2\n  mstore\n  0x20\n  add\n  swap1\n  dup2\n  mstore\n  0x20\n  add\n  0x00\n  keccak256\n  0x00\n  swap1\n  sload\n  swap1\n  0x0100\n  exp\n  swap1\n  div\n  0xff\n  and\n    /* \"https://raw.githubusercontent.com/OpenZeppelin/openzeppelin-contracts/v5.0.2/contracts/access/AccessControl.sol\":2947:2983  return _roles[role].hasRole[account] */\n  swap1\n  pop\n    /* \"https://raw.githubusercontent.com/OpenZeppelin/openzeppelin-contracts/v5.0.2/contracts/access/AccessControl.sol\":2854:2990  function hasRole(bytes32 role, address account) public view virtual returns (bool) {... */\n  swap3\n  swap2\n  pop\n  pop\n  jump\t// out\n    /* \"https://raw.githubusercontent.com/OpenZeppelin/openzeppelin-contracts/v5.0.2/contracts/utils/Context.sol\":656:752  function _msgSender() internal view virtual returns (address) {... */\ntag_24:\n    /* \"https://raw.githubusercontent.com/OpenZeppelin/openzeppelin-contracts/v5.0.2/contracts/utils/Context.sol\":709:716  address */\n  0x00\n    /* \"https://raw.githubusercontent.com/OpenZeppelin/openzeppelin-contracts/v5.0.2/contracts/utils/Context.sol\":735:745  msg.sender */\n  caller\n    /* \"https://raw.githubusercontent.com/OpenZeppelin/openzeppelin-contracts/v5.0.2/contracts/utils/Context.sol\":728:745  return msg.sender */\n  swap1\n  pop\n    /* \"https://raw.githubusercontent.com/OpenZeppelin/openzeppelin-contracts/v5.0.2/contracts/utils/Context.sol\":656:752  function _msgSender() internal view virtual returns (address) {... */\n  swap1\n  jump\t// out\n    /* \"contracts/RwaToken.sol\":1410:1808  function _update(address from, address to, uint256 value) internal override {... */\ntag_31:\n    /* \"contracts/RwaToken.sol\":1505:1513  paused() */\n  tag_35\n    /* \"contracts/RwaToken.sol\":1505:1511  paused */\n  shl(0x20, tag_36)\n    /* \"contracts/RwaToken.sol\":1505:1513  paused() */\n  0x20\n  shr\n  jump\t// in\ntag_35:\n    /* \"contracts/RwaToken.sol\":1504:1513  !paused() */\n  iszero\n    /* \"contracts/RwaToken.sol\":1496:1524  require(!paused(), \"paused\") */\n  tag_37\n  jumpi\n  mload(0x40)\n  0x08c379a000000000000000000000000000000000000000000000000000000000\n  dup2\n  mstore\n  0x04\n  add\n  tag_38\n  swap1\n  tag_39\n  jump\t// in\ntag_38:\n  mload(0x40)\n  dup1\n  swap2\n  sub\n  swap1\n  revert\ntag_37:\n    /* \"contracts/RwaToken.sol\":1554:1555  0 */\n  0x00\n    /* \"contracts/RwaToken.sol\":1538:1556  from != address(0) */\n  0xffffffffffffffffffffffffffffffffffffffff\n  and\n    /* \"contracts/RwaToken.sol\":1538:1542  from */\n  dup4\n    /* \"contracts/RwaToken.sol\":1538:1556  from != address(0) */\n  0xffffffffffffffffffffffffffffffffffffffff\n  and\n  eq\n  iszero\n    /* \"contracts/RwaToken.sol\":1538:1576  from != address(0) || to != address(0) */\n  dup1\n  tag_40\n  jumpi\n  pop\n    /* \"contracts/RwaToken.sol\":1574:1575  0 */\n  0x00\n    /* \"contracts/RwaToken.sol\":1560:1576  to != address(0) */\n  0xffffffffffffffffffffffffffffffffffffffff\n  and\n    /* \"contracts/RwaToken.sol\":1560:1562  to */\n  dup3\n    /* \"contracts/RwaToken.sol\":1560:1576  to != address(0) */\n  0xffffffffffffffffffffffffffffffffffffffff\n  and\n  eq\n  iszero\n    /* \"contracts/RwaToken.sol\":1538:1576  from != address(0) || to != address(0) */\ntag_40:\n    /* \"contracts/RwaToken.sol\":1534:1762  if (from != address(0) || to != address(0)) {... */\n  iszero\n  tag_41\n  jumpi\n    /* \"contracts/RwaToken.sol\":1593:1600  bool ok */\n  0x00\n    /* \"contracts/RwaToken.sol\":1602:1616  uint256 reason */\n  0x00\n    /* \"contracts/RwaToken.sol\":1620:1630  compliance */\n  0x06\n  0x01\n  swap1\n  sload\n  swap1\n  0x0100\n  exp\n  swap1\n  div\n  0xffffffffffffffffffffffffffffffffffffffff\n  and\n    /* \"contracts/RwaToken.sol\":1620:1642  compliance.canTransfer */\n  0xffffffffffffffffffffffffffffffffffffffff\n  and\n  0x9d6232fa\n    /* \"contracts/RwaToken.sol\":1643:1647  from */\n  dup7\n    /* \"contracts/RwaToken.sol\":1649:1651  to */\n  dup7\n    /* \"contracts/RwaToken.sol\":1653:1658  value */\n  dup7\n    /* \"contracts/RwaToken.sol\":1620:1663  compliance.canTransfer(from, to, value, \"\") */\n  mload(0x40)\n  dup5\n  0xffffffff\n  and\n  0xe0\n  shl\n  dup2\n  mstore\n  0x04\n  add\n  tag_42\n  swap4\n  swap3\n  swap2\n  swap1\n  tag_43\n  jump\t// in\ntag_42:\n  0x40\n  dup1\n  mload\n  dup1\n  dup4\n  sub\n  dup2\n  dup7\n  gas\n  staticcall\n  iszero\n  dup1\n  iszero\n  tag_45\n  jumpi\n  returndatacopy(0x00, 0x00, returndatasize)\n  revert(0x00, returndatasize)\ntag_45:\n  pop\n  pop\n  pop\n  pop\n  mload(0x40)\n  returndatasize\n  not(0x1f)\n  0x1f\n  dup3\n  add\n  and\n  dup3\n  add\n  dup1\n  0x40\n  mstore\n  pop\n  dup2\n  add\n  swap1\n  tag_46\n  swap2\n  swap1\n  tag_47\n  jump\t// in\ntag_46:\n    /* \"contracts/RwaToken.sol\":1592:1663  (bool ok, uint256 reason) = compliance.canTransfer(from, to, value, \"\") */\n  swap2\n  pop\n  swap2\n  pop\n    /* \"contracts/RwaToken.sol\":1685:1687  ok */\n  dup2\n    /* \"contracts/RwaToken.sol\":1734:1748  _toStr(reason) */\n  tag_48\n    /* \"contracts/RwaToken.sol\":1741:1747  reason */\n  dup3\n    /* \"contracts/RwaToken.sol\":1734:1740  _toStr */\n  shl(0x20, tag_49)\n    /* \"contracts/RwaToken.sol\":1734:1748  _toStr(reason) */\n  0x20\n  shr\n  jump\t// in\ntag_48:\n    /* \"contracts/RwaToken.sol\":1696:1749  abi.encodePacked(\"compliance fail: \", _toStr(reason)) */\n  add(0x20, mload(0x40))\n  tag_50\n  swap2\n  swap1\n  tag_51\n  jump\t// in\ntag_50:\n  mload(0x40)\n  0x20\n  dup2\n  dup4\n  sub\n  sub\n  dup2\n  mstore\n  swap1\n  0x40\n  mstore\n    /* \"contracts/RwaToken.sol\":1677:1751  require(ok, string(abi.encodePacked(\"compliance fail: \", _toStr(reason)))) */\n  swap1\n  tag_52\n  jumpi\n  mload(0x40)\n  0x08c379a000000000000000000000000000000000000000000000000000000000\n  dup2\n  mstore\n  0x04\n  add\n  tag_53\n  swap2\n  swap1\n  tag_54\n  jump\t// in\ntag_53:\n  mload(0x40)\n  dup1\n  swap2\n  sub\n  swap1\n  revert\ntag_52:\n  pop\n    /* \"contracts/RwaToken.sol\":1578:1762  {... */\n  pop\n  pop\n    /* \"contracts/RwaToken.sol\":1534:1762  if (from != address(0) || to != address(0)) {... */\ntag_41:\n    /* \"contracts/RwaToken.sol\":1771:1801  super._update(from, to, value) */\n  tag_55\n    /* \"contracts/RwaToken.sol\":1785:1789  from */\n  dup4\n    /* \"contracts/RwaToken.sol\":1791:1793  to */\n  dup4\n    /* \"contracts/RwaToken.sol\":1795:1800  value */\n  dup4\n    /* \"contracts/RwaToken.sol\":1771:1784  super._update */\n  shl(0x20, tag_56)\n    /* \"contracts/RwaToken.sol\":1771:1801  super._update(from, to, value) */\n  0x20\n  shr\n  jump\t// in\ntag_55:\n    /* \"contracts/RwaToken.sol\":1410:1808  function _update(address from, address to, uint256 value) internal override {... */\n  pop\n  pop\n  pop\n  jump\t// out\n    /* \"https://raw.githubusercontent.com/OpenZeppelin/openzeppelin-contracts/v5.0.2/contracts/utils/Pausable.sol\":1850:1934  function paused() public view virtual returns (bool) {... */\ntag_36:\n    /* \"https://raw.githubusercontent.com/OpenZeppelin/openzeppelin-contracts/v5.0.2/contracts/utils/Pausable.sol\":1897:1901  bool */\n  0x00\n    /* \"https://raw.githubusercontent.com/OpenZeppelin/openzeppelin-contracts/v5.0.2/contracts/utils/Pausable.sol\":1920:1927  _paused */\n  0x06\n  0x00\n  swap1\n  sload\n  swap1\n  0x0100\n  exp\n  swap1\n  div\n  0xff\n  and\n    /* \"https://raw.githubusercontent.com/OpenZeppelin/openzeppelin-contracts/v5.0.2/contracts/utils/Pausable.sol\":1913:1927  return _paused */\n  swap1\n  pop\n    /* \"https://raw.githubusercontent.com/OpenZeppelin/openzeppelin-contracts/v5.0.2/contracts/utils/Pausable.sol\":1850:1934  function paused() public view virtual returns (bool) {... */\n  swap1\n  jump\t// out\n    /* \"contracts/RwaToken.sol\":2119:2354  function _toStr(uint256 x) internal pure returns (string memory) {... */\ntag_49:\n    /* \"contracts/RwaToken.sol\":2169:2182  string memory */\n  0x60\n    /* \"contracts/RwaToken.sol\":2203:2204  0 */\n  0x00\n    /* \"contracts/RwaToken.sol\":2198:2199  x */\n  dup3\n    /* \"contracts/RwaToken.sol\":2198:2204  x == 0 */\n  sub\n    /* \"contracts/RwaToken.sol\":2194:2216  if (x == 0) return \"0\" */\n  tag_59\n  jumpi\n    /* \"contracts/RwaToken.sol\":2206:2216  return \"0\" */\n  mload(0x40)\n  dup1\n  0x40\n  add\n  0x40\n  mstore\n  dup1\n  0x01\n  dup2\n  mstore\n  0x20\n  add\n  0x3000000000000000000000000000000000000000000000000000000000000000\n  dup2\n  mstore\n  pop\n  swap1\n  pop\n  jump(tag_58)\n    /* \"contracts/RwaToken.sol\":2194:2216  if (x == 0) return \"0\" */\ntag_59:\n    /* \"contracts/RwaToken.sol\":2226:2240  bytes memory b */\n  0x60\n    /* \"contracts/RwaToken.sol\":2250:2322  while (x != 0) { b = abi.encodePacked(uint8(48 + x % 10), b); x /= 10; } */\ntag_60:\n    /* \"contracts/RwaToken.sol\":2262:2263  0 */\n  0x00\n    /* \"contracts/RwaToken.sol\":2257:2258  x */\n  dup4\n    /* \"contracts/RwaToken.sol\":2257:2263  x != 0 */\n  eq\n    /* \"contracts/RwaToken.sol\":2250:2322  while (x != 0) { b = abi.encodePacked(uint8(48 + x % 10), b); x /= 10; } */\n  tag_61\n  jumpi\n    /* \"contracts/RwaToken.sol\":2303:2305  10 */\n  0x0a\n    /* \"contracts/RwaToken.sol\":2299:2300  x */\n  dup4\n    /* \"contracts/RwaToken.sol\":2299:2305  x % 10 */\n  tag_62\n  swap2\n  swap1\n  tag_63\n  jump\t// in\ntag_62:\n    /* \"contracts/RwaToken.sol\":2294:2296  48 */\n  0x30\n    /* \"contracts/RwaToken.sol\":2294:2305  48 + x % 10 */\n  tag_64\n  swap2\n  swap1\n  tag_65\n  jump\t// in\ntag_64:\n    /* \"contracts/RwaToken.sol\":2308:2309  b */\n  dup2\n    /* \"contracts/RwaToken.sol\":2271:2310  abi.encodePacked(uint8(48 + x % 10), b) */\n  add(0x20, mload(0x40))\n  tag_66\n  swap3\n  swap2\n  swap1\n  tag_67\n  jump\t// in\ntag_66:\n  mload(0x40)\n  0x20\n  dup2\n  dup4\n  sub\n  sub\n  dup2\n  mstore\n  swap1\n  0x40\n  mstore\n    /* \"contracts/RwaToken.sol\":2267:2310  b = abi.encodePacked(uint8(48 + x % 10), b) */\n  swap1\n  pop\n    /* \"contracts/RwaToken.sol\":2317:2319  10 */\n  0x0a\n    /* \"contracts/RwaToken.sol\":2312:2319  x /= 10 */\n  dup4\n  tag_68\n  swap2\n  swap1\n  tag_69\n  jump\t// in\ntag_68:\n  swap3\n  pop\n    /* \"contracts/RwaToken.sol\":2250:2322  while (x != 0) { b = abi.encodePacked(uint8(48 + x % 10), b); x /= 10; } */\n  jump(tag_60)\ntag_61:\n    /* \"contracts/RwaToken.sol\":2345:2346  b */\n  dup1\n    /* \"contracts/RwaToken.sol\":2331:2347  return string(b) */\n  swap2\n  pop\n  pop\n    /* \"contracts/RwaToken.sol\":2119:2354  function _toStr(uint256 x) internal pure returns (string memory) {... */\ntag_58:\n  swap2\n  swap1\n  pop\n  jump\t// out\n    /* \"https://raw.githubusercontent.com/OpenZeppelin/openzeppelin-contracts/v5.0.2/contracts/token/ERC20/ERC20.sol\":6271:7378  function _update(address from, address to, uint256 value) internal virtual {... */\ntag_56:\n    /* \"https://raw.githubusercontent.com/OpenZeppelin/openzeppelin-contracts/v5.0.2/contracts/token/ERC20/ERC20.sol\":6376:6377  0 */\n  0x00\n    /* \"https://raw.githubusercontent.com/OpenZeppelin/openzeppelin-contracts/v5.0.2/contracts/token/ERC20/ERC20.sol\":6360:6378  from == address(0) */\n  0xffffffffffffffffffffffffffffffffffffffff\n  and\n    /* \"https://raw.githubusercontent.com/OpenZeppelin/openzeppelin-contracts/v5.0.2/contracts/token/ERC20/ERC20.sol\":6360:6364  from */\n  dup4\n    /* \"https://raw.githubusercontent.com/OpenZeppelin/openzeppelin-contracts/v5.0.2/contracts/token/ERC20/ERC20.sol\":6360:6378  from == address(0) */\n  0xffffffffffffffffffffffffffffffffffffffff\n  and\n  sub\n    /* \"https://raw.githubusercontent.com/OpenZeppelin/openzeppelin-contracts/v5.0.2/contracts/token/ERC20/ERC20.sol\":6356:6896  if (from == address(0)) {... */\n  tag_71\n  jumpi\n    /* \"https://raw.githubusercontent.com/OpenZeppelin/openzeppelin-contracts/v5.0.2/contracts/token/ERC20/ERC20.sol\":6512:6517  value */\n  dup1\n    /* \"https://raw.githubusercontent.com/OpenZeppelin/openzeppelin-contracts/v5.0.2/contracts/token/ERC20/ERC20.sol\":6496:6508  _totalSupply */\n  0x02\n  0x00\n    /* \"https://raw.githubusercontent.com/OpenZeppelin/openzeppelin-contracts/v5.0.2/contracts/token/ERC20/ERC20.sol\":6496:6517  _totalSupply += value */\n  dup3\n  dup3\n  sload\n  tag_72\n  swap2\n  swap1\n  tag_65\n  jump\t// in\ntag_72:\n  swap3\n  pop\n  pop\n  dup2\n  swap1\n  sstore\n  pop\n    /* \"https://raw.githubusercontent.com/OpenZeppelin/openzeppelin-contracts/v5.0.2/contracts/token/ERC20/ERC20.sol\":6356:6896  if (from == address(0)) {... */\n  jump(tag_73)\ntag_71:\n    /* \"https://raw.githubusercontent.com/OpenZeppelin/openzeppelin-contracts/v5.0.2/contracts/token/ERC20/ERC20.sol\":6548:6567  uint256 fromBalance */\n  0x00\n    /* \"https://raw.githubusercontent.com/OpenZeppelin/openzeppelin-contracts/v5.0.2/contracts/token/ERC20/ERC20.sol\":6570:6579  _balances */\n  0x00\n    /* \"https://raw.githubusercontent.com/OpenZeppelin/openzeppelin-contracts/v5.0.2/contracts/token/ERC20/ERC20.sol\":6570:6585  _balances[from] */\n  0x00\n    /* \"https://raw.githubusercontent.com/OpenZeppelin/openzeppelin-contracts/v5.0.2/contracts/token/ERC20/ERC20.sol\":6580:6584  from */\n  dup6\n    /* \"https://raw.githubusercontent.com/OpenZeppelin/openzeppelin-contracts/v5.0.2/contracts/token/ERC20/ERC20.sol\":6570:6585  _balances[from] */\n  0xffffffffffffffffffffffffffffffffffffffff\n  and\n  0xffffffffffffffffffffffffffffffffffffffff\n  and\n  dup2\n  mstore\n  0x20\n  add\n  swap1\n  dup2\n  mstore\n  0x20\n  add\n  0x00\n  keccak256\n  sload\n    /* \"https://raw.githubusercontent.com/OpenZeppelin/openzeppelin-contracts/v5.0.2/contracts/token/ERC20/ERC20.sol\":6548:6585  uint256 fromBalance = _balances[from] */\n  swap1\n  pop\n    /* \"https://raw.githubusercontent.com/OpenZeppelin/openzeppelin-contracts/v5.0.2/contracts/token/ERC20/ERC20.sol\":6617:6622  value */\n  dup2\n    /* \"https://raw.githubusercontent.com/OpenZeppelin/openzeppelin-contracts/v5.0.2/contracts/token/ERC20/ERC20.sol\":6603:6614  fromBalance */\n  dup2\n    /* \"https://raw.githubusercontent.com/OpenZeppelin/openzeppelin-contracts/v5.0.2/contracts/token/ERC20/ERC20.sol\":6603:6622  fromBalance < value */\n  lt\n    /* \"https://raw.githubusercontent.com/OpenZeppelin/openzeppelin-contracts/v5.0.2/contracts/token/ERC20/ERC20.sol\":6599:6714  if (fromBalance < value) {... */\n  iszero\n  tag_74\n  jumpi\n    /* \"https://raw.githubusercontent.com/OpenZeppelin/openzeppelin-contracts/v5.0.2/contracts/token/ERC20/ERC20.sol\":6674:6678  from */\n  dup4\n    /* \"https://raw.githubusercontent.com/OpenZeppelin/openzeppelin-contracts/v5.0.2/contracts/token/ERC20/ERC20.sol\":6680:6691  fromBalance */\n  dup2\n    /* \"https://raw.githubusercontent.com/OpenZeppelin/openzeppelin-contracts/v5.0.2/contracts/token/ERC20/ERC20.sol\":6693:6698  value */\n  dup4\n    /* \"https://raw.githubusercontent.com/OpenZeppelin/openzeppelin-contracts/v5.0.2/contracts/token/ERC20/ERC20.sol\":6649:6699  ERC20InsufficientBalance(from, fromBalance, value) */\n  mload(0x40)\n  0xe450d38c00000000000000000000000000000000000000000000000000000000\n  dup2\n  mstore\n  0x04\n  add\n  tag_75\n  swap4\n  swap3\n  swap2\n  swap1\n  tag_76\n  jump\t// in\ntag_75:\n  mload(0x40)\n  dup1\n  swap2\n  sub\n  swap1\n  revert\n    /* \"https://raw.githubusercontent.com/OpenZeppelin/openzeppelin-contracts/v5.0.2/contracts/token/ERC20/ERC20.sol\":6599:6714  if (fromBalance < value) {... */\ntag_74:\n    /* \"https://raw.githubusercontent.com/OpenZeppelin/openzeppelin-contracts/v5.0.2/contracts/token/ERC20/ERC20.sol\":6866:6871  value */\n  dup2\n    /* \"https://raw.githubusercontent.com/OpenZeppelin/openzeppelin-contracts/v5.0.2/contracts/token/ERC20/ERC20.sol\":6852:6863  fromBalance */\n  dup2\n    /* \"https://raw.githubusercontent.com/OpenZeppelin/openzeppelin-contracts/v5.0.2/contracts/token/ERC20/ERC20.sol\":6852:6871  fromBalance - value */\n  sub\n    /* \"https://raw.githubusercontent.com/OpenZeppelin/openzeppelin-contracts/v5.0.2/contracts/token/ERC20/ERC20.sol\":6834:6843  _balances */\n  0x00\n    /* \"https://raw.githubusercontent.com/OpenZeppelin/openzeppelin-contracts/v5.0.2/contracts/token/ERC20/ERC20.sol\":6834:6849  _balances[from] */\n  0x00\n    /* \"https://raw.githubusercontent.com/OpenZeppelin/openzeppelin-contracts/v5.0.2/contracts/token/ERC20/ERC20.sol\":6844:6848  from */\n  dup7\n    /* \"https://raw.githubusercontent.com/OpenZeppelin/openzeppelin-contracts/v5.0.2/contracts/token/ERC20/ERC20.sol\":6834:6849  _balances[from] */\n  0xffffffffffffffffffffffffffffffffffffffff\n  and\n  0xffffffffffffffffffffffffffffffffffffffff\n  and\n  dup2\n  mstore\n  0x20\n  add\n  swap1\n  dup2\n  mstore\n  0x20\n  add\n  0x00\n  keccak256\n    /* \"https://raw.githubusercontent.com/OpenZeppelin/openzeppelin-contracts/v5.0.2/contracts/token/ERC20/ERC20.sol\":6834:6871  _balances[from] = fromBalance - value */\n  dup2\n  swap1\n  sstore\n  pop\n    /* \"https://raw.githubusercontent.com/OpenZeppelin/openzeppelin-contracts/v5.0.2/contracts/token/ERC20/ERC20.sol\":6534:6896  {... */\n  pop\n    /* \"https://raw.githubusercontent.com/OpenZeppelin/openzeppelin-contracts/v5.0.2/contracts/token/ERC20/ERC20.sol\":6356:6896  if (from == address(0)) {... */\ntag_73:\n    /* \"https://raw.githubusercontent.com/OpenZeppelin/openzeppelin-contracts/v5.0.2/contracts/token/ERC20/ERC20.sol\":6924:6925  0 */\n  0x00\n    /* \"https://raw.githubusercontent.com/OpenZeppelin/openzeppelin-contracts/v5.0.2/contracts/token/ERC20/ERC20.sol\":6910:6926  to == address(0) */\n  0xffffffffffffffffffffffffffffffffffffffff\n  and\n    /* \"https://raw.githubusercontent.com/OpenZeppelin/openzeppelin-contracts/v5.0.2/contracts/token/ERC20/ERC20.sol\":6910:6912  to */\n  dup3\n    /* \"https://raw.githubusercontent.com/OpenZeppelin/openzeppelin-contracts/v5.0.2/contracts/token/ERC20/ERC20.sol\":6910:6926  to == address(0) */\n  0xffffffffffffffffffffffffffffffffffffffff\n  and\n  sub\n    /* \"https://raw.githubusercontent.com/OpenZeppelin/openzeppelin-contracts/v5.0.2/contracts/token/ERC20/ERC20.sol\":6906:7331  if (to == address(0)) {... */\n  tag_77\n  jumpi\n    /* \"https://raw.githubusercontent.com/OpenZeppelin/openzeppelin-contracts/v5.0.2/contracts/token/ERC20/ERC20.sol\":7089:7094  value */\n  dup1\n    /* \"https://raw.githubusercontent.com/OpenZeppelin/openzeppelin-contracts/v5.0.2/contracts/token/ERC20/ERC20.sol\":7073:7085  _totalSupply */\n  0x02\n  0x00\n    /* \"https://raw.githubusercontent.com/OpenZeppelin/openzeppelin-contracts/v5.0.2/contracts/token/ERC20/ERC20.sol\":7073:7094  _totalSupply -= value */\n  dup3\n  dup3\n  sload\n  sub\n  swap3\n  pop\n  pop\n  dup2\n  swap1\n  sstore\n  pop\n    /* \"https://raw.githubusercontent.com/OpenZeppelin/openzeppelin-contracts/v5.0.2/contracts/token/ERC20/ERC20.sol\":6906:7331  if (to == address(0)) {... */\n  jump(tag_78)\ntag_77:\n    /* \"https://raw.githubusercontent.com/OpenZeppelin/openzeppelin-contracts/v5.0.2/contracts/token/ERC20/ERC20.sol\":7301:7306  value */\n  dup1\n    /* \"https://raw.githubusercontent.com/OpenZeppelin/openzeppelin-contracts/v5.0.2/contracts/token/ERC20/ERC20.sol\":7284:7293  _balances */\n  0x00\n    /* \"https://raw.githubusercontent.com/OpenZeppelin/openzeppelin-contracts/v5.0.2/contracts/token/ERC20/ERC20.sol\":7284:7297  _balances[to] */\n  0x00\n    /* \"https://raw.githubusercontent.com/OpenZeppelin/openzeppelin-contracts/v5.0.2/contracts/token/ERC20/ERC20.sol\":7294:7296  to */\n  dup5\n    /* \"https://raw.githubusercontent.com/OpenZeppelin/openzeppelin-contracts/v5.0.2/contracts/token/ERC20/ERC20.sol\":7284:7297  _balances[to] */\n  0xffffffffffffffffffffffffffffffffffffffff\n  and\n  0xffffffffffffffffffffffffffffffffffffffff\n  and\n  dup2\n  mstore\n  0x20\n  add\n  swap1\n  dup2\n  mstore\n  0x20\n  add\n  0x00\n  keccak256\n  0x00\n    /* \"https://raw.githubusercontent.com/OpenZeppelin/openzeppelin-contracts/v5.0.2/contracts/token/ERC20/ERC20.sol\":7284:7306  _balances[to] += value */\n  dup3\n  dup3\n  sload\n  add\n  swap3\n  pop\n  pop\n  dup2\n  swap1\n  sstore\n  pop\n    /* \"https://raw.githubusercontent.com/OpenZeppelin/openzeppelin-contracts/v5.0.2/contracts/token/ERC20/ERC20.sol\":6906:7331  if (to == address(0)) {... */\ntag_78:\n    /* \"https://raw.githubusercontent.com/OpenZeppelin/openzeppelin-contracts/v5.0.2/contracts/token/ERC20/ERC20.sol\":7361:7363  to */\n  dup2\n    /* \"https://raw.githubusercontent.com/OpenZeppelin/openzeppelin-contracts/v5.0.2/contracts/token/ERC20/ERC20.sol\":7346:7371  Transfer(from, to, value) */\n  0xffffffffffffffffffffffffffffffffffffffff\n  and\n    /* \"https://raw.githubusercontent.com/OpenZeppelin/openzeppelin-contracts/v5.0.2/contracts/token/ERC20/ERC20.sol\":7355:7359  from */\n  dup4\n    /* \"https://raw.githubusercontent.com/OpenZeppelin/openzeppelin-contracts/v5.0.2/contracts/token/ERC20/ERC20.sol\":7346:7371  Transfer(from, to, value) */\n  0xffffffffffffffffffffffffffffffffffffffff\n  and\n  0xddf252ad1be2c89b69c2b068fc378daa952ba7f163c4a11628f55a4df523b3ef\n    /* \"https://raw.githubusercontent.com/OpenZeppelin/openzeppelin-contracts/v5.0.2/contracts/token/ERC20/ERC20.sol\":7365:7370  value */\n  dup4\n    /* \"https://raw.githubusercontent.com/OpenZeppelin/openzeppelin-contracts/v5.0.2/contracts/token/ERC20/ERC20.sol\":7346:7371  Transfer(from, to, value) */\n  mload(0x40)\n  tag_79\n  swap2\n  swap1\n  tag_80\n  jump\t// in\ntag_79:\n  mload(0x40)\n  dup1\n  swap2\n  sub\n  swap1\n  log3\n    /* \"https://raw.githubusercontent.com/OpenZeppelin/openzeppelin-contracts/v5.0.2/contracts/token/ERC20/ERC20.sol\":6271:7378  function _update(address from, address to, uint256 value) internal virtual {... */\n  pop\n  pop\n  pop\n  jump\t// out\n    /* \"#utility.yul\":7:82   */\ntag_81:\n    /* \"#utility.yul\":40:46   */\n  0x00\n    /* \"#utility.yul\":73:75   */\n  0x40\n    /* \"#utility.yul\":67:76   */\n  mload\n    /* \"#utility.yul\":57:76   */\n  swap1\n  pop\n    /* \"#utility.yul\":7:82   */\n  swap1\n  jump\t// out\n    /* \"#utility.yul\":88:205   */\ntag_82:\n    /* \"#utility.yul\":197:198   */\n  0x00\n    /* \"#utility.yul\":194:195   */\n  0x00\n    /* \"#utility.yul\":187:199   */\n  revert\n    /* \"#utility.yul\":211:328   */\ntag_83:\n    /* \"#utility.yul\":320:321   */\n  0x00\n    /* \"#utility.yul\":317:318   */\n  0x00\n    /* \"#utility.yul\":310:322   */\n  revert\n    /* \"#utility.yul\":334:451   */\ntag_84:\n    /* \"#utility.yul\":443:444   */\n  0x00\n    /* \"#utility.yul\":440:441   */\n  0x00\n    /* \"#utility.yul\":433:445   */\n  revert\n    /* \"#utility.yul\":457:574   */\ntag_85:\n    /* \"#utility.yul\":566:567   */\n  0x00\n    /* \"#utility.yul\":563:564   */\n  0x00\n    /* \"#utility.yul\":556:568   */\n  revert\n    /* \"#utility.yul\":580:682   */\ntag_86:\n    /* \"#utility.yul\":621:627   */\n  0x00\n    /* \"#utility.yul\":672:674   */\n  0x1f\n    /* \"#utility.yul\":668:675   */\n  not\n    /* \"#utility.yul\":663:665   */\n  0x1f\n    /* \"#utility.yul\":656:661   */\n  dup4\n    /* \"#utility.yul\":652:666   */\n  add\n    /* \"#utility.yul\":648:676   */\n  and\n    /* \"#utility.yul\":638:676   */\n  swap1\n  pop\n    /* \"#utility.yul\":580:682   */\n  swap2\n  swap1\n  pop\n  jump\t// out\n    /* \"#utility.yul\":688:868   */\ntag_87:\n    /* \"#utility.yul\":736:813   */\n  0x4e487b7100000000000000000000000000000000000000000000000000000000\n    /* \"#utility.yul\":733:734   */\n  0x00\n    /* \"#utility.yul\":726:814   */\n  mstore\n    /* \"#utility.yul\":833:837   */\n  0x41\n    /* \"#utility.yul\":830:831   */\n  0x04\n    /* \"#utility.yul\":823:838   */\n  mstore\n    /* \"#utility.yul\":857:861   */\n  0x24\n    /* \"#utility.yul\":854:855   */\n  0x00\n    /* \"#utility.yul\":847:862   */\n  revert\n    /* \"#utility.yul\":874:1155   */\ntag_88:\n    /* \"#utility.yul\":957:984   */\n  tag_153\n    /* \"#utility.yul\":979:983   */\n  dup3\n    /* \"#utility.yul\":957:984   */\n  tag_86\n  jump\t// in\ntag_153:\n    /* \"#utility.yul\":949:955   */\n  dup2\n    /* \"#utility.yul\":945:985   */\n  add\n    /* \"#utility.yul\":1087:1093   */\n  dup2\n    /* \"#utility.yul\":1075:1085   */\n  dup2\n    /* \"#utility.yul\":1072:1094   */\n  lt\n    /* \"#utility.yul\":1051:1069   */\n  0xffffffffffffffff\n    /* \"#utility.yul\":1039:1049   */\n  dup3\n    /* \"#utility.yul\":1036:1070   */\n  gt\n    /* \"#utility.yul\":1033:1095   */\n  or\n    /* \"#utility.yul\":1030:1118   */\n  iszero\n  tag_154\n  jumpi\n    /* \"#utility.yul\":1098:1116   */\n  tag_155\n  tag_87\n  jump\t// in\ntag_155:\n    /* \"#utility.yul\":1030:1118   */\ntag_154:\n    /* \"#utility.yul\":1138:1148   */\n  dup1\n    /* \"#utility.yul\":1134:1136   */\n  0x40\n    /* \"#utility.yul\":1127:1149   */\n  mstore\n    /* \"#utility.yul\":917:1155   */\n  pop\n    /* \"#utility.yul\":874:1155   */\n  pop\n  pop\n  jump\t// out\n    /* \"#utility.yul\":1161:1290   */\ntag_89:\n    /* \"#utility.yul\":1195:1201   */\n  0x00\n    /* \"#utility.yul\":1222:1242   */\n  tag_157\n  tag_81\n  jump\t// in\ntag_157:\n    /* \"#utility.yul\":1212:1242   */\n  swap1\n  pop\n    /* \"#utility.yul\":1251:1284   */\n  tag_158\n    /* \"#utility.yul\":1279:1283   */\n  dup3\n    /* \"#utility.yul\":1271:1277   */\n  dup3\n    /* \"#utility.yul\":1251:1284   */\n  tag_88\n  jump\t// in\ntag_158:\n    /* \"#utility.yul\":1161:1290   */\n  swap2\n  swap1\n  pop\n  jump\t// out\n    /* \"#utility.yul\":1296:1604   */\ntag_90:\n    /* \"#utility.yul\":1358:1362   */\n  0x00\n    /* \"#utility.yul\":1448:1466   */\n  0xffffffffffffffff\n    /* \"#utility.yul\":1440:1446   */\n  dup3\n    /* \"#utility.yul\":1437:1467   */\n  gt\n    /* \"#utility.yul\":1434:1490   */\n  iszero\n  tag_160\n  jumpi\n    /* \"#utility.yul\":1470:1488   */\n  tag_161\n  tag_87\n  jump\t// in\ntag_161:\n    /* \"#utility.yul\":1434:1490   */\ntag_160:\n    /* \"#utility.yul\":1508:1537   */\n  tag_162\n    /* \"#utility.yul\":1530:1536   */\n  dup3\n    /* \"#utility.yul\":1508:1537   */\n  tag_86\n  jump\t// in\ntag_162:\n    /* \"#utility.yul\":1500:1537   */\n  swap1\n  pop\n    /* \"#utility.yul\":1592:1596   */\n  0x20\n    /* \"#utility.yul\":1586:1590   */\n  dup2\n    /* \"#utility.yul\":1582:1597   */\n  add\n    /* \"#utility.yul\":1574:1597   */\n  swap1\n  pop\n    /* \"#utility.yul\":1296:1604   */\n  swap2\n  swap1\n  pop\n  jump\t// out\n    /* \"#utility.yul\":1610:1749   */\ntag_91:\n    /* \"#utility.yul\":1699:1705   */\n  dup3\n    /* \"#utility.yul\":1694:1697   */\n  dup2\n    /* \"#utility.yul\":1689:1692   */\n  dup4\n    /* \"#utility.yul\":1683:1706   */\n  mcopy\n    /* \"#utility.yul\":1740:1741   */\n  0x00\n    /* \"#utility.yul\":1731:1737   */\n  dup4\n    /* \"#utility.yul\":1726:1729   */\n  dup4\n    /* \"#utility.yul\":1722:1738   */\n  add\n    /* \"#utility.yul\":1715:1742   */\n  mstore\n    /* \"#utility.yul\":1610:1749   */\n  pop\n  pop\n  pop\n  jump\t// out\n    /* \"#utility.yul\":1755:2189   */\ntag_92:\n    /* \"#utility.yul\":1844:1849   */\n  0x00\n    /* \"#utility.yul\":1869:1935   */\n  tag_165\n    /* \"#utility.yul\":1885:1934   */\n  tag_166\n    /* \"#utility.yul\":1927:1933   */\n  dup5\n    /* \"#utility.yul\":1885:1934   */\n  tag_90\n  jump\t// in\ntag_166:\n    /* \"#utility.yul\":1869:1935   */\n  tag_89\n  jump\t// in\ntag_165:\n    /* \"#utility.yul\":1860:1935   */\n  swap1\n  pop\n    /* \"#utility.yul\":1958:1964   */\n  dup3\n    /* \"#utility.yul\":1951:1956   */\n  dup2\n    /* \"#utility.yul\":1944:1965   */\n  mstore\n    /* \"#utility.yul\":1996:2000   */\n  0x20\n    /* \"#utility.yul\":1989:1994   */\n  dup2\n    /* \"#utility.yul\":1985:2001   */\n  add\n    /* \"#utility.yul\":2034:2037   */\n  dup5\n    /* \"#utility.yul\":2025:2031   */\n  dup5\n    /* \"#utility.yul\":2020:2023   */\n  dup5\n    /* \"#utility.yul\":2016:2032   */\n  add\n    /* \"#utility.yul\":2013:2038   */\n  gt\n    /* \"#utility.yul\":2010:2122   */\n  iszero\n  tag_167\n  jumpi\n    /* \"#utility.yul\":2041:2120   */\n  tag_168\n  tag_85\n  jump\t// in\ntag_168:\n    /* \"#utility.yul\":2010:2122   */\ntag_167:\n    /* \"#utility.yul\":2131:2183   */\n  tag_169\n    /* \"#utility.yul\":2176:2182   */\n  dup5\n    /* \"#utility.yul\":2171:2174   */\n  dup3\n    /* \"#utility.yul\":2166:2169   */\n  dup6\n    /* \"#utility.yul\":2131:2183   */\n  tag_91\n  jump\t// in\ntag_169:\n    /* \"#utility.yul\":1850:2189   */\n  pop\n    /* \"#utility.yul\":1755:2189   */\n  swap4\n  swap3\n  pop\n  pop\n  pop\n  jump\t// out\n    /* \"#utility.yul\":2209:2564   */\ntag_93:\n    /* \"#utility.yul\":2276:2281   */\n  0x00\n    /* \"#utility.yul\":2325:2328   */\n  dup3\n    /* \"#utility.yul\":2318:2322   */\n  0x1f\n    /* \"#utility.yul\":2310:2316   */\n  dup4\n    /* \"#utility.yul\":2306:2323   */\n  add\n    /* \"#utility.yul\":2302:2329   */\n  slt\n    /* \"#utility.yul\":2292:2414   */\n  tag_171\n  jumpi\n    /* \"#utility.yul\":2333:2412   */\n  tag_172\n  tag_84\n  jump\t// in\ntag_172:\n    /* \"#utility.yul\":2292:2414   */\ntag_171:\n    /* \"#utility.yul\":2443:2449   */\n  dup2\n    /* \"#utility.yul\":2437:2450   */\n  mload\n    /* \"#utility.yul\":2468:2558   */\n  tag_173\n    /* \"#utility.yul\":2554:2557   */\n  dup5\n    /* \"#utility.yul\":2546:2552   */\n  dup3\n    /* \"#utility.yul\":2539:2543   */\n  0x20\n    /* \"#utility.yul\":2531:2537   */\n  dup7\n    /* \"#utility.yul\":2527:2544   */\n  add\n    /* \"#utility.yul\":2468:2558   */\n  tag_92\n  jump\t// in\ntag_173:\n    /* \"#utility.yul\":2459:2558   */\n  swap2\n  pop\n    /* \"#utility.yul\":2282:2564   */\n  pop\n    /* \"#utility.yul\":2209:2564   */\n  swap3\n  swap2\n  pop\n  pop\n  jump\t// out\n    /* \"#utility.yul\":2570:2696   */\ntag_94:\n    /* \"#utility.yul\":2607:2614   */\n  0x00\n    /* \"#utility.yul\":2647:2689   */\n  0xffffffffffffffffffffffffffffffffffffffff\n    /* \"#utility.yul\":2640:2645   */\n  dup3\n    /* \"#utility.yul\":2636:2690   */\n  and\n    /* \"#utility.yul\":2625:2690   */\n  swap1\n  pop\n    /* \"#utility.yul\":2570:2696   */\n  swap2\n  swap1\n  pop\n  jump\t// out\n    /* \"#utility.yul\":2702:2798   */\ntag_95:\n    /* \"#utility.yul\":2739:2746   */\n  0x00\n    /* \"#utility.yul\":2768:2792   */\n  tag_176\n    /* \"#utility.yul\":2786:2791   */\n  dup3\n    /* \"#utility.yul\":2768:2792   */\n  tag_94\n  jump\t// in\ntag_176:\n    /* \"#utility.yul\":2757:2792   */\n  swap1\n  pop\n    /* \"#utility.yul\":2702:2798   */\n  swap2\n  swap1\n  pop\n  jump\t// out\n    /* \"#utility.yul\":2804:2926   */\ntag_96:\n    /* \"#utility.yul\":2877:2901   */\n  tag_178\n    /* \"#utility.yul\":2895:2900   */\n  dup2\n    /* \"#utility.yul\":2877:2901   */\n  tag_95\n  jump\t// in\ntag_178:\n    /* \"#utility.yul\":2870:2875   */\n  dup2\n    /* \"#utility.yul\":2867:2902   */\n  eq\n    /* \"#utility.yul\":2857:2920   */\n  tag_179\n  jumpi\n    /* \"#utility.yul\":2916:2917   */\n  0x00\n    /* \"#utility.yul\":2913:2914   */\n  0x00\n    /* \"#utility.yul\":2906:2918   */\n  revert\n    /* \"#utility.yul\":2857:2920   */\ntag_179:\n    /* \"#utility.yul\":2804:2926   */\n  pop\n  jump\t// out\n    /* \"#utility.yul\":2932:3075   */\ntag_97:\n    /* \"#utility.yul\":2989:2994   */\n  0x00\n    /* \"#utility.yul\":3020:3026   */\n  dup2\n    /* \"#utility.yul\":3014:3027   */\n  mload\n    /* \"#utility.yul\":3005:3027   */\n  swap1\n  pop\n    /* \"#utility.yul\":3036:3069   */\n  tag_181\n    /* \"#utility.yul\":3063:3068   */\n  dup2\n    /* \"#utility.yul\":3036:3069   */\n  tag_96\n  jump\t// in\ntag_181:\n    /* \"#utility.yul\":2932:3075   */\n  swap3\n  swap2\n  pop\n  pop\n  jump\t// out\n    /* \"#utility.yul\":3081:4247   */\ntag_3:\n    /* \"#utility.yul\":3198:3204   */\n  0x00\n    /* \"#utility.yul\":3206:3212   */\n  0x00\n    /* \"#utility.yul\":3214:3220   */\n  0x00\n    /* \"#utility.yul\":3222:3228   */\n  0x00\n    /* \"#utility.yul\":3271:3274   */\n  0x80\n    /* \"#utility.yul\":3259:3268   */\n  dup6\n    /* \"#utility.yul\":3250:3257   */\n  dup8\n    /* \"#utility.yul\":3246:3269   */\n  sub\n    /* \"#utility.yul\":3242:3275   */\n  slt\n    /* \"#utility.yul\":3239:3359   */\n  iszero\n  tag_183\n  jumpi\n    /* \"#utility.yul\":3278:3357   */\n  tag_184\n  tag_82\n  jump\t// in\ntag_184:\n    /* \"#utility.yul\":3239:3359   */\ntag_183:\n    /* \"#utility.yul\":3419:3420   */\n  0x00\n    /* \"#utility.yul\":3408:3417   */\n  dup6\n    /* \"#utility.yul\":3404:3421   */\n  add\n    /* \"#utility.yul\":3398:3422   */\n  mload\n    /* \"#utility.yul\":3449:3467   */\n  0xffffffffffffffff\n    /* \"#utility.yul\":3441:3447   */\n  dup2\n    /* \"#utility.yul\":3438:3468   */\n  gt\n    /* \"#utility.yul\":3435:3552   */\n  iszero\n  tag_185\n  jumpi\n    /* \"#utility.yul\":3471:3550   */\n  tag_186\n  tag_83\n  jump\t// in\ntag_186:\n    /* \"#utility.yul\":3435:3552   */\ntag_185:\n    /* \"#utility.yul\":3576:3650   */\n  tag_187\n    /* \"#utility.yul\":3642:3649   */\n  dup8\n    /* \"#utility.yul\":3633:3639   */\n  dup3\n    /* \"#utility.yul\":3622:3631   */\n  dup9\n    /* \"#utility.yul\":3618:3640   */\n  add\n    /* \"#utility.yul\":3576:3650   */\n  tag_93\n  jump\t// in\ntag_187:\n    /* \"#utility.yul\":3566:3650   */\n  swap5\n  pop\n    /* \"#utility.yul\":3369:3660   */\n  pop\n    /* \"#utility.yul\":3720:3722   */\n  0x20\n    /* \"#utility.yul\":3709:3718   */\n  dup6\n    /* \"#utility.yul\":3705:3723   */\n  add\n    /* \"#utility.yul\":3699:3724   */\n  mload\n    /* \"#utility.yul\":3751:3769   */\n  0xffffffffffffffff\n    /* \"#utility.yul\":3743:3749   */\n  dup2\n    /* \"#utility.yul\":3740:3770   */\n  gt\n    /* \"#utility.yul\":3737:3854   */\n  iszero\n  tag_188\n  jumpi\n    /* \"#utility.yul\":3773:3852   */\n  tag_189\n  tag_83\n  jump\t// in\ntag_189:\n    /* \"#utility.yul\":3737:3854   */\ntag_188:\n    /* \"#utility.yul\":3878:3952   */\n  tag_190\n    /* \"#utility.yul\":3944:3951   */\n  dup8\n    /* \"#utility.yul\":3935:3941   */\n  dup3\n    /* \"#utility.yul\":3924:3933   */\n  dup9\n    /* \"#utility.yul\":3920:3942   */\n  add\n    /* \"#utility.yul\":3878:3952   */\n  tag_93\n  jump\t// in\ntag_190:\n    /* \"#utility.yul\":3868:3952   */\n  swap4\n  pop\n    /* \"#utility.yul\":3670:3962   */\n  pop\n    /* \"#utility.yul\":4001:4003   */\n  0x40\n    /* \"#utility.yul\":4027:4091   */\n  tag_191\n    /* \"#utility.yul\":4083:4090   */\n  dup8\n    /* \"#utility.yul\":4074:4080   */\n  dup3\n    /* \"#utility.yul\":4063:4072   */\n  dup9\n    /* \"#utility.yul\":4059:4081   */\n  add\n    /* \"#utility.yul\":4027:4091   */\n  tag_97\n  jump\t// in\ntag_191:\n    /* \"#utility.yul\":4017:4091   */\n  swap3\n  pop\n    /* \"#utility.yul\":3972:4101   */\n  pop\n    /* \"#utility.yul\":4140:4142   */\n  0x60\n    /* \"#utility.yul\":4166:4230   */\n  tag_192\n    /* \"#utility.yul\":4222:4229   */\n  dup8\n    /* \"#utility.yul\":4213:4219   */\n  dup3\n    /* \"#utility.yul\":4202:4211   */\n  dup9\n    /* \"#utility.yul\":4198:4220   */\n  add\n    /* \"#utility.yul\":4166:4230   */\n  tag_97\n  jump\t// in\ntag_192:\n    /* \"#utility.yul\":4156:4230   */\n  swap2\n  pop\n    /* \"#utility.yul\":4111:4240   */\n  pop\n    /* \"#utility.yul\":3081:4247   */\n  swap3\n  swap6\n  swap2\n  swap5\n  pop\n  swap3\n  pop\n  jump\t// out\n    /* \"#utility.yul\":4253:4352   */\ntag_98:\n    /* \"#utility.yul\":4305:4311   */\n  0x00\n    /* \"#utility.yul\":4339:4344   */\n  dup2\n    /* \"#utility.yul\":4333:4345   */\n  mload\n    /* \"#utility.yul\":4323:4345   */\n  swap1\n  pop\n    /* \"#utility.yul\":4253:4352   */\n  swap2\n  swap1\n  pop\n  jump\t// out\n    /* \"#utility.yul\":4358:4538   */\ntag_99:\n    /* \"#utility.yul\":4406:4483   */\n  0x4e487b7100000000000000000000000000000000000000000000000000000000\n    /* \"#utility.yul\":4403:4404   */\n  0x00\n    /* \"#utility.yul\":4396:4484   */\n  mstore\n    /* \"#utility.yul\":4503:4507   */\n  0x22\n    /* \"#utility.yul\":4500:4501   */\n  0x04\n    /* \"#utility.yul\":4493:4508   */\n  mstore\n    /* \"#utility.yul\":4527:4531   */\n  0x24\n    /* \"#utility.yul\":4524:4525   */\n  0x00\n    /* \"#utility.yul\":4517:4532   */\n  revert\n    /* \"#utility.yul\":4544:4864   */\ntag_100:\n    /* \"#utility.yul\":4588:4594   */\n  0x00\n    /* \"#utility.yul\":4625:4626   */\n  0x02\n    /* \"#utility.yul\":4619:4623   */\n  dup3\n    /* \"#utility.yul\":4615:4627   */\n  div\n    /* \"#utility.yul\":4605:4627   */\n  swap1\n  pop\n    /* \"#utility.yul\":4672:4673   */\n  0x01\n    /* \"#utility.yul\":4666:4670   */\n  dup3\n    /* \"#utility.yul\":4662:4674   */\n  and\n    /* \"#utility.yul\":4693:4711   */\n  dup1\n    /* \"#utility.yul\":4683:4764   */\n  tag_196\n  jumpi\n    /* \"#utility.yul\":4749:4753   */\n  0x7f\n    /* \"#utility.yul\":4741:4747   */\n  dup3\n    /* \"#utility.yul\":4737:4754   */\n  and\n    /* \"#utility.yul\":4727:4754   */\n  swap2\n  pop\n    /* \"#utility.yul\":4683:4764   */\ntag_196:\n    /* \"#utility.yul\":4811:4813   */\n  0x20\n    /* \"#utility.yul\":4803:4809   */\n  dup3\n    /* \"#utility.yul\":4800:4814   */\n  lt\n    /* \"#utility.yul\":4780:4798   */\n  dup2\n    /* \"#utility.yul\":4777:4815   */\n  sub\n    /* \"#utility.yul\":4774:4858   */\n  tag_197\n  jumpi\n    /* \"#utility.yul\":4830:4848   */\n  tag_198\n  tag_99\n  jump\t// in\ntag_198:\n    /* \"#utility.yul\":4774:4858   */\ntag_197:\n    /* \"#utility.yul\":4595:4864   */\n  pop\n    /* \"#utility.yul\":4544:4864   */\n  swap2\n  swap1\n  pop\n  jump\t// out\n    /* \"#utility.yul\":4870:5011   */\ntag_101:\n    /* \"#utility.yul\":4919:4923   */\n  0x00\n    /* \"#utility.yul\":4942:4945   */\n  dup2\n    /* \"#utility.yul\":4934:4945   */\n  swap1\n  pop\n    /* \"#utility.yul\":4965:4968   */\n  dup2\n    /* \"#utility.yul\":4962:4963   */\n  0x00\n    /* \"#utility.yul\":4955:4969   */\n  mstore\n    /* \"#utility.yul\":4999:5003   */\n  0x20\n    /* \"#utility.yul\":4996:4997   */\n  0x00\n    /* \"#utility.yul\":4986:5004   */\n  keccak256\n    /* \"#utility.yul\":4978:5004   */\n  swap1\n  pop\n    /* \"#utility.yul\":4870:5011   */\n  swap2\n  swap1\n  pop\n  jump\t// out\n    /* \"#utility.yul\":5017:5110   */\ntag_102:\n    /* \"#utility.yul\":5054:5060   */\n  0x00\n    /* \"#utility.yul\":5101:5103   */\n  0x20\n    /* \"#utility.yul\":5096:5098   */\n  0x1f\n    /* \"#utility.yul\":5089:5094   */\n  dup4\n    /* \"#utility.yul\":5085:5099   */\n  add\n    /* \"#utility.yul\":5081:5104   */\n  div\n    /* \"#utility.yul\":5071:5104   */\n  swap1\n  pop\n    /* \"#utility.yul\":5017:5110   */\n  swap2\n  swap1\n  pop\n  jump\t// out\n    /* \"#utility.yul\":5116:5223   */\ntag_103:\n    /* \"#utility.yul\":5160:5168   */\n  0x00\n    /* \"#utility.yul\":5210:5215   */\n  dup3\n    /* \"#utility.yul\":5204:5208   */\n  dup3\n    /* \"#utility.yul\":5200:5216   */\n  shl\n    /* \"#utility.yul\":5179:5216   */\n  swap1\n  pop\n    /* \"#utility.yul\":5116:5223   */\n  swap3\n  swap2\n  pop\n  pop\n  jump\t// out\n    /* \"#utility.yul\":5229:5622   */\ntag_104:\n    /* \"#utility.yul\":5298:5304   */\n  0x00\n    /* \"#utility.yul\":5348:5349   */\n  0x08\n    /* \"#utility.yul\":5336:5346   */\n  dup4\n    /* \"#utility.yul\":5332:5350   */\n  mul\n    /* \"#utility.yul\":5371:5468   */\n  tag_203\n    /* \"#utility.yul\":5401:5467   */\n  0xffffffffffffffffffffffffffffffffffffffffffffffffffffffffffffffff\n    /* \"#utility.yul\":5390:5399   */\n  dup3\n    /* \"#utility.yul\":5371:5468   */\n  tag_103\n  jump\t// in\ntag_203:\n    /* \"#utility.yul\":5489:5528   */\n  tag_204\n    /* \"#utility.yul\":5519:5527   */\n  dup7\n    /* \"#utility.yul\":5508:5517   */\n  dup4\n    /* \"#utility.yul\":5489:5528   */\n  tag_103\n  jump\t// in\ntag_204:\n    /* \"#utility.yul\":5477:5528   */\n  swap6\n  pop\n    /* \"#utility.yul\":5561:5565   */\n  dup1\n    /* \"#utility.yul\":5557:5566   */\n  not\n    /* \"#utility.yul\":5550:5555   */\n  dup5\n    /* \"#utility.yul\":5546:5567   */\n  and\n    /* \"#utility.yul\":5537:5567   */\n  swap4\n  pop\n    /* \"#utility.yul\":5610:5614   */\n  dup1\n    /* \"#utility.yul\":5600:5608   */\n  dup7\n    /* \"#utility.yul\":5596:5615   */\n  and\n    /* \"#utility.yul\":5589:5594   */\n  dup5\n    /* \"#utility.yul\":5586:5616   */\n  or\n    /* \"#utility.yul\":5576:5616   */\n  swap3\n  pop\n    /* \"#utility.yul\":5305:5622   */\n  pop\n  pop\n    /* \"#utility.yul\":5229:5622   */\n  swap4\n  swap3\n  pop\n  pop\n  pop\n  jump\t// out\n    /* \"#utility.yul\":5628:5705   */\ntag_105:\n    /* \"#utility.yul\":5665:5672   */\n  0x00\n    /* \"#utility.yul\":5694:5699   */\n  dup2\n    /* \"#utility.yul\":5683:5699   */\n  swap1\n  pop\n    /* \"#utility.yul\":5628:5705   */\n  swap2\n  swap1\n  pop\n  jump\t// out\n    /* \"#utility.yul\":5711:5771   */\ntag_106:\n    /* \"#utility.yul\":5739:5742   */\n  0x00\n    /* \"#utility.yul\":5760:5765   */\n  dup2\n    /* \"#utility.yul\":5753:5765   */\n  swap1\n  pop\n    /* \"#utility.yul\":5711:5771   */\n  swap2\n  swap1\n  pop\n  jump\t// out\n    /* \"#utility.yul\":5777:5919   */\ntag_107:\n    /* \"#utility.yul\":5827:5836   */\n  0x00\n    /* \"#utility.yul\":5860:5913   */\n  tag_208\n    /* \"#utility.yul\":5878:5912   */\n  tag_209\n    /* \"#utility.yul\":5887:5911   */\n  tag_210\n    /* \"#utility.yul\":5905:5910   */\n  dup5\n    /* \"#utility.yul\":5887:5911   */\n  tag_105\n  jump\t// in\ntag_210:\n    /* \"#utility.yul\":5878:5912   */\n  tag_106\n  jump\t// in\ntag_209:\n    /* \"#utility.yul\":5860:5913   */\n  tag_105\n  jump\t// in\ntag_208:\n    /* \"#utility.yul\":5847:5913   */\n  swap1\n  pop\n    /* \"#utility.yul\":5777:5919   */\n  swap2\n  swap1\n  pop\n  jump\t// out\n    /* \"#utility.yul\":5925:6000   */\ntag_108:\n    /* \"#utility.yul\":5968:5971   */\n  0x00\n    /* \"#utility.yul\":5989:5994   */\n  dup2\n    /* \"#utility.yul\":5982:5994   */\n  swap1\n  pop\n    /* \"#utility.yul\":5925:6000   */\n  swap2\n  swap1\n  pop\n  jump\t// out\n    /* \"#utility.yul\":6006:6275   */\ntag_109:\n    /* \"#utility.yul\":6116:6155   */\n  tag_213\n    /* \"#utility.yul\":6147:6154   */\n  dup4\n    /* \"#utility.yul\":6116:6155   */\n  tag_107\n  jump\t// in\ntag_213:\n    /* \"#utility.yul\":6177:6268   */\n  tag_214\n    /* \"#utility.yul\":6226:6267   */\n  tag_215\n    /* \"#utility.yul\":6250:6266   */\n  dup3\n    /* \"#utility.yul\":6226:6267   */\n  tag_108\n  jump\t// in\ntag_215:\n    /* \"#utility.yul\":6218:6224   */\n  dup5\n    /* \"#utility.yul\":6211:6215   */\n  dup5\n    /* \"#utility.yul\":6205:6216   */\n  sload\n    /* \"#utility.yul\":6177:6268   */\n  tag_104\n  jump\t// in\ntag_214:\n    /* \"#utility.yul\":6171:6175   */\n  dup3\n    /* \"#utility.yul\":6164:6269   */\n  sstore\n    /* \"#utility.yul\":6082:6275   */\n  pop\n    /* \"#utility.yul\":6006:6275   */\n  pop\n  pop\n  pop\n  jump\t// out\n    /* \"#utility.yul\":6281:6354   */\ntag_110:\n    /* \"#utility.yul\":6326:6329   */\n  0x00\n    /* \"#utility.yul\":6347:6348   */\n  0x00\n    /* \"#utility.yul\":6340:6348   */\n  swap1\n  pop\n    /* \"#utility.yul\":6281:6354   */\n  swap1\n  jump\t// out\n    /* \"#utility.yul\":6360:6549   */\ntag_111:\n    /* \"#utility.yul\":6437:6469   */\n  tag_218\n  tag_110\n  jump\t// in\ntag_218:\n    /* \"#utility.yul\":6478:6543   */\n  tag_219\n    /* \"#utility.yul\":6536:6542   */\n  dup2\n    /* \"#utility.yul\":6528:6534   */\n  dup5\n    /* \"#utility.yul\":6522:6526   */\n  dup5\n    /* \"#utility.yul\":6478:6543   */\n  tag_109\n  jump\t// in\ntag_219:\n    /* \"#utility.yul\":6413:6549   */\n  pop\n    /* \"#utility.yul\":6360:6549   */\n  pop\n  pop\n  jump\t// out\n    /* \"#utility.yul\":6555:6741   */\ntag_112:\n    /* \"#utility.yul\":6615:6735   */\ntag_221:\n    /* \"#utility.yul\":6632:6635   */\n  dup2\n    /* \"#utility.yul\":6625:6630   */\n  dup2\n    /* \"#utility.yul\":6622:6636   */\n  lt\n    /* \"#utility.yul\":6615:6735   */\n  iszero\n  tag_223\n  jumpi\n    /* \"#utility.yul\":6686:6725   */\n  tag_224\n    /* \"#utility.yul\":6723:6724   */\n  0x00\n    /* \"#utility.yul\":6716:6721   */\n  dup3\n    /* \"#utility.yul\":6686:6725   */\n  tag_111\n  jump\t// in\ntag_224:\n    /* \"#utility.yul\":6659:6660   */\n  0x01\n    /* \"#utility.yul\":6652:6657   */\n  dup2\n    /* \"#utility.yul\":6648:6661   */\n  add\n    /* \"#utility.yul\":6639:6661   */\n  swap1\n  pop\n    /* \"#utility.yul\":6615:6735   */\n  jump(tag_221)\ntag_223:\n    /* \"#utility.yul\":6555:6741   */\n  pop\n  pop\n  jump\t// out\n    /* \"#utility.yul\":6747:7290   */\ntag_113:\n    /* \"#utility.yul\":6848:6850   */\n  0x1f\n    /* \"#utility.yul\":6843:6846   */\n  dup3\n    /* \"#utility.yul\":6840:6851   */\n  gt\n    /* \"#utility.yul\":6837:7283   */\n  iszero\n  tag_226\n  jumpi\n    /* \"#utility.yul\":6882:6920   */\n  tag_227\n    /* \"#utility.yul\":6914:6919   */\n  dup2\n    /* \"#utility.yul\":6882:6920   */\n  tag_101\n  jump\t// in\ntag_227:\n    /* \"#utility.yul\":6966:6995   */\n  tag_228\n    /* \"#utility.yul\":6984:6994   */\n  dup5\n    /* \"#utility.yul\":6966:6995   */\n  tag_102\n  jump\t// in\ntag_228:\n    /* \"#utility.yul\":6956:6964   */\n  dup2\n    /* \"#utility.yul\":6952:6996   */\n  add\n    /* \"#utility.yul\":7149:7151   */\n  0x20\n    /* \"#utility.yul\":7137:7147   */\n  dup6\n    /* \"#utility.yul\":7134:7152   */\n  lt\n    /* \"#utility.yul\":7131:7180   */\n  iszero\n  tag_229\n  jumpi\n    /* \"#utility.yul\":7170:7178   */\n  dup2\n    /* \"#utility.yul\":7155:7178   */\n  swap1\n  pop\n    /* \"#utility.yul\":7131:7180   */\ntag_229:\n    /* \"#utility.yul\":7193:7273   */\n  tag_230\n    /* \"#utility.yul\":7249:7271   */\n  tag_231\n    /* \"#utility.yul\":7267:7270   */\n  dup6\n    /* \"#utility.yul\":7249:7271   */\n  tag_102\n  jump\t// in\ntag_231:\n    /* \"#utility.yul\":7239:7247   */\n  dup4\n    /* \"#utility.yul\":7235:7272   */\n  add\n    /* \"#utility.yul\":7222:7233   */\n  dup3\n    /* \"#utility.yul\":7193:7273   */\n  tag_112\n  jump\t// in\ntag_230:\n    /* \"#utility.yul\":6852:7283   */\n  pop\n  pop\n    /* \"#utility.yul\":6837:7283   */\ntag_226:\n    /* \"#utility.yul\":6747:7290   */\n  pop\n  pop\n  pop\n  jump\t// out\n    /* \"#utility.yul\":7296:7413   */\ntag_114:\n    /* \"#utility.yul\":7350:7358   */\n  0x00\n    /* \"#utility.yul\":7400:7405   */\n  dup3\n    /* \"#utility.yul\":7394:7398   */\n  dup3\n    /* \"#utility.yul\":7390:7406   */\n  shr\n    /* \"#utility.yul\":7369:7406   */\n  swap1\n  pop\n    /* \"#utility.yul\":7296:7413   */\n  swap3\n  swap2\n  pop\n  pop\n  jump\t// out\n    /* \"#utility.yul\":7419:7588   */\ntag_115:\n    /* \"#utility.yul\":7463:7469   */\n  0x00\n    /* \"#utility.yul\":7496:7547   */\n  tag_234\n    /* \"#utility.yul\":7544:7545   */\n  0x00\n    /* \"#utility.yul\":7540:7546   */\n  not\n    /* \"#utility.yul\":7532:7537   */\n  dup5\n    /* \"#utility.yul\":7529:7530   */\n  0x08\n    /* \"#utility.yul\":7525:7538   */\n  mul\n    /* \"#utility.yul\":7496:7547   */\n  tag_114\n  jump\t// in\ntag_234:\n    /* \"#utility.yul\":7492:7548   */\n  not\n    /* \"#utility.yul\":7577:7581   */\n  dup1\n    /* \"#utility.yul\":7571:7575   */\n  dup4\n    /* \"#utility.yul\":7567:7582   */\n  and\n    /* \"#utility.yul\":7557:7582   */\n  swap2\n  pop\n    /* \"#utility.yul\":7470:7588   */\n  pop\n    /* \"#utility.yul\":7419:7588   */\n  swap3\n  swap2\n  pop\n  pop\n  jump\t// out\n    /* \"#utility.yul\":7593:7888   */\ntag_116:\n    /* \"#utility.yul\":7669:7673   */\n  0x00\n    /* \"#utility.yul\":7815:7844   */\n  tag_236\n    /* \"#utility.yul\":7840:7843   */\n  dup4\n    /* \"#utility.yul\":7834:7838   */\n  dup4\n    /* \"#utility.yul\":7815:7844   */\n  tag_115\n  jump\t// in\ntag_236:\n    /* \"#utility.yul\":7807:7844   */\n  swap2\n  pop\n    /* \"#utility.yul\":7877:7880   */\n  dup3\n    /* \"#utility.yul\":7874:7875   */\n  0x02\n    /* \"#utility.yul\":7870:7881   */\n  mul\n    /* \"#utility.yul\":7864:7868   */\n  dup3\n    /* \"#utility.yul\":7861:7882   */\n  or\n    /* \"#utility.yul\":7853:7882   */\n  swap1\n  pop\n    /* \"#utility.yul\":7593:7888   */\n  swap3\n  swap2\n  pop\n  pop\n  jump\t// out\n    /* \"#utility.yul\":7893:9288   */\ntag_9:\n    /* \"#utility.yul\":8010:8047   */\n  tag_238\n    /* \"#utility.yul\":8043:8046   */\n  dup3\n    /* \"#utility.yul\":8010:8047   */\n  tag_98\n  jump\t// in\ntag_238:\n    /* \"#utility.yul\":8112:8130   */\n  0xffffffffffffffff\n    /* \"#utility.yul\":8104:8110   */\n  dup2\n    /* \"#utility.yul\":8101:8131   */\n  gt\n    /* \"#utility.yul\":8098:8154   */\n  iszero\n  tag_239\n  jumpi\n    /* \"#utility.yul\":8134:8152   */\n  tag_240\n  tag_87\n  jump\t// in\ntag_240:\n    /* \"#utility.yul\":8098:8154   */\ntag_239:\n    /* \"#utility.yul\":8178:8216   */\n  tag_241\n    /* \"#utility.yul\":8210:8214   */\n  dup3\n    /* \"#utility.yul\":8204:8215   */\n  sload\n    /* \"#utility.yul\":8178:8216   */\n  tag_100\n  jump\t// in\ntag_241:\n    /* \"#utility.yul\":8263:8330   */\n  tag_242\n    /* \"#utility.yul\":8323:8329   */\n  dup3\n    /* \"#utility.yul\":8315:8321   */\n  dup3\n    /* \"#utility.yul\":8309:8313   */\n  dup6\n    /* \"#utility.yul\":8263:8330   */\n  tag_113\n  jump\t// in\ntag_242:\n    /* \"#utility.yul\":8357:8358   */\n  0x00\n    /* \"#utility.yul\":8381:8385   */\n  0x20\n    /* \"#utility.yul\":8368:8385   */\n  swap1\n  pop\n    /* \"#utility.yul\":8413:8415   */\n  0x1f\n    /* \"#utility.yul\":8405:8411   */\n  dup4\n    /* \"#utility.yul\":8402:8416   */\n  gt\n    /* \"#utility.yul\":8430:8431   */\n  0x01\n    /* \"#utility.yul\":8425:9043   */\n  dup2\n  eq\n  tag_244\n  jumpi\n    /* \"#utility.yul\":9087:9088   */\n  0x00\n    /* \"#utility.yul\":9104:9110   */\n  dup5\n    /* \"#utility.yul\":9101:9178   */\n  iszero\n  tag_245\n  jumpi\n    /* \"#utility.yul\":9153:9162   */\n  dup3\n    /* \"#utility.yul\":9148:9151   */\n  dup8\n    /* \"#utility.yul\":9144:9163   */\n  add\n    /* \"#utility.yul\":9138:9164   */\n  mload\n    /* \"#utility.yul\":9129:9164   */\n  swap1\n  pop\n    /* \"#utility.yul\":9101:9178   */\ntag_245:\n    /* \"#utility.yul\":9204:9271   */\n  tag_246\n    /* \"#utility.yul\":9264:9270   */\n  dup6\n    /* \"#utility.yul\":9257:9262   */\n  dup3\n    /* \"#utility.yul\":9204:9271   */\n  tag_116\n  jump\t// in\ntag_246:\n    /* \"#utility.yul\":9198:9202   */\n  dup7\n    /* \"#utility.yul\":9191:9272   */\n  sstore\n    /* \"#utility.yul\":9060:9282   */\n  pop\n    /* \"#utility.yul\":8395:9282   */\n  jump(tag_243)\n    /* \"#utility.yul\":8425:9043   */\ntag_244:\n    /* \"#utility.yul\":8477:8481   */\n  0x1f\n    /* \"#utility.yul\":8473:8482   */\n  not\n    /* \"#utility.yul\":8465:8471   */\n  dup5\n    /* \"#utility.yul\":8461:8483   */\n  and\n    /* \"#utility.yul\":8511:8548   */\n  tag_247\n    /* \"#utility.yul\":8543:8547   */\n  dup7\n    /* \"#utility.yul\":8511:8548   */\n  tag_101\n  jump\t// in\ntag_247:\n    /* \"#utility.yul\":8570:8571   */\n  0x00\n    /* \"#utility.yul\":8584:8792   */\ntag_248:\n    /* \"#utility.yul\":8598:8605   */\n  dup3\n    /* \"#utility.yul\":8595:8596   */\n  dup2\n    /* \"#utility.yul\":8592:8606   */\n  lt\n    /* \"#utility.yul\":8584:8792   */\n  iszero\n  tag_250\n  jumpi\n    /* \"#utility.yul\":8677:8686   */\n  dup5\n    /* \"#utility.yul\":8672:8675   */\n  dup10\n    /* \"#utility.yul\":8668:8687   */\n  add\n    /* \"#utility.yul\":8662:8688   */\n  mload\n    /* \"#utility.yul\":8654:8660   */\n  dup3\n    /* \"#utility.yul\":8647:8689   */\n  sstore\n    /* \"#utility.yul\":8728:8729   */\n  0x01\n    /* \"#utility.yul\":8720:8726   */\n  dup3\n    /* \"#utility.yul\":8716:8730   */\n  add\n    /* \"#utility.yul\":8706:8730   */\n  swap2\n  pop\n    /* \"#utility.yul\":8775:8777   */\n  0x20\n    /* \"#utility.yul\":8764:8773   */\n  dup6\n    /* \"#utility.yul\":8760:8778   */\n  add\n    /* \"#utility.yul\":8747:8778   */\n  swap5\n  pop\n    /* \"#utility.yul\":8621:8625   */\n  0x20\n    /* \"#utility.yul\":8618:8619   */\n  dup2\n    /* \"#utility.yul\":8614:8626   */\n  add\n    /* \"#utility.yul\":8609:8626   */\n  swap1\n  pop\n    /* \"#utility.yul\":8584:8792   */\n  jump(tag_248)\ntag_250:\n    /* \"#utility.yul\":8820:8826   */\n  dup7\n    /* \"#utility.yul\":8811:8818   */\n  dup4\n    /* \"#utility.yul\":8808:8827   */\n  lt\n    /* \"#utility.yul\":8805:8984   */\n  iszero\n  tag_251\n  jumpi\n    /* \"#utility.yul\":8878:8887   */\n  dup5\n    /* \"#utility.yul\":8873:8876   */\n  dup10\n    /* \"#utility.yul\":8869:8888   */\n  add\n    /* \"#utility.yul\":8863:8889   */\n  mload\n    /* \"#utility.yul\":8921:8969   */\n  tag_252\n    /* \"#utility.yul\":8963:8967   */\n  0x1f\n    /* \"#utility.yul\":8955:8961   */\n  dup10\n    /* \"#utility.yul\":8951:8968   */\n  and\n    /* \"#utility.yul\":8940:8949   */\n  dup3\n    /* \"#utility.yul\":8921:8969   */\n  tag_115\n  jump\t// in\ntag_252:\n    /* \"#utility.yul\":8913:8919   */\n  dup4\n    /* \"#utility.yul\":8906:8970   */\n  sstore\n    /* \"#utility.yul\":8828:8984   */\n  pop\n    /* \"#utility.yul\":8805:8984   */\ntag_251:\n    /* \"#utility.yul\":9030:9031   */\n  0x01\n    /* \"#utility.yul\":9026:9027   */\n  0x02\n    /* \"#utility.yul\":9018:9024   */\n  dup9\n    /* \"#utility.yul\":9014:9028   */\n  mul\n    /* \"#utility.yul\":9010:9032   */\n  add\n    /* \"#utility.yul\":9004:9008   */\n  dup9\n    /* \"#utility.yul\":8997:9033   */\n  sstore\n    /* \"#utility.yul\":8432:9043   */\n  pop\n  pop\n  pop\n    /* \"#utility.yul\":8395:9282   */\ntag_243:\n  pop\n    /* \"#utility.yul\":7985:9288   */\n  pop\n  pop\n  pop\n    /* \"#utility.yul\":7893:9288   */\n  pop\n  pop\n  jump\t// out\n    /* \"#utility.yul\":9294:9412   */\ntag_117:\n    /* \"#utility.yul\":9381:9405   */\n  tag_254\n    /* \"#utility.yul\":9399:9404   */\n  dup2\n    /* \"#utility.yul\":9381:9405   */\n  tag_95\n  jump\t// in\ntag_254:\n    /* \"#utility.yul\":9376:9379   */\n  dup3\n    /* \"#utility.yul\":9369:9406   */\n  mstore\n    /* \"#utility.yul\":9294:9412   */\n  pop\n  pop\n  jump\t// out\n    /* \"#utility.yul\":9418:9640   */\ntag_29:\n    /* \"#utility.yul\":9511:9515   */\n  0x00\n    /* \"#utility.yul\":9549:9551   */\n  0x20\n    /* \"#utility.yul\":9538:9547   */\n  dup3\n    /* \"#utility.yul\":9534:9552   */\n  add\n    /* \"#utility.yul\":9526:9552   */\n  swap1\n  pop\n    /* \"#utility.yul\":9562:9633   */\n  tag_256\n    /* \"#utility.yul\":9630:9631   */\n  0x00\n    /* \"#utility.yul\":9619:9628   */\n  dup4\n    /* \"#utility.yul\":9615:9632   */\n  add\n    /* \"#utility.yul\":9606:9612   */\n  dup5\n    /* \"#utility.yul\":9562:9633   */\n  tag_117\n  jump\t// in\ntag_256:\n    /* \"#utility.yul\":9418:9640   */\n  swap3\n  swap2\n  pop\n  pop\n  jump\t// out\n    /* \"#utility.yul\":9646:9815   */\ntag_118:\n    /* \"#utility.yul\":9730:9741   */\n  0x00\n    /* \"#utility.yul\":9764:9770   */\n  dup3\n    /* \"#utility.yul\":9759:9762   */\n  dup3\n    /* \"#utility.yul\":9752:9771   */\n  mstore\n    /* \"#utility.yul\":9804:9808   */\n  0x20\n    /* \"#utility.yul\":9799:9802   */\n  dup3\n    /* \"#utility.yul\":9795:9809   */\n  add\n    /* \"#utility.yul\":9780:9809   */\n  swap1\n  pop\n    /* \"#utility.yul\":9646:9815   */\n  swap3\n  swap2\n  pop\n  pop\n  jump\t// out\n    /* \"#utility.yul\":9821:9977   */\ntag_119:\n    /* \"#utility.yul\":9961:9969   */\n  0x7061757365640000000000000000000000000000000000000000000000000000\n    /* \"#utility.yul\":9957:9958   */\n  0x00\n    /* \"#utility.yul\":9949:9955   */\n  dup3\n    /* \"#utility.yul\":9945:9959   */\n  add\n    /* \"#utility.yul\":9938:9970   */\n  mstore\n    /* \"#utility.yul\":9821:9977   */\n  pop\n  jump\t// out\n    /* \"#utility.yul\":9983:10348   */\ntag_120:\n    /* \"#utility.yul\":10125:10128   */\n  0x00\n    /* \"#utility.yul\":10146:10212   */\n  tag_260\n    /* \"#utility.yul\":10210:10211   */\n  0x06\n    /* \"#utility.yul\":10205:10208   */\n  dup4\n    /* \"#utility.yul\":10146:10212   */\n  tag_118\n  jump\t// in\ntag_260:\n    /* \"#utility.yul\":10139:10212   */\n  swap2\n  pop\n    /* \"#utility.yul\":10221:10314   */\n  tag_261\n    /* \"#utility.yul\":10310:10313   */\n  dup3\n    /* \"#utility.yul\":10221:10314   */\n  tag_119\n  jump\t// in\ntag_261:\n    /* \"#utility.yul\":10339:10341   */\n  0x20\n    /* \"#utility.yul\":10334:10337   */\n  dup3\n    /* \"#utility.yul\":10330:10342   */\n  add\n    /* \"#utility.yul\":10323:10342   */\n  swap1\n  pop\n    /* \"#utility.yul\":9983:10348   */\n  swap2\n  swap1\n  pop\n  jump\t// out\n    /* \"#utility.yul\":10354:10773   */\ntag_39:\n    /* \"#utility.yul\":10520:10524   */\n  0x00\n    /* \"#utility.yul\":10558:10560   */\n  0x20\n    /* \"#utility.yul\":10547:10556   */\n  dup3\n    /* \"#utility.yul\":10543:10561   */\n  add\n    /* \"#utility.yul\":10535:10561   */\n  swap1\n  pop\n    /* \"#utility.yul\":10607:10616   */\n  dup2\n    /* \"#utility.yul\":10601:10605   */\n  dup2\n    /* \"#utility.yul\":10597:10617   */\n  sub\n    /* \"#utility.yul\":10593:10594   */\n  0x00\n    /* \"#utility.yul\":10582:10591   */\n  dup4\n    /* \"#utility.yul\":10578:10595   */\n  add\n    /* \"#utility.yul\":10571:10618   */\n  mstore\n    /* \"#utility.yul\":10635:10766   */\n  tag_263\n    /* \"#utility.yul\":10761:10765   */\n  dup2\n    /* \"#utility.yul\":10635:10766   */\n  tag_120\n  jump\t// in\ntag_263:\n    /* \"#utility.yul\":10627:10766   */\n  swap1\n  pop\n    /* \"#utility.yul\":10354:10773   */\n  swap2\n  swap1\n  pop\n  jump\t// out\n    /* \"#utility.yul\":10779:10897   */\ntag_121:\n    /* \"#utility.yul\":10866:10890   */\n  tag_265\n    /* \"#utility.yul\":10884:10889   */\n  dup2\n    /* \"#utility.yul\":10866:10890   */\n  tag_105\n  jump\t// in\ntag_265:\n    /* \"#utility.yul\":10861:10864   */\n  dup3\n    /* \"#utility.yul\":10854:10891   */\n  mstore\n    /* \"#utility.yul\":10779:10897   */\n  pop\n  pop\n  jump\t// out\n    /* \"#utility.yul\":10903:11071   */\ntag_122:\n    /* \"#utility.yul\":10986:10997   */\n  0x00\n    /* \"#utility.yul\":11020:11026   */\n  dup3\n    /* \"#utility.yul\":11015:11018   */\n  dup3\n    /* \"#utility.yul\":11008:11027   */\n  mstore\n    /* \"#utility.yul\":11060:11064   */\n  0x20\n    /* \"#utility.yul\":11055:11058   */\n  dup3\n    /* \"#utility.yul\":11051:11065   */\n  add\n    /* \"#utility.yul\":11036:11065   */\n  swap1\n  pop\n    /* \"#utility.yul\":10903:11071   */\n  swap3\n  swap2\n  pop\n  pop\n  jump\t// out\n    /* \"#utility.yul\":11077:11191   */\ntag_123:\n  pop\n  jump\t// out\n    /* \"#utility.yul\":11197:11559   */\ntag_124:\n    /* \"#utility.yul\":11338:11341   */\n  0x00\n    /* \"#utility.yul\":11359:11424   */\n  tag_269\n    /* \"#utility.yul\":11422:11423   */\n  0x00\n    /* \"#utility.yul\":11417:11420   */\n  dup4\n    /* \"#utility.yul\":11359:11424   */\n  tag_122\n  jump\t// in\ntag_269:\n    /* \"#utility.yul\":11352:11424   */\n  swap2\n  pop\n    /* \"#utility.yul\":11433:11526   */\n  tag_270\n    /* \"#utility.yul\":11522:11525   */\n  dup3\n    /* \"#utility.yul\":11433:11526   */\n  tag_123\n  jump\t// in\ntag_270:\n    /* \"#utility.yul\":11551:11552   */\n  0x00\n    /* \"#utility.yul\":11546:11549   */\n  dup3\n    /* \"#utility.yul\":11542:11553   */\n  add\n    /* \"#utility.yul\":11535:11553   */\n  swap1\n  pop\n    /* \"#utility.yul\":11197:11559   */\n  swap2\n  swap1\n  pop\n  jump\t// out\n    /* \"#utility.yul\":11565:12313   */\ntag_43:\n    /* \"#utility.yul\":11814:11818   */\n  0x00\n    /* \"#utility.yul\":11852:11855   */\n  0x80\n    /* \"#utility.yul\":11841:11850   */\n  dup3\n    /* \"#utility.yul\":11837:11856   */\n  add\n    /* \"#utility.yul\":11829:11856   */\n  swap1\n  pop\n    /* \"#utility.yul\":11866:11937   */\n  tag_272\n    /* \"#utility.yul\":11934:11935   */\n  0x00\n    /* \"#utility.yul\":11923:11932   */\n  dup4\n    /* \"#utility.yul\":11919:11936   */\n  add\n    /* \"#utility.yul\":11910:11916   */\n  dup7\n    /* \"#utility.yul\":11866:11937   */\n  tag_117\n  jump\t// in\ntag_272:\n    /* \"#utility.yul\":11947:12019   */\n  tag_273\n    /* \"#utility.yul\":12015:12017   */\n  0x20\n    /* \"#utility.yul\":12004:12013   */\n  dup4\n    /* \"#utility.yul\":12000:12018   */\n  add\n    /* \"#utility.yul\":11991:11997   */\n  dup6\n    /* \"#utility.yul\":11947:12019   */\n  tag_117\n  jump\t// in\ntag_273:\n    /* \"#utility.yul\":12029:12101   */\n  tag_274\n    /* \"#utility.yul\":12097:12099   */\n  0x40\n    /* \"#utility.yul\":12086:12095   */\n  dup4\n    /* \"#utility.yul\":12082:12100   */\n  add\n    /* \"#utility.yul\":12073:12079   */\n  dup5\n    /* \"#utility.yul\":12029:12101   */\n  tag_121\n  jump\t// in\ntag_274:\n    /* \"#utility.yul\":12148:12157   */\n  dup2\n    /* \"#utility.yul\":12142:12146   */\n  dup2\n    /* \"#utility.yul\":12138:12158   */\n  sub\n    /* \"#utility.yul\":12133:12135   */\n  0x60\n    /* \"#utility.yul\":12122:12131   */\n  dup4\n    /* \"#utility.yul\":12118:12136   */\n  add\n    /* \"#utility.yul\":12111:12159   */\n  mstore\n    /* \"#utility.yul\":12176:12306   */\n  tag_275\n    /* \"#utility.yul\":12301:12305   */\n  dup2\n    /* \"#utility.yul\":12176:12306   */\n  tag_124\n  jump\t// in\ntag_275:\n    /* \"#utility.yul\":12168:12306   */\n  swap1\n  pop\n    /* \"#utility.yul\":11565:12313   */\n  swap5\n  swap4\n  pop\n  pop\n  pop\n  pop\n  jump\t// out\n    /* \"#utility.yul\":12319:12409   */\ntag_125:\n    /* \"#utility.yul\":12353:12360   */\n  0x00\n    /* \"#utility.yul\":12396:12401   */\n  dup2\n    /* \"#utility.yul\":12389:12402   */\n  iszero\n    /* \"#utility.yul\":12382:12403   */\n  iszero\n    /* \"#utility.yul\":12371:12403   */\n  swap1\n  pop\n    /* \"#utility.yul\":12319:12409   */\n  swap2\n  swap1\n  pop\n  jump\t// out\n    /* \"#utility.yul\":12415:12531   */\ntag_126:\n    /* \"#utility.yul\":12485:12506   */\n  tag_278\n    /* \"#utility.yul\":12500:12505   */\n  dup2\n    /* \"#utility.yul\":12485:12506   */\n  tag_125\n  jump\t// in\ntag_278:\n    /* \"#utility.yul\":12478:12483   */\n  dup2\n    /* \"#utility.yul\":12475:12507   */\n  eq\n    /* \"#utility.yul\":12465:12525   */\n  tag_279\n  jumpi\n    /* \"#utility.yul\":12521:12522   */\n  0x00\n    /* \"#utility.yul\":12518:12519   */\n  0x00\n    /* \"#utility.yul\":12511:12523   */\n  revert\n    /* \"#utility.yul\":12465:12525   */\ntag_279:\n    /* \"#utility.yul\":12415:12531   */\n  pop\n  jump\t// out\n    /* \"#utility.yul\":12537:12674   */\ntag_127:\n    /* \"#utility.yul\":12591:12596   */\n  0x00\n    /* \"#utility.yul\":12622:12628   */\n  dup2\n    /* \"#utility.yul\":12616:12629   */\n  mload\n    /* \"#utility.yul\":12607:12629   */\n  swap1\n  pop\n    /* \"#utility.yul\":12638:12668   */\n  tag_281\n    /* \"#utility.yul\":12662:12667   */\n  dup2\n    /* \"#utility.yul\":12638:12668   */\n  tag_126\n  jump\t// in\ntag_281:\n    /* \"#utility.yul\":12537:12674   */\n  swap3\n  swap2\n  pop\n  pop\n  jump\t// out\n    /* \"#utility.yul\":12680:12802   */\ntag_128:\n    /* \"#utility.yul\":12753:12777   */\n  tag_283\n    /* \"#utility.yul\":12771:12776   */\n  dup2\n    /* \"#utility.yul\":12753:12777   */\n  tag_105\n  jump\t// in\ntag_283:\n    /* \"#utility.yul\":12746:12751   */\n  dup2\n    /* \"#utility.yul\":12743:12778   */\n  eq\n    /* \"#utility.yul\":12733:12796   */\n  tag_284\n  jumpi\n    /* \"#utility.yul\":12792:12793   */\n  0x00\n    /* \"#utility.yul\":12789:12790   */\n  0x00\n    /* \"#utility.yul\":12782:12794   */\n  revert\n    /* \"#utility.yul\":12733:12796   */\ntag_284:\n    /* \"#utility.yul\":12680:12802   */\n  pop\n  jump\t// out\n    /* \"#utility.yul\":12808:12951   */\ntag_129:\n    /* \"#utility.yul\":12865:12870   */\n  0x00\n    /* \"#utility.yul\":12896:12902   */\n  dup2\n    /* \"#utility.yul\":12890:12903   */\n  mload\n    /* \"#utility.yul\":12881:12903   */\n  swap1\n  pop\n    /* \"#utility.yul\":12912:12945   */\n  tag_286\n    /* \"#utility.yul\":12939:12944   */\n  dup2\n    /* \"#utility.yul\":12912:12945   */\n  tag_128\n  jump\t// in\ntag_286:\n    /* \"#utility.yul\":12808:12951   */\n  swap3\n  swap2\n  pop\n  pop\n  jump\t// out\n    /* \"#utility.yul\":12957:13458   */\ntag_47:\n    /* \"#utility.yul\":13033:13039   */\n  0x00\n    /* \"#utility.yul\":13041:13047   */\n  0x00\n    /* \"#utility.yul\":13090:13092   */\n  0x40\n    /* \"#utility.yul\":13078:13087   */\n  dup4\n    /* \"#utility.yul\":13069:13076   */\n  dup6\n    /* \"#utility.yul\":13065:13088   */\n  sub\n    /* \"#utility.yul\":13061:13093   */\n  slt\n    /* \"#utility.yul\":13058:13177   */\n  iszero\n  tag_288\n  jumpi\n    /* \"#utility.yul\":13096:13175   */\n  tag_289\n  tag_82\n  jump\t// in\ntag_289:\n    /* \"#utility.yul\":13058:13177   */\ntag_288:\n    /* \"#utility.yul\":13216:13217   */\n  0x00\n    /* \"#utility.yul\":13241:13302   */\n  tag_290\n    /* \"#utility.yul\":13294:13301   */\n  dup6\n    /* \"#utility.yul\":13285:13291   */\n  dup3\n    /* \"#utility.yul\":13274:13283   */\n  dup7\n    /* \"#utility.yul\":13270:13292   */\n  add\n    /* \"#utility.yul\":13241:13302   */\n  tag_127\n  jump\t// in\ntag_290:\n    /* \"#utility.yul\":13231:13302   */\n  swap3\n  pop\n    /* \"#utility.yul\":13187:13312   */\n  pop\n    /* \"#utility.yul\":13351:13353   */\n  0x20\n    /* \"#utility.yul\":13377:13441   */\n  tag_291\n    /* \"#utility.yul\":13433:13440   */\n  dup6\n    /* \"#utility.yul\":13424:13430   */\n  dup3\n    /* \"#utility.yul\":13413:13422   */\n  dup7\n    /* \"#utility.yul\":13409:13431   */\n  add\n    /* \"#utility.yul\":13377:13441   */\n  tag_129\n  jump\t// in\ntag_291:\n    /* \"#utility.yul\":13367:13441   */\n  swap2\n  pop\n    /* \"#utility.yul\":13322:13451   */\n  pop\n    /* \"#utility.yul\":12957:13458   */\n  swap3\n  pop\n  swap3\n  swap1\n  pop\n  jump\t// out\n    /* \"#utility.yul\":13464:13612   */\ntag_130:\n    /* \"#utility.yul\":13566:13577   */\n  0x00\n    /* \"#utility.yul\":13603:13606   */\n  dup2\n    /* \"#utility.yul\":13588:13606   */\n  swap1\n  pop\n    /* \"#utility.yul\":13464:13612   */\n  swap3\n  swap2\n  pop\n  pop\n  jump\t// out\n    /* \"#utility.yul\":13618:13785   */\ntag_131:\n    /* \"#utility.yul\":13758:13777   */\n  0x636f6d706c69616e6365206661696c3a20000000000000000000000000000000\n    /* \"#utility.yul\":13754:13755   */\n  0x00\n    /* \"#utility.yul\":13746:13752   */\n  dup3\n    /* \"#utility.yul\":13742:13756   */\n  add\n    /* \"#utility.yul\":13735:13778   */\n  mstore\n    /* \"#utility.yul\":13618:13785   */\n  pop\n  jump\t// out\n    /* \"#utility.yul\":13791:14193   */\ntag_132:\n    /* \"#utility.yul\":13951:13954   */\n  0x00\n    /* \"#utility.yul\":13972:14057   */\n  tag_295\n    /* \"#utility.yul\":14054:14056   */\n  0x11\n    /* \"#utility.yul\":14049:14052   */\n  dup4\n    /* \"#utility.yul\":13972:14057   */\n  tag_130\n  jump\t// in\ntag_295:\n    /* \"#utility.yul\":13965:14057   */\n  swap2\n  pop\n    /* \"#utility.yul\":14066:14159   */\n  tag_296\n    /* \"#utility.yul\":14155:14158   */\n  dup3\n    /* \"#utility.yul\":14066:14159   */\n  tag_131\n  jump\t// in\ntag_296:\n    /* \"#utility.yul\":14184:14186   */\n  0x11\n    /* \"#utility.yul\":14179:14182   */\n  dup3\n    /* \"#utility.yul\":14175:14187   */\n  add\n    /* \"#utility.yul\":14168:14187   */\n  swap1\n  pop\n    /* \"#utility.yul\":13791:14193   */\n  swap2\n  swap1\n  pop\n  jump\t// out\n    /* \"#utility.yul\":14199:14589   */\ntag_133:\n    /* \"#utility.yul\":14305:14308   */\n  0x00\n    /* \"#utility.yul\":14333:14372   */\n  tag_298\n    /* \"#utility.yul\":14366:14371   */\n  dup3\n    /* \"#utility.yul\":14333:14372   */\n  tag_98\n  jump\t// in\ntag_298:\n    /* \"#utility.yul\":14388:14477   */\n  tag_299\n    /* \"#utility.yul\":14470:14476   */\n  dup2\n    /* \"#utility.yul\":14465:14468   */\n  dup6\n    /* \"#utility.yul\":14388:14477   */\n  tag_130\n  jump\t// in\ntag_299:\n    /* \"#utility.yul\":14381:14477   */\n  swap4\n  pop\n    /* \"#utility.yul\":14486:14551   */\n  tag_300\n    /* \"#utility.yul\":14544:14550   */\n  dup2\n    /* \"#utility.yul\":14539:14542   */\n  dup6\n    /* \"#utility.yul\":14532:14536   */\n  0x20\n    /* \"#utility.yul\":14525:14530   */\n  dup7\n    /* \"#utility.yul\":14521:14537   */\n  add\n    /* \"#utility.yul\":14486:14551   */\n  tag_91\n  jump\t// in\ntag_300:\n    /* \"#utility.yul\":14576:14582   */\n  dup1\n    /* \"#utility.yul\":14571:14574   */\n  dup5\n    /* \"#utility.yul\":14567:14583   */\n  add\n    /* \"#utility.yul\":14560:14583   */\n  swap2\n  pop\n    /* \"#utility.yul\":14309:14589   */\n  pop\n    /* \"#utility.yul\":14199:14589   */\n  swap3\n  swap2\n  pop\n  pop\n  jump\t// out\n    /* \"#utility.yul\":14595:15136   */\ntag_51:\n    /* \"#utility.yul\":14828:14831   */\n  0x00\n    /* \"#utility.yul\":14850:14998   */\n  tag_302\n    /* \"#utility.yul\":14994:14997   */\n  dup3\n    /* \"#utility.yul\":14850:14998   */\n  tag_132\n  jump\t// in\ntag_302:\n    /* \"#utility.yul\":14843:14998   */\n  swap2\n  pop\n    /* \"#utility.yul\":15015:15110   */\n  tag_303\n    /* \"#utility.yul\":15106:15109   */\n  dup3\n    /* \"#utility.yul\":15097:15103   */\n  dup5\n    /* \"#utility.yul\":15015:15110   */\n  tag_133\n  jump\t// in\ntag_303:\n    /* \"#utility.yul\":15008:15110   */\n  swap2\n  pop\n    /* \"#utility.yul\":15127:15130   */\n  dup2\n    /* \"#utility.yul\":15120:15130   */\n  swap1\n  pop\n    /* \"#utility.yul\":14595:15136   */\n  swap3\n  swap2\n  pop\n  pop\n  jump\t// out\n    /* \"#utility.yul\":15142:15519   */\ntag_134:\n    /* \"#utility.yul\":15230:15233   */\n  0x00\n    /* \"#utility.yul\":15258:15297   */\n  tag_305\n    /* \"#utility.yul\":15291:15296   */\n  dup3\n    /* \"#utility.yul\":15258:15297   */\n  tag_98\n  jump\t// in\ntag_305:\n    /* \"#utility.yul\":15313:15384   */\n  tag_306\n    /* \"#utility.yul\":15377:15383   */\n  dup2\n    /* \"#utility.yul\":15372:15375   */\n  dup6\n    /* \"#utility.yul\":15313:15384   */\n  tag_118\n  jump\t// in\ntag_306:\n    /* \"#utility.yul\":15306:15384   */\n  swap4\n  pop\n    /* \"#utility.yul\":15393:15458   */\n  tag_307\n    /* \"#utility.yul\":15451:15457   */\n  dup2\n    /* \"#utility.yul\":15446:15449   */\n  dup6\n    /* \"#utility.yul\":15439:15443   */\n  0x20\n    /* \"#utility.yul\":15432:15437   */\n  dup7\n    /* \"#utility.yul\":15428:15444   */\n  add\n    /* \"#utility.yul\":15393:15458   */\n  tag_91\n  jump\t// in\ntag_307:\n    /* \"#utility.yul\":15483:15512   */\n  tag_308\n    /* \"#utility.yul\":15505:15511   */\n  dup2\n    /* \"#utility.yul\":15483:15512   */\n  tag_86\n  jump\t// in\ntag_308:\n    /* \"#utility.yul\":15478:15481   */\n  dup5\n    /* \"#utility.yul\":15474:15513   */\n  add\n    /* \"#utility.yul\":15467:15513   */\n  swap2\n  pop\n    /* \"#utility.yul\":15234:15519   */\n  pop\n    /* \"#utility.yul\":15142:15519   */\n  swap3\n  swap2\n  pop\n  pop\n  jump\t// out\n    /* \"#utility.yul\":15525:15838   */\ntag_54:\n    /* \"#utility.yul\":15638:15642   */\n  0x00\n    /* \"#utility.yul\":15676:15678   */\n  0x20\n    /* \"#utility.yul\":15665:15674   */\n  dup3\n    /* \"#utility.yul\":15661:15679   */\n  add\n    /* \"#utility.yul\":15653:15679   */\n  swap1\n  pop\n    /* \"#utility.yul\":15725:15734   */\n  dup2\n    /* \"#utility.yul\":15719:15723   */\n  dup2\n    /* \"#utility.yul\":15715:15735   */\n  sub\n    /* \"#utility.yul\":15711:15712   */\n  0x00\n    /* \"#utility.yul\":15700:15709   */\n  dup4\n    /* \"#utility.yul\":15696:15713   */\n  add\n    /* \"#utility.yul\":15689:15736   */\n  mstore\n    /* \"#utility.yul\":15753:15831   */\n  tag_310\n    /* \"#utility.yul\":15826:15830   */\n  dup2\n    /* \"#utility.yul\":15817:15823   */\n  dup5\n    /* \"#utility.yul\":15753:15831   */\n  tag_134\n  jump\t// in\ntag_310:\n    /* \"#utility.yul\":15745:15831   */\n  swap1\n  pop\n    /* \"#utility.yul\":15525:15838   */\n  swap3\n  swap2\n  pop\n  pop\n  jump\t// out\n    /* \"#utility.yul\":15844:16024   */\ntag_135:\n    /* \"#utility.yul\":15892:15969   */\n  0x4e487b7100000000000000000000000000000000000000000000000000000000\n    /* \"#utility.yul\":15889:15890   */\n  0x00\n    /* \"#utility.yul\":15882:15970   */\n  mstore\n    /* \"#utility.yul\":15989:15993   */\n  0x12\n    /* \"#utility.yul\":15986:15987   */\n  0x04\n    /* \"#utility.yul\":15979:15994   */\n  mstore\n    /* \"#utility.yul\":16013:16017   */\n  0x24\n    /* \"#utility.yul\":16010:16011   */\n  0x00\n    /* \"#utility.yul\":16003:16018   */\n  revert\n    /* \"#utility.yul\":16030:16206   */\ntag_63:\n    /* \"#utility.yul\":16062:16063   */\n  0x00\n    /* \"#utility.yul\":16079:16099   */\n  tag_313\n    /* \"#utility.yul\":16097:16098   */\n  dup3\n    /* \"#utility.yul\":16079:16099   */\n  tag_105\n  jump\t// in\ntag_313:\n    /* \"#utility.yul\":16074:16099   */\n  swap2\n  pop\n    /* \"#utility.yul\":16113:16133   */\n  tag_314\n    /* \"#utility.yul\":16131:16132   */\n  dup4\n    /* \"#utility.yul\":16113:16133   */\n  tag_105\n  jump\t// in\ntag_314:\n    /* \"#utility.yul\":16108:16133   */\n  swap3\n  pop\n    /* \"#utility.yul\":16152:16153   */\n  dup3\n    /* \"#utility.yul\":16142:16177   */\n  tag_315\n  jumpi\n    /* \"#utility.yul\":16157:16175   */\n  tag_316\n  tag_135\n  jump\t// in\ntag_316:\n    /* \"#utility.yul\":16142:16177   */\ntag_315:\n    /* \"#utility.yul\":16198:16199   */\n  dup3\n    /* \"#utility.yul\":16195:16196   */\n  dup3\n    /* \"#utility.yul\":16191:16200   */\n  mod\n    /* \"#utility.yul\":16186:16200   */\n  swap1\n  pop\n    /* \"#utility.yul\":16030:16206   */\n  swap3\n  swap2\n  pop\n  pop\n  jump\t// out\n    /* \"#utility.yul\":16212:16392   */\ntag_136:\n    /* \"#utility.yul\":16260:16337   */\n  0x4e487b7100000000000000000000000000000000000000000000000000000000\n    /* \"#utility.yul\":16257:16258   */\n  0x00\n    /* \"#utility.yul\":16250:16338   */\n  mstore\n    /* \"#utility.yul\":16357:16361   */\n  0x11\n    /* \"#utility.yul\":16354:16355   */\n  0x04\n    /* \"#utility.yul\":16347:16362   */\n  mstore\n    /* \"#utility.yul\":16381:16385   */\n  0x24\n    /* \"#utility.yul\":16378:16379   */\n  0x00\n    /* \"#utility.yul\":16371:16386   */\n  revert\n    /* \"#utility.yul\":16398:16589   */\ntag_65:\n    /* \"#utility.yul\":16438:16441   */\n  0x00\n    /* \"#utility.yul\":16457:16477   */\n  tag_319\n    /* \"#utility.yul\":16475:16476   */\n  dup3\n    /* \"#utility.yul\":16457:16477   */\n  tag_105\n  jump\t// in\ntag_319:\n    /* \"#utility.yul\":16452:16477   */\n  swap2\n  pop\n    /* \"#utility.yul\":16491:16511   */\n  tag_320\n    /* \"#utility.yul\":16509:16510   */\n  dup4\n    /* \"#utility.yul\":16491:16511   */\n  tag_105\n  jump\t// in\ntag_320:\n    /* \"#utility.yul\":16486:16511   */\n  swap3\n  pop\n    /* \"#utility.yul\":16534:16535   */\n  dup3\n    /* \"#utility.yul\":16531:16532   */\n  dup3\n    /* \"#utility.yul\":16527:16536   */\n  add\n    /* \"#utility.yul\":16520:16536   */\n  swap1\n  pop\n    /* \"#utility.yul\":16555:16558   */\n  dup1\n    /* \"#utility.yul\":16552:16553   */\n  dup3\n    /* \"#utility.yul\":16549:16559   */\n  gt\n    /* \"#utility.yul\":16546:16582   */\n  iszero\n  tag_321\n  jumpi\n    /* \"#utility.yul\":16562:16580   */\n  tag_322\n  tag_136\n  jump\t// in\ntag_322:\n    /* \"#utility.yul\":16546:16582   */\ntag_321:\n    /* \"#utility.yul\":16398:16589   */\n  swap3\n  swap2\n  pop\n  pop\n  jump\t// out\n    /* \"#utility.yul\":16595:16681   */\ntag_137:\n    /* \"#utility.yul\":16630:16637   */\n  0x00\n    /* \"#utility.yul\":16670:16674   */\n  0xff\n    /* \"#utility.yul\":16663:16668   */\n  dup3\n    /* \"#utility.yul\":16659:16675   */\n  and\n    /* \"#utility.yul\":16648:16675   */\n  swap1\n  pop\n    /* \"#utility.yul\":16595:16681   */\n  swap2\n  swap1\n  pop\n  jump\t// out\n    /* \"#utility.yul\":16687:16783   */\ntag_138:\n    /* \"#utility.yul\":16721:16729   */\n  0x00\n    /* \"#utility.yul\":16770:16775   */\n  dup2\n    /* \"#utility.yul\":16765:16768   */\n  0xf8\n    /* \"#utility.yul\":16761:16776   */\n  shl\n    /* \"#utility.yul\":16740:16776   */\n  swap1\n  pop\n    /* \"#utility.yul\":16687:16783   */\n  swap2\n  swap1\n  pop\n  jump\t// out\n    /* \"#utility.yul\":16789:16882   */\ntag_139:\n    /* \"#utility.yul\":16826:16833   */\n  0x00\n    /* \"#utility.yul\":16855:16876   */\n  tag_326\n    /* \"#utility.yul\":16870:16875   */\n  dup3\n    /* \"#utility.yul\":16855:16876   */\n  tag_138\n  jump\t// in\ntag_326:\n    /* \"#utility.yul\":16844:16876   */\n  swap1\n  pop\n    /* \"#utility.yul\":16789:16882   */\n  swap2\n  swap1\n  pop\n  jump\t// out\n    /* \"#utility.yul\":16888:17037   */\ntag_140:\n    /* \"#utility.yul\":16989:17030   */\n  tag_328\n    /* \"#utility.yul\":17007:17029   */\n  tag_329\n    /* \"#utility.yul\":17023:17028   */\n  dup3\n    /* \"#utility.yul\":17007:17029   */\n  tag_137\n  jump\t// in\ntag_329:\n    /* \"#utility.yul\":16989:17030   */\n  tag_139\n  jump\t// in\ntag_328:\n    /* \"#utility.yul\":16984:16987   */\n  dup3\n    /* \"#utility.yul\":16977:17031   */\n  mstore\n    /* \"#utility.yul\":16888:17037   */\n  pop\n  pop\n  jump\t// out\n    /* \"#utility.yul\":17043:17141   */\ntag_141:\n    /* \"#utility.yul\":17094:17100   */\n  0x00\n    /* \"#utility.yul\":17128:17133   */\n  dup2\n    /* \"#utility.yul\":17122:17134   */\n  mload\n    /* \"#utility.yul\":17112:17134   */\n  swap1\n  pop\n    /* \"#utility.yul\":17043:17141   */\n  swap2\n  swap1\n  pop\n  jump\t// out\n    /* \"#utility.yul\":17147:17294   */\ntag_142:\n    /* \"#utility.yul\":17248:17259   */\n  0x00\n    /* \"#utility.yul\":17285:17288   */\n  dup2\n    /* \"#utility.yul\":17270:17288   */\n  swap1\n  pop\n    /* \"#utility.yul\":17147:17294   */\n  swap3\n  swap2\n  pop\n  pop\n  jump\t// out\n    /* \"#utility.yul\":17300:17686   */\ntag_143:\n    /* \"#utility.yul\":17404:17407   */\n  0x00\n    /* \"#utility.yul\":17432:17470   */\n  tag_333\n    /* \"#utility.yul\":17464:17469   */\n  dup3\n    /* \"#utility.yul\":17432:17470   */\n  tag_141\n  jump\t// in\ntag_333:\n    /* \"#utility.yul\":17486:17574   */\n  tag_334\n    /* \"#utility.yul\":17567:17573   */\n  dup2\n    /* \"#utility.yul\":17562:17565   */\n  dup6\n    /* \"#utility.yul\":17486:17574   */\n  tag_142\n  jump\t// in\ntag_334:\n    /* \"#utility.yul\":17479:17574   */\n  swap4\n  pop\n    /* \"#utility.yul\":17583:17648   */\n  tag_335\n    /* \"#utility.yul\":17641:17647   */\n  dup2\n    /* \"#utility.yul\":17636:17639   */\n  dup6\n    /* \"#utility.yul\":17629:17633   */\n  0x20\n    /* \"#utility.yul\":17622:17627   */\n  dup7\n    /* \"#utility.yul\":17618:17634   */\n  add\n    /* \"#utility.yul\":17583:17648   */\n  tag_91\n  jump\t// in\ntag_335:\n    /* \"#utility.yul\":17673:17679   */\n  dup1\n    /* \"#utility.yul\":17668:17671   */\n  dup5\n    /* \"#utility.yul\":17664:17680   */\n  add\n    /* \"#utility.yul\":17657:17680   */\n  swap2\n  pop\n    /* \"#utility.yul\":17408:17686   */\n  pop\n    /* \"#utility.yul\":17300:17686   */\n  swap3\n  swap2\n  pop\n  pop\n  jump\t// out\n    /* \"#utility.yul\":17692:18095   */\ntag_67:\n    /* \"#utility.yul\":17846:17849   */\n  0x00\n    /* \"#utility.yul\":17861:17932   */\n  tag_337\n    /* \"#utility.yul\":17928:17931   */\n  dup3\n    /* \"#utility.yul\":17919:17925   */\n  dup6\n    /* \"#utility.yul\":17861:17932   */\n  tag_140\n  jump\t// in\ntag_337:\n    /* \"#utility.yul\":17957:17958   */\n  0x01\n    /* \"#utility.yul\":17952:17955   */\n  dup3\n    /* \"#utility.yul\":17948:17959   */\n  add\n    /* \"#utility.yul\":17941:17959   */\n  swap2\n  pop\n    /* \"#utility.yul\":17976:18069   */\n  tag_338\n    /* \"#utility.yul\":18065:18068   */\n  dup3\n    /* \"#utility.yul\":18056:18062   */\n  dup5\n    /* \"#utility.yul\":17976:18069   */\n  tag_143\n  jump\t// in\ntag_338:\n    /* \"#utility.yul\":17969:18069   */\n  swap2\n  pop\n    /* \"#utility.yul\":18086:18089   */\n  dup2\n    /* \"#utility.yul\":18079:18089   */\n  swap1\n  pop\n    /* \"#utility.yul\":17692:18095   */\n  swap4\n  swap3\n  pop\n  pop\n  pop\n  jump\t// out\n    /* \"#utility.yul\":18101:18286   */\ntag_69:\n    /* \"#utility.yul\":18141:18142   */\n  0x00\n    /* \"#utility.yul\":18158:18178   */\n  tag_340\n    /* \"#utility.yul\":18176:18177   */\n  dup3\n    /* \"#utility.yul\":18158:18178   */\n  tag_105\n  jump\t// in\ntag_340:\n    /* \"#utility.yul\":18153:18178   */\n  swap2\n  pop\n    /* \"#utility.yul\":18192:18212   */\n  tag_341\n    /* \"#utility.yul\":18210:18211   */\n  dup4\n    /* \"#utility.yul\":18192:18212   */\n  tag_105\n  jump\t// in\ntag_341:\n    /* \"#utility.yul\":18187:18212   */\n  swap3\n  pop\n    /* \"#utility.yul\":18231:18232   */\n  dup3\n    /* \"#utility.yul\":18221:18256   */\n  tag_342\n  jumpi\n    /* \"#utility.yul\":18236:18254   */\n  tag_343\n  tag_135\n  jump\t// in\ntag_343:\n    /* \"#utility.yul\":18221:18256   */\ntag_342:\n    /* \"#utility.yul\":18278:18279   */\n  dup3\n    /* \"#utility.yul\":18275:18276   */\n  dup3\n    /* \"#utility.yul\":18271:18280   */\n  div\n    /* \"#utility.yul\":18266:18280   */\n  swap1\n  pop\n    /* \"#utility.yul\":18101:18286   */\n  swap3\n  swap2\n  pop\n  pop\n  jump\t// out\n    /* \"#utility.yul\":18292:18734   */\ntag_76:\n    /* \"#utility.yul\":18441:18445   */\n  0x00\n    /* \"#utility.yul\":18479:18481   */\n  0x60\n    /* \"#utility.yul\":18468:18477   */\n  dup3\n    /* \"#utility.yul\":18464:18482   */\n  add\n    /* \"#utility.yul\":18456:18482   */\n  swap1\n  pop\n    /* \"#utility.yul\":18492:18563   */\n  tag_345\n    /* \"#utility.yul\":18560:18561   */\n  0x00\n    /* \"#utility.yul\":18549:18558   */\n  dup4\n    /* \"#utility.yul\":18545:18562   */\n  add\n    /* \"#utility.yul\":18536:18542   */\n  dup7\n    /* \"#utility.yul\":18492:18563   */\n  tag_117\n  jump\t// in\ntag_345:\n    /* \"#utility.yul\":18573:18645   */\n  tag_346\n    /* \"#utility.yul\":18641:18643   */\n  0x20\n    /* \"#utility.yul\":18630:18639   */\n  dup4\n    /* \"#utility.yul\":18626:18644   */\n  add\n    /* \"#utility.yul\":18617:18623   */\n  dup6\n    /* \"#utility.yul\":18573:18645   */\n  tag_121\n  jump\t// in\ntag_346:\n    /* \"#utility.yul\":18655:18727   */\n  tag_347\n    /* \"#utility.yul\":18723:18725   */\n  0x40\n    /* \"#utility.yul\":18712:18721   */\n  dup4\n    /* \"#utility.yul\":18708:18726   */\n  add\n    /* \"#utility.yul\":18699:18705   */\n  dup5\n    /* \"#utility.yul\":18655:18727   */\n  tag_121\n  jump\t// in\ntag_347:\n    /* \"#utility.yul\":18292:18734   */\n  swap5\n  swap4\n  pop\n  pop\n  pop\n  pop\n  jump\t// out\n    /* \"#utility.yul\":18740:18962   */\ntag_80:\n    /* \"#utility.yul\":18833:18837   */\n  0x00\n    /* \"#utility.yul\":18871:18873   */\n  0x20\n    /* \"#utility.yul\":18860:18869   */\n  dup3\n    /* \"#utility.yul\":18856:18874   */\n  add\n    /* \"#utility.yul\":18848:18874   */\n  swap1\n  pop\n    /* \"#utility.yul\":18884:18955   */\n  tag_349\n    /* \"#utility.yul\":18952:18953   */\n  0x00\n    /* \"#utility.yul\":18941:18950   */\n  dup4\n    /* \"#utility.yul\":18937:18954   */\n  add\n    /* \"#utility.yul\":18928:18934   */\n  dup5\n    /* \"#utility.yul\":18884:18955   */\n  tag_121\n  jump\t// in\ntag_349:\n    /* \"#utility.yul\":18740:18962   */\n  swap3\n  swap2\n  pop\n  pop\n  jump\t// out\n    /* \"contracts/RwaToken.sol\":706:2356  contract RwaToken is ERC20, AccessControl, Pausable {... */\ntag_18:\n  dataSize(sub_0)\n  dup1\n  dataOffset(sub_0)\n  0x00\n  codecopy\n  0x00\n  return\nstop\n\nsub_0: assembly {\n        /* \"contracts/RwaToken.sol\":706:2356  contract RwaToken is ERC20, AccessControl, Pausable {... */\n      mstore(0x40, 0x80)\n      callvalue\n      dup1\n      iszero\n      tag_1\n      jumpi\n      revert(0x00, 0x00)\n    tag_1:\n      pop\n      jumpi(tag_2, lt(calldatasize, 0x04))\n      shr(0xe0, calldataload(0x00))\n      dup1\n      0x6290865d\n      gt\n      tag_25\n      jumpi\n      dup1\n      0x91d14854\n      gt\n      tag_26\n      jumpi\n      dup1\n      0x91d14854\n      eq\n      tag_19\n      jumpi\n      dup1\n      0x95d89b41\n      eq\n      tag_20\n      jumpi\n      dup1\n      0xa217fddf\n      eq\n      tag_21\n      jumpi\n      dup1\n      0xa9059cbb\n      eq\n      tag_22\n      jumpi\n      dup1\n      0xd547741f\n      eq\n      tag_23\n      jumpi\n      dup1\n      0xdd62ed3e\n      eq\n      tag_24\n      jumpi\n      jump(tag_2)\n    tag_26:\n      dup1\n      0x6290865d\n      eq\n      tag_14\n      jumpi\n      dup1\n      0x70a08231\n      eq\n      tag_15\n      jumpi\n      dup1\n      0x82aefa24\n      eq\n      tag_16\n      jumpi\n      dup1\n      0x8456cb59\n      eq\n      tag_17\n      jumpi\n      dup1\n      0x89021456\n      eq\n      tag_18\n      jumpi\n      jump(tag_2)\n    tag_25:\n      dup1\n      0x248a9ca3\n      gt\n      tag_27\n      jumpi\n      dup1\n      0x248a9ca3\n      eq\n      tag_8\n      jumpi\n      dup1\n      0x2f2ff15d\n      eq\n      tag_9\n      jumpi\n      dup1\n      0x313ce567\n      eq\n      tag_10\n      jumpi\n      dup1\n      0x36568abe\n      eq\n      tag_11\n      jumpi\n      dup1\n      0x3f4ba83a\n      eq\n      tag_12\n      jumpi\n      dup1\n      0x5c975abb\n      eq\n      tag_13\n      jumpi\n      jump(tag_2)\n    tag_27:\n      dup1\n      0x01ffc9a7\n      eq\n      tag_3\n      jumpi\n      dup1\n      0x06fdde03\n      eq\n      tag_4\n      jumpi\n      dup1\n      0x095ea7b3\n      eq\n      tag_5\n      jumpi\n      dup1\n      0x18160ddd\n      eq\n      tag_6\n      jumpi\n      dup1\n      0x23b872dd\n      eq\n      tag_7\n      jumpi\n    tag_2:\n      revert(0x00, 0x00)\n        /* \"https://raw.githubusercontent.com/OpenZeppelin/openzeppelin-contracts/v5.0.2/contracts/access/AccessControl.sol\":2565:2767  function supportsInterface(bytes4 interfaceId) public view virtual override returns (bool) {... */\n    tag_3:\n      tag_28\n      0x04\n      dup1\n      calldatasize\n      sub\n      dup2\n      add\n      swap1\n      tag_29\n      swap2\n      swap1\n      tag_30\n      jump\t// in\n    tag_29:\n      tag_31\n      jump\t// in\n    tag_28:\n      mload(0x40)\n      tag_32\n      swap2\n      swap1\n      tag_33\n      jump\t// in\n    tag_32:\n      mload(0x40)\n      dup1\n      swap2\n      sub\n      swap1\n      return\n        /* \"https://raw.githubusercontent.com/OpenZeppelin/openzeppelin-contracts/v5.0.2/contracts/token/ERC20/ERC20.sol\":2074:2163  function name() public view virtual returns (string memory) {... */\n    tag_4:\n      tag_34\n      tag_35\n      jump\t// in\n    tag_34:\n      mload(0x40)\n      tag_36\n      swap2\n      swap1\n      tag_37\n      jump\t// in\n    tag_36:\n      mload(0x40)\n      dup1\n      swap2\n      sub\n      swap1\n      return\n        /* \"https://raw.githubusercontent.com/OpenZeppelin/openzeppelin-contracts/v5.0.2/contracts/token/ERC20/ERC20.sol\":4293:4479  function approve(address spender, uint256 value) public virtual returns (bool) {... */\n    tag_5:\n      tag_38\n      0x04\n      dup1\n      calldatasize\n      sub\n      dup2\n      add\n      swap1\n      tag_39\n      swap2\n      swap1\n      tag_40\n      jump\t// in\n    tag_39:\n      tag_41\n      jump\t// in\n    tag_38:\n      mload(0x40)\n      tag_42\n      swap2\n      swap1\n      tag_33\n      jump\t// in\n    tag_42:\n      mload(0x40)\n      dup1\n      swap2\n      sub\n      swap1\n      return\n        /* \"https://raw.githubusercontent.com/OpenZeppelin/openzeppelin-contracts/v5.0.2/contracts/token/ERC20/ERC20.sol\":3144:3241  function totalSupply() public view virtual returns (uint256) {... */\n    tag_6:\n      tag_43\n      tag_44\n      jump\t// in\n    tag_43:\n      mload(0x40)\n      tag_45\n      swap2\n      swap1\n      tag_46\n      jump\t// in\n    tag_45:\n      mload(0x40)\n      dup1\n      swap2\n      sub\n      swap1\n      return\n        /* \"https://raw.githubusercontent.com/OpenZeppelin/openzeppelin-contracts/v5.0.2/contracts/token/ERC20/ERC20.sol\":5039:5283  function transferFrom(address from, address to, uint256 value) public virtual returns (bool) {... */\n    tag_7:\n      tag_47\n      0x04\n      dup1\n      calldatasize\n      sub\n      dup2\n      add\n      swap1\n      tag_48\n      swap2\n      swap1\n      tag_49\n      jump\t// in\n    tag_48:\n      tag_50\n      jump\t// in\n    tag_47:\n      mload(0x40)\n      tag_51\n      swap2\n      swap1\n      tag_33\n      jump\t// in\n    tag_51:\n      mload(0x40)\n      dup1\n      swap2\n      sub\n      swap1\n      return\n        /* \"https://raw.githubusercontent.com/OpenZeppelin/openzeppelin-contracts/v5.0.2/contracts/access/AccessControl.sol\":3810:3930  function getRoleAdmin(bytes32 role) public view virtual returns (bytes32) {... */\n    tag_8:\n      tag_52\n      0x04\n      dup1\n      calldatasize\n      sub\n      dup2\n      add\n      swap1\n      tag_53\n      swap2\n      swap1\n      tag_54\n      jump\t// in\n    tag_53:\n      tag_55\n      jump\t// in\n    tag_52:\n      mload(0x40)\n      tag_56\n      swap2\n      swap1\n      tag_57\n      jump\t// in\n    tag_56:\n      mload(0x40)\n      dup1\n      swap2\n      sub\n      swap1\n      return\n        /* \"https://raw.githubusercontent.com/OpenZeppelin/openzeppelin-contracts/v5.0.2/contracts/access/AccessControl.sol\":4226:4362  function grantRole(bytes32 role, address account) public virtual onlyRole(getRoleAdmin(role)) {... */\n    tag_9:\n      tag_58\n      0x04\n      dup1\n      calldatasize\n      sub\n      dup2\n      add\n      swap1\n      tag_59\n      swap2\n      swap1\n      tag_60\n      jump\t// in\n    tag_59:\n      tag_61\n      jump\t// in\n    tag_58:\n      stop\n        /* \"https://raw.githubusercontent.com/OpenZeppelin/openzeppelin-contracts/v5.0.2/contracts/token/ERC20/ERC20.sol\":3002:3084  function decimals() public view virtual returns (uint8) {... */\n    tag_10:\n      tag_62\n      tag_63\n      jump\t// in\n    tag_62:\n      mload(0x40)\n      tag_64\n      swap2\n      swap1\n      tag_65\n      jump\t// in\n    tag_64:\n      mload(0x40)\n      dup1\n      swap2\n      sub\n      swap1\n      return\n        /* \"https://raw.githubusercontent.com/OpenZeppelin/openzeppelin-contracts/v5.0.2/contracts/access/AccessControl.sol\":5328:5573  function renounceRole(bytes32 role, address callerConfirmation) public virtual {... */\n    tag_11:\n      tag_66\n      0x04\n      dup1\n      calldatasize\n      sub\n      dup2\n      add\n      swap1\n      tag_67\n      swap2\n      swap1\n      tag_60\n      jump\t// in\n    tag_67:\n      tag_68\n      jump\t// in\n    tag_66:\n      stop\n        /* \"contracts/RwaToken.sol\":1332:1404  function unpause() external onlyRole(DEFAULT_ADMIN_ROLE) { _unpause(); } */\n    tag_12:\n      tag_69\n      tag_70\n      jump\t// in\n    tag_69:\n      stop\n        /* \"https://raw.githubusercontent.com/OpenZeppelin/openzeppelin-contracts/v5.0.2/contracts/utils/Pausable.sol\":1850:1934  function paused() public view virtual returns (bool) {... */\n    tag_13:\n      tag_71\n      tag_72\n      jump\t// in\n    tag_71:\n      mload(0x40)\n      tag_73\n      swap2\n      swap1\n      tag_33\n      jump\t// in\n    tag_73:\n      mload(0x40)\n      dup1\n      swap2\n      sub\n      swap1\n      return\n        /* \"contracts/RwaToken.sol\":832:861  ICompliance public compliance */\n    tag_14:\n      tag_74\n      tag_75\n      jump\t// in\n    tag_74:\n      mload(0x40)\n      tag_76\n      swap2\n      swap1\n      tag_77\n      jump\t// in\n    tag_76:\n      mload(0x40)\n      dup1\n      swap2\n      sub\n      swap1\n      return\n        /* \"https://raw.githubusercontent.com/OpenZeppelin/openzeppelin-contracts/v5.0.2/contracts/token/ERC20/ERC20.sol\":3299:3415  function balanceOf(address account) public view virtual returns (uint256) {... */\n    tag_15:\n      tag_78\n      0x04\n      dup1\n      calldatasize\n      sub\n      dup2\n      add\n      swap1\n      tag_79\n      swap2\n      swap1\n      tag_80\n      jump\t// in\n    tag_79:\n      tag_81\n      jump\t// in\n    tag_78:\n      mload(0x40)\n      tag_82\n      swap2\n      swap1\n      tag_46\n      jump\t// in\n    tag_82:\n      mload(0x40)\n      dup1\n      swap2\n      sub\n      swap1\n      return\n        /* \"contracts/RwaToken.sol\":764:826  bytes32 public constant ISSUER_ROLE = keccak256(\"ISSUER_ROLE\") */\n    tag_16:\n      tag_83\n      tag_84\n      jump\t// in\n    tag_83:\n      mload(0x40)\n      tag_85\n      swap2\n      swap1\n      tag_57\n      jump\t// in\n    tag_85:\n      mload(0x40)\n      dup1\n      swap2\n      sub\n      swap1\n      return\n        /* \"contracts/RwaToken.sol\":1259:1327  function pause() external onlyRole(DEFAULT_ADMIN_ROLE) { _pause(); } */\n    tag_17:\n      tag_86\n      tag_87\n      jump\t// in\n    tag_86:\n      stop\n        /* \"contracts/RwaToken.sol\":1888:2113  function forceTransfer(address from, address to, uint256 value, string calldata reason)... */\n    tag_18:\n      tag_88\n      0x04\n      dup1\n      calldatasize\n      sub\n      dup2\n      add\n      swap1\n      tag_89\n      swap2\n      swap1\n      tag_90\n      jump\t// in\n    tag_89:\n      tag_91\n      jump\t// in\n    tag_88:\n      stop\n        /* \"https://raw.githubusercontent.com/OpenZeppelin/openzeppelin-contracts/v5.0.2/contracts/access/AccessControl.sol\":2854:2990  function hasRole(bytes32 role, address account) public view virtual returns (bool) {... */\n    tag_19:\n      tag_92\n      0x04\n      dup1\n      calldatasize\n      sub\n      dup2\n      add\n      swap1\n      tag_93\n      swap2\n      swap1\n      tag_60\n      jump\t// in\n    tag_93:\n      tag_94\n      jump\t// in\n    tag_92:\n      mload(0x40)\n      tag_95\n      swap2\n      swap1\n      tag_33\n      jump\t// in\n    tag_95:\n      mload(0x40)\n      dup1\n      swap2\n      sub\n      swap1\n      return\n        /* \"https://raw.githubusercontent.com/OpenZeppelin/openzeppelin-contracts/v5.0.2/contracts/token/ERC20/ERC20.sol\":2276:2369  function symbol() public view virtual returns (string memory) {... */\n    tag_20:\n      tag_96\n      tag_97\n      jump\t// in\n    tag_96:\n      mload(0x40)\n      tag_98\n      swap2\n      swap1\n      tag_37\n      jump\t// in\n    tag_98:\n      mload(0x40)\n      dup1\n      swap2\n      sub\n      swap1\n      return\n        /* \"https://raw.githubusercontent.com/OpenZeppelin/openzeppelin-contracts/v5.0.2/contracts/access/AccessControl.sol\":2187:2236  bytes32 public constant DEFAULT_ADMIN_ROLE = 0x00 */\n    tag_21:\n      tag_99\n      tag_100\n      jump\t// in\n    tag_99:\n      mload(0x40)\n      tag_101\n      swap2\n      swap1\n      tag_57\n      jump\t// in\n    tag_101:\n      mload(0x40)\n      dup1\n      swap2\n      sub\n      swap1\n      return\n        /* \"https://raw.githubusercontent.com/OpenZeppelin/openzeppelin-contracts/v5.0.2/contracts/token/ERC20/ERC20.sol\":3610:3788  function transfer(address to, uint256 value) public virtual returns (bool) {... */\n    tag_22:\n      tag_102\n      0x04\n      dup1\n      calldatasize\n      sub\n      dup2\n      add\n      swap1\n      tag_103\n      swap2\n      swap1\n      tag_40\n      jump\t// in\n    tag_103:\n      tag_104\n      jump\t// in\n    tag_102:\n      mload(0x40)\n      tag_105\n      swap2\n      swap1\n      tag_33\n      jump\t// in\n    tag_105:\n      mload(0x40)\n      dup1\n      swap2\n      sub\n      swap1\n      return\n        /* \"https://raw.githubusercontent.com/OpenZeppelin/openzeppelin-contracts/v5.0.2/contracts/access/AccessControl.sol\":4642:4780  function revokeRole(bytes32 role, address account) public virtual onlyRole(getRoleAdmin(role)) {... */\n    tag_23:\n      tag_106\n      0x04\n      dup1\n      calldatasize\n      sub\n      dup2\n      add\n      swap1\n      tag_107\n      swap2\n      swap1\n      tag_60\n      jump\t// in\n    tag_107:\n      tag_108\n      jump\t// in\n    tag_106:\n      stop\n        /* \"https://raw.githubusercontent.com/OpenZeppelin/openzeppelin-contracts/v5.0.2/contracts/token/ERC20/ERC20.sol\":3846:3986  function allowance(address owner, address spender) public view virtual returns (uint256) {... */\n    tag_24:\n      tag_109\n      0x04\n      dup1\n      calldatasize\n      sub\n      dup2\n      add\n      swap1\n      tag_110\n      swap2\n      swap1\n      tag_111\n      jump\t// in\n    tag_110:\n      tag_112\n      jump\t// in\n    tag_109:\n      mload(0x40)\n      tag_113\n      swap2\n      swap1\n      tag_46\n      jump\t// in\n    tag_113:\n      mload(0x40)\n      dup1\n      swap2\n      sub\n      swap1\n      return\n        /* \"https://raw.githubusercontent.com/OpenZeppelin/openzeppelin-contracts/v5.0.2/contracts/access/AccessControl.sol\":2565:2767  function supportsInterface(bytes4 interfaceId) public view virtual override returns (bool) {... */\n    tag_31:\n        /* \"https://raw.githubusercontent.com/OpenZeppelin/openzeppelin-contracts/v5.0.2/contracts/access/AccessControl.sol\":2650:2654  bool */\n      0x00\n        /* \"https://raw.githubusercontent.com/OpenZeppelin/openzeppelin-contracts/v5.0.2/contracts/access/AccessControl.sol\":2688:2720  type(IAccessControl).interfaceId */\n      0x7965db0b00000000000000000000000000000000000000000000000000000000\n        /* \"https://raw.githubusercontent.com/OpenZeppelin/openzeppelin-contracts/v5.0.2/contracts/access/AccessControl.sol\":2673:2720  interfaceId == type(IAccessControl).interfaceId */\n      not(0xffffffffffffffffffffffffffffffffffffffffffffffffffffffff)\n      and\n        /* \"https://raw.githubusercontent.com/OpenZeppelin/openzeppelin-contracts/v5.0.2/contracts/access/AccessControl.sol\":2673:2684  interfaceId */\n      dup3\n        /* \"https://raw.githubusercontent.com/OpenZeppelin/openzeppelin-contracts/v5.0.2/contracts/access/AccessControl.sol\":2673:2720  interfaceId == type(IAccessControl).interfaceId */\n      not(0xffffffffffffffffffffffffffffffffffffffffffffffffffffffff)\n      and\n      eq\n        /* \"https://raw.githubusercontent.com/OpenZeppelin/openzeppelin-contracts/v5.0.2/contracts/access/AccessControl.sol\":2673:2760  interfaceId == type(IAccessControl).interfaceId || super.supportsInterface(interfaceId) */\n      dup1\n      tag_115\n      jumpi\n      pop\n        /* \"https://raw.githubusercontent.com/OpenZeppelin/openzeppelin-contracts/v5.0.2/contracts/access/AccessControl.sol\":2724:2760  super.supportsInterface(interfaceId) */\n      tag_116\n        /* \"https://raw.githubusercontent.com/OpenZeppelin/openzeppelin-contracts/v5.0.2/contracts/access/AccessControl.sol\":2748:2759  interfaceId */\n      dup3\n        /* \"https://raw.githubusercontent.com/OpenZeppelin/openzeppelin-contracts/v5.0.2/contracts/access/AccessControl.sol\":2724:2747  super.supportsInterface */\n      tag_117\n        /* \"https://raw.githubusercontent.com/OpenZeppelin/openzeppelin-contracts/v5.0.2/contracts/access/AccessControl.sol\":2724:2760  super.supportsInterface(interfaceId) */\n      jump\t// in\n    tag_116:\n        /* \"https://raw.githubusercontent.com/OpenZeppelin/openzeppelin-contracts/v5.0.2/contracts/access/AccessControl.sol\":2673:2760  interfaceId == type(IAccessControl).interfaceId || super.supportsInterface(interfaceId) */\n    tag_115:\n        /* \"https://raw.githubusercontent.com/OpenZeppelin/openzeppelin-contracts/v5.0.2/contracts/access/AccessControl.sol\":2666:2760  return interfaceId == type(IAccessControl).interfaceId || super.supportsInterface(interfaceId) */\n      swap1\n      pop\n        /* \"https://raw.githubusercontent.com/OpenZeppelin/openzeppelin-contracts/v5.0.2/contracts/access/AccessControl.sol\":2565:2767  function supportsInterface(bytes4 interfaceId) public view virtual override returns (bool) {... */\n      swap2\n      swap1\n      pop\n      jump\t// out\n        /* \"https://raw.githubusercontent.com/OpenZeppelin/openzeppelin-contracts/v5.0.2/contracts/token/ERC20/ERC20.sol\":2074:2163  function name() public view virtual returns (string memory) {... */\n    tag_35:\n        /* \"https://raw.githubusercontent.com/OpenZeppelin/openzeppelin-contracts/v5.0.2/contracts/token/ERC20/ERC20.sol\":2119:2132  string memory */\n      0x60\n        /* \"https://raw.githubusercontent.com/OpenZeppelin/openzeppelin-contracts/v5.0.2/contracts/token/ERC20/ERC20.sol\":2151:2156  _name */\n      0x03\n        /* \"https://raw.githubusercontent.com/OpenZeppelin/openzeppelin-contracts/v5.0.2/contracts/token/ERC20/ERC20.sol\":2144:2156  return _name */\n      dup1\n      sload\n      tag_119\n      swap1\n      tag_120\n      jump\t// in\n    tag_119:\n      dup1\n      0x1f\n      add\n      0x20\n      dup1\n      swap2\n      div\n      mul\n      0x20\n      add\n      mload(0x40)\n      swap1\n      dup2\n      add\n      0x40\n      mstore\n      dup1\n      swap3\n      swap2\n      swap1\n      dup2\n      dup2\n      mstore\n      0x20\n      add\n      dup3\n      dup1\n      sload\n      tag_121\n      swap1\n      tag_120\n      jump\t// in\n    tag_121:\n      dup1\n      iszero\n      tag_122\n      jumpi\n      dup1\n      0x1f\n      lt\n      tag_123\n      jumpi\n      0x0100\n      dup1\n      dup4\n      sload\n      div\n      mul\n      dup4\n      mstore\n      swap2\n      0x20\n      add\n      swap2\n      jump(tag_122)\n    tag_123:\n      dup3\n      add\n      swap2\n      swap1\n      0x00\n      mstore\n      keccak256(0x00, 0x20)\n      swap1\n    tag_124:\n      dup2\n      sload\n      dup2\n      mstore\n      swap1\n      0x01\n      add\n      swap1\n      0x20\n      add\n      dup1\n      dup4\n      gt\n      tag_124\n      jumpi\n      dup3\n      swap1\n      sub\n      0x1f\n      and\n      dup3\n      add\n      swap2\n    tag_122:\n      pop\n      pop\n      pop\n      pop\n      pop\n      swap1\n      pop\n        /* \"https://raw.githubusercontent.com/OpenZeppelin/openzeppelin-contracts/v5.0.2/contracts/token/ERC20/ERC20.sol\":2074:2163  function name() public view virtual returns (string memory) {... */\n      swap1\n      jump\t// out\n        /* \"https://raw.githubusercontent.com/OpenZeppelin/openzeppelin-contracts/v5.0.2/contracts/token/ERC20/ERC20.sol\":4293:4479  function approve(address spender, uint256 value) public virtual returns (bool) {... */\n    tag_41:\n        /* \"https://raw.githubusercontent.com/OpenZeppelin/openzeppelin-contracts/v5.0.2/contracts/token/ERC20/ERC20.sol\":4366:4370  bool */\n      0x00\n        /* \"https://raw.githubusercontent.com/OpenZeppelin/openzeppelin-contracts/v5.0.2/contracts/token/ERC20/ERC20.sol\":4382:4395  address owner */\n      0x00\n        /* \"https://raw.githubusercontent.com/OpenZeppelin/openzeppelin-contracts/v5.0.2/contracts/token/ERC20/ERC20.sol\":4398:4410  _msgSender() */\n      tag_126\n        /* \"https://raw.githubusercontent.com/OpenZeppelin/openzeppelin-contracts/v5.0.2/contracts/token/ERC20/ERC20.sol\":4398:4408  _msgSender */\n      tag_127\n        /* \"https://raw.githubusercontent.com/OpenZeppelin/openzeppelin-contracts/v5.0.2/contracts/token/ERC20/ERC20.sol\":4398:4410  _msgSender() */\n      jump\t// in\n    tag_126:\n        /* \"https://raw.githubusercontent.com/OpenZeppelin/openzeppelin-contracts/v5.0.2/contracts/token/ERC20/ERC20.sol\":4382:4410  address owner = _msgSender() */\n      swap1\n      pop\n        /* \"https://raw.githubusercontent.com/OpenZeppelin/openzeppelin-contracts/v5.0.2/contracts/token/ERC20/ERC20.sol\":4420:4451  _approve(owner, spender, value) */\n      tag_128\n        /* \"https://raw.githubusercontent.com/OpenZeppelin/openzeppelin-contracts/v5.0.2/contracts/token/ERC20/ERC20.sol\":4429:4434  owner */\n      dup2\n        /* \"https://raw.githubusercontent.com/OpenZeppelin/openzeppelin-contracts/v5.0.2/contracts/token/ERC20/ERC20.sol\":4436:4443  spender */\n      dup6\n        /* \"https://raw.githubusercontent.com/OpenZeppelin/openzeppelin-contracts/v5.0.2/contracts/token/ERC20/ERC20.sol\":4445:4450  value */\n      dup6\n        /* \"https://raw.githubusercontent.com/OpenZeppelin/openzeppelin-contracts/v5.0.2/contracts/token/ERC20/ERC20.sol\":4420:4428  _approve */\n      tag_129\n        /* \"https://raw.githubusercontent.com/OpenZeppelin/openzeppelin-contracts/v5.0.2/contracts/token/ERC20/ERC20.sol\":4420:4451  _approve(owner, spender, value) */\n      jump\t// in\n    tag_128:\n        /* \"https://raw.githubusercontent.com/OpenZeppelin/openzeppelin-contracts/v5.0.2/contracts/token/ERC20/ERC20.sol\":4468:4472  true */\n      0x01\n        /* \"https://raw.githubusercontent.com/OpenZeppelin/openzeppelin-contracts/v5.0.2/contracts/token/ERC20/ERC20.sol\":4461:4472  return true */\n      swap2\n      pop\n      pop\n        /* \"https://raw.githubusercontent.com/OpenZeppelin/openzeppelin-contracts/v5.0.2/contracts/token/ERC20/ERC20.sol\":4293:4479  function approve(address spender, uint256 value) public virtual returns (bool) {... */\n      swap3\n      swap2\n      pop\n      pop\n      jump\t// out\n        /* \"https://raw.githubusercontent.com/OpenZeppelin/openzeppelin-contracts/v5.0.2/contracts/token/ERC20/ERC20.sol\":3144:3241  function totalSupply() public view virtual returns (uint256) {... */\n    tag_44:\n        /* \"https://raw.githubusercontent.com/OpenZeppelin/openzeppelin-contracts/v5.0.2/contracts/token/ERC20/ERC20.sol\":3196:3203  uint256 */\n      0x00\n        /* \"https://raw.githubusercontent.com/OpenZeppelin/openzeppelin-contracts/v5.0.2/contracts/token/ERC20/ERC20.sol\":3222:3234  _totalSupply */\n      sload(0x02)\n        /* \"https://raw.githubusercontent.com/OpenZeppelin/openzeppelin-contracts/v5.0.2/contracts/token/ERC20/ERC20.sol\":3215:3234  return _totalSupply */\n      swap1\n      pop\n        /* \"https://raw.githubusercontent.com/OpenZeppelin/openzeppelin-contracts/v5.0.2/contracts/token/ERC20/ERC20.sol\":3144:3241  function totalSupply() public view virtual returns (uint256) {... */\n      swap1\n      jump\t// out\n        /* \"https://raw.githubusercontent.com/OpenZeppelin/openzeppelin-contracts/v5.0.2/contracts/token/ERC20/ERC20.sol\":5039:5283  function transferFrom(address from, address to, uint256 value) public virtual returns (bool) {... */\n    tag_50:\n        /* \"https://raw.githubusercontent.com/OpenZeppelin/openzeppelin-contracts/v5.0.2/contracts/token/ERC20/ERC20.sol\":5126:5130  bool */\n      0x00\n        /* \"https://raw.githubusercontent.com/OpenZeppelin/openzeppelin-contracts/v5.0.2/contracts/token/ERC20/ERC20.sol\":5142:5157  address spender */\n      0x00\n        /* \"https://raw.githubusercontent.com/OpenZeppelin/openzeppelin-contracts/v5.0.2/contracts/token/ERC20/ERC20.sol\":5160:5172  _msgSender() */\n      tag_132\n        /* \"https://raw.githubusercontent.com/OpenZeppelin/openzeppelin-contracts/v5.0.2/contracts/token/ERC20/ERC20.sol\":5160:5170  _msgSender */\n      tag_127\n        /* \"https://raw.githubusercontent.com/OpenZeppelin/openzeppelin-contracts/v5.0.2/contracts/token/ERC20/ERC20.sol\":5160:5172  _msgSender() */\n      jump\t// in\n    tag_132:\n        /* \"https://raw.githubusercontent.com/OpenZeppelin/openzeppelin-contracts/v5.0.2/contracts/token/ERC20/ERC20.sol\":5142:5172  address spender = _msgSender() */\n      swap1\n      pop\n        /* \"https://raw.githubusercontent.com/OpenZeppelin/openzeppelin-contracts/v5.0.2/contracts/token/ERC20/ERC20.sol\":5182:5219  _spendAllowance(from, spender, value) */\n      tag_133\n        /* \"https://raw.githubusercontent.com/OpenZeppelin/openzeppelin-contracts/v5.0.2/contracts/token/ERC20/ERC20.sol\":5198:5202  from */\n      dup6\n        /* \"https://raw.githubusercontent.com/OpenZeppelin/openzeppelin-contracts/v5.0.2/contracts/token/ERC20/ERC20.sol\":5204:5211  spender */\n      dup3\n        /* \"https://raw.githubusercontent.com/OpenZeppelin/openzeppelin-contracts/v5.0.2/contracts/token/ERC20/ERC20.sol\":5213:5218  value */\n      dup6\n        /* \"https://raw.githubusercontent.com/OpenZeppelin/openzeppelin-contracts/v5.0.2/contracts/token/ERC20/ERC20.sol\":5182:5197  _spendAllowance */\n      tag_134\n        /* \"https://raw.githubusercontent.com/OpenZeppelin/openzeppelin-contracts/v5.0.2/contracts/token/ERC20/ERC20.sol\":5182:5219  _spendAllowance(from, spender, value) */\n      jump\t// in\n    tag_133:\n        /* \"https://raw.githubusercontent.com/OpenZeppelin/openzeppelin-contracts/v5.0.2/contracts/token/ERC20/ERC20.sol\":5229:5255  _transfer(from, to, value) */\n      tag_135\n        /* \"https://raw.githubusercontent.com/OpenZeppelin/openzeppelin-contracts/v5.0.2/contracts/token/ERC20/ERC20.sol\":5239:5243  from */\n      dup6\n        /* \"https://raw.githubusercontent.com/OpenZeppelin/openzeppelin-contracts/v5.0.2/contracts/token/ERC20/ERC20.sol\":5245:5247  to */\n      dup6\n        /* \"https://raw.githubusercontent.com/OpenZeppelin/openzeppelin-contracts/v5.0.2/contracts/token/ERC20/ERC20.sol\":5249:5254  value */\n      dup6\n        /* \"https://raw.githubusercontent.com/OpenZeppelin/openzeppelin-contracts/v5.0.2/contracts/token/ERC20/ERC20.sol\":5229:5238  _transfer */\n      tag_136\n        /* \"https://raw.githubusercontent.com/OpenZeppelin/openzeppelin-contracts/v5.0.2/contracts/token/ERC20/ERC20.sol\":5229:5255  _transfer(from, to, value) */\n      jump\t// in\n    tag_135:\n        /* \"https://raw.githubusercontent.com/OpenZeppelin/openzeppelin-contracts/v5.0.2/contracts/token/ERC20/ERC20.sol\":5272:5276  true */\n      0x01\n        /* \"https://raw.githubusercontent.com/OpenZeppelin/openzeppelin-contracts/v5.0.2/contracts/token/ERC20/ERC20.sol\":5265:5276  return true */\n      swap2\n      pop\n      pop\n        /* \"https://raw.githubusercontent.com/OpenZeppelin/openzeppelin-contracts/v5.0.2/contracts/token/ERC20/ERC20.sol\":5039:5283  function transferFrom(address from, address to, uint256 value) public virtual returns (bool) {... */\n      swap4\n      swap3\n      pop\n      pop\n      pop\n      jump\t// out\n        /* \"https://raw.githubusercontent.com/OpenZeppelin/openzeppelin-contracts/v5.0.2/contracts/access/AccessControl.sol\":3810:3930  function getRoleAdmin(bytes32 role) public view virtual returns (bytes32) {... */\n    tag_55:\n        /* \"https://raw.githubusercontent.com/OpenZeppelin/openzeppelin-contracts/v5.0.2/contracts/access/AccessControl.sol\":3875:3882  bytes32 */\n      0x00\n        /* \"https://raw.githubusercontent.com/OpenZeppelin/openzeppelin-contracts/v5.0.2/contracts/access/AccessControl.sol\":3901:3907  _roles */\n      0x05\n        /* \"https://raw.githubusercontent.com/OpenZeppelin/openzeppelin-contracts/v5.0.2/contracts/access/AccessControl.sol\":3901:3913  _roles[role] */\n      0x00\n        /* \"https://raw.githubusercontent.com/OpenZeppelin/openzeppelin-contracts/v5.0.2/contracts/access/AccessControl.sol\":3908:3912  role */\n      dup4\n        /* \"https://raw.githubusercontent.com/OpenZeppelin/openzeppelin-contracts/v5.0.2/contracts/access/AccessControl.sol\":3901:3913  _roles[role] */\n      dup2\n      mstore\n      0x20\n      add\n      swap1\n      dup2\n      mstore\n      0x20\n      add\n      0x00\n      keccak256\n        /* \"https://raw.githubusercontent.com/OpenZeppelin/openzeppelin-contracts/v5.0.2/contracts/access/AccessControl.sol\":3901:3923  _roles[role].adminRole */\n      0x01\n      add\n      sload\n        /* \"https://raw.githubusercontent.com/OpenZeppelin/openzeppelin-contracts/v5.0.2/contracts/access/AccessControl.sol\":3894:3923  return _roles[role].adminRole */\n      swap1\n      pop\n        /* \"https://raw.githubusercontent.com/OpenZeppelin/openzeppelin-contracts/v5.0.2/contracts/access/AccessControl.sol\":3810:3930  function getRoleAdmin(bytes32 role) public view virtual returns (bytes32) {... */\n      swap2\n      swap1\n      pop\n      jump\t// out\n        /* \"https://raw.githubusercontent.com/OpenZeppelin/openzeppelin-contracts/v5.0.2/contracts/access/AccessControl.sol\":4226:4362  function grantRole(bytes32 role, address account) public virtual onlyRole(getRoleAdmin(role)) {... */\n    tag_61:\n        /* \"https://raw.githubusercontent.com/OpenZeppelin/openzeppelin-contracts/v5.0.2/contracts/access/AccessControl.sol\":4300:4318  getRoleAdmin(role) */\n      tag_138\n        /* \"https://raw.githubusercontent.com/OpenZeppelin/openzeppelin-contracts/v5.0.2/contracts/access/AccessControl.sol\":4313:4317  role */\n      dup3\n        /* \"https://raw.githubusercontent.com/OpenZeppelin/openzeppelin-contracts/v5.0.2/contracts/access/AccessControl.sol\":4300:4312  getRoleAdmin */\n      tag_55\n        /* \"https://raw.githubusercontent.com/OpenZeppelin/openzeppelin-contracts/v5.0.2/contracts/access/AccessControl.sol\":4300:4318  getRoleAdmin(role) */\n      jump\t// in\n    tag_138:\n        /* \"https://raw.githubusercontent.com/OpenZeppelin/openzeppelin-contracts/v5.0.2/contracts/access/AccessControl.sol\":2464:2480  _checkRole(role) */\n      tag_140\n        /* \"https://raw.githubusercontent.com/OpenZeppelin/openzeppelin-contracts/v5.0.2/contracts/access/AccessControl.sol\":2475:2479  role */\n      dup2\n        /* \"https://raw.githubusercontent.com/OpenZeppelin/openzeppelin-contracts/v5.0.2/contracts/access/AccessControl.sol\":2464:2474  _checkRole */\n      tag_141\n        /* \"https://raw.githubusercontent.com/OpenZeppelin/openzeppelin-contracts/v5.0.2/contracts/access/AccessControl.sol\":2464:2480  _checkRole(role) */\n      jump\t// in\n    tag_140:\n        /* \"https://raw.githubusercontent.com/OpenZeppelin/openzeppelin-contracts/v5.0.2/contracts/access/AccessControl.sol\":4330:4355  _grantRole(role, account) */\n      tag_143\n        /* \"https://raw.githubusercontent.com/OpenZeppelin/openzeppelin-contracts/v5.0.2/contracts/access/AccessControl.sol\":4341:4345  role */\n      dup4\n        /* \"https://raw.githubusercontent.com/OpenZeppelin/openzeppelin-contracts/v5.0.2/contracts/access/AccessControl.sol\":4347:4354  account */\n      dup4\n        /* \"https://raw.githubusercontent.com/OpenZeppelin/openzeppelin-contracts/v5.0.2/contracts/access/AccessControl.sol\":4330:4340  _grantRole */\n      tag_144\n        /* \"https://raw.githubusercontent.com/OpenZeppelin/openzeppelin-contracts/v5.0.2/contracts/access/AccessControl.sol\":4330:4355  _grantRole(role, account) */\n      jump\t// in\n    tag_143:\n      pop\n        /* \"https://raw.githubusercontent.com/OpenZeppelin/openzeppelin-contracts/v5.0.2/contracts/access/AccessControl.sol\":4226:4362  function grantRole(bytes32 role, address account) public virtual onlyRole(getRoleAdmin(role)) {... */\n      pop\n      pop\n      pop\n      jump\t// out\n        /* \"https://raw.githubusercontent.com/OpenZeppelin/openzeppelin-contracts/v5.0.2/contracts/token/ERC20/ERC20.sol\":3002:3084  function decimals() public view virtual returns (uint8) {... */\n    tag_63:\n        /* \"https://raw.githubusercontent.com/OpenZeppelin/openzeppelin-contracts/v5.0.2/contracts/token/ERC20/ERC20.sol\":3051:3056  uint8 */\n      0x00\n        /* \"https://raw.githubusercontent.com/OpenZeppelin/openzeppelin-contracts/v5.0.2/contracts/token/ERC20/ERC20.sol\":3075:3077  18 */\n      0x12\n        /* \"https://raw.githubusercontent.com/OpenZeppelin/openzeppelin-contracts/v5.0.2/contracts/token/ERC20/ERC20.sol\":3068:3077  return 18 */\n      swap1\n      pop\n        /* \"https://raw.githubusercontent.com/OpenZeppelin/openzeppelin-contracts/v5.0.2/contracts/token/ERC20/ERC20.sol\":3002:3084  function decimals() public view virtual returns (uint8) {... */\n      swap1\n      jump\t// out\n        /* \"https://raw.githubusercontent.com/OpenZeppelin/openzeppelin-contracts/v5.0.2/contracts/access/AccessControl.sol\":5328:5573  function renounceRole(bytes32 role, address callerConfirmation) public virtual {... */\n    tag_68:\n        /* \"https://raw.githubusercontent.com/OpenZeppelin/openzeppelin-contracts/v5.0.2/contracts/access/AccessControl.sol\":5443:5455  _msgSender() */\n      tag_147\n        /* \"https://raw.githubusercontent.com/OpenZeppelin/openzeppelin-contracts/v5.0.2/contracts/access/AccessControl.sol\":5443:5453  _msgSender */\n      tag_127\n        /* \"https://raw.githubusercontent.com/OpenZeppelin/openzeppelin-contracts/v5.0.2/contracts/access/AccessControl.sol\":5443:5455  _msgSender() */\n      jump\t// in\n    tag_147:\n        /* \"https://raw.githubusercontent.com/OpenZeppelin/openzeppelin-contracts/v5.0.2/contracts/access/AccessControl.sol\":5421:5455  callerConfirmation != _msgSender() */\n      0xffffffffffffffffffffffffffffffffffffffff\n      and\n        /* \"https://raw.githubusercontent.com/OpenZeppelin/openzeppelin-contracts/v5.0.2/contracts/access/AccessControl.sol\":5421:5439  callerConfirmation */\n      dup2\n        /* \"https://raw.githubusercontent.com/OpenZeppelin/openzeppelin-contracts/v5.0.2/contracts/access/AccessControl.sol\":5421:5455  callerConfirmation != _msgSender() */\n      0xffffffffffffffffffffffffffffffffffffffff\n      and\n      eq\n        /* \"https://raw.githubusercontent.com/OpenZeppelin/openzeppelin-contracts/v5.0.2/contracts/access/AccessControl.sol\":5417:5519  if (callerConfirmation != _msgSender()) {... */\n      tag_148\n      jumpi\n        /* \"https://raw.githubusercontent.com/OpenZeppelin/openzeppelin-contracts/v5.0.2/contracts/access/AccessControl.sol\":5478:5508  AccessControlBadConfirmation() */\n      mload(0x40)\n      0x6697b23200000000000000000000000000000000000000000000000000000000\n      dup2\n      mstore\n      0x04\n      add\n      mload(0x40)\n      dup1\n      swap2\n      sub\n      swap1\n      revert\n        /* \"https://raw.githubusercontent.com/OpenZeppelin/openzeppelin-contracts/v5.0.2/contracts/access/AccessControl.sol\":5417:5519  if (callerConfirmation != _msgSender()) {... */\n    tag_148:\n        /* \"https://raw.githubusercontent.com/OpenZeppelin/openzeppelin-contracts/v5.0.2/contracts/access/AccessControl.sol\":5529:5566  _revokeRole(role, callerConfirmation) */\n      tag_149\n        /* \"https://raw.githubusercontent.com/OpenZeppelin/openzeppelin-contracts/v5.0.2/contracts/access/AccessControl.sol\":5541:5545  role */\n      dup3\n        /* \"https://raw.githubusercontent.com/OpenZeppelin/openzeppelin-contracts/v5.0.2/contracts/access/AccessControl.sol\":5547:5565  callerConfirmation */\n      dup3\n        /* \"https://raw.githubusercontent.com/OpenZeppelin/openzeppelin-contracts/v5.0.2/contracts/access/AccessControl.sol\":5529:5540  _revokeRole */\n      tag_150\n        /* \"https://raw.githubusercontent.com/OpenZeppelin/openzeppelin-contracts/v5.0.2/contracts/access/AccessControl.sol\":5529:5566  _revokeRole(role, callerConfirmation) */\n      jump\t// in\n    tag_149:\n      pop\n        /* \"https://raw.githubusercontent.com/OpenZeppelin/openzeppelin-contracts/v5.0.2/contracts/access/AccessControl.sol\":5328:5573  function renounceRole(bytes32 role, address callerConfirmation) public virtual {... */\n      pop\n      pop\n      jump\t// out\n        /* \"contracts/RwaToken.sol\":1332:1404  function unpause() external onlyRole(DEFAULT_ADMIN_ROLE) { _unpause(); } */\n    tag_70:\n        /* \"https://raw.githubusercontent.com/OpenZeppelin/openzeppelin-contracts/v5.0.2/contracts/access/AccessControl.sol\":2232:2236  0x00 */\n      0x00\n        /* \"contracts/RwaToken.sol\":1369:1387  DEFAULT_ADMIN_ROLE */\n      0x00\n      shl\n        /* \"https://raw.githubusercontent.com/OpenZeppelin/openzeppelin-contracts/v5.0.2/contracts/access/AccessControl.sol\":2464:2480  _checkRole(role) */\n      tag_152\n        /* \"https://raw.githubusercontent.com/OpenZeppelin/openzeppelin-contracts/v5.0.2/contracts/access/AccessControl.sol\":2475:2479  role */\n      dup2\n        /* \"https://raw.githubusercontent.com/OpenZeppelin/openzeppelin-contracts/v5.0.2/contracts/access/AccessControl.sol\":2464:2474  _checkRole */\n      tag_141\n        /* \"https://raw.githubusercontent.com/OpenZeppelin/openzeppelin-contracts/v5.0.2/contracts/access/AccessControl.sol\":2464:2480  _checkRole(role) */\n      jump\t// in\n    tag_152:\n        /* \"contracts/RwaToken.sol\":1391:1401  _unpause() */\n      tag_154\n        /* \"contracts/RwaToken.sol\":1391:1399  _unpause */\n      tag_155\n        /* \"contracts/RwaToken.sol\":1391:1401  _unpause() */\n      jump\t// in\n    tag_154:\n        /* \"contracts/RwaToken.sol\":1332:1404  function unpause() external onlyRole(DEFAULT_ADMIN_ROLE) { _unpause(); } */\n      pop\n      jump\t// out\n        /* \"https://raw.githubusercontent.com/OpenZeppelin/openzeppelin-contracts/v5.0.2/contracts/utils/Pausable.sol\":1850:1934  function paused() public view virtual returns (bool) {... */\n    tag_72:\n        /* \"https://raw.githubusercontent.com/OpenZeppelin/openzeppelin-contracts/v5.0.2/contracts/utils/Pausable.sol\":1897:1901  bool */\n      0x00\n        /* \"https://raw.githubusercontent.com/OpenZeppelin/openzeppelin-contracts/v5.0.2/contracts/utils/Pausable.sol\":1920:1927  _paused */\n      0x06\n      0x00\n      swap1\n      sload\n      swap1\n      0x0100\n      exp\n      swap1\n      div\n      0xff\n      and\n        /* \"https://raw.githubusercontent.com/OpenZeppelin/openzeppelin-contracts/v5.0.2/contracts/utils/Pausable.sol\":1913:1927  return _paused */\n      swap1\n      pop\n        /* \"https://raw.githubusercontent.com/OpenZeppelin/openzeppelin-contracts/v5.0.2/contracts/utils/Pausable.sol\":1850:1934  function paused() public view virtual returns (bool) {... */\n      swap1\n      jump\t// out\n        /* \"contracts/RwaToken.sol\":832:861  ICompliance public compliance */\n    tag_75:\n      0x06\n      0x01\n      swap1\n      sload\n      swap1\n      0x0100\n      exp\n      swap1\n      div\n      0xffffffffffffffffffffffffffffffffffffffff\n      and\n      dup2\n      jump\t// out\n        /* \"https://raw.githubusercontent.com/OpenZeppelin/openzeppelin-contracts/v5.0.2/contracts/token/ERC20/ERC20.sol\":3299:3415  function balanceOf(address account) public view virtual returns (uint256) {... */\n    tag_81:\n        /* \"https://raw.githubusercontent.com/OpenZeppelin/openzeppelin-contracts/v5.0.2/contracts/token/ERC20/ERC20.sol\":3364:3371  uint256 */\n      0x00\n        /* \"https://raw.githubusercontent.com/OpenZeppelin/openzeppelin-contracts/v5.0.2/contracts/token/ERC20/ERC20.sol\":3390:3399  _balances */\n      0x00\n        /* \"https://raw.githubusercontent.com/OpenZeppelin/openzeppelin-contracts/v5.0.2/contracts/token/ERC20/ERC20.sol\":3390:3408  _balances[account] */\n      0x00\n        /* \"https://raw.githubusercontent.com/OpenZeppelin/openzeppelin-contracts/v5.0.2/contracts/token/ERC20/ERC20.sol\":3400:3407  account */\n      dup4\n        /* \"https://raw.githubusercontent.com/OpenZeppelin/openzeppelin-contracts/v5.0.2/contracts/token/ERC20/ERC20.sol\":3390:3408  _balances[account] */\n      0xffffffffffffffffffffffffffffffffffffffff\n      and\n      0xffffffffffffffffffffffffffffffffffffffff\n      and\n      dup2\n      mstore\n      0x20\n      add\n      swap1\n      dup2\n      mstore\n      0x20\n      add\n      0x00\n      keccak256\n      sload\n        /* \"https://raw.githubusercontent.com/OpenZeppelin/openzeppelin-contracts/v5.0.2/contracts/token/ERC20/ERC20.sol\":3383:3408  return _balances[account] */\n      swap1\n      pop\n        /* \"https://raw.githubusercontent.com/OpenZeppelin/openzeppelin-contracts/v5.0.2/contracts/token/ERC20/ERC20.sol\":3299:3415  function balanceOf(address account) public view virtual returns (uint256) {... */\n      swap2\n      swap1\n      pop\n      jump\t// out\n        /* \"contracts/RwaToken.sol\":764:826  bytes32 public constant ISSUER_ROLE = keccak256(\"ISSUER_ROLE\") */\n    tag_84:\n        /* \"contracts/RwaToken.sol\":802:826  keccak256(\"ISSUER_ROLE\") */\n      0x114e74f6ea3bd819998f78687bfcb11b140da08e9b7d222fa9c1f1ba1f2aa122\n        /* \"contracts/RwaToken.sol\":764:826  bytes32 public constant ISSUER_ROLE = keccak256(\"ISSUER_ROLE\") */\n      dup2\n      jump\t// out\n        /* \"contracts/RwaToken.sol\":1259:1327  function pause() external onlyRole(DEFAULT_ADMIN_ROLE) { _pause(); } */\n    tag_87:\n        /* \"https://raw.githubusercontent.com/OpenZeppelin/openzeppelin-contracts/v5.0.2/contracts/access/AccessControl.sol\":2232:2236  0x00 */\n      0x00\n        /* \"contracts/RwaToken.sol\":1294:1312  DEFAULT_ADMIN_ROLE */\n      0x00\n      shl\n        /* \"https://raw.githubusercontent.com/OpenZeppelin/openzeppelin-contracts/v5.0.2/contracts/access/AccessControl.sol\":2464:2480  _checkRole(role) */\n      tag_159\n        /* \"https://raw.githubusercontent.com/OpenZeppelin/openzeppelin-contracts/v5.0.2/contracts/access/AccessControl.sol\":2475:2479  role */\n      dup2\n        /* \"https://raw.githubusercontent.com/OpenZeppelin/openzeppelin-contracts/v5.0.2/contracts/access/AccessControl.sol\":2464:2474  _checkRole */\n      tag_141\n        /* \"https://raw.githubusercontent.com/OpenZeppelin/openzeppelin-contracts/v5.0.2/contracts/access/AccessControl.sol\":2464:2480  _checkRole(role) */\n      jump\t// in\n    tag_159:\n        /* \"contracts/RwaToken.sol\":1316:1324  _pause() */\n      tag_161\n        /* \"contracts/RwaToken.sol\":1316:1322  _pause */\n      tag_162\n        /* \"contracts/RwaToken.sol\":1316:1324  _pause() */\n      jump\t// in\n    tag_161:\n        /* \"contracts/RwaToken.sol\":1259:1327  function pause() external onlyRole(DEFAULT_ADMIN_ROLE) { _pause(); } */\n      pop\n      jump\t// out\n        /* \"contracts/RwaToken.sol\":1888:2113  function forceTransfer(address from, address to, uint256 value, string calldata reason)... */\n    tag_91:\n        /* \"contracts/RwaToken.sol\":802:826  keccak256(\"ISSUER_ROLE\") */\n      0x114e74f6ea3bd819998f78687bfcb11b140da08e9b7d222fa9c1f1ba1f2aa122\n        /* \"https://raw.githubusercontent.com/OpenZeppelin/openzeppelin-contracts/v5.0.2/contracts/access/AccessControl.sol\":2464:2480  _checkRole(role) */\n      tag_164\n        /* \"https://raw.githubusercontent.com/OpenZeppelin/openzeppelin-contracts/v5.0.2/contracts/access/AccessControl.sol\":2475:2479  role */\n      dup2\n        /* \"https://raw.githubusercontent.com/OpenZeppelin/openzeppelin-contracts/v5.0.2/contracts/access/AccessControl.sol\":2464:2474  _checkRole */\n      tag_141\n        /* \"https://raw.githubusercontent.com/OpenZeppelin/openzeppelin-contracts/v5.0.2/contracts/access/AccessControl.sol\":2464:2480  _checkRole(role) */\n      jump\t// in\n    tag_164:\n        /* \"contracts/RwaToken.sol\":2029:2053  _update(from, to, value) */\n      tag_166\n        /* \"contracts/RwaToken.sol\":2037:2041  from */\n      dup7\n        /* \"contracts/RwaToken.sol\":2043:2045  to */\n      dup7\n        /* \"contracts/RwaToken.sol\":2047:2052  value */\n      dup7\n        /* \"contracts/RwaToken.sol\":2029:2036  _update */\n      tag_167\n        /* \"contracts/RwaToken.sol\":2029:2053  _update(from, to, value) */\n      jump\t// in\n    tag_166:\n        /* \"contracts/RwaToken.sol\":2088:2090  to */\n      dup5\n        /* \"contracts/RwaToken.sol\":2068:2106  ForceTransfer(from, to, value, reason) */\n      0xffffffffffffffffffffffffffffffffffffffff\n      and\n        /* \"contracts/RwaToken.sol\":2082:2086  from */\n      dup7\n        /* \"contracts/RwaToken.sol\":2068:2106  ForceTransfer(from, to, value, reason) */\n      0xffffffffffffffffffffffffffffffffffffffff\n      and\n      0x2eaee783069d2f4cc557477a5af4ed6420985b57c0f64b600e0601415b580ba0\n        /* \"contracts/RwaToken.sol\":2092:2097  value */\n      dup7\n        /* \"contracts/RwaToken.sol\":2099:2105  reason */\n      dup7\n      dup7\n        /* \"contracts/RwaToken.sol\":2068:2106  ForceTransfer(from, to, value, reason) */\n      mload(0x40)\n      tag_168\n      swap4\n      swap3\n      swap2\n      swap1\n      tag_169\n      jump\t// in\n    tag_168:\n      mload(0x40)\n      dup1\n      swap2\n      sub\n      swap1\n      log3\n        /* \"contracts/RwaToken.sol\":1888:2113  function forceTransfer(address from, address to, uint256 value, string calldata reason)... */\n      pop\n      pop\n      pop\n      pop\n      pop\n      pop\n      jump\t// out\n        /* \"https://raw.githubusercontent.com/OpenZeppelin/openzeppelin-contracts/v5.0.2/contracts/access/AccessControl.sol\":2854:2990  function hasRole(bytes32 role, address account) public view virtual returns (bool) {... */\n    tag_94:\n        /* \"https://raw.githubusercontent.com/OpenZeppelin/openzeppelin-contracts/v5.0.2/contracts/access/AccessControl.sol\":2931:2935  bool */\n      0x00\n        /* \"https://raw.githubusercontent.com/OpenZeppelin/openzeppelin-contracts/v5.0.2/contracts/access/AccessControl.sol\":2954:2960  _roles */\n      0x05\n        /* \"https://raw.githubusercontent.com/OpenZeppelin/openzeppelin-contracts/v5.0.2/contracts/access/AccessControl.sol\":2954:2966  _roles[role] */\n      0x00\n        /* \"https://raw.githubusercontent.com/OpenZeppelin/openzeppelin-contracts/v5.0.2/contracts/access/AccessControl.sol\":2961:2965  role */\n      dup5\n        /* \"https://raw.githubusercontent.com/OpenZeppelin/openzeppelin-contracts/v5.0.2/contracts/access/AccessControl.sol\":2954:2966  _roles[role] */\n      dup2\n      mstore\n      0x20\n      add\n      swap1\n      dup2\n      mstore\n      0x20\n      add\n      0x00\n      keccak256\n        /* \"https://raw.githubusercontent.com/OpenZeppelin/openzeppelin-contracts/v5.0.2/contracts/access/AccessControl.sol\":2954:2974  _roles[role].hasRole */\n      0x00\n      add\n        /* \"https://raw.githubusercontent.com/OpenZeppelin/openzeppelin-contracts/v5.0.2/contracts/access/AccessControl.sol\":2954:2983  _roles[role].hasRole[account] */\n      0x00\n        /* \"https://raw.githubusercontent.com/OpenZeppelin/openzeppelin-contracts/v5.0.2/contracts/access/AccessControl.sol\":2975:2982  account */\n      dup4\n        /* \"https://raw.githubusercontent.com/OpenZeppelin/openzeppelin-contracts/v5.0.2/contracts/access/AccessControl.sol\":2954:2983  _roles[role].hasRole[account] */\n      0xffffffffffffffffffffffffffffffffffffffff\n      and\n      0xffffffffffffffffffffffffffffffffffffffff\n      and\n      dup2\n      mstore\n      0x20\n      add\n      swap1\n      dup2\n      mstore\n      0x20\n      add\n      0x00\n      keccak256\n      0x00\n      swap1\n      sload\n      swap1\n      0x0100\n      exp\n      swap1\n      div\n      0xff\n      and\n        /* \"https://raw.githubusercontent.com/OpenZeppelin/openzeppelin-contracts/v5.0.2/contracts/access/AccessControl.sol\":2947:2983  return _roles[role].hasRole[account] */\n      swap1\n      pop\n        /* \"https://raw.githubusercontent.com/OpenZeppelin/openzeppelin-contracts/v5.0.2/contracts/access/AccessControl.sol\":2854:2990  function hasRole(bytes32 role, address account) public view virtual returns (bool) {... */\n      swap3\n      swap2\n      pop\n      pop\n      jump\t// out\n        /* \"https://raw.githubusercontent.com/OpenZeppelin/openzeppelin-contracts/v5.0.2/contracts/token/ERC20/ERC20.sol\":2276:2369  function symbol() public view virtual returns (string memory) {... */\n    tag_97:\n        /* \"https://raw.githubusercontent.com/OpenZeppelin/openzeppelin-contracts/v5.0.2/contracts/token/ERC20/ERC20.sol\":2323:2336  string memory */\n      0x60\n        /* \"https://raw.githubusercontent.com/OpenZeppelin/openzeppelin-contracts/v5.0.2/contracts/token/ERC20/ERC20.sol\":2355:2362  _symbol */\n      0x04\n        /* \"https://raw.githubusercontent.com/OpenZeppelin/openzeppelin-contracts/v5.0.2/contracts/token/ERC20/ERC20.sol\":2348:2362  return _symbol */\n      dup1\n      sload\n      tag_172\n      swap1\n      tag_120\n      jump\t// in\n    tag_172:\n      dup1\n      0x1f\n      add\n      0x20\n      dup1\n      swap2\n      div\n      mul\n      0x20\n      add\n      mload(0x40)\n      swap1\n      dup2\n      add\n      0x40\n      mstore\n      dup1\n      swap3\n      swap2\n      swap1\n      dup2\n      dup2\n      mstore\n      0x20\n      add\n      dup3\n      dup1\n      sload\n      tag_173\n      swap1\n      tag_120\n      jump\t// in\n    tag_173:\n      dup1\n      iszero\n      tag_174\n      jumpi\n      dup1\n      0x1f\n      lt\n      tag_175\n      jumpi\n      0x0100\n      dup1\n      dup4\n      sload\n      div\n      mul\n      dup4\n      mstore\n      swap2\n      0x20\n      add\n      swap2\n      jump(tag_174)\n    tag_175:\n      dup3\n      add\n      swap2\n      swap1\n      0x00\n      mstore\n      keccak256(0x00, 0x20)\n      swap1\n    tag_176:\n      dup2\n      sload\n      dup2\n      mstore\n      swap1\n      0x01\n      add\n      swap1\n      0x20\n      add\n      dup1\n      dup4\n      gt\n      tag_176\n      jumpi\n      dup3\n      swap1\n      sub\n      0x1f\n      and\n      dup3\n      add\n      swap2\n    tag_174:\n      pop\n      pop\n      pop\n      pop\n      pop\n      swap1\n      pop\n        /* \"https://raw.githubusercontent.com/OpenZeppelin/openzeppelin-contracts/v5.0.2/contracts/token/ERC20/ERC20.sol\":2276:2369  function symbol() public view virtual returns (string memory) {... */\n      swap1\n      jump\t// out\n        /* \"https://raw.githubusercontent.com/OpenZeppelin/openzeppelin-contracts/v5.0.2/contracts/access/AccessControl.sol\":2187:2236  bytes32 public constant DEFAULT_ADMIN_ROLE = 0x00 */\n    tag_100:\n        /* \"https://raw.githubusercontent.com/OpenZeppelin/openzeppelin-contracts/v5.0.2/contracts/access/AccessControl.sol\":2232:2236  0x00 */\n      0x00\n        /* \"https://raw.githubusercontent.com/OpenZeppelin/openzeppelin-contracts/v5.0.2/contracts/access/AccessControl.sol\":2187:2236  bytes32 public constant DEFAULT_ADMIN_ROLE = 0x00 */\n      0x00\n      shl\n      dup2\n      jump\t// out\n        /* \"https://raw.githubusercontent.com/OpenZeppelin/openzeppelin-contracts/v5.0.2/contracts/token/ERC20/ERC20.sol\":3610:3788  function transfer(address to, uint256 value) public virtual returns (bool) {... */\n    tag_104:\n        /* \"https://raw.githubusercontent.com/OpenZeppelin/openzeppelin-contracts/v5.0.2/contracts/token/ERC20/ERC20.sol\":3679:3683  bool */\n      0x00\n        /* \"https://raw.githubusercontent.com/OpenZeppelin/openzeppelin-contracts/v5.0.2/contracts/token/ERC20/ERC20.sol\":3695:3708  address owner */\n      0x00\n        /* \"https://raw.githubusercontent.com/OpenZeppelin/openzeppelin-contracts/v5.0.2/contracts/token/ERC20/ERC20.sol\":3711:3723  _msgSender() */\n      tag_178\n        /* \"https://raw.githubusercontent.com/OpenZeppelin/openzeppelin-contracts/v5.0.2/contracts/token/ERC20/ERC20.sol\":3711:3721  _msgSender */\n      tag_127\n        /* \"https://raw.githubusercontent.com/OpenZeppelin/openzeppelin-contracts/v5.0.2/contracts/token/ERC20/ERC20.sol\":3711:3723  _msgSender() */\n      jump\t// in\n    tag_178:\n        /* \"https://raw.githubusercontent.com/OpenZeppelin/openzeppelin-contracts/v5.0.2/contracts/token/ERC20/ERC20.sol\":3695:3723  address owner = _msgSender() */\n      swap1\n      pop\n        /* \"https://raw.githubusercontent.com/OpenZeppelin/openzeppelin-contracts/v5.0.2/contracts/token/ERC20/ERC20.sol\":3733:3760  _transfer(owner, to, value) */\n      tag_179\n        /* \"https://raw.githubusercontent.com/OpenZeppelin/openzeppelin-contracts/v5.0.2/contracts/token/ERC20/ERC20.sol\":3743:3748  owner */\n      dup2\n        /* \"https://raw.githubusercontent.com/OpenZeppelin/openzeppelin-contracts/v5.0.2/contracts/token/ERC20/ERC20.sol\":3750:3752  to */\n      dup6\n        /* \"https://raw.githubusercontent.com/OpenZeppelin/openzeppelin-contracts/v5.0.2/contracts/token/ERC20/ERC20.sol\":3754:3759  value */\n      dup6\n        /* \"https://raw.githubusercontent.com/OpenZeppelin/openzeppelin-contracts/v5.0.2/contracts/token/ERC20/ERC20.sol\":3733:3742  _transfer */\n      tag_136\n        /* \"https://raw.githubusercontent.com/OpenZeppelin/openzeppelin-contracts/v5.0.2/contracts/token/ERC20/ERC20.sol\":3733:3760  _transfer(owner, to, value) */\n      jump\t// in\n    tag_179:\n        /* \"https://raw.githubusercontent.com/OpenZeppelin/openzeppelin-contracts/v5.0.2/contracts/token/ERC20/ERC20.sol\":3777:3781  true */\n      0x01\n        /* \"https://raw.githubusercontent.com/OpenZeppelin/openzeppelin-contracts/v5.0.2/contracts/token/ERC20/ERC20.sol\":3770:3781  return true */\n      swap2\n      pop\n      pop\n        /* \"https://raw.githubusercontent.com/OpenZeppelin/openzeppelin-contracts/v5.0.2/contracts/token/ERC20/ERC20.sol\":3610:3788  function transfer(address to, uint256 value) public virtual returns (bool) {... */\n      swap3\n      swap2\n      pop\n      pop\n      jump\t// out\n        /* \"https://raw.githubusercontent.com/OpenZeppelin/openzeppelin-contracts/v5.0.2/contracts/access/AccessControl.sol\":4642:4780  function revokeRole(bytes32 role, address account) public virtual onlyRole(getRoleAdmin(role)) {... */\n    tag_108:\n        /* \"https://raw.githubusercontent.com/OpenZeppelin/openzeppelin-contracts/v5.0.2/contracts/access/AccessControl.sol\":4717:4735  getRoleAdmin(role) */\n      tag_180\n        /* \"https://raw.githubusercontent.com/OpenZeppelin/openzeppelin-contracts/v5.0.2/contracts/access/AccessControl.sol\":4730:4734  role */\n      dup3\n        /* \"https://raw.githubusercontent.com/OpenZeppelin/openzeppelin-contracts/v5.0.2/contracts/access/AccessControl.sol\":4717:4729  getRoleAdmin */\n      tag_55\n        /* \"https://raw.githubusercontent.com/OpenZeppelin/openzeppelin-contracts/v5.0.2/contracts/access/AccessControl.sol\":4717:4735  getRoleAdmin(role) */\n      jump\t// in\n    tag_180:\n        /* \"https://raw.githubusercontent.com/OpenZeppelin/openzeppelin-contracts/v5.0.2/contracts/access/AccessControl.sol\":2464:2480  _checkRole(role) */\n      tag_182\n        /* \"https://raw.githubusercontent.com/OpenZeppelin/openzeppelin-contracts/v5.0.2/contracts/access/AccessControl.sol\":2475:2479  role */\n      dup2\n        /* \"https://raw.githubusercontent.com/OpenZeppelin/openzeppelin-contracts/v5.0.2/contracts/access/AccessControl.sol\":2464:2474  _checkRole */\n      tag_141\n        /* \"https://raw.githubusercontent.com/OpenZeppelin/openzeppelin-contracts/v5.0.2/contracts/access/AccessControl.sol\":2464:2480  _checkRole(role) */\n      jump\t// in\n    tag_182:\n        /* \"https://raw.githubusercontent.com/OpenZeppelin/openzeppelin-contracts/v5.0.2/contracts/access/AccessControl.sol\":4747:4773  _revokeRole(role, account) */\n      tag_184\n        /* \"https://raw.githubusercontent.com/OpenZeppelin/openzeppelin-contracts/v5.0.2/contracts/access/AccessControl.sol\":4759:4763  role */\n      dup4\n        /* \"https://raw.githubusercontent.com/OpenZeppelin/openzeppelin-contracts/v5.0.2/contracts/access/AccessControl.sol\":4765:4772  account */\n      dup4\n        /* \"https://raw.githubusercontent.com/OpenZeppelin/openzeppelin-contracts/v5.0.2/contracts/access/AccessControl.sol\":4747:4758  _revokeRole */\n      tag_150\n        /* \"https://raw.githubusercontent.com/OpenZeppelin/openzeppelin-contracts/v5.0.2/contracts/access/AccessControl.sol\":4747:4773  _revokeRole(role, account) */\n      jump\t// in\n    tag_184:\n      pop\n        /* \"https://raw.githubusercontent.com/OpenZeppelin/openzeppelin-contracts/v5.0.2/contracts/access/AccessControl.sol\":4642:4780  function revokeRole(bytes32 role, address account) public virtual onlyRole(getRoleAdmin(role)) {... */\n      pop\n      pop\n      pop\n      jump\t// out\n        /* \"https://raw.githubusercontent.com/OpenZeppelin/openzeppelin-contracts/v5.0.2/contracts/token/ERC20/ERC20.sol\":3846:3986  function allowance(address owner, address spender) public view virtual returns (uint256) {... */\n    tag_112:\n        /* \"https://raw.githubusercontent.com/OpenZeppelin/openzeppelin-contracts/v5.0.2/contracts/token/ERC20/ERC20.sol\":3926:3933  uint256 */\n      0x00\n        /* \"https://raw.githubusercontent.com/OpenZeppelin/openzeppelin-contracts/v5.0.2/contracts/token/ERC20/ERC20.sol\":3952:3963  _allowances */\n      0x01\n        /* \"https://raw.githubusercontent.com/OpenZeppelin/openzeppelin-contracts/v5.0.2/contracts/token/ERC20/ERC20.sol\":3952:3970  _allowances[owner] */\n      0x00\n        /* \"https://raw.githubusercontent.com/OpenZeppelin/openzeppelin-contracts/v5.0.2/contracts/token/ERC20/ERC20.sol\":3964:3969  owner */\n      dup5\n        /* \"https://raw.githubusercontent.com/OpenZeppelin/openzeppelin-contracts/v5.0.2/contracts/token/ERC20/ERC20.sol\":3952:3970  _allowances[owner] */\n      0xffffffffffffffffffffffffffffffffffffffff\n      and\n      0xffffffffffffffffffffffffffffffffffffffff\n      and\n      dup2\n      mstore\n      0x20\n      add\n      swap1\n      dup2\n      mstore\n      0x20\n      add\n      0x00\n      keccak256\n        /* \"https://raw.githubusercontent.com/OpenZeppelin/openzeppelin-contracts/v5.0.2/contracts/token/ERC20/ERC20.sol\":3952:3979  _allowances[owner][spender] */\n      0x00\n        /* \"https://raw.githubusercontent.com/OpenZeppelin/openzeppelin-contracts/v5.0.2/contracts/token/ERC20/ERC20.sol\":3971:3978  spender */\n      dup4\n        /* \"https://raw.githubusercontent.com/OpenZeppelin/openzeppelin-contracts/v5.0.2/contracts/token/ERC20/ERC20.sol\":3952:3979  _allowances[owner][spender] */\n      0xffffffffffffffffffffffffffffffffffffffff\n      and\n      0xffffffffffffffffffffffffffffffffffffffff\n      and\n      dup2\n      mstore\n      0x20\n      add\n      swap1\n      dup2\n      mstore\n      0x20\n      add\n      0x00\n      keccak256\n      sload\n        /* \"https://raw.githubusercontent.com/OpenZeppelin/openzeppelin-contracts/v5.0.2/contracts/token/ERC20/ERC20.sol\":3945:3979  return _allowances[owner][spender] */\n      swap1\n      pop\n        /* \"https://raw.githubusercontent.com/OpenZeppelin/openzeppelin-contracts/v5.0.2/contracts/token/ERC20/ERC20.sol\":3846:3986  function allowance(address owner, address spender) public view virtual returns (uint256) {... */\n      swap3\n      swap2\n      pop\n      pop\n      jump\t// out\n        /* \"https://raw.githubusercontent.com/OpenZeppelin/openzeppelin-contracts/v5.0.2/contracts/utils/introspection/ERC165.sol\":762:908  function supportsInterface(bytes4 interfaceId) public view virtual returns (bool) {... */\n    tag_117:\n        /* \"https://raw.githubusercontent.com/OpenZeppelin/openzeppelin-contracts/v5.0.2/contracts/utils/introspection/ERC165.sol\":838:842  bool */\n      0x00\n        /* \"https://raw.githubusercontent.com/OpenZeppelin/openzeppelin-contracts/v5.0.2/contracts/utils/introspection/ERC165.sol\":876:901  type(IERC165).interfaceId */\n      0x01ffc9a700000000000000000000000000000000000000000000000000000000\n        /* \"https://raw.githubusercontent.com/OpenZeppelin/openzeppelin-contracts/v5.0.2/contracts/utils/introspection/ERC165.sol\":861:901  interfaceId == type(IERC165).interfaceId */\n      not(0xffffffffffffffffffffffffffffffffffffffffffffffffffffffff)\n      and\n        /* \"https://raw.githubusercontent.com/OpenZeppelin/openzeppelin-contracts/v5.0.2/contracts/utils/introspection/ERC165.sol\":861:872  interfaceId */\n      dup3\n        /* \"https://raw.githubusercontent.com/OpenZeppelin/openzeppelin-contracts/v5.0.2/contracts/utils/introspection/ERC165.sol\":861:901  interfaceId == type(IERC165).interfaceId */\n      not(0xffffffffffffffffffffffffffffffffffffffffffffffffffffffff)\n      and\n      eq\n        /* \"https://raw.githubusercontent.com/OpenZeppelin/openzeppelin-contracts/v5.0.2/contracts/utils/introspection/ERC165.sol\":854:901  return interfaceId == type(IERC165).interfaceId */\n      swap1\n      pop\n        /* \"https://raw.githubusercontent.com/OpenZeppelin/openzeppelin-contracts/v5.0.2/contracts/utils/introspection/ERC165.sol\":762:908  function supportsInterface(bytes4 interfaceId) public view virtual returns (bool) {... */\n      swap2\n      swap1\n      pop\n      jump\t// out\n        /* \"https://raw.githubusercontent.com/OpenZeppelin/openzeppelin-contracts/v5.0.2/contracts/utils/Context.sol\":656:752  function _msgSender() internal view virtual returns (address) {... */\n    tag_127:\n        /* \"https://raw.githubusercontent.com/OpenZeppelin/openzeppelin-contracts/v5.0.2/contracts/utils/Context.sol\":709:716  address */\n      0x00\n        /* \"https://raw.githubusercontent.com/OpenZeppelin/openzeppelin-contracts/v5.0.2/contracts/utils/Context.sol\":735:745  msg.sender */\n      caller\n        /* \"https://raw.githubusercontent.com/OpenZeppelin/openzeppelin-contracts/v5.0.2/contracts/utils/Context.sol\":728:745  return msg.sender */\n      swap1\n      pop\n        /* \"https://raw.githubusercontent.com/OpenZeppelin/openzeppelin-contracts/v5.0.2/contracts/utils/Context.sol\":656:752  function _msgSender() internal view virtual returns (address) {... */\n      swap1\n      jump\t// out\n        /* \"https://raw.githubusercontent.com/OpenZeppelin/openzeppelin-contracts/v5.0.2/contracts/token/ERC20/ERC20.sol\":8989:9117  function _approve(address owner, address spender, uint256 value) internal {... */\n    tag_129:\n        /* \"https://raw.githubusercontent.com/OpenZeppelin/openzeppelin-contracts/v5.0.2/contracts/token/ERC20/ERC20.sol\":9073:9110  _approve(owner, spender, value, true) */\n      tag_189\n        /* \"https://raw.githubusercontent.com/OpenZeppelin/openzeppelin-contracts/v5.0.2/contracts/token/ERC20/ERC20.sol\":9082:9087  owner */\n      dup4\n        /* \"https://raw.githubusercontent.com/OpenZeppelin/openzeppelin-contracts/v5.0.2/contracts/token/ERC20/ERC20.sol\":9089:9096  spender */\n      dup4\n        /* \"https://raw.githubusercontent.com/OpenZeppelin/openzeppelin-contracts/v5.0.2/contracts/token/ERC20/ERC20.sol\":9098:9103  value */\n      dup4\n        /* \"https://raw.githubusercontent.com/OpenZeppelin/openzeppelin-contracts/v5.0.2/contracts/token/ERC20/ERC20.sol\":9105:9109  true */\n      0x01\n        /* \"https://raw.githubusercontent.com/OpenZeppelin/openzeppelin-contracts/v5.0.2/contracts/token/ERC20/ERC20.sol\":9073:9081  _approve */\n      tag_190\n        /* \"https://raw.githubusercontent.com/OpenZeppelin/openzeppelin-contracts/v5.0.2/contracts/token/ERC20/ERC20.sol\":9073:9110  _approve(owner, spender, value, true) */\n      jump\t// in\n    tag_189:\n        /* \"https://raw.githubusercontent.com/OpenZeppelin/openzeppelin-contracts/v5.0.2/contracts/token/ERC20/ERC20.sol\":8989:9117  function _approve(address owner, address spender, uint256 value) internal {... */\n      pop\n      pop\n      pop\n      jump\t// out\n        /* \"https://raw.githubusercontent.com/OpenZeppelin/openzeppelin-contracts/v5.0.2/contracts/token/ERC20/ERC20.sol\":10663:11140  function _spendAllowance(address owner, address spender, uint256 value) internal virtual {... */\n    tag_134:\n        /* \"https://raw.githubusercontent.com/OpenZeppelin/openzeppelin-contracts/v5.0.2/contracts/token/ERC20/ERC20.sol\":10762:10786  uint256 currentAllowance */\n      0x00\n        /* \"https://raw.githubusercontent.com/OpenZeppelin/openzeppelin-contracts/v5.0.2/contracts/token/ERC20/ERC20.sol\":10789:10814  allowance(owner, spender) */\n      tag_192\n        /* \"https://raw.githubusercontent.com/OpenZeppelin/openzeppelin-contracts/v5.0.2/contracts/token/ERC20/ERC20.sol\":10799:10804  owner */\n      dup5\n        /* \"https://raw.githubusercontent.com/OpenZeppelin/openzeppelin-contracts/v5.0.2/contracts/token/ERC20/ERC20.sol\":10806:10813  spender */\n      dup5\n        /* \"https://raw.githubusercontent.com/OpenZeppelin/openzeppelin-contracts/v5.0.2/contracts/token/ERC20/ERC20.sol\":10789:10798  allowance */\n      tag_112\n        /* \"https://raw.githubusercontent.com/OpenZeppelin/openzeppelin-contracts/v5.0.2/contracts/token/ERC20/ERC20.sol\":10789:10814  allowance(owner, spender) */\n      jump\t// in\n    tag_192:\n        /* \"https://raw.githubusercontent.com/OpenZeppelin/openzeppelin-contracts/v5.0.2/contracts/token/ERC20/ERC20.sol\":10762:10814  uint256 currentAllowance = allowance(owner, spender) */\n      swap1\n      pop\n        /* \"https://raw.githubusercontent.com/OpenZeppelin/openzeppelin-contracts/v5.0.2/contracts/token/ERC20/ERC20.sol\":10848:10865  type(uint256).max */\n      0xffffffffffffffffffffffffffffffffffffffffffffffffffffffffffffffff\n        /* \"https://raw.githubusercontent.com/OpenZeppelin/openzeppelin-contracts/v5.0.2/contracts/token/ERC20/ERC20.sol\":10828:10844  currentAllowance */\n      dup2\n        /* \"https://raw.githubusercontent.com/OpenZeppelin/openzeppelin-contracts/v5.0.2/contracts/token/ERC20/ERC20.sol\":10828:10865  currentAllowance != type(uint256).max */\n      eq\n        /* \"https://raw.githubusercontent.com/OpenZeppelin/openzeppelin-contracts/v5.0.2/contracts/token/ERC20/ERC20.sol\":10824:11134  if (currentAllowance != type(uint256).max) {... */\n      tag_193\n      jumpi\n        /* \"https://raw.githubusercontent.com/OpenZeppelin/openzeppelin-contracts/v5.0.2/contracts/token/ERC20/ERC20.sol\":10904:10909  value */\n      dup2\n        /* \"https://raw.githubusercontent.com/OpenZeppelin/openzeppelin-contracts/v5.0.2/contracts/token/ERC20/ERC20.sol\":10885:10901  currentAllowance */\n      dup2\n        /* \"https://raw.githubusercontent.com/OpenZeppelin/openzeppelin-contracts/v5.0.2/contracts/token/ERC20/ERC20.sol\":10885:10909  currentAllowance < value */\n      lt\n        /* \"https://raw.githubusercontent.com/OpenZeppelin/openzeppelin-contracts/v5.0.2/contracts/token/ERC20/ERC20.sol\":10881:11011  if (currentAllowance < value) {... */\n      iszero\n      tag_194\n      jumpi\n        /* \"https://raw.githubusercontent.com/OpenZeppelin/openzeppelin-contracts/v5.0.2/contracts/token/ERC20/ERC20.sol\":10963:10970  spender */\n      dup3\n        /* \"https://raw.githubusercontent.com/OpenZeppelin/openzeppelin-contracts/v5.0.2/contracts/token/ERC20/ERC20.sol\":10972:10988  currentAllowance */\n      dup2\n        /* \"https://raw.githubusercontent.com/OpenZeppelin/openzeppelin-contracts/v5.0.2/contracts/token/ERC20/ERC20.sol\":10990:10995  value */\n      dup4\n        /* \"https://raw.githubusercontent.com/OpenZeppelin/openzeppelin-contracts/v5.0.2/contracts/token/ERC20/ERC20.sol\":10936:10996  ERC20InsufficientAllowance(spender, currentAllowance, value) */\n      mload(0x40)\n      0xfb8f41b200000000000000000000000000000000000000000000000000000000\n      dup2\n      mstore\n      0x04\n      add\n      tag_195\n      swap4\n      swap3\n      swap2\n      swap1\n      tag_196\n      jump\t// in\n    tag_195:\n      mload(0x40)\n      dup1\n      swap2\n      sub\n      swap1\n      revert\n        /* \"https://raw.githubusercontent.com/OpenZeppelin/openzeppelin-contracts/v5.0.2/contracts/token/ERC20/ERC20.sol\":10881:11011  if (currentAllowance < value) {... */\n    tag_194:\n        /* \"https://raw.githubusercontent.com/OpenZeppelin/openzeppelin-contracts/v5.0.2/contracts/token/ERC20/ERC20.sol\":11052:11109  _approve(owner, spender, currentAllowance - value, false) */\n      tag_197\n        /* \"https://raw.githubusercontent.com/OpenZeppelin/openzeppelin-contracts/v5.0.2/contracts/token/ERC20/ERC20.sol\":11061:11066  owner */\n      dup5\n        /* \"https://raw.githubusercontent.com/OpenZeppelin/openzeppelin-contracts/v5.0.2/contracts/token/ERC20/ERC20.sol\":11068:11075  spender */\n      dup5\n        /* \"https://raw.githubusercontent.com/OpenZeppelin/openzeppelin-contracts/v5.0.2/contracts/token/ERC20/ERC20.sol\":11096:11101  value */\n      dup5\n        /* \"https://raw.githubusercontent.com/OpenZeppelin/openzeppelin-contracts/v5.0.2/contracts/token/ERC20/ERC20.sol\":11077:11093  currentAllowance */\n      dup5\n        /* \"https://raw.githubusercontent.com/OpenZeppelin/openzeppelin-contracts/v5.0.2/contracts/token/ERC20/ERC20.sol\":11077:11101  currentAllowance - value */\n      sub\n        /* \"https://raw.githubusercontent.com/OpenZeppelin/openzeppelin-contracts/v5.0.2/contracts/token/ERC20/ERC20.sol\":11103:11108  false */\n      0x00\n        /* \"https://raw.githubusercontent.com/OpenZeppelin/openzeppelin-contracts/v5.0.2/contracts/token/ERC20/ERC20.sol\":11052:11060  _approve */\n      tag_190\n        /* \"https://raw.githubusercontent.com/OpenZeppelin/openzeppelin-contracts/v5.0.2/contracts/token/ERC20/ERC20.sol\":11052:11109  _approve(owner, spender, currentAllowance - value, false) */\n      jump\t// in\n    tag_197:\n        /* \"https://raw.githubusercontent.com/OpenZeppelin/openzeppelin-contracts/v5.0.2/contracts/token/ERC20/ERC20.sol\":10824:11134  if (currentAllowance != type(uint256).max) {... */\n    tag_193:\n        /* \"https://raw.githubusercontent.com/OpenZeppelin/openzeppelin-contracts/v5.0.2/contracts/token/ERC20/ERC20.sol\":10752:11140  {... */\n      pop\n        /* \"https://raw.githubusercontent.com/OpenZeppelin/openzeppelin-contracts/v5.0.2/contracts/token/ERC20/ERC20.sol\":10663:11140  function _spendAllowance(address owner, address spender, uint256 value) internal virtual {... */\n      pop\n      pop\n      pop\n      jump\t// out\n        /* \"https://raw.githubusercontent.com/OpenZeppelin/openzeppelin-contracts/v5.0.2/contracts/token/ERC20/ERC20.sol\":5656:5956  function _transfer(address from, address to, uint256 value) internal {... */\n    tag_136:\n        /* \"https://raw.githubusercontent.com/OpenZeppelin/openzeppelin-contracts/v5.0.2/contracts/token/ERC20/ERC20.sol\":5755:5756  0 */\n      0x00\n        /* \"https://raw.githubusercontent.com/OpenZeppelin/openzeppelin-contracts/v5.0.2/contracts/token/ERC20/ERC20.sol\":5739:5757  from == address(0) */\n      0xffffffffffffffffffffffffffffffffffffffff\n      and\n        /* \"https://raw.githubusercontent.com/OpenZeppelin/openzeppelin-contracts/v5.0.2/contracts/token/ERC20/ERC20.sol\":5739:5743  from */\n      dup4\n        /* \"https://raw.githubusercontent.com/OpenZeppelin/openzeppelin-contracts/v5.0.2/contracts/token/ERC20/ERC20.sol\":5739:5757  from == address(0) */\n      0xffffffffffffffffffffffffffffffffffffffff\n      and\n      sub\n        /* \"https://raw.githubusercontent.com/OpenZeppelin/openzeppelin-contracts/v5.0.2/contracts/token/ERC20/ERC20.sol\":5735:5821  if (from == address(0)) {... */\n      tag_199\n      jumpi\n        /* \"https://raw.githubusercontent.com/OpenZeppelin/openzeppelin-contracts/v5.0.2/contracts/token/ERC20/ERC20.sol\":5807:5808  0 */\n      0x00\n        /* \"https://raw.githubusercontent.com/OpenZeppelin/openzeppelin-contracts/v5.0.2/contracts/token/ERC20/ERC20.sol\":5780:5810  ERC20InvalidSender(address(0)) */\n      mload(0x40)\n      0x96c6fd1e00000000000000000000000000000000000000000000000000000000\n      dup2\n      mstore\n      0x04\n      add\n      tag_200\n      swap2\n      swap1\n      tag_201\n      jump\t// in\n    tag_200:\n      mload(0x40)\n      dup1\n      swap2\n      sub\n      swap1\n      revert\n        /* \"https://raw.githubusercontent.com/OpenZeppelin/openzeppelin-contracts/v5.0.2/contracts/token/ERC20/ERC20.sol\":5735:5821  if (from == address(0)) {... */\n    tag_199:\n        /* \"https://raw.githubusercontent.com/OpenZeppelin/openzeppelin-contracts/v5.0.2/contracts/token/ERC20/ERC20.sol\":5848:5849  0 */\n      0x00\n        /* \"https://raw.githubusercontent.com/OpenZeppelin/openzeppelin-contracts/v5.0.2/contracts/token/ERC20/ERC20.sol\":5834:5850  to == address(0) */\n      0xffffffffffffffffffffffffffffffffffffffff\n      and\n        /* \"https://raw.githubusercontent.com/OpenZeppelin/openzeppelin-contracts/v5.0.2/contracts/token/ERC20/ERC20.sol\":5834:5836  to */\n      dup3\n        /* \"https://raw.githubusercontent.com/OpenZeppelin/openzeppelin-contracts/v5.0.2/contracts/token/ERC20/ERC20.sol\":5834:5850  to == address(0) */\n      0xffffffffffffffffffffffffffffffffffffffff\n      and\n      sub\n        /* \"https://raw.githubusercontent.com/OpenZeppelin/openzeppelin-contracts/v5.0.2/contracts/token/ERC20/ERC20.sol\":5830:5916  if (to == address(0)) {... */\n      tag_202\n      jumpi\n        /* \"https://raw.githubusercontent.com/OpenZeppelin/openzeppelin-contracts/v5.0.2/contracts/token/ERC20/ERC20.sol\":5902:5903  0 */\n      0x00\n        /* \"https://raw.githubusercontent.com/OpenZeppelin/openzeppelin-contracts/v5.0.2/contracts/token/ERC20/ERC20.sol\":5873:5905  ERC20InvalidReceiver(address(0)) */\n      mload(0x40)\n      0xec442f0500000000000000000000000000000000000000000000000000000000\n      dup2\n      mstore\n      0x04\n      add\n      tag_203\n      swap2\n      swap1\n      tag_201\n      jump\t// in\n    tag_203:\n      mload(0x40)\n      dup1\n      swap2\n      sub\n      swap1\n      revert\n        /* \"https://raw.githubusercontent.com/OpenZeppelin/openzeppelin-contracts/v5.0.2/contracts/token/ERC20/ERC20.sol\":5830:5916  if (to == address(0)) {... */\n    tag_202:\n        /* \"https://raw.githubusercontent.com/OpenZeppelin/openzeppelin-contracts/v5.0.2/contracts/token/ERC20/ERC20.sol\":5925:5949  _update(from, to, value) */\n      tag_204\n        /* \"https://raw.githubusercontent.com/OpenZeppelin/openzeppelin-contracts/v5.0.2/contracts/token/ERC20/ERC20.sol\":5933:5937  from */\n      dup4\n        /* \"https://raw.githubusercontent.com/OpenZeppelin/openzeppelin-contracts/v5.0.2/contracts/token/ERC20/ERC20.sol\":5939:5941  to */\n      dup4\n        /* \"https://raw.githubusercontent.com/OpenZeppelin/openzeppelin-contracts/v5.0.2/contracts/token/ERC20/ERC20.sol\":5943:5948  value */\n      dup4\n        /* \"https://raw.githubusercontent.com/OpenZeppelin/openzeppelin-contracts/v5.0.2/contracts/token/ERC20/ERC20.sol\":5925:5932  _update */\n      tag_167\n        /* \"https://raw.githubusercontent.com/OpenZeppelin/openzeppelin-contracts/v5.0.2/contracts/token/ERC20/ERC20.sol\":5925:5949  _update(from, to, value) */\n      jump\t// in\n    tag_204:\n        /* \"https://raw.githubusercontent.com/OpenZeppelin/openzeppelin-contracts/v5.0.2/contracts/token/ERC20/ERC20.sol\":5656:5956  function _transfer(address from, address to, uint256 value) internal {... */\n      pop\n      pop\n      pop\n      jump\t// out\n        /* \"https://raw.githubusercontent.com/OpenZeppelin/openzeppelin-contracts/v5.0.2/contracts/access/AccessControl.sol\":3199:3302  function _checkRole(bytes32 role) internal view virtual {... */\n    tag_141:\n        /* \"https://raw.githubusercontent.com/OpenZeppelin/openzeppelin-contracts/v5.0.2/contracts/access/AccessControl.sol\":3265:3295  _checkRole(role, _msgSender()) */\n      tag_206\n        /* \"https://raw.githubusercontent.com/OpenZeppelin/openzeppelin-contracts/v5.0.2/contracts/access/AccessControl.sol\":3276:3280  role */\n      dup2\n        /* \"https://raw.githubusercontent.com/OpenZeppelin/openzeppelin-contracts/v5.0.2/contracts/access/AccessControl.sol\":3282:3294  _msgSender() */\n      tag_207\n        /* \"https://raw.githubusercontent.com/OpenZeppelin/openzeppelin-contracts/v5.0.2/contracts/access/AccessControl.sol\":3282:3292  _msgSender */\n      tag_127\n        /* \"https://raw.githubusercontent.com/OpenZeppelin/openzeppelin-contracts/v5.0.2/contracts/access/AccessControl.sol\":3282:3294  _msgSender() */\n      jump\t// in\n    tag_207:\n        /* \"https://raw.githubusercontent.com/OpenZeppelin/openzeppelin-contracts/v5.0.2/contracts/access/AccessControl.sol\":3265:3275  _checkRole */\n      tag_208\n        /* \"https://raw.githubusercontent.com/OpenZeppelin/openzeppelin-contracts/v5.0.2/contracts/access/AccessControl.sol\":3265:3295  _checkRole(role, _msgSender()) */\n      jump\t// in\n    tag_206:\n        /* \"https://raw.githubusercontent.com/OpenZeppelin/openzeppelin-contracts/v5.0.2/contracts/access/AccessControl.sol\":3199:3302  function _checkRole(bytes32 role) internal view virtual {... */\n      pop\n      jump\t// out\n        /* \"https://raw.githubusercontent.com/OpenZeppelin/openzeppelin-contracts/v5.0.2/contracts/access/AccessControl.sol\":6179:6495  function _grantRole(bytes32 role, address account) internal virtual returns (bool) {... */\n    tag_144:\n        /* \"https://raw.githubusercontent.com/OpenZeppelin/openzeppelin-contracts/v5.0.2/contracts/access/AccessControl.sol\":6256:6260  bool */\n      0x00\n        /* \"https://raw.githubusercontent.com/OpenZeppelin/openzeppelin-contracts/v5.0.2/contracts/access/AccessControl.sol\":6277:6299  hasRole(role, account) */\n      tag_210\n        /* \"https://raw.githubusercontent.com/OpenZeppelin/openzeppelin-contracts/v5.0.2/contracts/access/AccessControl.sol\":6285:6289  role */\n      dup4\n        /* \"https://raw.githubusercontent.com/OpenZeppelin/openzeppelin-contracts/v5.0.2/contracts/access/AccessControl.sol\":6291:6298  account */\n      dup4\n        /* \"https://raw.githubusercontent.com/OpenZeppelin/openzeppelin-contracts/v5.0.2/contracts/access/AccessControl.sol\":6277:6284  hasRole */\n      tag_94\n        /* \"https://raw.githubusercontent.com/OpenZeppelin/openzeppelin-contracts/v5.0.2/contracts/access/AccessControl.sol\":6277:6299  hasRole(role, account) */\n      jump\t// in\n    tag_210:\n        /* \"https://raw.githubusercontent.com/OpenZeppelin/openzeppelin-contracts/v5.0.2/contracts/access/AccessControl.sol\":6272:6489  if (!hasRole(role, account)) {... */\n      tag_211\n      jumpi\n        /* \"https://raw.githubusercontent.com/OpenZeppelin/openzeppelin-contracts/v5.0.2/contracts/access/AccessControl.sol\":6347:6351  true */\n      0x01\n        /* \"https://raw.githubusercontent.com/OpenZeppelin/openzeppelin-contracts/v5.0.2/contracts/access/AccessControl.sol\":6315:6321  _roles */\n      0x05\n        /* \"https://raw.githubusercontent.com/OpenZeppelin/openzeppelin-contracts/v5.0.2/contracts/access/AccessControl.sol\":6315:6327  _roles[role] */\n      0x00\n        /* \"https://raw.githubusercontent.com/OpenZeppelin/openzeppelin-contracts/v5.0.2/contracts/access/AccessControl.sol\":6322:6326  role */\n      dup6\n        /* \"https://raw.githubusercontent.com/OpenZeppelin/openzeppelin-contracts/v5.0.2/contracts/access/AccessControl.sol\":6315:6327  _roles[role] */\n      dup2\n      mstore\n      0x20\n      add\n      swap1\n      dup2\n      mstore\n      0x20\n      add\n      0x00\n      keccak256\n        /* \"https://raw.githubusercontent.com/OpenZeppelin/openzeppelin-contracts/v5.0.2/contracts/access/AccessControl.sol\":6315:6335  _roles[role].hasRole */\n      0x00\n      add\n        /* \"https://raw.githubusercontent.com/OpenZeppelin/openzeppelin-contracts/v5.0.2/contracts/access/AccessControl.sol\":6315:6344  _roles[role].hasRole[account] */\n      0x00\n        /* \"https://raw.githubusercontent.com/OpenZeppelin/openzeppelin-contracts/v5.0.2/contracts/access/AccessControl.sol\":6336:6343  account */\n      dup5\n        /* \"https://raw.githubusercontent.com/OpenZeppelin/openzeppelin-contracts/v5.0.2/contracts/access/AccessControl.sol\":6315:6344  _roles[role].hasRole[account] */\n      0xffffffffffffffffffffffffffffffffffffffff\n      and\n      0xffffffffffffffffffffffffffffffffffffffff\n      and\n      dup2\n      mstore\n      0x20\n      add\n      swap1\n      dup2\n      mstore\n      0x20\n      add\n      0x00\n      keccak256\n      0x00\n        /* \"https://raw.githubusercontent.com/OpenZeppelin/openzeppelin-contracts/v5.0.2/contracts/access/AccessControl.sol\":6315:6351  _roles[role].hasRole[account] = true */\n      0x0100\n      exp\n      dup2\n      sload\n      dup2\n      0xff\n      mul\n      not\n      and\n      swap1\n      dup4\n      iszero\n      iszero\n      mul\n      or\n      swap1\n      sstore\n      pop\n        /* \"https://raw.githubusercontent.com/OpenZeppelin/openzeppelin-contracts/v5.0.2/contracts/access/AccessControl.sol\":6397:6409  _msgSender() */\n      tag_212\n        /* \"https://raw.githubusercontent.com/OpenZeppelin/openzeppelin-contracts/v5.0.2/contracts/access/AccessControl.sol\":6397:6407  _msgSender */\n      tag_127\n        /* \"https://raw.githubusercontent.com/OpenZeppelin/openzeppelin-contracts/v5.0.2/contracts/access/AccessControl.sol\":6397:6409  _msgSender() */\n      jump\t// in\n    tag_212:\n        /* \"https://raw.githubusercontent.com/OpenZeppelin/openzeppelin-contracts/v5.0.2/contracts/access/AccessControl.sol\":6370:6410  RoleGranted(role, account, _msgSender()) */\n      0xffffffffffffffffffffffffffffffffffffffff\n      and\n        /* \"https://raw.githubusercontent.com/OpenZeppelin/openzeppelin-contracts/v5.0.2/contracts/access/AccessControl.sol\":6388:6395  account */\n      dup3\n        /* \"https://raw.githubusercontent.com/OpenZeppelin/openzeppelin-contracts/v5.0.2/contracts/access/AccessControl.sol\":6370:6410  RoleGranted(role, account, _msgSender()) */\n      0xffffffffffffffffffffffffffffffffffffffff\n      and\n        /* \"https://raw.githubusercontent.com/OpenZeppelin/openzeppelin-contracts/v5.0.2/contracts/access/AccessControl.sol\":6382:6386  role */\n      dup5\n        /* \"https://raw.githubusercontent.com/OpenZeppelin/openzeppelin-contracts/v5.0.2/contracts/access/AccessControl.sol\":6370:6410  RoleGranted(role, account, _msgSender()) */\n      0x2f8788117e7eff1d82e926ec794901d17c78024a50270940304540a733656f0d\n      mload(0x40)\n      mload(0x40)\n      dup1\n      swap2\n      sub\n      swap1\n      log4\n        /* \"https://raw.githubusercontent.com/OpenZeppelin/openzeppelin-contracts/v5.0.2/contracts/access/AccessControl.sol\":6431:6435  true */\n      0x01\n        /* \"https://raw.githubusercontent.com/OpenZeppelin/openzeppelin-contracts/v5.0.2/contracts/access/AccessControl.sol\":6424:6435  return true */\n      swap1\n      pop\n      jump(tag_209)\n        /* \"https://raw.githubusercontent.com/OpenZeppelin/openzeppelin-contracts/v5.0.2/contracts/access/AccessControl.sol\":6272:6489  if (!hasRole(role, account)) {... */\n    tag_211:\n        /* \"https://raw.githubusercontent.com/OpenZeppelin/openzeppelin-contracts/v5.0.2/contracts/access/AccessControl.sol\":6473:6478  false */\n      0x00\n        /* \"https://raw.githubusercontent.com/OpenZeppelin/openzeppelin-contracts/v5.0.2/contracts/access/AccessControl.sol\":6466:6478  return false */\n      swap1\n      pop\n        /* \"https://raw.githubusercontent.com/OpenZeppelin/openzeppelin-contracts/v5.0.2/contracts/access/AccessControl.sol\":6179:6495  function _grantRole(bytes32 role, address account) internal virtual returns (bool) {... */\n    tag_209:\n      swap3\n      swap2\n      pop\n      pop\n      jump\t// out\n        /* \"https://raw.githubusercontent.com/OpenZeppelin/openzeppelin-contracts/v5.0.2/contracts/access/AccessControl.sol\":6730:7047  function _revokeRole(bytes32 role, address account) internal virtual returns (bool) {... */\n    tag_150:\n        /* \"https://raw.githubusercontent.com/OpenZeppelin/openzeppelin-contracts/v5.0.2/contracts/access/AccessControl.sol\":6808:6812  bool */\n      0x00\n        /* \"https://raw.githubusercontent.com/OpenZeppelin/openzeppelin-contracts/v5.0.2/contracts/access/AccessControl.sol\":6828:6850  hasRole(role, account) */\n      tag_215\n        /* \"https://raw.githubusercontent.com/OpenZeppelin/openzeppelin-contracts/v5.0.2/contracts/access/AccessControl.sol\":6836:6840  role */\n      dup4\n        /* \"https://raw.githubusercontent.com/OpenZeppelin/openzeppelin-contracts/v5.0.2/contracts/access/AccessControl.sol\":6842:6849  account */\n      dup4\n        /* \"https://raw.githubusercontent.com/OpenZeppelin/openzeppelin-contracts/v5.0.2/contracts/access/AccessControl.sol\":6828:6835  hasRole */\n      tag_94\n        /* \"https://raw.githubusercontent.com/OpenZeppelin/openzeppelin-contracts/v5.0.2/contracts/access/AccessControl.sol\":6828:6850  hasRole(role, account) */\n      jump\t// in\n    tag_215:\n        /* \"https://raw.githubusercontent.com/OpenZeppelin/openzeppelin-contracts/v5.0.2/contracts/access/AccessControl.sol\":6824:7041  if (hasRole(role, account)) {... */\n      iszero\n      tag_216\n      jumpi\n        /* \"https://raw.githubusercontent.com/OpenZeppelin/openzeppelin-contracts/v5.0.2/contracts/access/AccessControl.sol\":6898:6903  false */\n      0x00\n        /* \"https://raw.githubusercontent.com/OpenZeppelin/openzeppelin-contracts/v5.0.2/contracts/access/AccessControl.sol\":6866:6872  _roles */\n      0x05\n        /* \"https://raw.githubusercontent.com/OpenZeppelin/openzeppelin-contracts/v5.0.2/contracts/access/AccessControl.sol\":6866:6878  _roles[role] */\n      0x00\n        /* \"https://raw.githubusercontent.com/OpenZeppelin/openzeppelin-contracts/v5.0.2/contracts/access/AccessControl.sol\":6873:6877  role */\n      dup6\n        /* \"https://raw.githubusercontent.com/OpenZeppelin/openzeppelin-contracts/v5.0.2/contracts/access/AccessControl.sol\":6866:6878  _roles[role] */\n      dup2\n      mstore\n      0x20\n      add\n      swap1\n      dup2\n      mstore\n      0x20\n      add\n      0x00\n      keccak256\n        /* \"https://raw.githubusercontent.com/OpenZeppelin/openzeppelin-contracts/v5.0.2/contracts/access/AccessControl.sol\":6866:6886  _roles[role].hasRole */\n      0x00\n      add\n        /* \"https://raw.githubusercontent.com/OpenZeppelin/openzeppelin-contracts/v5.0.2/contracts/access/AccessControl.sol\":6866:6895  _roles[role].hasRole[account] */\n      0x00\n        /* \"https://raw.githubusercontent.com/OpenZeppelin/openzeppelin-contracts/v5.0.2/contracts/access/AccessControl.sol\":6887:6894  account */\n      dup5\n        /* \"https://raw.githubusercontent.com/OpenZeppelin/openzeppelin-contracts/v5.0.2/contracts/access/AccessControl.sol\":6866:6895  _roles[role].hasRole[account] */\n      0xffffffffffffffffffffffffffffffffffffffff\n      and\n      0xffffffffffffffffffffffffffffffffffffffff\n      and\n      dup2\n      mstore\n      0x20\n      add\n      swap1\n      dup2\n      mstore\n      0x20\n      add\n      0x00\n      keccak256\n      0x00\n        /* \"https://raw.githubusercontent.com/OpenZeppelin/openzeppelin-contracts/v5.0.2/contracts/access/AccessControl.sol\":6866:6903  _roles[role].hasRole[account] = false */\n      0x0100\n      exp\n      dup2\n      sload\n      dup2\n      0xff\n      mul\n      not\n      and\n      swap1\n      dup4\n      iszero\n      iszero\n      mul\n      or\n      swap1\n      sstore\n      pop\n        /* \"https://raw.githubusercontent.com/OpenZeppelin/openzeppelin-contracts/v5.0.2/contracts/access/AccessControl.sol\":6949:6961  _msgSender() */\n      tag_217\n        /* \"https://raw.githubusercontent.com/OpenZeppelin/openzeppelin-contracts/v5.0.2/contracts/access/AccessControl.sol\":6949:6959  _msgSender */\n      tag_127\n        /* \"https://raw.githubusercontent.com/OpenZeppelin/openzeppelin-contracts/v5.0.2/contracts/access/AccessControl.sol\":6949:6961  _msgSender() */\n      jump\t// in\n    tag_217:\n        /* \"https://raw.githubusercontent.com/OpenZeppelin/openzeppelin-contracts/v5.0.2/contracts/access/AccessControl.sol\":6922:6962  RoleRevoked(role, account, _msgSender()) */\n      0xffffffffffffffffffffffffffffffffffffffff\n      and\n        /* \"https://raw.githubusercontent.com/OpenZeppelin/openzeppelin-contracts/v5.0.2/contracts/access/AccessControl.sol\":6940:6947  account */\n      dup3\n        /* \"https://raw.githubusercontent.com/OpenZeppelin/openzeppelin-contracts/v5.0.2/contracts/access/AccessControl.sol\":6922:6962  RoleRevoked(role, account, _msgSender()) */\n      0xffffffffffffffffffffffffffffffffffffffff\n      and\n        /* \"https://raw.githubusercontent.com/OpenZeppelin/openzeppelin-contracts/v5.0.2/contracts/access/AccessControl.sol\":6934:6938  role */\n      dup5\n        /* \"https://raw.githubusercontent.com/OpenZeppelin/openzeppelin-contracts/v5.0.2/contracts/access/AccessControl.sol\":6922:6962  RoleRevoked(role, account, _msgSender()) */\n      0xf6391f5c32d9c69d2a47ea670b442974b53935d1edc7fd64eb21e047a839171b\n      mload(0x40)\n      mload(0x40)\n      dup1\n      swap2\n      sub\n      swap1\n      log4\n        /* \"https://raw.githubusercontent.com/OpenZeppelin/openzeppelin-contracts/v5.0.2/contracts/access/AccessControl.sol\":6983:6987  true */\n      0x01\n        /* \"https://raw.githubusercontent.com/OpenZeppelin/openzeppelin-contracts/v5.0.2/contracts/access/AccessControl.sol\":6976:6987  return true */\n      swap1\n      pop\n      jump(tag_214)\n        /* \"https://raw.githubusercontent.com/OpenZeppelin/openzeppelin-contracts/v5.0.2/contracts/access/AccessControl.sol\":6824:7041  if (hasRole(role, account)) {... */\n    tag_216:\n        /* \"https://raw.githubusercontent.com/OpenZeppelin/openzeppelin-contracts/v5.0.2/contracts/access/AccessControl.sol\":7025:7030  false */\n      0x00\n        /* \"https://raw.githubusercontent.com/OpenZeppelin/openzeppelin-contracts/v5.0.2/contracts/access/AccessControl.sol\":7018:7030  return false */\n      swap1\n      pop\n        /* \"https://raw.githubusercontent.com/OpenZeppelin/openzeppelin-contracts/v5.0.2/contracts/access/AccessControl.sol\":6730:7047  function _revokeRole(bytes32 role, address account) internal virtual returns (bool) {... */\n    tag_214:\n      swap3\n      swap2\n      pop\n      pop\n      jump\t// out\n        /* \"https://raw.githubusercontent.com/OpenZeppelin/openzeppelin-contracts/v5.0.2/contracts/utils/Pausable.sol\":2710:2827  function _unpause() internal virtual whenPaused {... */\n    tag_155:\n        /* \"https://raw.githubusercontent.com/OpenZeppelin/openzeppelin-contracts/v5.0.2/contracts/utils/Pausable.sol\":1721:1737  _requirePaused() */\n      tag_220\n        /* \"https://raw.githubusercontent.com/OpenZeppelin/openzeppelin-contracts/v5.0.2/contracts/utils/Pausable.sol\":1721:1735  _requirePaused */\n      tag_221\n        /* \"https://raw.githubusercontent.com/OpenZeppelin/openzeppelin-contracts/v5.0.2/contracts/utils/Pausable.sol\":1721:1737  _requirePaused() */\n      jump\t// in\n    tag_220:\n        /* \"https://raw.githubusercontent.com/OpenZeppelin/openzeppelin-contracts/v5.0.2/contracts/utils/Pausable.sol\":2778:2783  false */\n      0x00\n        /* \"https://raw.githubusercontent.com/OpenZeppelin/openzeppelin-contracts/v5.0.2/contracts/utils/Pausable.sol\":2768:2775  _paused */\n      0x06\n      0x00\n        /* \"https://raw.githubusercontent.com/OpenZeppelin/openzeppelin-contracts/v5.0.2/contracts/utils/Pausable.sol\":2768:2783  _paused = false */\n      0x0100\n      exp\n      dup2\n      sload\n      dup2\n      0xff\n      mul\n      not\n      and\n      swap1\n      dup4\n      iszero\n      iszero\n      mul\n      or\n      swap1\n      sstore\n      pop\n        /* \"https://raw.githubusercontent.com/OpenZeppelin/openzeppelin-contracts/v5.0.2/contracts/utils/Pausable.sol\":2798:2820  Unpaused(_msgSender()) */\n      0x5db9ee0a495bf2e6ff9c91a7834c1ba4fdd244a5e8aa4e537bd38aeae4b073aa\n        /* \"https://raw.githubusercontent.com/OpenZeppelin/openzeppelin-contracts/v5.0.2/contracts/utils/Pausable.sol\":2807:2819  _msgSender() */\n      tag_223\n        /* \"https://raw.githubusercontent.com/OpenZeppelin/openzeppelin-contracts/v5.0.2/contracts/utils/Pausable.sol\":2807:2817  _msgSender */\n      tag_127\n        /* \"https://raw.githubusercontent.com/OpenZeppelin/openzeppelin-contracts/v5.0.2/contracts/utils/Pausable.sol\":2807:2819  _msgSender() */\n      jump\t// in\n    tag_223:\n        /* \"https://raw.githubusercontent.com/OpenZeppelin/openzeppelin-contracts/v5.0.2/contracts/utils/Pausable.sol\":2798:2820  Unpaused(_msgSender()) */\n      mload(0x40)\n      tag_224\n      swap2\n      swap1\n      tag_201\n      jump\t// in\n    tag_224:\n      mload(0x40)\n      dup1\n      swap2\n      sub\n      swap1\n      log1\n        /* \"https://raw.githubusercontent.com/OpenZeppelin/openzeppelin-contracts/v5.0.2/contracts/utils/Pausable.sol\":2710:2827  function _unpause() internal virtual whenPaused {... */\n      jump\t// out\n        /* \"https://raw.githubusercontent.com/OpenZeppelin/openzeppelin-contracts/v5.0.2/contracts/utils/Pausable.sol\":2463:2578  function _pause() internal virtual whenNotPaused {... */\n    tag_162:\n        /* \"https://raw.githubusercontent.com/OpenZeppelin/openzeppelin-contracts/v5.0.2/contracts/utils/Pausable.sol\":1474:1493  _requireNotPaused() */\n      tag_226\n        /* \"https://raw.githubusercontent.com/OpenZeppelin/openzeppelin-contracts/v5.0.2/contracts/utils/Pausable.sol\":1474:1491  _requireNotPaused */\n      tag_227\n        /* \"https://raw.githubusercontent.com/OpenZeppelin/openzeppelin-contracts/v5.0.2/contracts/utils/Pausable.sol\":1474:1493  _requireNotPaused() */\n      jump\t// in\n    tag_226:\n        /* \"https://raw.githubusercontent.com/OpenZeppelin/openzeppelin-contracts/v5.0.2/contracts/utils/Pausable.sol\":2532:2536  true */\n      0x01\n        /* \"https://raw.githubusercontent.com/OpenZeppelin/openzeppelin-contracts/v5.0.2/contracts/utils/Pausable.sol\":2522:2529  _paused */\n      0x06\n      0x00\n        /* \"https://raw.githubusercontent.com/OpenZeppelin/openzeppelin-contracts/v5.0.2/contracts/utils/Pausable.sol\":2522:2536  _paused = true */\n      0x0100\n      exp\n      dup2\n      sload\n      dup2\n      0xff\n      mul\n      not\n      and\n      swap1\n      dup4\n      iszero\n      iszero\n      mul\n      or\n      swap1\n      sstore\n      pop\n        /* \"https://raw.githubusercontent.com/OpenZeppelin/openzeppelin-contracts/v5.0.2/contracts/utils/Pausable.sol\":2551:2571  Paused(_msgSender()) */\n      0x62e78cea01bee320cd4e420270b5ea74000d11b0c9f74754ebdbfc544b05a258\n        /* \"https://raw.githubusercontent.com/OpenZeppelin/openzeppelin-contracts/v5.0.2/contracts/utils/Pausable.sol\":2558:2570  _msgSender() */\n      tag_229\n        /* \"https://raw.githubusercontent.com/OpenZeppelin/openzeppelin-contracts/v5.0.2/contracts/utils/Pausable.sol\":2558:2568  _msgSender */\n      tag_127\n        /* \"https://raw.githubusercontent.com/OpenZeppelin/openzeppelin-contracts/v5.0.2/contracts/utils/Pausable.sol\":2558:2570  _msgSender() */\n      jump\t// in\n    tag_229:\n        /* \"https://raw.githubusercontent.com/OpenZeppelin/openzeppelin-contracts/v5.0.2/contracts/utils/Pausable.sol\":2551:2571  Paused(_msgSender()) */\n      mload(0x40)\n      tag_230\n      swap2\n      swap1\n      tag_201\n      jump\t// in\n    tag_230:\n      mload(0x40)\n      dup1\n      swap2\n      sub\n      swap1\n      log1\n        /* \"https://raw.githubusercontent.com/OpenZeppelin/openzeppelin-contracts/v5.0.2/contracts/utils/Pausable.sol\":2463:2578  function _pause() internal virtual whenNotPaused {... */\n      jump\t// out\n        /* \"contracts/RwaToken.sol\":1410:1808  function _update(address from, address to, uint256 value) internal override {... */\n    tag_167:\n        /* \"contracts/RwaToken.sol\":1505:1513  paused() */\n      tag_232\n        /* \"contracts/RwaToken.sol\":1505:1511  paused */\n      tag_72\n        /* \"contracts/RwaToken.sol\":1505:1513  paused() */\n      jump\t// in\n    tag_232:\n        /* \"contracts/RwaToken.sol\":1504:1513  !paused() */\n      iszero\n        /* \"contracts/RwaToken.sol\":1496:1524  require(!paused(), \"paused\") */\n      tag_233\n      jumpi\n      mload(0x40)\n      0x08c379a000000000000000000000000000000000000000000000000000000000\n      dup2\n      mstore\n      0x04\n      add\n      tag_234\n      swap1\n      tag_235\n      jump\t// in\n    tag_234:\n      mload(0x40)\n      dup1\n      swap2\n      sub\n      swap1\n      revert\n    tag_233:\n        /* \"contracts/RwaToken.sol\":1554:1555  0 */\n      0x00\n        /* \"contracts/RwaToken.sol\":1538:1556  from != address(0) */\n      0xffffffffffffffffffffffffffffffffffffffff\n      and\n        /* \"contracts/RwaToken.sol\":1538:1542  from */\n      dup4\n        /* \"contracts/RwaToken.sol\":1538:1556  from != address(0) */\n      0xffffffffffffffffffffffffffffffffffffffff\n      and\n      eq\n      iszero\n        /* \"contracts/RwaToken.sol\":1538:1576  from != address(0) || to != address(0) */\n      dup1\n      tag_236\n      jumpi\n      pop\n        /* \"contracts/RwaToken.sol\":1574:1575  0 */\n      0x00\n        /* \"contracts/RwaToken.sol\":1560:1576  to != address(0) */\n      0xffffffffffffffffffffffffffffffffffffffff\n      and\n        /* \"contracts/RwaToken.sol\":1560:1562  to */\n      dup3\n        /* \"contracts/RwaToken.sol\":1560:1576  to != address(0) */\n      0xffffffffffffffffffffffffffffffffffffffff\n      and\n      eq\n      iszero\n        /* \"contracts/RwaToken.sol\":1538:1576  from != address(0) || to != address(0) */\n    tag_236:\n        /* \"contracts/RwaToken.sol\":1534:1762  if (from != address(0) || to != address(0)) {... */\n      iszero\n      tag_237\n      jumpi\n        /* \"contracts/RwaToken.sol\":1593:1600  bool ok */\n      0x00\n        /* \"contracts/RwaToken.sol\":1602:1616  uint256 reason */\n      0x00\n        /* \"contracts/RwaToken.sol\":1620:1630  compliance */\n      0x06\n      0x01\n      swap1\n      sload\n      swap1\n      0x0100\n      exp\n      swap1\n      div\n      0xffffffffffffffffffffffffffffffffffffffff\n      and\n        /* \"contracts/RwaToken.sol\":1620:1642  compliance.canTransfer */\n      0xffffffffffffffffffffffffffffffffffffffff\n      and\n      0x9d6232fa\n        /* \"contracts/RwaToken.sol\":1643:1647  from */\n      dup7\n        /* \"contracts/RwaToken.sol\":1649:1651  to */\n      dup7\n        /* \"contracts/RwaToken.sol\":1653:1658  value */\n      dup7\n        /* \"contracts/RwaToken.sol\":1620:1663  compliance.canTransfer(from, to, value, \"\") */\n      mload(0x40)\n      dup5\n      0xffffffff\n      and\n      0xe0\n      shl\n      dup2\n      mstore\n      0x04\n      add\n      tag_238\n      swap4\n      swap3\n      swap2\n      swap1\n      tag_239\n      jump\t// in\n    tag_238:\n      0x40\n      dup1\n      mload\n      dup1\n      dup4\n      sub\n      dup2\n      dup7\n      gas\n      staticcall\n      iszero\n      dup1\n      iszero\n      tag_241\n      jumpi\n      returndatacopy(0x00, 0x00, returndatasize)\n      revert(0x00, returndatasize)\n    tag_241:\n      pop\n      pop\n      pop\n      pop\n      mload(0x40)\n      returndatasize\n      not(0x1f)\n      0x1f\n      dup3\n      add\n      and\n      dup3\n      add\n      dup1\n      0x40\n      mstore\n      pop\n      dup2\n      add\n      swap1\n      tag_242\n      swap2\n      swap1\n      tag_243\n      jump\t// in\n    tag_242:\n        /* \"contracts/RwaToken.sol\":1592:1663  (bool ok, uint256 reason) = compliance.canTransfer(from, to, value, \"\") */\n      swap2\n      pop\n      swap2\n      pop\n        /* \"contracts/RwaToken.sol\":1685:1687  ok */\n      dup2\n        /* \"contracts/RwaToken.sol\":1734:1748  _toStr(reason) */\n      tag_244\n        /* \"contracts/RwaToken.sol\":1741:1747  reason */\n      dup3\n        /* \"contracts/RwaToken.sol\":1734:1740  _toStr */\n      tag_245\n        /* \"contracts/RwaToken.sol\":1734:1748  _toStr(reason) */\n      jump\t// in\n    tag_244:\n        /* \"contracts/RwaToken.sol\":1696:1749  abi.encodePacked(\"compliance fail: \", _toStr(reason)) */\n      add(0x20, mload(0x40))\n      tag_246\n      swap2\n      swap1\n      tag_247\n      jump\t// in\n    tag_246:\n      mload(0x40)\n      0x20\n      dup2\n      dup4\n      sub\n      sub\n      dup2\n      mstore\n      swap1\n      0x40\n      mstore\n        /* \"contracts/RwaToken.sol\":1677:1751  require(ok, string(abi.encodePacked(\"compliance fail: \", _toStr(reason)))) */\n      swap1\n      tag_248\n      jumpi\n      mload(0x40)\n      0x08c379a000000000000000000000000000000000000000000000000000000000\n      dup2\n      mstore\n      0x04\n      add\n      tag_249\n      swap2\n      swap1\n      tag_37\n      jump\t// in\n    tag_249:\n      mload(0x40)\n      dup1\n      swap2\n      sub\n      swap1\n      revert\n    tag_248:\n      pop\n        /* \"contracts/RwaToken.sol\":1578:1762  {... */\n      pop\n      pop\n        /* \"contracts/RwaToken.sol\":1534:1762  if (from != address(0) || to != address(0)) {... */\n    tag_237:\n        /* \"contracts/RwaToken.sol\":1771:1801  super._update(from, to, value) */\n      tag_250\n        /* \"contracts/RwaToken.sol\":1785:1789  from */\n      dup4\n        /* \"contracts/RwaToken.sol\":1791:1793  to */\n      dup4\n        /* \"contracts/RwaToken.sol\":1795:1800  value */\n      dup4\n        /* \"contracts/RwaToken.sol\":1771:1784  super._update */\n      tag_251\n        /* \"contracts/RwaToken.sol\":1771:1801  super._update(from, to, value) */\n      jump\t// in\n    tag_250:\n        /* \"contracts/RwaToken.sol\":1410:1808  function _update(address from, address to, uint256 value) internal override {... */\n      pop\n      pop\n      pop\n      jump\t// out\n        /* \"https://raw.githubusercontent.com/OpenZeppelin/openzeppelin-contracts/v5.0.2/contracts/token/ERC20/ERC20.sol\":9949:10381  function _approve(address owner, address spender, uint256 value, bool emitEvent) internal virtual {... */\n    tag_190:\n        /* \"https://raw.githubusercontent.com/OpenZeppelin/openzeppelin-contracts/v5.0.2/contracts/token/ERC20/ERC20.sol\":10078:10079  0 */\n      0x00\n        /* \"https://raw.githubusercontent.com/OpenZeppelin/openzeppelin-contracts/v5.0.2/contracts/token/ERC20/ERC20.sol\":10061:10080  owner == address(0) */\n      0xffffffffffffffffffffffffffffffffffffffff\n      and\n        /* \"https://raw.githubusercontent.com/OpenZeppelin/openzeppelin-contracts/v5.0.2/contracts/token/ERC20/ERC20.sol\":10061:10066  owner */\n      dup5\n        /* \"https://raw.githubusercontent.com/OpenZeppelin/openzeppelin-contracts/v5.0.2/contracts/token/ERC20/ERC20.sol\":10061:10080  owner == address(0) */\n      0xffffffffffffffffffffffffffffffffffffffff\n      and\n      sub\n        /* \"https://raw.githubusercontent.com/OpenZeppelin/openzeppelin-contracts/v5.0.2/contracts/token/ERC20/ERC20.sol\":10057:10146  if (owner == address(0)) {... */\n      tag_253\n      jumpi\n        /* \"https://raw.githubusercontent.com/OpenZeppelin/openzeppelin-contracts/v5.0.2/contracts/token/ERC20/ERC20.sol\":10132:10133  0 */\n      0x00\n        /* \"https://raw.githubusercontent.com/OpenZeppelin/openzeppelin-contracts/v5.0.2/contracts/token/ERC20/ERC20.sol\":10103:10135  ERC20InvalidApprover(address(0)) */\n      mload(0x40)\n      0xe602df0500000000000000000000000000000000000000000000000000000000\n      dup2\n      mstore\n      0x04\n      add\n      tag_254\n      swap2\n      swap1\n      tag_201\n      jump\t// in\n    tag_254:\n      mload(0x40)\n      dup1\n      swap2\n      sub\n      swap1\n      revert\n        /* \"https://raw.githubusercontent.com/OpenZeppelin/openzeppelin-contracts/v5.0.2/contracts/token/ERC20/ERC20.sol\":10057:10146  if (owner == address(0)) {... */\n    tag_253:\n        /* \"https://raw.githubusercontent.com/OpenZeppelin/openzeppelin-contracts/v5.0.2/contracts/token/ERC20/ERC20.sol\":10178:10179  0 */\n      0x00\n        /* \"https://raw.githubusercontent.com/OpenZeppelin/openzeppelin-contracts/v5.0.2/contracts/token/ERC20/ERC20.sol\":10159:10180  spender == address(0) */\n      0xffffffffffffffffffffffffffffffffffffffff\n      and\n        /* \"https://raw.githubusercontent.com/OpenZeppelin/openzeppelin-contracts/v5.0.2/contracts/token/ERC20/ERC20.sol\":10159:10166  spender */\n      dup4\n        /* \"https://raw.githubusercontent.com/OpenZeppelin/openzeppelin-contracts/v5.0.2/contracts/token/ERC20/ERC20.sol\":10159:10180  spender == address(0) */\n      0xffffffffffffffffffffffffffffffffffffffff\n      and\n      sub\n        /* \"https://raw.githubusercontent.com/OpenZeppelin/openzeppelin-contracts/v5.0.2/contracts/token/ERC20/ERC20.sol\":10155:10245  if (spender == address(0)) {... */\n      tag_255\n      jumpi\n        /* \"https://raw.githubusercontent.com/OpenZeppelin/openzeppelin-contracts/v5.0.2/contracts/token/ERC20/ERC20.sol\":10231:10232  0 */\n      0x00\n        /* \"https://raw.githubusercontent.com/OpenZeppelin/openzeppelin-contracts/v5.0.2/contracts/token/ERC20/ERC20.sol\":10203:10234  ERC20InvalidSpender(address(0)) */\n      mload(0x40)\n      0x94280d6200000000000000000000000000000000000000000000000000000000\n      dup2\n      mstore\n      0x04\n      add\n      tag_256\n      swap2\n      swap1\n      tag_201\n      jump\t// in\n    tag_256:\n      mload(0x40)\n      dup1\n      swap2\n      sub\n      swap1\n      revert\n        /* \"https://raw.githubusercontent.com/OpenZeppelin/openzeppelin-contracts/v5.0.2/contracts/token/ERC20/ERC20.sol\":10155:10245  if (spender == address(0)) {... */\n    tag_255:\n        /* \"https://raw.githubusercontent.com/OpenZeppelin/openzeppelin-contracts/v5.0.2/contracts/token/ERC20/ERC20.sol\":10284:10289  value */\n      dup2\n        /* \"https://raw.githubusercontent.com/OpenZeppelin/openzeppelin-contracts/v5.0.2/contracts/token/ERC20/ERC20.sol\":10254:10265  _allowances */\n      0x01\n        /* \"https://raw.githubusercontent.com/OpenZeppelin/openzeppelin-contracts/v5.0.2/contracts/token/ERC20/ERC20.sol\":10254:10272  _allowances[owner] */\n      0x00\n        /* \"https://raw.githubusercontent.com/OpenZeppelin/openzeppelin-contracts/v5.0.2/contracts/token/ERC20/ERC20.sol\":10266:10271  owner */\n      dup7\n        /* \"https://raw.githubusercontent.com/OpenZeppelin/openzeppelin-contracts/v5.0.2/contracts/token/ERC20/ERC20.sol\":10254:10272  _allowances[owner] */\n      0xffffffffffffffffffffffffffffffffffffffff\n      and\n      0xffffffffffffffffffffffffffffffffffffffff\n      and\n      dup2\n      mstore\n      0x20\n      add\n      swap1\n      dup2\n      mstore\n      0x20\n      add\n      0x00\n      keccak256\n        /* \"https://raw.githubusercontent.com/OpenZeppelin/openzeppelin-contracts/v5.0.2/contracts/token/ERC20/ERC20.sol\":10254:10281  _allowances[owner][spender] */\n      0x00\n        /* \"https://raw.githubusercontent.com/OpenZeppelin/openzeppelin-contracts/v5.0.2/contracts/token/ERC20/ERC20.sol\":10273:10280  spender */\n      dup6\n        /* \"https://raw.githubusercontent.com/OpenZeppelin/openzeppelin-contracts/v5.0.2/contracts/token/ERC20/ERC20.sol\":10254:10281  _allowances[owner][spender] */\n      0xffffffffffffffffffffffffffffffffffffffff\n      and\n      0xffffffffffffffffffffffffffffffffffffffff\n      and\n      dup2\n      mstore\n      0x20\n      add\n      swap1\n      dup2\n      mstore\n      0x20\n      add\n      0x00\n      keccak256\n        /* \"https://raw.githubusercontent.com/OpenZeppelin/openzeppelin-contracts/v5.0.2/contracts/token/ERC20/ERC20.sol\":10254:10289  _allowances[owner][spender] = value */\n      dup2\n      swap1\n      sstore\n      pop\n        /* \"https://raw.githubusercontent.com/OpenZeppelin/openzeppelin-contracts/v5.0.2/contracts/token/ERC20/ERC20.sol\":10303:10312  emitEvent */\n      dup1\n        /* \"https://raw.githubusercontent.com/OpenZeppelin/openzeppelin-contracts/v5.0.2/contracts/token/ERC20/ERC20.sol\":10299:10375  if (emitEvent) {... */\n      iszero\n      tag_257\n      jumpi\n        /* \"https://raw.githubusercontent.com/OpenZeppelin/openzeppelin-contracts/v5.0.2/contracts/token/ERC20/ERC20.sol\":10349:10356  spender */\n      dup3\n        /* \"https://raw.githubusercontent.com/OpenZeppelin/openzeppelin-contracts/v5.0.2/contracts/token/ERC20/ERC20.sol\":10333:10364  Approval(owner, spender, value) */\n      0xffffffffffffffffffffffffffffffffffffffff\n      and\n        /* \"https://raw.githubusercontent.com/OpenZeppelin/openzeppelin-contracts/v5.0.2/contracts/token/ERC20/ERC20.sol\":10342:10347  owner */\n      dup5\n        /* \"https://raw.githubusercontent.com/OpenZeppelin/openzeppelin-contracts/v5.0.2/contracts/token/ERC20/ERC20.sol\":10333:10364  Approval(owner, spender, value) */\n      0xffffffffffffffffffffffffffffffffffffffff\n      and\n      0x8c5be1e5ebec7d5bd14f71427d1e84f3dd0314c0f7b2291e5b200ac8c7c3b925\n        /* \"https://raw.githubusercontent.com/OpenZeppelin/openzeppelin-contracts/v5.0.2/contracts/token/ERC20/ERC20.sol\":10358:10363  value */\n      dup5\n        /* \"https://raw.githubusercontent.com/OpenZeppelin/openzeppelin-contracts/v5.0.2/contracts/token/ERC20/ERC20.sol\":10333:10364  Approval(owner, spender, value) */\n      mload(0x40)\n      tag_258\n      swap2\n      swap1\n      tag_46\n      jump\t// in\n    tag_258:\n      mload(0x40)\n      dup1\n      swap2\n      sub\n      swap1\n      log3\n        /* \"https://raw.githubusercontent.com/OpenZeppelin/openzeppelin-contracts/v5.0.2/contracts/token/ERC20/ERC20.sol\":10299:10375  if (emitEvent) {... */\n    tag_257:\n        /* \"https://raw.githubusercontent.com/OpenZeppelin/openzeppelin-contracts/v5.0.2/contracts/token/ERC20/ERC20.sol\":9949:10381  function _approve(address owner, address spender, uint256 value, bool emitEvent) internal virtual {... */\n      pop\n      pop\n      pop\n      pop\n      jump\t// out\n        /* \"https://raw.githubusercontent.com/OpenZeppelin/openzeppelin-contracts/v5.0.2/contracts/access/AccessControl.sol\":3432:3629  function _checkRole(bytes32 role, address account) internal view virtual {... */\n    tag_208:\n        /* \"https://raw.githubusercontent.com/OpenZeppelin/openzeppelin-contracts/v5.0.2/contracts/access/AccessControl.sol\":3520:3542  hasRole(role, account) */\n      tag_260\n        /* \"https://raw.githubusercontent.com/OpenZeppelin/openzeppelin-contracts/v5.0.2/contracts/access/AccessControl.sol\":3528:3532  role */\n      dup3\n        /* \"https://raw.githubusercontent.com/OpenZeppelin/openzeppelin-contracts/v5.0.2/contracts/access/AccessControl.sol\":3534:3541  account */\n      dup3\n        /* \"https://raw.githubusercontent.com/OpenZeppelin/openzeppelin-contracts/v5.0.2/contracts/access/AccessControl.sol\":3520:3527  hasRole */\n      tag_94\n        /* \"https://raw.githubusercontent.com/OpenZeppelin/openzeppelin-contracts/v5.0.2/contracts/access/AccessControl.sol\":3520:3542  hasRole(role, account) */\n      jump\t// in\n    tag_260:\n        /* \"https://raw.githubusercontent.com/OpenZeppelin/openzeppelin-contracts/v5.0.2/contracts/access/AccessControl.sol\":3515:3623  if (!hasRole(role, account)) {... */\n      tag_261\n      jumpi\n        /* \"https://raw.githubusercontent.com/OpenZeppelin/openzeppelin-contracts/v5.0.2/contracts/access/AccessControl.sol\":3598:3605  account */\n      dup1\n        /* \"https://raw.githubusercontent.com/OpenZeppelin/openzeppelin-contracts/v5.0.2/contracts/access/AccessControl.sol\":3607:3611  role */\n      dup3\n        /* \"https://raw.githubusercontent.com/OpenZeppelin/openzeppelin-contracts/v5.0.2/contracts/access/AccessControl.sol\":3565:3612  AccessControlUnauthorizedAccount(account, role) */\n      mload(0x40)\n      0xe2517d3f00000000000000000000000000000000000000000000000000000000\n      dup2\n      mstore\n      0x04\n      add\n      tag_262\n      swap3\n      swap2\n      swap1\n      tag_263\n      jump\t// in\n    tag_262:\n      mload(0x40)\n      dup1\n      swap2\n      sub\n      swap1\n      revert\n        /* \"https://raw.githubusercontent.com/OpenZeppelin/openzeppelin-contracts/v5.0.2/contracts/access/AccessControl.sol\":3515:3623  if (!hasRole(role, account)) {... */\n    tag_261:\n        /* \"https://raw.githubusercontent.com/OpenZeppelin/openzeppelin-contracts/v5.0.2/contracts/access/AccessControl.sol\":3432:3629  function _checkRole(bytes32 role, address account) internal view virtual {... */\n      pop\n      pop\n      jump\t// out\n        /* \"https://raw.githubusercontent.com/OpenZeppelin/openzeppelin-contracts/v5.0.2/contracts/utils/Pausable.sol\":2202:2328  function _requirePaused() internal view virtual {... */\n    tag_221:\n        /* \"https://raw.githubusercontent.com/OpenZeppelin/openzeppelin-contracts/v5.0.2/contracts/utils/Pausable.sol\":2265:2273  paused() */\n      tag_265\n        /* \"https://raw.githubusercontent.com/OpenZeppelin/openzeppelin-contracts/v5.0.2/contracts/utils/Pausable.sol\":2265:2271  paused */\n      tag_72\n        /* \"https://raw.githubusercontent.com/OpenZeppelin/openzeppelin-contracts/v5.0.2/contracts/utils/Pausable.sol\":2265:2273  paused() */\n      jump\t// in\n    tag_265:\n        /* \"https://raw.githubusercontent.com/OpenZeppelin/openzeppelin-contracts/v5.0.2/contracts/utils/Pausable.sol\":2260:2322  if (!paused()) {... */\n      tag_266\n      jumpi\n        /* \"https://raw.githubusercontent.com/OpenZeppelin/openzeppelin-contracts/v5.0.2/contracts/utils/Pausable.sol\":2296:2311  ExpectedPause() */\n      mload(0x40)\n      0x8dfc202b00000000000000000000000000000000000000000000000000000000\n      dup2\n      mstore\n      0x04\n      add\n      mload(0x40)\n      dup1\n      swap2\n      sub\n      swap1\n      revert\n        /* \"https://raw.githubusercontent.com/OpenZeppelin/openzeppelin-contracts/v5.0.2/contracts/utils/Pausable.sol\":2260:2322  if (!paused()) {... */\n    tag_266:\n        /* \"https://raw.githubusercontent.com/OpenZeppelin/openzeppelin-contracts/v5.0.2/contracts/utils/Pausable.sol\":2202:2328  function _requirePaused() internal view virtual {... */\n      jump\t// out\n        /* \"https://raw.githubusercontent.com/OpenZeppelin/openzeppelin-contracts/v5.0.2/contracts/utils/Pausable.sol\":2002:2130  function _requireNotPaused() internal view virtual {... */\n    tag_227:\n        /* \"https://raw.githubusercontent.com/OpenZeppelin/openzeppelin-contracts/v5.0.2/contracts/utils/Pausable.sol\":2067:2075  paused() */\n      tag_268\n        /* \"https://raw.githubusercontent.com/OpenZeppelin/openzeppelin-contracts/v5.0.2/contracts/utils/Pausable.sol\":2067:2073  paused */\n      tag_72\n        /* \"https://raw.githubusercontent.com/OpenZeppelin/openzeppelin-contracts/v5.0.2/contracts/utils/Pausable.sol\":2067:2075  paused() */\n      jump\t// in\n    tag_268:\n        /* \"https://raw.githubusercontent.com/OpenZeppelin/openzeppelin-contracts/v5.0.2/contracts/utils/Pausable.sol\":2063:2124  if (paused()) {... */\n      iszero\n      tag_269\n      jumpi\n        /* \"https://raw.githubusercontent.com/OpenZeppelin/openzeppelin-contracts/v5.0.2/contracts/utils/Pausable.sol\":2098:2113  EnforcedPause() */\n      mload(0x40)\n      0xd93c066500000000000000000000000000000000000000000000000000000000\n      dup2\n      mstore\n      0x04\n      add\n      mload(0x40)\n      dup1\n      swap2\n      sub\n      swap1\n      revert\n        /* \"https://raw.githubusercontent.com/OpenZeppelin/openzeppelin-contracts/v5.0.2/contracts/utils/Pausable.sol\":2063:2124  if (paused()) {... */\n    tag_269:\n        /* \"https://raw.githubusercontent.com/OpenZeppelin/openzeppelin-contracts/v5.0.2/contracts/utils/Pausable.sol\":2002:2130  function _requireNotPaused() internal view virtual {... */\n      jump\t// out\n        /* \"contracts/RwaToken.sol\":2119:2354  function _toStr(uint256 x) internal pure returns (string memory) {... */\n    tag_245:\n        /* \"contracts/RwaToken.sol\":2169:2182  string memory */\n      0x60\n        /* \"contracts/RwaToken.sol\":2203:2204  0 */\n      0x00\n        /* \"contracts/RwaToken.sol\":2198:2199  x */\n      dup3\n        /* \"contracts/RwaToken.sol\":2198:2204  x == 0 */\n      sub\n        /* \"contracts/RwaToken.sol\":2194:2216  if (x == 0) return \"0\" */\n      tag_271\n      jumpi\n        /* \"contracts/RwaToken.sol\":2206:2216  return \"0\" */\n      mload(0x40)\n      dup1\n      0x40\n      add\n      0x40\n      mstore\n      dup1\n      0x01\n      dup2\n      mstore\n      0x20\n      add\n      0x3000000000000000000000000000000000000000000000000000000000000000\n      dup2\n      mstore\n      pop\n      swap1\n      pop\n      jump(tag_270)\n        /* \"contracts/RwaToken.sol\":2194:2216  if (x == 0) return \"0\" */\n    tag_271:\n        /* \"contracts/RwaToken.sol\":2226:2240  bytes memory b */\n      0x60\n        /* \"contracts/RwaToken.sol\":2250:2322  while (x != 0) { b = abi.encodePacked(uint8(48 + x % 10), b); x /= 10; } */\n    tag_272:\n        /* \"contracts/RwaToken.sol\":2262:2263  0 */\n      0x00\n        /* \"contracts/RwaToken.sol\":2257:2258  x */\n      dup4\n        /* \"contracts/RwaToken.sol\":2257:2263  x != 0 */\n      eq\n        /* \"contracts/RwaToken.sol\":2250:2322  while (x != 0) { b = abi.encodePacked(uint8(48 + x % 10), b); x /= 10; } */\n      tag_273\n      jumpi\n        /* \"contracts/RwaToken.sol\":2303:2305  10 */\n      0x0a\n        /* \"contracts/RwaToken.sol\":2299:2300  x */\n      dup4\n        /* \"contracts/RwaToken.sol\":2299:2305  x % 10 */\n      tag_274\n      swap2\n      swap1\n      tag_275\n      jump\t// in\n    tag_274:\n        /* \"contracts/RwaToken.sol\":2294:2296  48 */\n      0x30\n        /* \"contracts/RwaToken.sol\":2294:2305  48 + x % 10 */\n      tag_276\n      swap2\n      swap1\n      tag_277\n      jump\t// in\n    tag_276:\n        /* \"contracts/RwaToken.sol\":2308:2309  b */\n      dup2\n        /* \"contracts/RwaToken.sol\":2271:2310  abi.encodePacked(uint8(48 + x % 10), b) */\n      add(0x20, mload(0x40))\n      tag_278\n      swap3\n      swap2\n      swap1\n      tag_279\n      jump\t// in\n    tag_278:\n      mload(0x40)\n      0x20\n      dup2\n      dup4\n      sub\n      sub\n      dup2\n      mstore\n      swap1\n      0x40\n      mstore\n        /* \"contracts/RwaToken.sol\":2267:2310  b = abi.encodePacked(uint8(48 + x % 10), b) */\n      swap1\n      pop\n        /* \"contracts/RwaToken.sol\":2317:2319  10 */\n      0x0a\n        /* \"contracts/RwaToken.sol\":2312:2319  x /= 10 */\n      dup4\n      tag_280\n      swap2\n      swap1\n      tag_281\n      jump\t// in\n    tag_280:\n      swap3\n      pop\n        /* \"contracts/RwaToken.sol\":2250:2322  while (x != 0) { b = abi.encodePacked(uint8(48 + x % 10), b); x /= 10; } */\n      jump(tag_272)\n    tag_273:\n        /* \"contracts/RwaToken.sol\":2345:2346  b */\n      dup1\n        /* \"contracts/RwaToken.sol\":2331:2347  return string(b) */\n      swap2\n      pop\n      pop\n        /* \"contracts/RwaToken.sol\":2119:2354  function _toStr(uint256 x) internal pure returns (string memory) {... */\n    tag_270:\n      swap2\n      swap1\n      pop\n      jump\t// out\n        /* \"https://raw.githubusercontent.com/OpenZeppelin/openzeppelin-contracts/v5.0.2/contracts/token/ERC20/ERC20.sol\":6271:7378  function _update(address from, address to, uint256 value) internal virtual {... */\n    tag_251:\n        /* \"https://raw.githubusercontent.com/OpenZeppelin/openzeppelin-contracts/v5.0.2/contracts/token/ERC20/ERC20.sol\":6376:6377  0 */\n      0x00\n        /* \"https://raw.githubusercontent.com/OpenZeppelin/openzeppelin-contracts/v5.0.2/contracts/token/ERC20/ERC20.sol\":6360:6378  from == address(0) */\n      0xffffffffffffffffffffffffffffffffffffffff\n      and\n        /* \"https://raw.githubusercontent.com/OpenZeppelin/openzeppelin-contracts/v5.0.2/contracts/token/ERC20/ERC20.sol\":6360:6364  from */\n      dup4\n        /* \"https://raw.githubusercontent.com/OpenZeppelin/openzeppelin-contracts/v5.0.2/contracts/token/ERC20/ERC20.sol\":6360:6378  from == address(0) */\n      0xffffffffffffffffffffffffffffffffffffffff\n      and\n      sub\n        /* \"https://raw.githubusercontent.com/OpenZeppelin/openzeppelin-contracts/v5.0.2/contracts/token/ERC20/ERC20.sol\":6356:6896  if (from == address(0)) {... */\n      tag_283\n      jumpi\n        /* \"https://raw.githubusercontent.com/OpenZeppelin/openzeppelin-contracts/v5.0.2/contracts/token/ERC20/ERC20.sol\":6512:6517  value */\n      dup1\n        /* \"https://raw.githubusercontent.com/OpenZeppelin/openzeppelin-contracts/v5.0.2/contracts/token/ERC20/ERC20.sol\":6496:6508  _totalSupply */\n      0x02\n      0x00\n        /* \"https://raw.githubusercontent.com/OpenZeppelin/openzeppelin-contracts/v5.0.2/contracts/token/ERC20/ERC20.sol\":6496:6517  _totalSupply += value */\n      dup3\n      dup3\n      sload\n      tag_284\n      swap2\n      swap1\n      tag_277\n      jump\t// in\n    tag_284:\n      swap3\n      pop\n      pop\n      dup2\n      swap1\n      sstore\n      pop\n        /* \"https://raw.githubusercontent.com/OpenZeppelin/openzeppelin-contracts/v5.0.2/contracts/token/ERC20/ERC20.sol\":6356:6896  if (from == address(0)) {... */\n      jump(tag_285)\n    tag_283:\n        /* \"https://raw.githubusercontent.com/OpenZeppelin/openzeppelin-contracts/v5.0.2/contracts/token/ERC20/ERC20.sol\":6548:6567  uint256 fromBalance */\n      0x00\n        /* \"https://raw.githubusercontent.com/OpenZeppelin/openzeppelin-contracts/v5.0.2/contracts/token/ERC20/ERC20.sol\":6570:6579  _balances */\n      0x00\n        /* \"https://raw.githubusercontent.com/OpenZeppelin/openzeppelin-contracts/v5.0.2/contracts/token/ERC20/ERC20.sol\":6570:6585  _balances[from] */\n      0x00\n        /* \"https://raw.githubusercontent.com/OpenZeppelin/openzeppelin-contracts/v5.0.2/contracts/token/ERC20/ERC20.sol\":6580:6584  from */\n      dup6\n        /* \"https://raw.githubusercontent.com/OpenZeppelin/openzeppelin-contracts/v5.0.2/contracts/token/ERC20/ERC20.sol\":6570:6585  _balances[from] */\n      0xffffffffffffffffffffffffffffffffffffffff\n      and\n      0xffffffffffffffffffffffffffffffffffffffff\n      and\n      dup2\n      mstore\n      0x20\n      add\n      swap1\n      dup2\n      mstore\n      0x20\n      add\n      0x00\n      keccak256\n      sload\n        /* \"https://raw.githubusercontent.com/OpenZeppelin/openzeppelin-contracts/v5.0.2/contracts/token/ERC20/ERC20.sol\":6548:6585  uint256 fromBalance = _balances[from] */\n      swap1\n      pop\n        /* \"https://raw.githubusercontent.com/OpenZeppelin/openzeppelin-contracts/v5.0.2/contracts/token/ERC20/ERC20.sol\":6617:6622  value */\n      dup2\n        /* \"https://raw.githubusercontent.com/OpenZeppelin/openzeppelin-contracts/v5.0.2/contracts/token/ERC20/ERC20.sol\":6603:6614  fromBalance */\n      dup2\n        /* \"https://raw.githubusercontent.com/OpenZeppelin/openzeppelin-contracts/v5.0.2/contracts/token/ERC20/ERC20.sol\":6603:6622  fromBalance < value */\n      lt\n        /* \"https://raw.githubusercontent.com/OpenZeppelin/openzeppelin-contracts/v5.0.2/contracts/token/ERC20/ERC20.sol\":6599:6714  if (fromBalance < value) {... */\n      iszero\n      tag_286\n      jumpi\n        /* \"https://raw.githubusercontent.com/OpenZeppelin/openzeppelin-contracts/v5.0.2/contracts/token/ERC20/ERC20.sol\":6674:6678  from */\n      dup4\n        /* \"https://raw.githubusercontent.com/OpenZeppelin/openzeppelin-contracts/v5.0.2/contracts/token/ERC20/ERC20.sol\":6680:6691  fromBalance */\n      dup2\n        /* \"https://raw.githubusercontent.com/OpenZeppelin/openzeppelin-contracts/v5.0.2/contracts/token/ERC20/ERC20.sol\":6693:6698  value */\n      dup4\n        /* \"https://raw.githubusercontent.com/OpenZeppelin/openzeppelin-contracts/v5.0.2/contracts/token/ERC20/ERC20.sol\":6649:6699  ERC20InsufficientBalance(from, fromBalance, value) */\n      mload(0x40)\n      0xe450d38c00000000000000000000000000000000000000000000000000000000\n      dup2\n      mstore\n      0x04\n      add\n      tag_287\n      swap4\n      swap3\n      swap2\n      swap1\n      tag_196\n      jump\t// in\n    tag_287:\n      mload(0x40)\n      dup1\n      swap2\n      sub\n      swap1\n      revert\n        /* \"https://raw.githubusercontent.com/OpenZeppelin/openzeppelin-contracts/v5.0.2/contracts/token/ERC20/ERC20.sol\":6599:6714  if (fromBalance < value) {... */\n    tag_286:\n        /* \"https://raw.githubusercontent.com/OpenZeppelin/openzeppelin-contracts/v5.0.2/contracts/token/ERC20/ERC20.sol\":6866:6871  value */\n      dup2\n        /* \"https://raw.githubusercontent.com/OpenZeppelin/openzeppelin-contracts/v5.0.2/contracts/token/ERC20/ERC20.sol\":6852:6863  fromBalance */\n      dup2\n        /* \"https://raw.githubusercontent.com/OpenZeppelin/openzeppelin-contracts/v5.0.2/contracts/token/ERC20/ERC20.sol\":6852:6871  fromBalance - value */\n      sub\n        /* \"https://raw.githubusercontent.com/OpenZeppelin/openzeppelin-contracts/v5.0.2/contracts/token/ERC20/ERC20.sol\":6834:6843  _balances */\n      0x00\n        /* \"https://raw.githubusercontent.com/OpenZeppelin/openzeppelin-contracts/v5.0.2/contracts/token/ERC20/ERC20.sol\":6834:6849  _balances[from] */\n      0x00\n        /* \"https://raw.githubusercontent.com/OpenZeppelin/openzeppelin-contracts/v5.0.2/contracts/token/ERC20/ERC20.sol\":6844:6848  from */\n      dup7\n        /* \"https://raw.githubusercontent.com/OpenZeppelin/openzeppelin-contracts/v5.0.2/contracts/token/ERC20/ERC20.sol\":6834:6849  _balances[from] */\n      0xffffffffffffffffffffffffffffffffffffffff\n      and\n      0xffffffffffffffffffffffffffffffffffffffff\n      and\n      dup2\n      mstore\n      0x20\n      add\n      swap1\n      dup2\n      mstore\n      0x20\n      add\n      0x00\n      keccak256\n        /* \"https://raw.githubusercontent.com/OpenZeppelin/openzeppelin-contracts/v5.0.2/contracts/token/ERC20/ERC20.sol\":6834:6871  _balances[from] = fromBalance - value */\n      dup2\n      swap1\n      sstore\n      pop\n        /* \"https://raw.githubusercontent.com/OpenZeppelin/openzeppelin-contracts/v5.0.2/contracts/token/ERC20/ERC20.sol\":6534:6896  {... */\n      pop\n        /* \"https://raw.githubusercontent.com/OpenZeppelin/openzeppelin-contracts/v5.0.2/contracts/token/ERC20/ERC20.sol\":6356:6896  if (from == address(0)) {... */\n    tag_285:\n        /* \"https://raw.githubusercontent.com/OpenZeppelin/openzeppelin-contracts/v5.0.2/contracts/token/ERC20/ERC20.sol\":6924:6925  0 */\n      0x00\n        /* \"https://raw.githubusercontent.com/OpenZeppelin/openzeppelin-contracts/v5.0.2/contracts/token/ERC20/ERC20.sol\":6910:6926  to == address(0) */\n      0xffffffffffffffffffffffffffffffffffffffff\n      and\n        /* \"https://raw.githubusercontent.com/OpenZeppelin/openzeppelin-contracts/v5.0.2/contracts/token/ERC20/ERC20.sol\":6910:6912  to */\n      dup3\n        /* \"https://raw.githubusercontent.com/OpenZeppelin/openzeppelin-contracts/v5.0.2/contracts/token/ERC20/ERC20.sol\":6910:6926  to == address(0) */\n      0xffffffffffffffffffffffffffffffffffffffff\n      and\n      sub\n        /* \"https://raw.githubusercontent.com/OpenZeppelin/openzeppelin-contracts/v5.0.2/contracts/token/ERC20/ERC20.sol\":6906:7331  if (to == address(0)) {... */\n      tag_288\n      jumpi\n        /* \"https://raw.githubusercontent.com/OpenZeppelin/openzeppelin-contracts/v5.0.2/contracts/token/ERC20/ERC20.sol\":7089:7094  value */\n      dup1\n        /* \"https://raw.githubusercontent.com/OpenZeppelin/openzeppelin-contracts/v5.0.2/contracts/token/ERC20/ERC20.sol\":7073:7085  _totalSupply */\n      0x02\n      0x00\n        /* \"https://raw.githubusercontent.com/OpenZeppelin/openzeppelin-contracts/v5.0.2/contracts/token/ERC20/ERC20.sol\":7073:7094  _totalSupply -= value */\n      dup3\n      dup3\n      sload\n      sub\n      swap3\n      pop\n      pop\n      dup2\n      swap1\n      sstore\n      pop\n        /* \"https://raw.githubusercontent.com/OpenZeppelin/openzeppelin-contracts/v5.0.2/contracts/token/ERC20/ERC20.sol\":6906:7331  if (to == address(0)) {... */\n      jump(tag_289)\n    tag_288:\n        /* \"https://raw.githubusercontent.com/OpenZeppelin/openzeppelin-contracts/v5.0.2/contracts/token/ERC20/ERC20.sol\":7301:7306  value */\n      dup1\n        /* \"https://raw.githubusercontent.com/OpenZeppelin/openzeppelin-contracts/v5.0.2/contracts/token/ERC20/ERC20.sol\":7284:7293  _balances */\n      0x00\n        /* \"https://raw.githubusercontent.com/OpenZeppelin/openzeppelin-contracts/v5.0.2/contracts/token/ERC20/ERC20.sol\":7284:7297  _balances[to] */\n      0x00\n        /* \"https://raw.githubusercontent.com/OpenZeppelin/openzeppelin-contracts/v5.0.2/contracts/token/ERC20/ERC20.sol\":7294:7296  to */\n      dup5\n        /* \"https://raw.githubusercontent.com/OpenZeppelin/openzeppelin-contracts/v5.0.2/contracts/token/ERC20/ERC20.sol\":7284:7297  _balances[to] */\n      0xffffffffffffffffffffffffffffffffffffffff\n      and\n      0xffffffffffffffffffffffffffffffffffffffff\n      and\n      dup2\n      mstore\n      0x20\n      add\n      swap1\n      dup2\n      mstore\n      0x20\n      add\n      0x00\n      keccak256\n      0x00\n        /* \"https://raw.githubusercontent.com/OpenZeppelin/openzeppelin-contracts/v5.0.2/contracts/token/ERC20/ERC20.sol\":7284:7306  _balances[to] += value */\n      dup3\n      dup3\n      sload\n      add\n      swap3\n      pop\n      pop\n      dup2\n      swap1\n      sstore\n      pop\n        /* \"https://raw.githubusercontent.com/OpenZeppelin/openzeppelin-contracts/v5.0.2/contracts/token/ERC20/ERC20.sol\":6906:7331  if (to == address(0)) {... */\n    tag_289:\n        /* \"https://raw.githubusercontent.com/OpenZeppelin/openzeppelin-contracts/v5.0.2/contracts/token/ERC20/ERC20.sol\":7361:7363  to */\n      dup2\n        /* \"https://raw.githubusercontent.com/OpenZeppelin/openzeppelin-contracts/v5.0.2/contracts/token/ERC20/ERC20.sol\":7346:7371  Transfer(from, to, value) */\n      0xffffffffffffffffffffffffffffffffffffffff\n      and\n        /* \"https://raw.githubusercontent.com/OpenZeppelin/openzeppelin-contracts/v5.0.2/contracts/token/ERC20/ERC20.sol\":7355:7359  from */\n      dup4\n        /* \"https://raw.githubusercontent.com/OpenZeppelin/openzeppelin-contracts/v5.0.2/contracts/token/ERC20/ERC20.sol\":7346:7371  Transfer(from, to, value) */\n      0xffffffffffffffffffffffffffffffffffffffff\n      and\n      0xddf252ad1be2c89b69c2b068fc378daa952ba7f163c4a11628f55a4df523b3ef\n        /* \"https://raw.githubusercontent.com/OpenZeppelin/openzeppelin-contracts/v5.0.2/contracts/token/ERC20/ERC20.sol\":7365:7370  value */\n      dup4\n        /* \"https://raw.githubusercontent.com/OpenZeppelin/openzeppelin-contracts/v5.0.2/contracts/token/ERC20/ERC20.sol\":7346:7371  Transfer(from, to, value) */\n      mload(0x40)\n      tag_290\n      swap2\n      swap1\n      tag_46\n      jump\t// in\n    tag_290:\n      mload(0x40)\n      dup1\n      swap2\n      sub\n      swap1\n      log3\n        /* \"https://raw.githubusercontent.com/OpenZeppelin/openzeppelin-contracts/v5.0.2/contracts/token/ERC20/ERC20.sol\":6271:7378  function _update(address from, address to, uint256 value) internal virtual {... */\n      pop\n      pop\n      pop\n      jump\t// out\n        /* \"#utility.yul\":88:205   */\n    tag_292:\n        /* \"#utility.yul\":197:198   */\n      0x00\n        /* \"#utility.yul\":194:195   */\n      0x00\n        /* \"#utility.yul\":187:199   */\n      revert\n        /* \"#utility.yul\":211:328   */\n    tag_293:\n        /* \"#utility.yul\":320:321   */\n      0x00\n        /* \"#utility.yul\":317:318   */\n      0x00\n        /* \"#utility.yul\":310:322   */\n      revert\n        /* \"#utility.yul\":334:483   */\n    tag_294:\n        /* \"#utility.yul\":370:377   */\n      0x00\n        /* \"#utility.yul\":410:476   */\n      0xffffffff00000000000000000000000000000000000000000000000000000000\n        /* \"#utility.yul\":403:408   */\n      dup3\n        /* \"#utility.yul\":399:477   */\n      and\n        /* \"#utility.yul\":388:477   */\n      swap1\n      pop\n        /* \"#utility.yul\":334:483   */\n      swap2\n      swap1\n      pop\n      jump\t// out\n        /* \"#utility.yul\":489:609   */\n    tag_295:\n        /* \"#utility.yul\":561:584   */\n      tag_357\n        /* \"#utility.yul\":578:583   */\n      dup2\n        /* \"#utility.yul\":561:584   */\n      tag_294\n      jump\t// in\n    tag_357:\n        /* \"#utility.yul\":554:559   */\n      dup2\n        /* \"#utility.yul\":551:585   */\n      eq\n        /* \"#utility.yul\":541:603   */\n      tag_358\n      jumpi\n        /* \"#utility.yul\":599:600   */\n      0x00\n        /* \"#utility.yul\":596:597   */\n      0x00\n        /* \"#utility.yul\":589:601   */\n      revert\n        /* \"#utility.yul\":541:603   */\n    tag_358:\n        /* \"#utility.yul\":489:609   */\n      pop\n      jump\t// out\n        /* \"#utility.yul\":615:752   */\n    tag_296:\n        /* \"#utility.yul\":660:665   */\n      0x00\n        /* \"#utility.yul\":698:704   */\n      dup2\n        /* \"#utility.yul\":685:705   */\n      calldataload\n        /* \"#utility.yul\":676:705   */\n      swap1\n      pop\n        /* \"#utility.yul\":714:746   */\n      tag_360\n        /* \"#utility.yul\":740:745   */\n      dup2\n        /* \"#utility.yul\":714:746   */\n      tag_295\n      jump\t// in\n    tag_360:\n        /* \"#utility.yul\":615:752   */\n      swap3\n      swap2\n      pop\n      pop\n      jump\t// out\n        /* \"#utility.yul\":758:1085   */\n    tag_30:\n        /* \"#utility.yul\":816:822   */\n      0x00\n        /* \"#utility.yul\":865:867   */\n      0x20\n        /* \"#utility.yul\":853:862   */\n      dup3\n        /* \"#utility.yul\":844:851   */\n      dup5\n        /* \"#utility.yul\":840:863   */\n      sub\n        /* \"#utility.yul\":836:868   */\n      slt\n        /* \"#utility.yul\":833:952   */\n      iszero\n      tag_362\n      jumpi\n        /* \"#utility.yul\":871:950   */\n      tag_363\n      tag_292\n      jump\t// in\n    tag_363:\n        /* \"#utility.yul\":833:952   */\n    tag_362:\n        /* \"#utility.yul\":991:992   */\n      0x00\n        /* \"#utility.yul\":1016:1068   */\n      tag_364\n        /* \"#utility.yul\":1060:1067   */\n      dup5\n        /* \"#utility.yul\":1051:1057   */\n      dup3\n        /* \"#utility.yul\":1040:1049   */\n      dup6\n        /* \"#utility.yul\":1036:1058   */\n      add\n        /* \"#utility.yul\":1016:1068   */\n      tag_296\n      jump\t// in\n    tag_364:\n        /* \"#utility.yul\":1006:1068   */\n      swap2\n      pop\n        /* \"#utility.yul\":962:1078   */\n      pop\n        /* \"#utility.yul\":758:1085   */\n      swap3\n      swap2\n      pop\n      pop\n      jump\t// out\n        /* \"#utility.yul\":1091:1181   */\n    tag_297:\n        /* \"#utility.yul\":1125:1132   */\n      0x00\n        /* \"#utility.yul\":1168:1173   */\n      dup2\n        /* \"#utility.yul\":1161:1174   */\n      iszero\n        /* \"#utility.yul\":1154:1175   */\n      iszero\n        /* \"#utility.yul\":1143:1175   */\n      swap1\n      pop\n        /* \"#utility.yul\":1091:1181   */\n      swap2\n      swap1\n      pop\n      jump\t// out\n        /* \"#utility.yul\":1187:1296   */\n    tag_298:\n        /* \"#utility.yul\":1268:1289   */\n      tag_367\n        /* \"#utility.yul\":1283:1288   */\n      dup2\n        /* \"#utility.yul\":1268:1289   */\n      tag_297\n      jump\t// in\n    tag_367:\n        /* \"#utility.yul\":1263:1266   */\n      dup3\n        /* \"#utility.yul\":1256:1290   */\n      mstore\n        /* \"#utility.yul\":1187:1296   */\n      pop\n      pop\n      jump\t// out\n        /* \"#utility.yul\":1302:1512   */\n    tag_33:\n        /* \"#utility.yul\":1389:1393   */\n      0x00\n        /* \"#utility.yul\":1427:1429   */\n      0x20\n        /* \"#utility.yul\":1416:1425   */\n      dup3\n        /* \"#utility.yul\":1412:1430   */\n      add\n        /* \"#utility.yul\":1404:1430   */\n      swap1\n      pop\n        /* \"#utility.yul\":1440:1505   */\n      tag_369\n        /* \"#utility.yul\":1502:1503   */\n      0x00\n        /* \"#utility.yul\":1491:1500   */\n      dup4\n        /* \"#utility.yul\":1487:1504   */\n      add\n        /* \"#utility.yul\":1478:1484   */\n      dup5\n        /* \"#utility.yul\":1440:1505   */\n      tag_298\n      jump\t// in\n    tag_369:\n        /* \"#utility.yul\":1302:1512   */\n      swap3\n      swap2\n      pop\n      pop\n      jump\t// out\n        /* \"#utility.yul\":1518:1617   */\n    tag_299:\n        /* \"#utility.yul\":1570:1576   */\n      0x00\n        /* \"#utility.yul\":1604:1609   */\n      dup2\n        /* \"#utility.yul\":1598:1610   */\n      mload\n        /* \"#utility.yul\":1588:1610   */\n      swap1\n      pop\n        /* \"#utility.yul\":1518:1617   */\n      swap2\n      swap1\n      pop\n      jump\t// out\n        /* \"#utility.yul\":1623:1792   */\n    tag_300:\n        /* \"#utility.yul\":1707:1718   */\n      0x00\n        /* \"#utility.yul\":1741:1747   */\n      dup3\n        /* \"#utility.yul\":1736:1739   */\n      dup3\n        /* \"#utility.yul\":1729:1748   */\n      mstore\n        /* \"#utility.yul\":1781:1785   */\n      0x20\n        /* \"#utility.yul\":1776:1779   */\n      dup3\n        /* \"#utility.yul\":1772:1786   */\n      add\n        /* \"#utility.yul\":1757:1786   */\n      swap1\n      pop\n        /* \"#utility.yul\":1623:1792   */\n      swap3\n      swap2\n      pop\n      pop\n      jump\t// out\n        /* \"#utility.yul\":1798:1937   */\n    tag_301:\n        /* \"#utility.yul\":1887:1893   */\n      dup3\n        /* \"#utility.yul\":1882:1885   */\n      dup2\n        /* \"#utility.yul\":1877:1880   */\n      dup4\n        /* \"#utility.yul\":1871:1894   */\n      mcopy\n        /* \"#utility.yul\":1928:1929   */\n      0x00\n        /* \"#utility.yul\":1919:1925   */\n      dup4\n        /* \"#utility.yul\":1914:1917   */\n      dup4\n        /* \"#utility.yul\":1910:1926   */\n      add\n        /* \"#utility.yul\":1903:1930   */\n      mstore\n        /* \"#utility.yul\":1798:1937   */\n      pop\n      pop\n      pop\n      jump\t// out\n        /* \"#utility.yul\":1943:2045   */\n    tag_302:\n        /* \"#utility.yul\":1984:1990   */\n      0x00\n        /* \"#utility.yul\":2035:2037   */\n      0x1f\n        /* \"#utility.yul\":2031:2038   */\n      not\n        /* \"#utility.yul\":2026:2028   */\n      0x1f\n        /* \"#utility.yul\":2019:2024   */\n      dup4\n        /* \"#utility.yul\":2015:2029   */\n      add\n        /* \"#utility.yul\":2011:2039   */\n      and\n        /* \"#utility.yul\":2001:2039   */\n      swap1\n      pop\n        /* \"#utility.yul\":1943:2045   */\n      swap2\n      swap1\n      pop\n      jump\t// out\n        /* \"#utility.yul\":2051:2428   */\n    tag_303:\n        /* \"#utility.yul\":2139:2142   */\n      0x00\n        /* \"#utility.yul\":2167:2206   */\n      tag_375\n        /* \"#utility.yul\":2200:2205   */\n      dup3\n        /* \"#utility.yul\":2167:2206   */\n      tag_299\n      jump\t// in\n    tag_375:\n        /* \"#utility.yul\":2222:2293   */\n      tag_376\n        /* \"#utility.yul\":2286:2292   */\n      dup2\n        /* \"#utility.yul\":2281:2284   */\n      dup6\n        /* \"#utility.yul\":2222:2293   */\n      tag_300\n      jump\t// in\n    tag_376:\n        /* \"#utility.yul\":2215:2293   */\n      swap4\n      pop\n        /* \"#utility.yul\":2302:2367   */\n      tag_377\n        /* \"#utility.yul\":2360:2366   */\n      dup2\n        /* \"#utility.yul\":2355:2358   */\n      dup6\n        /* \"#utility.yul\":2348:2352   */\n      0x20\n        /* \"#utility.yul\":2341:2346   */\n      dup7\n        /* \"#utility.yul\":2337:2353   */\n      add\n        /* \"#utility.yul\":2302:2367   */\n      tag_301\n      jump\t// in\n    tag_377:\n        /* \"#utility.yul\":2392:2421   */\n      tag_378\n        /* \"#utility.yul\":2414:2420   */\n      dup2\n        /* \"#utility.yul\":2392:2421   */\n      tag_302\n      jump\t// in\n    tag_378:\n        /* \"#utility.yul\":2387:2390   */\n      dup5\n        /* \"#utility.yul\":2383:2422   */\n      add\n        /* \"#utility.yul\":2376:2422   */\n      swap2\n      pop\n        /* \"#utility.yul\":2143:2428   */\n      pop\n        /* \"#utility.yul\":2051:2428   */\n      swap3\n      swap2\n      pop\n      pop\n      jump\t// out\n        /* \"#utility.yul\":2434:2747   */\n    tag_37:\n        /* \"#utility.yul\":2547:2551   */\n      0x00\n        /* \"#utility.yul\":2585:2587   */\n      0x20\n        /* \"#utility.yul\":2574:2583   */\n      dup3\n        /* \"#utility.yul\":2570:2588   */\n      add\n        /* \"#utility.yul\":2562:2588   */\n      swap1\n      pop\n        /* \"#utility.yul\":2634:2643   */\n      dup2\n        /* \"#utility.yul\":2628:2632   */\n      dup2\n        /* \"#utility.yul\":2624:2644   */\n      sub\n        /* \"#utility.yul\":2620:2621   */\n      0x00\n        /* \"#utility.yul\":2609:2618   */\n      dup4\n        /* \"#utility.yul\":2605:2622   */\n      add\n        /* \"#utility.yul\":2598:2645   */\n      mstore\n        /* \"#utility.yul\":2662:2740   */\n      tag_380\n        /* \"#utility.yul\":2735:2739   */\n      dup2\n        /* \"#utility.yul\":2726:2732   */\n      dup5\n        /* \"#utility.yul\":2662:2740   */\n      tag_303\n      jump\t// in\n    tag_380:\n        /* \"#utility.yul\":2654:2740   */\n      swap1\n      pop\n        /* \"#utility.yul\":2434:2747   */\n      swap3\n      swap2\n      pop\n      pop\n      jump\t// out\n        /* \"#utility.yul\":2753:2879   */\n    tag_304:\n        /* \"#utility.yul\":2790:2797   */\n      0x00\n        /* \"#utility.yul\":2830:2872   */\n      0xffffffffffffffffffffffffffffffffffffffff\n        /* \"#utility.yul\":2823:2828   */\n      dup3\n        /* \"#utility.yul\":2819:2873   */\n      and\n        /* \"#utility.yul\":2808:2873   */\n      swap1\n      pop\n        /* \"#utility.yul\":2753:2879   */\n      swap2\n      swap1\n      pop\n      jump\t// out\n        /* \"#utility.yul\":2885:2981   */\n    tag_305:\n        /* \"#utility.yul\":2922:2929   */\n      0x00\n        /* \"#utility.yul\":2951:2975   */\n      tag_383\n        /* \"#utility.yul\":2969:2974   */\n      dup3\n        /* \"#utility.yul\":2951:2975   */\n      tag_304\n      jump\t// in\n    tag_383:\n        /* \"#utility.yul\":2940:2975   */\n      swap1\n      pop\n        /* \"#utility.yul\":2885:2981   */\n      swap2\n      swap1\n      pop\n      jump\t// out\n        /* \"#utility.yul\":2987:3109   */\n    tag_306:\n        /* \"#utility.yul\":3060:3084   */\n      tag_385\n        /* \"#utility.yul\":3078:3083   */\n      dup2\n        /* \"#utility.yul\":3060:3084   */\n      tag_305\n      jump\t// in\n    tag_385:\n        /* \"#utility.yul\":3053:3058   */\n      dup2\n        /* \"#utility.yul\":3050:3085   */\n      eq\n        /* \"#utility.yul\":3040:3103   */\n      tag_386\n      jumpi\n        /* \"#utility.yul\":3099:3100   */\n      0x00\n        /* \"#utility.yul\":3096:3097   */\n      0x00\n        /* \"#utility.yul\":3089:3101   */\n      revert\n        /* \"#utility.yul\":3040:3103   */\n    tag_386:\n        /* \"#utility.yul\":2987:3109   */\n      pop\n      jump\t// out\n        /* \"#utility.yul\":3115:3254   */\n    tag_307:\n        /* \"#utility.yul\":3161:3166   */\n      0x00\n        /* \"#utility.yul\":3199:3205   */\n      dup2\n        /* \"#utility.yul\":3186:3206   */\n      calldataload\n        /* \"#utility.yul\":3177:3206   */\n      swap1\n      pop\n        /* \"#utility.yul\":3215:3248   */\n      tag_388\n        /* \"#utility.yul\":3242:3247   */\n      dup2\n        /* \"#utility.yul\":3215:3248   */\n      tag_306\n      jump\t// in\n    tag_388:\n        /* \"#utility.yul\":3115:3254   */\n      swap3\n      swap2\n      pop\n      pop\n      jump\t// out\n        /* \"#utility.yul\":3260:3337   */\n    tag_308:\n        /* \"#utility.yul\":3297:3304   */\n      0x00\n        /* \"#utility.yul\":3326:3331   */\n      dup2\n        /* \"#utility.yul\":3315:3331   */\n      swap1\n      pop\n        /* \"#utility.yul\":3260:3337   */\n      swap2\n      swap1\n      pop\n      jump\t// out\n        /* \"#utility.yul\":3343:3465   */\n    tag_309:\n        /* \"#utility.yul\":3416:3440   */\n      tag_391\n        /* \"#utility.yul\":3434:3439   */\n      dup2\n        /* \"#utility.yul\":3416:3440   */\n      tag_308\n      jump\t// in\n    tag_391:\n        /* \"#utility.yul\":3409:3414   */\n      dup2\n        /* \"#utility.yul\":3406:3441   */\n      eq\n        /* \"#utility.yul\":3396:3459   */\n      tag_392\n      jumpi\n        /* \"#utility.yul\":3455:3456   */\n      0x00\n        /* \"#utility.yul\":3452:3453   */\n      0x00\n        /* \"#utility.yul\":3445:3457   */\n      revert\n        /* \"#utility.yul\":3396:3459   */\n    tag_392:\n        /* \"#utility.yul\":3343:3465   */\n      pop\n      jump\t// out\n        /* \"#utility.yul\":3471:3610   */\n    tag_310:\n        /* \"#utility.yul\":3517:3522   */\n      0x00\n        /* \"#utility.yul\":3555:3561   */\n      dup2\n        /* \"#utility.yul\":3542:3562   */\n      calldataload\n        /* \"#utility.yul\":3533:3562   */\n      swap1\n      pop\n        /* \"#utility.yul\":3571:3604   */\n      tag_394\n        /* \"#utility.yul\":3598:3603   */\n      dup2\n        /* \"#utility.yul\":3571:3604   */\n      tag_309\n      jump\t// in\n    tag_394:\n        /* \"#utility.yul\":3471:3610   */\n      swap3\n      swap2\n      pop\n      pop\n      jump\t// out\n        /* \"#utility.yul\":3616:4090   */\n    tag_40:\n        /* \"#utility.yul\":3684:3690   */\n      0x00\n        /* \"#utility.yul\":3692:3698   */\n      0x00\n        /* \"#utility.yul\":3741:3743   */\n      0x40\n        /* \"#utility.yul\":3729:3738   */\n      dup4\n        /* \"#utility.yul\":3720:3727   */\n      dup6\n        /* \"#utility.yul\":3716:3739   */\n      sub\n        /* \"#utility.yul\":3712:3744   */\n      slt\n        /* \"#utility.yul\":3709:3828   */\n      iszero\n      tag_396\n      jumpi\n        /* \"#utility.yul\":3747:3826   */\n      tag_397\n      tag_292\n      jump\t// in\n    tag_397:\n        /* \"#utility.yul\":3709:3828   */\n    tag_396:\n        /* \"#utility.yul\":3867:3868   */\n      0x00\n        /* \"#utility.yul\":3892:3945   */\n      tag_398\n        /* \"#utility.yul\":3937:3944   */\n      dup6\n        /* \"#utility.yul\":3928:3934   */\n      dup3\n        /* \"#utility.yul\":3917:3926   */\n      dup7\n        /* \"#utility.yul\":3913:3935   */\n      add\n        /* \"#utility.yul\":3892:3945   */\n      tag_307\n      jump\t// in\n    tag_398:\n        /* \"#utility.yul\":3882:3945   */\n      swap3\n      pop\n        /* \"#utility.yul\":3838:3955   */\n      pop\n        /* \"#utility.yul\":3994:3996   */\n      0x20\n        /* \"#utility.yul\":4020:4073   */\n      tag_399\n        /* \"#utility.yul\":4065:4072   */\n      dup6\n        /* \"#utility.yul\":4056:4062   */\n      dup3\n        /* \"#utility.yul\":4045:4054   */\n      dup7\n        /* \"#utility.yul\":4041:4063   */\n      add\n        /* \"#utility.yul\":4020:4073   */\n      tag_310\n      jump\t// in\n    tag_399:\n        /* \"#utility.yul\":4010:4073   */\n      swap2\n      pop\n        /* \"#utility.yul\":3965:4083   */\n      pop\n        /* \"#utility.yul\":3616:4090   */\n      swap3\n      pop\n      swap3\n      swap1\n      pop\n      jump\t// out\n        /* \"#utility.yul\":4096:4214   */\n    tag_311:\n        /* \"#utility.yul\":4183:4207   */\n      tag_401\n        /* \"#utility.yul\":4201:4206   */\n      dup2\n        /* \"#utility.yul\":4183:4207   */\n      tag_308\n      jump\t// in\n    tag_401:\n        /* \"#utility.yul\":4178:4181   */\n      dup3\n        /* \"#utility.yul\":4171:4208   */\n      mstore\n        /* \"#utility.yul\":4096:4214   */\n      pop\n      pop\n      jump\t// out\n        /* \"#utility.yul\":4220:4442   */\n    tag_46:\n        /* \"#utility.yul\":4313:4317   */\n      0x00\n        /* \"#utility.yul\":4351:4353   */\n      0x20\n        /* \"#utility.yul\":4340:4349   */\n      dup3\n        /* \"#utility.yul\":4336:4354   */\n      add\n        /* \"#utility.yul\":4328:4354   */\n      swap1\n      pop\n        /* \"#utility.yul\":4364:4435   */\n      tag_403\n        /* \"#utility.yul\":4432:4433   */\n      0x00\n        /* \"#utility.yul\":4421:4430   */\n      dup4\n        /* \"#utility.yul\":4417:4434   */\n      add\n        /* \"#utility.yul\":4408:4414   */\n      dup5\n        /* \"#utility.yul\":4364:4435   */\n      tag_311\n      jump\t// in\n    tag_403:\n        /* \"#utility.yul\":4220:4442   */\n      swap3\n      swap2\n      pop\n      pop\n      jump\t// out\n        /* \"#utility.yul\":4448:5067   */\n    tag_49:\n        /* \"#utility.yul\":4525:4531   */\n      0x00\n        /* \"#utility.yul\":4533:4539   */\n      0x00\n        /* \"#utility.yul\":4541:4547   */\n      0x00\n        /* \"#utility.yul\":4590:4592   */\n      0x60\n        /* \"#utility.yul\":4578:4587   */\n      dup5\n        /* \"#utility.yul\":4569:4576   */\n      dup7\n        /* \"#utility.yul\":4565:4588   */\n      sub\n        /* \"#utility.yul\":4561:4593   */\n      slt\n        /* \"#utility.yul\":4558:4677   */\n      iszero\n      tag_405\n      jumpi\n        /* \"#utility.yul\":4596:4675   */\n      tag_406\n      tag_292\n      jump\t// in\n    tag_406:\n        /* \"#utility.yul\":4558:4677   */\n    tag_405:\n        /* \"#utility.yul\":4716:4717   */\n      0x00\n        /* \"#utility.yul\":4741:4794   */\n      tag_407\n        /* \"#utility.yul\":4786:4793   */\n      dup7\n        /* \"#utility.yul\":4777:4783   */\n      dup3\n        /* \"#utility.yul\":4766:4775   */\n      dup8\n        /* \"#utility.yul\":4762:4784   */\n      add\n        /* \"#utility.yul\":4741:4794   */\n      tag_307\n      jump\t// in\n    tag_407:\n        /* \"#utility.yul\":4731:4794   */\n      swap4\n      pop\n        /* \"#utility.yul\":4687:4804   */\n      pop\n        /* \"#utility.yul\":4843:4845   */\n      0x20\n        /* \"#utility.yul\":4869:4922   */\n      tag_408\n        /* \"#utility.yul\":4914:4921   */\n      dup7\n        /* \"#utility.yul\":4905:4911   */\n      dup3\n        /* \"#utility.yul\":4894:4903   */\n      dup8\n        /* \"#utility.yul\":4890:4912   */\n      add\n        /* \"#utility.yul\":4869:4922   */\n      tag_307\n      jump\t// in\n    tag_408:\n        /* \"#utility.yul\":4859:4922   */\n      swap3\n      pop\n        /* \"#utility.yul\":4814:4932   */\n      pop\n        /* \"#utility.yul\":4971:4973   */\n      0x40\n        /* \"#utility.yul\":4997:5050   */\n      tag_409\n        /* \"#utility.yul\":5042:5049   */\n      dup7\n        /* \"#utility.yul\":5033:5039   */\n      dup3\n        /* \"#utility.yul\":5022:5031   */\n      dup8\n        /* \"#utility.yul\":5018:5040   */\n      add\n        /* \"#utility.yul\":4997:5050   */\n      tag_310\n      jump\t// in\n    tag_409:\n        /* \"#utility.yul\":4987:5050   */\n      swap2\n      pop\n        /* \"#utility.yul\":4942:5060   */\n      pop\n        /* \"#utility.yul\":4448:5067   */\n      swap3\n      pop\n      swap3\n      pop\n      swap3\n      jump\t// out\n        /* \"#utility.yul\":5073:5150   */\n    tag_312:\n        /* \"#utility.yul\":5110:5117   */\n      0x00\n        /* \"#utility.yul\":5139:5144   */\n      dup2\n        /* \"#utility.yul\":5128:5144   */\n      swap1\n      pop\n        /* \"#utility.yul\":5073:5150   */\n      swap2\n      swap1\n      pop\n      jump\t// out\n        /* \"#utility.yul\":5156:5278   */\n    tag_313:\n        /* \"#utility.yul\":5229:5253   */\n      tag_412\n        /* \"#utility.yul\":5247:5252   */\n      dup2\n        /* \"#utility.yul\":5229:5253   */\n      tag_312\n      jump\t// in\n    tag_412:\n        /* \"#utility.yul\":5222:5227   */\n      dup2\n        /* \"#utility.yul\":5219:5254   */\n      eq\n        /* \"#utility.yul\":5209:5272   */\n      tag_413\n      jumpi\n        /* \"#utility.yul\":5268:5269   */\n      0x00\n        /* \"#utility.yul\":5265:5266   */\n      0x00\n        /* \"#utility.yul\":5258:5270   */\n      revert\n        /* \"#utility.yul\":5209:5272   */\n    tag_413:\n        /* \"#utility.yul\":5156:5278   */\n      pop\n      jump\t// out\n        /* \"#utility.yul\":5284:5423   */\n    tag_314:\n        /* \"#utility.yul\":5330:5335   */\n      0x00\n        /* \"#utility.yul\":5368:5374   */\n      dup2\n        /* \"#utility.yul\":5355:5375   */\n      calldataload\n        /* \"#utility.yul\":5346:5375   */\n      swap1\n      pop\n        /* \"#utility.yul\":5384:5417   */\n      tag_415\n        /* \"#utility.yul\":5411:5416   */\n      dup2\n        /* \"#utility.yul\":5384:5417   */\n      tag_313\n      jump\t// in\n    tag_415:\n        /* \"#utility.yul\":5284:5423   */\n      swap3\n      swap2\n      pop\n      pop\n      jump\t// out\n        /* \"#utility.yul\":5429:5758   */\n    tag_54:\n        /* \"#utility.yul\":5488:5494   */\n      0x00\n        /* \"#utility.yul\":5537:5539   */\n      0x20\n        /* \"#utility.yul\":5525:5534   */\n      dup3\n        /* \"#utility.yul\":5516:5523   */\n      dup5\n        /* \"#utility.yul\":5512:5535   */\n      sub\n        /* \"#utility.yul\":5508:5540   */\n      slt\n        /* \"#utility.yul\":5505:5624   */\n      iszero\n      tag_417\n      jumpi\n        /* \"#utility.yul\":5543:5622   */\n      tag_418\n      tag_292\n      jump\t// in\n    tag_418:\n        /* \"#utility.yul\":5505:5624   */\n    tag_417:\n        /* \"#utility.yul\":5663:5664   */\n      0x00\n        /* \"#utility.yul\":5688:5741   */\n      tag_419\n        /* \"#utility.yul\":5733:5740   */\n      dup5\n        /* \"#utility.yul\":5724:5730   */\n      dup3\n        /* \"#utility.yul\":5713:5722   */\n      dup6\n        /* \"#utility.yul\":5709:5731   */\n      add\n        /* \"#utility.yul\":5688:5741   */\n      tag_314\n      jump\t// in\n    tag_419:\n        /* \"#utility.yul\":5678:5741   */\n      swap2\n      pop\n        /* \"#utility.yul\":5634:5751   */\n      pop\n        /* \"#utility.yul\":5429:5758   */\n      swap3\n      swap2\n      pop\n      pop\n      jump\t// out\n        /* \"#utility.yul\":5764:5882   */\n    tag_315:\n        /* \"#utility.yul\":5851:5875   */\n      tag_421\n        /* \"#utility.yul\":5869:5874   */\n      dup2\n        /* \"#utility.yul\":5851:5875   */\n      tag_312\n      jump\t// in\n    tag_421:\n        /* \"#utility.yul\":5846:5849   */\n      dup3\n        /* \"#utility.yul\":5839:5876   */\n      mstore\n        /* \"#utility.yul\":5764:5882   */\n      pop\n      pop\n      jump\t// out\n        /* \"#utility.yul\":5888:6110   */\n    tag_57:\n        /* \"#utility.yul\":5981:5985   */\n      0x00\n        /* \"#utility.yul\":6019:6021   */\n      0x20\n        /* \"#utility.yul\":6008:6017   */\n      dup3\n        /* \"#utility.yul\":6004:6022   */\n      add\n        /* \"#utility.yul\":5996:6022   */\n      swap1\n      pop\n        /* \"#utility.yul\":6032:6103   */\n      tag_423\n        /* \"#utility.yul\":6100:6101   */\n      0x00\n        /* \"#utility.yul\":6089:6098   */\n      dup4\n        /* \"#utility.yul\":6085:6102   */\n      add\n        /* \"#utility.yul\":6076:6082   */\n      dup5\n        /* \"#utility.yul\":6032:6103   */\n      tag_315\n      jump\t// in\n    tag_423:\n        /* \"#utility.yul\":5888:6110   */\n      swap3\n      swap2\n      pop\n      pop\n      jump\t// out\n        /* \"#utility.yul\":6116:6590   */\n    tag_60:\n        /* \"#utility.yul\":6184:6190   */\n      0x00\n        /* \"#utility.yul\":6192:6198   */\n      0x00\n        /* \"#utility.yul\":6241:6243   */\n      0x40\n        /* \"#utility.yul\":6229:6238   */\n      dup4\n        /* \"#utility.yul\":6220:6227   */\n      dup6\n        /* \"#utility.yul\":6216:6239   */\n      sub\n        /* \"#utility.yul\":6212:6244   */\n      slt\n        /* \"#utility.yul\":6209:6328   */\n      iszero\n      tag_425\n      jumpi\n        /* \"#utility.yul\":6247:6326   */\n      tag_426\n      tag_292\n      jump\t// in\n    tag_426:\n        /* \"#utility.yul\":6209:6328   */\n    tag_425:\n        /* \"#utility.yul\":6367:6368   */\n      0x00\n        /* \"#utility.yul\":6392:6445   */\n      tag_427\n        /* \"#utility.yul\":6437:6444   */\n      dup6\n        /* \"#utility.yul\":6428:6434   */\n      dup3\n        /* \"#utility.yul\":6417:6426   */\n      dup7\n        /* \"#utility.yul\":6413:6435   */\n      add\n        /* \"#utility.yul\":6392:6445   */\n      tag_314\n      jump\t// in\n    tag_427:\n        /* \"#utility.yul\":6382:6445   */\n      swap3\n      pop\n        /* \"#utility.yul\":6338:6455   */\n      pop\n        /* \"#utility.yul\":6494:6496   */\n      0x20\n        /* \"#utility.yul\":6520:6573   */\n      tag_428\n        /* \"#utility.yul\":6565:6572   */\n      dup6\n        /* \"#utility.yul\":6556:6562   */\n      dup3\n        /* \"#utility.yul\":6545:6554   */\n      dup7\n        /* \"#utility.yul\":6541:6563   */\n      add\n        /* \"#utility.yul\":6520:6573   */\n      tag_307\n      jump\t// in\n    tag_428:\n        /* \"#utility.yul\":6510:6573   */\n      swap2\n      pop\n        /* \"#utility.yul\":6465:6583   */\n      pop\n        /* \"#utility.yul\":6116:6590   */\n      swap3\n      pop\n      swap3\n      swap1\n      pop\n      jump\t// out\n        /* \"#utility.yul\":6596:6682   */\n    tag_316:\n        /* \"#utility.yul\":6631:6638   */\n      0x00\n        /* \"#utility.yul\":6671:6675   */\n      0xff\n        /* \"#utility.yul\":6664:6669   */\n      dup3\n        /* \"#utility.yul\":6660:6676   */\n      and\n        /* \"#utility.yul\":6649:6676   */\n      swap1\n      pop\n        /* \"#utility.yul\":6596:6682   */\n      swap2\n      swap1\n      pop\n      jump\t// out\n        /* \"#utility.yul\":6688:6800   */\n    tag_317:\n        /* \"#utility.yul\":6771:6793   */\n      tag_431\n        /* \"#utility.yul\":6787:6792   */\n      dup2\n        /* \"#utility.yul\":6771:6793   */\n      tag_316\n      jump\t// in\n    tag_431:\n        /* \"#utility.yul\":6766:6769   */\n      dup3\n        /* \"#utility.yul\":6759:6794   */\n      mstore\n        /* \"#utility.yul\":6688:6800   */\n      pop\n      pop\n      jump\t// out\n        /* \"#utility.yul\":6806:7020   */\n    tag_65:\n        /* \"#utility.yul\":6895:6899   */\n      0x00\n        /* \"#utility.yul\":6933:6935   */\n      0x20\n        /* \"#utility.yul\":6922:6931   */\n      dup3\n        /* \"#utility.yul\":6918:6936   */\n      add\n        /* \"#utility.yul\":6910:6936   */\n      swap1\n      pop\n        /* \"#utility.yul\":6946:7013   */\n      tag_433\n        /* \"#utility.yul\":7010:7011   */\n      0x00\n        /* \"#utility.yul\":6999:7008   */\n      dup4\n        /* \"#utility.yul\":6995:7012   */\n      add\n        /* \"#utility.yul\":6986:6992   */\n      dup5\n        /* \"#utility.yul\":6946:7013   */\n      tag_317\n      jump\t// in\n    tag_433:\n        /* \"#utility.yul\":6806:7020   */\n      swap3\n      swap2\n      pop\n      pop\n      jump\t// out\n        /* \"#utility.yul\":7026:7086   */\n    tag_318:\n        /* \"#utility.yul\":7054:7057   */\n      0x00\n        /* \"#utility.yul\":7075:7080   */\n      dup2\n        /* \"#utility.yul\":7068:7080   */\n      swap1\n      pop\n        /* \"#utility.yul\":7026:7086   */\n      swap2\n      swap1\n      pop\n      jump\t// out\n        /* \"#utility.yul\":7092:7234   */\n    tag_319:\n        /* \"#utility.yul\":7142:7151   */\n      0x00\n        /* \"#utility.yul\":7175:7228   */\n      tag_436\n        /* \"#utility.yul\":7193:7227   */\n      tag_437\n        /* \"#utility.yul\":7202:7226   */\n      tag_438\n        /* \"#utility.yul\":7220:7225   */\n      dup5\n        /* \"#utility.yul\":7202:7226   */\n      tag_304\n      jump\t// in\n    tag_438:\n        /* \"#utility.yul\":7193:7227   */\n      tag_318\n      jump\t// in\n    tag_437:\n        /* \"#utility.yul\":7175:7228   */\n      tag_304\n      jump\t// in\n    tag_436:\n        /* \"#utility.yul\":7162:7228   */\n      swap1\n      pop\n        /* \"#utility.yul\":7092:7234   */\n      swap2\n      swap1\n      pop\n      jump\t// out\n        /* \"#utility.yul\":7240:7366   */\n    tag_320:\n        /* \"#utility.yul\":7290:7299   */\n      0x00\n        /* \"#utility.yul\":7323:7360   */\n      tag_440\n        /* \"#utility.yul\":7354:7359   */\n      dup3\n        /* \"#utility.yul\":7323:7360   */\n      tag_319\n      jump\t// in\n    tag_440:\n        /* \"#utility.yul\":7310:7360   */\n      swap1\n      pop\n        /* \"#utility.yul\":7240:7366   */\n      swap2\n      swap1\n      pop\n      jump\t// out\n        /* \"#utility.yul\":7372:7516   */\n    tag_321:\n        /* \"#utility.yul\":7440:7449   */\n      0x00\n        /* \"#utility.yul\":7473:7510   */\n      tag_442\n        /* \"#utility.yul\":7504:7509   */\n      dup3\n        /* \"#utility.yul\":7473:7510   */\n      tag_320\n      jump\t// in\n    tag_442:\n        /* \"#utility.yul\":7460:7510   */\n      swap1\n      pop\n        /* \"#utility.yul\":7372:7516   */\n      swap2\n      swap1\n      pop\n      jump\t// out\n        /* \"#utility.yul\":7522:7689   */\n    tag_322:\n        /* \"#utility.yul\":7627:7682   */\n      tag_444\n        /* \"#utility.yul\":7676:7681   */\n      dup2\n        /* \"#utility.yul\":7627:7682   */\n      tag_321\n      jump\t// in\n    tag_444:\n        /* \"#utility.yul\":7622:7625   */\n      dup3\n        /* \"#utility.yul\":7615:7683   */\n      mstore\n        /* \"#utility.yul\":7522:7689   */\n      pop\n      pop\n      jump\t// out\n        /* \"#utility.yul\":7695:7953   */\n    tag_77:\n        /* \"#utility.yul\":7806:7810   */\n      0x00\n        /* \"#utility.yul\":7844:7846   */\n      0x20\n        /* \"#utility.yul\":7833:7842   */\n      dup3\n        /* \"#utility.yul\":7829:7847   */\n      add\n        /* \"#utility.yul\":7821:7847   */\n      swap1\n      pop\n        /* \"#utility.yul\":7857:7946   */\n      tag_446\n        /* \"#utility.yul\":7943:7944   */\n      0x00\n        /* \"#utility.yul\":7932:7941   */\n      dup4\n        /* \"#utility.yul\":7928:7945   */\n      add\n        /* \"#utility.yul\":7919:7925   */\n      dup5\n        /* \"#utility.yul\":7857:7946   */\n      tag_322\n      jump\t// in\n    tag_446:\n        /* \"#utility.yul\":7695:7953   */\n      swap3\n      swap2\n      pop\n      pop\n      jump\t// out\n        /* \"#utility.yul\":7959:8288   */\n    tag_80:\n        /* \"#utility.yul\":8018:8024   */\n      0x00\n        /* \"#utility.yul\":8067:8069   */\n      0x20\n        /* \"#utility.yul\":8055:8064   */\n      dup3\n        /* \"#utility.yul\":8046:8053   */\n      dup5\n        /* \"#utility.yul\":8042:8065   */\n      sub\n        /* \"#utility.yul\":8038:8070   */\n      slt\n        /* \"#utility.yul\":8035:8154   */\n      iszero\n      tag_448\n      jumpi\n        /* \"#utility.yul\":8073:8152   */\n      tag_449\n      tag_292\n      jump\t// in\n    tag_449:\n        /* \"#utility.yul\":8035:8154   */\n    tag_448:\n        /* \"#utility.yul\":8193:8194   */\n      0x00\n        /* \"#utility.yul\":8218:8271   */\n      tag_450\n        /* \"#utility.yul\":8263:8270   */\n      dup5\n        /* \"#utility.yul\":8254:8260   */\n      dup3\n        /* \"#utility.yul\":8243:8252   */\n      dup6\n        /* \"#utility.yul\":8239:8261   */\n      add\n        /* \"#utility.yul\":8218:8271   */\n      tag_307\n      jump\t// in\n    tag_450:\n        /* \"#utility.yul\":8208:8271   */\n      swap2\n      pop\n        /* \"#utility.yul\":8164:8281   */\n      pop\n        /* \"#utility.yul\":7959:8288   */\n      swap3\n      swap2\n      pop\n      pop\n      jump\t// out\n        /* \"#utility.yul\":8294:8411   */\n    tag_323:\n        /* \"#utility.yul\":8403:8404   */\n      0x00\n        /* \"#utility.yul\":8400:8401   */\n      0x00\n        /* \"#utility.yul\":8393:8405   */\n      revert\n        /* \"#utility.yul\":8417:8534   */\n    tag_324:\n        /* \"#utility.yul\":8526:8527   */\n      0x00\n        /* \"#utility.yul\":8523:8524   */\n      0x00\n        /* \"#utility.yul\":8516:8528   */\n      revert\n        /* \"#utility.yul\":8540:8657   */\n    tag_325:\n        /* \"#utility.yul\":8649:8650   */\n      0x00\n        /* \"#utility.yul\":8646:8647   */\n      0x00\n        /* \"#utility.yul\":8639:8651   */\n      revert\n        /* \"#utility.yul\":8677:9230   */\n    tag_326:\n        /* \"#utility.yul\":8735:8743   */\n      0x00\n        /* \"#utility.yul\":8745:8751   */\n      0x00\n        /* \"#utility.yul\":8795:8798   */\n      dup4\n        /* \"#utility.yul\":8788:8792   */\n      0x1f\n        /* \"#utility.yul\":8780:8786   */\n      dup5\n        /* \"#utility.yul\":8776:8793   */\n      add\n        /* \"#utility.yul\":8772:8799   */\n      slt\n        /* \"#utility.yul\":8762:8884   */\n      tag_455\n      jumpi\n        /* \"#utility.yul\":8803:8882   */\n      tag_456\n      tag_323\n      jump\t// in\n    tag_456:\n        /* \"#utility.yul\":8762:8884   */\n    tag_455:\n        /* \"#utility.yul\":8916:8922   */\n      dup3\n        /* \"#utility.yul\":8903:8923   */\n      calldataload\n        /* \"#utility.yul\":8893:8923   */\n      swap1\n      pop\n        /* \"#utility.yul\":8946:8964   */\n      0xffffffffffffffff\n        /* \"#utility.yul\":8938:8944   */\n      dup2\n        /* \"#utility.yul\":8935:8965   */\n      gt\n        /* \"#utility.yul\":8932:9049   */\n      iszero\n      tag_457\n      jumpi\n        /* \"#utility.yul\":8968:9047   */\n      tag_458\n      tag_324\n      jump\t// in\n    tag_458:\n        /* \"#utility.yul\":8932:9049   */\n    tag_457:\n        /* \"#utility.yul\":9082:9086   */\n      0x20\n        /* \"#utility.yul\":9074:9080   */\n      dup4\n        /* \"#utility.yul\":9070:9087   */\n      add\n        /* \"#utility.yul\":9058:9087   */\n      swap2\n      pop\n        /* \"#utility.yul\":9136:9139   */\n      dup4\n        /* \"#utility.yul\":9128:9132   */\n      0x01\n        /* \"#utility.yul\":9120:9126   */\n      dup3\n        /* \"#utility.yul\":9116:9133   */\n      mul\n        /* \"#utility.yul\":9106:9114   */\n      dup4\n        /* \"#utility.yul\":9102:9134   */\n      add\n        /* \"#utility.yul\":9099:9140   */\n      gt\n        /* \"#utility.yul\":9096:9224   */\n      iszero\n      tag_459\n      jumpi\n        /* \"#utility.yul\":9143:9222   */\n      tag_460\n      tag_325\n      jump\t// in\n    tag_460:\n        /* \"#utility.yul\":9096:9224   */\n    tag_459:\n        /* \"#utility.yul\":8677:9230   */\n      swap3\n      pop\n      swap3\n      swap1\n      pop\n      jump\t// out\n        /* \"#utility.yul\":9236:10201   */\n    tag_90:\n        /* \"#utility.yul\":9334:9340   */\n      0x00\n        /* \"#utility.yul\":9342:9348   */\n      0x00\n        /* \"#utility.yul\":9350:9356   */\n      0x00\n        /* \"#utility.yul\":9358:9364   */\n      0x00\n        /* \"#utility.yul\":9366:9372   */\n      0x00\n        /* \"#utility.yul\":9415:9418   */\n      0x80\n        /* \"#utility.yul\":9403:9412   */\n      dup7\n        /* \"#utility.yul\":9394:9401   */\n      dup9\n        /* \"#utility.yul\":9390:9413   */\n      sub\n        /* \"#utility.yul\":9386:9419   */\n      slt\n        /* \"#utility.yul\":9383:9503   */\n      iszero\n      tag_462\n      jumpi\n        /* \"#utility.yul\":9422:9501   */\n      tag_463\n      tag_292\n      jump\t// in\n    tag_463:\n        /* \"#utility.yul\":9383:9503   */\n    tag_462:\n        /* \"#utility.yul\":9542:9543   */\n      0x00\n        /* \"#utility.yul\":9567:9620   */\n      tag_464\n        /* \"#utility.yul\":9612:9619   */\n      dup9\n        /* \"#utility.yul\":9603:9609   */\n      dup3\n        /* \"#utility.yul\":9592:9601   */\n      dup10\n        /* \"#utility.yul\":9588:9610   */\n      add\n        /* \"#utility.yul\":9567:9620   */\n      tag_307\n      jump\t// in\n    tag_464:\n        /* \"#utility.yul\":9557:9620   */\n      swap6\n      pop\n        /* \"#utility.yul\":9513:9630   */\n      pop\n        /* \"#utility.yul\":9669:9671   */\n      0x20\n        /* \"#utility.yul\":9695:9748   */\n      tag_465\n        /* \"#utility.yul\":9740:9747   */\n      dup9\n        /* \"#utility.yul\":9731:9737   */\n      dup3\n        /* \"#utility.yul\":9720:9729   */\n      dup10\n        /* \"#utility.yul\":9716:9738   */\n      add\n        /* \"#utility.yul\":9695:9748   */\n      tag_307\n      jump\t// in\n    tag_465:\n        /* \"#utility.yul\":9685:9748   */\n      swap5\n      pop\n        /* \"#utility.yul\":9640:9758   */\n      pop\n        /* \"#utility.yul\":9797:9799   */\n      0x40\n        /* \"#utility.yul\":9823:9876   */\n      tag_466\n        /* \"#utility.yul\":9868:9875   */\n      dup9\n        /* \"#utility.yul\":9859:9865   */\n      dup3\n        /* \"#utility.yul\":9848:9857   */\n      dup10\n        /* \"#utility.yul\":9844:9866   */\n      add\n        /* \"#utility.yul\":9823:9876   */\n      tag_310\n      jump\t// in\n    tag_466:\n        /* \"#utility.yul\":9813:9876   */\n      swap4\n      pop\n        /* \"#utility.yul\":9768:9886   */\n      pop\n        /* \"#utility.yul\":9953:9955   */\n      0x60\n        /* \"#utility.yul\":9942:9951   */\n      dup7\n        /* \"#utility.yul\":9938:9956   */\n      add\n        /* \"#utility.yul\":9925:9957   */\n      calldataload\n        /* \"#utility.yul\":9984:10002   */\n      0xffffffffffffffff\n        /* \"#utility.yul\":9976:9982   */\n      dup2\n        /* \"#utility.yul\":9973:10003   */\n      gt\n        /* \"#utility.yul\":9970:10087   */\n      iszero\n      tag_467\n      jumpi\n        /* \"#utility.yul\":10006:10085   */\n      tag_468\n      tag_293\n      jump\t// in\n    tag_468:\n        /* \"#utility.yul\":9970:10087   */\n    tag_467:\n        /* \"#utility.yul\":10119:10184   */\n      tag_469\n        /* \"#utility.yul\":10176:10183   */\n      dup9\n        /* \"#utility.yul\":10167:10173   */\n      dup3\n        /* \"#utility.yul\":10156:10165   */\n      dup10\n        /* \"#utility.yul\":10152:10174   */\n      add\n        /* \"#utility.yul\":10119:10184   */\n      tag_326\n      jump\t// in\n    tag_469:\n        /* \"#utility.yul\":10101:10184   */\n      swap3\n      pop\n      swap3\n      pop\n        /* \"#utility.yul\":9896:10194   */\n      pop\n        /* \"#utility.yul\":9236:10201   */\n      swap3\n      swap6\n      pop\n      swap3\n      swap6\n      swap1\n      swap4\n      pop\n      jump\t// out\n        /* \"#utility.yul\":10207:10681   */\n    tag_111:\n        /* \"#utility.yul\":10275:10281   */\n      0x00\n        /* \"#utility.yul\":10283:10289   */\n      0x00\n        /* \"#utility.yul\":10332:10334   */\n      0x40\n        /* \"#utility.yul\":10320:10329   */\n      dup4\n        /* \"#utility.yul\":10311:10318   */\n      dup6\n        /* \"#utility.yul\":10307:10330   */\n      sub\n        /* \"#utility.yul\":10303:10335   */\n      slt\n        /* \"#utility.yul\":10300:10419   */\n      iszero\n      tag_471\n      jumpi\n        /* \"#utility.yul\":10338:10417   */\n      tag_472\n      tag_292\n      jump\t// in\n    tag_472:\n        /* \"#utility.yul\":10300:10419   */\n    tag_471:\n        /* \"#utility.yul\":10458:10459   */\n      0x00\n        /* \"#utility.yul\":10483:10536   */\n      tag_473\n        /* \"#utility.yul\":10528:10535   */\n      dup6\n        /* \"#utility.yul\":10519:10525   */\n      dup3\n        /* \"#utility.yul\":10508:10517   */\n      dup7\n        /* \"#utility.yul\":10504:10526   */\n      add\n        /* \"#utility.yul\":10483:10536   */\n      tag_307\n      jump\t// in\n    tag_473:\n        /* \"#utility.yul\":10473:10536   */\n      swap3\n      pop\n        /* \"#utility.yul\":10429:10546   */\n      pop\n        /* \"#utility.yul\":10585:10587   */\n      0x20\n        /* \"#utility.yul\":10611:10664   */\n      tag_474\n        /* \"#utility.yul\":10656:10663   */\n      dup6\n        /* \"#utility.yul\":10647:10653   */\n      dup3\n        /* \"#utility.yul\":10636:10645   */\n      dup7\n        /* \"#utility.yul\":10632:10654   */\n      add\n        /* \"#utility.yul\":10611:10664   */\n      tag_307\n      jump\t// in\n    tag_474:\n        /* \"#utility.yul\":10601:10664   */\n      swap2\n      pop\n        /* \"#utility.yul\":10556:10674   */\n      pop\n        /* \"#utility.yul\":10207:10681   */\n      swap3\n      pop\n      swap3\n      swap1\n      pop\n      jump\t// out\n        /* \"#utility.yul\":10687:10867   */\n    tag_327:\n        /* \"#utility.yul\":10735:10812   */\n      0x4e487b7100000000000000000000000000000000000000000000000000000000\n        /* \"#utility.yul\":10732:10733   */\n      0x00\n        /* \"#utility.yul\":10725:10813   */\n      mstore\n        /* \"#utility.yul\":10832:10836   */\n      0x22\n        /* \"#utility.yul\":10829:10830   */\n      0x04\n        /* \"#utility.yul\":10822:10837   */\n      mstore\n        /* \"#utility.yul\":10856:10860   */\n      0x24\n        /* \"#utility.yul\":10853:10854   */\n      0x00\n        /* \"#utility.yul\":10846:10861   */\n      revert\n        /* \"#utility.yul\":10873:11193   */\n    tag_120:\n        /* \"#utility.yul\":10917:10923   */\n      0x00\n        /* \"#utility.yul\":10954:10955   */\n      0x02\n        /* \"#utility.yul\":10948:10952   */\n      dup3\n        /* \"#utility.yul\":10944:10956   */\n      div\n        /* \"#utility.yul\":10934:10956   */\n      swap1\n      pop\n        /* \"#utility.yul\":11001:11002   */\n      0x01\n        /* \"#utility.yul\":10995:10999   */\n      dup3\n        /* \"#utility.yul\":10991:11003   */\n      and\n        /* \"#utility.yul\":11022:11040   */\n      dup1\n        /* \"#utility.yul\":11012:11093   */\n      tag_477\n      jumpi\n        /* \"#utility.yul\":11078:11082   */\n      0x7f\n        /* \"#utility.yul\":11070:11076   */\n      dup3\n        /* \"#utility.yul\":11066:11083   */\n      and\n        /* \"#utility.yul\":11056:11083   */\n      swap2\n      pop\n        /* \"#utility.yul\":11012:11093   */\n    tag_477:\n        /* \"#utility.yul\":11140:11142   */\n      0x20\n        /* \"#utility.yul\":11132:11138   */\n      dup3\n        /* \"#utility.yul\":11129:11143   */\n      lt\n        /* \"#utility.yul\":11109:11127   */\n      dup2\n        /* \"#utility.yul\":11106:11144   */\n      sub\n        /* \"#utility.yul\":11103:11187   */\n      tag_478\n      jumpi\n        /* \"#utility.yul\":11159:11177   */\n      tag_479\n      tag_327\n      jump\t// in\n    tag_479:\n        /* \"#utility.yul\":11103:11187   */\n    tag_478:\n        /* \"#utility.yul\":10924:11193   */\n      pop\n        /* \"#utility.yul\":10873:11193   */\n      swap2\n      swap1\n      pop\n      jump\t// out\n        /* \"#utility.yul\":11199:11347   */\n    tag_328:\n        /* \"#utility.yul\":11297:11303   */\n      dup3\n        /* \"#utility.yul\":11292:11295   */\n      dup2\n        /* \"#utility.yul\":11287:11290   */\n      dup4\n        /* \"#utility.yul\":11274:11304   */\n      calldatacopy\n        /* \"#utility.yul\":11338:11339   */\n      0x00\n        /* \"#utility.yul\":11329:11335   */\n      dup4\n        /* \"#utility.yul\":11324:11327   */\n      dup4\n        /* \"#utility.yul\":11320:11336   */\n      add\n        /* \"#utility.yul\":11313:11340   */\n      mstore\n        /* \"#utility.yul\":11199:11347   */\n      pop\n      pop\n      pop\n      jump\t// out\n        /* \"#utility.yul\":11377:11694   */\n    tag_329:\n        /* \"#utility.yul\":11475:11478   */\n      0x00\n        /* \"#utility.yul\":11496:11567   */\n      tag_482\n        /* \"#utility.yul\":11560:11566   */\n      dup4\n        /* \"#utility.yul\":11555:11558   */\n      dup6\n        /* \"#utility.yul\":11496:11567   */\n      tag_300\n      jump\t// in\n    tag_482:\n        /* \"#utility.yul\":11489:11567   */\n      swap4\n      pop\n        /* \"#utility.yul\":11577:11633   */\n      tag_483\n        /* \"#utility.yul\":11626:11632   */\n      dup4\n        /* \"#utility.yul\":11621:11624   */\n      dup6\n        /* \"#utility.yul\":11614:11619   */\n      dup5\n        /* \"#utility.yul\":11577:11633   */\n      tag_328\n      jump\t// in\n    tag_483:\n        /* \"#utility.yul\":11658:11687   */\n      tag_484\n        /* \"#utility.yul\":11680:11686   */\n      dup4\n        /* \"#utility.yul\":11658:11687   */\n      tag_302\n      jump\t// in\n    tag_484:\n        /* \"#utility.yul\":11653:11656   */\n      dup5\n        /* \"#utility.yul\":11649:11688   */\n      add\n        /* \"#utility.yul\":11642:11688   */\n      swap1\n      pop\n        /* \"#utility.yul\":11377:11694   */\n      swap4\n      swap3\n      pop\n      pop\n      pop\n      jump\t// out\n        /* \"#utility.yul\":11700:12143   */\n    tag_169:\n        /* \"#utility.yul\":11851:11855   */\n      0x00\n        /* \"#utility.yul\":11889:11891   */\n      0x40\n        /* \"#utility.yul\":11878:11887   */\n      dup3\n        /* \"#utility.yul\":11874:11892   */\n      add\n        /* \"#utility.yul\":11866:11892   */\n      swap1\n      pop\n        /* \"#utility.yul\":11902:11973   */\n      tag_486\n        /* \"#utility.yul\":11970:11971   */\n      0x00\n        /* \"#utility.yul\":11959:11968   */\n      dup4\n        /* \"#utility.yul\":11955:11972   */\n      add\n        /* \"#utility.yul\":11946:11952   */\n      dup7\n        /* \"#utility.yul\":11902:11973   */\n      tag_311\n      jump\t// in\n    tag_486:\n        /* \"#utility.yul\":12020:12029   */\n      dup2\n        /* \"#utility.yul\":12014:12018   */\n      dup2\n        /* \"#utility.yul\":12010:12030   */\n      sub\n        /* \"#utility.yul\":12005:12007   */\n      0x20\n        /* \"#utility.yul\":11994:12003   */\n      dup4\n        /* \"#utility.yul\":11990:12008   */\n      add\n        /* \"#utility.yul\":11983:12031   */\n      mstore\n        /* \"#utility.yul\":12048:12136   */\n      tag_487\n        /* \"#utility.yul\":12131:12135   */\n      dup2\n        /* \"#utility.yul\":12122:12128   */\n      dup5\n        /* \"#utility.yul\":12114:12120   */\n      dup7\n        /* \"#utility.yul\":12048:12136   */\n      tag_329\n      jump\t// in\n    tag_487:\n        /* \"#utility.yul\":12040:12136   */\n      swap1\n      pop\n        /* \"#utility.yul\":11700:12143   */\n      swap5\n      swap4\n      pop\n      pop\n      pop\n      pop\n      jump\t// out\n        /* \"#utility.yul\":12149:12267   */\n    tag_330:\n        /* \"#utility.yul\":12236:12260   */\n      tag_489\n        /* \"#utility.yul\":12254:12259   */\n      dup2\n        /* \"#utility.yul\":12236:12260   */\n      tag_305\n      jump\t// in\n    tag_489:\n        /* \"#utility.yul\":12231:12234   */\n      dup3\n        /* \"#utility.yul\":12224:12261   */\n      mstore\n        /* \"#utility.yul\":12149:12267   */\n      pop\n      pop\n      jump\t// out\n        /* \"#utility.yul\":12273:12715   */\n    tag_196:\n        /* \"#utility.yul\":12422:12426   */\n      0x00\n        /* \"#utility.yul\":12460:12462   */\n      0x60\n        /* \"#utility.yul\":12449:12458   */\n      dup3\n        /* \"#utility.yul\":12445:12463   */\n      add\n        /* \"#utility.yul\":12437:12463   */\n      swap1\n      pop\n        /* \"#utility.yul\":12473:12544   */\n      tag_491\n        /* \"#utility.yul\":12541:12542   */\n      0x00\n        /* \"#utility.yul\":12530:12539   */\n      dup4\n        /* \"#utility.yul\":12526:12543   */\n      add\n        /* \"#utility.yul\":12517:12523   */\n      dup7\n        /* \"#utility.yul\":12473:12544   */\n      tag_330\n      jump\t// in\n    tag_491:\n        /* \"#utility.yul\":12554:12626   */\n      tag_492\n        /* \"#utility.yul\":12622:12624   */\n      0x20\n        /* \"#utility.yul\":12611:12620   */\n      dup4\n        /* \"#utility.yul\":12607:12625   */\n      add\n        /* \"#utility.yul\":12598:12604   */\n      dup6\n        /* \"#utility.yul\":12554:12626   */\n      tag_311\n      jump\t// in\n    tag_492:\n        /* \"#utility.yul\":12636:12708   */\n      tag_493\n        /* \"#utility.yul\":12704:12706   */\n      0x40\n        /* \"#utility.yul\":12693:12702   */\n      dup4\n        /* \"#utility.yul\":12689:12707   */\n      add\n        /* \"#utility.yul\":12680:12686   */\n      dup5\n        /* \"#utility.yul\":12636:12708   */\n      tag_311\n      jump\t// in\n    tag_493:\n        /* \"#utility.yul\":12273:12715   */\n      swap5\n      swap4\n      pop\n      pop\n      pop\n      pop\n      jump\t// out\n        /* \"#utility.yul\":12721:12943   */\n    tag_201:\n        /* \"#utility.yul\":12814:12818   */\n      0x00\n        /* \"#utility.yul\":12852:12854   */\n      0x20\n        /* \"#utility.yul\":12841:12850   */\n      dup3\n        /* \"#utility.yul\":12837:12855   */\n      add\n        /* \"#utility.yul\":12829:12855   */\n      swap1\n      pop\n        /* \"#utility.yul\":12865:12936   */\n      tag_495\n        /* \"#utility.yul\":12933:12934   */\n      0x00\n        /* \"#utility.yul\":12922:12931   */\n      dup4\n        /* \"#utility.yul\":12918:12935   */\n      add\n        /* \"#utility.yul\":12909:12915   */\n      dup5\n        /* \"#utility.yul\":12865:12936   */\n      tag_330\n      jump\t// in\n    tag_495:\n        /* \"#utility.yul\":12721:12943   */\n      swap3\n      swap2\n      pop\n      pop\n      jump\t// out\n        /* \"#utility.yul\":12949:13105   */\n    tag_331:\n        /* \"#utility.yul\":13089:13097   */\n      0x7061757365640000000000000000000000000000000000000000000000000000\n        /* \"#utility.yul\":13085:13086   */\n      0x00\n        /* \"#utility.yul\":13077:13083   */\n      dup3\n        /* \"#utility.yul\":13073:13087   */\n      add\n        /* \"#utility.yul\":13066:13098   */\n      mstore\n        /* \"#utility.yul\":12949:13105   */\n      pop\n      jump\t// out\n        /* \"#utility.yul\":13111:13476   */\n    tag_332:\n        /* \"#utility.yul\":13253:13256   */\n      0x00\n        /* \"#utility.yul\":13274:13340   */\n      tag_498\n        /* \"#utility.yul\":13338:13339   */\n      0x06\n        /* \"#utility.yul\":13333:13336   */\n      dup4\n        /* \"#utility.yul\":13274:13340   */\n      tag_300\n      jump\t// in\n    tag_498:\n        /* \"#utility.yul\":13267:13340   */\n      swap2\n      pop\n        /* \"#utility.yul\":13349:13442   */\n      tag_499\n        /* \"#utility.yul\":13438:13441   */\n      dup3\n        /* \"#utility.yul\":13349:13442   */\n      tag_331\n      jump\t// in\n    tag_499:\n        /* \"#utility.yul\":13467:13469   */\n      0x20\n        /* \"#utility.yul\":13462:13465   */\n      dup3\n        /* \"#utility.yul\":13458:13470   */\n      add\n        /* \"#utility.yul\":13451:13470   */\n      swap1\n      pop\n        /* \"#utility.yul\":13111:13476   */\n      swap2\n      swap1\n      pop\n      jump\t// out\n        /* \"#utility.yul\":13482:13901   */\n    tag_235:\n        /* \"#utility.yul\":13648:13652   */\n      0x00\n        /* \"#utility.yul\":13686:13688   */\n      0x20\n        /* \"#utility.yul\":13675:13684   */\n      dup3\n        /* \"#utility.yul\":13671:13689   */\n      add\n        /* \"#utility.yul\":13663:13689   */\n      swap1\n      pop\n        /* \"#utility.yul\":13735:13744   */\n      dup2\n        /* \"#utility.yul\":13729:13733   */\n      dup2\n        /* \"#utility.yul\":13725:13745   */\n      sub\n        /* \"#utility.yul\":13721:13722   */\n      0x00\n        /* \"#utility.yul\":13710:13719   */\n      dup4\n        /* \"#utility.yul\":13706:13723   */\n      add\n        /* \"#utility.yul\":13699:13746   */\n      mstore\n        /* \"#utility.yul\":13763:13894   */\n      tag_501\n        /* \"#utility.yul\":13889:13893   */\n      dup2\n        /* \"#utility.yul\":13763:13894   */\n      tag_332\n      jump\t// in\n    tag_501:\n        /* \"#utility.yul\":13755:13894   */\n      swap1\n      pop\n        /* \"#utility.yul\":13482:13901   */\n      swap2\n      swap1\n      pop\n      jump\t// out\n        /* \"#utility.yul\":13907:14075   */\n    tag_333:\n        /* \"#utility.yul\":13990:14001   */\n      0x00\n        /* \"#utility.yul\":14024:14030   */\n      dup3\n        /* \"#utility.yul\":14019:14022   */\n      dup3\n        /* \"#utility.yul\":14012:14031   */\n      mstore\n        /* \"#utility.yul\":14064:14068   */\n      0x20\n        /* \"#utility.yul\":14059:14062   */\n      dup3\n        /* \"#utility.yul\":14055:14069   */\n      add\n        /* \"#utility.yul\":14040:14069   */\n      swap1\n      pop\n        /* \"#utility.yul\":13907:14075   */\n      swap3\n      swap2\n      pop\n      pop\n      jump\t// out\n        /* \"#utility.yul\":14081:14195   */\n    tag_334:\n      pop\n      jump\t// out\n        /* \"#utility.yul\":14201:14563   */\n    tag_335:\n        /* \"#utility.yul\":14342:14345   */\n      0x00\n        /* \"#utility.yul\":14363:14428   */\n      tag_505\n        /* \"#utility.yul\":14426:14427   */\n      0x00\n        /* \"#utility.yul\":14421:14424   */\n      dup4\n        /* \"#utility.yul\":14363:14428   */\n      tag_333\n      jump\t// in\n    tag_505:\n        /* \"#utility.yul\":14356:14428   */\n      swap2\n      pop\n        /* \"#utility.yul\":14437:14530   */\n      tag_506\n        /* \"#utility.yul\":14526:14529   */\n      dup3\n        /* \"#utility.yul\":14437:14530   */\n      tag_334\n      jump\t// in\n    tag_506:\n        /* \"#utility.yul\":14555:14556   */\n      0x00\n        /* \"#utility.yul\":14550:14553   */\n      dup3\n        /* \"#utility.yul\":14546:14557   */\n      add\n        /* \"#utility.yul\":14539:14557   */\n      swap1\n      pop\n        /* \"#utility.yul\":14201:14563   */\n      swap2\n      swap1\n      pop\n      jump\t// out\n        /* \"#utility.yul\":14569:15317   */\n    tag_239:\n        /* \"#utility.yul\":14818:14822   */\n      0x00\n        /* \"#utility.yul\":14856:14859   */\n      0x80\n        /* \"#utility.yul\":14845:14854   */\n      dup3\n        /* \"#utility.yul\":14841:14860   */\n      add\n        /* \"#utility.yul\":14833:14860   */\n      swap1\n      pop\n        /* \"#utility.yul\":14870:14941   */\n      tag_508\n        /* \"#utility.yul\":14938:14939   */\n      0x00\n        /* \"#utility.yul\":14927:14936   */\n      dup4\n        /* \"#utility.yul\":14923:14940   */\n      add\n        /* \"#utility.yul\":14914:14920   */\n      dup7\n        /* \"#utility.yul\":14870:14941   */\n      tag_330\n      jump\t// in\n    tag_508:\n        /* \"#utility.yul\":14951:15023   */\n      tag_509\n        /* \"#utility.yul\":15019:15021   */\n      0x20\n        /* \"#utility.yul\":15008:15017   */\n      dup4\n        /* \"#utility.yul\":15004:15022   */\n      add\n        /* \"#utility.yul\":14995:15001   */\n      dup6\n        /* \"#utility.yul\":14951:15023   */\n      tag_330\n      jump\t// in\n    tag_509:\n        /* \"#utility.yul\":15033:15105   */\n      tag_510\n        /* \"#utility.yul\":15101:15103   */\n      0x40\n        /* \"#utility.yul\":15090:15099   */\n      dup4\n        /* \"#utility.yul\":15086:15104   */\n      add\n        /* \"#utility.yul\":15077:15083   */\n      dup5\n        /* \"#utility.yul\":15033:15105   */\n      tag_311\n      jump\t// in\n    tag_510:\n        /* \"#utility.yul\":15152:15161   */\n      dup2\n        /* \"#utility.yul\":15146:15150   */\n      dup2\n        /* \"#utility.yul\":15142:15162   */\n      sub\n        /* \"#utility.yul\":15137:15139   */\n      0x60\n        /* \"#utility.yul\":15126:15135   */\n      dup4\n        /* \"#utility.yul\":15122:15140   */\n      add\n        /* \"#utility.yul\":15115:15163   */\n      mstore\n        /* \"#utility.yul\":15180:15310   */\n      tag_511\n        /* \"#utility.yul\":15305:15309   */\n      dup2\n        /* \"#utility.yul\":15180:15310   */\n      tag_335\n      jump\t// in\n    tag_511:\n        /* \"#utility.yul\":15172:15310   */\n      swap1\n      pop\n        /* \"#utility.yul\":14569:15317   */\n      swap5\n      swap4\n      pop\n      pop\n      pop\n      pop\n      jump\t// out\n        /* \"#utility.yul\":15323:15439   */\n    tag_336:\n        /* \"#utility.yul\":15393:15414   */\n      tag_513\n        /* \"#utility.yul\":15408:15413   */\n      dup2\n        /* \"#utility.yul\":15393:15414   */\n      tag_297\n      jump\t// in\n    tag_513:\n        /* \"#utility.yul\":15386:15391   */\n      dup2\n        /* \"#utility.yul\":15383:15415   */\n      eq\n        /* \"#utility.yul\":15373:15433   */\n      tag_514\n      jumpi\n        /* \"#utility.yul\":15429:15430   */\n      0x00\n        /* \"#utility.yul\":15426:15427   */\n      0x00\n        /* \"#utility.yul\":15419:15431   */\n      revert\n        /* \"#utility.yul\":15373:15433   */\n    tag_514:\n        /* \"#utility.yul\":15323:15439   */\n      pop\n      jump\t// out\n        /* \"#utility.yul\":15445:15582   */\n    tag_337:\n        /* \"#utility.yul\":15499:15504   */\n      0x00\n        /* \"#utility.yul\":15530:15536   */\n      dup2\n        /* \"#utility.yul\":15524:15537   */\n      mload\n        /* \"#utility.yul\":15515:15537   */\n      swap1\n      pop\n        /* \"#utility.yul\":15546:15576   */\n      tag_516\n        /* \"#utility.yul\":15570:15575   */\n      dup2\n        /* \"#utility.yul\":15546:15576   */\n      tag_336\n      jump\t// in\n    tag_516:\n        /* \"#utility.yul\":15445:15582   */\n      swap3\n      swap2\n      pop\n      pop\n      jump\t// out\n        /* \"#utility.yul\":15588:15731   */\n    tag_338:\n        /* \"#utility.yul\":15645:15650   */\n      0x00\n        /* \"#utility.yul\":15676:15682   */\n      dup2\n        /* \"#utility.yul\":15670:15683   */\n      mload\n        /* \"#utility.yul\":15661:15683   */\n      swap1\n      pop\n        /* \"#utility.yul\":15692:15725   */\n      tag_518\n        /* \"#utility.yul\":15719:15724   */\n      dup2\n        /* \"#utility.yul\":15692:15725   */\n      tag_309\n      jump\t// in\n    tag_518:\n        /* \"#utility.yul\":15588:15731   */\n      swap3\n      swap2\n      pop\n      pop\n      jump\t// out\n        /* \"#utility.yul\":15737:16238   */\n    tag_243:\n        /* \"#utility.yul\":15813:15819   */\n      0x00\n        /* \"#utility.yul\":15821:15827   */\n      0x00\n        /* \"#utility.yul\":15870:15872   */\n      0x40\n        /* \"#utility.yul\":15858:15867   */\n      dup4\n        /* \"#utility.yul\":15849:15856   */\n      dup6\n        /* \"#utility.yul\":15845:15868   */\n      sub\n        /* \"#utility.yul\":15841:15873   */\n      slt\n        /* \"#utility.yul\":15838:15957   */\n      iszero\n      tag_520\n      jumpi\n        /* \"#utility.yul\":15876:15955   */\n      tag_521\n      tag_292\n      jump\t// in\n    tag_521:\n        /* \"#utility.yul\":15838:15957   */\n    tag_520:\n        /* \"#utility.yul\":15996:15997   */\n      0x00\n        /* \"#utility.yul\":16021:16082   */\n      tag_522\n        /* \"#utility.yul\":16074:16081   */\n      dup6\n        /* \"#utility.yul\":16065:16071   */\n      dup3\n        /* \"#utility.yul\":16054:16063   */\n      dup7\n        /* \"#utility.yul\":16050:16072   */\n      add\n        /* \"#utility.yul\":16021:16082   */\n      tag_337\n      jump\t// in\n    tag_522:\n        /* \"#utility.yul\":16011:16082   */\n      swap3\n      pop\n        /* \"#utility.yul\":15967:16092   */\n      pop\n        /* \"#utility.yul\":16131:16133   */\n      0x20\n        /* \"#utility.yul\":16157:16221   */\n      tag_523\n        /* \"#utility.yul\":16213:16220   */\n      dup6\n        /* \"#utility.yul\":16204:16210   */\n      dup3\n        /* \"#utility.yul\":16193:16202   */\n      dup7\n        /* \"#utility.yul\":16189:16211   */\n      add\n        /* \"#utility.yul\":16157:16221   */\n      tag_338\n      jump\t// in\n    tag_523:\n        /* \"#utility.yul\":16147:16221   */\n      swap2\n      pop\n        /* \"#utility.yul\":16102:16231   */\n      pop\n        /* \"#utility.yul\":15737:16238   */\n      swap3\n      pop\n      swap3\n      swap1\n      pop\n      jump\t// out\n        /* \"#utility.yul\":16244:16392   */\n    tag_339:\n        /* \"#utility.yul\":16346:16357   */\n      0x00\n        /* \"#utility.yul\":16383:16386   */\n      dup2\n        /* \"#utility.yul\":16368:16386   */\n      swap1\n      pop\n        /* \"#utility.yul\":16244:16392   */\n      swap3\n      swap2\n      pop\n      pop\n      jump\t// out\n        /* \"#utility.yul\":16398:16565   */\n    tag_340:\n        /* \"#utility.yul\":16538:16557   */\n      0x636f6d706c69616e6365206661696c3a20000000000000000000000000000000\n        /* \"#utility.yul\":16534:16535   */\n      0x00\n        /* \"#utility.yul\":16526:16532   */\n      dup3\n        /* \"#utility.yul\":16522:16536   */\n      add\n        /* \"#utility.yul\":16515:16558   */\n      mstore\n        /* \"#utility.yul\":16398:16565   */\n      pop\n      jump\t// out\n        /* \"#utility.yul\":16571:16973   */\n    tag_341:\n        /* \"#utility.yul\":16731:16734   */\n      0x00\n        /* \"#utility.yul\":16752:16837   */\n      tag_527\n        /* \"#utility.yul\":16834:16836   */\n      0x11\n        /* \"#utility.yul\":16829:16832   */\n      dup4\n        /* \"#utility.yul\":16752:16837   */\n      tag_339\n      jump\t// in\n    tag_527:\n        /* \"#utility.yul\":16745:16837   */\n      swap2\n      pop\n        /* \"#utility.yul\":16846:16939   */\n      tag_528\n        /* \"#utility.yul\":16935:16938   */\n      dup3\n        /* \"#utility.yul\":16846:16939   */\n      tag_340\n      jump\t// in\n    tag_528:\n        /* \"#utility.yul\":16964:16966   */\n      0x11\n        /* \"#utility.yul\":16959:16962   */\n      dup3\n        /* \"#utility.yul\":16955:16967   */\n      add\n        /* \"#utility.yul\":16948:16967   */\n      swap1\n      pop\n        /* \"#utility.yul\":16571:16973   */\n      swap2\n      swap1\n      pop\n      jump\t// out\n        /* \"#utility.yul\":16979:17369   */\n    tag_342:\n        /* \"#utility.yul\":17085:17088   */\n      0x00\n        /* \"#utility.yul\":17113:17152   */\n      tag_530\n        /* \"#utility.yul\":17146:17151   */\n      dup3\n        /* \"#utility.yul\":17113:17152   */\n      tag_299\n      jump\t// in\n    tag_530:\n        /* \"#utility.yul\":17168:17257   */\n      tag_531\n        /* \"#utility.yul\":17250:17256   */\n      dup2\n        /* \"#utility.yul\":17245:17248   */\n      dup6\n        /* \"#utility.yul\":17168:17257   */\n      tag_339\n      jump\t// in\n    tag_531:\n        /* \"#utility.yul\":17161:17257   */\n      swap4\n      pop\n        /* \"#utility.yul\":17266:17331   */\n      tag_532\n        /* \"#utility.yul\":17324:17330   */\n      dup2\n        /* \"#utility.yul\":17319:17322   */\n      dup6\n        /* \"#utility.yul\":17312:17316   */\n      0x20\n        /* \"#utility.yul\":17305:17310   */\n      dup7\n        /* \"#utility.yul\":17301:17317   */\n      add\n        /* \"#utility.yul\":17266:17331   */\n      tag_301\n      jump\t// in\n    tag_532:\n        /* \"#utility.yul\":17356:17362   */\n      dup1\n        /* \"#utility.yul\":17351:17354   */\n      dup5\n        /* \"#utility.yul\":17347:17363   */\n      add\n        /* \"#utility.yul\":17340:17363   */\n      swap2\n      pop\n        /* \"#utility.yul\":17089:17369   */\n      pop\n        /* \"#utility.yul\":16979:17369   */\n      swap3\n      swap2\n      pop\n      pop\n      jump\t// out\n        /* \"#utility.yul\":17375:17916   */\n    tag_247:\n        /* \"#utility.yul\":17608:17611   */\n      0x00\n        /* \"#utility.yul\":17630:17778   */\n      tag_534\n        /* \"#utility.yul\":17774:17777   */\n      dup3\n        /* \"#utility.yul\":17630:17778   */\n      tag_341\n      jump\t// in\n    tag_534:\n        /* \"#utility.yul\":17623:17778   */\n      swap2\n      pop\n        /* \"#utility.yul\":17795:17890   */\n      tag_535\n        /* \"#utility.yul\":17886:17889   */\n      dup3\n        /* \"#utility.yul\":17877:17883   */\n      dup5\n        /* \"#utility.yul\":17795:17890   */\n      tag_342\n      jump\t// in\n    tag_535:\n        /* \"#utility.yul\":17788:17890   */\n      swap2\n      pop\n        /* \"#utility.yul\":17907:17910   */\n      dup2\n        /* \"#utility.yul\":17900:17910   */\n      swap1\n      pop\n        /* \"#utility.yul\":17375:17916   */\n      swap3\n      swap2\n      pop\n      pop\n      jump\t// out\n        /* \"#utility.yul\":17922:18254   */\n    tag_263:\n        /* \"#utility.yul\":18043:18047   */\n      0x00\n        /* \"#utility.yul\":18081:18083   */\n      0x40\n        /* \"#utility.yul\":18070:18079   */\n      dup3\n        /* \"#utility.yul\":18066:18084   */\n      add\n        /* \"#utility.yul\":18058:18084   */\n      swap1\n      pop\n        /* \"#utility.yul\":18094:18165   */\n      tag_537\n        /* \"#utility.yul\":18162:18163   */\n      0x00\n        /* \"#utility.yul\":18151:18160   */\n      dup4\n        /* \"#utility.yul\":18147:18164   */\n      add\n        /* \"#utility.yul\":18138:18144   */\n      dup6\n        /* \"#utility.yul\":18094:18165   */\n      tag_330\n      jump\t// in\n    tag_537:\n        /* \"#utility.yul\":18175:18247   */\n      tag_538\n        /* \"#utility.yul\":18243:18245   */\n      0x20\n        /* \"#utility.yul\":18232:18241   */\n      dup4\n        /* \"#utility.yul\":18228:18246   */\n      add\n        /* \"#utility.yul\":18219:18225   */\n      dup5\n        /* \"#utility.yul\":18175:18247   */\n      tag_315\n      jump\t// in\n    tag_538:\n        /* \"#utility.yul\":17922:18254   */\n      swap4\n      swap3\n      pop\n      pop\n      pop\n      jump\t// out\n        /* \"#utility.yul\":18260:18440   */\n    tag_343:\n        /* \"#utility.yul\":18308:18385   */\n      0x4e487b7100000000000000000000000000000000000000000000000000000000\n        /* \"#utility.yul\":18305:18306   */\n      0x00\n        /* \"#utility.yul\":18298:18386   */\n      mstore\n        /* \"#utility.yul\":18405:18409   */\n      0x12\n        /* \"#utility.yul\":18402:18403   */\n      0x04\n        /* \"#utility.yul\":18395:18410   */\n      mstore\n        /* \"#utility.yul\":18429:18433   */\n      0x24\n        /* \"#utility.yul\":18426:18427   */\n      0x00\n        /* \"#utility.yul\":18419:18434   */\n      revert\n        /* \"#utility.yul\":18446:18622   */\n    tag_275:\n        /* \"#utility.yul\":18478:18479   */\n      0x00\n        /* \"#utility.yul\":18495:18515   */\n      tag_541\n        /* \"#utility.yul\":18513:18514   */\n      dup3\n        /* \"#utility.yul\":18495:18515   */\n      tag_308\n      jump\t// in\n    tag_541:\n        /* \"#utility.yul\":18490:18515   */\n      swap2\n      pop\n        /* \"#utility.yul\":18529:18549   */\n      tag_542\n        /* \"#utility.yul\":18547:18548   */\n      dup4\n        /* \"#utility.yul\":18529:18549   */\n      tag_308\n      jump\t// in\n    tag_542:\n        /* \"#utility.yul\":18524:18549   */\n      swap3\n      pop\n        /* \"#utility.yul\":18568:18569   */\n      dup3\n        /* \"#utility.yul\":18558:18593   */\n      tag_543\n      jumpi\n        /* \"#utility.yul\":18573:18591   */\n      tag_544\n      tag_343\n      jump\t// in\n    tag_544:\n        /* \"#utility.yul\":18558:18593   */\n    tag_543:\n        /* \"#utility.yul\":18614:18615   */\n      dup3\n        /* \"#utility.yul\":18611:18612   */\n      dup3\n        /* \"#utility.yul\":18607:18616   */\n      mod\n        /* \"#utility.yul\":18602:18616   */\n      swap1\n      pop\n        /* \"#utility.yul\":18446:18622   */\n      swap3\n      swap2\n      pop\n      pop\n      jump\t// out\n        /* \"#utility.yul\":18628:18808   */\n    tag_344:\n        /* \"#utility.yul\":18676:18753   */\n      0x4e487b7100000000000000000000000000000000000000000000000000000000\n        /* \"#utility.yul\":18673:18674   */\n      0x00\n        /* \"#utility.yul\":18666:18754   */\n      mstore\n        /* \"#utility.yul\":18773:18777   */\n      0x11\n        /* \"#utility.yul\":18770:18771   */\n      0x04\n        /* \"#utility.yul\":18763:18778   */\n      mstore\n        /* \"#utility.yul\":18797:18801   */\n      0x24\n        /* \"#utility.yul\":18794:18795   */\n      0x00\n        /* \"#utility.yul\":18787:18802   */\n      revert\n        /* \"#utility.yul\":18814:19005   */\n    tag_277:\n        /* \"#utility.yul\":18854:18857   */\n      0x00\n        /* \"#utility.yul\":18873:18893   */\n      tag_547\n        /* \"#utility.yul\":18891:18892   */\n      dup3\n        /* \"#utility.yul\":18873:18893   */\n      tag_308\n      jump\t// in\n    tag_547:\n        /* \"#utility.yul\":18868:18893   */\n      swap2\n      pop\n        /* \"#utility.yul\":18907:18927   */\n      tag_548\n        /* \"#utility.yul\":18925:18926   */\n      dup4\n        /* \"#utility.yul\":18907:18927   */\n      tag_308\n      jump\t// in\n    tag_548:\n        /* \"#utility.yul\":18902:18927   */\n      swap3\n      pop\n        /* \"#utility.yul\":18950:18951   */\n      dup3\n        /* \"#utility.yul\":18947:18948   */\n      dup3\n        /* \"#utility.yul\":18943:18952   */\n      add\n        /* \"#utility.yul\":18936:18952   */\n      swap1\n      pop\n        /* \"#utility.yul\":18971:18974   */\n      dup1\n        /* \"#utility.yul\":18968:18969   */\n      dup3\n        /* \"#utility.yul\":18965:18975   */\n      gt\n        /* \"#utility.yul\":18962:18998   */\n      iszero\n      tag_549\n      jumpi\n        /* \"#utility.yul\":18978:18996   */\n      tag_550\n      tag_344\n      jump\t// in\n    tag_550:\n        /* \"#utility.yul\":18962:18998   */\n    tag_549:\n        /* \"#utility.yul\":18814:19005   */\n      swap3\n      swap2\n      pop\n      pop\n      jump\t// out\n        /* \"#utility.yul\":19011:19107   */\n    tag_345:\n        /* \"#utility.yul\":19045:19053   */\n      0x00\n        /* \"#utility.yul\":19094:19099   */\n      dup2\n        /* \"#utility.yul\":19089:19092   */\n      0xf8\n        /* \"#utility.yul\":19085:19100   */\n      shl\n        /* \"#utility.yul\":19064:19100   */\n      swap1\n      pop\n        /* \"#utility.yul\":19011:19107   */\n      swap2\n      swap1\n      pop\n      jump\t// out\n        /* \"#utility.yul\":19113:19206   */\n    tag_346:\n        /* \"#utility.yul\":19150:19157   */\n      0x00\n        /* \"#utility.yul\":19179:19200   */\n      tag_553\n        /* \"#utility.yul\":19194:19199   */\n      dup3\n        /* \"#utility.yul\":19179:19200   */\n      tag_345\n      jump\t// in\n    tag_553:\n        /* \"#utility.yul\":19168:19200   */\n      swap1\n      pop\n        /* \"#utility.yul\":19113:19206   */\n      swap2\n      swap1\n      pop\n      jump\t// out\n        /* \"#utility.yul\":19212:19361   */\n    tag_347:\n        /* \"#utility.yul\":19313:19354   */\n      tag_555\n        /* \"#utility.yul\":19331:19353   */\n      tag_556\n        /* \"#utility.yul\":19347:19352   */\n      dup3\n        /* \"#utility.yul\":19331:19353   */\n      tag_316\n      jump\t// in\n    tag_556:\n        /* \"#utility.yul\":19313:19354   */\n      tag_346\n      jump\t// in\n    tag_555:\n        /* \"#utility.yul\":19308:19311   */\n      dup3\n        /* \"#utility.yul\":19301:19355   */\n      mstore\n        /* \"#utility.yul\":19212:19361   */\n      pop\n      pop\n      jump\t// out\n        /* \"#utility.yul\":19367:19465   */\n    tag_348:\n        /* \"#utility.yul\":19418:19424   */\n      0x00\n        /* \"#utility.yul\":19452:19457   */\n      dup2\n        /* \"#utility.yul\":19446:19458   */\n      mload\n        /* \"#utility.yul\":19436:19458   */\n      swap1\n      pop\n        /* \"#utility.yul\":19367:19465   */\n      swap2\n      swap1\n      pop\n      jump\t// out\n        /* \"#utility.yul\":19471:19618   */\n    tag_349:\n        /* \"#utility.yul\":19572:19583   */\n      0x00\n        /* \"#utility.yul\":19609:19612   */\n      dup2\n        /* \"#utility.yul\":19594:19612   */\n      swap1\n      pop\n        /* \"#utility.yul\":19471:19618   */\n      swap3\n      swap2\n      pop\n      pop\n      jump\t// out\n        /* \"#utility.yul\":19624:20010   */\n    tag_350:\n        /* \"#utility.yul\":19728:19731   */\n      0x00\n        /* \"#utility.yul\":19756:19794   */\n      tag_560\n        /* \"#utility.yul\":19788:19793   */\n      dup3\n        /* \"#utility.yul\":19756:19794   */\n      tag_348\n      jump\t// in\n    tag_560:\n        /* \"#utility.yul\":19810:19898   */\n      tag_561\n        /* \"#utility.yul\":19891:19897   */\n      dup2\n        /* \"#utility.yul\":19886:19889   */\n      dup6\n        /* \"#utility.yul\":19810:19898   */\n      tag_349\n      jump\t// in\n    tag_561:\n        /* \"#utility.yul\":19803:19898   */\n      swap4\n      pop\n        /* \"#utility.yul\":19907:19972   */\n      tag_562\n        /* \"#utility.yul\":19965:19971   */\n      dup2\n        /* \"#utility.yul\":19960:19963   */\n      dup6\n        /* \"#utility.yul\":19953:19957   */\n      0x20\n        /* \"#utility.yul\":19946:19951   */\n      dup7\n        /* \"#utility.yul\":19942:19958   */\n      add\n        /* \"#utility.yul\":19907:19972   */\n      tag_301\n      jump\t// in\n    tag_562:\n        /* \"#utility.yul\":19997:20003   */\n      dup1\n        /* \"#utility.yul\":19992:19995   */\n      dup5\n        /* \"#utility.yul\":19988:20004   */\n      add\n        /* \"#utility.yul\":19981:20004   */\n      swap2\n      pop\n        /* \"#utility.yul\":19732:20010   */\n      pop\n        /* \"#utility.yul\":19624:20010   */\n      swap3\n      swap2\n      pop\n      pop\n      jump\t// out\n        /* \"#utility.yul\":20016:20419   */\n    tag_279:\n        /* \"#utility.yul\":20170:20173   */\n      0x00\n        /* \"#utility.yul\":20185:20256   */\n      tag_564\n        /* \"#utility.yul\":20252:20255   */\n      dup3\n        /* \"#utility.yul\":20243:20249   */\n      dup6\n        /* \"#utility.yul\":20185:20256   */\n      tag_347\n      jump\t// in\n    tag_564:\n        /* \"#utility.yul\":20281:20282   */\n      0x01\n        /* \"#utility.yul\":20276:20279   */\n      dup3\n        /* \"#utility.yul\":20272:20283   */\n      add\n        /* \"#utility.yul\":20265:20283   */\n      swap2\n      pop\n        /* \"#utility.yul\":20300:20393   */\n      tag_565\n        /* \"#utility.yul\":20389:20392   */\n      dup3\n        /* \"#utility.yul\":20380:20386   */\n      dup5\n        /* \"#utility.yul\":20300:20393   */\n      tag_350\n      jump\t// in\n    tag_565:\n        /* \"#utility.yul\":20293:20393   */\n      swap2\n      pop\n        /* \"#utility.yul\":20410:20413   */\n      dup2\n        /* \"#utility.yul\":20403:20413   */\n      swap1\n      pop\n        /* \"#utility.yul\":20016:20419   */\n      swap4\n      swap3\n      pop\n      pop\n      pop\n      jump\t// out\n        /* \"#utility.yul\":20425:20610   */\n    tag_281:\n        /* \"#utility.yul\":20465:20466   */\n      0x00\n        /* \"#utility.yul\":20482:20502   */\n      tag_567\n        /* \"#utility.yul\":20500:20501   */\n      dup3\n        /* \"#utility.yul\":20482:20502   */\n      tag_308\n      jump\t// in\n    tag_567:\n        /* \"#utility.yul\":20477:20502   */\n      swap2\n      pop\n        /* \"#utility.yul\":20516:20536   */\n      tag_568\n        /* \"#utility.yul\":20534:20535   */\n      dup4\n        /* \"#utility.yul\":20516:20536   */\n      tag_308\n      jump\t// in\n    tag_568:\n        /* \"#utility.yul\":20511:20536   */\n      swap3\n      pop\n        /* \"#utility.yul\":20555:20556   */\n      dup3\n        /* \"#utility.yul\":20545:20580   */\n      tag_569\n      jumpi\n        /* \"#utility.yul\":20560:20578   */\n      tag_570\n      tag_343\n      jump\t// in\n    tag_570:\n        /* \"#utility.yul\":20545:20580   */\n    tag_569:\n        /* \"#utility.yul\":20602:20603   */\n      dup3\n        /* \"#utility.yul\":20599:20600   */\n      dup3\n        /* \"#utility.yul\":20595:20604   */\n      div\n        /* \"#utility.yul\":20590:20604   */\n      swap1\n      pop\n        /* \"#utility.yul\":20425:20610   */\n      swap3\n      swap2\n      pop\n      pop\n      jump\t// out\n\n    auxdata: 0xa26469706673582212209990b56bb2b3b374ed9be907a08f36b8902d8abcd747175e372173e7bebc30a364736f6c634300081e0033\n}\n",
				"bytecode": {
					"linkReferences": {},
					"object": "608060405234801561000f575f5ffd5b5060405161316938038061316983398181016040528101906100319190610962565b838381600390816100429190610c0e565b5080600490816100529190610c0e565b5050505f60065f6101000a81548160ff0219169083151502179055506100805f5f1b8361011660201b60201c565b506100b17f114e74f6ea3bd819998f78687bfcb11b140da08e9b7d222fa9c1f1ba1f2aa1228361011660201b60201c565b5080600660016101000a81548173ffffffffffffffffffffffffffffffffffffffff021916908373ffffffffffffffffffffffffffffffffffffffff16021790555061010d8269d3c21bcecceda100000061020c60201b60201c565b50505050611187565b5f610127838361029160201b60201c565b61020257600160055f8581526020019081526020015f205f015f8473ffffffffffffffffffffffffffffffffffffffff1673ffffffffffffffffffffffffffffffffffffffff1681526020019081526020015f205f6101000a81548160ff02191690831515021790555061019f6102f560201b60201c565b73ffffffffffffffffffffffffffffffffffffffff168273ffffffffffffffffffffffffffffffffffffffff16847f2f8788117e7eff1d82e926ec794901d17c78024a50270940304540a733656f0d60405160405180910390a460019050610206565b5f90505b92915050565b5f73ffffffffffffffffffffffffffffffffffffffff168273ffffffffffffffffffffffffffffffffffffffff160361027c575f6040517fec442f050000000000000000000000000000000000000000000000000000000081526004016102739190610cec565b60405180910390fd5b61028d5f83836102fc60201b60201c565b5050565b5f60055f8481526020019081526020015f205f015f8373ffffffffffffffffffffffffffffffffffffffff1673ffffffffffffffffffffffffffffffffffffffff1681526020019081526020015f205f9054906101000a900460ff16905092915050565b5f33905090565b61030a6104e360201b60201c565b1561034a576040517f08c379a000000000000000000000000000000000000000000000000000000000815260040161034190610d5f565b60405180910390fd5b5f73ffffffffffffffffffffffffffffffffffffffff168373ffffffffffffffffffffffffffffffffffffffff161415806103b157505f73ffffffffffffffffffffffffffffffffffffffff168273ffffffffffffffffffffffffffffffffffffffff1614155b156104cd575f5f600660019054906101000a900473ffffffffffffffffffffffffffffffffffffffff1673ffffffffffffffffffffffffffffffffffffffff16639d6232fa8686866040518463ffffffff1660e01b815260040161041793929190610dbf565b6040805180830381865afa158015610431573d5f5f3e3d5ffd5b505050506040513d601f19601f820116820180604052508101906104559190610e66565b9150915081610469826104f860201b60201c565b6040516020016104799190610f28565b604051602081830303815290604052906104c9576040517f08c379a00000000000000000000000000000000000000000000000000000000081526004016104c09190610f81565b60405180910390fd5b5050505b6104de8383836105a260201b60201c565b505050565b5f60065f9054906101000a900460ff16905090565b60605f820361053e576040518060400160405280600181526020017f3000000000000000000000000000000000000000000000000000000000000000815250905061059d565b60605b5f831461059857600a836105559190610fce565b6030610561919061102b565b816040516020016105739291906110e2565b6040516020818303038152906040529050600a836105919190611109565b9250610541565b809150505b919050565b5f73ffffffffffffffffffffffffffffffffffffffff168373ffffffffffffffffffffffffffffffffffffffff16036105f2578060025f8282546105e6919061102b565b925050819055506106c0565b5f5f5f8573ffffffffffffffffffffffffffffffffffffffff1673ffffffffffffffffffffffffffffffffffffffff1681526020019081526020015f205490508181101561067b578381836040517fe450d38c00000000000000000000000000000000000000000000000000000000815260040161067293929190611139565b60405180910390fd5b8181035f5f8673ffffffffffffffffffffffffffffffffffffffff1673ffffffffffffffffffffffffffffffffffffffff1681526020019081526020015f2081905550505b5f73ffffffffffffffffffffffffffffffffffffffff168273ffffffffffffffffffffffffffffffffffffffff1603610707578060025f8282540392505081905550610751565b805f5f8473ffffffffffffffffffffffffffffffffffffffff1673ffffffffffffffffffffffffffffffffffffffff1681526020019081526020015f205f82825401925050819055505b8173ffffffffffffffffffffffffffffffffffffffff168373ffffffffffffffffffffffffffffffffffffffff167fddf252ad1be2c89b69c2b068fc378daa952ba7f163c4a11628f55a4df523b3ef836040516107ae919061116e565b60405180910390a3505050565b5f604051905090565b5f5ffd5b5f5ffd5b5f5ffd5b5f5ffd5b5f601f19601f8301169050919050565b7f4e487b71000000000000000000000000000000000000000000000000000000005f52604160045260245ffd5b61081a826107d4565b810181811067ffffffffffffffff82111715610839576108386107e4565b5b80604052505050565b5f61084b6107bb565b90506108578282610811565b919050565b5f67ffffffffffffffff821115610876576108756107e4565b5b61087f826107d4565b9050602081019050919050565b8281835e5f83830152505050565b5f6108ac6108a78461085c565b610842565b9050828152602081018484840111156108c8576108c76107d0565b5b6108d384828561088c565b509392505050565b5f82601f8301126108ef576108ee6107cc565b5b81516108ff84826020860161089a565b91505092915050565b5f73ffffffffffffffffffffffffffffffffffffffff82169050919050565b5f61093182610908565b9050919050565b61094181610927565b811461094b575f5ffd5b50565b5f8151905061095c81610938565b92915050565b5f5f5f5f6080858703121561097a576109796107c4565b5b5f85015167ffffffffffffffff811115610997576109966107c8565b5b6109a3878288016108db565b945050602085015167ffffffffffffffff8111156109c4576109c36107c8565b5b6109d0878288016108db565b93505060406109e18782880161094e565b92505060606109f28782880161094e565b91505092959194509250565b5f81519050919050565b7f4e487b71000000000000000000000000000000000000000000000000000000005f52602260045260245ffd5b5f6002820490506001821680610a4c57607f821691505b602082108103610a5f57610a5e610a08565b5b50919050565b5f819050815f5260205f209050919050565b5f6020601f8301049050919050565b5f82821b905092915050565b5f60088302610ac17fffffffffffffffffffffffffffffffffffffffffffffffffffffffffffffffff82610a86565b610acb8683610a86565b95508019841693508086168417925050509392505050565b5f819050919050565b5f819050919050565b5f610b0f610b0a610b0584610ae3565b610aec565b610ae3565b9050919050565b5f819050919050565b610b2883610af5565b610b3c610b3482610b16565b848454610a92565b825550505050565b5f5f905090565b610b53610b44565b610b5e818484610b1f565b505050565b5b81811015610b8157610b765f82610b4b565b600181019050610b64565b5050565b601f821115610bc657610b9781610a65565b610ba084610a77565b81016020851015610baf578190505b610bc3610bbb85610a77565b830182610b63565b50505b505050565b5f82821c905092915050565b5f610be65f1984600802610bcb565b1980831691505092915050565b5f610bfe8383610bd7565b9150826002028217905092915050565b610c17826109fe565b67ffffffffffffffff811115610c3057610c2f6107e4565b5b610c3a8254610a35565b610c45828285610b85565b5f60209050601f831160018114610c76575f8415610c64578287015190505b610c6e8582610bf3565b865550610cd5565b601f198416610c8486610a65565b5f5b82811015610cab57848901518255600182019150602085019450602081019050610c86565b86831015610cc85784890151610cc4601f891682610bd7565b8355505b6001600288020188555050505b505050505050565b610ce681610927565b82525050565b5f602082019050610cff5f830184610cdd565b92915050565b5f82825260208201905092915050565b7f70617573656400000000000000000000000000000000000000000000000000005f82015250565b5f610d49600683610d05565b9150610d5482610d15565b602082019050919050565b5f6020820190508181035f830152610d7681610d3d565b9050919050565b610d8681610ae3565b82525050565b5f82825260208201905092915050565b50565b5f610daa5f83610d8c565b9150610db582610d9c565b5f82019050919050565b5f608082019050610dd25f830186610cdd565b610ddf6020830185610cdd565b610dec6040830184610d7d565b8181036060830152610dfd81610d9f565b9050949350505050565b5f8115159050919050565b610e1b81610e07565b8114610e25575f5ffd5b50565b5f81519050610e3681610e12565b92915050565b610e4581610ae3565b8114610e4f575f5ffd5b50565b5f81519050610e6081610e3c565b92915050565b5f5f60408385031215610e7c57610e7b6107c4565b5b5f610e8985828601610e28565b9250506020610e9a85828601610e52565b9150509250929050565b5f81905092915050565b7f636f6d706c69616e6365206661696c3a200000000000000000000000000000005f82015250565b5f610ee2601183610ea4565b9150610eed82610eae565b601182019050919050565b5f610f02826109fe565b610f0c8185610ea4565b9350610f1c81856020860161088c565b80840191505092915050565b5f610f3282610ed6565b9150610f3e8284610ef8565b915081905092915050565b5f610f53826109fe565b610f5d8185610d05565b9350610f6d81856020860161088c565b610f76816107d4565b840191505092915050565b5f6020820190508181035f830152610f998184610f49565b905092915050565b7f4e487b71000000000000000000000000000000000000000000000000000000005f52601260045260245ffd5b5f610fd882610ae3565b9150610fe383610ae3565b925082610ff357610ff2610fa1565b5b828206905092915050565b7f4e487b71000000000000000000000000000000000000000000000000000000005f52601160045260245ffd5b5f61103582610ae3565b915061104083610ae3565b925082820190508082111561105857611057610ffe565b5b92915050565b5f60ff82169050919050565b5f8160f81b9050919050565b5f6110808261106a565b9050919050565b6110986110938261105e565b611076565b82525050565b5f81519050919050565b5f81905092915050565b5f6110bc8261109e565b6110c681856110a8565b93506110d681856020860161088c565b80840191505092915050565b5f6110ed8285611087565b6001820191506110fd82846110b2565b91508190509392505050565b5f61111382610ae3565b915061111e83610ae3565b92508261112e5761112d610fa1565b5b828204905092915050565b5f60608201905061114c5f830186610cdd565b6111596020830185610d7d565b6111666040830184610d7d565b949350505050565b5f6020820190506111815f830184610d7d565b92915050565b611fd5806111945f395ff3fe608060405234801561000f575f5ffd5b5060043610610140575f3560e01c80636290865d116100b657806391d148541161007a57806391d148541461035057806395d89b4114610380578063a217fddf1461039e578063a9059cbb146103bc578063d547741f146103ec578063dd62ed3e1461040857610140565b80636290865d146102be57806370a08231146102dc57806382aefa241461030c5780638456cb591461032a578063890214561461033457610140565b8063248a9ca311610108578063248a9ca3146102105780632f2ff15d14610240578063313ce5671461025c57806336568abe1461027a5780633f4ba83a146102965780635c975abb146102a057610140565b806301ffc9a71461014457806306fdde0314610174578063095ea7b31461019257806318160ddd146101c257806323b872dd146101e0575b5f5ffd5b61015e600480360381019061015991906115d9565b610438565b60405161016b919061161e565b60405180910390f35b61017c6104b1565b60405161018991906116a7565b60405180910390f35b6101ac60048036038101906101a79190611754565b610541565b6040516101b9919061161e565b60405180910390f35b6101ca610563565b6040516101d791906117a1565b60405180910390f35b6101fa60048036038101906101f591906117ba565b61056c565b604051610207919061161e565b60405180910390f35b61022a6004803603810190610225919061183d565b61059a565b6040516102379190611877565b60405180910390f35b61025a60048036038101906102559190611890565b6105b7565b005b6102646105d9565b60405161027191906118e9565b60405180910390f35b610294600480360381019061028f9190611890565b6105e1565b005b61029e61065c565b005b6102a8610673565b6040516102b5919061161e565b60405180910390f35b6102c6610688565b6040516102d3919061195d565b60405180910390f35b6102f660048036038101906102f19190611976565b6106ae565b60405161030391906117a1565b60405180910390f35b6103146106f3565b6040516103219190611877565b60405180910390f35b610332610717565b005b61034e60048036038101906103499190611a02565b61072e565b005b61036a60048036038101906103659190611890565b6107d4565b604051610377919061161e565b60405180910390f35b610388610838565b60405161039591906116a7565b60405180910390f35b6103a66108c8565b6040516103b39190611877565b60405180910390f35b6103d660048036038101906103d19190611754565b6108ce565b6040516103e3919061161e565b60405180910390f35b61040660048036038101906104019190611890565b6108f0565b005b610422600480360381019061041d9190611a86565b610912565b60405161042f91906117a1565b60405180910390f35b5f7f7965db0b000000000000000000000000000000000000000000000000000000007bffffffffffffffffffffffffffffffffffffffffffffffffffffffff1916827bffffffffffffffffffffffffffffffffffffffffffffffffffffffff191614806104aa57506104a982610994565b5b9050919050565b6060600380546104c090611af1565b80601f01602080910402602001604051908101604052809291908181526020018280546104ec90611af1565b80156105375780601f1061050e57610100808354040283529160200191610537565b820191905f5260205f20905b81548152906001019060200180831161051a57829003601f168201915b5050505050905090565b5f5f61054b6109fd565b9050610558818585610a04565b600191505092915050565b5f600254905090565b5f5f6105766109fd565b9050610583858285610a16565b61058e858585610aa8565b60019150509392505050565b5f60055f8381526020019081526020015f20600101549050919050565b6105c08261059a565b6105c981610b98565b6105d38383610bac565b50505050565b5f6012905090565b6105e96109fd565b73ffffffffffffffffffffffffffffffffffffffff168173ffffffffffffffffffffffffffffffffffffffff161461064d576040517f6697b23200000000000000000000000000000000000000000000000000000000815260040160405180910390fd5b6106578282610c96565b505050565b5f5f1b61066881610b98565b610670610d80565b50565b5f60065f9054906101000a900460ff16905090565b600660019054906101000a900473ffffffffffffffffffffffffffffffffffffffff1681565b5f5f5f8373ffffffffffffffffffffffffffffffffffffffff1673ffffffffffffffffffffffffffffffffffffffff1681526020019081526020015f20549050919050565b7f114e74f6ea3bd819998f78687bfcb11b140da08e9b7d222fa9c1f1ba1f2aa12281565b5f5f1b61072381610b98565b61072b610de1565b50565b7f114e74f6ea3bd819998f78687bfcb11b140da08e9b7d222fa9c1f1ba1f2aa12261075881610b98565b610763868686610e43565b8473ffffffffffffffffffffffffffffffffffffffff168673ffffffffffffffffffffffffffffffffffffffff167f2eaee783069d2f4cc557477a5af4ed6420985b57c0f64b600e0601415b580ba08686866040516107c493929190611b5b565b60405180910390a3505050505050565b5f60055f8481526020019081526020015f205f015f8373ffffffffffffffffffffffffffffffffffffffff1673ffffffffffffffffffffffffffffffffffffffff1681526020019081526020015f205f9054906101000a900460ff16905092915050565b60606004805461084790611af1565b80601f016020809104026020016040519081016040528092919081815260200182805461087390611af1565b80156108be5780601f10610895576101008083540402835291602001916108be565b820191905f5260205f20905b8154815290600101906020018083116108a157829003601f168201915b5050505050905090565b5f5f1b81565b5f5f6108d86109fd565b90506108e5818585610aa8565b600191505092915050565b6108f98261059a565b61090281610b98565b61090c8383610c96565b50505050565b5f60015f8473ffffffffffffffffffffffffffffffffffffffff1673ffffffffffffffffffffffffffffffffffffffff1681526020019081526020015f205f8373ffffffffffffffffffffffffffffffffffffffff1673ffffffffffffffffffffffffffffffffffffffff1681526020019081526020015f2054905092915050565b5f7f01ffc9a7000000000000000000000000000000000000000000000000000000007bffffffffffffffffffffffffffffffffffffffffffffffffffffffff1916827bffffffffffffffffffffffffffffffffffffffffffffffffffffffff1916149050919050565b5f33905090565b610a118383836001611018565b505050565b5f610a218484610912565b90507fffffffffffffffffffffffffffffffffffffffffffffffffffffffffffffffff8114610aa25781811015610a93578281836040517ffb8f41b2000000000000000000000000000000000000000000000000000000008152600401610a8a93929190611b9a565b60405180910390fd5b610aa184848484035f611018565b5b50505050565b5f73ffffffffffffffffffffffffffffffffffffffff168373ffffffffffffffffffffffffffffffffffffffff1603610b18575f6040517f96c6fd1e000000000000000000000000000000000000000000000000000000008152600401610b0f9190611bcf565b60405180910390fd5b5f73ffffffffffffffffffffffffffffffffffffffff168273ffffffffffffffffffffffffffffffffffffffff1603610b88575f6040517fec442f05000000000000000000000000000000000000000000000000000000008152600401610b7f9190611bcf565b60405180910390fd5b610b93838383610e43565b505050565b610ba981610ba46109fd565b6111e7565b50565b5f610bb783836107d4565b610c8c57600160055f8581526020019081526020015f205f015f8473ffffffffffffffffffffffffffffffffffffffff1673ffffffffffffffffffffffffffffffffffffffff1681526020019081526020015f205f6101000a81548160ff021916908315150217905550610c296109fd565b73ffffffffffffffffffffffffffffffffffffffff168273ffffffffffffffffffffffffffffffffffffffff16847f2f8788117e7eff1d82e926ec794901d17c78024a50270940304540a733656f0d60405160405180910390a460019050610c90565b5f90505b92915050565b5f610ca183836107d4565b15610d76575f60055f8581526020019081526020015f205f015f8473ffffffffffffffffffffffffffffffffffffffff1673ffffffffffffffffffffffffffffffffffffffff1681526020019081526020015f205f6101000a81548160ff021916908315150217905550610d136109fd565b73ffffffffffffffffffffffffffffffffffffffff168273ffffffffffffffffffffffffffffffffffffffff16847ff6391f5c32d9c69d2a47ea670b442974b53935d1edc7fd64eb21e047a839171b60405160405180910390a460019050610d7a565b5f90505b92915050565b610d88611238565b5f60065f6101000a81548160ff0219169083151502179055507f5db9ee0a495bf2e6ff9c91a7834c1ba4fdd244a5e8aa4e537bd38aeae4b073aa610dca6109fd565b604051610dd79190611bcf565b60405180910390a1565b610de9611278565b600160065f6101000a81548160ff0219169083151502179055507f62e78cea01bee320cd4e420270b5ea74000d11b0c9f74754ebdbfc544b05a258610e2c6109fd565b604051610e399190611bcf565b60405180910390a1565b610e4b610673565b15610e8b576040517f08c379a0000000000000000000000000000000000000000000000000000000008152600401610e8290611c32565b60405180910390fd5b5f73ffffffffffffffffffffffffffffffffffffffff168373ffffffffffffffffffffffffffffffffffffffff16141580610ef257505f73ffffffffffffffffffffffffffffffffffffffff168273ffffffffffffffffffffffffffffffffffffffff1614155b15611008575f5f600660019054906101000a900473ffffffffffffffffffffffffffffffffffffffff1673ffffffffffffffffffffffffffffffffffffffff16639d6232fa8686866040518463ffffffff1660e01b8152600401610f5893929190611c83565b6040805180830381865afa158015610f72573d5f5f3e3d5ffd5b505050506040513d601f19601f82011682018060405250810190610f969190611d09565b9150915081610fa4826112b9565b604051602001610fb49190611dcb565b60405160208183030381529060405290611004576040517f08c379a0000000000000000000000000000000000000000000000000000000008152600401610ffb91906116a7565b60405180910390fd5b5050505b611013838383611363565b505050565b5f73ffffffffffffffffffffffffffffffffffffffff168473ffffffffffffffffffffffffffffffffffffffff1603611088575f6040517fe602df0500000000000000000000000000000000000000000000000000000000815260040161107f9190611bcf565b60405180910390fd5b5f73ffffffffffffffffffffffffffffffffffffffff168373ffffffffffffffffffffffffffffffffffffffff16036110f8575f6040517f94280d620000000000000000000000000000000000000000000000000000000081526004016110ef9190611bcf565b60405180910390fd5b8160015f8673ffffffffffffffffffffffffffffffffffffffff1673ffffffffffffffffffffffffffffffffffffffff1681526020019081526020015f205f8573ffffffffffffffffffffffffffffffffffffffff1673ffffffffffffffffffffffffffffffffffffffff1681526020019081526020015f208190555080156111e1578273ffffffffffffffffffffffffffffffffffffffff168473ffffffffffffffffffffffffffffffffffffffff167f8c5be1e5ebec7d5bd14f71427d1e84f3dd0314c0f7b2291e5b200ac8c7c3b925846040516111d891906117a1565b60405180910390a35b50505050565b6111f182826107d4565b6112345780826040517fe2517d3f00000000000000000000000000000000000000000000000000000000815260040161122b929190611dec565b60405180910390fd5b5050565b611240610673565b611276576040517f8dfc202b00000000000000000000000000000000000000000000000000000000815260040160405180910390fd5b565b611280610673565b156112b7576040517fd93c066500000000000000000000000000000000000000000000000000000000815260040160405180910390fd5b565b60605f82036112ff576040518060400160405280600181526020017f3000000000000000000000000000000000000000000000000000000000000000815250905061135e565b60605b5f831461135957600a836113169190611e40565b60306113229190611e9d565b81604051602001611334929190611f48565b6040516020818303038152906040529050600a836113529190611f6f565b9250611302565b809150505b919050565b5f73ffffffffffffffffffffffffffffffffffffffff168373ffffffffffffffffffffffffffffffffffffffff16036113b3578060025f8282546113a79190611e9d565b92505081905550611481565b5f5f5f8573ffffffffffffffffffffffffffffffffffffffff1673ffffffffffffffffffffffffffffffffffffffff1681526020019081526020015f205490508181101561143c578381836040517fe450d38c00000000000000000000000000000000000000000000000000000000815260040161143393929190611b9a565b60405180910390fd5b8181035f5f8673ffffffffffffffffffffffffffffffffffffffff1673ffffffffffffffffffffffffffffffffffffffff1681526020019081526020015f2081905550505b5f73ffffffffffffffffffffffffffffffffffffffff168273ffffffffffffffffffffffffffffffffffffffff16036114c8578060025f8282540392505081905550611512565b805f5f8473ffffffffffffffffffffffffffffffffffffffff1673ffffffffffffffffffffffffffffffffffffffff1681526020019081526020015f205f82825401925050819055505b8173ffffffffffffffffffffffffffffffffffffffff168373ffffffffffffffffffffffffffffffffffffffff167fddf252ad1be2c89b69c2b068fc378daa952ba7f163c4a11628f55a4df523b3ef8360405161156f91906117a1565b60405180910390a3505050565b5f5ffd5b5f5ffd5b5f7fffffffff0000000000000000000000000000000000000000000000000000000082169050919050565b6115b881611584565b81146115c2575f5ffd5b50565b5f813590506115d3816115af565b92915050565b5f602082840312156115ee576115ed61157c565b5b5f6115fb848285016115c5565b91505092915050565b5f8115159050919050565b61161881611604565b82525050565b5f6020820190506116315f83018461160f565b92915050565b5f81519050919050565b5f82825260208201905092915050565b8281835e5f83830152505050565b5f601f19601f8301169050919050565b5f61167982611637565b6116838185611641565b9350611693818560208601611651565b61169c8161165f565b840191505092915050565b5f6020820190508181035f8301526116bf818461166f565b905092915050565b5f73ffffffffffffffffffffffffffffffffffffffff82169050919050565b5f6116f0826116c7565b9050919050565b611700816116e6565b811461170a575f5ffd5b50565b5f8135905061171b816116f7565b92915050565b5f819050919050565b61173381611721565b811461173d575f5ffd5b50565b5f8135905061174e8161172a565b92915050565b5f5f6040838503121561176a5761176961157c565b5b5f6117778582860161170d565b925050602061178885828601611740565b9150509250929050565b61179b81611721565b82525050565b5f6020820190506117b45f830184611792565b92915050565b5f5f5f606084860312156117d1576117d061157c565b5b5f6117de8682870161170d565b93505060206117ef8682870161170d565b925050604061180086828701611740565b9150509250925092565b5f819050919050565b61181c8161180a565b8114611826575f5ffd5b50565b5f8135905061183781611813565b92915050565b5f602082840312156118525761185161157c565b5b5f61185f84828501611829565b91505092915050565b6118718161180a565b82525050565b5f60208201905061188a5f830184611868565b92915050565b5f5f604083850312156118a6576118a561157c565b5b5f6118b385828601611829565b92505060206118c48582860161170d565b9150509250929050565b5f60ff82169050919050565b6118e3816118ce565b82525050565b5f6020820190506118fc5f8301846118da565b92915050565b5f819050919050565b5f61192561192061191b846116c7565b611902565b6116c7565b9050919050565b5f6119368261190b565b9050919050565b5f6119478261192c565b9050919050565b6119578161193d565b82525050565b5f6020820190506119705f83018461194e565b92915050565b5f6020828403121561198b5761198a61157c565b5b5f6119988482850161170d565b91505092915050565b5f5ffd5b5f5ffd5b5f5ffd5b5f5f83601f8401126119c2576119c16119a1565b5b8235905067ffffffffffffffff8111156119df576119de6119a5565b5b6020830191508360018202830111156119fb576119fa6119a9565b5b9250929050565b5f5f5f5f5f60808688031215611a1b57611a1a61157c565b5b5f611a288882890161170d565b9550506020611a398882890161170d565b9450506040611a4a88828901611740565b935050606086013567ffffffffffffffff811115611a6b57611a6a611580565b5b611a77888289016119ad565b92509250509295509295909350565b5f5f60408385031215611a9c57611a9b61157c565b5b5f611aa98582860161170d565b9250506020611aba8582860161170d565b9150509250929050565b7f4e487b71000000000000000000000000000000000000000000000000000000005f52602260045260245ffd5b5f6002820490506001821680611b0857607f821691505b602082108103611b1b57611b1a611ac4565b5b50919050565b828183375f83830152505050565b5f611b3a8385611641565b9350611b47838584611b21565b611b508361165f565b840190509392505050565b5f604082019050611b6e5f830186611792565b8181036020830152611b81818486611b2f565b9050949350505050565b611b94816116e6565b82525050565b5f606082019050611bad5f830186611b8b565b611bba6020830185611792565b611bc76040830184611792565b949350505050565b5f602082019050611be25f830184611b8b565b92915050565b7f70617573656400000000000000000000000000000000000000000000000000005f82015250565b5f611c1c600683611641565b9150611c2782611be8565b602082019050919050565b5f6020820190508181035f830152611c4981611c10565b9050919050565b5f82825260208201905092915050565b50565b5f611c6e5f83611c50565b9150611c7982611c60565b5f82019050919050565b5f608082019050611c965f830186611b8b565b611ca36020830185611b8b565b611cb06040830184611792565b8181036060830152611cc181611c63565b9050949350505050565b611cd481611604565b8114611cde575f5ffd5b50565b5f81519050611cef81611ccb565b92915050565b5f81519050611d038161172a565b92915050565b5f5f60408385031215611d1f57611d1e61157c565b5b5f611d2c85828601611ce1565b9250506020611d3d85828601611cf5565b9150509250929050565b5f81905092915050565b7f636f6d706c69616e6365206661696c3a200000000000000000000000000000005f82015250565b5f611d85601183611d47565b9150611d9082611d51565b601182019050919050565b5f611da582611637565b611daf8185611d47565b9350611dbf818560208601611651565b80840191505092915050565b5f611dd582611d79565b9150611de18284611d9b565b915081905092915050565b5f604082019050611dff5f830185611b8b565b611e0c6020830184611868565b9392505050565b7f4e487b71000000000000000000000000000000000000000000000000000000005f52601260045260245ffd5b5f611e4a82611721565b9150611e5583611721565b925082611e6557611e64611e13565b5b828206905092915050565b7f4e487b71000000000000000000000000000000000000000000000000000000005f52601160045260245ffd5b5f611ea782611721565b9150611eb283611721565b9250828201905080821115611eca57611ec9611e70565b5b92915050565b5f8160f81b9050919050565b5f611ee682611ed0565b9050919050565b611efe611ef9826118ce565b611edc565b82525050565b5f81519050919050565b5f81905092915050565b5f611f2282611f04565b611f2c8185611f0e565b9350611f3c818560208601611651565b80840191505092915050565b5f611f538285611eed565b600182019150611f638284611f18565b91508190509392505050565b5f611f7982611721565b9150611f8483611721565b925082611f9457611f93611e13565b5b82820490509291505056fea26469706673582212209990b56bb2b3b374ed9be907a08f36b8902d8abcd747175e372173e7bebc30a364736f6c634300081e0033",
					"opcodes": "PUSH1 0x80 PUSH1 0x40 MSTORE CALLVALUE DUP1 ISZERO PUSH2 0xF JUMPI PUSH0 PUSH0 REVERT JUMPDEST POP PUSH1 0x40 MLOAD PUSH2 0x3169 CODESIZE SUB DUP1 PUSH2 0x3169 DUP4 CODECOPY DUP2 DUP2 ADD PUSH1 0x40 MSTORE DUP2 ADD SWAP1 PUSH2 0x31 SWAP2 SWAP1 PUSH2 0x962 JUMP JUMPDEST DUP4 DUP4 DUP2 PUSH1 0x3 SWAP1 DUP2 PUSH2 0x42 SWAP2 SWAP1 PUSH2 0xC0E JUMP JUMPDEST POP DUP1 PUSH1 0x4 SWAP1 DUP2 PUSH2 0x52 SWAP2 SWAP1 PUSH2 0xC0E JUMP JUMPDEST POP POP POP PUSH0 PUSH1 0x6 PUSH0 PUSH2 0x100 EXP DUP2 SLOAD DUP2 PUSH1 0xFF MUL NOT AND SWAP1 DUP4 ISZERO ISZERO MUL OR SWAP1 SSTORE POP PUSH2 0x80 PUSH0 PUSH0 SHL DUP4 PUSH2 0x116 PUSH1 0x20 SHL PUSH1 0x20 SHR JUMP JUMPDEST POP PUSH2 0xB1 PUSH32 0x114E74F6EA3BD819998F78687BFCB11B140DA08E9B7D222FA9C1F1BA1F2AA122 DUP4 PUSH2 0x116 PUSH1 0x20 SHL PUSH1 0x20 SHR JUMP JUMPDEST POP DUP1 PUSH1 0x6 PUSH1 0x1 PUSH2 0x100 EXP DUP2 SLOAD DUP2 PUSH20 0xFFFFFFFFFFFFFFFFFFFFFFFFFFFFFFFFFFFFFFFF MUL NOT AND SWAP1 DUP4 PUSH20 0xFFFFFFFFFFFFFFFFFFFFFFFFFFFFFFFFFFFFFFFF AND MUL OR SWAP1 SSTORE POP PUSH2 0x10D DUP3 PUSH10 0xD3C21BCECCEDA1000000 PUSH2 0x20C PUSH1 0x20 SHL PUSH1 0x20 SHR JUMP JUMPDEST POP POP POP POP PUSH2 0x1187 JUMP JUMPDEST PUSH0 PUSH2 0x127 DUP4 DUP4 PUSH2 0x291 PUSH1 0x20 SHL PUSH1 0x20 SHR JUMP JUMPDEST PUSH2 0x202 JUMPI PUSH1 0x1 PUSH1 0x5 PUSH0 DUP6 DUP2 MSTORE PUSH1 0x20 ADD SWAP1 DUP2 MSTORE PUSH1 0x20 ADD PUSH0 KECCAK256 PUSH0 ADD PUSH0 DUP5 PUSH20 0xFFFFFFFFFFFFFFFFFFFFFFFFFFFFFFFFFFFFFFFF AND PUSH20 0xFFFFFFFFFFFFFFFFFFFFFFFFFFFFFFFFFFFFFFFF AND DUP2 MSTORE PUSH1 0x20 ADD SWAP1 DUP2 MSTORE PUSH1 0x20 ADD PUSH0 KECCAK256 PUSH0 PUSH2 0x100 EXP DUP2 SLOAD DUP2 PUSH1 0xFF MUL NOT AND SWAP1 DUP4 ISZERO ISZERO MUL OR SWAP1 SSTORE POP PUSH2 0x19F PUSH2 0x2F5 PUSH1 0x20 SHL PUSH1 0x20 SHR JUMP JUMPDEST PUSH20 0xFFFFFFFFFFFFFFFFFFFFFFFFFFFFFFFFFFFFFFFF AND DUP3 PUSH20 0xFFFFFFFFFFFFFFFFFFFFFFFFFFFFFFFFFFFFFFFF AND DUP5 PUSH32 0x2F8788117E7EFF1D82E926EC794901D17C78024A50270940304540A733656F0D PUSH1 0x40 MLOAD PUSH1 0x40 MLOAD DUP1 SWAP2 SUB SWAP1 LOG4 PUSH1 0x1 SWAP1 POP PUSH2 0x206 JUMP JUMPDEST PUSH0 SWAP1 POP JUMPDEST SWAP3 SWAP2 POP POP JUMP JUMPDEST PUSH0 PUSH20 0xFFFFFFFFFFFFFFFFFFFFFFFFFFFFFFFFFFFFFFFF AND DUP3 PUSH20 0xFFFFFFFFFFFFFFFFFFFFFFFFFFFFFFFFFFFFFFFF AND SUB PUSH2 0x27C JUMPI PUSH0 PUSH1 0x40 MLOAD PUSH32 0xEC442F0500000000000000000000000000000000000000000000000000000000 DUP2 MSTORE PUSH1 0x4 ADD PUSH2 0x273 SWAP2 SWAP1 PUSH2 0xCEC JUMP JUMPDEST PUSH1 0x40 MLOAD DUP1 SWAP2 SUB SWAP1 REVERT JUMPDEST PUSH2 0x28D PUSH0 DUP4 DUP4 PUSH2 0x2FC PUSH1 0x20 SHL PUSH1 0x20 SHR JUMP JUMPDEST POP POP JUMP JUMPDEST PUSH0 PUSH1 0x5 PUSH0 DUP5 DUP2 MSTORE PUSH1 0x20 ADD SWAP1 DUP2 MSTORE PUSH1 0x20 ADD PUSH0 KECCAK256 PUSH0 ADD PUSH0 DUP4 PUSH20 0xFFFFFFFFFFFFFFFFFFFFFFFFFFFFFFFFFFFFFFFF AND PUSH20 0xFFFFFFFFFFFFFFFFFFFFFFFFFFFFFFFFFFFFFFFF AND DUP2 MSTORE PUSH1 0x20 ADD SWAP1 DUP2 MSTORE PUSH1 0x20 ADD PUSH0 KECCAK256 PUSH0 SWAP1 SLOAD SWAP1 PUSH2 0x100 EXP SWAP1 DIV PUSH1 0xFF AND SWAP1 POP SWAP3 SWAP2 POP POP JUMP JUMPDEST PUSH0 CALLER SWAP1 POP SWAP1 JUMP JUMPDEST PUSH2 0x30A PUSH2 0x4E3 PUSH1 0x20 SHL PUSH1 0x20 SHR JUMP JUMPDEST ISZERO PUSH2 0x34A JUMPI PUSH1 0x40 MLOAD PUSH32 0x8C379A000000000000000000000000000000000000000000000000000000000 DUP2 MSTORE PUSH1 0x4 ADD PUSH2 0x341 SWAP1 PUSH2 0xD5F JUMP JUMPDEST PUSH1 0x40 MLOAD DUP1 SWAP2 SUB SWAP1 REVERT JUMPDEST PUSH0 PUSH20 0xFFFFFFFFFFFFFFFFFFFFFFFFFFFFFFFFFFFFFFFF AND DUP4 PUSH20 0xFFFFFFFFFFFFFFFFFFFFFFFFFFFFFFFFFFFFFFFF AND EQ ISZERO DUP1 PUSH2 0x3B1 JUMPI POP PUSH0 PUSH20 0xFFFFFFFFFFFFFFFFFFFFFFFFFFFFFFFFFFFFFFFF AND DUP3 PUSH20 0xFFFFFFFFFFFFFFFFFFFFFFFFFFFFFFFFFFFFFFFF AND EQ ISZERO JUMPDEST ISZERO PUSH2 0x4CD JUMPI PUSH0 PUSH0 PUSH1 0x6 PUSH1 0x1 SWAP1 SLOAD SWAP1 PUSH2 0x100 EXP SWAP1 DIV PUSH20 0xFFFFFFFFFFFFFFFFFFFFFFFFFFFFFFFFFFFFFFFF AND PUSH20 0xFFFFFFFFFFFFFFFFFFFFFFFFFFFFFFFFFFFFFFFF AND PUSH4 0x9D6232FA DUP7 DUP7 DUP7 PUSH1 0x40 MLOAD DUP5 PUSH4 0xFFFFFFFF AND PUSH1 0xE0 SHL DUP2 MSTORE PUSH1 0x4 ADD PUSH2 0x417 SWAP4 SWAP3 SWAP2 SWAP1 PUSH2 0xDBF JUMP JUMPDEST PUSH1 0x40 DUP1 MLOAD DUP1 DUP4 SUB DUP2 DUP7 GAS STATICCALL ISZERO DUP1 ISZERO PUSH2 0x431 JUMPI RETURNDATASIZE PUSH0 PUSH0 RETURNDATACOPY RETURNDATASIZE PUSH0 REVERT JUMPDEST POP POP POP POP PUSH1 0x40 MLOAD RETURNDATASIZE PUSH1 0x1F NOT PUSH1 0x1F DUP3 ADD AND DUP3 ADD DUP1 PUSH1 0x40 MSTORE POP DUP2 ADD SWAP1 PUSH2 0x455 SWAP2 SWAP1 PUSH2 0xE66 JUMP JUMPDEST SWAP2 POP SWAP2 POP DUP2 PUSH2 0x469 DUP3 PUSH2 0x4F8 PUSH1 0x20 SHL PUSH1 0x20 SHR JUMP JUMPDEST PUSH1 0x40 MLOAD PUSH1 0x20 ADD PUSH2 0x479 SWAP2 SWAP1 PUSH2 0xF28 JUMP JUMPDEST PUSH1 0x40 MLOAD PUSH1 0x20 DUP2 DUP4 SUB SUB DUP2 MSTORE SWAP1 PUSH1 0x40 MSTORE SWAP1 PUSH2 0x4C9 JUMPI PUSH1 0x40 MLOAD PUSH32 0x8C379A000000000000000000000000000000000000000000000000000000000 DUP2 MSTORE PUSH1 0x4 ADD PUSH2 0x4C0 SWAP2 SWAP1 PUSH2 0xF81 JUMP JUMPDEST PUSH1 0x40 MLOAD DUP1 SWAP2 SUB SWAP1 REVERT JUMPDEST POP POP POP JUMPDEST PUSH2 0x4DE DUP4 DUP4 DUP4 PUSH2 0x5A2 PUSH1 0x20 SHL PUSH1 0x20 SHR JUMP JUMPDEST POP POP POP JUMP JUMPDEST PUSH0 PUSH1 0x6 PUSH0 SWAP1 SLOAD SWAP1 PUSH2 0x100 EXP SWAP1 DIV PUSH1 0xFF AND SWAP1 POP SWAP1 JUMP JUMPDEST PUSH1 0x60 PUSH0 DUP3 SUB PUSH2 0x53E JUMPI PUSH1 0x40 MLOAD DUP1 PUSH1 0x40 ADD PUSH1 0x40 MSTORE DUP1 PUSH1 0x1 DUP2 MSTORE PUSH1 0x20 ADD PUSH32 0x3000000000000000000000000000000000000000000000000000000000000000 DUP2 MSTORE POP SWAP1 POP PUSH2 0x59D JUMP JUMPDEST PUSH1 0x60 JUMPDEST PUSH0 DUP4 EQ PUSH2 0x598 JUMPI PUSH1 0xA DUP4 PUSH2 0x555 SWAP2 SWAP1 PUSH2 0xFCE JUMP JUMPDEST PUSH1 0x30 PUSH2 0x561 SWAP2 SWAP1 PUSH2 0x102B JUMP JUMPDEST DUP2 PUSH1 0x40 MLOAD PUSH1 0x20 ADD PUSH2 0x573 SWAP3 SWAP2 SWAP1 PUSH2 0x10E2 JUMP JUMPDEST PUSH1 0x40 MLOAD PUSH1 0x20 DUP2 DUP4 SUB SUB DUP2 MSTORE SWAP1 PUSH1 0x40 MSTORE SWAP1 POP PUSH1 0xA DUP4 PUSH2 0x591 SWAP2 SWAP1 PUSH2 0x1109 JUMP JUMPDEST SWAP3 POP PUSH2 0x541 JUMP JUMPDEST DUP1 SWAP2 POP POP JUMPDEST SWAP2 SWAP1 POP JUMP JUMPDEST PUSH0 PUSH20 0xFFFFFFFFFFFFFFFFFFFFFFFFFFFFFFFFFFFFFFFF AND DUP4 PUSH20 0xFFFFFFFFFFFFFFFFFFFFFFFFFFFFFFFFFFFFFFFF AND SUB PUSH2 0x5F2 JUMPI DUP1 PUSH1 0x2 PUSH0 DUP3 DUP3 SLOAD PUSH2 0x5E6 SWAP2 SWAP1 PUSH2 0x102B JUMP JUMPDEST SWAP3 POP POP DUP2 SWAP1 SSTORE POP PUSH2 0x6C0 JUMP JUMPDEST PUSH0 PUSH0 PUSH0 DUP6 PUSH20 0xFFFFFFFFFFFFFFFFFFFFFFFFFFFFFFFFFFFFFFFF AND PUSH20 0xFFFFFFFFFFFFFFFFFFFFFFFFFFFFFFFFFFFFFFFF AND DUP2 MSTORE PUSH1 0x20 ADD SWAP1 DUP2 MSTORE PUSH1 0x20 ADD PUSH0 KECCAK256 SLOAD SWAP1 POP DUP2 DUP2 LT ISZERO PUSH2 0x67B JUMPI DUP4 DUP2 DUP4 PUSH1 0x40 MLOAD PUSH32 0xE450D38C00000000000000000000000000000000000000000000000000000000 DUP2 MSTORE PUSH1 0x4 ADD PUSH2 0x672 SWAP4 SWAP3 SWAP2 SWAP1 PUSH2 0x1139 JUMP JUMPDEST PUSH1 0x40 MLOAD DUP1 SWAP2 SUB SWAP1 REVERT JUMPDEST DUP2 DUP2 SUB PUSH0 PUSH0 DUP7 PUSH20 0xFFFFFFFFFFFFFFFFFFFFFFFFFFFFFFFFFFFFFFFF AND PUSH20 0xFFFFFFFFFFFFFFFFFFFFFFFFFFFFFFFFFFFFFFFF AND DUP2 MSTORE PUSH1 0x20 ADD SWAP1 DUP2 MSTORE PUSH1 0x20 ADD PUSH0 KECCAK256 DUP2 SWAP1 SSTORE POP POP JUMPDEST PUSH0 PUSH20 0xFFFFFFFFFFFFFFFFFFFFFFFFFFFFFFFFFFFFFFFF AND DUP3 PUSH20 0xFFFFFFFFFFFFFFFFFFFFFFFFFFFFFFFFFFFFFFFF AND SUB PUSH2 0x707 JUMPI DUP1 PUSH1 0x2 PUSH0 DUP3 DUP3 SLOAD SUB SWAP3 POP POP DUP2 SWAP1 SSTORE POP PUSH2 0x751 JUMP JUMPDEST DUP1 PUSH0 PUSH0 DUP5 PUSH20 0xFFFFFFFFFFFFFFFFFFFFFFFFFFFFFFFFFFFFFFFF AND PUSH20 0xFFFFFFFFFFFFFFFFFFFFFFFFFFFFFFFFFFFFFFFF AND DUP2 MSTORE PUSH1 0x20 ADD SWAP1 DUP2 MSTORE PUSH1 0x20 ADD PUSH0 KECCAK256 PUSH0 DUP3 DUP3 SLOAD ADD SWAP3 POP POP DUP2 SWAP1 SSTORE POP JUMPDEST DUP2 PUSH20 0xFFFFFFFFFFFFFFFFFFFFFFFFFFFFFFFFFFFFFFFF AND DUP4 PUSH20 0xFFFFFFFFFFFFFFFFFFFFFFFFFFFFFFFFFFFFFFFF AND PUSH32 0xDDF252AD1BE2C89B69C2B068FC378DAA952BA7F163C4A11628F55A4DF523B3EF DUP4 PUSH1 0x40 MLOAD PUSH2 0x7AE SWAP2 SWAP1 PUSH2 0x116E JUMP JUMPDEST PUSH1 0x40 MLOAD DUP1 SWAP2 SUB SWAP1 LOG3 POP POP POP JUMP JUMPDEST PUSH0 PUSH1 0x40 MLOAD SWAP1 POP SWAP1 JUMP JUMPDEST PUSH0 PUSH0 REVERT JUMPDEST PUSH0 PUSH0 REVERT JUMPDEST PUSH0 PUSH0 REVERT JUMPDEST PUSH0 PUSH0 REVERT JUMPDEST PUSH0 PUSH1 0x1F NOT PUSH1 0x1F DUP4 ADD AND SWAP1 POP SWAP2 SWAP1 POP JUMP JUMPDEST PUSH32 0x4E487B7100000000000000000000000000000000000000000000000000000000 PUSH0 MSTORE PUSH1 0x41 PUSH1 0x4 MSTORE PUSH1 0x24 PUSH0 REVERT JUMPDEST PUSH2 0x81A DUP3 PUSH2 0x7D4 JUMP JUMPDEST DUP2 ADD DUP2 DUP2 LT PUSH8 0xFFFFFFFFFFFFFFFF DUP3 GT OR ISZERO PUSH2 0x839 JUMPI PUSH2 0x838 PUSH2 0x7E4 JUMP JUMPDEST JUMPDEST DUP1 PUSH1 0x40 MSTORE POP POP POP JUMP JUMPDEST PUSH0 PUSH2 0x84B PUSH2 0x7BB JUMP JUMPDEST SWAP1 POP PUSH2 0x857 DUP3 DUP3 PUSH2 0x811 JUMP JUMPDEST SWAP2 SWAP1 POP JUMP JUMPDEST PUSH0 PUSH8 0xFFFFFFFFFFFFFFFF DUP3 GT ISZERO PUSH2 0x876 JUMPI PUSH2 0x875 PUSH2 0x7E4 JUMP JUMPDEST JUMPDEST PUSH2 0x87F DUP3 PUSH2 0x7D4 JUMP JUMPDEST SWAP1 POP PUSH1 0x20 DUP2 ADD SWAP1 POP SWAP2 SWAP1 POP JUMP JUMPDEST DUP3 DUP2 DUP4 MCOPY PUSH0 DUP4 DUP4 ADD MSTORE POP POP POP JUMP JUMPDEST PUSH0 PUSH2 0x8AC PUSH2 0x8A7 DUP5 PUSH2 0x85C JUMP JUMPDEST PUSH2 0x842 JUMP JUMPDEST SWAP1 POP DUP3 DUP2 MSTORE PUSH1 0x20 DUP2 ADD DUP5 DUP5 DUP5 ADD GT ISZERO PUSH2 0x8C8 JUMPI PUSH2 0x8C7 PUSH2 0x7D0 JUMP JUMPDEST JUMPDEST PUSH2 0x8D3 DUP5 DUP3 DUP6 PUSH2 0x88C JUMP JUMPDEST POP SWAP4 SWAP3 POP POP POP JUMP JUMPDEST PUSH0 DUP3 PUSH1 0x1F DUP4 ADD SLT PUSH2 0x8EF JUMPI PUSH2 0x8EE PUSH2 0x7CC JUMP JUMPDEST JUMPDEST DUP2 MLOAD PUSH2 0x8FF DUP5 DUP3 PUSH1 0x20 DUP7 ADD PUSH2 0x89A JUMP JUMPDEST SWAP2 POP POP SWAP3 SWAP2 POP POP JUMP JUMPDEST PUSH0 PUSH20 0xFFFFFFFFFFFFFFFFFFFFFFFFFFFFFFFFFFFFFFFF DUP3 AND SWAP1 POP SWAP2 SWAP1 POP JUMP JUMPDEST PUSH0 PUSH2 0x931 DUP3 PUSH2 0x908 JUMP JUMPDEST SWAP1 POP SWAP2 SWAP1 POP JUMP JUMPDEST PUSH2 0x941 DUP2 PUSH2 0x927 JUMP JUMPDEST DUP2 EQ PUSH2 0x94B JUMPI PUSH0 PUSH0 REVERT JUMPDEST POP JUMP JUMPDEST PUSH0 DUP2 MLOAD SWAP1 POP PUSH2 0x95C DUP2 PUSH2 0x938 JUMP JUMPDEST SWAP3 SWAP2 POP POP JUMP JUMPDEST PUSH0 PUSH0 PUSH0 PUSH0 PUSH1 0x80 DUP6 DUP8 SUB SLT ISZERO PUSH2 0x97A JUMPI PUSH2 0x979 PUSH2 0x7C4 JUMP JUMPDEST JUMPDEST PUSH0 DUP6 ADD MLOAD PUSH8 0xFFFFFFFFFFFFFFFF DUP2 GT ISZERO PUSH2 0x997 JUMPI PUSH2 0x996 PUSH2 0x7C8 JUMP JUMPDEST JUMPDEST PUSH2 0x9A3 DUP8 DUP3 DUP9 ADD PUSH2 0x8DB JUMP JUMPDEST SWAP5 POP POP PUSH1 0x20 DUP6 ADD MLOAD PUSH8 0xFFFFFFFFFFFFFFFF DUP2 GT ISZERO PUSH2 0x9C4 JUMPI PUSH2 0x9C3 PUSH2 0x7C8 JUMP JUMPDEST JUMPDEST PUSH2 0x9D0 DUP8 DUP3 DUP9 ADD PUSH2 0x8DB JUMP JUMPDEST SWAP4 POP POP PUSH1 0x40 PUSH2 0x9E1 DUP8 DUP3 DUP9 ADD PUSH2 0x94E JUMP JUMPDEST SWAP3 POP POP PUSH1 0x60 PUSH2 0x9F2 DUP8 DUP3 DUP9 ADD PUSH2 0x94E JUMP JUMPDEST SWAP2 POP POP SWAP3 SWAP6 SWAP2 SWAP5 POP SWAP3 POP JUMP JUMPDEST PUSH0 DUP2 MLOAD SWAP1 POP SWAP2 SWAP1 POP JUMP JUMPDEST PUSH32 0x4E487B7100000000000000000000000000000000000000000000000000000000 PUSH0 MSTORE PUSH1 0x22 PUSH1 0x4 MSTORE PUSH1 0x24 PUSH0 REVERT JUMPDEST PUSH0 PUSH1 0x2 DUP3 DIV SWAP1 POP PUSH1 0x1 DUP3 AND DUP1 PUSH2 0xA4C JUMPI PUSH1 0x7F DUP3 AND SWAP2 POP JUMPDEST PUSH1 0x20 DUP3 LT DUP2 SUB PUSH2 0xA5F JUMPI PUSH2 0xA5E PUSH2 0xA08 JUMP JUMPDEST JUMPDEST POP SWAP2 SWAP1 POP JUMP JUMPDEST PUSH0 DUP2 SWAP1 POP DUP2 PUSH0 MSTORE PUSH1 0x20 PUSH0 KECCAK256 SWAP1 POP SWAP2 SWAP1 POP JUMP JUMPDEST PUSH0 PUSH1 0x20 PUSH1 0x1F DUP4 ADD DIV SWAP1 POP SWAP2 SWAP1 POP JUMP JUMPDEST PUSH0 DUP3 DUP3 SHL SWAP1 POP SWAP3 SWAP2 POP POP JUMP JUMPDEST PUSH0 PUSH1 0x8 DUP4 MUL PUSH2 0xAC1 PUSH32 0xFFFFFFFFFFFFFFFFFFFFFFFFFFFFFFFFFFFFFFFFFFFFFFFFFFFFFFFFFFFFFFFF DUP3 PUSH2 0xA86 JUMP JUMPDEST PUSH2 0xACB DUP7 DUP4 PUSH2 0xA86 JUMP JUMPDEST SWAP6 POP DUP1 NOT DUP5 AND SWAP4 POP DUP1 DUP7 AND DUP5 OR SWAP3 POP POP POP SWAP4 SWAP3 POP POP POP JUMP JUMPDEST PUSH0 DUP2 SWAP1 POP SWAP2 SWAP1 POP JUMP JUMPDEST PUSH0 DUP2 SWAP1 POP SWAP2 SWAP1 POP JUMP JUMPDEST PUSH0 PUSH2 0xB0F PUSH2 0xB0A PUSH2 0xB05 DUP5 PUSH2 0xAE3 JUMP JUMPDEST PUSH2 0xAEC JUMP JUMPDEST PUSH2 0xAE3 JUMP JUMPDEST SWAP1 POP SWAP2 SWAP1 POP JUMP JUMPDEST PUSH0 DUP2 SWAP1 POP SWAP2 SWAP1 POP JUMP JUMPDEST PUSH2 0xB28 DUP4 PUSH2 0xAF5 JUMP JUMPDEST PUSH2 0xB3C PUSH2 0xB34 DUP3 PUSH2 0xB16 JUMP JUMPDEST DUP5 DUP5 SLOAD PUSH2 0xA92 JUMP JUMPDEST DUP3 SSTORE POP POP POP POP JUMP JUMPDEST PUSH0 PUSH0 SWAP1 POP SWAP1 JUMP JUMPDEST PUSH2 0xB53 PUSH2 0xB44 JUMP JUMPDEST PUSH2 0xB5E DUP2 DUP5 DUP5 PUSH2 0xB1F JUMP JUMPDEST POP POP POP JUMP JUMPDEST JUMPDEST DUP2 DUP2 LT ISZERO PUSH2 0xB81 JUMPI PUSH2 0xB76 PUSH0 DUP3 PUSH2 0xB4B JUMP JUMPDEST PUSH1 0x1 DUP2 ADD SWAP1 POP PUSH2 0xB64 JUMP JUMPDEST POP POP JUMP JUMPDEST PUSH1 0x1F DUP3 GT ISZERO PUSH2 0xBC6 JUMPI PUSH2 0xB97 DUP2 PUSH2 0xA65 JUMP JUMPDEST PUSH2 0xBA0 DUP5 PUSH2 0xA77 JUMP JUMPDEST DUP2 ADD PUSH1 0x20 DUP6 LT ISZERO PUSH2 0xBAF JUMPI DUP2 SWAP1 POP JUMPDEST PUSH2 0xBC3 PUSH2 0xBBB DUP6 PUSH2 0xA77 JUMP JUMPDEST DUP4 ADD DUP3 PUSH2 0xB63 JUMP JUMPDEST POP POP JUMPDEST POP POP POP JUMP JUMPDEST PUSH0 DUP3 DUP3 SHR SWAP1 POP SWAP3 SWAP2 POP POP JUMP JUMPDEST PUSH0 PUSH2 0xBE6 PUSH0 NOT DUP5 PUSH1 0x8 MUL PUSH2 0xBCB JUMP JUMPDEST NOT DUP1 DUP4 AND SWAP2 POP POP SWAP3 SWAP2 POP POP JUMP JUMPDEST PUSH0 PUSH2 0xBFE DUP4 DUP4 PUSH2 0xBD7 JUMP JUMPDEST SWAP2 POP DUP3 PUSH1 0x2 MUL DUP3 OR SWAP1 POP SWAP3 SWAP2 POP POP JUMP JUMPDEST PUSH2 0xC17 DUP3 PUSH2 0x9FE JUMP JUMPDEST PUSH8 0xFFFFFFFFFFFFFFFF DUP2 GT ISZERO PUSH2 0xC30 JUMPI PUSH2 0xC2F PUSH2 0x7E4 JUMP JUMPDEST JUMPDEST PUSH2 0xC3A DUP3 SLOAD PUSH2 0xA35 JUMP JUMPDEST PUSH2 0xC45 DUP3 DUP3 DUP6 PUSH2 0xB85 JUMP JUMPDEST PUSH0 PUSH1 0x20 SWAP1 POP PUSH1 0x1F DUP4 GT PUSH1 0x1 DUP2 EQ PUSH2 0xC76 JUMPI PUSH0 DUP5 ISZERO PUSH2 0xC64 JUMPI DUP3 DUP8 ADD MLOAD SWAP1 POP JUMPDEST PUSH2 0xC6E DUP6 DUP3 PUSH2 0xBF3 JUMP JUMPDEST DUP7 SSTORE POP PUSH2 0xCD5 JUMP JUMPDEST PUSH1 0x1F NOT DUP5 AND PUSH2 0xC84 DUP7 PUSH2 0xA65 JUMP JUMPDEST PUSH0 JUMPDEST DUP3 DUP2 LT ISZERO PUSH2 0xCAB JUMPI DUP5 DUP10 ADD MLOAD DUP3 SSTORE PUSH1 0x1 DUP3 ADD SWAP2 POP PUSH1 0x20 DUP6 ADD SWAP5 POP PUSH1 0x20 DUP2 ADD SWAP1 POP PUSH2 0xC86 JUMP JUMPDEST DUP7 DUP4 LT ISZERO PUSH2 0xCC8 JUMPI DUP5 DUP10 ADD MLOAD PUSH2 0xCC4 PUSH1 0x1F DUP10 AND DUP3 PUSH2 0xBD7 JUMP JUMPDEST DUP4 SSTORE POP JUMPDEST PUSH1 0x1 PUSH1 0x2 DUP9 MUL ADD DUP9 SSTORE POP POP POP JUMPDEST POP POP POP POP POP POP JUMP JUMPDEST PUSH2 0xCE6 DUP2 PUSH2 0x927 JUMP JUMPDEST DUP3 MSTORE POP POP JUMP JUMPDEST PUSH0 PUSH1 0x20 DUP3 ADD SWAP1 POP PUSH2 0xCFF PUSH0 DUP4 ADD DUP5 PUSH2 0xCDD JUMP JUMPDEST SWAP3 SWAP2 POP POP JUMP JUMPDEST PUSH0 DUP3 DUP3 MSTORE PUSH1 0x20 DUP3 ADD SWAP1 POP SWAP3 SWAP2 POP POP JUMP JUMPDEST PUSH32 0x7061757365640000000000000000000000000000000000000000000000000000 PUSH0 DUP3 ADD MSTORE POP JUMP JUMPDEST PUSH0 PUSH2 0xD49 PUSH1 0x6 DUP4 PUSH2 0xD05 JUMP JUMPDEST SWAP2 POP PUSH2 0xD54 DUP3 PUSH2 0xD15 JUMP JUMPDEST PUSH1 0x20 DUP3 ADD SWAP1 POP SWAP2 SWAP1 POP JUMP JUMPDEST PUSH0 PUSH1 0x20 DUP3 ADD SWAP1 POP DUP2 DUP2 SUB PUSH0 DUP4 ADD MSTORE PUSH2 0xD76 DUP2 PUSH2 0xD3D JUMP JUMPDEST SWAP1 POP SWAP2 SWAP1 POP JUMP JUMPDEST PUSH2 0xD86 DUP2 PUSH2 0xAE3 JUMP JUMPDEST DUP3 MSTORE POP POP JUMP JUMPDEST PUSH0 DUP3 DUP3 MSTORE PUSH1 0x20 DUP3 ADD SWAP1 POP SWAP3 SWAP2 POP POP JUMP JUMPDEST POP JUMP JUMPDEST PUSH0 PUSH2 0xDAA PUSH0 DUP4 PUSH2 0xD8C JUMP JUMPDEST SWAP2 POP PUSH2 0xDB5 DUP3 PUSH2 0xD9C JUMP JUMPDEST PUSH0 DUP3 ADD SWAP1 POP SWAP2 SWAP1 POP JUMP JUMPDEST PUSH0 PUSH1 0x80 DUP3 ADD SWAP1 POP PUSH2 0xDD2 PUSH0 DUP4 ADD DUP7 PUSH2 0xCDD JUMP JUMPDEST PUSH2 0xDDF PUSH1 0x20 DUP4 ADD DUP6 PUSH2 0xCDD JUMP JUMPDEST PUSH2 0xDEC PUSH1 0x40 DUP4 ADD DUP5 PUSH2 0xD7D JUMP JUMPDEST DUP2 DUP2 SUB PUSH1 0x60 DUP4 ADD MSTORE PUSH2 0xDFD DUP2 PUSH2 0xD9F JUMP JUMPDEST SWAP1 POP SWAP5 SWAP4 POP POP POP POP JUMP JUMPDEST PUSH0 DUP2 ISZERO ISZERO SWAP1 POP SWAP2 SWAP1 POP JUMP JUMPDEST PUSH2 0xE1B DUP2 PUSH2 0xE07 JUMP JUMPDEST DUP2 EQ PUSH2 0xE25 JUMPI PUSH0 PUSH0 REVERT JUMPDEST POP JUMP JUMPDEST PUSH0 DUP2 MLOAD SWAP1 POP PUSH2 0xE36 DUP2 PUSH2 0xE12 JUMP JUMPDEST SWAP3 SWAP2 POP POP JUMP JUMPDEST PUSH2 0xE45 DUP2 PUSH2 0xAE3 JUMP JUMPDEST DUP2 EQ PUSH2 0xE4F JUMPI PUSH0 PUSH0 REVERT JUMPDEST POP JUMP JUMPDEST PUSH0 DUP2 MLOAD SWAP1 POP PUSH2 0xE60 DUP2 PUSH2 0xE3C JUMP JUMPDEST SWAP3 SWAP2 POP POP JUMP JUMPDEST PUSH0 PUSH0 PUSH1 0x40 DUP4 DUP6 SUB SLT ISZERO PUSH2 0xE7C JUMPI PUSH2 0xE7B PUSH2 0x7C4 JUMP JUMPDEST JUMPDEST PUSH0 PUSH2 0xE89 DUP6 DUP3 DUP7 ADD PUSH2 0xE28 JUMP JUMPDEST SWAP3 POP POP PUSH1 0x20 PUSH2 0xE9A DUP6 DUP3 DUP7 ADD PUSH2 0xE52 JUMP JUMPDEST SWAP2 POP POP SWAP3 POP SWAP3 SWAP1 POP JUMP JUMPDEST PUSH0 DUP2 SWAP1 POP SWAP3 SWAP2 POP POP JUMP JUMPDEST PUSH32 0x636F6D706C69616E6365206661696C3A20000000000000000000000000000000 PUSH0 DUP3 ADD MSTORE POP JUMP JUMPDEST PUSH0 PUSH2 0xEE2 PUSH1 0x11 DUP4 PUSH2 0xEA4 JUMP JUMPDEST SWAP2 POP PUSH2 0xEED DUP3 PUSH2 0xEAE JUMP JUMPDEST PUSH1 0x11 DUP3 ADD SWAP1 POP SWAP2 SWAP1 POP JUMP JUMPDEST PUSH0 PUSH2 0xF02 DUP3 PUSH2 0x9FE JUMP JUMPDEST PUSH2 0xF0C DUP2 DUP6 PUSH2 0xEA4 JUMP JUMPDEST SWAP4 POP PUSH2 0xF1C DUP2 DUP6 PUSH1 0x20 DUP7 ADD PUSH2 0x88C JUMP JUMPDEST DUP1 DUP5 ADD SWAP2 POP POP SWAP3 SWAP2 POP POP JUMP JUMPDEST PUSH0 PUSH2 0xF32 DUP3 PUSH2 0xED6 JUMP JUMPDEST SWAP2 POP PUSH2 0xF3E DUP3 DUP5 PUSH2 0xEF8 JUMP JUMPDEST SWAP2 POP DUP2 SWAP1 POP SWAP3 SWAP2 POP POP JUMP JUMPDEST PUSH0 PUSH2 0xF53 DUP3 PUSH2 0x9FE JUMP JUMPDEST PUSH2 0xF5D DUP2 DUP6 PUSH2 0xD05 JUMP JUMPDEST SWAP4 POP PUSH2 0xF6D DUP2 DUP6 PUSH1 0x20 DUP7 ADD PUSH2 0x88C JUMP JUMPDEST PUSH2 0xF76 DUP2 PUSH2 0x7D4 JUMP JUMPDEST DUP5 ADD SWAP2 POP POP SWAP3 SWAP2 POP POP JUMP JUMPDEST PUSH0 PUSH1 0x20 DUP3 ADD SWAP1 POP DUP2 DUP2 SUB PUSH0 DUP4 ADD MSTORE PUSH2 0xF99 DUP2 DUP5 PUSH2 0xF49 JUMP JUMPDEST SWAP1 POP SWAP3 SWAP2 POP POP JUMP JUMPDEST PUSH32 0x4E487B7100000000000000000000000000000000000000000000000000000000 PUSH0 MSTORE PUSH1 0x12 PUSH1 0x4 MSTORE PUSH1 0x24 PUSH0 REVERT JUMPDEST PUSH0 PUSH2 0xFD8 DUP3 PUSH2 0xAE3 JUMP JUMPDEST SWAP2 POP PUSH2 0xFE3 DUP4 PUSH2 0xAE3 JUMP JUMPDEST SWAP3 POP DUP3 PUSH2 0xFF3 JUMPI PUSH2 0xFF2 PUSH2 0xFA1 JUMP JUMPDEST JUMPDEST DUP3 DUP3 MOD SWAP1 POP SWAP3 SWAP2 POP POP JUMP JUMPDEST PUSH32 0x4E487B7100000000000000000000000000000000000000000000000000000000 PUSH0 MSTORE PUSH1 0x11 PUSH1 0x4 MSTORE PUSH1 0x24 PUSH0 REVERT JUMPDEST PUSH0 PUSH2 0x1035 DUP3 PUSH2 0xAE3 JUMP JUMPDEST SWAP2 POP PUSH2 0x1040 DUP4 PUSH2 0xAE3 JUMP JUMPDEST SWAP3 POP DUP3 DUP3 ADD SWAP1 POP DUP1 DUP3 GT ISZERO PUSH2 0x1058 JUMPI PUSH2 0x1057 PUSH2 0xFFE JUMP JUMPDEST JUMPDEST SWAP3 SWAP2 POP POP JUMP JUMPDEST PUSH0 PUSH1 0xFF DUP3 AND SWAP1 POP SWAP2 SWAP1 POP JUMP JUMPDEST PUSH0 DUP2 PUSH1 0xF8 SHL SWAP1 POP SWAP2 SWAP1 POP JUMP JUMPDEST PUSH0 PUSH2 0x1080 DUP3 PUSH2 0x106A JUMP JUMPDEST SWAP1 POP SWAP2 SWAP1 POP JUMP JUMPDEST PUSH2 0x1098 PUSH2 0x1093 DUP3 PUSH2 0x105E JUMP JUMPDEST PUSH2 0x1076 JUMP JUMPDEST DUP3 MSTORE POP POP JUMP JUMPDEST PUSH0 DUP2 MLOAD SWAP1 POP SWAP2 SWAP1 POP JUMP JUMPDEST PUSH0 DUP2 SWAP1 POP SWAP3 SWAP2 POP POP JUMP JUMPDEST PUSH0 PUSH2 0x10BC DUP3 PUSH2 0x109E JUMP JUMPDEST PUSH2 0x10C6 DUP2 DUP6 PUSH2 0x10A8 JUMP JUMPDEST SWAP4 POP PUSH2 0x10D6 DUP2 DUP6 PUSH1 0x20 DUP7 ADD PUSH2 0x88C JUMP JUMPDEST DUP1 DUP5 ADD SWAP2 POP POP SWAP3 SWAP2 POP POP JUMP JUMPDEST PUSH0 PUSH2 0x10ED DUP3 DUP6 PUSH2 0x1087 JUMP JUMPDEST PUSH1 0x1 DUP3 ADD SWAP2 POP PUSH2 0x10FD DUP3 DUP5 PUSH2 0x10B2 JUMP JUMPDEST SWAP2 POP DUP2 SWAP1 POP SWAP4 SWAP3 POP POP POP JUMP JUMPDEST PUSH0 PUSH2 0x1113 DUP3 PUSH2 0xAE3 JUMP JUMPDEST SWAP2 POP PUSH2 0x111E DUP4 PUSH2 0xAE3 JUMP JUMPDEST SWAP3 POP DUP3 PUSH2 0x112E JUMPI PUSH2 0x112D PUSH2 0xFA1 JUMP JUMPDEST JUMPDEST DUP3 DUP3 DIV SWAP1 POP SWAP3 SWAP2 POP POP JUMP JUMPDEST PUSH0 PUSH1 0x60 DUP3 ADD SWAP1 POP PUSH2 0x114C PUSH0 DUP4 ADD DUP7 PUSH2 0xCDD JUMP JUMPDEST PUSH2 0x1159 PUSH1 0x20 DUP4 ADD DUP6 PUSH2 0xD7D JUMP JUMPDEST PUSH2 0x1166 PUSH1 0x40 DUP4 ADD DUP5 PUSH2 0xD7D JUMP JUMPDEST SWAP5 SWAP4 POP POP POP POP JUMP JUMPDEST PUSH0 PUSH1 0x20 DUP3 ADD SWAP1 POP PUSH2 0x1181 PUSH0 DUP4 ADD DUP5 PUSH2 0xD7D JUMP JUMPDEST SWAP3 SWAP2 POP POP JUMP JUMPDEST PUSH2 0x1FD5 DUP1 PUSH2 0x1194 PUSH0 CODECOPY PUSH0 RETURN INVALID PUSH1 0x80 PUSH1 0x40 MSTORE CALLVALUE DUP1 ISZERO PUSH2 0xF JUMPI PUSH0 PUSH0 REVERT JUMPDEST POP PUSH1 0x4 CALLDATASIZE LT PUSH2 0x140 JUMPI PUSH0 CALLDATALOAD PUSH1 0xE0 SHR DUP1 PUSH4 0x6290865D GT PUSH2 0xB6 JUMPI DUP1 PUSH4 0x91D14854 GT PUSH2 0x7A JUMPI DUP1 PUSH4 0x91D14854 EQ PUSH2 0x350 JUMPI DUP1 PUSH4 0x95D89B41 EQ PUSH2 0x380 JUMPI DUP1 PUSH4 0xA217FDDF EQ PUSH2 0x39E JUMPI DUP1 PUSH4 0xA9059CBB EQ PUSH2 0x3BC JUMPI DUP1 PUSH4 0xD547741F EQ PUSH2 0x3EC JUMPI DUP1 PUSH4 0xDD62ED3E EQ PUSH2 0x408 JUMPI PUSH2 0x140 JUMP JUMPDEST DUP1 PUSH4 0x6290865D EQ PUSH2 0x2BE JUMPI DUP1 PUSH4 0x70A08231 EQ PUSH2 0x2DC JUMPI DUP1 PUSH4 0x82AEFA24 EQ PUSH2 0x30C JUMPI DUP1 PUSH4 0x8456CB59 EQ PUSH2 0x32A JUMPI DUP1 PUSH4 0x89021456 EQ PUSH2 0x334 JUMPI PUSH2 0x140 JUMP JUMPDEST DUP1 PUSH4 0x248A9CA3 GT PUSH2 0x108 JUMPI DUP1 PUSH4 0x248A9CA3 EQ PUSH2 0x210 JUMPI DUP1 PUSH4 0x2F2FF15D EQ PUSH2 0x240 JUMPI DUP1 PUSH4 0x313CE567 EQ PUSH2 0x25C JUMPI DUP1 PUSH4 0x36568ABE EQ PUSH2 0x27A JUMPI DUP1 PUSH4 0x3F4BA83A EQ PUSH2 0x296 JUMPI DUP1 PUSH4 0x5C975ABB EQ PUSH2 0x2A0 JUMPI PUSH2 0x140 JUMP JUMPDEST DUP1 PUSH4 0x1FFC9A7 EQ PUSH2 0x144 JUMPI DUP1 PUSH4 0x6FDDE03 EQ PUSH2 0x174 JUMPI DUP1 PUSH4 0x95EA7B3 EQ PUSH2 0x192 JUMPI DUP1 PUSH4 0x18160DDD EQ PUSH2 0x1C2 JUMPI DUP1 PUSH4 0x23B872DD EQ PUSH2 0x1E0 JUMPI JUMPDEST PUSH0 PUSH0 REVERT JUMPDEST PUSH2 0x15E PUSH1 0x4 DUP1 CALLDATASIZE SUB DUP2 ADD SWAP1 PUSH2 0x159 SWAP2 SWAP1 PUSH2 0x15D9 JUMP JUMPDEST PUSH2 0x438 JUMP JUMPDEST PUSH1 0x40 MLOAD PUSH2 0x16B SWAP2 SWAP1 PUSH2 0x161E JUMP JUMPDEST PUSH1 0x40 MLOAD DUP1 SWAP2 SUB SWAP1 RETURN JUMPDEST PUSH2 0x17C PUSH2 0x4B1 JUMP JUMPDEST PUSH1 0x40 MLOAD PUSH2 0x189 SWAP2 SWAP1 PUSH2 0x16A7 JUMP JUMPDEST PUSH1 0x40 MLOAD DUP1 SWAP2 SUB SWAP1 RETURN JUMPDEST PUSH2 0x1AC PUSH1 0x4 DUP1 CALLDATASIZE SUB DUP2 ADD SWAP1 PUSH2 0x1A7 SWAP2 SWAP1 PUSH2 0x1754 JUMP JUMPDEST PUSH2 0x541 JUMP JUMPDEST PUSH1 0x40 MLOAD PUSH2 0x1B9 SWAP2 SWAP1 PUSH2 0x161E JUMP JUMPDEST PUSH1 0x40 MLOAD DUP1 SWAP2 SUB SWAP1 RETURN JUMPDEST PUSH2 0x1CA PUSH2 0x563 JUMP JUMPDEST PUSH1 0x40 MLOAD PUSH2 0x1D7 SWAP2 SWAP1 PUSH2 0x17A1 JUMP JUMPDEST PUSH1 0x40 MLOAD DUP1 SWAP2 SUB SWAP1 RETURN JUMPDEST PUSH2 0x1FA PUSH1 0x4 DUP1 CALLDATASIZE SUB DUP2 ADD SWAP1 PUSH2 0x1F5 SWAP2 SWAP1 PUSH2 0x17BA JUMP JUMPDEST PUSH2 0x56C JUMP JUMPDEST PUSH1 0x40 MLOAD PUSH2 0x207 SWAP2 SWAP1 PUSH2 0x161E JUMP JUMPDEST PUSH1 0x40 MLOAD DUP1 SWAP2 SUB SWAP1 RETURN JUMPDEST PUSH2 0x22A PUSH1 0x4 DUP1 CALLDATASIZE SUB DUP2 ADD SWAP1 PUSH2 0x225 SWAP2 SWAP1 PUSH2 0x183D JUMP JUMPDEST PUSH2 0x59A JUMP JUMPDEST PUSH1 0x40 MLOAD PUSH2 0x237 SWAP2 SWAP1 PUSH2 0x1877 JUMP JUMPDEST PUSH1 0x40 MLOAD DUP1 SWAP2 SUB SWAP1 RETURN JUMPDEST PUSH2 0x25A PUSH1 0x4 DUP1 CALLDATASIZE SUB DUP2 ADD SWAP1 PUSH2 0x255 SWAP2 SWAP1 PUSH2 0x1890 JUMP JUMPDEST PUSH2 0x5B7 JUMP JUMPDEST STOP JUMPDEST PUSH2 0x264 PUSH2 0x5D9 JUMP JUMPDEST PUSH1 0x40 MLOAD PUSH2 0x271 SWAP2 SWAP1 PUSH2 0x18E9 JUMP JUMPDEST PUSH1 0x40 MLOAD DUP1 SWAP2 SUB SWAP1 RETURN JUMPDEST PUSH2 0x294 PUSH1 0x4 DUP1 CALLDATASIZE SUB DUP2 ADD SWAP1 PUSH2 0x28F SWAP2 SWAP1 PUSH2 0x1890 JUMP JUMPDEST PUSH2 0x5E1 JUMP JUMPDEST STOP JUMPDEST PUSH2 0x29E PUSH2 0x65C JUMP JUMPDEST STOP JUMPDEST PUSH2 0x2A8 PUSH2 0x673 JUMP JUMPDEST PUSH1 0x40 MLOAD PUSH2 0x2B5 SWAP2 SWAP1 PUSH2 0x161E JUMP JUMPDEST PUSH1 0x40 MLOAD DUP1 SWAP2 SUB SWAP1 RETURN JUMPDEST PUSH2 0x2C6 PUSH2 0x688 JUMP JUMPDEST PUSH1 0x40 MLOAD PUSH2 0x2D3 SWAP2 SWAP1 PUSH2 0x195D JUMP JUMPDEST PUSH1 0x40 MLOAD DUP1 SWAP2 SUB SWAP1 RETURN JUMPDEST PUSH2 0x2F6 PUSH1 0x4 DUP1 CALLDATASIZE SUB DUP2 ADD SWAP1 PUSH2 0x2F1 SWAP2 SWAP1 PUSH2 0x1976 JUMP JUMPDEST PUSH2 0x6AE JUMP JUMPDEST PUSH1 0x40 MLOAD PUSH2 0x303 SWAP2 SWAP1 PUSH2 0x17A1 JUMP JUMPDEST PUSH1 0x40 MLOAD DUP1 SWAP2 SUB SWAP1 RETURN JUMPDEST PUSH2 0x314 PUSH2 0x6F3 JUMP JUMPDEST PUSH1 0x40 MLOAD PUSH2 0x321 SWAP2 SWAP1 PUSH2 0x1877 JUMP JUMPDEST PUSH1 0x40 MLOAD DUP1 SWAP2 SUB SWAP1 RETURN JUMPDEST PUSH2 0x332 PUSH2 0x717 JUMP JUMPDEST STOP JUMPDEST PUSH2 0x34E PUSH1 0x4 DUP1 CALLDATASIZE SUB DUP2 ADD SWAP1 PUSH2 0x349 SWAP2 SWAP1 PUSH2 0x1A02 JUMP JUMPDEST PUSH2 0x72E JUMP JUMPDEST STOP JUMPDEST PUSH2 0x36A PUSH1 0x4 DUP1 CALLDATASIZE SUB DUP2 ADD SWAP1 PUSH2 0x365 SWAP2 SWAP1 PUSH2 0x1890 JUMP JUMPDEST PUSH2 0x7D4 JUMP JUMPDEST PUSH1 0x40 MLOAD PUSH2 0x377 SWAP2 SWAP1 PUSH2 0x161E JUMP JUMPDEST PUSH1 0x40 MLOAD DUP1 SWAP2 SUB SWAP1 RETURN JUMPDEST PUSH2 0x388 PUSH2 0x838 JUMP JUMPDEST PUSH1 0x40 MLOAD PUSH2 0x395 SWAP2 SWAP1 PUSH2 0x16A7 JUMP JUMPDEST PUSH1 0x40 MLOAD DUP1 SWAP2 SUB SWAP1 RETURN JUMPDEST PUSH2 0x3A6 PUSH2 0x8C8 JUMP JUMPDEST PUSH1 0x40 MLOAD PUSH2 0x3B3 SWAP2 SWAP1 PUSH2 0x1877 JUMP JUMPDEST PUSH1 0x40 MLOAD DUP1 SWAP2 SUB SWAP1 RETURN JUMPDEST PUSH2 0x3D6 PUSH1 0x4 DUP1 CALLDATASIZE SUB DUP2 ADD SWAP1 PUSH2 0x3D1 SWAP2 SWAP1 PUSH2 0x1754 JUMP JUMPDEST PUSH2 0x8CE JUMP JUMPDEST PUSH1 0x40 MLOAD PUSH2 0x3E3 SWAP2 SWAP1 PUSH2 0x161E JUMP JUMPDEST PUSH1 0x40 MLOAD DUP1 SWAP2 SUB SWAP1 RETURN JUMPDEST PUSH2 0x406 PUSH1 0x4 DUP1 CALLDATASIZE SUB DUP2 ADD SWAP1 PUSH2 0x401 SWAP2 SWAP1 PUSH2 0x1890 JUMP JUMPDEST PUSH2 0x8F0 JUMP JUMPDEST STOP JUMPDEST PUSH2 0x422 PUSH1 0x4 DUP1 CALLDATASIZE SUB DUP2 ADD SWAP1 PUSH2 0x41D SWAP2 SWAP1 PUSH2 0x1A86 JUMP JUMPDEST PUSH2 0x912 JUMP JUMPDEST PUSH1 0x40 MLOAD PUSH2 0x42F SWAP2 SWAP1 PUSH2 0x17A1 JUMP JUMPDEST PUSH1 0x40 MLOAD DUP1 SWAP2 SUB SWAP1 RETURN JUMPDEST PUSH0 PUSH32 0x7965DB0B00000000000000000000000000000000000000000000000000000000 PUSH28 0xFFFFFFFFFFFFFFFFFFFFFFFFFFFFFFFFFFFFFFFFFFFFFFFFFFFFFFFF NOT AND DUP3 PUSH28 0xFFFFFFFFFFFFFFFFFFFFFFFFFFFFFFFFFFFFFFFFFFFFFFFFFFFFFFFF NOT AND EQ DUP1 PUSH2 0x4AA JUMPI POP PUSH2 0x4A9 DUP3 PUSH2 0x994 JUMP JUMPDEST JUMPDEST SWAP1 POP SWAP2 SWAP1 POP JUMP JUMPDEST PUSH1 0x60 PUSH1 0x3 DUP1 SLOAD PUSH2 0x4C0 SWAP1 PUSH2 0x1AF1 JUMP JUMPDEST DUP1 PUSH1 0x1F ADD PUSH1 0x20 DUP1 SWAP2 DIV MUL PUSH1 0x20 ADD PUSH1 0x40 MLOAD SWAP1 DUP2 ADD PUSH1 0x40 MSTORE DUP1 SWAP3 SWAP2 SWAP1 DUP2 DUP2 MSTORE PUSH1 0x20 ADD DUP3 DUP1 SLOAD PUSH2 0x4EC SWAP1 PUSH2 0x1AF1 JUMP JUMPDEST DUP1 ISZERO PUSH2 0x537 JUMPI DUP1 PUSH1 0x1F LT PUSH2 0x50E JUMPI PUSH2 0x100 DUP1 DUP4 SLOAD DIV MUL DUP4 MSTORE SWAP2 PUSH1 0x20 ADD SWAP2 PUSH2 0x537 JUMP JUMPDEST DUP3 ADD SWAP2 SWAP1 PUSH0 MSTORE PUSH1 0x20 PUSH0 KECCAK256 SWAP1 JUMPDEST DUP2 SLOAD DUP2 MSTORE SWAP1 PUSH1 0x1 ADD SWAP1 PUSH1 0x20 ADD DUP1 DUP4 GT PUSH2 0x51A JUMPI DUP3 SWAP1 SUB PUSH1 0x1F AND DUP3 ADD SWAP2 JUMPDEST POP POP POP POP POP SWAP1 POP SWAP1 JUMP JUMPDEST PUSH0 PUSH0 PUSH2 0x54B PUSH2 0x9FD JUMP JUMPDEST SWAP1 POP PUSH2 0x558 DUP2 DUP6 DUP6 PUSH2 0xA04 JUMP JUMPDEST PUSH1 0x1 SWAP2 POP POP SWAP3 SWAP2 POP POP JUMP JUMPDEST PUSH0 PUSH1 0x2 SLOAD SWAP1 POP SWAP1 JUMP JUMPDEST PUSH0 PUSH0 PUSH2 0x576 PUSH2 0x9FD JUMP JUMPDEST SWAP1 POP PUSH2 0x583 DUP6 DUP3 DUP6 PUSH2 0xA16 JUMP JUMPDEST PUSH2 0x58E DUP6 DUP6 DUP6 PUSH2 0xAA8 JUMP JUMPDEST PUSH1 0x1 SWAP2 POP POP SWAP4 SWAP3 POP POP POP JUMP JUMPDEST PUSH0 PUSH1 0x5 PUSH0 DUP4 DUP2 MSTORE PUSH1 0x20 ADD SWAP1 DUP2 MSTORE PUSH1 0x20 ADD PUSH0 KECCAK256 PUSH1 0x1 ADD SLOAD SWAP1 POP SWAP2 SWAP1 POP JUMP JUMPDEST PUSH2 0x5C0 DUP3 PUSH2 0x59A JUMP JUMPDEST PUSH2 0x5C9 DUP2 PUSH2 0xB98 JUMP JUMPDEST PUSH2 0x5D3 DUP4 DUP4 PUSH2 0xBAC JUMP JUMPDEST POP POP POP POP JUMP JUMPDEST PUSH0 PUSH1 0x12 SWAP1 POP SWAP1 JUMP JUMPDEST PUSH2 0x5E9 PUSH2 0x9FD JUMP JUMPDEST PUSH20 0xFFFFFFFFFFFFFFFFFFFFFFFFFFFFFFFFFFFFFFFF AND DUP2 PUSH20 0xFFFFFFFFFFFFFFFFFFFFFFFFFFFFFFFFFFFFFFFF AND EQ PUSH2 0x64D JUMPI PUSH1 0x40 MLOAD PUSH32 0x6697B23200000000000000000000000000000000000000000000000000000000 DUP2 MSTORE PUSH1 0x4 ADD PUSH1 0x40 MLOAD DUP1 SWAP2 SUB SWAP1 REVERT JUMPDEST PUSH2 0x657 DUP3 DUP3 PUSH2 0xC96 JUMP JUMPDEST POP POP POP JUMP JUMPDEST PUSH0 PUSH0 SHL PUSH2 0x668 DUP2 PUSH2 0xB98 JUMP JUMPDEST PUSH2 0x670 PUSH2 0xD80 JUMP JUMPDEST POP JUMP JUMPDEST PUSH0 PUSH1 0x6 PUSH0 SWAP1 SLOAD SWAP1 PUSH2 0x100 EXP SWAP1 DIV PUSH1 0xFF AND SWAP1 POP SWAP1 JUMP JUMPDEST PUSH1 0x6 PUSH1 0x1 SWAP1 SLOAD SWAP1 PUSH2 0x100 EXP SWAP1 DIV PUSH20 0xFFFFFFFFFFFFFFFFFFFFFFFFFFFFFFFFFFFFFFFF AND DUP2 JUMP JUMPDEST PUSH0 PUSH0 PUSH0 DUP4 PUSH20 0xFFFFFFFFFFFFFFFFFFFFFFFFFFFFFFFFFFFFFFFF AND PUSH20 0xFFFFFFFFFFFFFFFFFFFFFFFFFFFFFFFFFFFFFFFF AND DUP2 MSTORE PUSH1 0x20 ADD SWAP1 DUP2 MSTORE PUSH1 0x20 ADD PUSH0 KECCAK256 SLOAD SWAP1 POP SWAP2 SWAP1 POP JUMP JUMPDEST PUSH32 0x114E74F6EA3BD819998F78687BFCB11B140DA08E9B7D222FA9C1F1BA1F2AA122 DUP2 JUMP JUMPDEST PUSH0 PUSH0 SHL PUSH2 0x723 DUP2 PUSH2 0xB98 JUMP JUMPDEST PUSH2 0x72B PUSH2 0xDE1 JUMP JUMPDEST POP JUMP JUMPDEST PUSH32 0x114E74F6EA3BD819998F78687BFCB11B140DA08E9B7D222FA9C1F1BA1F2AA122 PUSH2 0x758 DUP2 PUSH2 0xB98 JUMP JUMPDEST PUSH2 0x763 DUP7 DUP7 DUP7 PUSH2 0xE43 JUMP JUMPDEST DUP5 PUSH20 0xFFFFFFFFFFFFFFFFFFFFFFFFFFFFFFFFFFFFFFFF AND DUP7 PUSH20 0xFFFFFFFFFFFFFFFFFFFFFFFFFFFFFFFFFFFFFFFF AND PUSH32 0x2EAEE783069D2F4CC557477A5AF4ED6420985B57C0F64B600E0601415B580BA0 DUP7 DUP7 DUP7 PUSH1 0x40 MLOAD PUSH2 0x7C4 SWAP4 SWAP3 SWAP2 SWAP1 PUSH2 0x1B5B JUMP JUMPDEST PUSH1 0x40 MLOAD DUP1 SWAP2 SUB SWAP1 LOG3 POP POP POP POP POP POP JUMP JUMPDEST PUSH0 PUSH1 0x5 PUSH0 DUP5 DUP2 MSTORE PUSH1 0x20 ADD SWAP1 DUP2 MSTORE PUSH1 0x20 ADD PUSH0 KECCAK256 PUSH0 ADD PUSH0 DUP4 PUSH20 0xFFFFFFFFFFFFFFFFFFFFFFFFFFFFFFFFFFFFFFFF AND PUSH20 0xFFFFFFFFFFFFFFFFFFFFFFFFFFFFFFFFFFFFFFFF AND DUP2 MSTORE PUSH1 0x20 ADD SWAP1 DUP2 MSTORE PUSH1 0x20 ADD PUSH0 KECCAK256 PUSH0 SWAP1 SLOAD SWAP1 PUSH2 0x100 EXP SWAP1 DIV PUSH1 0xFF AND SWAP1 POP SWAP3 SWAP2 POP POP JUMP JUMPDEST PUSH1 0x60 PUSH1 0x4 DUP1 SLOAD PUSH2 0x847 SWAP1 PUSH2 0x1AF1 JUMP JUMPDEST DUP1 PUSH1 0x1F ADD PUSH1 0x20 DUP1 SWAP2 DIV MUL PUSH1 0x20 ADD PUSH1 0x40 MLOAD SWAP1 DUP2 ADD PUSH1 0x40 MSTORE DUP1 SWAP3 SWAP2 SWAP1 DUP2 DUP2 MSTORE PUSH1 0x20 ADD DUP3 DUP1 SLOAD PUSH2 0x873 SWAP1 PUSH2 0x1AF1 JUMP JUMPDEST DUP1 ISZERO PUSH2 0x8BE JUMPI DUP1 PUSH1 0x1F LT PUSH2 0x895 JUMPI PUSH2 0x100 DUP1 DUP4 SLOAD DIV MUL DUP4 MSTORE SWAP2 PUSH1 0x20 ADD SWAP2 PUSH2 0x8BE JUMP JUMPDEST DUP3 ADD SWAP2 SWAP1 PUSH0 MSTORE PUSH1 0x20 PUSH0 KECCAK256 SWAP1 JUMPDEST DUP2 SLOAD DUP2 MSTORE SWAP1 PUSH1 0x1 ADD SWAP1 PUSH1 0x20 ADD DUP1 DUP4 GT PUSH2 0x8A1 JUMPI DUP3 SWAP1 SUB PUSH1 0x1F AND DUP3 ADD SWAP2 JUMPDEST POP POP POP POP POP SWAP1 POP SWAP1 JUMP JUMPDEST PUSH0 PUSH0 SHL DUP2 JUMP JUMPDEST PUSH0 PUSH0 PUSH2 0x8D8 PUSH2 0x9FD JUMP JUMPDEST SWAP1 POP PUSH2 0x8E5 DUP2 DUP6 DUP6 PUSH2 0xAA8 JUMP JUMPDEST PUSH1 0x1 SWAP2 POP POP SWAP3 SWAP2 POP POP JUMP JUMPDEST PUSH2 0x8F9 DUP3 PUSH2 0x59A JUMP JUMPDEST PUSH2 0x902 DUP2 PUSH2 0xB98 JUMP JUMPDEST PUSH2 0x90C DUP4 DUP4 PUSH2 0xC96 JUMP JUMPDEST POP POP POP POP JUMP JUMPDEST PUSH0 PUSH1 0x1 PUSH0 DUP5 PUSH20 0xFFFFFFFFFFFFFFFFFFFFFFFFFFFFFFFFFFFFFFFF AND PUSH20 0xFFFFFFFFFFFFFFFFFFFFFFFFFFFFFFFFFFFFFFFF AND DUP2 MSTORE PUSH1 0x20 ADD SWAP1 DUP2 MSTORE PUSH1 0x20 ADD PUSH0 KECCAK256 PUSH0 DUP4 PUSH20 0xFFFFFFFFFFFFFFFFFFFFFFFFFFFFFFFFFFFFFFFF AND PUSH20 0xFFFFFFFFFFFFFFFFFFFFFFFFFFFFFFFFFFFFFFFF AND DUP2 MSTORE PUSH1 0x20 ADD SWAP1 DUP2 MSTORE PUSH1 0x20 ADD PUSH0 KECCAK256 SLOAD SWAP1 POP SWAP3 SWAP2 POP POP JUMP JUMPDEST PUSH0 PUSH32 0x1FFC9A700000000000000000000000000000000000000000000000000000000 PUSH28 0xFFFFFFFFFFFFFFFFFFFFFFFFFFFFFFFFFFFFFFFFFFFFFFFFFFFFFFFF NOT AND DUP3 PUSH28 0xFFFFFFFFFFFFFFFFFFFFFFFFFFFFFFFFFFFFFFFFFFFFFFFFFFFFFFFF NOT AND EQ SWAP1 POP SWAP2 SWAP1 POP JUMP JUMPDEST PUSH0 CALLER SWAP1 POP SWAP1 JUMP JUMPDEST PUSH2 0xA11 DUP4 DUP4 DUP4 PUSH1 0x1 PUSH2 0x1018 JUMP JUMPDEST POP POP POP JUMP JUMPDEST PUSH0 PUSH2 0xA21 DUP5 DUP5 PUSH2 0x912 JUMP JUMPDEST SWAP1 POP PUSH32 0xFFFFFFFFFFFFFFFFFFFFFFFFFFFFFFFFFFFFFFFFFFFFFFFFFFFFFFFFFFFFFFFF DUP2 EQ PUSH2 0xAA2 JUMPI DUP2 DUP2 LT ISZERO PUSH2 0xA93 JUMPI DUP3 DUP2 DUP4 PUSH1 0x40 MLOAD PUSH32 0xFB8F41B200000000000000000000000000000000000000000000000000000000 DUP2 MSTORE PUSH1 0x4 ADD PUSH2 0xA8A SWAP4 SWAP3 SWAP2 SWAP1 PUSH2 0x1B9A JUMP JUMPDEST PUSH1 0x40 MLOAD DUP1 SWAP2 SUB SWAP1 REVERT JUMPDEST PUSH2 0xAA1 DUP5 DUP5 DUP5 DUP5 SUB PUSH0 PUSH2 0x1018 JUMP JUMPDEST JUMPDEST POP POP POP POP JUMP JUMPDEST PUSH0 PUSH20 0xFFFFFFFFFFFFFFFFFFFFFFFFFFFFFFFFFFFFFFFF AND DUP4 PUSH20 0xFFFFFFFFFFFFFFFFFFFFFFFFFFFFFFFFFFFFFFFF AND SUB PUSH2 0xB18 JUMPI PUSH0 PUSH1 0x40 MLOAD PUSH32 0x96C6FD1E00000000000000000000000000000000000000000000000000000000 DUP2 MSTORE PUSH1 0x4 ADD PUSH2 0xB0F SWAP2 SWAP1 PUSH2 0x1BCF JUMP JUMPDEST PUSH1 0x40 MLOAD DUP1 SWAP2 SUB SWAP1 REVERT JUMPDEST PUSH0 PUSH20 0xFFFFFFFFFFFFFFFFFFFFFFFFFFFFFFFFFFFFFFFF AND DUP3 PUSH20 0xFFFFFFFFFFFFFFFFFFFFFFFFFFFFFFFFFFFFFFFF AND SUB PUSH2 0xB88 JUMPI PUSH0 PUSH1 0x40 MLOAD PUSH32 0xEC442F0500000000000000000000000000000000000000000000000000000000 DUP2 MSTORE PUSH1 0x4 ADD PUSH2 0xB7F SWAP2 SWAP1 PUSH2 0x1BCF JUMP JUMPDEST PUSH1 0x40 MLOAD DUP1 SWAP2 SUB SWAP1 REVERT JUMPDEST PUSH2 0xB93 DUP4 DUP4 DUP4 PUSH2 0xE43 JUMP JUMPDEST POP POP POP JUMP JUMPDEST PUSH2 0xBA9 DUP2 PUSH2 0xBA4 PUSH2 0x9FD JUMP JUMPDEST PUSH2 0x11E7 JUMP JUMPDEST POP JUMP JUMPDEST PUSH0 PUSH2 0xBB7 DUP4 DUP4 PUSH2 0x7D4 JUMP JUMPDEST PUSH2 0xC8C JUMPI PUSH1 0x1 PUSH1 0x5 PUSH0 DUP6 DUP2 MSTORE PUSH1 0x20 ADD SWAP1 DUP2 MSTORE PUSH1 0x20 ADD PUSH0 KECCAK256 PUSH0 ADD PUSH0 DUP5 PUSH20 0xFFFFFFFFFFFFFFFFFFFFFFFFFFFFFFFFFFFFFFFF AND PUSH20 0xFFFFFFFFFFFFFFFFFFFFFFFFFFFFFFFFFFFFFFFF AND DUP2 MSTORE PUSH1 0x20 ADD SWAP1 DUP2 MSTORE PUSH1 0x20 ADD PUSH0 KECCAK256 PUSH0 PUSH2 0x100 EXP DUP2 SLOAD DUP2 PUSH1 0xFF MUL NOT AND SWAP1 DUP4 ISZERO ISZERO MUL OR SWAP1 SSTORE POP PUSH2 0xC29 PUSH2 0x9FD JUMP JUMPDEST PUSH20 0xFFFFFFFFFFFFFFFFFFFFFFFFFFFFFFFFFFFFFFFF AND DUP3 PUSH20 0xFFFFFFFFFFFFFFFFFFFFFFFFFFFFFFFFFFFFFFFF AND DUP5 PUSH32 0x2F8788117E7EFF1D82E926EC794901D17C78024A50270940304540A733656F0D PUSH1 0x40 MLOAD PUSH1 0x40 MLOAD DUP1 SWAP2 SUB SWAP1 LOG4 PUSH1 0x1 SWAP1 POP PUSH2 0xC90 JUMP JUMPDEST PUSH0 SWAP1 POP JUMPDEST SWAP3 SWAP2 POP POP JUMP JUMPDEST PUSH0 PUSH2 0xCA1 DUP4 DUP4 PUSH2 0x7D4 JUMP JUMPDEST ISZERO PUSH2 0xD76 JUMPI PUSH0 PUSH1 0x5 PUSH0 DUP6 DUP2 MSTORE PUSH1 0x20 ADD SWAP1 DUP2 MSTORE PUSH1 0x20 ADD PUSH0 KECCAK256 PUSH0 ADD PUSH0 DUP5 PUSH20 0xFFFFFFFFFFFFFFFFFFFFFFFFFFFFFFFFFFFFFFFF AND PUSH20 0xFFFFFFFFFFFFFFFFFFFFFFFFFFFFFFFFFFFFFFFF AND DUP2 MSTORE PUSH1 0x20 ADD SWAP1 DUP2 MSTORE PUSH1 0x20 ADD PUSH0 KECCAK256 PUSH0 PUSH2 0x100 EXP DUP2 SLOAD DUP2 PUSH1 0xFF MUL NOT AND SWAP1 DUP4 ISZERO ISZERO MUL OR SWAP1 SSTORE POP PUSH2 0xD13 PUSH2 0x9FD JUMP JUMPDEST PUSH20 0xFFFFFFFFFFFFFFFFFFFFFFFFFFFFFFFFFFFFFFFF AND DUP3 PUSH20 0xFFFFFFFFFFFFFFFFFFFFFFFFFFFFFFFFFFFFFFFF AND DUP5 PUSH32 0xF6391F5C32D9C69D2A47EA670B442974B53935D1EDC7FD64EB21E047A839171B PUSH1 0x40 MLOAD PUSH1 0x40 MLOAD DUP1 SWAP2 SUB SWAP1 LOG4 PUSH1 0x1 SWAP1 POP PUSH2 0xD7A JUMP JUMPDEST PUSH0 SWAP1 POP JUMPDEST SWAP3 SWAP2 POP POP JUMP JUMPDEST PUSH2 0xD88 PUSH2 0x1238 JUMP JUMPDEST PUSH0 PUSH1 0x6 PUSH0 PUSH2 0x100 EXP DUP2 SLOAD DUP2 PUSH1 0xFF MUL NOT AND SWAP1 DUP4 ISZERO ISZERO MUL OR SWAP1 SSTORE POP PUSH32 0x5DB9EE0A495BF2E6FF9C91A7834C1BA4FDD244A5E8AA4E537BD38AEAE4B073AA PUSH2 0xDCA PUSH2 0x9FD JUMP JUMPDEST PUSH1 0x40 MLOAD PUSH2 0xDD7 SWAP2 SWAP1 PUSH2 0x1BCF JUMP JUMPDEST PUSH1 0x40 MLOAD DUP1 SWAP2 SUB SWAP1 LOG1 JUMP JUMPDEST PUSH2 0xDE9 PUSH2 0x1278 JUMP JUMPDEST PUSH1 0x1 PUSH1 0x6 PUSH0 PUSH2 0x100 EXP DUP2 SLOAD DUP2 PUSH1 0xFF MUL NOT AND SWAP1 DUP4 ISZERO ISZERO MUL OR SWAP1 SSTORE POP PUSH32 0x62E78CEA01BEE320CD4E420270B5EA74000D11B0C9F74754EBDBFC544B05A258 PUSH2 0xE2C PUSH2 0x9FD JUMP JUMPDEST PUSH1 0x40 MLOAD PUSH2 0xE39 SWAP2 SWAP1 PUSH2 0x1BCF JUMP JUMPDEST PUSH1 0x40 MLOAD DUP1 SWAP2 SUB SWAP1 LOG1 JUMP JUMPDEST PUSH2 0xE4B PUSH2 0x673 JUMP JUMPDEST ISZERO PUSH2 0xE8B JUMPI PUSH1 0x40 MLOAD PUSH32 0x8C379A000000000000000000000000000000000000000000000000000000000 DUP2 MSTORE PUSH1 0x4 ADD PUSH2 0xE82 SWAP1 PUSH2 0x1C32 JUMP JUMPDEST PUSH1 0x40 MLOAD DUP1 SWAP2 SUB SWAP1 REVERT JUMPDEST PUSH0 PUSH20 0xFFFFFFFFFFFFFFFFFFFFFFFFFFFFFFFFFFFFFFFF AND DUP4 PUSH20 0xFFFFFFFFFFFFFFFFFFFFFFFFFFFFFFFFFFFFFFFF AND EQ ISZERO DUP1 PUSH2 0xEF2 JUMPI POP PUSH0 PUSH20 0xFFFFFFFFFFFFFFFFFFFFFFFFFFFFFFFFFFFFFFFF AND DUP3 PUSH20 0xFFFFFFFFFFFFFFFFFFFFFFFFFFFFFFFFFFFFFFFF AND EQ ISZERO JUMPDEST ISZERO PUSH2 0x1008 JUMPI PUSH0 PUSH0 PUSH1 0x6 PUSH1 0x1 SWAP1 SLOAD SWAP1 PUSH2 0x100 EXP SWAP1 DIV PUSH20 0xFFFFFFFFFFFFFFFFFFFFFFFFFFFFFFFFFFFFFFFF AND PUSH20 0xFFFFFFFFFFFFFFFFFFFFFFFFFFFFFFFFFFFFFFFF AND PUSH4 0x9D6232FA DUP7 DUP7 DUP7 PUSH1 0x40 MLOAD DUP5 PUSH4 0xFFFFFFFF AND PUSH1 0xE0 SHL DUP2 MSTORE PUSH1 0x4 ADD PUSH2 0xF58 SWAP4 SWAP3 SWAP2 SWAP1 PUSH2 0x1C83 JUMP JUMPDEST PUSH1 0x40 DUP1 MLOAD DUP1 DUP4 SUB DUP2 DUP7 GAS STATICCALL ISZERO DUP1 ISZERO PUSH2 0xF72 JUMPI RETURNDATASIZE PUSH0 PUSH0 RETURNDATACOPY RETURNDATASIZE PUSH0 REVERT JUMPDEST POP POP POP POP PUSH1 0x40 MLOAD RETURNDATASIZE PUSH1 0x1F NOT PUSH1 0x1F DUP3 ADD AND DUP3 ADD DUP1 PUSH1 0x40 MSTORE POP DUP2 ADD SWAP1 PUSH2 0xF96 SWAP2 SWAP1 PUSH2 0x1D09 JUMP JUMPDEST SWAP2 POP SWAP2 POP DUP2 PUSH2 0xFA4 DUP3 PUSH2 0x12B9 JUMP JUMPDEST PUSH1 0x40 MLOAD PUSH1 0x20 ADD PUSH2 0xFB4 SWAP2 SWAP1 PUSH2 0x1DCB JUMP JUMPDEST PUSH1 0x40 MLOAD PUSH1 0x20 DUP2 DUP4 SUB SUB DUP2 MSTORE SWAP1 PUSH1 0x40 MSTORE SWAP1 PUSH2 0x1004 JUMPI PUSH1 0x40 MLOAD PUSH32 0x8C379A000000000000000000000000000000000000000000000000000000000 DUP2 MSTORE PUSH1 0x4 ADD PUSH2 0xFFB SWAP2 SWAP1 PUSH2 0x16A7 JUMP JUMPDEST PUSH1 0x40 MLOAD DUP1 SWAP2 SUB SWAP1 REVERT JUMPDEST POP POP POP JUMPDEST PUSH2 0x1013 DUP4 DUP4 DUP4 PUSH2 0x1363 JUMP JUMPDEST POP POP POP JUMP JUMPDEST PUSH0 PUSH20 0xFFFFFFFFFFFFFFFFFFFFFFFFFFFFFFFFFFFFFFFF AND DUP5 PUSH20 0xFFFFFFFFFFFFFFFFFFFFFFFFFFFFFFFFFFFFFFFF AND SUB PUSH2 0x1088 JUMPI PUSH0 PUSH1 0x40 MLOAD PUSH32 0xE602DF0500000000000000000000000000000000000000000000000000000000 DUP2 MSTORE PUSH1 0x4 ADD PUSH2 0x107F SWAP2 SWAP1 PUSH2 0x1BCF JUMP JUMPDEST PUSH1 0x40 MLOAD DUP1 SWAP2 SUB SWAP1 REVERT JUMPDEST PUSH0 PUSH20 0xFFFFFFFFFFFFFFFFFFFFFFFFFFFFFFFFFFFFFFFF AND DUP4 PUSH20 0xFFFFFFFFFFFFFFFFFFFFFFFFFFFFFFFFFFFFFFFF AND SUB PUSH2 0x10F8 JUMPI PUSH0 PUSH1 0x40 MLOAD PUSH32 0x94280D6200000000000000000000000000000000000000000000000000000000 DUP2 MSTORE PUSH1 0x4 ADD PUSH2 0x10EF SWAP2 SWAP1 PUSH2 0x1BCF JUMP JUMPDEST PUSH1 0x40 MLOAD DUP1 SWAP2 SUB SWAP1 REVERT JUMPDEST DUP2 PUSH1 0x1 PUSH0 DUP7 PUSH20 0xFFFFFFFFFFFFFFFFFFFFFFFFFFFFFFFFFFFFFFFF AND PUSH20 0xFFFFFFFFFFFFFFFFFFFFFFFFFFFFFFFFFFFFFFFF AND DUP2 MSTORE PUSH1 0x20 ADD SWAP1 DUP2 MSTORE PUSH1 0x20 ADD PUSH0 KECCAK256 PUSH0 DUP6 PUSH20 0xFFFFFFFFFFFFFFFFFFFFFFFFFFFFFFFFFFFFFFFF AND PUSH20 0xFFFFFFFFFFFFFFFFFFFFFFFFFFFFFFFFFFFFFFFF AND DUP2 MSTORE PUSH1 0x20 ADD SWAP1 DUP2 MSTORE PUSH1 0x20 ADD PUSH0 KECCAK256 DUP2 SWAP1 SSTORE POP DUP1 ISZERO PUSH2 0x11E1 JUMPI DUP3 PUSH20 0xFFFFFFFFFFFFFFFFFFFFFFFFFFFFFFFFFFFFFFFF AND DUP5 PUSH20 0xFFFFFFFFFFFFFFFFFFFFFFFFFFFFFFFFFFFFFFFF AND PUSH32 0x8C5BE1E5EBEC7D5BD14F71427D1E84F3DD0314C0F7B2291E5B200AC8C7C3B925 DUP5 PUSH1 0x40 MLOAD PUSH2 0x11D8 SWAP2 SWAP1 PUSH2 0x17A1 JUMP JUMPDEST PUSH1 0x40 MLOAD DUP1 SWAP2 SUB SWAP1 LOG3 JUMPDEST POP POP POP POP JUMP JUMPDEST PUSH2 0x11F1 DUP3 DUP3 PUSH2 0x7D4 JUMP JUMPDEST PUSH2 0x1234 JUMPI DUP1 DUP3 PUSH1 0x40 MLOAD PUSH32 0xE2517D3F00000000000000000000000000000000000000000000000000000000 DUP2 MSTORE PUSH1 0x4 ADD PUSH2 0x122B SWAP3 SWAP2 SWAP1 PUSH2 0x1DEC JUMP JUMPDEST PUSH1 0x40 MLOAD DUP1 SWAP2 SUB SWAP1 REVERT JUMPDEST POP POP JUMP JUMPDEST PUSH2 0x1240 PUSH2 0x673 JUMP JUMPDEST PUSH2 0x1276 JUMPI PUSH1 0x40 MLOAD PUSH32 0x8DFC202B00000000000000000000000000000000000000000000000000000000 DUP2 MSTORE PUSH1 0x4 ADD PUSH1 0x40 MLOAD DUP1 SWAP2 SUB SWAP1 REVERT JUMPDEST JUMP JUMPDEST PUSH2 0x1280 PUSH2 0x673 JUMP JUMPDEST ISZERO PUSH2 0x12B7 JUMPI PUSH1 0x40 MLOAD PUSH32 0xD93C066500000000000000000000000000000000000000000000000000000000 DUP2 MSTORE PUSH1 0x4 ADD PUSH1 0x40 MLOAD DUP1 SWAP2 SUB SWAP1 REVERT JUMPDEST JUMP JUMPDEST PUSH1 0x60 PUSH0 DUP3 SUB PUSH2 0x12FF JUMPI PUSH1 0x40 MLOAD DUP1 PUSH1 0x40 ADD PUSH1 0x40 MSTORE DUP1 PUSH1 0x1 DUP2 MSTORE PUSH1 0x20 ADD PUSH32 0x3000000000000000000000000000000000000000000000000000000000000000 DUP2 MSTORE POP SWAP1 POP PUSH2 0x135E JUMP JUMPDEST PUSH1 0x60 JUMPDEST PUSH0 DUP4 EQ PUSH2 0x1359 JUMPI PUSH1 0xA DUP4 PUSH2 0x1316 SWAP2 SWAP1 PUSH2 0x1E40 JUMP JUMPDEST PUSH1 0x30 PUSH2 0x1322 SWAP2 SWAP1 PUSH2 0x1E9D JUMP JUMPDEST DUP2 PUSH1 0x40 MLOAD PUSH1 0x20 ADD PUSH2 0x1334 SWAP3 SWAP2 SWAP1 PUSH2 0x1F48 JUMP JUMPDEST PUSH1 0x40 MLOAD PUSH1 0x20 DUP2 DUP4 SUB SUB DUP2 MSTORE SWAP1 PUSH1 0x40 MSTORE SWAP1 POP PUSH1 0xA DUP4 PUSH2 0x1352 SWAP2 SWAP1 PUSH2 0x1F6F JUMP JUMPDEST SWAP3 POP PUSH2 0x1302 JUMP JUMPDEST DUP1 SWAP2 POP POP JUMPDEST SWAP2 SWAP1 POP JUMP JUMPDEST PUSH0 PUSH20 0xFFFFFFFFFFFFFFFFFFFFFFFFFFFFFFFFFFFFFFFF AND DUP4 PUSH20 0xFFFFFFFFFFFFFFFFFFFFFFFFFFFFFFFFFFFFFFFF AND SUB PUSH2 0x13B3 JUMPI DUP1 PUSH1 0x2 PUSH0 DUP3 DUP3 SLOAD PUSH2 0x13A7 SWAP2 SWAP1 PUSH2 0x1E9D JUMP JUMPDEST SWAP3 POP POP DUP2 SWAP1 SSTORE POP PUSH2 0x1481 JUMP JUMPDEST PUSH0 PUSH0 PUSH0 DUP6 PUSH20 0xFFFFFFFFFFFFFFFFFFFFFFFFFFFFFFFFFFFFFFFF AND PUSH20 0xFFFFFFFFFFFFFFFFFFFFFFFFFFFFFFFFFFFFFFFF AND DUP2 MSTORE PUSH1 0x20 ADD SWAP1 DUP2 MSTORE PUSH1 0x20 ADD PUSH0 KECCAK256 SLOAD SWAP1 POP DUP2 DUP2 LT ISZERO PUSH2 0x143C JUMPI DUP4 DUP2 DUP4 PUSH1 0x40 MLOAD PUSH32 0xE450D38C00000000000000000000000000000000000000000000000000000000 DUP2 MSTORE PUSH1 0x4 ADD PUSH2 0x1433 SWAP4 SWAP3 SWAP2 SWAP1 PUSH2 0x1B9A JUMP JUMPDEST PUSH1 0x40 MLOAD DUP1 SWAP2 SUB SWAP1 REVERT JUMPDEST DUP2 DUP2 SUB PUSH0 PUSH0 DUP7 PUSH20 0xFFFFFFFFFFFFFFFFFFFFFFFFFFFFFFFFFFFFFFFF AND PUSH20 0xFFFFFFFFFFFFFFFFFFFFFFFFFFFFFFFFFFFFFFFF AND DUP2 MSTORE PUSH1 0x20 ADD SWAP1 DUP2 MSTORE PUSH1 0x20 ADD PUSH0 KECCAK256 DUP2 SWAP1 SSTORE POP POP JUMPDEST PUSH0 PUSH20 0xFFFFFFFFFFFFFFFFFFFFFFFFFFFFFFFFFFFFFFFF AND DUP3 PUSH20 0xFFFFFFFFFFFFFFFFFFFFFFFFFFFFFFFFFFFFFFFF AND SUB PUSH2 0x14C8 JUMPI DUP1 PUSH1 0x2 PUSH0 DUP3 DUP3 SLOAD SUB SWAP3 POP POP DUP2 SWAP1 SSTORE POP PUSH2 0x1512 JUMP JUMPDEST DUP1 PUSH0 PUSH0 DUP5 PUSH20 0xFFFFFFFFFFFFFFFFFFFFFFFFFFFFFFFFFFFFFFFF AND PUSH20 0xFFFFFFFFFFFFFFFFFFFFFFFFFFFFFFFFFFFFFFFF AND DUP2 MSTORE PUSH1 0x20 ADD SWAP1 DUP2 MSTORE PUSH1 0x20 ADD PUSH0 KECCAK256 PUSH0 DUP3 DUP3 SLOAD ADD SWAP3 POP POP DUP2 SWAP1 SSTORE POP JUMPDEST DUP2 PUSH20 0xFFFFFFFFFFFFFFFFFFFFFFFFFFFFFFFFFFFFFFFF AND DUP4 PUSH20 0xFFFFFFFFFFFFFFFFFFFFFFFFFFFFFFFFFFFFFFFF AND PUSH32 0xDDF252AD1BE2C89B69C2B068FC378DAA952BA7F163C4A11628F55A4DF523B3EF DUP4 PUSH1 0x40 MLOAD PUSH2 0x156F SWAP2 SWAP1 PUSH2 0x17A1 JUMP JUMPDEST PUSH1 0x40 MLOAD DUP1 SWAP2 SUB SWAP1 LOG3 POP POP POP JUMP JUMPDEST PUSH0 PUSH0 REVERT JUMPDEST PUSH0 PUSH0 REVERT JUMPDEST PUSH0 PUSH32 0xFFFFFFFF00000000000000000000000000000000000000000000000000000000 DUP3 AND SWAP1 POP SWAP2 SWAP1 POP JUMP JUMPDEST PUSH2 0x15B8 DUP2 PUSH2 0x1584 JUMP JUMPDEST DUP2 EQ PUSH2 0x15C2 JUMPI PUSH0 PUSH0 REVERT JUMPDEST POP JUMP JUMPDEST PUSH0 DUP2 CALLDATALOAD SWAP1 POP PUSH2 0x15D3 DUP2 PUSH2 0x15AF JUMP JUMPDEST SWAP3 SWAP2 POP POP JUMP JUMPDEST PUSH0 PUSH1 0x20 DUP3 DUP5 SUB SLT ISZERO PUSH2 0x15EE JUMPI PUSH2 0x15ED PUSH2 0x157C JUMP JUMPDEST JUMPDEST PUSH0 PUSH2 0x15FB DUP5 DUP3 DUP6 ADD PUSH2 0x15C5 JUMP JUMPDEST SWAP2 POP POP SWAP3 SWAP2 POP POP JUMP JUMPDEST PUSH0 DUP2 ISZERO ISZERO SWAP1 POP SWAP2 SWAP1 POP JUMP JUMPDEST PUSH2 0x1618 DUP2 PUSH2 0x1604 JUMP JUMPDEST DUP3 MSTORE POP POP JUMP JUMPDEST PUSH0 PUSH1 0x20 DUP3 ADD SWAP1 POP PUSH2 0x1631 PUSH0 DUP4 ADD DUP5 PUSH2 0x160F JUMP JUMPDEST SWAP3 SWAP2 POP POP JUMP JUMPDEST PUSH0 DUP2 MLOAD SWAP1 POP SWAP2 SWAP1 POP JUMP JUMPDEST PUSH0 DUP3 DUP3 MSTORE PUSH1 0x20 DUP3 ADD SWAP1 POP SWAP3 SWAP2 POP POP JUMP JUMPDEST DUP3 DUP2 DUP4 MCOPY PUSH0 DUP4 DUP4 ADD MSTORE POP POP POP JUMP JUMPDEST PUSH0 PUSH1 0x1F NOT PUSH1 0x1F DUP4 ADD AND SWAP1 POP SWAP2 SWAP1 POP JUMP JUMPDEST PUSH0 PUSH2 0x1679 DUP3 PUSH2 0x1637 JUMP JUMPDEST PUSH2 0x1683 DUP2 DUP6 PUSH2 0x1641 JUMP JUMPDEST SWAP4 POP PUSH2 0x1693 DUP2 DUP6 PUSH1 0x20 DUP7 ADD PUSH2 0x1651 JUMP JUMPDEST PUSH2 0x169C DUP2 PUSH2 0x165F JUMP JUMPDEST DUP5 ADD SWAP2 POP POP SWAP3 SWAP2 POP POP JUMP JUMPDEST PUSH0 PUSH1 0x20 DUP3 ADD SWAP1 POP DUP2 DUP2 SUB PUSH0 DUP4 ADD MSTORE PUSH2 0x16BF DUP2 DUP5 PUSH2 0x166F JUMP JUMPDEST SWAP1 POP SWAP3 SWAP2 POP POP JUMP JUMPDEST PUSH0 PUSH20 0xFFFFFFFFFFFFFFFFFFFFFFFFFFFFFFFFFFFFFFFF DUP3 AND SWAP1 POP SWAP2 SWAP1 POP JUMP JUMPDEST PUSH0 PUSH2 0x16F0 DUP3 PUSH2 0x16C7 JUMP JUMPDEST SWAP1 POP SWAP2 SWAP1 POP JUMP JUMPDEST PUSH2 0x1700 DUP2 PUSH2 0x16E6 JUMP JUMPDEST DUP2 EQ PUSH2 0x170A JUMPI PUSH0 PUSH0 REVERT JUMPDEST POP JUMP JUMPDEST PUSH0 DUP2 CALLDATALOAD SWAP1 POP PUSH2 0x171B DUP2 PUSH2 0x16F7 JUMP JUMPDEST SWAP3 SWAP2 POP POP JUMP JUMPDEST PUSH0 DUP2 SWAP1 POP SWAP2 SWAP1 POP JUMP JUMPDEST PUSH2 0x1733 DUP2 PUSH2 0x1721 JUMP JUMPDEST DUP2 EQ PUSH2 0x173D JUMPI PUSH0 PUSH0 REVERT JUMPDEST POP JUMP JUMPDEST PUSH0 DUP2 CALLDATALOAD SWAP1 POP PUSH2 0x174E DUP2 PUSH2 0x172A JUMP JUMPDEST SWAP3 SWAP2 POP POP JUMP JUMPDEST PUSH0 PUSH0 PUSH1 0x40 DUP4 DUP6 SUB SLT ISZERO PUSH2 0x176A JUMPI PUSH2 0x1769 PUSH2 0x157C JUMP JUMPDEST JUMPDEST PUSH0 PUSH2 0x1777 DUP6 DUP3 DUP7 ADD PUSH2 0x170D JUMP JUMPDEST SWAP3 POP POP PUSH1 0x20 PUSH2 0x1788 DUP6 DUP3 DUP7 ADD PUSH2 0x1740 JUMP JUMPDEST SWAP2 POP POP SWAP3 POP SWAP3 SWAP1 POP JUMP JUMPDEST PUSH2 0x179B DUP2 PUSH2 0x1721 JUMP JUMPDEST DUP3 MSTORE POP POP JUMP JUMPDEST PUSH0 PUSH1 0x20 DUP3 ADD SWAP1 POP PUSH2 0x17B4 PUSH0 DUP4 ADD DUP5 PUSH2 0x1792 JUMP JUMPDEST SWAP3 SWAP2 POP POP JUMP JUMPDEST PUSH0 PUSH0 PUSH0 PUSH1 0x60 DUP5 DUP7 SUB SLT ISZERO PUSH2 0x17D1 JUMPI PUSH2 0x17D0 PUSH2 0x157C JUMP JUMPDEST JUMPDEST PUSH0 PUSH2 0x17DE DUP7 DUP3 DUP8 ADD PUSH2 0x170D JUMP JUMPDEST SWAP4 POP POP PUSH1 0x20 PUSH2 0x17EF DUP7 DUP3 DUP8 ADD PUSH2 0x170D JUMP JUMPDEST SWAP3 POP POP PUSH1 0x40 PUSH2 0x1800 DUP7 DUP3 DUP8 ADD PUSH2 0x1740 JUMP JUMPDEST SWAP2 POP POP SWAP3 POP SWAP3 POP SWAP3 JUMP JUMPDEST PUSH0 DUP2 SWAP1 POP SWAP2 SWAP1 POP JUMP JUMPDEST PUSH2 0x181C DUP2 PUSH2 0x180A JUMP JUMPDEST DUP2 EQ PUSH2 0x1826 JUMPI PUSH0 PUSH0 REVERT JUMPDEST POP JUMP JUMPDEST PUSH0 DUP2 CALLDATALOAD SWAP1 POP PUSH2 0x1837 DUP2 PUSH2 0x1813 JUMP JUMPDEST SWAP3 SWAP2 POP POP JUMP JUMPDEST PUSH0 PUSH1 0x20 DUP3 DUP5 SUB SLT ISZERO PUSH2 0x1852 JUMPI PUSH2 0x1851 PUSH2 0x157C JUMP JUMPDEST JUMPDEST PUSH0 PUSH2 0x185F DUP5 DUP3 DUP6 ADD PUSH2 0x1829 JUMP JUMPDEST SWAP2 POP POP SWAP3 SWAP2 POP POP JUMP JUMPDEST PUSH2 0x1871 DUP2 PUSH2 0x180A JUMP JUMPDEST DUP3 MSTORE POP POP JUMP JUMPDEST PUSH0 PUSH1 0x20 DUP3 ADD SWAP1 POP PUSH2 0x188A PUSH0 DUP4 ADD DUP5 PUSH2 0x1868 JUMP JUMPDEST SWAP3 SWAP2 POP POP JUMP JUMPDEST PUSH0 PUSH0 PUSH1 0x40 DUP4 DUP6 SUB SLT ISZERO PUSH2 0x18A6 JUMPI PUSH2 0x18A5 PUSH2 0x157C JUMP JUMPDEST JUMPDEST PUSH0 PUSH2 0x18B3 DUP6 DUP3 DUP7 ADD PUSH2 0x1829 JUMP JUMPDEST SWAP3 POP POP PUSH1 0x20 PUSH2 0x18C4 DUP6 DUP3 DUP7 ADD PUSH2 0x170D JUMP JUMPDEST SWAP2 POP POP SWAP3 POP SWAP3 SWAP1 POP JUMP JUMPDEST PUSH0 PUSH1 0xFF DUP3 AND SWAP1 POP SWAP2 SWAP1 POP JUMP JUMPDEST PUSH2 0x18E3 DUP2 PUSH2 0x18CE JUMP JUMPDEST DUP3 MSTORE POP POP JUMP JUMPDEST PUSH0 PUSH1 0x20 DUP3 ADD SWAP1 POP PUSH2 0x18FC PUSH0 DUP4 ADD DUP5 PUSH2 0x18DA JUMP JUMPDEST SWAP3 SWAP2 POP POP JUMP JUMPDEST PUSH0 DUP2 SWAP1 POP SWAP2 SWAP1 POP JUMP JUMPDEST PUSH0 PUSH2 0x1925 PUSH2 0x1920 PUSH2 0x191B DUP5 PUSH2 0x16C7 JUMP JUMPDEST PUSH2 0x1902 JUMP JUMPDEST PUSH2 0x16C7 JUMP JUMPDEST SWAP1 POP SWAP2 SWAP1 POP JUMP JUMPDEST PUSH0 PUSH2 0x1936 DUP3 PUSH2 0x190B JUMP JUMPDEST SWAP1 POP SWAP2 SWAP1 POP JUMP JUMPDEST PUSH0 PUSH2 0x1947 DUP3 PUSH2 0x192C JUMP JUMPDEST SWAP1 POP SWAP2 SWAP1 POP JUMP JUMPDEST PUSH2 0x1957 DUP2 PUSH2 0x193D JUMP JUMPDEST DUP3 MSTORE POP POP JUMP JUMPDEST PUSH0 PUSH1 0x20 DUP3 ADD SWAP1 POP PUSH2 0x1970 PUSH0 DUP4 ADD DUP5 PUSH2 0x194E JUMP JUMPDEST SWAP3 SWAP2 POP POP JUMP JUMPDEST PUSH0 PUSH1 0x20 DUP3 DUP5 SUB SLT ISZERO PUSH2 0x198B JUMPI PUSH2 0x198A PUSH2 0x157C JUMP JUMPDEST JUMPDEST PUSH0 PUSH2 0x1998 DUP5 DUP3 DUP6 ADD PUSH2 0x170D JUMP JUMPDEST SWAP2 POP POP SWAP3 SWAP2 POP POP JUMP JUMPDEST PUSH0 PUSH0 REVERT JUMPDEST PUSH0 PUSH0 REVERT JUMPDEST PUSH0 PUSH0 REVERT JUMPDEST PUSH0 PUSH0 DUP4 PUSH1 0x1F DUP5 ADD SLT PUSH2 0x19C2 JUMPI PUSH2 0x19C1 PUSH2 0x19A1 JUMP JUMPDEST JUMPDEST DUP3 CALLDATALOAD SWAP1 POP PUSH8 0xFFFFFFFFFFFFFFFF DUP2 GT ISZERO PUSH2 0x19DF JUMPI PUSH2 0x19DE PUSH2 0x19A5 JUMP JUMPDEST JUMPDEST PUSH1 0x20 DUP4 ADD SWAP2 POP DUP4 PUSH1 0x1 DUP3 MUL DUP4 ADD GT ISZERO PUSH2 0x19FB JUMPI PUSH2 0x19FA PUSH2 0x19A9 JUMP JUMPDEST JUMPDEST SWAP3 POP SWAP3 SWAP1 POP JUMP JUMPDEST PUSH0 PUSH0 PUSH0 PUSH0 PUSH0 PUSH1 0x80 DUP7 DUP9 SUB SLT ISZERO PUSH2 0x1A1B JUMPI PUSH2 0x1A1A PUSH2 0x157C JUMP JUMPDEST JUMPDEST PUSH0 PUSH2 0x1A28 DUP9 DUP3 DUP10 ADD PUSH2 0x170D JUMP JUMPDEST SWAP6 POP POP PUSH1 0x20 PUSH2 0x1A39 DUP9 DUP3 DUP10 ADD PUSH2 0x170D JUMP JUMPDEST SWAP5 POP POP PUSH1 0x40 PUSH2 0x1A4A DUP9 DUP3 DUP10 ADD PUSH2 0x1740 JUMP JUMPDEST SWAP4 POP POP PUSH1 0x60 DUP7 ADD CALLDATALOAD PUSH8 0xFFFFFFFFFFFFFFFF DUP2 GT ISZERO PUSH2 0x1A6B JUMPI PUSH2 0x1A6A PUSH2 0x1580 JUMP JUMPDEST JUMPDEST PUSH2 0x1A77 DUP9 DUP3 DUP10 ADD PUSH2 0x19AD JUMP JUMPDEST SWAP3 POP SWAP3 POP POP SWAP3 SWAP6 POP SWAP3 SWAP6 SWAP1 SWAP4 POP JUMP JUMPDEST PUSH0 PUSH0 PUSH1 0x40 DUP4 DUP6 SUB SLT ISZERO PUSH2 0x1A9C JUMPI PUSH2 0x1A9B PUSH2 0x157C JUMP JUMPDEST JUMPDEST PUSH0 PUSH2 0x1AA9 DUP6 DUP3 DUP7 ADD PUSH2 0x170D JUMP JUMPDEST SWAP3 POP POP PUSH1 0x20 PUSH2 0x1ABA DUP6 DUP3 DUP7 ADD PUSH2 0x170D JUMP JUMPDEST SWAP2 POP POP SWAP3 POP SWAP3 SWAP1 POP JUMP JUMPDEST PUSH32 0x4E487B7100000000000000000000000000000000000000000000000000000000 PUSH0 MSTORE PUSH1 0x22 PUSH1 0x4 MSTORE PUSH1 0x24 PUSH0 REVERT JUMPDEST PUSH0 PUSH1 0x2 DUP3 DIV SWAP1 POP PUSH1 0x1 DUP3 AND DUP1 PUSH2 0x1B08 JUMPI PUSH1 0x7F DUP3 AND SWAP2 POP JUMPDEST PUSH1 0x20 DUP3 LT DUP2 SUB PUSH2 0x1B1B JUMPI PUSH2 0x1B1A PUSH2 0x1AC4 JUMP JUMPDEST JUMPDEST POP SWAP2 SWAP1 POP JUMP JUMPDEST DUP3 DUP2 DUP4 CALLDATACOPY PUSH0 DUP4 DUP4 ADD MSTORE POP POP POP JUMP JUMPDEST PUSH0 PUSH2 0x1B3A DUP4 DUP6 PUSH2 0x1641 JUMP JUMPDEST SWAP4 POP PUSH2 0x1B47 DUP4 DUP6 DUP5 PUSH2 0x1B21 JUMP JUMPDEST PUSH2 0x1B50 DUP4 PUSH2 0x165F JUMP JUMPDEST DUP5 ADD SWAP1 POP SWAP4 SWAP3 POP POP POP JUMP JUMPDEST PUSH0 PUSH1 0x40 DUP3 ADD SWAP1 POP PUSH2 0x1B6E PUSH0 DUP4 ADD DUP7 PUSH2 0x1792 JUMP JUMPDEST DUP2 DUP2 SUB PUSH1 0x20 DUP4 ADD MSTORE PUSH2 0x1B81 DUP2 DUP5 DUP7 PUSH2 0x1B2F JUMP JUMPDEST SWAP1 POP SWAP5 SWAP4 POP POP POP POP JUMP JUMPDEST PUSH2 0x1B94 DUP2 PUSH2 0x16E6 JUMP JUMPDEST DUP3 MSTORE POP POP JUMP JUMPDEST PUSH0 PUSH1 0x60 DUP3 ADD SWAP1 POP PUSH2 0x1BAD PUSH0 DUP4 ADD DUP7 PUSH2 0x1B8B JUMP JUMPDEST PUSH2 0x1BBA PUSH1 0x20 DUP4 ADD DUP6 PUSH2 0x1792 JUMP JUMPDEST PUSH2 0x1BC7 PUSH1 0x40 DUP4 ADD DUP5 PUSH2 0x1792 JUMP JUMPDEST SWAP5 SWAP4 POP POP POP POP JUMP JUMPDEST PUSH0 PUSH1 0x20 DUP3 ADD SWAP1 POP PUSH2 0x1BE2 PUSH0 DUP4 ADD DUP5 PUSH2 0x1B8B JUMP JUMPDEST SWAP3 SWAP2 POP POP JUMP JUMPDEST PUSH32 0x7061757365640000000000000000000000000000000000000000000000000000 PUSH0 DUP3 ADD MSTORE POP JUMP JUMPDEST PUSH0 PUSH2 0x1C1C PUSH1 0x6 DUP4 PUSH2 0x1641 JUMP JUMPDEST SWAP2 POP PUSH2 0x1C27 DUP3 PUSH2 0x1BE8 JUMP JUMPDEST PUSH1 0x20 DUP3 ADD SWAP1 POP SWAP2 SWAP1 POP JUMP JUMPDEST PUSH0 PUSH1 0x20 DUP3 ADD SWAP1 POP DUP2 DUP2 SUB PUSH0 DUP4 ADD MSTORE PUSH2 0x1C49 DUP2 PUSH2 0x1C10 JUMP JUMPDEST SWAP1 POP SWAP2 SWAP1 POP JUMP JUMPDEST PUSH0 DUP3 DUP3 MSTORE PUSH1 0x20 DUP3 ADD SWAP1 POP SWAP3 SWAP2 POP POP JUMP JUMPDEST POP JUMP JUMPDEST PUSH0 PUSH2 0x1C6E PUSH0 DUP4 PUSH2 0x1C50 JUMP JUMPDEST SWAP2 POP PUSH2 0x1C79 DUP3 PUSH2 0x1C60 JUMP JUMPDEST PUSH0 DUP3 ADD SWAP1 POP SWAP2 SWAP1 POP JUMP JUMPDEST PUSH0 PUSH1 0x80 DUP3 ADD SWAP1 POP PUSH2 0x1C96 PUSH0 DUP4 ADD DUP7 PUSH2 0x1B8B JUMP JUMPDEST PUSH2 0x1CA3 PUSH1 0x20 DUP4 ADD DUP6 PUSH2 0x1B8B JUMP JUMPDEST PUSH2 0x1CB0 PUSH1 0x40 DUP4 ADD DUP5 PUSH2 0x1792 JUMP JUMPDEST DUP2 DUP2 SUB PUSH1 0x60 DUP4 ADD MSTORE PUSH2 0x1CC1 DUP2 PUSH2 0x1C63 JUMP JUMPDEST SWAP1 POP SWAP5 SWAP4 POP POP POP POP JUMP JUMPDEST PUSH2 0x1CD4 DUP2 PUSH2 0x1604 JUMP JUMPDEST DUP2 EQ PUSH2 0x1CDE JUMPI PUSH0 PUSH0 REVERT JUMPDEST POP JUMP JUMPDEST PUSH0 DUP2 MLOAD SWAP1 POP PUSH2 0x1CEF DUP2 PUSH2 0x1CCB JUMP JUMPDEST SWAP3 SWAP2 POP POP JUMP JUMPDEST PUSH0 DUP2 MLOAD SWAP1 POP PUSH2 0x1D03 DUP2 PUSH2 0x172A JUMP JUMPDEST SWAP3 SWAP2 POP POP JUMP JUMPDEST PUSH0 PUSH0 PUSH1 0x40 DUP4 DUP6 SUB SLT ISZERO PUSH2 0x1D1F JUMPI PUSH2 0x1D1E PUSH2 0x157C JUMP JUMPDEST JUMPDEST PUSH0 PUSH2 0x1D2C DUP6 DUP3 DUP7 ADD PUSH2 0x1CE1 JUMP JUMPDEST SWAP3 POP POP PUSH1 0x20 PUSH2 0x1D3D DUP6 DUP3 DUP7 ADD PUSH2 0x1CF5 JUMP JUMPDEST SWAP2 POP POP SWAP3 POP SWAP3 SWAP1 POP JUMP JUMPDEST PUSH0 DUP2 SWAP1 POP SWAP3 SWAP2 POP POP JUMP JUMPDEST PUSH32 0x636F6D706C69616E6365206661696C3A20000000000000000000000000000000 PUSH0 DUP3 ADD MSTORE POP JUMP JUMPDEST PUSH0 PUSH2 0x1D85 PUSH1 0x11 DUP4 PUSH2 0x1D47 JUMP JUMPDEST SWAP2 POP PUSH2 0x1D90 DUP3 PUSH2 0x1D51 JUMP JUMPDEST PUSH1 0x11 DUP3 ADD SWAP1 POP SWAP2 SWAP1 POP JUMP JUMPDEST PUSH0 PUSH2 0x1DA5 DUP3 PUSH2 0x1637 JUMP JUMPDEST PUSH2 0x1DAF DUP2 DUP6 PUSH2 0x1D47 JUMP JUMPDEST SWAP4 POP PUSH2 0x1DBF DUP2 DUP6 PUSH1 0x20 DUP7 ADD PUSH2 0x1651 JUMP JUMPDEST DUP1 DUP5 ADD SWAP2 POP POP SWAP3 SWAP2 POP POP JUMP JUMPDEST PUSH0 PUSH2 0x1DD5 DUP3 PUSH2 0x1D79 JUMP JUMPDEST SWAP2 POP PUSH2 0x1DE1 DUP3 DUP5 PUSH2 0x1D9B JUMP JUMPDEST SWAP2 POP DUP2 SWAP1 POP SWAP3 SWAP2 POP POP JUMP JUMPDEST PUSH0 PUSH1 0x40 DUP3 ADD SWAP1 POP PUSH2 0x1DFF PUSH0 DUP4 ADD DUP6 PUSH2 0x1B8B JUMP JUMPDEST PUSH2 0x1E0C PUSH1 0x20 DUP4 ADD DUP5 PUSH2 0x1868 JUMP JUMPDEST SWAP4 SWAP3 POP POP POP JUMP JUMPDEST PUSH32 0x4E487B7100000000000000000000000000000000000000000000000000000000 PUSH0 MSTORE PUSH1 0x12 PUSH1 0x4 MSTORE PUSH1 0x24 PUSH0 REVERT JUMPDEST PUSH0 PUSH2 0x1E4A DUP3 PUSH2 0x1721 JUMP JUMPDEST SWAP2 POP PUSH2 0x1E55 DUP4 PUSH2 0x1721 JUMP JUMPDEST SWAP3 POP DUP3 PUSH2 0x1E65 JUMPI PUSH2 0x1E64 PUSH2 0x1E13 JUMP JUMPDEST JUMPDEST DUP3 DUP3 MOD SWAP1 POP SWAP3 SWAP2 POP POP JUMP JUMPDEST PUSH32 0x4E487B7100000000000000000000000000000000000000000000000000000000 PUSH0 MSTORE PUSH1 0x11 PUSH1 0x4 MSTORE PUSH1 0x24 PUSH0 REVERT JUMPDEST PUSH0 PUSH2 0x1EA7 DUP3 PUSH2 0x1721 JUMP JUMPDEST SWAP2 POP PUSH2 0x1EB2 DUP4 PUSH2 0x1721 JUMP JUMPDEST SWAP3 POP DUP3 DUP3 ADD SWAP1 POP DUP1 DUP3 GT ISZERO PUSH2 0x1ECA JUMPI PUSH2 0x1EC9 PUSH2 0x1E70 JUMP JUMPDEST JUMPDEST SWAP3 SWAP2 POP POP JUMP JUMPDEST PUSH0 DUP2 PUSH1 0xF8 SHL SWAP1 POP SWAP2 SWAP1 POP JUMP JUMPDEST PUSH0 PUSH2 0x1EE6 DUP3 PUSH2 0x1ED0 JUMP JUMPDEST SWAP1 POP SWAP2 SWAP1 POP JUMP JUMPDEST PUSH2 0x1EFE PUSH2 0x1EF9 DUP3 PUSH2 0x18CE JUMP JUMPDEST PUSH2 0x1EDC JUMP JUMPDEST DUP3 MSTORE POP POP JUMP JUMPDEST PUSH0 DUP2 MLOAD SWAP1 POP SWAP2 SWAP1 POP JUMP JUMPDEST PUSH0 DUP2 SWAP1 POP SWAP3 SWAP2 POP POP JUMP JUMPDEST PUSH0 PUSH2 0x1F22 DUP3 PUSH2 0x1F04 JUMP JUMPDEST PUSH2 0x1F2C DUP2 DUP6 PUSH2 0x1F0E JUMP JUMPDEST SWAP4 POP PUSH2 0x1F3C DUP2 DUP6 PUSH1 0x20 DUP7 ADD PUSH2 0x1651 JUMP JUMPDEST DUP1 DUP5 ADD SWAP2 POP POP SWAP3 SWAP2 POP POP JUMP JUMPDEST PUSH0 PUSH2 0x1F53 DUP3 DUP6 PUSH2 0x1EED JUMP JUMPDEST PUSH1 0x1 DUP3 ADD SWAP2 POP PUSH2 0x1F63 DUP3 DUP5 PUSH2 0x1F18 JUMP JUMPDEST SWAP2 POP DUP2 SWAP1 POP SWAP4 SWAP3 POP POP POP JUMP JUMPDEST PUSH0 PUSH2 0x1F79 DUP3 PUSH2 0x1721 JUMP JUMPDEST SWAP2 POP PUSH2 0x1F84 DUP4 PUSH2 0x1721 JUMP JUMPDEST SWAP3 POP DUP3 PUSH2 0x1F94 JUMPI PUSH2 0x1F93 PUSH2 0x1E13 JUMP JUMPDEST JUMPDEST DUP3 DUP3 DIV SWAP1 POP SWAP3 SWAP2 POP POP JUMP INVALID LOG2 PUSH5 0x6970667358 0x22 SLT KECCAK256 SWAP10 SWAP1 0xB5 PUSH12 0xB2B3B374ED9BE907A08F36B8 SWAP1 0x2D DUP11 0xBC 0xD7 SELFBALANCE OR MCOPY CALLDATACOPY 0x21 PUSH20 0xE7BEBC30A364736F6C634300081E003300000000 "
				},
				"gasEstimates": {
					"creation": {
						"codeDepositCost": "1629800",
						"executionCost": "infinite",
						"totalCost": "infinite"
					},
					"external": {
						"DEFAULT_ADMIN_ROLE()": "395",
						"ISSUER_ROLE()": "392",
						"allowance(address,address)": "infinite",
						"approve(address,uint256)": "infinite",
						"balanceOf(address)": "2873",
						"compliance()": "infinite",
						"decimals()": "405",
						"forceTransfer(address,address,uint256,string)": "infinite",
						"getRoleAdmin(bytes32)": "infinite",
						"grantRole(bytes32,address)": "infinite",
						"hasRole(bytes32,address)": "3143",
						"name()": "infinite",
						"pause()": "infinite",
						"paused()": "2606",
						"renounceRole(bytes32,address)": "infinite",
						"revokeRole(bytes32,address)": "infinite",
						"supportsInterface(bytes4)": "741",
						"symbol()": "infinite",
						"totalSupply()": "2522",
						"transfer(address,uint256)": "infinite",
						"transferFrom(address,address,uint256)": "infinite",
						"unpause()": "infinite"
					},
					"internal": {
						"_toStr(uint256)": "infinite",
						"_update(address,address,uint256)": "infinite"
					}
				},
				"methodIdentifiers": {
					"DEFAULT_ADMIN_ROLE()": "a217fddf",
					"ISSUER_ROLE()": "82aefa24",
					"allowance(address,address)": "dd62ed3e",
					"approve(address,uint256)": "095ea7b3",
					"balanceOf(address)": "70a08231",
					"compliance()": "6290865d",
					"decimals()": "313ce567",
					"forceTransfer(address,address,uint256,string)": "89021456",
					"getRoleAdmin(bytes32)": "248a9ca3",
					"grantRole(bytes32,address)": "2f2ff15d",
					"hasRole(bytes32,address)": "91d14854",
					"name()": "06fdde03",
					"pause()": "8456cb59",
					"paused()": "5c975abb",
					"renounceRole(bytes32,address)": "36568abe",
					"revokeRole(bytes32,address)": "d547741f",
					"supportsInterface(bytes4)": "01ffc9a7",
					"symbol()": "95d89b41",
					"totalSupply()": "18160ddd",
					"transfer(address,uint256)": "a9059cbb",
					"transferFrom(address,address,uint256)": "23b872dd",
					"unpause()": "3f4ba83a"
				}
			},
			"storageLayout": {
				"storage": [
					{
						"astId": 783,
						"contract": "contracts/RwaToken.sol:RwaToken",
						"label": "_balances",
						"offset": 0,
						"slot": "0",
						"type": "t_mapping(t_address,t_uint256)"
					},
					{
						"astId": 789,
						"contract": "contracts/RwaToken.sol:RwaToken",
						"label": "_allowances",
						"offset": 0,
						"slot": "1",
						"type": "t_mapping(t_address,t_mapping(t_address,t_uint256))"
					},
					{
						"astId": 791,
						"contract": "contracts/RwaToken.sol:RwaToken",
						"label": "_totalSupply",
						"offset": 0,
						"slot": "2",
						"type": "t_uint256"
					},
					{
						"astId": 793,
						"contract": "contracts/RwaToken.sol:RwaToken",
						"label": "_name",
						"offset": 0,
						"slot": "3",
						"type": "t_string_storage"
					},
					{
						"astId": 795,
						"contract": "contracts/RwaToken.sol:RwaToken",
						"label": "_symbol",
						"offset": 0,
						"slot": "4",
						"type": "t_string_storage"
					},
					{
						"astId": 271,
						"contract": "contracts/RwaToken.sol:RwaToken",
						"label": "_roles",
						"offset": 0,
						"slot": "5",
						"type": "t_mapping(t_bytes32,t_struct(RoleData)266_storage)"
					},
					{
						"astId": 1418,
						"contract": "contracts/RwaToken.sol:RwaToken",
						"label": "_paused",
						"offset": 0,
						"slot": "6",
						"type": "t_bool"
					},
					{
						"astId": 35,
						"contract": "contracts/RwaToken.sol:RwaToken",
						"label": "compliance",
						"offset": 1,
						"slot": "6",
						"type": "t_contract(ICompliance)20"
					}
				],
				"types": {
					"t_address": {
						"encoding": "inplace",
						"label": "address",
						"numberOfBytes": "20"
					},
					"t_bool": {
						"encoding": "inplace",
						"label": "bool",
						"numberOfBytes": "1"
					},
					"t_bytes32": {
						"encoding": "inplace",
						"label": "bytes32",
						"numberOfBytes": "32"
					},
					"t_contract(ICompliance)20": {
						"encoding": "inplace",
						"label": "contract ICompliance",
						"numberOfBytes": "20"
					},
					"t_mapping(t_address,t_bool)": {
						"encoding": "mapping",
						"key": "t_address",
						"label": "mapping(address => bool)",
						"numberOfBytes": "32",
						"value": "t_bool"
					},
					"t_mapping(t_address,t_mapping(t_address,t_uint256))": {
						"encoding": "mapping",
						"key": "t_address",
						"label": "mapping(address => mapping(address => uint256))",
						"numberOfBytes": "32",
						"value": "t_mapping(t_address,t_uint256)"
					},
					"t_mapping(t_address,t_uint256)": {
						"encoding": "mapping",
						"key": "t_address",
						"label": "mapping(address => uint256)",
						"numberOfBytes": "32",
						"value": "t_uint256"
					},
					"t_mapping(t_bytes32,t_struct(RoleData)266_storage)": {
						"encoding": "mapping",
						"key": "t_bytes32",
						"label": "mapping(bytes32 => struct AccessControl.RoleData)",
						"numberOfBytes": "32",
						"value": "t_struct(RoleData)266_storage"
					},
					"t_string_storage": {
						"encoding": "bytes",
						"label": "string",
						"numberOfBytes": "32"
					},
					"t_struct(RoleData)266_storage": {
						"encoding": "inplace",
						"label": "struct AccessControl.RoleData",
						"members": [
							{
								"astId": 263,
								"contract": "contracts/RwaToken.sol:RwaToken",
								"label": "hasRole",
								"offset": 0,
								"slot": "0",
								"type": "t_mapping(t_address,t_bool)"
							},
							{
								"astId": 265,
								"contract": "contracts/RwaToken.sol:RwaToken",
								"label": "adminRole",
								"offset": 0,
								"slot": "1",
								"type": "t_bytes32"
							}
						],
						"numberOfBytes": "64"
					},
					"t_uint256": {
						"encoding": "inplace",
						"label": "uint256",
						"numberOfBytes": "32"
					}
				}
			},
			"userdoc": {
				"kind": "user",
				"methods": {},
				"notice": "ERC-20-like token with a compliance hook (ERC-3643-style). Demo only — not production. Uses OZ v5 (pinned URL imports).",
				"version": 1
			}
		}
	}
}