{
	"contracts/IdentityRegistry.sol": {
		"IdentityRegistry": {
			"abi": [
				{
					"inputs": [
						{
							"internalType": "address",
							"name": "admin",
							"type": "address"
						}
					],
					"stateMutability": "nonpayable",
					"type": "constructor"
				},
				{
					"inputs": [],
					"name": "AccessControlBadConfirmation",
					"type": "error"
				},
				{
					"inputs": [
						{
							"internalType": "address",
							"name": "account",
							"type": "address"
						},
						{
							"internalType": "bytes32",
							"name": "neededRole",
							"type": "bytes32"
						}
					],
					"name": "AccessControlUnauthorizedAccount",
					"type": "error"
				},
				{
					"anonymous": false,
					"inputs": [
						{
							"indexed": true,
							"internalType": "address",
							"name": "user",
							"type": "address"
						},
						{
							"indexed": false,
							"internalType": "bytes2",
							"name": "juris",
							"type": "bytes2"
						},
						{
							"indexed": false,
							"internalType": "uint8",
							"name": "invType",
							"type": "uint8"
						}
					],
					"name": "AttributesUpdated",
					"type": "event"
				},
				{
					"anonymous": false,
					"inputs": [
						{
							"indexed": true,
							"internalType": "address",
							"name": "user",
							"type": "address"
						},
						{
							"indexed": false,
							"internalType": "bool",
							"name": "ok",
							"type": "bool"
						}
					],
					"name": "BlacklistUpdated",
					"type": "event"
				},
				{
					"anonymous": false,
					"inputs": [
						{
							"indexed": true,
							"internalType": "address",
							"name": "user",
							"type": "address"
						},
						{
							"indexed": false,
							"internalType": "bool",
							"name": "ok",
							"type": "bool"
						}
					],
					"name": "KycUpdated",
					"type": "event"
				},
				{
					"anonymous": false,
					"inputs": [
						{
							"indexed": true,
							"internalType": "bytes32",
							"name": "role",
							"type": "bytes32"
						},
						{
							"indexed": true,
							"internalType": "bytes32",
							"name": "previousAdminRole",
							"type": "bytes32"
						},
						{
							"indexed": true,
							"internalType": "bytes32",
							"name": "newAdminRole",
							"type": "bytes32"
						}
					],
					"name": "RoleAdminChanged",
					"type": "event"
				},
				{
					"anonymous": false,
					"inputs": [
						{
							"indexed": true,
							"internalType": "bytes32",
							"name": "role",
							"type": "bytes32"
						},
						{
							"indexed": true,
							"internalType": "address",
							"name": "account",
							"type": "address"
						},
						{
							"indexed": true,
							"internalType": "address",
							"name": "sender",
							"type": "address"
						}
					],
					"name": "RoleGranted",
					"type": "event"
				},
				{
					"anonymous": false,
					"inputs": [
						{
							"indexed": true,
							"internalType": "bytes32",
							"name": "role",
							"type": "bytes32"
						},
						{
							"indexed": true,
							"internalType": "address",
							"name": "account",
							"type": "address"
						},
						{
							"indexed": true,
							"internalType": "address",
							"name": "sender",
							"type": "address"
						}
					],
					"name": "RoleRevoked",
					"type": "event"
				},
				{
					"inputs": [],
					"name": "DEFAULT_ADMIN_ROLE",
					"outputs": [
						{
							"internalType": "bytes32",
							"name": "",
							"type": "bytes32"
						}
					],
					"stateMutability": "view",
					"type": "function"
				},
				{
					"inputs": [],
					"name": "KYC_ADMIN_ROLE",
					"outputs": [
						{
							"internalType": "bytes32",
							"name": "",
							"type": "bytes32"
						}
					],
					"stateMutability": "view",
					"type": "function"
				},
				{
					"inputs": [],
					"name": "SANCTIONS_ADMIN_ROLE",
					"outputs": [
						{
							"internalType": "bytes32",
							"name": "",
							"type": "bytes32"
						}
					],
					"stateMutability": "view",
					"type": "function"
				},
				{
					"inputs": [
						{
							"internalType": "bytes32",
							"name": "role",
							"type": "bytes32"
						}
					],
					"name": "getRoleAdmin",
					"outputs": [
						{
							"internalType": "bytes32",
							"name": "",
							"type": "bytes32"
						}
					],
					"stateMutability": "view",
					"type": "function"
				},
				{
					"inputs": [
						{
							"internalType": "bytes32",
							"name": "role",
							"type": "bytes32"
						},
						{
							"internalType": "address",
							"name": "account",
							"type": "address"
						}
					],
					"name": "grantRole",
					"outputs": [],
					"stateMutability": "nonpayable",
					"type": "function"
				},
				{
					"inputs": [
						{
							"internalType": "bytes32",
							"name": "role",
							"type": "bytes32"
						},
						{
							"internalType": "address",
							"name": "account",
							"type": "address"
						}
					],
					"name": "hasRole",
					"outputs": [
						{
							"internalType": "bool",
							"name": "",
							"type": "bool"
						}
					],
					"stateMutability": "view",
					"type": "function"
				},
				{
					"inputs": [
						{
							"internalType": "address",
							"name": "",
							"type": "address"
						}
					],
					"name": "investorTypeOf",
					"outputs": [
						{
							"internalType": "uint8",
							"name": "",
							"type": "uint8"
						}
					],
					"stateMutability": "view",
					"type": "function"
				},
				{
					"inputs": [
						{
							"internalType": "address",
							"name": "",
							"type": "address"
						}
					],
					"name": "isBlacklisted",
					"outputs": [
						{
							"internalType": "bool",
							"name": "",
							"type": "bool"
						}
					],
					"stateMutability": "view",
					"type": "function"
				},
				{
					"inputs": [
						{
							"internalType": "address",
							"name": "",
							"type": "address"
						}
					],
					"name": "isVerified",
					"outputs": [
						{
							"internalType": "bool",
							"name": "",
							"type": "bool"
						}
					],
					"stateMutability": "view",
					"type": "function"
				},
				{
					"inputs": [
						{
							"internalType": "address",
							"name": "",
							"type": "address"
						}
					],
					"name": "jurisdictionOf",
					"outputs": [
						{
							"internalType": "bytes2",
							"name": "",
							"type": "bytes2"
						}
					],
					"stateMutability": "view",
					"type": "function"
				},
				{
					"inputs": [
						{
							"internalType": "bytes32",
							"name": "role",
							"type": "bytes32"
						},
						{
							"internalType": "address",
							"name": "callerConfirmation",
							"type": "address"
						}
					],
					"name": "renounceRole",
					"outputs": [],
					"stateMutability": "nonpayable",
					"type": "function"
				},
				{
					"inputs": [
						{
							"internalType": "bytes32",
							"name": "role",
							"type": "bytes32"
						},
						{
							"internalType": "address",
							"name": "account",
							"type": "address"
						}
					],
					"name": "revokeRole",
					"outputs": [],
					"stateMutability": "nonpayable",
					"type": "function"
				},
				{
					"inputs": [
						{
							"internalType": "address",
							"name": "user",
							"type": "address"
						},
						{
							"internalType": "bytes2",
							"name": "juris",
							"type": "bytes2"
						},
						{
							"internalType": "uint8",
							"name": "invType",
							"type": "uint8"
						}
					],
					"name": "setAttributes",
					"outputs": [],
					"stateMutability": "nonpayable",
					"type": "function"
				},
				{
					"inputs": [
						{
							"internalType": "address",
							"name": "user",
							"type": "address"
						},
						{
							"internalType": "bool",
							"name": "ok",
							"type": "bool"
						}
					],
					"name": "setBlacklist",
					"outputs": [],
					"stateMutability": "nonpayable",
					"type": "function"
				},
				{
					"inputs": [
						{
							"internalType": "address",
							"name": "user",
							"type": "address"
						},
						{
							"internalType": "bool",
							"name": "ok",
							"type": "bool"
						}
					],
					"name": "setKyc",
					"outputs": [],
					"stateMutability": "nonpayable",
					"type": "function"
				},
				{
					"inputs": [
						{
							"internalType": "bytes4",
							"name": "interfaceId",
							"type": "bytes4"
						}
					],
					"name": "supportsInterface",
					"outputs": [
						{
							"internalType": "bool",
							"name": "",
							"type": "bool"
						}
					],
					"stateMutability": "view",
					"type": "function"
				}
			],
			"devdoc": {
				"errors": {
					"AccessControlBadConfirmation()": [
						{
							"details": "The caller of a function is not the expected one. NOTE: Don't confuse with {AccessControlUnauthorizedAccount}."
						}
					],
					"AccessControlUnauthorizedAccount(address,bytes32)": [
						{
							"details": "The `account` is missing a role."
						}
					]
				},
				"events": {
					"RoleAdminChanged(bytes32,bytes32,bytes32)": {
						"details": "Emitted when `newAdminRole` is set as ``role``'s admin role, replacing `previousAdminRole` `DEFAULT_ADMIN_ROLE` is the starting admin for all roles, despite {RoleAdminChanged} not being emitted signaling this."
					},
					"RoleGranted(bytes32,address,address)": {
						"details": "Emitted when `account` is granted `role`. `sender` is the account that originated the contract call, an admin role bearer except when using {AccessControl-_setupRole}."
					},
					"RoleRevoked(bytes32,address,address)": {
						"details": "Emitted when `account` is revoked `role`. `sender` is the account that originated the contract call:   - if using `revokeRole`, it is the admin role bearer   - if using `renounceRole`, it is the role bearer (i.e. `account`)"
					}
				},
				"kind": "dev",
				"methods": {
					"getRoleAdmin(bytes32)": {
						"details": "Returns the admin role that controls `role`. See {grantRole} and {revokeRole}. To change a role's admin, use {_setRoleAdmin}."
					},
					"grantRole(bytes32,address)": {
						"details": "Grants `role` to `account`. If `account` had not been already granted `role`, emits a {RoleGranted} event. Requirements: - the caller must have ``role``'s admin role. May emit a {RoleGranted} event."
					},
					"hasRole(bytes32,address)": {
						"details": "Returns `true` if `account` has been granted `role`."
					},
					"renounceRole(bytes32,address)": {
						"details": "Revokes `role` from the calling account. Roles are often managed via {grantRole} and {revokeRole}: this function's purpose is to provide a mechanism for accounts to lose their privileges if they are compromised (such as when a trusted device is misplaced). If the calling account had been revoked `role`, emits a {RoleRevoked} event. Requirements: - the caller must be `callerConfirmation`. May emit a {RoleRevoked} event."
					},
					"revokeRole(bytes32,address)": {
						"details": "Revokes `role` from `account`. If `account` had been granted `role`, emits a {RoleRevoked} event. Requirements: - the caller must have ``role``'s admin role. May emit a {RoleRevoked} event."
					},
					"supportsInterface(bytes4)": {
						"details": "See {IERC165-supportsInterface}."
					}
				},
				"version": 1
			},
			"evm": {
				"assembly": "    /* \"contracts/IdentityRegistry.sol\":393:1895  contract IdentityRegistry is AccessControl {... */\n  mstore(0x40, 0x80)\n    /* \"contracts/IdentityRegistry.sol\":1138:1311  constructor(address admin) {... */\n  callvalue\n  dup1\n  iszero\n  tag_1\n  jumpi\n  revert(0x00, 0x00)\ntag_1:\n  pop\n  mload(0x40)\n  sub(codesize, bytecodeSize)\n  dup1\n  bytecodeSize\n  dup4\n  codecopy\n  dup2\n  dup2\n  add\n  0x40\n  mstore\n  dup2\n  add\n  swap1\n  tag_2\n  swap2\n  swap1\n  tag_3\n  jump\t// in\ntag_2:\n    /* \"contracts/IdentityRegistry.sol\":1175:1212  _grantRole(DEFAULT_ADMIN_ROLE, admin) */\n  tag_6\n    /* \"https://raw.githubusercontent.com/OpenZeppelin/openzeppelin-contracts/v5.0.2/contracts/access/AccessControl.sol\":2232:2236  0x00 */\n  0x00\n    /* \"contracts/IdentityRegistry.sol\":1186:1204  DEFAULT_ADMIN_ROLE */\n  0x00\n  shl\n    /* \"contracts/IdentityRegistry.sol\":1206:1211  admin */\n  dup3\n    /* \"contracts/IdentityRegistry.sol\":1175:1185  _grantRole */\n  shl(0x20, tag_7)\n    /* \"contracts/IdentityRegistry.sol\":1175:1212  _grantRole(DEFAULT_ADMIN_ROLE, admin) */\n  0x20\n  shr\n  jump\t// in\ntag_6:\n  pop\n    /* \"contracts/IdentityRegistry.sol\":1222:1255  _grantRole(KYC_ADMIN_ROLE, admin) */\n  tag_8\n    /* \"contracts/IdentityRegistry.sol\":483:510  keccak256(\"KYC_ADMIN_ROLE\") */\n  0x811427a0fa4932aef534bba16bc34e9b7b2d7d2a79c475fca1765f6cc1faebea\n    /* \"contracts/IdentityRegistry.sol\":1249:1254  admin */\n  dup3\n    /* \"contracts/IdentityRegistry.sol\":1222:1232  _grantRole */\n  shl(0x20, tag_7)\n    /* \"contracts/IdentityRegistry.sol\":1222:1255  _grantRole(KYC_ADMIN_ROLE, admin) */\n  0x20\n  shr\n  jump\t// in\ntag_8:\n  pop\n    /* \"contracts/IdentityRegistry.sol\":1265:1304  _grantRole(SANCTIONS_ADMIN_ROLE, admin) */\n  tag_9\n    /* \"contracts/IdentityRegistry.sol\":563:596  keccak256(\"SANCTIONS_ADMIN_ROLE\") */\n  0x120f974a3b1c46838e58df88a957752089d3bff8b65f144f94c1b4b52c456b72\n    /* \"contracts/IdentityRegistry.sol\":1298:1303  admin */\n  dup3\n    /* \"contracts/IdentityRegistry.sol\":1265:1275  _grantRole */\n  shl(0x20, tag_7)\n    /* \"contracts/IdentityRegistry.sol\":1265:1304  _grantRole(SANCTIONS_ADMIN_ROLE, admin) */\n  0x20\n  shr\n  jump\t// in\ntag_9:\n  pop\n    /* \"contracts/IdentityRegistry.sol\":1138:1311  constructor(address admin) {... */\n  pop\n    /* \"contracts/IdentityRegistry.sol\":393:1895  contract IdentityRegistry is AccessControl {... */\n  jump(tag_10)\n    /* \"https://raw.githubusercontent.com/OpenZeppelin/openzeppelin-contracts/v5.0.2/contracts/access/AccessControl.sol\":6179:6495  function _grantRole(bytes32 role, address account) internal virtual returns (bool) {... */\ntag_7:\n    /* \"https://raw.githubusercontent.com/OpenZeppelin/openzeppelin-contracts/v5.0.2/contracts/access/AccessControl.sol\":6256:6260  bool */\n  0x00\n    /* \"https://raw.githubusercontent.com/OpenZeppelin/openzeppelin-contracts/v5.0.2/contracts/access/AccessControl.sol\":6277:6299  hasRole(role, account) */\n  tag_12\n    /* \"https://raw.githubusercontent.com/OpenZeppelin/openzeppelin-contracts/v5.0.2/contracts/access/AccessControl.sol\":6285:6289  role */\n  dup4\n    /* \"https://raw.githubusercontent.com/OpenZeppelin/openzeppelin-contracts/v5.0.2/contracts/access/AccessControl.sol\":6291:6298  account */\n  dup4\n    /* \"https://raw.githubusercontent.com/OpenZeppelin/openzeppelin-contracts/v5.0.2/contracts/access/AccessControl.sol\":6277:6284  hasRole */\n  shl(0x20, tag_13)\n    /* \"https://raw.githubusercontent.com/OpenZeppelin/openzeppelin-contracts/v5.0.2/contracts/access/AccessControl.sol\":6277:6299  hasRole(role, account) */\n  0x20\n  shr\n  jump\t// in\ntag_12:\n    /* \"https://raw.githubusercontent.com/OpenZeppelin/openzeppelin-contracts/v5.0.2/contracts/access/AccessControl.sol\":6272:6489  if (!hasRole(role, account)) {... */\n  tag_14\n  jumpi\n    /* \"https://raw.githubusercontent.com/OpenZeppelin/openzeppelin-contracts/v5.0.2/contracts/access/AccessControl.sol\":6347:6351  true */\n  0x01\n    /* \"https://raw.githubusercontent.com/OpenZeppelin/openzeppelin-contracts/v5.0.2/contracts/access/AccessControl.sol\":6315:6321  _roles */\n  0x00\n    /* \"https://raw.githubusercontent.com/OpenZeppelin/openzeppelin-contracts/v5.0.2/contracts/access/AccessControl.sol\":6315:6327  _roles[role] */\n  0x00\n    /* \"https://raw.githubusercontent.com/OpenZeppelin/openzeppelin-contracts/v5.0.2/contracts/access/AccessControl.sol\":6322:6326  role */\n  dup6\n    /* \"https://raw.githubusercontent.com/OpenZeppelin/openzeppelin-contracts/v5.0.2/contracts/access/AccessControl.sol\":6315:6327  _roles[role] */\n  dup2\n  mstore\n  0x20\n  add\n  swap1\n  dup2\n  mstore\n  0x20\n  add\n  0x00\n  keccak256\n    /* \"https://raw.githubusercontent.com/OpenZeppelin/openzeppelin-contracts/v5.0.2/contracts/access/AccessControl.sol\":6315:6335  _roles[role].hasRole */\n  0x00\n  add\n    /* \"https://raw.githubusercontent.com/OpenZeppelin/openzeppelin-contracts/v5.0.2/contracts/access/AccessControl.sol\":6315:6344  _roles[role].hasRole[account] */\n  0x00\n    /* \"https://raw.githubusercontent.com/OpenZeppelin/openzeppelin-contracts/v5.0.2/contracts/access/AccessControl.sol\":6336:6343  account */\n  dup5\n    /* \"https://raw.githubusercontent.com/OpenZeppelin/openzeppelin-contracts/v5.0.2/contracts/access/AccessControl.sol\":6315:6344  _roles[role].hasRole[account] */\n  0xffffffffffffffffffffffffffffffffffffffff\n  and\n  0xffffffffffffffffffffffffffffffffffffffff\n  and\n  dup2\n  mstore\n  0x20\n  add\n  swap1\n  dup2\n  mstore\n  0x20\n  add\n  0x00\n  keccak256\n  0x00\n    /* \"https://raw.githubusercontent.com/OpenZeppelin/openzeppelin-contracts/v5.0.2/contracts/access/AccessControl.sol\":6315:6351  _roles[role].hasRole[account] = true */\n  0x0100\n  exp\n  dup2\n  sload\n  dup2\n  0xff\n  mul\n  not\n  and\n  swap1\n  dup4\n  iszero\n  iszero\n  mul\n  or\n  swap1\n  sstore\n  pop\n    /* \"https://raw.githubusercontent.com/OpenZeppelin/openzeppelin-contracts/v5.0.2/contracts/access/AccessControl.sol\":6397:6409  _msgSender() */\n  tag_15\n    /* \"https://raw.githubusercontent.com/OpenZeppelin/openzeppelin-contracts/v5.0.2/contracts/access/AccessControl.sol\":6397:6407  _msgSender */\n  shl(0x20, tag_16)\n    /* \"https://raw.githubusercontent.com/OpenZeppelin/openzeppelin-contracts/v5.0.2/contracts/access/AccessControl.sol\":6397:6409  _msgSender() */\n  0x20\n  shr\n  jump\t// in\ntag_15:\n    /* \"https://raw.githubusercontent.com/OpenZeppelin/openzeppelin-contracts/v5.0.2/contracts/access/AccessControl.sol\":6370:6410  RoleGranted(role, account, _msgSender()) */\n  0xffffffffffffffffffffffffffffffffffffffff\n  and\n    /* \"https://raw.githubusercontent.com/OpenZeppelin/openzeppelin-contracts/v5.0.2/contracts/access/AccessControl.sol\":6388:6395  account */\n  dup3\n    /* \"https://raw.githubusercontent.com/OpenZeppelin/openzeppelin-contracts/v5.0.2/contracts/access/AccessControl.sol\":6370:6410  RoleGranted(role, account, _msgSender()) */\n  0xffffffffffffffffffffffffffffffffffffffff\n  and\n    /* \"https://raw.githubusercontent.com/OpenZeppelin/openzeppelin-contracts/v5.0.2/contracts/access/AccessControl.sol\":6382:6386  role */\n  dup5\n    /* \"https://raw.githubusercontent.com/OpenZeppelin/openzeppelin-contracts/v5.0.2/contracts/access/AccessControl.sol\":6370:6410  RoleGranted(role, account, _msgSender()) */\n  0x2f8788117e7eff1d82e926ec794901d17c78024a50270940304540a733656f0d\n  mload(0x40)\n  mload(0x40)\n  dup1\n  swap2\n  sub\n  swap1\n  log4\n    /* \"https://raw.githubusercontent.com/OpenZeppelin/openzeppelin-contracts/v5.0.2/contracts/access/AccessControl.sol\":6431:6435  true */\n  0x01\n    /* \"https://raw.githubusercontent.com/OpenZeppelin/openzeppelin-contracts/v5.0.2/contracts/access/AccessControl.sol\":6424:6435  return true */\n  swap1\n  pop\n  jump(tag_11)\n    /* \"https://raw.githubusercontent.com/OpenZeppelin/openzeppelin-contracts/v5.0.2/contracts/access/AccessControl.sol\":6272:6489  if (!hasRole(role, account)) {... */\ntag_14:\n    /* \"https://raw.githubusercontent.com/OpenZeppelin/openzeppelin-contracts/v5.0.2/contracts/access/AccessControl.sol\":6473:6478  false */\n  0x00\n    /* \"https://raw.githubusercontent.com/OpenZeppelin/openzeppelin-contracts/v5.0.2/contracts/access/AccessControl.sol\":6466:6478  return false */\n  swap1\n  pop\n    /* \"https://raw.githubusercontent.com/OpenZeppelin/openzeppelin-contracts/v5.0.2/contracts/access/AccessControl.sol\":6179:6495  function _grantRole(bytes32 role, address account) internal virtual returns (bool) {... */\ntag_11:\n  swap3\n  swap2\n  pop\n  pop\n  jump\t// out\n    /* \"https://raw.githubusercontent.com/OpenZeppelin/openzeppelin-contracts/v5.0.2/contracts/access/AccessControl.sol\":2854:2990  function hasRole(bytes32 role, address account) public view virtual returns (bool) {... */\ntag_13:\n    /* \"https://raw.githubusercontent.com/OpenZeppelin/openzeppelin-contracts/v5.0.2/contracts/access/AccessControl.sol\":2931:2935  bool */\n  0x00\n    /* \"https://raw.githubusercontent.com/OpenZeppelin/openzeppelin-contracts/v5.0.2/contracts/access/AccessControl.sol\":2954:2960  _roles */\n  0x00\n    /* \"https://raw.githubusercontent.com/OpenZeppelin/openzeppelin-contracts/v5.0.2/contracts/access/AccessControl.sol\":2954:2966  _roles[role] */\n  0x00\n    /* \"https://raw.githubusercontent.com/OpenZeppelin/openzeppelin-contracts/v5.0.2/contracts/access/AccessControl.sol\":2961:2965  role */\n  dup5\n    /* \"https://raw.githubusercontent.com/OpenZeppelin/openzeppelin-contracts/v5.0.2/contracts/access/AccessControl.sol\":2954:2966  _roles[role] */\n  dup2\n  mstore\n  0x20\n  add\n  swap1\n  dup2\n  mstore\n  0x20\n  add\n  0x00\n  keccak256\n    /* \"https://raw.githubusercontent.com/OpenZeppelin/openzeppelin-contracts/v5.0.2/contracts/access/AccessControl.sol\":2954:2974  _roles[role].hasRole */\n  0x00\n  add\n    /* \"https://raw.githubusercontent.com/OpenZeppelin/openzeppelin-contracts/v5.0.2/contracts/access/AccessControl.sol\":2954:2983  _roles[role].hasRole[account] */\n  0x00\n    /* \"https://raw.githubusercontent.com/OpenZeppelin/openzeppelin-contracts/v5.0.2/contracts/access/AccessControl.sol\":2975:2982  account */\n  dup4\n    /* \"https://raw.githubusercontent.com/OpenZeppelin/openzeppelin-contracts/v5.0.2/contracts/access/AccessControl.sol\":2954:2983  _roles[role].hasRole[account] */\n  0xffffffffffffffffffffffffffffffffffffffff\n  and\n  0xffffffffffffffffffffffffffffffffffffffff\n  and\n  dup2\n  mstore\n  0x20\n  add\n  swap1\n  dup2\n  mstore\n  0x20\n  add\n  0x00\n  keccak256\n  0x00\n  swap1\n  sload\n  swap1\n  0x0100\n  exp\n  swap1\n  div\n  0xff\n  and\n    /* \"https://raw.githubusercontent.com/OpenZeppelin/openzeppelin-contracts/v5.0.2/contracts/access/AccessControl.sol\":2947:2983  return _roles[role].hasRole[account] */\n  swap1\n  pop\n    /* \"https://raw.githubusercontent.com/OpenZeppelin/openzeppelin-contracts/v5.0.2/contracts/access/AccessControl.sol\":2854:2990  function hasRole(bytes32 role, address account) public view virtual returns (bool) {... */\n  swap3\n  swap2\n  pop\n  pop\n  jump\t// out\n    /* \"https://raw.githubusercontent.com/OpenZeppelin/openzeppelin-contracts/v5.0.2/contracts/utils/Context.sol\":656:752  function _msgSender() internal view virtual returns (address) {... */\ntag_16:\n    /* \"https://raw.githubusercontent.com/OpenZeppelin/openzeppelin-contracts/v5.0.2/contracts/utils/Context.sol\":709:716  address */\n  0x00\n    /* \"https://raw.githubusercontent.com/OpenZeppelin/openzeppelin-contracts/v5.0.2/contracts/utils/Context.sol\":735:745  msg.sender */\n  caller\n    /* \"https://raw.githubusercontent.com/OpenZeppelin/openzeppelin-contracts/v5.0.2/contracts/utils/Context.sol\":728:745  return msg.sender */\n  swap1\n  pop\n    /* \"https://raw.githubusercontent.com/OpenZeppelin/openzeppelin-contracts/v5.0.2/contracts/utils/Context.sol\":656:752  function _msgSender() internal view virtual returns (address) {... */\n  swap1\n  jump\t// out\n    /* \"#utility.yul\":88:205   */\ntag_21:\n    /* \"#utility.yul\":197:198   */\n  0x00\n    /* \"#utility.yul\":194:195   */\n  0x00\n    /* \"#utility.yul\":187:199   */\n  revert\n    /* \"#utility.yul\":334:460   */\ntag_23:\n    /* \"#utility.yul\":371:378   */\n  0x00\n    /* \"#utility.yul\":411:453   */\n  0xffffffffffffffffffffffffffffffffffffffff\n    /* \"#utility.yul\":404:409   */\n  dup3\n    /* \"#utility.yul\":400:454   */\n  and\n    /* \"#utility.yul\":389:454   */\n  swap1\n  pop\n    /* \"#utility.yul\":334:460   */\n  swap2\n  swap1\n  pop\n  jump\t// out\n    /* \"#utility.yul\":466:562   */\ntag_24:\n    /* \"#utility.yul\":503:510   */\n  0x00\n    /* \"#utility.yul\":532:556   */\n  tag_33\n    /* \"#utility.yul\":550:555   */\n  dup3\n    /* \"#utility.yul\":532:556   */\n  tag_23\n  jump\t// in\ntag_33:\n    /* \"#utility.yul\":521:556   */\n  swap1\n  pop\n    /* \"#utility.yul\":466:562   */\n  swap2\n  swap1\n  pop\n  jump\t// out\n    /* \"#utility.yul\":568:690   */\ntag_25:\n    /* \"#utility.yul\":641:665   */\n  tag_35\n    /* \"#utility.yul\":659:664   */\n  dup2\n    /* \"#utility.yul\":641:665   */\n  tag_24\n  jump\t// in\ntag_35:\n    /* \"#utility.yul\":634:639   */\n  dup2\n    /* \"#utility.yul\":631:666   */\n  eq\n    /* \"#utility.yul\":621:684   */\n  tag_36\n  jumpi\n    /* \"#utility.yul\":680:681   */\n  0x00\n    /* \"#utility.yul\":677:678   */\n  0x00\n    /* \"#utility.yul\":670:682   */\n  revert\n    /* \"#utility.yul\":621:684   */\ntag_36:\n    /* \"#utility.yul\":568:690   */\n  pop\n  jump\t// out\n    /* \"#utility.yul\":696:839   */\ntag_26:\n    /* \"#utility.yul\":753:758   */\n  0x00\n    /* \"#utility.yul\":784:790   */\n  dup2\n    /* \"#utility.yul\":778:791   */\n  mload\n    /* \"#utility.yul\":769:791   */\n  swap1\n  pop\n    /* \"#utility.yul\":800:833   */\n  tag_38\n    /* \"#utility.yul\":827:832   */\n  dup2\n    /* \"#utility.yul\":800:833   */\n  tag_25\n  jump\t// in\ntag_38:\n    /* \"#utility.yul\":696:839   */\n  swap3\n  swap2\n  pop\n  pop\n  jump\t// out\n    /* \"#utility.yul\":845:1196   */\ntag_3:\n    /* \"#utility.yul\":915:921   */\n  0x00\n    /* \"#utility.yul\":964:966   */\n  0x20\n    /* \"#utility.yul\":952:961   */\n  dup3\n    /* \"#utility.yul\":943:950   */\n  dup5\n    /* \"#utility.yul\":939:962   */\n  sub\n    /* \"#utility.yul\":935:967   */\n  slt\n    /* \"#utility.yul\":932:1051   */\n  iszero\n  tag_40\n  jumpi\n    /* \"#utility.yul\":970:1049   */\n  tag_41\n  tag_21\n  jump\t// in\ntag_41:\n    /* \"#utility.yul\":932:1051   */\ntag_40:\n    /* \"#utility.yul\":1090:1091   */\n  0x00\n    /* \"#utility.yul\":1115:1179   */\n  tag_42\n    /* \"#utility.yul\":1171:1178   */\n  dup5\n    /* \"#utility.yul\":1162:1168   */\n  dup3\n    /* \"#utility.yul\":1151:1160   */\n  dup6\n    /* \"#utility.yul\":1147:1169   */\n  add\n    /* \"#utility.yul\":1115:1179   */\n  tag_26\n  jump\t// in\ntag_42:\n    /* \"#utility.yul\":1105:1179   */\n  swap2\n  pop\n    /* \"#utility.yul\":1061:1189   */\n  pop\n    /* \"#utility.yul\":845:1196   */\n  swap3\n  swap2\n  pop\n  pop\n  jump\t// out\n    /* \"contracts/IdentityRegistry.sol\":393:1895  contract IdentityRegistry is AccessControl {... */\ntag_10:\n  dataSize(sub_0)\n  dup1\n  dataOffset(sub_0)\n  0x00\n  codecopy\n  0x00\n  return\nstop\n\nsub_0: assembly {\n        /* \"contracts/IdentityRegistry.sol\":393:1895  contract IdentityRegistry is AccessControl {... */\n      mstore(0x40, 0x80)\n      callvalue\n      dup1\n      iszero\n      tag_1\n      jumpi\n      revert(0x00, 0x00)\n    tag_1:\n      pop\n      jumpi(tag_2, lt(calldatasize, 0x04))\n      shr(0xe0, calldataload(0x00))\n      dup1\n      0x8c0cfbb0\n      gt\n      tag_19\n      jumpi\n      dup1\n      0xb9209e33\n      gt\n      tag_20\n      jumpi\n      dup1\n      0xb9209e33\n      eq\n      tag_15\n      jumpi\n      dup1\n      0xd547741f\n      eq\n      tag_16\n      jumpi\n      dup1\n      0xdce9571f\n      eq\n      tag_17\n      jumpi\n      dup1\n      0xfe575a87\n      eq\n      tag_18\n      jumpi\n      jump(tag_2)\n    tag_20:\n      dup1\n      0x8c0cfbb0\n      eq\n      tag_11\n      jumpi\n      dup1\n      0x91d14854\n      eq\n      tag_12\n      jumpi\n      dup1\n      0x94792e8d\n      eq\n      tag_13\n      jumpi\n      dup1\n      0xa217fddf\n      eq\n      tag_14\n      jumpi\n      jump(tag_2)\n    tag_19:\n      dup1\n      0x248a9ca3\n      gt\n      tag_21\n      jumpi\n      dup1\n      0x248a9ca3\n      eq\n      tag_7\n      jumpi\n      dup1\n      0x2f2ff15d\n      eq\n      tag_8\n      jumpi\n      dup1\n      0x36568abe\n      eq\n      tag_9\n      jumpi\n      dup1\n      0x7807aeba\n      eq\n      tag_10\n      jumpi\n      jump(tag_2)\n    tag_21:\n      dup1\n      0x01ffc9a7\n      eq\n      tag_3\n      jumpi\n      dup1\n      0x02d7fd92\n      eq\n      tag_4\n      jumpi\n      dup1\n      0x05bd4970\n      eq\n      tag_5\n      jumpi\n      dup1\n      0x153b0d1e\n      eq\n      tag_6\n      jumpi\n    tag_2:\n      revert(0x00, 0x00)\n        /* \"https://raw.githubusercontent.com/OpenZeppelin/openzeppelin-contracts/v5.0.2/contracts/access/AccessControl.sol\":2565:2767  function supportsInterface(bytes4 interfaceId) public view virtual override returns (bool) {... */\n    tag_3:\n      tag_22\n      0x04\n      dup1\n      calldatasize\n      sub\n      dup2\n      add\n      swap1\n      tag_23\n      swap2\n      swap1\n      tag_24\n      jump\t// in\n    tag_23:\n      tag_25\n      jump\t// in\n    tag_22:\n      mload(0x40)\n      tag_26\n      swap2\n      swap1\n      tag_27\n      jump\t// in\n    tag_26:\n      mload(0x40)\n      dup1\n      swap2\n      sub\n      swap1\n      return\n        /* \"contracts/IdentityRegistry.sol\":442:510  bytes32 public constant KYC_ADMIN_ROLE = keccak256(\"KYC_ADMIN_ROLE\") */\n    tag_4:\n      tag_28\n      tag_29\n      jump\t// in\n    tag_28:\n      mload(0x40)\n      tag_30\n      swap2\n      swap1\n      tag_31\n      jump\t// in\n    tag_30:\n      mload(0x40)\n      dup1\n      swap2\n      sub\n      swap1\n      return\n        /* \"contracts/IdentityRegistry.sol\":842:890  mapping(address => uint8)  public investorTypeOf */\n    tag_5:\n      tag_32\n      0x04\n      dup1\n      calldatasize\n      sub\n      dup2\n      add\n      swap1\n      tag_33\n      swap2\n      swap1\n      tag_34\n      jump\t// in\n    tag_33:\n      tag_35\n      jump\t// in\n    tag_32:\n      mload(0x40)\n      tag_36\n      swap2\n      swap1\n      tag_37\n      jump\t// in\n    tag_36:\n      mload(0x40)\n      dup1\n      swap2\n      sub\n      swap1\n      return\n        /* \"contracts/IdentityRegistry.sol\":1469:1636  function setBlacklist(address user, bool ok) external onlyRole(SANCTIONS_ADMIN_ROLE) {... */\n    tag_6:\n      tag_38\n      0x04\n      dup1\n      calldatasize\n      sub\n      dup2\n      add\n      swap1\n      tag_39\n      swap2\n      swap1\n      tag_40\n      jump\t// in\n    tag_39:\n      tag_41\n      jump\t// in\n    tag_38:\n      stop\n        /* \"https://raw.githubusercontent.com/OpenZeppelin/openzeppelin-contracts/v5.0.2/contracts/access/AccessControl.sol\":3810:3930  function getRoleAdmin(bytes32 role) public view virtual returns (bytes32) {... */\n    tag_7:\n      tag_42\n      0x04\n      dup1\n      calldatasize\n      sub\n      dup2\n      add\n      swap1\n      tag_43\n      swap2\n      swap1\n      tag_44\n      jump\t// in\n    tag_43:\n      tag_45\n      jump\t// in\n    tag_42:\n      mload(0x40)\n      tag_46\n      swap2\n      swap1\n      tag_31\n      jump\t// in\n    tag_46:\n      mload(0x40)\n      dup1\n      swap2\n      sub\n      swap1\n      return\n        /* \"https://raw.githubusercontent.com/OpenZeppelin/openzeppelin-contracts/v5.0.2/contracts/access/AccessControl.sol\":4226:4362  function grantRole(bytes32 role, address account) public virtual onlyRole(getRoleAdmin(role)) {... */\n    tag_8:\n      tag_47\n      0x04\n      dup1\n      calldatasize\n      sub\n      dup2\n      add\n      swap1\n      tag_48\n      swap2\n      swap1\n      tag_49\n      jump\t// in\n    tag_48:\n      tag_50\n      jump\t// in\n    tag_47:\n      stop\n        /* \"https://raw.githubusercontent.com/OpenZeppelin/openzeppelin-contracts/v5.0.2/contracts/access/AccessControl.sol\":5328:5573  function renounceRole(bytes32 role, address callerConfirmation) public virtual {... */\n    tag_9:\n      tag_51\n      0x04\n      dup1\n      calldatasize\n      sub\n      dup2\n      add\n      swap1\n      tag_52\n      swap2\n      swap1\n      tag_49\n      jump\t// in\n    tag_52:\n      tag_53\n      jump\t// in\n    tag_51:\n      stop\n        /* \"contracts/IdentityRegistry.sol\":1317:1463  function setKyc(address user, bool ok) external onlyRole(KYC_ADMIN_ROLE) {... */\n    tag_10:\n      tag_54\n      0x04\n      dup1\n      calldatasize\n      sub\n      dup2\n      add\n      swap1\n      tag_55\n      swap2\n      swap1\n      tag_40\n      jump\t// in\n    tag_55:\n      tag_56\n      jump\t// in\n    tag_54:\n      stop\n        /* \"contracts/IdentityRegistry.sol\":516:596  bytes32 public constant SANCTIONS_ADMIN_ROLE = keccak256(\"SANCTIONS_ADMIN_ROLE\") */\n    tag_11:\n      tag_57\n      tag_58\n      jump\t// in\n    tag_57:\n      mload(0x40)\n      tag_59\n      swap2\n      swap1\n      tag_31\n      jump\t// in\n    tag_59:\n      mload(0x40)\n      dup1\n      swap2\n      sub\n      swap1\n      return\n        /* \"https://raw.githubusercontent.com/OpenZeppelin/openzeppelin-contracts/v5.0.2/contracts/access/AccessControl.sol\":2854:2990  function hasRole(bytes32 role, address account) public view virtual returns (bool) {... */\n    tag_12:\n      tag_60\n      0x04\n      dup1\n      calldatasize\n      sub\n      dup2\n      add\n      swap1\n      tag_61\n      swap2\n      swap1\n      tag_49\n      jump\t// in\n    tag_61:\n      tag_62\n      jump\t// in\n    tag_60:\n      mload(0x40)\n      tag_63\n      swap2\n      swap1\n      tag_27\n      jump\t// in\n    tag_63:\n      mload(0x40)\n      dup1\n      swap2\n      sub\n      swap1\n      return\n        /* \"contracts/IdentityRegistry.sol\":1642:1893  function setAttributes(address user, bytes2 juris, uint8 invType)... */\n    tag_13:\n      tag_64\n      0x04\n      dup1\n      calldatasize\n      sub\n      dup2\n      add\n      swap1\n      tag_65\n      swap2\n      swap1\n      tag_66\n      jump\t// in\n    tag_65:\n      tag_67\n      jump\t// in\n    tag_64:\n      stop\n        /* \"https://raw.githubusercontent.com/OpenZeppelin/openzeppelin-contracts/v5.0.2/contracts/access/AccessControl.sol\":2187:2236  bytes32 public constant DEFAULT_ADMIN_ROLE = 0x00 */\n    tag_14:\n      tag_68\n      tag_69\n      jump\t// in\n    tag_68:\n      mload(0x40)\n      tag_70\n      swap2\n      swap1\n      tag_31\n      jump\t// in\n    tag_70:\n      mload(0x40)\n      dup1\n      swap2\n      sub\n      swap1\n      return\n        /* \"contracts/IdentityRegistry.sol\":603:645  mapping(address => bool) public isVerified */\n    tag_15:\n      tag_71\n      0x04\n      dup1\n      calldatasize\n      sub\n      dup2\n      add\n      swap1\n      tag_72\n      swap2\n      swap1\n      tag_34\n      jump\t// in\n    tag_72:\n      tag_73\n      jump\t// in\n    tag_71:\n      mload(0x40)\n      tag_74\n      swap2\n      swap1\n      tag_27\n      jump\t// in\n    tag_74:\n      mload(0x40)\n      dup1\n      swap2\n      sub\n      swap1\n      return\n        /* \"https://raw.githubusercontent.com/OpenZeppelin/openzeppelin-contracts/v5.0.2/contracts/access/AccessControl.sol\":4642:4780  function revokeRole(bytes32 role, address account) public virtual onlyRole(getRoleAdmin(role)) {... */\n    tag_16:\n      tag_75\n      0x04\n      dup1\n      calldatasize\n      sub\n      dup2\n      add\n      swap1\n      tag_76\n      swap2\n      swap1\n      tag_49\n      jump\t// in\n    tag_76:\n      tag_77\n      jump\t// in\n    tag_75:\n      stop\n        /* \"contracts/IdentityRegistry.sol\":747:795  mapping(address => bytes2) public jurisdictionOf */\n    tag_17:\n      tag_78\n      0x04\n      dup1\n      calldatasize\n      sub\n      dup2\n      add\n      swap1\n      tag_79\n      swap2\n      swap1\n      tag_34\n      jump\t// in\n    tag_79:\n      tag_80\n      jump\t// in\n    tag_78:\n      mload(0x40)\n      tag_81\n      swap2\n      swap1\n      tag_82\n      jump\t// in\n    tag_81:\n      mload(0x40)\n      dup1\n      swap2\n      sub\n      swap1\n      return\n        /* \"contracts/IdentityRegistry.sol\":672:717  mapping(address => bool) public isBlacklisted */\n    tag_18:\n      tag_83\n      0x04\n      dup1\n      calldatasize\n      sub\n      dup2\n      add\n      swap1\n      tag_84\n      swap2\n      swap1\n      tag_34\n      jump\t// in\n    tag_84:\n      tag_85\n      jump\t// in\n    tag_83:\n      mload(0x40)\n      tag_86\n      swap2\n      swap1\n      tag_27\n      jump\t// in\n    tag_86:\n      mload(0x40)\n      dup1\n      swap2\n      sub\n      swap1\n      return\n        /* \"https://raw.githubusercontent.com/OpenZeppelin/openzeppelin-contracts/v5.0.2/contracts/access/AccessControl.sol\":2565:2767  function supportsInterface(bytes4 interfaceId) public view virtual override returns (bool) {... */\n    tag_25:\n        /* \"https://raw.githubusercontent.com/OpenZeppelin/openzeppelin-contracts/v5.0.2/contracts/access/AccessControl.sol\":2650:2654  bool */\n      0x00\n        /* \"https://raw.githubusercontent.com/OpenZeppelin/openzeppelin-contracts/v5.0.2/contracts/access/AccessControl.sol\":2688:2720  type(IAccessControl).interfaceId */\n      0x7965db0b00000000000000000000000000000000000000000000000000000000\n        /* \"https://raw.githubusercontent.com/OpenZeppelin/openzeppelin-contracts/v5.0.2/contracts/access/AccessControl.sol\":2673:2720  interfaceId == type(IAccessControl).interfaceId */\n      not(0xffffffffffffffffffffffffffffffffffffffffffffffffffffffff)\n      and\n        /* \"https://raw.githubusercontent.com/OpenZeppelin/openzeppelin-contracts/v5.0.2/contracts/access/AccessControl.sol\":2673:2684  interfaceId */\n      dup3\n        /* \"https://raw.githubusercontent.com/OpenZeppelin/openzeppelin-contracts/v5.0.2/contracts/access/AccessControl.sol\":2673:2720  interfaceId == type(IAccessControl).interfaceId */\n      not(0xffffffffffffffffffffffffffffffffffffffffffffffffffffffff)\n      and\n      eq\n        /* \"https://raw.githubusercontent.com/OpenZeppelin/openzeppelin-contracts/v5.0.2/contracts/access/AccessControl.sol\":2673:2760  interfaceId == type(IAccessControl).interfaceId || super.supportsInterface(interfaceId) */\n      dup1\n      tag_88\n      jumpi\n      pop\n        /* \"https://raw.githubusercontent.com/OpenZeppelin/openzeppelin-contracts/v5.0.2/contracts/access/AccessControl.sol\":2724:2760  super.supportsInterface(interfaceId) */\n      tag_89\n        /* \"https://raw.githubusercontent.com/OpenZeppelin/openzeppelin-contracts/v5.0.2/contracts/access/AccessControl.sol\":2748:2759  interfaceId */\n      dup3\n        /* \"https://raw.githubusercontent.com/OpenZeppelin/openzeppelin-contracts/v5.0.2/contracts/access/AccessControl.sol\":2724:2747  super.supportsInterface */\n      tag_90\n        /* \"https://raw.githubusercontent.com/OpenZeppelin/openzeppelin-contracts/v5.0.2/contracts/access/AccessControl.sol\":2724:2760  super.supportsInterface(interfaceId) */\n      jump\t// in\n    tag_89:\n        /* \"https://raw.githubusercontent.com/OpenZeppelin/openzeppelin-contracts/v5.0.2/contracts/access/AccessControl.sol\":2673:2760  interfaceId == type(IAccessControl).interfaceId || super.supportsInterface(interfaceId) */\n    tag_88:\n        /* \"https://raw.githubusercontent.com/OpenZeppelin/openzeppelin-contracts/v5.0.2/contracts/access/AccessControl.sol\":2666:2760  return interfaceId == type(IAccessControl).interfaceId || super.supportsInterface(interfaceId) */\n      swap1\n      pop\n        /* \"https://raw.githubusercontent.com/OpenZeppelin/openzeppelin-contracts/v5.0.2/contracts/access/AccessControl.sol\":2565:2767  function supportsInterface(bytes4 interfaceId) public view virtual override returns (bool) {... */\n      swap2\n      swap1\n      pop\n      jump\t// out\n        /* \"contracts/IdentityRegistry.sol\":442:510  bytes32 public constant KYC_ADMIN_ROLE = keccak256(\"KYC_ADMIN_ROLE\") */\n    tag_29:\n        /* \"contracts/IdentityRegistry.sol\":483:510  keccak256(\"KYC_ADMIN_ROLE\") */\n      0x811427a0fa4932aef534bba16bc34e9b7b2d7d2a79c475fca1765f6cc1faebea\n        /* \"contracts/IdentityRegistry.sol\":442:510  bytes32 public constant KYC_ADMIN_ROLE = keccak256(\"KYC_ADMIN_ROLE\") */\n      dup2\n      jump\t// out\n        /* \"contracts/IdentityRegistry.sol\":842:890  mapping(address => uint8)  public investorTypeOf */\n    tag_35:\n      mstore(0x20, 0x04)\n      dup1\n      0x00\n      mstore\n      keccak256(0x00, 0x40)\n      0x00\n      swap2\n      pop\n      sload\n      swap1\n      0x0100\n      exp\n      swap1\n      div\n      0xff\n      and\n      dup2\n      jump\t// out\n        /* \"contracts/IdentityRegistry.sol\":1469:1636  function setBlacklist(address user, bool ok) external onlyRole(SANCTIONS_ADMIN_ROLE) {... */\n    tag_41:\n        /* \"contracts/IdentityRegistry.sol\":563:596  keccak256(\"SANCTIONS_ADMIN_ROLE\") */\n      0x120f974a3b1c46838e58df88a957752089d3bff8b65f144f94c1b4b52c456b72\n        /* \"https://raw.githubusercontent.com/OpenZeppelin/openzeppelin-contracts/v5.0.2/contracts/access/AccessControl.sol\":2464:2480  _checkRole(role) */\n      tag_92\n        /* \"https://raw.githubusercontent.com/OpenZeppelin/openzeppelin-contracts/v5.0.2/contracts/access/AccessControl.sol\":2475:2479  role */\n      dup2\n        /* \"https://raw.githubusercontent.com/OpenZeppelin/openzeppelin-contracts/v5.0.2/contracts/access/AccessControl.sol\":2464:2474  _checkRole */\n      tag_93\n        /* \"https://raw.githubusercontent.com/OpenZeppelin/openzeppelin-contracts/v5.0.2/contracts/access/AccessControl.sol\":2464:2480  _checkRole(role) */\n      jump\t// in\n    tag_92:\n        /* \"contracts/IdentityRegistry.sol\":1586:1588  ok */\n      dup2\n        /* \"contracts/IdentityRegistry.sol\":1564:1577  isBlacklisted */\n      0x02\n        /* \"contracts/IdentityRegistry.sol\":1564:1583  isBlacklisted[user] */\n      0x00\n        /* \"contracts/IdentityRegistry.sol\":1578:1582  user */\n      dup6\n        /* \"contracts/IdentityRegistry.sol\":1564:1583  isBlacklisted[user] */\n      0xffffffffffffffffffffffffffffffffffffffff\n      and\n      0xffffffffffffffffffffffffffffffffffffffff\n      and\n      dup2\n      mstore\n      0x20\n      add\n      swap1\n      dup2\n      mstore\n      0x20\n      add\n      0x00\n      keccak256\n      0x00\n        /* \"contracts/IdentityRegistry.sol\":1564:1588  isBlacklisted[user] = ok */\n      0x0100\n      exp\n      dup2\n      sload\n      dup2\n      0xff\n      mul\n      not\n      and\n      swap1\n      dup4\n      iszero\n      iszero\n      mul\n      or\n      swap1\n      sstore\n      pop\n        /* \"contracts/IdentityRegistry.sol\":1620:1624  user */\n      dup3\n        /* \"contracts/IdentityRegistry.sol\":1603:1629  BlacklistUpdated(user, ok) */\n      0xffffffffffffffffffffffffffffffffffffffff\n      and\n      0x6a12b3df6cba4203bd7fd06b816789f87de8c594299aed5717ae070fac781bac\n        /* \"contracts/IdentityRegistry.sol\":1626:1628  ok */\n      dup4\n        /* \"contracts/IdentityRegistry.sol\":1603:1629  BlacklistUpdated(user, ok) */\n      mload(0x40)\n      tag_95\n      swap2\n      swap1\n      tag_27\n      jump\t// in\n    tag_95:\n      mload(0x40)\n      dup1\n      swap2\n      sub\n      swap1\n      log2\n        /* \"contracts/IdentityRegistry.sol\":1469:1636  function setBlacklist(address user, bool ok) external onlyRole(SANCTIONS_ADMIN_ROLE) {... */\n      pop\n      pop\n      pop\n      jump\t// out\n        /* \"https://raw.githubusercontent.com/OpenZeppelin/openzeppelin-contracts/v5.0.2/contracts/access/AccessControl.sol\":3810:3930  function getRoleAdmin(bytes32 role) public view virtual returns (bytes32) {... */\n    tag_45:\n        /* \"https://raw.githubusercontent.com/OpenZeppelin/openzeppelin-contracts/v5.0.2/contracts/access/AccessControl.sol\":3875:3882  bytes32 */\n      0x00\n        /* \"https://raw.githubusercontent.com/OpenZeppelin/openzeppelin-contracts/v5.0.2/contracts/access/AccessControl.sol\":3901:3907  _roles */\n      0x00\n        /* \"https://raw.githubusercontent.com/OpenZeppelin/openzeppelin-contracts/v5.0.2/contracts/access/AccessControl.sol\":3901:3913  _roles[role] */\n      0x00\n        /* \"https://raw.githubusercontent.com/OpenZeppelin/openzeppelin-contracts/v5.0.2/contracts/access/AccessControl.sol\":3908:3912  role */\n      dup4\n        /* \"https://raw.githubusercontent.com/OpenZeppelin/openzeppelin-contracts/v5.0.2/contracts/access/AccessControl.sol\":3901:3913  _roles[role] */\n      dup2\n      mstore\n      0x20\n      add\n      swap1\n      dup2\n      mstore\n      0x20\n      add\n      0x00\n      keccak256\n        /* \"https://raw.githubusercontent.com/OpenZeppelin/openzeppelin-contracts/v5.0.2/contracts/access/AccessControl.sol\":3901:3923  _roles[role].adminRole */\n      0x01\n      add\n      sload\n        /* \"https://raw.githubusercontent.com/OpenZeppelin/openzeppelin-contracts/v5.0.2/contracts/access/AccessControl.sol\":3894:3923  return _roles[role].adminRole */\n      swap1\n      pop\n        /* \"https://raw.githubusercontent.com/OpenZeppelin/openzeppelin-contracts/v5.0.2/contracts/access/AccessControl.sol\":3810:3930  function getRoleAdmin(bytes32 role) public view virtual returns (bytes32) {... */\n      swap2\n      swap1\n      pop\n      jump\t// out\n        /* \"https://raw.githubusercontent.com/OpenZeppelin/openzeppelin-contracts/v5.0.2/contracts/access/AccessControl.sol\":4226:4362  function grantRole(bytes32 role, address account) public virtual onlyRole(getRoleAdmin(role)) {... */\n    tag_50:\n        /* \"https://raw.githubusercontent.com/OpenZeppelin/openzeppelin-contracts/v5.0.2/contracts/access/AccessControl.sol\":4300:4318  getRoleAdmin(role) */\n      tag_97\n        /* \"https://raw.githubusercontent.com/OpenZeppelin/openzeppelin-contracts/v5.0.2/contracts/access/AccessControl.sol\":4313:4317  role */\n      dup3\n        /* \"https://raw.githubusercontent.com/OpenZeppelin/openzeppelin-contracts/v5.0.2/contracts/access/AccessControl.sol\":4300:4312  getRoleAdmin */\n      tag_45\n        /* \"https://raw.githubusercontent.com/OpenZeppelin/openzeppelin-contracts/v5.0.2/contracts/access/AccessControl.sol\":4300:4318  getRoleAdmin(role) */\n      jump\t// in\n    tag_97:\n        /* \"https://raw.githubusercontent.com/OpenZeppelin/openzeppelin-contracts/v5.0.2/contracts/access/AccessControl.sol\":2464:2480  _checkRole(role) */\n      tag_99\n        /* \"https://raw.githubusercontent.com/OpenZeppelin/openzeppelin-contracts/v5.0.2/contracts/access/AccessControl.sol\":2475:2479  role */\n      dup2\n        /* \"https://raw.githubusercontent.com/OpenZeppelin/openzeppelin-contracts/v5.0.2/contracts/access/AccessControl.sol\":2464:2474  _checkRole */\n      tag_93\n        /* \"https://raw.githubusercontent.com/OpenZeppelin/openzeppelin-contracts/v5.0.2/contracts/access/AccessControl.sol\":2464:2480  _checkRole(role) */\n      jump\t// in\n    tag_99:\n        /* \"https://raw.githubusercontent.com/OpenZeppelin/openzeppelin-contracts/v5.0.2/contracts/access/AccessControl.sol\":4330:4355  _grantRole(role, account) */\n      tag_101\n        /* \"https://raw.githubusercontent.com/OpenZeppelin/openzeppelin-contracts/v5.0.2/contracts/access/AccessControl.sol\":4341:4345  role */\n      dup4\n        /* \"https://raw.githubusercontent.com/OpenZeppelin/openzeppelin-contracts/v5.0.2/contracts/access/AccessControl.sol\":4347:4354  account */\n      dup4\n        /* \"https://raw.githubusercontent.com/OpenZeppelin/openzeppelin-contracts/v5.0.2/contracts/access/AccessControl.sol\":4330:4340  _grantRole */\n      tag_102\n        /* \"https://raw.githubusercontent.com/OpenZeppelin/openzeppelin-contracts/v5.0.2/contracts/access/AccessControl.sol\":4330:4355  _grantRole(role, account) */\n      jump\t// in\n    tag_101:\n      pop\n        /* \"https://raw.githubusercontent.com/OpenZeppelin/openzeppelin-contracts/v5.0.2/contracts/access/AccessControl.sol\":4226:4362  function grantRole(bytes32 role, address account) public virtual onlyRole(getRoleAdmin(role)) {... */\n      pop\n      pop\n      pop\n      jump\t// out\n        /* \"https://raw.githubusercontent.com/OpenZeppelin/openzeppelin-contracts/v5.0.2/contracts/access/AccessControl.sol\":5328:5573  function renounceRole(bytes32 role, address callerConfirmation) public virtual {... */\n    tag_53:\n        /* \"https://raw.githubusercontent.com/OpenZeppelin/openzeppelin-contracts/v5.0.2/contracts/access/AccessControl.sol\":5443:5455  _msgSender() */\n      tag_104\n        /* \"https://raw.githubusercontent.com/OpenZeppelin/openzeppelin-contracts/v5.0.2/contracts/access/AccessControl.sol\":5443:5453  _msgSender */\n      tag_105\n        /* \"https://raw.githubusercontent.com/OpenZeppelin/openzeppelin-contracts/v5.0.2/contracts/access/AccessControl.sol\":5443:5455  _msgSender() */\n      jump\t// in\n    tag_104:\n        /* \"https://raw.githubusercontent.com/OpenZeppelin/openzeppelin-contracts/v5.0.2/contracts/access/AccessControl.sol\":5421:5455  callerConfirmation != _msgSender() */\n      0xffffffffffffffffffffffffffffffffffffffff\n      and\n        /* \"https://raw.githubusercontent.com/OpenZeppelin/openzeppelin-contracts/v5.0.2/contracts/access/AccessControl.sol\":5421:5439  callerConfirmation */\n      dup2\n        /* \"https://raw.githubusercontent.com/OpenZeppelin/openzeppelin-contracts/v5.0.2/contracts/access/AccessControl.sol\":5421:5455  callerConfirmation != _msgSender() */\n      0xffffffffffffffffffffffffffffffffffffffff\n      and\n      eq\n        /* \"https://raw.githubusercontent.com/OpenZeppelin/openzeppelin-contracts/v5.0.2/contracts/access/AccessControl.sol\":5417:5519  if (callerConfirmation != _msgSender()) {... */\n      tag_106\n      jumpi\n        /* \"https://raw.githubusercontent.com/OpenZeppelin/openzeppelin-contracts/v5.0.2/contracts/access/AccessControl.sol\":5478:5508  AccessControlBadConfirmation() */\n      mload(0x40)\n      0x6697b23200000000000000000000000000000000000000000000000000000000\n      dup2\n      mstore\n      0x04\n      add\n      mload(0x40)\n      dup1\n      swap2\n      sub\n      swap1\n      revert\n        /* \"https://raw.githubusercontent.com/OpenZeppelin/openzeppelin-contracts/v5.0.2/contracts/access/AccessControl.sol\":5417:5519  if (callerConfirmation != _msgSender()) {... */\n    tag_106:\n        /* \"https://raw.githubusercontent.com/OpenZeppelin/openzeppelin-contracts/v5.0.2/contracts/access/AccessControl.sol\":5529:5566  _revokeRole(role, callerConfirmation) */\n      tag_107\n        /* \"https://raw.githubusercontent.com/OpenZeppelin/openzeppelin-contracts/v5.0.2/contracts/access/AccessControl.sol\":5541:5545  role */\n      dup3\n        /* \"https://raw.githubusercontent.com/OpenZeppelin/openzeppelin-contracts/v5.0.2/contracts/access/AccessControl.sol\":5547:5565  callerConfirmation */\n      dup3\n        /* \"https://raw.githubusercontent.com/OpenZeppelin/openzeppelin-contracts/v5.0.2/contracts/access/AccessControl.sol\":5529:5540  _revokeRole */\n      tag_108\n        /* \"https://raw.githubusercontent.com/OpenZeppelin/openzeppelin-contracts/v5.0.2/contracts/access/AccessControl.sol\":5529:5566  _revokeRole(role, callerConfirmation) */\n      jump\t// in\n    tag_107:\n      pop\n        /* \"https://raw.githubusercontent.com/OpenZeppelin/openzeppelin-contracts/v5.0.2/contracts/access/AccessControl.sol\":5328:5573  function renounceRole(bytes32 role, address callerConfirmation) public virtual {... */\n      pop\n      pop\n      jump\t// out\n        /* \"contracts/IdentityRegistry.sol\":1317:1463  function setKyc(address user, bool ok) external onlyRole(KYC_ADMIN_ROLE) {... */\n    tag_56:\n        /* \"contracts/IdentityRegistry.sol\":483:510  keccak256(\"KYC_ADMIN_ROLE\") */\n      0x811427a0fa4932aef534bba16bc34e9b7b2d7d2a79c475fca1765f6cc1faebea\n        /* \"https://raw.githubusercontent.com/OpenZeppelin/openzeppelin-contracts/v5.0.2/contracts/access/AccessControl.sol\":2464:2480  _checkRole(role) */\n      tag_110\n        /* \"https://raw.githubusercontent.com/OpenZeppelin/openzeppelin-contracts/v5.0.2/contracts/access/AccessControl.sol\":2475:2479  role */\n      dup2\n        /* \"https://raw.githubusercontent.com/OpenZeppelin/openzeppelin-contracts/v5.0.2/contracts/access/AccessControl.sol\":2464:2474  _checkRole */\n      tag_93\n        /* \"https://raw.githubusercontent.com/OpenZeppelin/openzeppelin-contracts/v5.0.2/contracts/access/AccessControl.sol\":2464:2480  _checkRole(role) */\n      jump\t// in\n    tag_110:\n        /* \"contracts/IdentityRegistry.sol\":1419:1421  ok */\n      dup2\n        /* \"contracts/IdentityRegistry.sol\":1400:1410  isVerified */\n      0x01\n        /* \"contracts/IdentityRegistry.sol\":1400:1416  isVerified[user] */\n      0x00\n        /* \"contracts/IdentityRegistry.sol\":1411:1415  user */\n      dup6\n        /* \"contracts/IdentityRegistry.sol\":1400:1416  isVerified[user] */\n      0xffffffffffffffffffffffffffffffffffffffff\n      and\n      0xffffffffffffffffffffffffffffffffffffffff\n      and\n      dup2\n      mstore\n      0x20\n      add\n      swap1\n      dup2\n      mstore\n      0x20\n      add\n      0x00\n      keccak256\n      0x00\n        /* \"contracts/IdentityRegistry.sol\":1400:1421  isVerified[user] = ok */\n      0x0100\n      exp\n      dup2\n      sload\n      dup2\n      0xff\n      mul\n      not\n      and\n      swap1\n      dup4\n      iszero\n      iszero\n      mul\n      or\n      swap1\n      sstore\n      pop\n        /* \"contracts/IdentityRegistry.sol\":1447:1451  user */\n      dup3\n        /* \"contracts/IdentityRegistry.sol\":1436:1456  KycUpdated(user, ok) */\n      0xffffffffffffffffffffffffffffffffffffffff\n      and\n      0xc060d8add9e7b6a84ecb7f29b08e239fad2c56c4f609dec6c17ab68d8655fe7d\n        /* \"contracts/IdentityRegistry.sol\":1453:1455  ok */\n      dup4\n        /* \"contracts/IdentityRegistry.sol\":1436:1456  KycUpdated(user, ok) */\n      mload(0x40)\n      tag_112\n      swap2\n      swap1\n      tag_27\n      jump\t// in\n    tag_112:\n      mload(0x40)\n      dup1\n      swap2\n      sub\n      swap1\n      log2\n        /* \"contracts/IdentityRegistry.sol\":1317:1463  function setKyc(address user, bool ok) external onlyRole(KYC_ADMIN_ROLE) {... */\n      pop\n      pop\n      pop\n      jump\t// out\n        /* \"contracts/IdentityRegistry.sol\":516:596  bytes32 public constant SANCTIONS_ADMIN_ROLE = keccak256(\"SANCTIONS_ADMIN_ROLE\") */\n    tag_58:\n        /* \"contracts/IdentityRegistry.sol\":563:596  keccak256(\"SANCTIONS_ADMIN_ROLE\") */\n      0x120f974a3b1c46838e58df88a957752089d3bff8b65f144f94c1b4b52c456b72\n        /* \"contracts/IdentityRegistry.sol\":516:596  bytes32 public constant SANCTIONS_ADMIN_ROLE = keccak256(\"SANCTIONS_ADMIN_ROLE\") */\n      dup2\n      jump\t// out\n        /* \"https://raw.githubusercontent.com/OpenZeppelin/openzeppelin-contracts/v5.0.2/contracts/access/AccessControl.sol\":2854:2990  function hasRole(bytes32 role, address account) public view virtual returns (bool) {... */\n    tag_62:\n        /* \"https://raw.githubusercontent.com/OpenZeppelin/openzeppelin-contracts/v5.0.2/contracts/access/AccessControl.sol\":2931:2935  bool */\n      0x00\n        /* \"https://raw.githubusercontent.com/OpenZeppelin/openzeppelin-contracts/v5.0.2/contracts/access/AccessControl.sol\":2954:2960  _roles */\n      0x00\n        /* \"https://raw.githubusercontent.com/OpenZeppelin/openzeppelin-contracts/v5.0.2/contracts/access/AccessControl.sol\":2954:2966  _roles[role] */\n      0x00\n        /* \"https://raw.githubusercontent.com/OpenZeppelin/openzeppelin-contracts/v5.0.2/contracts/access/AccessControl.sol\":2961:2965  role */\n      dup5\n        /* \"https://raw.githubusercontent.com/OpenZeppelin/openzeppelin-contracts/v5.0.2/contracts/access/AccessControl.sol\":2954:2966  _roles[role] */\n      dup2\n      mstore\n      0x20\n      add\n      swap1\n      dup2\n      mstore\n      0x20\n      add\n      0x00\n      keccak256\n        /* \"https://raw.githubusercontent.com/OpenZeppelin/openzeppelin-contracts/v5.0.2/contracts/access/AccessControl.sol\":2954:2974  _roles[role].hasRole */\n      0x00\n      add\n        /* \"https://raw.githubusercontent.com/OpenZeppelin/openzeppelin-contracts/v5.0.2/contracts/access/AccessControl.sol\":2954:2983  _roles[role].hasRole[account] */\n      0x00\n        /* \"https://raw.githubusercontent.com/OpenZeppelin/openzeppelin-contracts/v5.0.2/contracts/access/AccessControl.sol\":2975:2982  account */\n      dup4\n        /* \"https://raw.githubusercontent.com/OpenZeppelin/openzeppelin-contracts/v5.0.2/contracts/access/AccessControl.sol\":2954:2983  _roles[role].hasRole[account] */\n      0xffffffffffffffffffffffffffffffffffffffff\n      and\n      0xffffffffffffffffffffffffffffffffffffffff\n      and\n      dup2\n      mstore\n      0x20\n      add\n      swap1\n      dup2\n      mstore\n      0x20\n      add\n      0x00\n      keccak256\n      0x00\n      swap1\n      sload\n      swap1\n      0x0100\n      exp\n      swap1\n      div\n      0xff\n      and\n        /* \"https://raw.githubusercontent.com/OpenZeppelin/openzeppelin-contracts/v5.0.2/contracts/access/AccessControl.sol\":2947:2983  return _roles[role].hasRole[account] */\n      swap1\n      pop\n        /* \"https://raw.githubusercontent.com/OpenZeppelin/openzeppelin-contracts/v5.0.2/contracts/access/AccessControl.sol\":2854:2990  function hasRole(bytes32 role, address account) public view virtual returns (bool) {... */\n      swap3\n      swap2\n      pop\n      pop\n      jump\t// out\n        /* \"contracts/IdentityRegistry.sol\":1642:1893  function setAttributes(address user, bytes2 juris, uint8 invType)... */\n    tag_67:\n        /* \"contracts/IdentityRegistry.sol\":483:510  keccak256(\"KYC_ADMIN_ROLE\") */\n      0x811427a0fa4932aef534bba16bc34e9b7b2d7d2a79c475fca1765f6cc1faebea\n        /* \"https://raw.githubusercontent.com/OpenZeppelin/openzeppelin-contracts/v5.0.2/contracts/access/AccessControl.sol\":2464:2480  _checkRole(role) */\n      tag_115\n        /* \"https://raw.githubusercontent.com/OpenZeppelin/openzeppelin-contracts/v5.0.2/contracts/access/AccessControl.sol\":2475:2479  role */\n      dup2\n        /* \"https://raw.githubusercontent.com/OpenZeppelin/openzeppelin-contracts/v5.0.2/contracts/access/AccessControl.sol\":2464:2474  _checkRole */\n      tag_93\n        /* \"https://raw.githubusercontent.com/OpenZeppelin/openzeppelin-contracts/v5.0.2/contracts/access/AccessControl.sol\":2464:2480  _checkRole(role) */\n      jump\t// in\n    tag_115:\n        /* \"contracts/IdentityRegistry.sol\":1787:1792  juris */\n      dup3\n        /* \"contracts/IdentityRegistry.sol\":1764:1778  jurisdictionOf */\n      0x03\n        /* \"contracts/IdentityRegistry.sol\":1764:1784  jurisdictionOf[user] */\n      0x00\n        /* \"contracts/IdentityRegistry.sol\":1779:1783  user */\n      dup7\n        /* \"contracts/IdentityRegistry.sol\":1764:1784  jurisdictionOf[user] */\n      0xffffffffffffffffffffffffffffffffffffffff\n      and\n      0xffffffffffffffffffffffffffffffffffffffff\n      and\n      dup2\n      mstore\n      0x20\n      add\n      swap1\n      dup2\n      mstore\n      0x20\n      add\n      0x00\n      keccak256\n      0x00\n        /* \"contracts/IdentityRegistry.sol\":1764:1792  jurisdictionOf[user] = juris */\n      0x0100\n      exp\n      dup2\n      sload\n      dup2\n      0xffff\n      mul\n      not\n      and\n      swap1\n      dup4\n      0xf0\n      shr\n      mul\n      or\n      swap1\n      sstore\n      pop\n        /* \"contracts/IdentityRegistry.sol\":1825:1832  invType */\n      dup2\n        /* \"contracts/IdentityRegistry.sol\":1802:1816  investorTypeOf */\n      0x04\n        /* \"contracts/IdentityRegistry.sol\":1802:1822  investorTypeOf[user] */\n      0x00\n        /* \"contracts/IdentityRegistry.sol\":1817:1821  user */\n      dup7\n        /* \"contracts/IdentityRegistry.sol\":1802:1822  investorTypeOf[user] */\n      0xffffffffffffffffffffffffffffffffffffffff\n      and\n      0xffffffffffffffffffffffffffffffffffffffff\n      and\n      dup2\n      mstore\n      0x20\n      add\n      swap1\n      dup2\n      mstore\n      0x20\n      add\n      0x00\n      keccak256\n      0x00\n        /* \"contracts/IdentityRegistry.sol\":1802:1832  investorTypeOf[user] = invType */\n      0x0100\n      exp\n      dup2\n      sload\n      dup2\n      0xff\n      mul\n      not\n      and\n      swap1\n      dup4\n      0xff\n      and\n      mul\n      or\n      swap1\n      sstore\n      pop\n        /* \"contracts/IdentityRegistry.sol\":1865:1869  user */\n      dup4\n        /* \"contracts/IdentityRegistry.sol\":1847:1886  AttributesUpdated(user, juris, invType) */\n      0xffffffffffffffffffffffffffffffffffffffff\n      and\n      0xa09be255173b26f6e7520d96ef6279415258e6eea9b9295a29a448c4f81dab74\n        /* \"contracts/IdentityRegistry.sol\":1871:1876  juris */\n      dup5\n        /* \"contracts/IdentityRegistry.sol\":1878:1885  invType */\n      dup5\n        /* \"contracts/IdentityRegistry.sol\":1847:1886  AttributesUpdated(user, juris, invType) */\n      mload(0x40)\n      tag_117\n      swap3\n      swap2\n      swap1\n      tag_118\n      jump\t// in\n    tag_117:\n      mload(0x40)\n      dup1\n      swap2\n      sub\n      swap1\n      log2\n        /* \"contracts/IdentityRegistry.sol\":1642:1893  function setAttributes(address user, bytes2 juris, uint8 invType)... */\n      pop\n      pop\n      pop\n      pop\n      jump\t// out\n        /* \"https://raw.githubusercontent.com/OpenZeppelin/openzeppelin-contracts/v5.0.2/contracts/access/AccessControl.sol\":2187:2236  bytes32 public constant DEFAULT_ADMIN_ROLE = 0x00 */\n    tag_69:\n        /* \"https://raw.githubusercontent.com/OpenZeppelin/openzeppelin-contracts/v5.0.2/contracts/access/AccessControl.sol\":2232:2236  0x00 */\n      0x00\n        /* \"https://raw.githubusercontent.com/OpenZeppelin/openzeppelin-contracts/v5.0.2/contracts/access/AccessControl.sol\":2187:2236  bytes32 public constant DEFAULT_ADMIN_ROLE = 0x00 */\n      0x00\n      shl\n      dup2\n      jump\t// out\n        /* \"contracts/IdentityRegistry.sol\":603:645  mapping(address => bool) public isVerified */\n    tag_73:\n      mstore(0x20, 0x01)\n      dup1\n      0x00\n      mstore\n      keccak256(0x00, 0x40)\n      0x00\n      swap2\n      pop\n      sload\n      swap1\n      0x0100\n      exp\n      swap1\n      div\n      0xff\n      and\n      dup2\n      jump\t// out\n        /* \"https://raw.githubusercontent.com/OpenZeppelin/openzeppelin-contracts/v5.0.2/contracts/access/AccessControl.sol\":4642:4780  function revokeRole(bytes32 role, address account) public virtual onlyRole(getRoleAdmin(role)) {... */\n    tag_77:\n        /* \"https://raw.githubusercontent.com/OpenZeppelin/openzeppelin-contracts/v5.0.2/contracts/access/AccessControl.sol\":4717:4735  getRoleAdmin(role) */\n      tag_119\n        /* \"https://raw.githubusercontent.com/OpenZeppelin/openzeppelin-contracts/v5.0.2/contracts/access/AccessControl.sol\":4730:4734  role */\n      dup3\n        /* \"https://raw.githubusercontent.com/OpenZeppelin/openzeppelin-contracts/v5.0.2/contracts/access/AccessControl.sol\":4717:4729  getRoleAdmin */\n      tag_45\n        /* \"https://raw.githubusercontent.com/OpenZeppelin/openzeppelin-contracts/v5.0.2/contracts/access/AccessControl.sol\":4717:4735  getRoleAdmin(role) */\n      jump\t// in\n    tag_119:\n        /* \"https://raw.githubusercontent.com/OpenZeppelin/openzeppelin-contracts/v5.0.2/contracts/access/AccessControl.sol\":2464:2480  _checkRole(role) */\n      tag_121\n        /* \"https://raw.githubusercontent.com/OpenZeppelin/openzeppelin-contracts/v5.0.2/contracts/access/AccessControl.sol\":2475:2479  role */\n      dup2\n        /* \"https://raw.githubusercontent.com/OpenZeppelin/openzeppelin-contracts/v5.0.2/contracts/access/AccessControl.sol\":2464:2474  _checkRole */\n      tag_93\n        /* \"https://raw.githubusercontent.com/OpenZeppelin/openzeppelin-contracts/v5.0.2/contracts/access/AccessControl.sol\":2464:2480  _checkRole(role) */\n      jump\t// in\n    tag_121:\n        /* \"https://raw.githubusercontent.com/OpenZeppelin/openzeppelin-contracts/v5.0.2/contracts/access/AccessControl.sol\":4747:4773  _revokeRole(role, account) */\n      tag_123\n        /* \"https://raw.githubusercontent.com/OpenZeppelin/openzeppelin-contracts/v5.0.2/contracts/access/AccessControl.sol\":4759:4763  role */\n      dup4\n        /* \"https://raw.githubusercontent.com/OpenZeppelin/openzeppelin-contracts/v5.0.2/contracts/access/AccessControl.sol\":4765:4772  account */\n      dup4\n        /* \"https://raw.githubusercontent.com/OpenZeppelin/openzeppelin-contracts/v5.0.2/contracts/access/AccessControl.sol\":4747:4758  _revokeRole */\n      tag_108\n        /* \"https://raw.githubusercontent.com/OpenZeppelin/openzeppelin-contracts/v5.0.2/contracts/access/AccessControl.sol\":4747:4773  _revokeRole(role, account) */\n      jump\t// in\n    tag_123:\n      pop\n        /* \"https://raw.githubusercontent.com/OpenZeppelin/openzeppelin-contracts/v5.0.2/contracts/access/AccessControl.sol\":4642:4780  function revokeRole(bytes32 role, address account) public virtual onlyRole(getRoleAdmin(role)) {... */\n      pop\n      pop\n      pop\n      jump\t// out\n        /* \"contracts/IdentityRegistry.sol\":747:795  mapping(address => bytes2) public jurisdictionOf */\n    tag_80:\n      mstore(0x20, 0x03)\n      dup1\n      0x00\n      mstore\n      keccak256(0x00, 0x40)\n      0x00\n      swap2\n      pop\n      sload\n      swap1\n      0x0100\n      exp\n      swap1\n      div\n      0xf0\n      shl\n      dup2\n      jump\t// out\n        /* \"contracts/IdentityRegistry.sol\":672:717  mapping(address => bool) public isBlacklisted */\n    tag_85:\n      mstore(0x20, 0x02)\n      dup1\n      0x00\n      mstore\n      keccak256(0x00, 0x40)\n      0x00\n      swap2\n      pop\n      sload\n      swap1\n      0x0100\n      exp\n      swap1\n      div\n      0xff\n      and\n      dup2\n      jump\t// out\n        /* \"https://raw.githubusercontent.com/OpenZeppelin/openzeppelin-contracts/v5.0.2/contracts/utils/introspection/ERC165.sol\":762:908  function supportsInterface(bytes4 interfaceId) public view virtual returns (bool) {... */\n    tag_90:\n        /* \"https://raw.githubusercontent.com/OpenZeppelin/openzeppelin-contracts/v5.0.2/contracts/utils/introspection/ERC165.sol\":838:842  bool */\n      0x00\n        /* \"https://raw.githubusercontent.com/OpenZeppelin/openzeppelin-contracts/v5.0.2/contracts/utils/introspection/ERC165.sol\":876:901  type(IERC165).interfaceId */\n      0x01ffc9a700000000000000000000000000000000000000000000000000000000\n        /* \"https://raw.githubusercontent.com/OpenZeppelin/openzeppelin-contracts/v5.0.2/contracts/utils/introspection/ERC165.sol\":861:901  interfaceId == type(IERC165).interfaceId */\n      not(0xffffffffffffffffffffffffffffffffffffffffffffffffffffffff)\n      and\n        /* \"https://raw.githubusercontent.com/OpenZeppelin/openzeppelin-contracts/v5.0.2/contracts/utils/introspection/ERC165.sol\":861:872  interfaceId */\n      dup3\n        /* \"https://raw.githubusercontent.com/OpenZeppelin/openzeppelin-contracts/v5.0.2/contracts/utils/introspection/ERC165.sol\":861:901  interfaceId == type(IERC165).interfaceId */\n      not(0xffffffffffffffffffffffffffffffffffffffffffffffffffffffff)\n      and\n      eq\n        /* \"https://raw.githubusercontent.com/OpenZeppelin/openzeppelin-contracts/v5.0.2/contracts/utils/introspection/ERC165.sol\":854:901  return interfaceId == type(IERC165).interfaceId */\n      swap1\n      pop\n        /* \"https://raw.githubusercontent.com/OpenZeppelin/openzeppelin-contracts/v5.0.2/contracts/utils/introspection/ERC165.sol\":762:908  function supportsInterface(bytes4 interfaceId) public view virtual returns (bool) {... */\n      swap2\n      swap1\n      pop\n      jump\t// out\n        /* \"https://raw.githubusercontent.com/OpenZeppelin/openzeppelin-contracts/v5.0.2/contracts/access/AccessControl.sol\":3199:3302  function _checkRole(bytes32 role) internal view virtual {... */\n    tag_93:\n        /* \"https://raw.githubusercontent.com/OpenZeppelin/openzeppelin-contracts/v5.0.2/contracts/access/AccessControl.sol\":3265:3295  _checkRole(role, _msgSender()) */\n      tag_126\n        /* \"https://raw.githubusercontent.com/OpenZeppelin/openzeppelin-contracts/v5.0.2/contracts/access/AccessControl.sol\":3276:3280  role */\n      dup2\n        /* \"https://raw.githubusercontent.com/OpenZeppelin/openzeppelin-contracts/v5.0.2/contracts/access/AccessControl.sol\":3282:3294  _msgSender() */\n      tag_127\n        /* \"https://raw.githubusercontent.com/OpenZeppelin/openzeppelin-contracts/v5.0.2/contracts/access/AccessControl.sol\":3282:3292  _msgSender */\n      tag_105\n        /* \"https://raw.githubusercontent.com/OpenZeppelin/openzeppelin-contracts/v5.0.2/contracts/access/AccessControl.sol\":3282:3294  _msgSender() */\n      jump\t// in\n    tag_127:\n        /* \"https://raw.githubusercontent.com/OpenZeppelin/openzeppelin-contracts/v5.0.2/contracts/access/AccessControl.sol\":3265:3275  _checkRole */\n      tag_128\n        /* \"https://raw.githubusercontent.com/OpenZeppelin/openzeppelin-contracts/v5.0.2/contracts/access/AccessControl.sol\":3265:3295  _checkRole(role, _msgSender()) */\n      jump\t// in\n    tag_126:\n        /* \"https://raw.githubusercontent.com/OpenZeppelin/openzeppelin-contracts/v5.0.2/contracts/access/AccessControl.sol\":3199:3302  function _checkRole(bytes32 role) internal view virtual {... */\n      pop\n      jump\t// out\n        /* \"https://raw.githubusercontent.com/OpenZeppelin/openzeppelin-contracts/v5.0.2/contracts/access/AccessControl.sol\":6179:6495  function _grantRole(bytes32 role, address account) internal virtual returns (bool) {... */\n    tag_102:\n        /* \"https://raw.githubusercontent.com/OpenZeppelin/openzeppelin-contracts/v5.0.2/contracts/access/AccessControl.sol\":6256:6260  bool */\n      0x00\n        /* \"https://raw.githubusercontent.com/OpenZeppelin/openzeppelin-contracts/v5.0.2/contracts/access/AccessControl.sol\":6277:6299  hasRole(role, account) */\n      tag_130\n        /* \"https://raw.githubusercontent.com/OpenZeppelin/openzeppelin-contracts/v5.0.2/contracts/access/AccessControl.sol\":6285:6289  role */\n      dup4\n        /* \"https://raw.githubusercontent.com/OpenZeppelin/openzeppelin-contracts/v5.0.2/contracts/access/AccessControl.sol\":6291:6298  account */\n      dup4\n        /* \"https://raw.githubusercontent.com/OpenZeppelin/openzeppelin-contracts/v5.0.2/contracts/access/AccessControl.sol\":6277:6284  hasRole */\n      tag_62\n        /* \"https://raw.githubusercontent.com/OpenZeppelin/openzeppelin-contracts/v5.0.2/contracts/access/AccessControl.sol\":6277:6299  hasRole(role, account) */\n      jump\t// in\n    tag_130:\n        /* \"https://raw.githubusercontent.com/OpenZeppelin/openzeppelin-contracts/v5.0.2/contracts/access/AccessControl.sol\":6272:6489  if (!hasRole(role, account)) {... */\n      tag_131\n      jumpi\n        /* \"https://raw.githubusercontent.com/OpenZeppelin/openzeppelin-contracts/v5.0.2/contracts/access/AccessControl.sol\":6347:6351  true */\n      0x01\n        /* \"https://raw.githubusercontent.com/OpenZeppelin/openzeppelin-contracts/v5.0.2/contracts/access/AccessControl.sol\":6315:6321  _roles */\n      0x00\n        /* \"https://raw.githubusercontent.com/OpenZeppelin/openzeppelin-contracts/v5.0.2/contracts/access/AccessControl.sol\":6315:6327  _roles[role] */\n      0x00\n        /* \"https://raw.githubusercontent.com/OpenZeppelin/openzeppelin-contracts/v5.0.2/contracts/access/AccessControl.sol\":6322:6326  role */\n      dup6\n        /* \"https://raw.githubusercontent.com/OpenZeppelin/openzeppelin-contracts/v5.0.2/contracts/access/AccessControl.sol\":6315:6327  _roles[role] */\n      dup2\n      mstore\n      0x20\n      add\n      swap1\n      dup2\n      mstore\n      0x20\n      add\n      0x00\n      keccak256\n        /* \"https://raw.githubusercontent.com/OpenZeppelin/openzeppelin-contracts/v5.0.2/contracts/access/AccessControl.sol\":6315:6335  _roles[role].hasRole */\n      0x00\n      add\n        /* \"https://raw.githubusercontent.com/OpenZeppelin/openzeppelin-contracts/v5.0.2/contracts/access/AccessControl.sol\":6315:6344  _roles[role].hasRole[account] */\n      0x00\n        /* \"https://raw.githubusercontent.com/OpenZeppelin/openzeppelin-contracts/v5.0.2/contracts/access/AccessControl.sol\":6336:6343  account */\n      dup5\n        /* \"https://raw.githubusercontent.com/OpenZeppelin/openzeppelin-contracts/v5.0.2/contracts/access/AccessControl.sol\":6315:6344  _roles[role].hasRole[account] */\n      0xffffffffffffffffffffffffffffffffffffffff\n      and\n      0xffffffffffffffffffffffffffffffffffffffff\n      and\n      dup2\n      mstore\n      0x20\n      add\n      swap1\n      dup2\n      mstore\n      0x20\n      add\n      0x00\n      keccak256\n      0x00\n        /* \"https://raw.githubusercontent.com/OpenZeppelin/openzeppelin-contracts/v5.0.2/contracts/access/AccessControl.sol\":6315:6351  _roles[role].hasRole[account] = true */\n      0x0100\n      exp\n      dup2\n      sload\n      dup2\n      0xff\n      mul\n      not\n      and\n      swap1\n      dup4\n      iszero\n      iszero\n      mul\n      or\n      swap1\n      sstore\n      pop\n        /* \"https://raw.githubusercontent.com/OpenZeppelin/openzeppelin-contracts/v5.0.2/contracts/access/AccessControl.sol\":6397:6409  _msgSender() */\n      tag_132\n        /* \"https://raw.githubusercontent.com/OpenZeppelin/openzeppelin-contracts/v5.0.2/contracts/access/AccessControl.sol\":6397:6407  _msgSender */\n      tag_105\n        /* \"https://raw.githubusercontent.com/OpenZeppelin/openzeppelin-contracts/v5.0.2/contracts/access/AccessControl.sol\":6397:6409  _msgSender() */\n      jump\t// in\n    tag_132:\n        /* \"https://raw.githubusercontent.com/OpenZeppelin/openzeppelin-contracts/v5.0.2/contracts/access/AccessControl.sol\":6370:6410  RoleGranted(role, account, _msgSender()) */\n      0xffffffffffffffffffffffffffffffffffffffff\n      and\n        /* \"https://raw.githubusercontent.com/OpenZeppelin/openzeppelin-contracts/v5.0.2/contracts/access/AccessControl.sol\":6388:6395  account */\n      dup3\n        /* \"https://raw.githubusercontent.com/OpenZeppelin/openzeppelin-contracts/v5.0.2/contracts/access/AccessControl.sol\":6370:6410  RoleGranted(role, account, _msgSender()) */\n      0xffffffffffffffffffffffffffffffffffffffff\n      and\n        /* \"https://raw.githubusercontent.com/OpenZeppelin/openzeppelin-contracts/v5.0.2/contracts/access/AccessControl.sol\":6382:6386  role */\n      dup5\n        /* \"https://raw.githubusercontent.com/OpenZeppelin/openzeppelin-contracts/v5.0.2/contracts/access/AccessControl.sol\":6370:6410  RoleGranted(role, account, _msgSender()) */\n      0x2f8788117e7eff1d82e926ec794901d17c78024a50270940304540a733656f0d\n      mload(0x40)\n      mload(0x40)\n      dup1\n      swap2\n      sub\n      swap1\n      log4\n        /* \"https://raw.githubusercontent.com/OpenZeppelin/openzeppelin-contracts/v5.0.2/contracts/access/AccessControl.sol\":6431:6435  true */\n      0x01\n        /* \"https://raw.githubusercontent.com/OpenZeppelin/openzeppelin-contracts/v5.0.2/contracts/access/AccessControl.sol\":6424:6435  return true */\n      swap1\n      pop\n      jump(tag_129)\n        /* \"https://raw.githubusercontent.com/OpenZeppelin/openzeppelin-contracts/v5.0.2/contracts/access/AccessControl.sol\":6272:6489  if (!hasRole(role, account)) {... */\n    tag_131:\n        /* \"https://raw.githubusercontent.com/OpenZeppelin/openzeppelin-contracts/v5.0.2/contracts/access/AccessControl.sol\":6473:6478  false */\n      0x00\n        /* \"https://raw.githubusercontent.com/OpenZeppelin/openzeppelin-contracts/v5.0.2/contracts/access/AccessControl.sol\":6466:6478  return false */\n      swap1\n      pop\n        /* \"https://raw.githubusercontent.com/OpenZeppelin/openzeppelin-contracts/v5.0.2/contracts/access/AccessControl.sol\":6179:6495  function _grantRole(bytes32 role, address account) internal virtual returns (bool) {... */\n    tag_129:\n      swap3\n      swap2\n      pop\n      pop\n      jump\t// out\n        /* \"https://raw.githubusercontent.com/OpenZeppelin/openzeppelin-contracts/v5.0.2/contracts/utils/Context.sol\":656:752  function _msgSender() internal view virtual returns (address) {... */\n    tag_105:\n        /* \"https://raw.githubusercontent.com/OpenZeppelin/openzeppelin-contracts/v5.0.2/contracts/utils/Context.sol\":709:716  address */\n      0x00\n        /* \"https://raw.githubusercontent.com/OpenZeppelin/openzeppelin-contracts/v5.0.2/contracts/utils/Context.sol\":735:745  msg.sender */\n      caller\n        /* \"https://raw.githubusercontent.com/OpenZeppelin/openzeppelin-contracts/v5.0.2/contracts/utils/Context.sol\":728:745  return msg.sender */\n      swap1\n      pop\n        /* \"https://raw.githubusercontent.com/OpenZeppelin/openzeppelin-contracts/v5.0.2/contracts/utils/Context.sol\":656:752  function _msgSender() internal view virtual returns (address) {... */\n      swap1\n      jump\t// out\n        /* \"https://raw.githubusercontent.com/OpenZeppelin/openzeppelin-contracts/v5.0.2/contracts/access/AccessControl.sol\":6730:7047  function _revokeRole(bytes32 role, address account) internal virtual returns (bool) {... */\n    tag_108:\n        /* \"https://raw.githubusercontent.com/OpenZeppelin/openzeppelin-contracts/v5.0.2/contracts/access/AccessControl.sol\":6808:6812  bool */\n      0x00\n        /* \"https://raw.githubusercontent.com/OpenZeppelin/openzeppelin-contracts/v5.0.2/contracts/access/AccessControl.sol\":6828:6850  hasRole(role, account) */\n      tag_136\n        /* \"https://raw.githubusercontent.com/OpenZeppelin/openzeppelin-contracts/v5.0.2/contracts/access/AccessControl.sol\":6836:6840  role */\n      dup4\n        /* \"https://raw.githubusercontent.com/OpenZeppelin/openzeppelin-contracts/v5.0.2/contracts/access/AccessControl.sol\":6842:6849  account */\n      dup4\n        /* \"https://raw.githubusercontent.com/OpenZeppelin/openzeppelin-contracts/v5.0.2/contracts/access/AccessControl.sol\":6828:6835  hasRole */\n      tag_62\n        /* \"https://raw.githubusercontent.com/OpenZeppelin/openzeppelin-contracts/v5.0.2/contracts/access/AccessControl.sol\":6828:6850  hasRole(role, account) */\n      jump\t// in\n    tag_136:\n        /* \"https://raw.githubusercontent.com/OpenZeppelin/openzeppelin-contracts/v5.0.2/contracts/access/AccessControl.sol\":6824:7041  if (hasRole(role, account)) {... */\n      iszero\n      tag_137\n      jumpi\n        /* \"https://raw.githubusercontent.com/OpenZeppelin/openzeppelin-contracts/v5.0.2/contracts/access/AccessControl.sol\":6898:6903  false */\n      0x00\n        /* \"https://raw.githubusercontent.com/OpenZeppelin/openzeppelin-contracts/v5.0.2/contracts/access/AccessControl.sol\":6866:6872  _roles */\n      0x00\n        /* \"https://raw.githubusercontent.com/OpenZeppelin/openzeppelin-contracts/v5.0.2/contracts/access/AccessControl.sol\":6866:6878  _roles[role] */\n      0x00\n        /* \"https://raw.githubusercontent.com/OpenZeppelin/openzeppelin-contracts/v5.0.2/contracts/access/AccessControl.sol\":6873:6877  role */\n      dup6\n        /* \"https://raw.githubusercontent.com/OpenZeppelin/openzeppelin-contracts/v5.0.2/contracts/access/AccessControl.sol\":6866:6878  _roles[role] */\n      dup2\n      mstore\n      0x20\n      add\n      swap1\n      dup2\n      mstore\n      0x20\n      add\n      0x00\n      keccak256\n        /* \"https://raw.githubusercontent.com/OpenZeppelin/openzeppelin-contracts/v5.0.2/contracts/access/AccessControl.sol\":6866:6886  _roles[role].hasRole */\n      0x00\n      add\n        /* \"https://raw.githubusercontent.com/OpenZeppelin/openzeppelin-contracts/v5.0.2/contracts/access/AccessControl.sol\":6866:6895  _roles[role].hasRole[account] */\n      0x00\n        /* \"https://raw.githubusercontent.com/OpenZeppelin/openzeppelin-contracts/v5.0.2/contracts/access/AccessControl.sol\":6887:6894  account */\n      dup5\n        /* \"https://raw.githubusercontent.com/OpenZeppelin/openzeppelin-contracts/v5.0.2/contracts/access/AccessControl.sol\":6866:6895  _roles[role].hasRole[account] */\n      0xffffffffffffffffffffffffffffffffffffffff\n      and\n      0xffffffffffffffffffffffffffffffffffffffff\n      and\n      dup2\n      mstore\n      0x20\n      add\n      swap1\n      dup2\n      mstore\n      0x20\n      add\n      0x00\n      keccak256\n      0x00\n        /* \"https://raw.githubusercontent.com/OpenZeppelin/openzeppelin-contracts/v5.0.2/contracts/access/AccessControl.sol\":6866:6903  _roles[role].hasRole[account] = false */\n      0x0100\n      exp\n      dup2\n      sload\n      dup2\n      0xff\n      mul\n      not\n      and\n      swap1\n      dup4\n      iszero\n      iszero\n      mul\n      or\n      swap1\n      sstore\n      pop\n        /* \"https://raw.githubusercontent.com/OpenZeppelin/openzeppelin-contracts/v5.0.2/contracts/access/AccessControl.sol\":6949:6961  _msgSender() */\n      tag_138\n        /* \"https://raw.githubusercontent.com/OpenZeppelin/openzeppelin-contracts/v5.0.2/contracts/access/AccessControl.sol\":6949:6959  _msgSender */\n      tag_105\n        /* \"https://raw.githubusercontent.com/OpenZeppelin/openzeppelin-contracts/v5.0.2/contracts/access/AccessControl.sol\":6949:6961  _msgSender() */\n      jump\t// in\n    tag_138:\n        /* \"https://raw.githubusercontent.com/OpenZeppelin/openzeppelin-contracts/v5.0.2/contracts/access/AccessControl.sol\":6922:6962  RoleRevoked(role, account, _msgSender()) */\n      0xffffffffffffffffffffffffffffffffffffffff\n      and\n        /* \"https://raw.githubusercontent.com/OpenZeppelin/openzeppelin-contracts/v5.0.2/contracts/access/AccessControl.sol\":6940:6947  account */\n      dup3\n        /* \"https://raw.githubusercontent.com/OpenZeppelin/openzeppelin-contracts/v5.0.2/contracts/access/AccessControl.sol\":6922:6962  RoleRevoked(role, account, _msgSender()) */\n      0xffffffffffffffffffffffffffffffffffffffff\n      and\n        /* \"https://raw.githubusercontent.com/OpenZeppelin/openzeppelin-contracts/v5.0.2/contracts/access/AccessControl.sol\":6934:6938  role */\n      dup5\n        /* \"https://raw.githubusercontent.com/OpenZeppelin/openzeppelin-contracts/v5.0.2/contracts/access/AccessControl.sol\":6922:6962  RoleRevoked(role, account, _msgSender()) */\n      0xf6391f5c32d9c69d2a47ea670b442974b53935d1edc7fd64eb21e047a839171b\n      mload(0x40)\n      mload(0x40)\n      dup1\n      swap2\n      sub\n      swap1\n      log4\n        /* \"https://raw.githubusercontent.com/OpenZeppelin/openzeppelin-contracts/v5.0.2/contracts/access/AccessControl.sol\":6983:6987  true */\n      0x01\n        /* \"https://raw.githubusercontent.com/OpenZeppelin/openzeppelin-contracts/v5.0.2/contracts/access/AccessControl.sol\":6976:6987  return true */\n      swap1\n      pop\n      jump(tag_135)\n        /* \"https://raw.githubusercontent.com/OpenZeppelin/openzeppelin-contracts/v5.0.2/contracts/access/AccessControl.sol\":6824:7041  if (hasRole(role, account)) {... */\n    tag_137:\n        /* \"https://raw.githubusercontent.com/OpenZeppelin/openzeppelin-contracts/v5.0.2/contracts/access/AccessControl.sol\":7025:7030  false */\n      0x00\n        /* \"https://raw.githubusercontent.com/OpenZeppelin/openzeppelin-contracts/v5.0.2/contracts/access/AccessControl.sol\":7018:7030  return false */\n      swap1\n      pop\n        /* \"https://raw.githubusercontent.com/OpenZeppelin/openzeppelin-contracts/v5.0.2/contracts/access/AccessControl.sol\":6730:7047  function _revokeRole(bytes32 role, address account) internal virtual returns (bool) {... */\n    tag_135:\n      swap3\n      swap2\n      pop\n      pop\n      jump\t// out\n        /* \"https://raw.githubusercontent.com/OpenZeppelin/openzeppelin-contracts/v5.0.2/contracts/access/AccessControl.sol\":3432:3629  function _checkRole(bytes32 role, address account) internal view virtual {... */\n    tag_128:\n        /* \"https://raw.githubusercontent.com/OpenZeppelin/openzeppelin-contracts/v5.0.2/contracts/access/AccessControl.sol\":3520:3542  hasRole(role, account) */\n      tag_141\n        /* \"https://raw.githubusercontent.com/OpenZeppelin/openzeppelin-contracts/v5.0.2/contracts/access/AccessControl.sol\":3528:3532  role */\n      dup3\n        /* \"https://raw.githubusercontent.com/OpenZeppelin/openzeppelin-contracts/v5.0.2/contracts/access/AccessControl.sol\":3534:3541  account */\n      dup3\n        /* \"https://raw.githubusercontent.com/OpenZeppelin/openzeppelin-contracts/v5.0.2/contracts/access/AccessControl.sol\":3520:3527  hasRole */\n      tag_62\n        /* \"https://raw.githubusercontent.com/OpenZeppelin/openzeppelin-contracts/v5.0.2/contracts/access/AccessControl.sol\":3520:3542  hasRole(role, account) */\n      jump\t// in\n    tag_141:\n        /* \"https://raw.githubusercontent.com/OpenZeppelin/openzeppelin-contracts/v5.0.2/contracts/access/AccessControl.sol\":3515:3623  if (!hasRole(role, account)) {... */\n      tag_142\n      jumpi\n        /* \"https://raw.githubusercontent.com/OpenZeppelin/openzeppelin-contracts/v5.0.2/contracts/access/AccessControl.sol\":3598:3605  account */\n      dup1\n        /* \"https://raw.githubusercontent.com/OpenZeppelin/openzeppelin-contracts/v5.0.2/contracts/access/AccessControl.sol\":3607:3611  role */\n      dup3\n        /* \"https://raw.githubusercontent.com/OpenZeppelin/openzeppelin-contracts/v5.0.2/contracts/access/AccessControl.sol\":3565:3612  AccessControlUnauthorizedAccount(account, role) */\n      mload(0x40)\n      0xe2517d3f00000000000000000000000000000000000000000000000000000000\n      dup2\n      mstore\n      0x04\n      add\n      tag_143\n      swap3\n      swap2\n      swap1\n      tag_144\n      jump\t// in\n    tag_143:\n      mload(0x40)\n      dup1\n      swap2\n      sub\n      swap1\n      revert\n        /* \"https://raw.githubusercontent.com/OpenZeppelin/openzeppelin-contracts/v5.0.2/contracts/access/AccessControl.sol\":3515:3623  if (!hasRole(role, account)) {... */\n    tag_142:\n        /* \"https://raw.githubusercontent.com/OpenZeppelin/openzeppelin-contracts/v5.0.2/contracts/access/AccessControl.sol\":3432:3629  function _checkRole(bytes32 role, address account) internal view virtual {... */\n      pop\n      pop\n      jump\t// out\n        /* \"#utility.yul\":88:205   */\n    tag_146:\n        /* \"#utility.yul\":197:198   */\n      0x00\n        /* \"#utility.yul\":194:195   */\n      0x00\n        /* \"#utility.yul\":187:199   */\n      revert\n        /* \"#utility.yul\":334:483   */\n    tag_148:\n        /* \"#utility.yul\":370:377   */\n      0x00\n        /* \"#utility.yul\":410:476   */\n      0xffffffff00000000000000000000000000000000000000000000000000000000\n        /* \"#utility.yul\":403:408   */\n      dup3\n        /* \"#utility.yul\":399:477   */\n      and\n        /* \"#utility.yul\":388:477   */\n      swap1\n      pop\n        /* \"#utility.yul\":334:483   */\n      swap2\n      swap1\n      pop\n      jump\t// out\n        /* \"#utility.yul\":489:609   */\n    tag_149:\n        /* \"#utility.yul\":561:584   */\n      tag_178\n        /* \"#utility.yul\":578:583   */\n      dup2\n        /* \"#utility.yul\":561:584   */\n      tag_148\n      jump\t// in\n    tag_178:\n        /* \"#utility.yul\":554:559   */\n      dup2\n        /* \"#utility.yul\":551:585   */\n      eq\n        /* \"#utility.yul\":541:603   */\n      tag_179\n      jumpi\n        /* \"#utility.yul\":599:600   */\n      0x00\n        /* \"#utility.yul\":596:597   */\n      0x00\n        /* \"#utility.yul\":589:601   */\n      revert\n        /* \"#utility.yul\":541:603   */\n    tag_179:\n        /* \"#utility.yul\":489:609   */\n      pop\n      jump\t// out\n        /* \"#utility.yul\":615:752   */\n    tag_150:\n        /* \"#utility.yul\":660:665   */\n      0x00\n        /* \"#utility.yul\":698:704   */\n      dup2\n        /* \"#utility.yul\":685:705   */\n      calldataload\n        /* \"#utility.yul\":676:705   */\n      swap1\n      pop\n        /* \"#utility.yul\":714:746   */\n      tag_181\n        /* \"#utility.yul\":740:745   */\n      dup2\n        /* \"#utility.yul\":714:746   */\n      tag_149\n      jump\t// in\n    tag_181:\n        /* \"#utility.yul\":615:752   */\n      swap3\n      swap2\n      pop\n      pop\n      jump\t// out\n        /* \"#utility.yul\":758:1085   */\n    tag_24:\n        /* \"#utility.yul\":816:822   */\n      0x00\n        /* \"#utility.yul\":865:867   */\n      0x20\n        /* \"#utility.yul\":853:862   */\n      dup3\n        /* \"#utility.yul\":844:851   */\n      dup5\n        /* \"#utility.yul\":840:863   */\n      sub\n        /* \"#utility.yul\":836:868   */\n      slt\n        /* \"#utility.yul\":833:952   */\n      iszero\n      tag_183\n      jumpi\n        /* \"#utility.yul\":871:950   */\n      tag_184\n      tag_146\n      jump\t// in\n    tag_184:\n        /* \"#utility.yul\":833:952   */\n    tag_183:\n        /* \"#utility.yul\":991:992   */\n      0x00\n        /* \"#utility.yul\":1016:1068   */\n      tag_185\n        /* \"#utility.yul\":1060:1067   */\n      dup5\n        /* \"#utility.yul\":1051:1057   */\n      dup3\n        /* \"#utility.yul\":1040:1049   */\n      dup6\n        /* \"#utility.yul\":1036:1058   */\n      add\n        /* \"#utility.yul\":1016:1068   */\n      tag_150\n      jump\t// in\n    tag_185:\n        /* \"#utility.yul\":1006:1068   */\n      swap2\n      pop\n        /* \"#utility.yul\":962:1078   */\n      pop\n        /* \"#utility.yul\":758:1085   */\n      swap3\n      swap2\n      pop\n      pop\n      jump\t// out\n        /* \"#utility.yul\":1091:1181   */\n    tag_151:\n        /* \"#utility.yul\":1125:1132   */\n      0x00\n        /* \"#utility.yul\":1168:1173   */\n      dup2\n        /* \"#utility.yul\":1161:1174   */\n      iszero\n        /* \"#utility.yul\":1154:1175   */\n      iszero\n        /* \"#utility.yul\":1143:1175   */\n      swap1\n      pop\n        /* \"#utility.yul\":1091:1181   */\n      swap2\n      swap1\n      pop\n      jump\t// out\n        /* \"#utility.yul\":1187:1296   */\n    tag_152:\n        /* \"#utility.yul\":1268:1289   */\n      tag_188\n        /* \"#utility.yul\":1283:1288   */\n      dup2\n        /* \"#utility.yul\":1268:1289   */\n      tag_151\n      jump\t// in\n    tag_188:\n        /* \"#utility.yul\":1263:1266   */\n      dup3\n        /* \"#utility.yul\":1256:1290   */\n      mstore\n        /* \"#utility.yul\":1187:1296   */\n      pop\n      pop\n      jump\t// out\n        /* \"#utility.yul\":1302:1512   */\n    tag_27:\n        /* \"#utility.yul\":1389:1393   */\n      0x00\n        /* \"#utility.yul\":1427:1429   */\n      0x20\n        /* \"#utility.yul\":1416:1425   */\n      dup3\n        /* \"#utility.yul\":1412:1430   */\n      add\n        /* \"#utility.yul\":1404:1430   */\n      swap1\n      pop\n        /* \"#utility.yul\":1440:1505   */\n      tag_190\n        /* \"#utility.yul\":1502:1503   */\n      0x00\n        /* \"#utility.yul\":1491:1500   */\n      dup4\n        /* \"#utility.yul\":1487:1504   */\n      add\n        /* \"#utility.yul\":1478:1484   */\n      dup5\n        /* \"#utility.yul\":1440:1505   */\n      tag_152\n      jump\t// in\n    tag_190:\n        /* \"#utility.yul\":1302:1512   */\n      swap3\n      swap2\n      pop\n      pop\n      jump\t// out\n        /* \"#utility.yul\":1518:1595   */\n    tag_153:\n        /* \"#utility.yul\":1555:1562   */\n      0x00\n        /* \"#utility.yul\":1584:1589   */\n      dup2\n        /* \"#utility.yul\":1573:1589   */\n      swap1\n      pop\n        /* \"#utility.yul\":1518:1595   */\n      swap2\n      swap1\n      pop\n      jump\t// out\n        /* \"#utility.yul\":1601:1719   */\n    tag_154:\n        /* \"#utility.yul\":1688:1712   */\n      tag_193\n        /* \"#utility.yul\":1706:1711   */\n      dup2\n        /* \"#utility.yul\":1688:1712   */\n      tag_153\n      jump\t// in\n    tag_193:\n        /* \"#utility.yul\":1683:1686   */\n      dup3\n        /* \"#utility.yul\":1676:1713   */\n      mstore\n        /* \"#utility.yul\":1601:1719   */\n      pop\n      pop\n      jump\t// out\n        /* \"#utility.yul\":1725:1947   */\n    tag_31:\n        /* \"#utility.yul\":1818:1822   */\n      0x00\n        /* \"#utility.yul\":1856:1858   */\n      0x20\n        /* \"#utility.yul\":1845:1854   */\n      dup3\n        /* \"#utility.yul\":1841:1859   */\n      add\n        /* \"#utility.yul\":1833:1859   */\n      swap1\n      pop\n        /* \"#utility.yul\":1869:1940   */\n      tag_195\n        /* \"#utility.yul\":1937:1938   */\n      0x00\n        /* \"#utility.yul\":1926:1935   */\n      dup4\n        /* \"#utility.yul\":1922:1939   */\n      add\n        /* \"#utility.yul\":1913:1919   */\n      dup5\n        /* \"#utility.yul\":1869:1940   */\n      tag_154\n      jump\t// in\n    tag_195:\n        /* \"#utility.yul\":1725:1947   */\n      swap3\n      swap2\n      pop\n      pop\n      jump\t// out\n        /* \"#utility.yul\":1953:2079   */\n    tag_155:\n        /* \"#utility.yul\":1990:1997   */\n      0x00\n        /* \"#utility.yul\":2030:2072   */\n      0xffffffffffffffffffffffffffffffffffffffff\n        /* \"#utility.yul\":2023:2028   */\n      dup3\n        /* \"#utility.yul\":2019:2073   */\n      and\n        /* \"#utility.yul\":2008:2073   */\n      swap1\n      pop\n        /* \"#utility.yul\":1953:2079   */\n      swap2\n      swap1\n      pop\n      jump\t// out\n        /* \"#utility.yul\":2085:2181   */\n    tag_156:\n        /* \"#utility.yul\":2122:2129   */\n      0x00\n        /* \"#utility.yul\":2151:2175   */\n      tag_198\n        /* \"#utility.yul\":2169:2174   */\n      dup3\n        /* \"#utility.yul\":2151:2175   */\n      tag_155\n      jump\t// in\n    tag_198:\n        /* \"#utility.yul\":2140:2175   */\n      swap1\n      pop\n        /* \"#utility.yul\":2085:2181   */\n      swap2\n      swap1\n      pop\n      jump\t// out\n        /* \"#utility.yul\":2187:2309   */\n    tag_157:\n        /* \"#utility.yul\":2260:2284   */\n      tag_200\n        /* \"#utility.yul\":2278:2283   */\n      dup2\n        /* \"#utility.yul\":2260:2284   */\n      tag_156\n      jump\t// in\n    tag_200:\n        /* \"#utility.yul\":2253:2258   */\n      dup2\n        /* \"#utility.yul\":2250:2285   */\n      eq\n        /* \"#utility.yul\":2240:2303   */\n      tag_201\n      jumpi\n        /* \"#utility.yul\":2299:2300   */\n      0x00\n        /* \"#utility.yul\":2296:2297   */\n      0x00\n        /* \"#utility.yul\":2289:2301   */\n      revert\n        /* \"#utility.yul\":2240:2303   */\n    tag_201:\n        /* \"#utility.yul\":2187:2309   */\n      pop\n      jump\t// out\n        /* \"#utility.yul\":2315:2454   */\n    tag_158:\n        /* \"#utility.yul\":2361:2366   */\n      0x00\n        /* \"#utility.yul\":2399:2405   */\n      dup2\n        /* \"#utility.yul\":2386:2406   */\n      calldataload\n        /* \"#utility.yul\":2377:2406   */\n      swap1\n      pop\n        /* \"#utility.yul\":2415:2448   */\n      tag_203\n        /* \"#utility.yul\":2442:2447   */\n      dup2\n        /* \"#utility.yul\":2415:2448   */\n      tag_157\n      jump\t// in\n    tag_203:\n        /* \"#utility.yul\":2315:2454   */\n      swap3\n      swap2\n      pop\n      pop\n      jump\t// out\n        /* \"#utility.yul\":2460:2789   */\n    tag_34:\n        /* \"#utility.yul\":2519:2525   */\n      0x00\n        /* \"#utility.yul\":2568:2570   */\n      0x20\n        /* \"#utility.yul\":2556:2565   */\n      dup3\n        /* \"#utility.yul\":2547:2554   */\n      dup5\n        /* \"#utility.yul\":2543:2566   */\n      sub\n        /* \"#utility.yul\":2539:2571   */\n      slt\n        /* \"#utility.yul\":2536:2655   */\n      iszero\n      tag_205\n      jumpi\n        /* \"#utility.yul\":2574:2653   */\n      tag_206\n      tag_146\n      jump\t// in\n    tag_206:\n        /* \"#utility.yul\":2536:2655   */\n    tag_205:\n        /* \"#utility.yul\":2694:2695   */\n      0x00\n        /* \"#utility.yul\":2719:2772   */\n      tag_207\n        /* \"#utility.yul\":2764:2771   */\n      dup5\n        /* \"#utility.yul\":2755:2761   */\n      dup3\n        /* \"#utility.yul\":2744:2753   */\n      dup6\n        /* \"#utility.yul\":2740:2762   */\n      add\n        /* \"#utility.yul\":2719:2772   */\n      tag_158\n      jump\t// in\n    tag_207:\n        /* \"#utility.yul\":2709:2772   */\n      swap2\n      pop\n        /* \"#utility.yul\":2665:2782   */\n      pop\n        /* \"#utility.yul\":2460:2789   */\n      swap3\n      swap2\n      pop\n      pop\n      jump\t// out\n        /* \"#utility.yul\":2795:2881   */\n    tag_159:\n        /* \"#utility.yul\":2830:2837   */\n      0x00\n        /* \"#utility.yul\":2870:2874   */\n      0xff\n        /* \"#utility.yul\":2863:2868   */\n      dup3\n        /* \"#utility.yul\":2859:2875   */\n      and\n        /* \"#utility.yul\":2848:2875   */\n      swap1\n      pop\n        /* \"#utility.yul\":2795:2881   */\n      swap2\n      swap1\n      pop\n      jump\t// out\n        /* \"#utility.yul\":2887:2999   */\n    tag_160:\n        /* \"#utility.yul\":2970:2992   */\n      tag_210\n        /* \"#utility.yul\":2986:2991   */\n      dup2\n        /* \"#utility.yul\":2970:2992   */\n      tag_159\n      jump\t// in\n    tag_210:\n        /* \"#utility.yul\":2965:2968   */\n      dup3\n        /* \"#utility.yul\":2958:2993   */\n      mstore\n        /* \"#utility.yul\":2887:2999   */\n      pop\n      pop\n      jump\t// out\n        /* \"#utility.yul\":3005:3219   */\n    tag_37:\n        /* \"#utility.yul\":3094:3098   */\n      0x00\n        /* \"#utility.yul\":3132:3134   */\n      0x20\n        /* \"#utility.yul\":3121:3130   */\n      dup3\n        /* \"#utility.yul\":3117:3135   */\n      add\n        /* \"#utility.yul\":3109:3135   */\n      swap1\n      pop\n        /* \"#utility.yul\":3145:3212   */\n      tag_212\n        /* \"#utility.yul\":3209:3210   */\n      0x00\n        /* \"#utility.yul\":3198:3207   */\n      dup4\n        /* \"#utility.yul\":3194:3211   */\n      add\n        /* \"#utility.yul\":3185:3191   */\n      dup5\n        /* \"#utility.yul\":3145:3212   */\n      tag_160\n      jump\t// in\n    tag_212:\n        /* \"#utility.yul\":3005:3219   */\n      swap3\n      swap2\n      pop\n      pop\n      jump\t// out\n        /* \"#utility.yul\":3225:3341   */\n    tag_161:\n        /* \"#utility.yul\":3295:3316   */\n      tag_214\n        /* \"#utility.yul\":3310:3315   */\n      dup2\n        /* \"#utility.yul\":3295:3316   */\n      tag_151\n      jump\t// in\n    tag_214:\n        /* \"#utility.yul\":3288:3293   */\n      dup2\n        /* \"#utility.yul\":3285:3317   */\n      eq\n        /* \"#utility.yul\":3275:3335   */\n      tag_215\n      jumpi\n        /* \"#utility.yul\":3331:3332   */\n      0x00\n        /* \"#utility.yul\":3328:3329   */\n      0x00\n        /* \"#utility.yul\":3321:3333   */\n      revert\n        /* \"#utility.yul\":3275:3335   */\n    tag_215:\n        /* \"#utility.yul\":3225:3341   */\n      pop\n      jump\t// out\n        /* \"#utility.yul\":3347:3480   */\n    tag_162:\n        /* \"#utility.yul\":3390:3395   */\n      0x00\n        /* \"#utility.yul\":3428:3434   */\n      dup2\n        /* \"#utility.yul\":3415:3435   */\n      calldataload\n        /* \"#utility.yul\":3406:3435   */\n      swap1\n      pop\n        /* \"#utility.yul\":3444:3474   */\n      tag_217\n        /* \"#utility.yul\":3468:3473   */\n      dup2\n        /* \"#utility.yul\":3444:3474   */\n      tag_161\n      jump\t// in\n    tag_217:\n        /* \"#utility.yul\":3347:3480   */\n      swap3\n      swap2\n      pop\n      pop\n      jump\t// out\n        /* \"#utility.yul\":3486:3954   */\n    tag_40:\n        /* \"#utility.yul\":3551:3557   */\n      0x00\n        /* \"#utility.yul\":3559:3565   */\n      0x00\n        /* \"#utility.yul\":3608:3610   */\n      0x40\n        /* \"#utility.yul\":3596:3605   */\n      dup4\n        /* \"#utility.yul\":3587:3594   */\n      dup6\n        /* \"#utility.yul\":3583:3606   */\n      sub\n        /* \"#utility.yul\":3579:3611   */\n      slt\n        /* \"#utility.yul\":3576:3695   */\n      iszero\n      tag_219\n      jumpi\n        /* \"#utility.yul\":3614:3693   */\n      tag_220\n      tag_146\n      jump\t// in\n    tag_220:\n        /* \"#utility.yul\":3576:3695   */\n    tag_219:\n        /* \"#utility.yul\":3734:3735   */\n      0x00\n        /* \"#utility.yul\":3759:3812   */\n      tag_221\n        /* \"#utility.yul\":3804:3811   */\n      dup6\n        /* \"#utility.yul\":3795:3801   */\n      dup3\n        /* \"#utility.yul\":3784:3793   */\n      dup7\n        /* \"#utility.yul\":3780:3802   */\n      add\n        /* \"#utility.yul\":3759:3812   */\n      tag_158\n      jump\t// in\n    tag_221:\n        /* \"#utility.yul\":3749:3812   */\n      swap3\n      pop\n        /* \"#utility.yul\":3705:3822   */\n      pop\n        /* \"#utility.yul\":3861:3863   */\n      0x20\n        /* \"#utility.yul\":3887:3937   */\n      tag_222\n        /* \"#utility.yul\":3929:3936   */\n      dup6\n        /* \"#utility.yul\":3920:3926   */\n      dup3\n        /* \"#utility.yul\":3909:3918   */\n      dup7\n        /* \"#utility.yul\":3905:3927   */\n      add\n        /* \"#utility.yul\":3887:3937   */\n      tag_162\n      jump\t// in\n    tag_222:\n        /* \"#utility.yul\":3877:3937   */\n      swap2\n      pop\n        /* \"#utility.yul\":3832:3947   */\n      pop\n        /* \"#utility.yul\":3486:3954   */\n      swap3\n      pop\n      swap3\n      swap1\n      pop\n      jump\t// out\n        /* \"#utility.yul\":3960:4082   */\n    tag_163:\n        /* \"#utility.yul\":4033:4057   */\n      tag_224\n        /* \"#utility.yul\":4051:4056   */\n      dup2\n        /* \"#utility.yul\":4033:4057   */\n      tag_153\n      jump\t// in\n    tag_224:\n        /* \"#utility.yul\":4026:4031   */\n      dup2\n        /* \"#utility.yul\":4023:4058   */\n      eq\n        /* \"#utility.yul\":4013:4076   */\n      tag_225\n      jumpi\n        /* \"#utility.yul\":4072:4073   */\n      0x00\n        /* \"#utility.yul\":4069:4070   */\n      0x00\n        /* \"#utility.yul\":4062:4074   */\n      revert\n        /* \"#utility.yul\":4013:4076   */\n    tag_225:\n        /* \"#utility.yul\":3960:4082   */\n      pop\n      jump\t// out\n        /* \"#utility.yul\":4088:4227   */\n    tag_164:\n        /* \"#utility.yul\":4134:4139   */\n      0x00\n        /* \"#utility.yul\":4172:4178   */\n      dup2\n        /* \"#utility.yul\":4159:4179   */\n      calldataload\n        /* \"#utility.yul\":4150:4179   */\n      swap1\n      pop\n        /* \"#utility.yul\":4188:4221   */\n      tag_227\n        /* \"#utility.yul\":4215:4220   */\n      dup2\n        /* \"#utility.yul\":4188:4221   */\n      tag_163\n      jump\t// in\n    tag_227:\n        /* \"#utility.yul\":4088:4227   */\n      swap3\n      swap2\n      pop\n      pop\n      jump\t// out\n        /* \"#utility.yul\":4233:4562   */\n    tag_44:\n        /* \"#utility.yul\":4292:4298   */\n      0x00\n        /* \"#utility.yul\":4341:4343   */\n      0x20\n        /* \"#utility.yul\":4329:4338   */\n      dup3\n        /* \"#utility.yul\":4320:4327   */\n      dup5\n        /* \"#utility.yul\":4316:4339   */\n      sub\n        /* \"#utility.yul\":4312:4344   */\n      slt\n        /* \"#utility.yul\":4309:4428   */\n      iszero\n      tag_229\n      jumpi\n        /* \"#utility.yul\":4347:4426   */\n      tag_230\n      tag_146\n      jump\t// in\n    tag_230:\n        /* \"#utility.yul\":4309:4428   */\n    tag_229:\n        /* \"#utility.yul\":4467:4468   */\n      0x00\n        /* \"#utility.yul\":4492:4545   */\n      tag_231\n        /* \"#utility.yul\":4537:4544   */\n      dup5\n        /* \"#utility.yul\":4528:4534   */\n      dup3\n        /* \"#utility.yul\":4517:4526   */\n      dup6\n        /* \"#utility.yul\":4513:4535   */\n      add\n        /* \"#utility.yul\":4492:4545   */\n      tag_164\n      jump\t// in\n    tag_231:\n        /* \"#utility.yul\":4482:4545   */\n      swap2\n      pop\n        /* \"#utility.yul\":4438:4555   */\n      pop\n        /* \"#utility.yul\":4233:4562   */\n      swap3\n      swap2\n      pop\n      pop\n      jump\t// out\n        /* \"#utility.yul\":4568:5042   */\n    tag_49:\n        /* \"#utility.yul\":4636:4642   */\n      0x00\n        /* \"#utility.yul\":4644:4650   */\n      0x00\n        /* \"#utility.yul\":4693:4695   */\n      0x40\n        /* \"#utility.yul\":4681:4690   */\n      dup4\n        /* \"#utility.yul\":4672:4679   */\n      dup6\n        /* \"#utility.yul\":4668:4691   */\n      sub\n        /* \"#utility.yul\":4664:4696   */\n      slt\n        /* \"#utility.yul\":4661:4780   */\n      iszero\n      tag_233\n      jumpi\n        /* \"#utility.yul\":4699:4778   */\n      tag_234\n      tag_146\n      jump\t// in\n    tag_234:\n        /* \"#utility.yul\":4661:4780   */\n    tag_233:\n        /* \"#utility.yul\":4819:4820   */\n      0x00\n        /* \"#utility.yul\":4844:4897   */\n      tag_235\n        /* \"#utility.yul\":4889:4896   */\n      dup6\n        /* \"#utility.yul\":4880:4886   */\n      dup3\n        /* \"#utility.yul\":4869:4878   */\n      dup7\n        /* \"#utility.yul\":4865:4887   */\n      add\n        /* \"#utility.yul\":4844:4897   */\n      tag_164\n      jump\t// in\n    tag_235:\n        /* \"#utility.yul\":4834:4897   */\n      swap3\n      pop\n        /* \"#utility.yul\":4790:4907   */\n      pop\n        /* \"#utility.yul\":4946:4948   */\n      0x20\n        /* \"#utility.yul\":4972:5025   */\n      tag_236\n        /* \"#utility.yul\":5017:5024   */\n      dup6\n        /* \"#utility.yul\":5008:5014   */\n      dup3\n        /* \"#utility.yul\":4997:5006   */\n      dup7\n        /* \"#utility.yul\":4993:5015   */\n      add\n        /* \"#utility.yul\":4972:5025   */\n      tag_158\n      jump\t// in\n    tag_236:\n        /* \"#utility.yul\":4962:5025   */\n      swap2\n      pop\n        /* \"#utility.yul\":4917:5035   */\n      pop\n        /* \"#utility.yul\":4568:5042   */\n      swap3\n      pop\n      swap3\n      swap1\n      pop\n      jump\t// out\n        /* \"#utility.yul\":5048:5197   */\n    tag_165:\n        /* \"#utility.yul\":5084:5091   */\n      0x00\n        /* \"#utility.yul\":5124:5190   */\n      0xffff000000000000000000000000000000000000000000000000000000000000\n        /* \"#utility.yul\":5117:5122   */\n      dup3\n        /* \"#utility.yul\":5113:5191   */\n      and\n        /* \"#utility.yul\":5102:5191   */\n      swap1\n      pop\n        /* \"#utility.yul\":5048:5197   */\n      swap2\n      swap1\n      pop\n      jump\t// out\n        /* \"#utility.yul\":5203:5323   */\n    tag_166:\n        /* \"#utility.yul\":5275:5298   */\n      tag_239\n        /* \"#utility.yul\":5292:5297   */\n      dup2\n        /* \"#utility.yul\":5275:5298   */\n      tag_165\n      jump\t// in\n    tag_239:\n        /* \"#utility.yul\":5268:5273   */\n      dup2\n        /* \"#utility.yul\":5265:5299   */\n      eq\n        /* \"#utility.yul\":5255:5317   */\n      tag_240\n      jumpi\n        /* \"#utility.yul\":5313:5314   */\n      0x00\n        /* \"#utility.yul\":5310:5311   */\n      0x00\n        /* \"#utility.yul\":5303:5315   */\n      revert\n        /* \"#utility.yul\":5255:5317   */\n    tag_240:\n        /* \"#utility.yul\":5203:5323   */\n      pop\n      jump\t// out\n        /* \"#utility.yul\":5329:5466   */\n    tag_167:\n        /* \"#utility.yul\":5374:5379   */\n      0x00\n        /* \"#utility.yul\":5412:5418   */\n      dup2\n        /* \"#utility.yul\":5399:5419   */\n      calldataload\n        /* \"#utility.yul\":5390:5419   */\n      swap1\n      pop\n        /* \"#utility.yul\":5428:5460   */\n      tag_242\n        /* \"#utility.yul\":5454:5459   */\n      dup2\n        /* \"#utility.yul\":5428:5460   */\n      tag_166\n      jump\t// in\n    tag_242:\n        /* \"#utility.yul\":5329:5466   */\n      swap3\n      swap2\n      pop\n      pop\n      jump\t// out\n        /* \"#utility.yul\":5472:5590   */\n    tag_168:\n        /* \"#utility.yul\":5543:5565   */\n      tag_244\n        /* \"#utility.yul\":5559:5564   */\n      dup2\n        /* \"#utility.yul\":5543:5565   */\n      tag_159\n      jump\t// in\n    tag_244:\n        /* \"#utility.yul\":5536:5541   */\n      dup2\n        /* \"#utility.yul\":5533:5566   */\n      eq\n        /* \"#utility.yul\":5523:5584   */\n      tag_245\n      jumpi\n        /* \"#utility.yul\":5580:5581   */\n      0x00\n        /* \"#utility.yul\":5577:5578   */\n      0x00\n        /* \"#utility.yul\":5570:5582   */\n      revert\n        /* \"#utility.yul\":5523:5584   */\n    tag_245:\n        /* \"#utility.yul\":5472:5590   */\n      pop\n      jump\t// out\n        /* \"#utility.yul\":5596:5731   */\n    tag_169:\n        /* \"#utility.yul\":5640:5645   */\n      0x00\n        /* \"#utility.yul\":5678:5684   */\n      dup2\n        /* \"#utility.yul\":5665:5685   */\n      calldataload\n        /* \"#utility.yul\":5656:5685   */\n      swap1\n      pop\n        /* \"#utility.yul\":5694:5725   */\n      tag_247\n        /* \"#utility.yul\":5719:5724   */\n      dup2\n        /* \"#utility.yul\":5694:5725   */\n      tag_168\n      jump\t// in\n    tag_247:\n        /* \"#utility.yul\":5596:5731   */\n      swap3\n      swap2\n      pop\n      pop\n      jump\t// out\n        /* \"#utility.yul\":5737:6350   */\n    tag_66:\n        /* \"#utility.yul\":5811:5817   */\n      0x00\n        /* \"#utility.yul\":5819:5825   */\n      0x00\n        /* \"#utility.yul\":5827:5833   */\n      0x00\n        /* \"#utility.yul\":5876:5878   */\n      0x60\n        /* \"#utility.yul\":5864:5873   */\n      dup5\n        /* \"#utility.yul\":5855:5862   */\n      dup7\n        /* \"#utility.yul\":5851:5874   */\n      sub\n        /* \"#utility.yul\":5847:5879   */\n      slt\n        /* \"#utility.yul\":5844:5963   */\n      iszero\n      tag_249\n      jumpi\n        /* \"#utility.yul\":5882:5961   */\n      tag_250\n      tag_146\n      jump\t// in\n    tag_250:\n        /* \"#utility.yul\":5844:5963   */\n    tag_249:\n        /* \"#utility.yul\":6002:6003   */\n      0x00\n        /* \"#utility.yul\":6027:6080   */\n      tag_251\n        /* \"#utility.yul\":6072:6079   */\n      dup7\n        /* \"#utility.yul\":6063:6069   */\n      dup3\n        /* \"#utility.yul\":6052:6061   */\n      dup8\n        /* \"#utility.yul\":6048:6070   */\n      add\n        /* \"#utility.yul\":6027:6080   */\n      tag_158\n      jump\t// in\n    tag_251:\n        /* \"#utility.yul\":6017:6080   */\n      swap4\n      pop\n        /* \"#utility.yul\":5973:6090   */\n      pop\n        /* \"#utility.yul\":6129:6131   */\n      0x20\n        /* \"#utility.yul\":6155:6207   */\n      tag_252\n        /* \"#utility.yul\":6199:6206   */\n      dup7\n        /* \"#utility.yul\":6190:6196   */\n      dup3\n        /* \"#utility.yul\":6179:6188   */\n      dup8\n        /* \"#utility.yul\":6175:6197   */\n      add\n        /* \"#utility.yul\":6155:6207   */\n      tag_167\n      jump\t// in\n    tag_252:\n        /* \"#utility.yul\":6145:6207   */\n      swap3\n      pop\n        /* \"#utility.yul\":6100:6217   */\n      pop\n        /* \"#utility.yul\":6256:6258   */\n      0x40\n        /* \"#utility.yul\":6282:6333   */\n      tag_253\n        /* \"#utility.yul\":6325:6332   */\n      dup7\n        /* \"#utility.yul\":6316:6322   */\n      dup3\n        /* \"#utility.yul\":6305:6314   */\n      dup8\n        /* \"#utility.yul\":6301:6323   */\n      add\n        /* \"#utility.yul\":6282:6333   */\n      tag_169\n      jump\t// in\n    tag_253:\n        /* \"#utility.yul\":6272:6333   */\n      swap2\n      pop\n        /* \"#utility.yul\":6227:6343   */\n      pop\n        /* \"#utility.yul\":5737:6350   */\n      swap3\n      pop\n      swap3\n      pop\n      swap3\n      jump\t// out\n        /* \"#utility.yul\":6356:6471   */\n    tag_170:\n        /* \"#utility.yul\":6441:6464   */\n      tag_255\n        /* \"#utility.yul\":6458:6463   */\n      dup2\n        /* \"#utility.yul\":6441:6464   */\n      tag_165\n      jump\t// in\n    tag_255:\n        /* \"#utility.yul\":6436:6439   */\n      dup3\n        /* \"#utility.yul\":6429:6465   */\n      mstore\n        /* \"#utility.yul\":6356:6471   */\n      pop\n      pop\n      jump\t// out\n        /* \"#utility.yul\":6477:6695   */\n    tag_82:\n        /* \"#utility.yul\":6568:6572   */\n      0x00\n        /* \"#utility.yul\":6606:6608   */\n      0x20\n        /* \"#utility.yul\":6595:6604   */\n      dup3\n        /* \"#utility.yul\":6591:6609   */\n      add\n        /* \"#utility.yul\":6583:6609   */\n      swap1\n      pop\n        /* \"#utility.yul\":6619:6688   */\n      tag_257\n        /* \"#utility.yul\":6685:6686   */\n      0x00\n        /* \"#utility.yul\":6674:6683   */\n      dup4\n        /* \"#utility.yul\":6670:6687   */\n      add\n        /* \"#utility.yul\":6661:6667   */\n      dup5\n        /* \"#utility.yul\":6619:6688   */\n      tag_170\n      jump\t// in\n    tag_257:\n        /* \"#utility.yul\":6477:6695   */\n      swap3\n      swap2\n      pop\n      pop\n      jump\t// out\n        /* \"#utility.yul\":6701:7021   */\n    tag_118:\n        /* \"#utility.yul\":6816:6820   */\n      0x00\n        /* \"#utility.yul\":6854:6856   */\n      0x40\n        /* \"#utility.yul\":6843:6852   */\n      dup3\n        /* \"#utility.yul\":6839:6857   */\n      add\n        /* \"#utility.yul\":6831:6857   */\n      swap1\n      pop\n        /* \"#utility.yul\":6867:6936   */\n      tag_259\n        /* \"#utility.yul\":6933:6934   */\n      0x00\n        /* \"#utility.yul\":6922:6931   */\n      dup4\n        /* \"#utility.yul\":6918:6935   */\n      add\n        /* \"#utility.yul\":6909:6915   */\n      dup6\n        /* \"#utility.yul\":6867:6936   */\n      tag_170\n      jump\t// in\n    tag_259:\n        /* \"#utility.yul\":6946:7014   */\n      tag_260\n        /* \"#utility.yul\":7010:7012   */\n      0x20\n        /* \"#utility.yul\":6999:7008   */\n      dup4\n        /* \"#utility.yul\":6995:7013   */\n      add\n        /* \"#utility.yul\":6986:6992   */\n      dup5\n        /* \"#utility.yul\":6946:7014   */\n      tag_160\n      jump\t// in\n    tag_260:\n        /* \"#utility.yul\":6701:7021   */\n      swap4\n      swap3\n      pop\n      pop\n      pop\n      jump\t// out\n        /* \"#utility.yul\":7027:7145   */\n    tag_171:\n        /* \"#utility.yul\":7114:7138   */\n      tag_262\n        /* \"#utility.yul\":7132:7137   */\n      dup2\n        /* \"#utility.yul\":7114:7138   */\n      tag_156\n      jump\t// in\n    tag_262:\n        /* \"#utility.yul\":7109:7112   */\n      dup3\n        /* \"#utility.yul\":7102:7139   */\n      mstore\n        /* \"#utility.yul\":7027:7145   */\n      pop\n      pop\n      jump\t// out\n        /* \"#utility.yul\":7151:7483   */\n    tag_144:\n        /* \"#utility.yul\":7272:7276   */\n      0x00\n        /* \"#utility.yul\":7310:7312   */\n      0x40\n        /* \"#utility.yul\":7299:7308   */\n      dup3\n        /* \"#utility.yul\":7295:7313   */\n      add\n        /* \"#utility.yul\":7287:7313   */\n      swap1\n      pop\n        /* \"#utility.yul\":7323:7394   */\n      tag_264\n        /* \"#utility.yul\":7391:7392   */\n      0x00\n        /* \"#utility.yul\":7380:7389   */\n      dup4\n        /* \"#utility.yul\":7376:7393   */\n      add\n        /* \"#utility.yul\":7367:7373   */\n      dup6\n        /* \"#utility.yul\":7323:7394   */\n      tag_171\n      jump\t// in\n    tag_264:\n        /* \"#utility.yul\":7404:7476   */\n      tag_265\n        /* \"#utility.yul\":7472:7474   */\n      0x20\n        /* \"#utility.yul\":7461:7470   */\n      dup4\n        /* \"#utility.yul\":7457:7475   */\n      add\n        /* \"#utility.yul\":7448:7454   */\n      dup5\n        /* \"#utility.yul\":7404:7476   */\n      tag_154\n      jump\t// in\n    tag_265:\n        /* \"#utility.yul\":7151:7483   */\n      swap4\n      swap3\n      pop\n      pop\n      pop\n      jump\t// out\n\n    auxdata: 0xa2646970667358221220ab0aac065d5b7e6e3b24a5c0bc3d9acad517c4a393335835a3f1a023dc23a1fd64736f6c634300081e0033\n}\n",
				"bytecode": {
					"linkReferences": {},
					"object": "608060405234801561000f575f5ffd5b5060405161120838038061120883398181016040528101906100319190610269565b6100435f5f1b826100ac60201b60201c565b506100747f811427a0fa4932aef534bba16bc34e9b7b2d7d2a79c475fca1765f6cc1faebea826100ac60201b60201c565b506100a57f120f974a3b1c46838e58df88a957752089d3bff8b65f144f94c1b4b52c456b72826100ac60201b60201c565b5050610294565b5f6100bd83836101a160201b60201c565b6101975760015f5f8581526020019081526020015f205f015f8473ffffffffffffffffffffffffffffffffffffffff1673ffffffffffffffffffffffffffffffffffffffff1681526020019081526020015f205f6101000a81548160ff02191690831515021790555061013461020460201b60201c565b73ffffffffffffffffffffffffffffffffffffffff168273ffffffffffffffffffffffffffffffffffffffff16847f2f8788117e7eff1d82e926ec794901d17c78024a50270940304540a733656f0d60405160405180910390a46001905061019b565b5f90505b92915050565b5f5f5f8481526020019081526020015f205f015f8373ffffffffffffffffffffffffffffffffffffffff1673ffffffffffffffffffffffffffffffffffffffff1681526020019081526020015f205f9054906101000a900460ff16905092915050565b5f33905090565b5f5ffd5b5f73ffffffffffffffffffffffffffffffffffffffff82169050919050565b5f6102388261020f565b9050919050565b6102488161022e565b8114610252575f5ffd5b50565b5f815190506102638161023f565b92915050565b5f6020828403121561027e5761027d61020b565b5b5f61028b84828501610255565b91505092915050565b610f67806102a15f395ff3fe608060405234801561000f575f5ffd5b50600436106100fe575f3560e01c80638c0cfbb011610095578063b9209e3311610064578063b9209e33146102a8578063d547741f146102d8578063dce9571f146102f4578063fe575a8714610324576100fe565b80638c0cfbb01461022057806391d148541461023e57806394792e8d1461026e578063a217fddf1461028a576100fe565b8063248a9ca3116100d1578063248a9ca31461019c5780632f2ff15d146101cc57806336568abe146101e85780637807aeba14610204576100fe565b806301ffc9a71461010257806302d7fd921461013257806305bd497014610150578063153b0d1e14610180575b5f5ffd5b61011c60048036038101906101179190610b9a565b610354565b6040516101299190610bdf565b60405180910390f35b61013a6103cd565b6040516101479190610c10565b60405180910390f35b61016a60048036038101906101659190610c83565b6103f1565b6040516101779190610cc9565b60405180910390f35b61019a60048036038101906101959190610d0c565b61040e565b005b6101b660048036038101906101b19190610d74565b6104df565b6040516101c39190610c10565b60405180910390f35b6101e660048036038101906101e19190610d9f565b6104fb565b005b61020260048036038101906101fd9190610d9f565b61051d565b005b61021e60048036038101906102199190610d0c565b610598565b005b610228610669565b6040516102359190610c10565b60405180910390f35b61025860048036038101906102539190610d9f565b61068d565b6040516102659190610bdf565b60405180910390f35b61028860048036038101906102839190610e5c565b6106f0565b005b61029261081b565b60405161029f9190610c10565b60405180910390f35b6102c260048036038101906102bd9190610c83565b610821565b6040516102cf9190610bdf565b60405180910390f35b6102f260048036038101906102ed9190610d9f565b61083e565b005b61030e60048036038101906103099190610c83565b610860565b60405161031b9190610ebb565b60405180910390f35b61033e60048036038101906103399190610c83565b61087d565b60405161034b9190610bdf565b60405180910390f35b5f7f7965db0b000000000000000000000000000000000000000000000000000000007bffffffffffffffffffffffffffffffffffffffffffffffffffffffff1916827bffffffffffffffffffffffffffffffffffffffffffffffffffffffff191614806103c657506103c58261089a565b5b9050919050565b7f811427a0fa4932aef534bba16bc34e9b7b2d7d2a79c475fca1765f6cc1faebea81565b6004602052805f5260405f205f915054906101000a900460ff1681565b7f120f974a3b1c46838e58df88a957752089d3bff8b65f144f94c1b4b52c456b7261043881610903565b8160025f8573ffffffffffffffffffffffffffffffffffffffff1673ffffffffffffffffffffffffffffffffffffffff1681526020019081526020015f205f6101000a81548160ff0219169083151502179055508273ffffffffffffffffffffffffffffffffffffffff167f6a12b3df6cba4203bd7fd06b816789f87de8c594299aed5717ae070fac781bac836040516104d29190610bdf565b60405180910390a2505050565b5f5f5f8381526020019081526020015f20600101549050919050565b610504826104df565b61050d81610903565b6105178383610917565b50505050565b610525610a00565b73ffffffffffffffffffffffffffffffffffffffff168173ffffffffffffffffffffffffffffffffffffffff1614610589576040517f6697b23200000000000000000000000000000000000000000000000000000000815260040160405180910390fd5b6105938282610a07565b505050565b7f811427a0fa4932aef534bba16bc34e9b7b2d7d2a79c475fca1765f6cc1faebea6105c281610903565b8160015f8573ffffffffffffffffffffffffffffffffffffffff1673ffffffffffffffffffffffffffffffffffffffff1681526020019081526020015f205f6101000a81548160ff0219169083151502179055508273ffffffffffffffffffffffffffffffffffffffff167fc060d8add9e7b6a84ecb7f29b08e239fad2c56c4f609dec6c17ab68d8655fe7d8360405161065c9190610bdf565b60405180910390a2505050565b7f120f974a3b1c46838e58df88a957752089d3bff8b65f144f94c1b4b52c456b7281565b5f5f5f8481526020019081526020015f205f015f8373ffffffffffffffffffffffffffffffffffffffff1673ffffffffffffffffffffffffffffffffffffffff1681526020019081526020015f205f9054906101000a900460ff16905092915050565b7f811427a0fa4932aef534bba16bc34e9b7b2d7d2a79c475fca1765f6cc1faebea61071a81610903565b8260035f8673ffffffffffffffffffffffffffffffffffffffff1673ffffffffffffffffffffffffffffffffffffffff1681526020019081526020015f205f6101000a81548161ffff021916908360f01c02179055508160045f8673ffffffffffffffffffffffffffffffffffffffff1673ffffffffffffffffffffffffffffffffffffffff1681526020019081526020015f205f6101000a81548160ff021916908360ff1602179055508373ffffffffffffffffffffffffffffffffffffffff167fa09be255173b26f6e7520d96ef6279415258e6eea9b9295a29a448c4f81dab74848460405161080d929190610ed4565b60405180910390a250505050565b5f5f1b81565b6001602052805f5260405f205f915054906101000a900460ff1681565b610847826104df565b61085081610903565b61085a8383610a07565b50505050565b6003602052805f5260405f205f915054906101000a900460f01b81565b6002602052805f5260405f205f915054906101000a900460ff1681565b5f7f01ffc9a7000000000000000000000000000000000000000000000000000000007bffffffffffffffffffffffffffffffffffffffffffffffffffffffff1916827bffffffffffffffffffffffffffffffffffffffffffffffffffffffff1916149050919050565b6109148161090f610a00565b610af0565b50565b5f610922838361068d565b6109f65760015f5f8581526020019081526020015f205f015f8473ffffffffffffffffffffffffffffffffffffffff1673ffffffffffffffffffffffffffffffffffffffff1681526020019081526020015f205f6101000a81548160ff021916908315150217905550610993610a00565b73ffffffffffffffffffffffffffffffffffffffff168273ffffffffffffffffffffffffffffffffffffffff16847f2f8788117e7eff1d82e926ec794901d17c78024a50270940304540a733656f0d60405160405180910390a4600190506109fa565b5f90505b92915050565b5f33905090565b5f610a12838361068d565b15610ae6575f5f5f8581526020019081526020015f205f015f8473ffffffffffffffffffffffffffffffffffffffff1673ffffffffffffffffffffffffffffffffffffffff1681526020019081526020015f205f6101000a81548160ff021916908315150217905550610a83610a00565b73ffffffffffffffffffffffffffffffffffffffff168273ffffffffffffffffffffffffffffffffffffffff16847ff6391f5c32d9c69d2a47ea670b442974b53935d1edc7fd64eb21e047a839171b60405160405180910390a460019050610aea565b5f90505b92915050565b610afa828261068d565b610b3d5780826040517fe2517d3f000000000000000000000000000000000000000000000000000000008152600401610b34929190610f0a565b60405180910390fd5b5050565b5f5ffd5b5f7fffffffff0000000000000000000000000000000000000000000000000000000082169050919050565b610b7981610b45565b8114610b83575f5ffd5b50565b5f81359050610b9481610b70565b92915050565b5f60208284031215610baf57610bae610b41565b5b5f610bbc84828501610b86565b91505092915050565b5f8115159050919050565b610bd981610bc5565b82525050565b5f602082019050610bf25f830184610bd0565b92915050565b5f819050919050565b610c0a81610bf8565b82525050565b5f602082019050610c235f830184610c01565b92915050565b5f73ffffffffffffffffffffffffffffffffffffffff82169050919050565b5f610c5282610c29565b9050919050565b610c6281610c48565b8114610c6c575f5ffd5b50565b5f81359050610c7d81610c59565b92915050565b5f60208284031215610c9857610c97610b41565b5b5f610ca584828501610c6f565b91505092915050565b5f60ff82169050919050565b610cc381610cae565b82525050565b5f602082019050610cdc5f830184610cba565b92915050565b610ceb81610bc5565b8114610cf5575f5ffd5b50565b5f81359050610d0681610ce2565b92915050565b5f5f60408385031215610d2257610d21610b41565b5b5f610d2f85828601610c6f565b9250506020610d4085828601610cf8565b9150509250929050565b610d5381610bf8565b8114610d5d575f5ffd5b50565b5f81359050610d6e81610d4a565b92915050565b5f60208284031215610d8957610d88610b41565b5b5f610d9684828501610d60565b91505092915050565b5f5f60408385031215610db557610db4610b41565b5b5f610dc285828601610d60565b9250506020610dd385828601610c6f565b9150509250929050565b5f7fffff00000000000000000000000000000000000000000000000000000000000082169050919050565b610e1181610ddd565b8114610e1b575f5ffd5b50565b5f81359050610e2c81610e08565b92915050565b610e3b81610cae565b8114610e45575f5ffd5b50565b5f81359050610e5681610e32565b92915050565b5f5f5f60608486031215610e7357610e72610b41565b5b5f610e8086828701610c6f565b9350506020610e9186828701610e1e565b9250506040610ea286828701610e48565b9150509250925092565b610eb581610ddd565b82525050565b5f602082019050610ece5f830184610eac565b92915050565b5f604082019050610ee75f830185610eac565b610ef46020830184610cba565b9392505050565b610f0481610c48565b82525050565b5f604082019050610f1d5f830185610efb565b610f2a6020830184610c01565b939250505056fea2646970667358221220ab0aac065d5b7e6e3b24a5c0bc3d9acad517c4a393335835a3f1a023dc23a1fd64736f6c634300081e0033",
					"opcodes": "PUSH1 0x80 PUSH1 0x40 MSTORE CALLVALUE DUP1 ISZERO PUSH2 0xF JUMPI PUSH0 PUSH0 REVERT JUMPDEST POP PUSH1 0x40 MLOAD PUSH2 0x1208 CODESIZE SUB DUP1 PUSH2 0x1208 DUP4 CODECOPY DUP2 DUP2 ADD PUSH1 0x40 MSTORE DUP2 ADD SWAP1 PUSH2 0x31 SWAP2 SWAP1 PUSH2 0x269 JUMP JUMPDEST PUSH2 0x43 PUSH0 PUSH0 SHL DUP3 PUSH2 0xAC PUSH1 0x20 SHL PUSH1 0x20 SHR JUMP JUMPDEST POP PUSH2 0x74 PUSH32 0x811427A0FA4932AEF534BBA16BC34E9B7B2D7D2A79C475FCA1765F6CC1FAEBEA DUP3 PUSH2 0xAC PUSH1 0x20 SHL PUSH1 0x20 SHR JUMP JUMPDEST POP PUSH2 0xA5 PUSH32 0x120F974A3B1C46838E58DF88A957752089D3BFF8B65F144F94C1B4B52C456B72 DUP3 PUSH2 0xAC PUSH1 0x20 SHL PUSH1 0x20 SHR JUMP JUMPDEST POP POP PUSH2 0x294 JUMP JUMPDEST PUSH0 PUSH2 0xBD DUP4 DUP4 PUSH2 0x1A1 PUSH1 0x20 SHL PUSH1 0x20 SHR JUMP JUMPDEST PUSH2 0x197 JUMPI PUSH1 0x1 PUSH0 PUSH0 DUP6 DUP2 MSTORE PUSH1 0x20 ADD SWAP1 DUP2 MSTORE PUSH1 0x20 ADD PUSH0 KECCAK256 PUSH0 ADD PUSH0 DUP5 PUSH20 0xFFFFFFFFFFFFFFFFFFFFFFFFFFFFFFFFFFFFFFFF AND PUSH20 0xFFFFFFFFFFFFFFFFFFFFFFFFFFFFFFFFFFFFFFFF AND DUP2 MSTORE PUSH1 0x20 ADD SWAP1 DUP2 MSTORE PUSH1 0x20 ADD PUSH0 KECCAK256 PUSH0 PUSH2 0x100 EXP DUP2 SLOAD DUP2 PUSH1 0xFF MUL NOT AND SWAP1 DUP4 ISZERO ISZERO MUL OR SWAP1 SSTORE POP PUSH2 0x134 PUSH2 0x204 PUSH1 0x20 SHL PUSH1 0x20 SHR JUMP JUMPDEST PUSH20 0xFFFFFFFFFFFFFFFFFFFFFFFFFFFFFFFFFFFFFFFF AND DUP3 PUSH20 0xFFFFFFFFFFFFFFFFFFFFFFFFFFFFFFFFFFFFFFFF AND DUP5 PUSH32 0x2F8788117E7EFF1D82E926EC794901D17C78024A50270940304540A733656F0D PUSH1 0x40 MLOAD PUSH1 0x40 MLOAD DUP1 SWAP2 SUB SWAP1 LOG4 PUSH1 0x1 SWAP1 POP PUSH2 0x19B JUMP JUMPDEST PUSH0 SWAP1 POP JUMPDEST SWAP3 SWAP2 POP POP JUMP JUMPDEST PUSH0 PUSH0 PUSH0 DUP5 DUP2 MSTORE PUSH1 0x20 ADD SWAP1 DUP2 MSTORE PUSH1 0x20 ADD PUSH0 KECCAK256 PUSH0 ADD PUSH0 DUP4 PUSH20 0xFFFFFFFFFFFFFFFFFFFFFFFFFFFFFFFFFFFFFFFF AND PUSH20 0xFFFFFFFFFFFFFFFFFFFFFFFFFFFFFFFFFFFFFFFF AND DUP2 MSTORE PUSH1 0x20 ADD SWAP1 DUP2 MSTORE PUSH1 0x20 ADD PUSH0 KECCAK256 PUSH0 SWAP1 SLOAD SWAP1 PUSH2 0x100 EXP SWAP1 DIV PUSH1 0xFF AND SWAP1 POP SWAP3 SWAP2 POP POP JUMP JUMPDEST PUSH0 CALLER SWAP1 POP SWAP1 JUMP JUMPDEST PUSH0 PUSH0 REVERT JUMPDEST PUSH0 PUSH20 0xFFFFFFFFFFFFFFFFFFFFFFFFFFFFFFFFFFFFFFFF DUP3 AND SWAP1 POP SWAP2 SWAP1 POP JUMP JUMPDEST PUSH0 PUSH2 0x238 DUP3 PUSH2 0x20F JUMP JUMPDEST SWAP1 POP SWAP2 SWAP1 POP JUMP JUMPDEST PUSH2 0x248 DUP2 PUSH2 0x22E JUMP JUMPDEST DUP2 EQ PUSH2 0x252 JUMPI PUSH0 PUSH0 REVERT JUMPDEST POP JUMP JUMPDEST PUSH0 DUP2 MLOAD SWAP1 POP PUSH2 0x263 DUP2 PUSH2 0x23F JUMP JUMPDEST SWAP3 SWAP2 POP POP JUMP JUMPDEST PUSH0 PUSH1 0x20 DUP3 DUP5 SUB SLT ISZERO PUSH2 0x27E JUMPI PUSH2 0x27D PUSH2 0x20B JUMP JUMPDEST JUMPDEST PUSH0 PUSH2 0x28B DUP5 DUP3 DUP6 ADD PUSH2 0x255 JUMP JUMPDEST SWAP2 POP POP SWAP3 SWAP2 POP POP JUMP JUMPDEST PUSH2 0xF67 DUP1 PUSH2 0x2A1 PUSH0 CODECOPY PUSH0 RETURN INVALID PUSH1 0x80 PUSH1 0x40 MSTORE CALLVALUE DUP1 ISZERO PUSH2 0xF JUMPI PUSH0 PUSH0 REVERT JUMPDEST POP PUSH1 0x4 CALLDATASIZE LT PUSH2 0xFE JUMPI PUSH0 CALLDATALOAD PUSH1 0xE0 SHR DUP1 PUSH4 0x8C0CFBB0 GT PUSH2 0x95 JUMPI DUP1 PUSH4 0xB9209E33 GT PUSH2 0x64 JUMPI DUP1 PUSH4 0xB9209E33 EQ PUSH2 0x2A8 JUMPI DUP1 PUSH4 0xD547741F EQ PUSH2 0x2D8 JUMPI DUP1 PUSH4 0xDCE9571F EQ PUSH2 0x2F4 JUMPI DUP1 PUSH4 0xFE575A87 EQ PUSH2 0x324 JUMPI PUSH2 0xFE JUMP JUMPDEST DUP1 PUSH4 0x8C0CFBB0 EQ PUSH2 0x220 JUMPI DUP1 PUSH4 0x91D14854 EQ PUSH2 0x23E JUMPI DUP1 PUSH4 0x94792E8D EQ PUSH2 0x26E JUMPI DUP1 PUSH4 0xA217FDDF EQ PUSH2 0x28A JUMPI PUSH2 0xFE JUMP JUMPDEST DUP1 PUSH4 0x248A9CA3 GT PUSH2 0xD1 JUMPI DUP1 PUSH4 0x248A9CA3 EQ PUSH2 0x19C JUMPI DUP1 PUSH4 0x2F2FF15D EQ PUSH2 0x1CC JUMPI DUP1 PUSH4 0x36568ABE EQ PUSH2 0x1E8 JUMPI DUP1 PUSH4 0x7807AEBA EQ PUSH2 0x204 JUMPI PUSH2 0xFE JUMP JUMPDEST DUP1 PUSH4 0x1FFC9A7 EQ PUSH2 0x102 JUMPI DUP1 PUSH4 0x2D7FD92 EQ PUSH2 0x132 JUMPI DUP1 PUSH4 0x5BD4970 EQ PUSH2 0x150 JUMPI DUP1 PUSH4 0x153B0D1E EQ PUSH2 0x180 JUMPI JUMPDEST PUSH0 PUSH0 REVERT JUMPDEST PUSH2 0x11C PUSH1 0x4 DUP1 CALLDATASIZE SUB DUP2 ADD SWAP1 PUSH2 0x117 SWAP2 SWAP1 PUSH2 0xB9A JUMP JUMPDEST PUSH2 0x354 JUMP JUMPDEST PUSH1 0x40 MLOAD PUSH2 0x129 SWAP2 SWAP1 PUSH2 0xBDF JUMP JUMPDEST PUSH1 0x40 MLOAD DUP1 SWAP2 SUB SWAP1 RETURN JUMPDEST PUSH2 0x13A PUSH2 0x3CD JUMP JUMPDEST PUSH1 0x40 MLOAD PUSH2 0x147 SWAP2 SWAP1 PUSH2 0xC10 JUMP JUMPDEST PUSH1 0x40 MLOAD DUP1 SWAP2 SUB SWAP1 RETURN JUMPDEST PUSH2 0x16A PUSH1 0x4 DUP1 CALLDATASIZE SUB DUP2 ADD SWAP1 PUSH2 0x165 SWAP2 SWAP1 PUSH2 0xC83 JUMP JUMPDEST PUSH2 0x3F1 JUMP JUMPDEST PUSH1 0x40 MLOAD PUSH2 0x177 SWAP2 SWAP1 PUSH2 0xCC9 JUMP JUMPDEST PUSH1 0x40 MLOAD DUP1 SWAP2 SUB SWAP1 RETURN JUMPDEST PUSH2 0x19A PUSH1 0x4 DUP1 CALLDATASIZE SUB DUP2 ADD SWAP1 PUSH2 0x195 SWAP2 SWAP1 PUSH2 0xD0C JUMP JUMPDEST PUSH2 0x40E JUMP JUMPDEST STOP JUMPDEST PUSH2 0x1B6 PUSH1 0x4 DUP1 CALLDATASIZE SUB DUP2 ADD SWAP1 PUSH2 0x1B1 SWAP2 SWAP1 PUSH2 0xD74 JUMP JUMPDEST PUSH2 0x4DF JUMP JUMPDEST PUSH1 0x40 MLOAD PUSH2 0x1C3 SWAP2 SWAP1 PUSH2 0xC10 JUMP JUMPDEST PUSH1 0x40 MLOAD DUP1 SWAP2 SUB SWAP1 RETURN JUMPDEST PUSH2 0x1E6 PUSH1 0x4 DUP1 CALLDATASIZE SUB DUP2 ADD SWAP1 PUSH2 0x1E1 SWAP2 SWAP1 PUSH2 0xD9F JUMP JUMPDEST PUSH2 0x4FB JUMP JUMPDEST STOP JUMPDEST PUSH2 0x202 PUSH1 0x4 DUP1 CALLDATASIZE SUB DUP2 ADD SWAP1 PUSH2 0x1FD SWAP2 SWAP1 PUSH2 0xD9F JUMP JUMPDEST PUSH2 0x51D JUMP JUMPDEST STOP JUMPDEST PUSH2 0x21E PUSH1 0x4 DUP1 CALLDATASIZE SUB DUP2 ADD SWAP1 PUSH2 0x219 SWAP2 SWAP1 PUSH2 0xD0C JUMP JUMPDEST PUSH2 0x598 JUMP JUMPDEST STOP JUMPDEST PUSH2 0x228 PUSH2 0x669 JUMP JUMPDEST PUSH1 0x40 MLOAD PUSH2 0x235 SWAP2 SWAP1 PUSH2 0xC10 JUMP JUMPDEST PUSH1 0x40 MLOAD DUP1 SWAP2 SUB SWAP1 RETURN JUMPDEST PUSH2 0x258 PUSH1 0x4 DUP1 CALLDATASIZE SUB DUP2 ADD SWAP1 PUSH2 0x253 SWAP2 SWAP1 PUSH2 0xD9F JUMP JUMPDEST PUSH2 0x68D JUMP JUMPDEST PUSH1 0x40 MLOAD PUSH2 0x265 SWAP2 SWAP1 PUSH2 0xBDF JUMP JUMPDEST PUSH1 0x40 MLOAD DUP1 SWAP2 SUB SWAP1 RETURN JUMPDEST PUSH2 0x288 PUSH1 0x4 DUP1 CALLDATASIZE SUB DUP2 ADD SWAP1 PUSH2 0x283 SWAP2 SWAP1 PUSH2 0xE5C JUMP JUMPDEST PUSH2 0x6F0 JUMP JUMPDEST STOP JUMPDEST PUSH2 0x292 PUSH2 0x81B JUMP JUMPDEST PUSH1 0x40 MLOAD PUSH2 0x29F SWAP2 SWAP1 PUSH2 0xC10 JUMP JUMPDEST PUSH1 0x40 MLOAD DUP1 SWAP2 SUB SWAP1 RETURN JUMPDEST PUSH2 0x2C2 PUSH1 0x4 DUP1 CALLDATASIZE SUB DUP2 ADD SWAP1 PUSH2 0x2BD SWAP2 SWAP1 PUSH2 0xC83 JUMP JUMPDEST PUSH2 0x821 JUMP JUMPDEST PUSH1 0x40 MLOAD PUSH2 0x2CF SWAP2 SWAP1 PUSH2 0xBDF JUMP JUMPDEST PUSH1 0x40 MLOAD DUP1 SWAP2 SUB SWAP1 RETURN JUMPDEST PUSH2 0x2F2 PUSH1 0x4 DUP1 CALLDATASIZE SUB DUP2 ADD SWAP1 PUSH2 0x2ED SWAP2 SWAP1 PUSH2 0xD9F JUMP JUMPDEST PUSH2 0x83E JUMP JUMPDEST STOP JUMPDEST PUSH2 0x30E PUSH1 0x4 DUP1 CALLDATASIZE SUB DUP2 ADD SWAP1 PUSH2 0x309 SWAP2 SWAP1 PUSH2 0xC83 JUMP JUMPDEST PUSH2 0x860 JUMP JUMPDEST PUSH1 0x40 MLOAD PUSH2 0x31B SWAP2 SWAP1 PUSH2 0xEBB JUMP JUMPDEST PUSH1 0x40 MLOAD DUP1 SWAP2 SUB SWAP1 RETURN JUMPDEST PUSH2 0x33E PUSH1 0x4 DUP1 CALLDATASIZE SUB DUP2 ADD SWAP1 PUSH2 0x339 SWAP2 SWAP1 PUSH2 0xC83 JUMP JUMPDEST PUSH2 0x87D JUMP JUMPDEST PUSH1 0x40 MLOAD PUSH2 0x34B SWAP2 SWAP1 PUSH2 0xBDF JUMP JUMPDEST PUSH1 0x40 MLOAD DUP1 SWAP2 SUB SWAP1 RETURN JUMPDEST PUSH0 PUSH32 0x7965DB0B00000000000000000000000000000000000000000000000000000000 PUSH28 0xFFFFFFFFFFFFFFFFFFFFFFFFFFFFFFFFFFFFFFFFFFFFFFFFFFFFFFFF NOT AND DUP3 PUSH28 0xFFFFFFFFFFFFFFFFFFFFFFFFFFFFFFFFFFFFFFFFFFFFFFFFFFFFFFFF NOT AND EQ DUP1 PUSH2 0x3C6 JUMPI POP PUSH2 0x3C5 DUP3 PUSH2 0x89A JUMP JUMPDEST JUMPDEST SWAP1 POP SWAP2 SWAP1 POP JUMP JUMPDEST PUSH32 0x811427A0FA4932AEF534BBA16BC34E9B7B2D7D2A79C475FCA1765F6CC1FAEBEA DUP2 JUMP JUMPDEST PUSH1 0x4 PUSH1 0x20 MSTORE DUP1 PUSH0 MSTORE PUSH1 0x40 PUSH0 KECCAK256 PUSH0 SWAP2 POP SLOAD SWAP1 PUSH2 0x100 EXP SWAP1 DIV PUSH1 0xFF AND DUP2 JUMP JUMPDEST PUSH32 0x120F974A3B1C46838E58DF88A957752089D3BFF8B65F144F94C1B4B52C456B72 PUSH2 0x438 DUP2 PUSH2 0x903 JUMP JUMPDEST DUP2 PUSH1 0x2 PUSH0 DUP6 PUSH20 0xFFFFFFFFFFFFFFFFFFFFFFFFFFFFFFFFFFFFFFFF AND PUSH20 0xFFFFFFFFFFFFFFFFFFFFFFFFFFFFFFFFFFFFFFFF AND DUP2 MSTORE PUSH1 0x20 ADD SWAP1 DUP2 MSTORE PUSH1 0x20 ADD PUSH0 KECCAK256 PUSH0 PUSH2 0x100 EXP DUP2 SLOAD DUP2 PUSH1 0xFF MUL NOT AND SWAP1 DUP4 ISZERO ISZERO MUL OR SWAP1 SSTORE POP DUP3 PUSH20 0xFFFFFFFFFFFFFFFFFFFFFFFFFFFFFFFFFFFFFFFF AND PUSH32 0x6A12B3DF6CBA4203BD7FD06B816789F87DE8C594299AED5717AE070FAC781BAC DUP4 PUSH1 0x40 MLOAD PUSH2 0x4D2 SWAP2 SWAP1 PUSH2 0xBDF JUMP JUMPDEST PUSH1 0x40 MLOAD DUP1 SWAP2 SUB SWAP1 LOG2 POP POP POP JUMP JUMPDEST PUSH0 PUSH0 PUSH0 DUP4 DUP2 MSTORE PUSH1 0x20 ADD SWAP1 DUP2 MSTORE PUSH1 0x20 ADD PUSH0 KECCAK256 PUSH1 0x1 ADD SLOAD SWAP1 POP SWAP2 SWAP1 POP JUMP JUMPDEST PUSH2 0x504 DUP3 PUSH2 0x4DF JUMP JUMPDEST PUSH2 0x50D DUP2 PUSH2 0x903 JUMP JUMPDEST PUSH2 0x517 DUP4 DUP4 PUSH2 0x917 JUMP JUMPDEST POP POP POP POP JUMP JUMPDEST PUSH2 0x525 PUSH2 0xA00 JUMP JUMPDEST PUSH20 0xFFFFFFFFFFFFFFFFFFFFFFFFFFFFFFFFFFFFFFFF AND DUP2 PUSH20 0xFFFFFFFFFFFFFFFFFFFFFFFFFFFFFFFFFFFFFFFF AND EQ PUSH2 0x589 JUMPI PUSH1 0x40 MLOAD PUSH32 0x6697B23200000000000000000000000000000000000000000000000000000000 DUP2 MSTORE PUSH1 0x4 ADD PUSH1 0x40 MLOAD DUP1 SWAP2 SUB SWAP1 REVERT JUMPDEST PUSH2 0x593 DUP3 DUP3 PUSH2 0xA07 JUMP JUMPDEST POP POP POP JUMP JUMPDEST PUSH32 0x811427A0FA4932AEF534BBA16BC34E9B7B2D7D2A79C475FCA1765F6CC1FAEBEA PUSH2 0x5C2 DUP2 PUSH2 0x903 JUMP JUMPDEST DUP2 PUSH1 0x1 PUSH0 DUP6 PUSH20 0xFFFFFFFFFFFFFFFFFFFFFFFFFFFFFFFFFFFFFFFF AND PUSH20 0xFFFFFFFFFFFFFFFFFFFFFFFFFFFFFFFFFFFFFFFF AND DUP2 MSTORE PUSH1 0x20 ADD SWAP1 DUP2 MSTORE PUSH1 0x20 ADD PUSH0 KECCAK256 PUSH0 PUSH2 0x100 EXP DUP2 SLOAD DUP2 PUSH1 0xFF MUL NOT AND SWAP1 DUP4 ISZERO ISZERO MUL OR SWAP1 SSTORE POP DUP3 PUSH20 0xFFFFFFFFFFFFFFFFFFFFFFFFFFFFFFFFFFFFFFFF AND PUSH32 0xC060D8ADD9E7B6A84ECB7F29B08E239FAD2C56C4F609DEC6C17AB68D8655FE7D DUP4 PUSH1 0x40 MLOAD PUSH2 0x65C SWAP2 SWAP1 PUSH2 0xBDF JUMP JUMPDEST PUSH1 0x40 MLOAD DUP1 SWAP2 SUB SWAP1 LOG2 POP POP POP JUMP JUMPDEST PUSH32 0x120F974A3B1C46838E58DF88A957752089D3BFF8B65F144F94C1B4B52C456B72 DUP2 JUMP JUMPDEST PUSH0 PUSH0 PUSH0 DUP5 DUP2 MSTORE PUSH1 0x20 ADD SWAP1 DUP2 MSTORE PUSH1 0x20 ADD PUSH0 KECCAK256 PUSH0 ADD PUSH0 DUP4 PUSH20 0xFFFFFFFFFFFFFFFFFFFFFFFFFFFFFFFFFFFFFFFF AND PUSH20 0xFFFFFFFFFFFFFFFFFFFFFFFFFFFFFFFFFFFFFFFF AND DUP2 MSTORE PUSH1 0x20 ADD SWAP1 DUP2 MSTORE PUSH1 0x20 ADD PUSH0 KECCAK256 PUSH0 SWAP1 SLOAD SWAP1 PUSH2 0x100 EXP SWAP1 DIV PUSH1 0xFF AND SWAP1 POP SWAP3 SWAP2 POP POP JUMP JUMPDEST PUSH32 0x811427A0FA4932AEF534BBA16BC34E9B7B2D7D2A79C475FCA1765F6CC1FAEBEA PUSH2 0x71A DUP2 PUSH2 0x903 JUMP JUMPDEST DUP3 PUSH1 0x3 PUSH0 DUP7 PUSH20 0xFFFFFFFFFFFFFFFFFFFFFFFFFFFFFFFFFFFFFFFF AND PUSH20 0xFFFFFFFFFFFFFFFFFFFFFFFFFFFFFFFFFFFFFFFF AND DUP2 MSTORE PUSH1 0x20 ADD SWAP1 DUP2 MSTORE PUSH1 0x20 ADD PUSH0 KECCAK256 PUSH0 PUSH2 0x100 EXP DUP2 SLOAD DUP2 PUSH2 0xFFFF MUL NOT AND SWAP1 DUP4 PUSH1 0xF0 SHR MUL OR SWAP1 SSTORE POP DUP2 PUSH1 0x4 PUSH0 DUP7 PUSH20 0xFFFFFFFFFFFFFFFFFFFFFFFFFFFFFFFFFFFFFFFF AND PUSH20 0xFFFFFFFFFFFFFFFFFFFFFFFFFFFFFFFFFFFFFFFF AND DUP2 MSTORE PUSH1 0x20 ADD SWAP1 DUP2 MSTORE PUSH1 0x20 ADD PUSH0 KECCAK256 PUSH0 PUSH2 0x100 EXP DUP2 SLOAD DUP2 PUSH1 0xFF MUL NOT AND SWAP1 DUP4 PUSH1 0xFF AND MUL OR SWAP1 SSTORE POP DUP4 PUSH20 0xFFFFFFFFFFFFFFFFFFFFFFFFFFFFFFFFFFFFFFFF AND PUSH32 0xA09BE255173B26F6E7520D96EF6279415258E6EEA9B9295A29A448C4F81DAB74 DUP5 DUP5 PUSH1 0x40 MLOAD PUSH2 0x80D SWAP3 SWAP2 SWAP1 PUSH2 0xED4 JUMP JUMPDEST PUSH1 0x40 MLOAD DUP1 SWAP2 SUB SWAP1 LOG2 POP POP POP POP JUMP JUMPDEST PUSH0 PUSH0 SHL DUP2 JUMP JUMPDEST PUSH1 0x1 PUSH1 0x20 MSTORE DUP1 PUSH0 MSTORE PUSH1 0x40 PUSH0 KECCAK256 PUSH0 SWAP2 POP SLOAD SWAP1 PUSH2 0x100 EXP SWAP1 DIV PUSH1 0xFF AND DUP2 JUMP JUMPDEST PUSH2 0x847 DUP3 PUSH2 0x4DF JUMP JUMPDEST PUSH2 0x850 DUP2 PUSH2 0x903 JUMP JUMPDEST PUSH2 0x85A DUP4 DUP4 PUSH2 0xA07 JUMP JUMPDEST POP POP POP POP JUMP JUMPDEST PUSH1 0x3 PUSH1 0x20 MSTORE DUP1 PUSH0 MSTORE PUSH1 0x40 PUSH0 KECCAK256 PUSH0 SWAP2 POP SLOAD SWAP1 PUSH2 0x100 EXP SWAP1 DIV PUSH1 0xF0 SHL DUP2 JUMP JUMPDEST PUSH1 0x2 PUSH1 0x20 MSTORE DUP1 PUSH0 MSTORE PUSH1 0x40 PUSH0 KECCAK256 PUSH0 SWAP2 POP SLOAD SWAP1 PUSH2 0x100 EXP SWAP1 DIV PUSH1 0xFF AND DUP2 JUMP JUMPDEST PUSH0 PUSH32 0x1FFC9A700000000000000000000000000000000000000000000000000000000 PUSH28 0xFFFFFFFFFFFFFFFFFFFFFFFFFFFFFFFFFFFFFFFFFFFFFFFFFFFFFFFF NOT AND DUP3 PUSH28 0xFFFFFFFFFFFFFFFFFFFFFFFFFFFFFFFFFFFFFFFFFFFFFFFFFFFFFFFF NOT AND EQ SWAP1 POP SWAP2 SWAP1 POP JUMP JUMPDEST PUSH2 0x914 DUP2 PUSH2 0x90F PUSH2 0xA00 JUMP JUMPDEST PUSH2 0xAF0 JUMP JUMPDEST POP JUMP JUMPDEST PUSH0 PUSH2 0x922 DUP4 DUP4 PUSH2 0x68D JUMP JUMPDEST PUSH2 0x9F6 JUMPI PUSH1 0x1 PUSH0 PUSH0 DUP6 DUP2 MSTORE PUSH1 0x20 ADD SWAP1 DUP2 MSTORE PUSH1 0x20 ADD PUSH0 KECCAK256 PUSH0 ADD PUSH0 DUP5 PUSH20 0xFFFFFFFFFFFFFFFFFFFFFFFFFFFFFFFFFFFFFFFF AND PUSH20 0xFFFFFFFFFFFFFFFFFFFFFFFFFFFFFFFFFFFFFFFF AND DUP2 MSTORE PUSH1 0x20 ADD SWAP1 DUP2 MSTORE PUSH1 0x20 ADD PUSH0 KECCAK256 PUSH0 PUSH2 0x100 EXP DUP2 SLOAD DUP2 PUSH1 0xFF MUL NOT AND SWAP1 DUP4 ISZERO ISZERO MUL OR SWAP1 SSTORE POP PUSH2 0x993 PUSH2 0xA00 JUMP JUMPDEST PUSH20 0xFFFFFFFFFFFFFFFFFFFFFFFFFFFFFFFFFFFFFFFF AND DUP3 PUSH20 0xFFFFFFFFFFFFFFFFFFFFFFFFFFFFFFFFFFFFFFFF AND DUP5 PUSH32 0x2F8788117E7EFF1D82E926EC794901D17C78024A50270940304540A733656F0D PUSH1 0x40 MLOAD PUSH1 0x40 MLOAD DUP1 SWAP2 SUB SWAP1 LOG4 PUSH1 0x1 SWAP1 POP PUSH2 0x9FA JUMP JUMPDEST PUSH0 SWAP1 POP JUMPDEST SWAP3 SWAP2 POP POP JUMP JUMPDEST PUSH0 CALLER SWAP1 POP SWAP1 JUMP JUMPDEST PUSH0 PUSH2 0xA12 DUP4 DUP4 PUSH2 0x68D JUMP JUMPDEST ISZERO PUSH2 0xAE6 JUMPI PUSH0 PUSH0 PUSH0 DUP6 DUP2 MSTORE PUSH1 0x20 ADD SWAP1 DUP2 MSTORE PUSH1 0x20 ADD PUSH0 KECCAK256 PUSH0 ADD PUSH0 DUP5 PUSH20 0xFFFFFFFFFFFFFFFFFFFFFFFFFFFFFFFFFFFFFFFF AND PUSH20 0xFFFFFFFFFFFFFFFFFFFFFFFFFFFFFFFFFFFFFFFF AND DUP2 MSTORE PUSH1 0x20 ADD SWAP1 DUP2 MSTORE PUSH1 0x20 ADD PUSH0 KECCAK256 PUSH0 PUSH2 0x100 EXP DUP2 SLOAD DUP2 PUSH1 0xFF MUL NOT AND SWAP1 DUP4 ISZERO ISZERO MUL OR SWAP1 SSTORE POP PUSH2 0xA83 PUSH2 0xA00 JUMP JUMPDEST PUSH20 0xFFFFFFFFFFFFFFFFFFFFFFFFFFFFFFFFFFFFFFFF AND DUP3 PUSH20 0xFFFFFFFFFFFFFFFFFFFFFFFFFFFFFFFFFFFFFFFF AND DUP5 PUSH32 0xF6391F5C32D9C69D2A47EA670B442974B53935D1EDC7FD64EB21E047A839171B PUSH1 0x40 MLOAD PUSH1 0x40 MLOAD DUP1 SWAP2 SUB SWAP1 LOG4 PUSH1 0x1 SWAP1 POP PUSH2 0xAEA JUMP JUMPDEST PUSH0 SWAP1 POP JUMPDEST SWAP3 SWAP2 POP POP JUMP JUMPDEST PUSH2 0xAFA DUP3 DUP3 PUSH2 0x68D JUMP JUMPDEST PUSH2 0xB3D JUMPI DUP1 DUP3 PUSH1 0x40 MLOAD PUSH32 0xE2517D3F00000000000000000000000000000000000000000000000000000000 DUP2 MSTORE PUSH1 0x4 ADD PUSH2 0xB34 SWAP3 SWAP2 SWAP1 PUSH2 0xF0A JUMP JUMPDEST PUSH1 0x40 MLOAD DUP1 SWAP2 SUB SWAP1 REVERT JUMPDEST POP POP JUMP JUMPDEST PUSH0 PUSH0 REVERT JUMPDEST PUSH0 PUSH32 0xFFFFFFFF00000000000000000000000000000000000000000000000000000000 DUP3 AND SWAP1 POP SWAP2 SWAP1 POP JUMP JUMPDEST PUSH2 0xB79 DUP2 PUSH2 0xB45 JUMP JUMPDEST DUP2 EQ PUSH2 0xB83 JUMPI PUSH0 PUSH0 REVERT JUMPDEST POP JUMP JUMPDEST PUSH0 DUP2 CALLDATALOAD SWAP1 POP PUSH2 0xB94 DUP2 PUSH2 0xB70 JUMP JUMPDEST SWAP3 SWAP2 POP POP JUMP JUMPDEST PUSH0 PUSH1 0x20 DUP3 DUP5 SUB SLT ISZERO PUSH2 0xBAF JUMPI PUSH2 0xBAE PUSH2 0xB41 JUMP JUMPDEST JUMPDEST PUSH0 PUSH2 0xBBC DUP5 DUP3 DUP6 ADD PUSH2 0xB86 JUMP JUMPDEST SWAP2 POP POP SWAP3 SWAP2 POP POP JUMP JUMPDEST PUSH0 DUP2 ISZERO ISZERO SWAP1 POP SWAP2 SWAP1 POP JUMP JUMPDEST PUSH2 0xBD9 DUP2 PUSH2 0xBC5 JUMP JUMPDEST DUP3 MSTORE POP POP JUMP JUMPDEST PUSH0 PUSH1 0x20 DUP3 ADD SWAP1 POP PUSH2 0xBF2 PUSH0 DUP4 ADD DUP5 PUSH2 0xBD0 JUMP JUMPDEST SWAP3 SWAP2 POP POP JUMP JUMPDEST PUSH0 DUP2 SWAP1 POP SWAP2 SWAP1 POP JUMP JUMPDEST PUSH2 0xC0A DUP2 PUSH2 0xBF8 JUMP JUMPDEST DUP3 MSTORE POP POP JUMP JUMPDEST PUSH0 PUSH1 0x20 DUP3 ADD SWAP1 POP PUSH2 0xC23 PUSH0 DUP4 ADD DUP5 PUSH2 0xC01 JUMP JUMPDEST SWAP3 SWAP2 POP POP JUMP JUMPDEST PUSH0 PUSH20 0xFFFFFFFFFFFFFFFFFFFFFFFFFFFFFFFFFFFFFFFF DUP3 AND SWAP1 POP SWAP2 SWAP1 POP JUMP JUMPDEST PUSH0 PUSH2 0xC52 DUP3 PUSH2 0xC29 JUMP JUMPDEST SWAP1 POP SWAP2 SWAP1 POP JUMP JUMPDEST PUSH2 0xC62 DUP2 PUSH2 0xC48 JUMP JUMPDEST DUP2 EQ PUSH2 0xC6C JUMPI PUSH0 PUSH0 REVERT JUMPDEST POP JUMP JUMPDEST PUSH0 DUP2 CALLDATALOAD SWAP1 POP PUSH2 0xC7D DUP2 PUSH2 0xC59 JUMP JUMPDEST SWAP3 SWAP2 POP POP JUMP JUMPDEST PUSH0 PUSH1 0x20 DUP3 DUP5 SUB SLT ISZERO PUSH2 0xC98 JUMPI PUSH2 0xC97 PUSH2 0xB41 JUMP JUMPDEST JUMPDEST PUSH0 PUSH2 0xCA5 DUP5 DUP3 DUP6 ADD PUSH2 0xC6F JUMP JUMPDEST SWAP2 POP POP SWAP3 SWAP2 POP POP JUMP JUMPDEST PUSH0 PUSH1 0xFF DUP3 AND SWAP1 POP SWAP2 SWAP1 POP JUMP JUMPDEST PUSH2 0xCC3 DUP2 PUSH2 0xCAE JUMP JUMPDEST DUP3 MSTORE POP POP JUMP JUMPDEST PUSH0 PUSH1 0x20 DUP3 ADD SWAP1 POP PUSH2 0xCDC PUSH0 DUP4 ADD DUP5 PUSH2 0xCBA JUMP JUMPDEST SWAP3 SWAP2 POP POP JUMP JUMPDEST PUSH2 0xCEB DUP2 PUSH2 0xBC5 JUMP JUMPDEST DUP2 EQ PUSH2 0xCF5 JUMPI PUSH0 PUSH0 REVERT JUMPDEST POP JUMP JUMPDEST PUSH0 DUP2 CALLDATALOAD SWAP1 POP PUSH2 0xD06 DUP2 PUSH2 0xCE2 JUMP JUMPDEST SWAP3 SWAP2 POP POP JUMP JUMPDEST PUSH0 PUSH0 PUSH1 0x40 DUP4 DUP6 SUB SLT ISZERO PUSH2 0xD22 JUMPI PUSH2 0xD21 PUSH2 0xB41 JUMP JUMPDEST JUMPDEST PUSH0 PUSH2 0xD2F DUP6 DUP3 DUP7 ADD PUSH2 0xC6F JUMP JUMPDEST SWAP3 POP POP PUSH1 0x20 PUSH2 0xD40 DUP6 DUP3 DUP7 ADD PUSH2 0xCF8 JUMP JUMPDEST SWAP2 POP POP SWAP3 POP SWAP3 SWAP1 POP JUMP JUMPDEST PUSH2 0xD53 DUP2 PUSH2 0xBF8 JUMP JUMPDEST DUP2 EQ PUSH2 0xD5D JUMPI PUSH0 PUSH0 REVERT JUMPDEST POP JUMP JUMPDEST PUSH0 DUP2 CALLDATALOAD SWAP1 POP PUSH2 0xD6E DUP2 PUSH2 0xD4A JUMP JUMPDEST SWAP3 SWAP2 POP POP JUMP JUMPDEST PUSH0 PUSH1 0x20 DUP3 DUP5 SUB SLT ISZERO PUSH2 0xD89 JUMPI PUSH2 0xD88 PUSH2 0xB41 JUMP JUMPDEST JUMPDEST PUSH0 PUSH2 0xD96 DUP5 DUP3 DUP6 ADD PUSH2 0xD60 JUMP JUMPDEST SWAP2 POP POP SWAP3 SWAP2 POP POP JUMP JUMPDEST PUSH0 PUSH0 PUSH1 0x40 DUP4 DUP6 SUB SLT ISZERO PUSH2 0xDB5 JUMPI PUSH2 0xDB4 PUSH2 0xB41 JUMP JUMPDEST JUMPDEST PUSH0 PUSH2 0xDC2 DUP6 DUP3 DUP7 ADD PUSH2 0xD60 JUMP JUMPDEST SWAP3 POP POP PUSH1 0x20 PUSH2 0xDD3 DUP6 DUP3 DUP7 ADD PUSH2 0xC6F JUMP JUMPDEST SWAP2 POP POP SWAP3 POP SWAP3 SWAP1 POP JUMP JUMPDEST PUSH0 PUSH32 0xFFFF000000000000000000000000000000000000000000000000000000000000 DUP3 AND SWAP1 POP SWAP2 SWAP1 POP JUMP JUMPDEST PUSH2 0xE11 DUP2 PUSH2 0xDDD JUMP JUMPDEST DUP2 EQ PUSH2 0xE1B JUMPI PUSH0 PUSH0 REVERT JUMPDEST POP JUMP JUMPDEST PUSH0 DUP2 CALLDATALOAD SWAP1 POP PUSH2 0xE2C DUP2 PUSH2 0xE08 JUMP JUMPDEST SWAP3 SWAP2 POP POP JUMP JUMPDEST PUSH2 0xE3B DUP2 PUSH2 0xCAE JUMP JUMPDEST DUP2 EQ PUSH2 0xE45 JUMPI PUSH0 PUSH0 REVERT JUMPDEST POP JUMP JUMPDEST PUSH0 DUP2 CALLDATALOAD SWAP1 POP PUSH2 0xE56 DUP2 PUSH2 0xE32 JUMP JUMPDEST SWAP3 SWAP2 POP POP JUMP JUMPDEST PUSH0 PUSH0 PUSH0 PUSH1 0x60 DUP5 DUP7 SUB SLT ISZERO PUSH2 0xE73 JUMPI PUSH2 0xE72 PUSH2 0xB41 JUMP JUMPDEST JUMPDEST PUSH0 PUSH2 0xE80 DUP7 DUP3 DUP8 ADD PUSH2 0xC6F JUMP JUMPDEST SWAP4 POP POP PUSH1 0x20 PUSH2 0xE91 DUP7 DUP3 DUP8 ADD PUSH2 0xE1E JUMP JUMPDEST SWAP3 POP POP PUSH1 0x40 PUSH2 0xEA2 DUP7 DUP3 DUP8 ADD PUSH2 0xE48 JUMP JUMPDEST SWAP2 POP POP SWAP3 POP SWAP3 POP SWAP3 JUMP JUMPDEST PUSH2 0xEB5 DUP2 PUSH2 0xDDD JUMP JUMPDEST DUP3 MSTORE POP POP JUMP JUMPDEST PUSH0 PUSH1 0x20 DUP3 ADD SWAP1 POP PUSH2 0xECE PUSH0 DUP4 ADD DUP5 PUSH2 0xEAC JUMP JUMPDEST SWAP3 SWAP2 POP POP JUMP JUMPDEST PUSH0 PUSH1 0x40 DUP3 ADD SWAP1 POP PUSH2 0xEE7 PUSH0 DUP4 ADD DUP6 PUSH2 0xEAC JUMP JUMPDEST PUSH2 0xEF4 PUSH1 0x20 DUP4 ADD DUP5 PUSH2 0xCBA JUMP JUMPDEST SWAP4 SWAP3 POP POP POP JUMP JUMPDEST PUSH2 0xF04 DUP2 PUSH2 0xC48 JUMP JUMPDEST DUP3 MSTORE POP POP JUMP JUMPDEST PUSH0 PUSH1 0x40 DUP3 ADD SWAP1 POP PUSH2 0xF1D PUSH0 DUP4 ADD DUP6 PUSH2 0xEFB JUMP JUMPDEST PUSH2 0xF2A PUSH1 0x20 DUP4 ADD DUP5 PUSH2 0xC01 JUMP JUMPDEST SWAP4 SWAP3 POP POP POP JUMP INVALID LOG2 PUSH5 0x6970667358 0x22 SLT KECCAK256 0xAB EXP 0xAC MOD TSTORE JUMPDEST PUSH31 0x6E3B24A5C0BC3D9ACAD517C4A393335835A3F1A023DC23A1FD64736F6C6343 STOP ADDMOD 0x1E STOP CALLER "
				},
				"gasEstimates": {
					"creation": {
						"codeDepositCost": "788600",
						"executionCost": "infinite",
						"totalCost": "infinite"
					},
					"external": {
						"DEFAULT_ADMIN_ROLE()": "418",
						"KYC_ADMIN_ROLE()": "371",
						"SANCTIONS_ADMIN_ROLE()": "348",
						"getRoleAdmin(bytes32)": "infinite",
						"grantRole(bytes32,address)": "infinite",
						"hasRole(bytes32,address)": "3165",
						"investorTypeOf(address)": "2901",
						"isBlacklisted(address)": "2921",
						"isVerified(address)": "2855",
						"jurisdictionOf(address)": "2899",
						"renounceRole(bytes32,address)": "infinite",
						"revokeRole(bytes32,address)": "infinite",
						"setAttributes(address,bytes2,uint8)": "infinite",
						"setBlacklist(address,bool)": "infinite",
						"setKyc(address,bool)": "infinite",
						"supportsInterface(bytes4)": "741"
					}
				},
				"methodIdentifiers": {
					"DEFAULT_ADMIN_ROLE()": "a217fddf",
					"KYC_ADMIN_ROLE()": "02d7fd92",
					"SANCTIONS_ADMIN_ROLE()": "8c0cfbb0",
					"getRoleAdmin(bytes32)": "248a9ca3",
					"grantRole(bytes32,address)": "2f2ff15d",
					"hasRole(bytes32,address)": "91d14854",
					"investorTypeOf(address)": "05bd4970",
					"isBlacklisted(address)": "fe575a87",
					"isVerified(address)": "b9209e33",
					"jurisdictionOf(address)": "dce9571f",
					"renounceRole(bytes32,address)": "36568abe",
					"revokeRole(bytes32,address)": "d547741f",
					"setAttributes(address,bytes2,uint8)": "94792e8d",
					"setBlacklist(address,bool)": "153b0d1e",
					"setKyc(address,bool)": "7807aeba",
					"supportsInterface(bytes4)": "01ffc9a7"
				}
			},
			"storageLayout": {
				"storage": [
					{
						"astId": 175,
						"contract": "contracts/IdentityRegistry.sol:IdentityRegistry",
						"label": "_roles",
						"offset": 0,
						"slot": "0",
						"type": "t_mapping(t_bytes32,t_struct(RoleData)170_storage)"
					},
					{
						"astId": 19,
						"contract": "contracts/IdentityRegistry.sol:IdentityRegistry",
						"label": "isVerified",
						"offset": 0,
						"slot": "1",
						"type": "t_mapping(t_address,t_bool)"
					},
					{
						"astId": 23,
						"contract": "contracts/IdentityRegistry.sol:IdentityRegistry",
						"label": "isBlacklisted",
						"offset": 0,
						"slot": "2",
						"type": "t_mapping(t_address,t_bool)"
					},
					{
						"astId": 27,
						"contract": "contracts/IdentityRegistry.sol:IdentityRegistry",
						"label": "jurisdictionOf",
						"offset": 0,
						"slot": "3",
						"type": "t_mapping(t_address,t_bytes2)"
					},
					{
						"astId": 31,
						"contract": "contracts/IdentityRegistry.sol:IdentityRegistry",
						"label": "investorTypeOf",
						"offset": 0,
						"slot": "4",
						"type": "t_mapping(t_address,t_uint8)"
					}
				],
				"types": {
					"t_address": {
						"encoding": "inplace",
						"label": "address",
						"numberOfBytes": "20"
					},
					"t_bool": {
						"encoding": "inplace",
						"label": "bool",
						"numberOfBytes": "1"
					},
					"t_bytes2": {
						"encoding": "inplace",
						"label": "bytes2",
						"numberOfBytes": "2"
					},
					"t_bytes32": {
						"encoding": "inplace",
						"label": "bytes32",
						"numberOfBytes": "32"
					},
					"t_mapping(t_address,t_bool)": {
						"encoding": "mapping",
						"key": "t_address",
						"label": "mapping(address => bool)",
						"numberOfBytes": "32",
						"value": "t_bool"
					},
					"t_mapping(t_address,t_bytes2)": {
						"encoding": "mapping",
						"key": "t_address",
						"label": "mapping(address => bytes2)",
						"numberOfBytes": "32",
						"value": "t_bytes2"
					},
					"t_mapping(t_address,t_uint8)": {
						"encoding": "mapping",
						"key": "t_address",
						"label": "mapping(address => uint8)",
						"numberOfBytes": "32",
						"value": "t_uint8"
					},
					"t_mapping(t_bytes32,t_struct(RoleData)170_storage)": {
						"encoding": "mapping",
						"key": "t_bytes32",
						"label": "mapping(bytes32 => struct AccessControl.RoleData)",
						"numberOfBytes": "32",
						"value": "t_struct(RoleData)170_storage"
					},
					"t_struct(RoleData)170_storage": {
						"encoding": "inplace",
						"label": "struct AccessControl.RoleData",
						"members": [
							{
								"astId": 167,
								"contract": "contracts/IdentityRegistry.sol:IdentityRegistry",
								"label": "hasRole",
								"offset": 0,
								"slot": "0",
								"type": "t_mapping(t_address,t_bool)"
							},
							{
								"astId": 169,
								"contract": "contracts/IdentityRegistry.sol:IdentityRegistry",
								"label": "adminRole",
								"offset": 0,
								"slot": "1",
								"type": "t_bytes32"
							}
						],
						"numberOfBytes": "64"
					},
					"t_uint8": {
						"encoding": "inplace",
						"label": "uint8",
						"numberOfBytes": "1"
					}
				}
			},
			"userdoc": {
				"kind": "user",
				"methods": {},
				"notice": "Minimal Identity Registry (demo). Stores flags/attributes only (no PII). Roles:  - DEFAULT_ADMIN_ROLE  - KYC_ADMIN_ROLE: can set KYC + attributes  - SANCTIONS_ADMIN_ROLE: can set blacklist",
				"version": 1
			}
		}
	}
}