{
	"data": {
		"bytecode": {
			"linkReferences": {},
			"object": "60a0604052600160025f6101000a81548160ff0219169083151502179055503480156200002a575f80fd5b5060405162001376380380620013768339818101604052810190620000509190620004eb565b8273ffffffffffffffffffffffffffffffffffffffff1660808173ffffffffffffffffffffffffffffffffffffffff16815250505f5b82518110156200012d5760015f80858481518110620000aa57620000a962000582565b5b60200260200101517dffffffffffffffffffffffffffffffffffffffffffffffffffffffffffff19167dffffffffffffffffffffffffffffffffffffffffffffffffffffffffffff191681526020019081526020015f205f6101000a81548160ff02191690831515021790555080806200012490620005e5565b91505062000086565b505f5b81518110156200019b576001805f84848151811062000154576200015362000582565b5b602002602001015160ff1660ff1681526020019081526020015f205f6101000a81548160ff02191690831515021790555080806200019290620005e5565b91505062000130565b5050505062000631565b5f604051905090565b5f80fd5b5f80fd5b5f73ffffffffffffffffffffffffffffffffffffffff82169050919050565b5f620001e182620001b6565b9050919050565b620001f381620001d5565b8114620001fe575f80fd5b50565b5f815190506200021181620001e8565b92915050565b5f80fd5b5f601f19601f8301169050919050565b7f4e487b71000000000000000000000000000000000000000000000000000000005f52604160045260245ffd5b62000263826200021b565b810181811067ffffffffffffffff821117156200028557620002846200022b565b5b80604052505050565b5f62000299620001a5565b9050620002a7828262000258565b919050565b5f67ffffffffffffffff821115620002c957620002c86200022b565b5b602082029050602081019050919050565b5f80fd5b5f7fffff00000000000000000000000000000000000000000000000000000000000082169050919050565b6200031481620002de565b81146200031f575f80fd5b50565b5f81519050620003328162000309565b92915050565b5f6200034e6200034884620002ac565b6200028e565b90508083825260208201905060208402830185811115620003745762000373620002da565b5b835b81811015620003a157806200038c888262000322565b84526020840193505060208101905062000376565b5050509392505050565b5f82601f830112620003c257620003c162000217565b5b8151620003d484826020860162000338565b91505092915050565b5f67ffffffffffffffff821115620003fa57620003f96200022b565b5b602082029050602081019050919050565b5f60ff82169050919050565b62000422816200040b565b81146200042d575f80fd5b50565b5f81519050620004408162000417565b92915050565b5f6200045c6200045684620003dd565b6200028e565b90508083825260208201905060208402830185811115620004825762000481620002da565b5b835b81811015620004af57806200049a888262000430565b84526020840193505060208101905062000484565b5050509392505050565b5f82601f830112620004d057620004cf62000217565b5b8151620004e284826020860162000446565b91505092915050565b5f805f60608486031215620005055762000504620001ae565b5b5f620005148682870162000201565b935050602084015167ffffffffffffffff811115620005385762000537620001b2565b5b6200054686828701620003ab565b925050604084015167ffffffffffffffff8111156200056a5762000569620001b2565b5b6200057886828701620004b9565b9150509250925092565b7f4e487b71000000000000000000000000000000000000000000000000000000005f52603260045260245ffd5b7f4e487b71000000000000000000000000000000000000000000000000000000005f52601160045260245ffd5b5f819050919050565b5f620005f182620005dc565b91507fffffffffffffffffffffffffffffffffffffffffffffffffffffffffffffffff8203620006265762000625620005af565b5b600182019050919050565b608051610cf4620006825f395f8181610156015281816101af0152818161026e0152818161031b0152818161042301528181610520015281816105df0152818161068c01526107940152610cf45ff3fe608060405234801561000f575f80fd5b5060043610610055575f3560e01c8063227d18a8146100595780634bf4384414610089578063738fdd1a146100a75780639d6232fa146100c5578063a74e9f13146100f6575b5f80fd5b610073600480360381019061006e91906108e8565b610126565b604051610080919061092d565b60405180910390f35b610091610142565b60405161009e919061092d565b60405180910390f35b6100af610154565b6040516100bc91906109c0565b60405180910390f35b6100df60048036038101906100da9190610aa8565b610178565b6040516100ed929190610b3b565b60405180910390f35b610110600480360381019061010b9190610b98565b61086e565b60405161011d919061092d565b60405180910390f35b5f602052805f5260405f205f915054906101000a900460ff1681565b60025f9054906101000a900460ff1681565b7f000000000000000000000000000000000000000000000000000000000000000081565b5f805f73ffffffffffffffffffffffffffffffffffffffff168773ffffffffffffffffffffffffffffffffffffffff16146104eb577f000000000000000000000000000000000000000000000000000000000000000073ffffffffffffffffffffffffffffffffffffffff1663b9209e33886040518263ffffffff1660e01b81526004016102069190610bd2565b602060405180830381865afa158015610221573d5f803e3d5ffd5b505050506040513d601f19601f820116820180604052508101906102459190610c15565b610256575f6103e991509150610864565b60025f9054906101000a900460ff16801561030557507f000000000000000000000000000000000000000000000000000000000000000073ffffffffffffffffffffffffffffffffffffffff1663fe575a87886040518263ffffffff1660e01b81526004016102c59190610bd2565b602060405180830381865afa1580156102e0573d5f803e3d5ffd5b505050506040513d601f19601f820116820180604052508101906103049190610c15565b5b15610317575f6103eb91509150610864565b5f807f000000000000000000000000000000000000000000000000000000000000000073ffffffffffffffffffffffffffffffffffffffff1663dce9571f8a6040518263ffffffff1660e01b81526004016103729190610bd2565b602060405180830381865afa15801561038d573d5f803e3d5ffd5b505050506040513d601f19601f820116820180604052508101906103b19190610c54565b7dffffffffffffffffffffffffffffffffffffffffffffffffffffffffffff19167dffffffffffffffffffffffffffffffffffffffffffffffffffffffffffff191681526020019081526020015f205f9054906101000a900460ff1661041e575f6103ec91509150610864565b60015f7f000000000000000000000000000000000000000000000000000000000000000073ffffffffffffffffffffffffffffffffffffffff166305bd49708a6040518263ffffffff1660e01b815260040161047a9190610bd2565b602060405180830381865afa158015610495573d5f803e3d5ffd5b505050506040513d601f19601f820116820180604052508101906104b99190610c93565b60ff1660ff1681526020019081526020015f205f9054906101000a900460ff166104ea575f6103ed91509150610864565b5b5f73ffffffffffffffffffffffffffffffffffffffff168673ffffffffffffffffffffffffffffffffffffffff161461085c577f000000000000000000000000000000000000000000000000000000000000000073ffffffffffffffffffffffffffffffffffffffff1663b9209e33876040518263ffffffff1660e01b81526004016105779190610bd2565b602060405180830381865afa158015610592573d5f803e3d5ffd5b505050506040513d601f19601f820116820180604052508101906105b69190610c15565b6105c7575f6103ea91509150610864565b60025f9054906101000a900460ff16801561067657507f000000000000000000000000000000000000000000000000000000000000000073ffffffffffffffffffffffffffffffffffffffff1663fe575a87876040518263ffffffff1660e01b81526004016106369190610bd2565b602060405180830381865afa158015610651573d5f803e3d5ffd5b505050506040513d601f19601f820116820180604052508101906106759190610c15565b5b15610688575f6103eb91509150610864565b5f807f000000000000000000000000000000000000000000000000000000000000000073ffffffffffffffffffffffffffffffffffffffff1663dce9571f896040518263ffffffff1660e01b81526004016106e39190610bd2565b602060405180830381865afa1580156106fe573d5f803e3d5ffd5b505050506040513d601f19601f820116820180604052508101906107229190610c54565b7dffffffffffffffffffffffffffffffffffffffffffffffffffffffffffff19167dffffffffffffffffffffffffffffffffffffffffffffffffffffffffffff191681526020019081526020015f205f9054906101000a900460ff1661078f575f6103ec91509150610864565b60015f7f000000000000000000000000000000000000000000000000000000000000000073ffffffffffffffffffffffffffffffffffffffff166305bd4970896040518263ffffffff1660e01b81526004016107eb9190610bd2565b602060405180830381865afa158015610806573d5f803e3d5ffd5b505050506040513d601f19601f8201168201806040525081019061082a9190610c93565b60ff1660ff1681526020019081526020015f205f9054906101000a900460ff1661085b575f6103ed91509150610864565b5b60015f915091505b9550959350505050565b6001602052805f5260405f205f915054906101000a900460ff1681565b5f80fd5b5f80fd5b5f7fffff00000000000000000000000000000000000000000000000000000000000082169050919050565b6108c781610893565b81146108d1575f80fd5b50565b5f813590506108e2816108be565b92915050565b5f602082840312156108fd576108fc61088b565b5b5f61090a848285016108d4565b91505092915050565b5f8115159050919050565b61092781610913565b82525050565b5f6020820190506109405f83018461091e565b92915050565b5f73ffffffffffffffffffffffffffffffffffffffff82169050919050565b5f819050919050565b5f61098861098361097e84610946565b610965565b610946565b9050919050565b5f6109998261096e565b9050919050565b5f6109aa8261098f565b9050919050565b6109ba816109a0565b82525050565b5f6020820190506109d35f8301846109b1565b92915050565b5f6109e382610946565b9050919050565b6109f3816109d9565b81146109fd575f80fd5b50565b5f81359050610a0e816109ea565b92915050565b5f819050919050565b610a2681610a14565b8114610a30575f80fd5b50565b5f81359050610a4181610a1d565b92915050565b5f80fd5b5f80fd5b5f80fd5b5f8083601f840112610a6857610a67610a47565b5b8235905067ffffffffffffffff811115610a8557610a84610a4b565b5b602083019150836001820283011115610aa157610aa0610a4f565b5b9250929050565b5f805f805f60808688031215610ac157610ac061088b565b5b5f610ace88828901610a00565b9550506020610adf88828901610a00565b9450506040610af088828901610a33565b935050606086013567ffffffffffffffff811115610b1157610b1061088f565b5b610b1d88828901610a53565b92509250509295509295909350565b610b3581610a14565b82525050565b5f604082019050610b4e5f83018561091e565b610b5b6020830184610b2c565b9392505050565b5f60ff82169050919050565b610b7781610b62565b8114610b81575f80fd5b50565b5f81359050610b9281610b6e565b92915050565b5f60208284031215610bad57610bac61088b565b5b5f610bba84828501610b84565b91505092915050565b610bcc816109d9565b82525050565b5f602082019050610be55f830184610bc3565b92915050565b610bf481610913565b8114610bfe575f80fd5b50565b5f81519050610c0f81610beb565b92915050565b5f60208284031215610c2a57610c2961088b565b5b5f610c3784828501610c01565b91505092915050565b5f81519050610c4e816108be565b92915050565b5f60208284031215610c6957610c6861088b565b5b5f610c7684828501610c40565b91505092915050565b5f81519050610c8d81610b6e565b92915050565b5f60208284031215610ca857610ca761088b565b5b5f610cb584828501610c7f565b9150509291505056fea2646970667358221220047325ddf671d994dfb3be3b902ad25b42709e198d04cfdce84c2c3f8eff74f164736f6c63430008140033",
			"opcodes": "PUSH1 0xA0 PUSH1 0x40 MSTORE PUSH1 0x1 PUSH1 0x2 PUSH0 PUSH2 0x100 EXP DUP2 SLOAD DUP2 PUSH1 0xFF MUL NOT AND SWAP1 DUP4 ISZERO ISZERO MUL OR SWAP1 SSTORE POP CALLVALUE DUP1 ISZERO PUSH3 0x2A JUMPI PUSH0 DUP1 REVERT JUMPDEST POP PUSH1 0x40 MLOAD PUSH3 0x1376 CODESIZE SUB DUP1 PUSH3 0x1376 DUP4 CODECOPY DUP2 DUP2 ADD PUSH1 0x40 MSTORE DUP2 ADD SWAP1 PUSH3 0x50 SWAP2 SWAP1 PUSH3 0x4EB JUMP JUMPDEST DUP3 PUSH20 0xFFFFFFFFFFFFFFFFFFFFFFFFFFFFFFFFFFFFFFFF AND PUSH1 0x80 DUP2 PUSH20 0xFFFFFFFFFFFFFFFFFFFFFFFFFFFFFFFFFFFFFFFF AND DUP2 MSTORE POP POP PUSH0 JUMPDEST DUP3 MLOAD DUP2 LT ISZERO PUSH3 0x12D JUMPI PUSH1 0x1 PUSH0 DUP1 DUP6 DUP5 DUP2 MLOAD DUP2 LT PUSH3 0xAA JUMPI PUSH3 0xA9 PUSH3 0x582 JUMP JUMPDEST JUMPDEST PUSH1 0x20 MUL PUSH1 0x20 ADD ADD MLOAD PUSH30 0xFFFFFFFFFFFFFFFFFFFFFFFFFFFFFFFFFFFFFFFFFFFFFFFFFFFFFFFFFFFF NOT AND PUSH30 0xFFFFFFFFFFFFFFFFFFFFFFFFFFFFFFFFFFFFFFFFFFFFFFFFFFFFFFFFFFFF NOT AND DUP2 MSTORE PUSH1 0x20 ADD SWAP1 DUP2 MSTORE PUSH1 0x20 ADD PUSH0 KECCAK256 PUSH0 PUSH2 0x100 EXP DUP2 SLOAD DUP2 PUSH1 0xFF MUL NOT AND SWAP1 DUP4 ISZERO ISZERO MUL OR SWAP1 SSTORE POP DUP1 DUP1 PUSH3 0x124 SWAP1 PUSH3 0x5E5 JUMP JUMPDEST SWAP2 POP POP PUSH3 0x86 JUMP JUMPDEST POP PUSH0 JUMPDEST DUP2 MLOAD DUP2 LT ISZERO PUSH3 0x19B JUMPI PUSH1 0x1 DUP1 PUSH0 DUP5 DUP5 DUP2 MLOAD DUP2 LT PUSH3 0x154 JUMPI PUSH3 0x153 PUSH3 0x582 JUMP JUMPDEST JUMPDEST PUSH1 0x20 MUL PUSH1 0x20 ADD ADD MLOAD PUSH1 0xFF AND PUSH1 0xFF AND DUP2 MSTORE PUSH1 0x20 ADD SWAP1 DUP2 MSTORE PUSH1 0x20 ADD PUSH0 KECCAK256 PUSH0 PUSH2 0x100 EXP DUP2 SLOAD DUP2 PUSH1 0xFF MUL NOT AND SWAP1 DUP4 ISZERO ISZERO MUL OR SWAP1 SSTORE POP DUP1 DUP1 PUSH3 0x192 SWAP1 PUSH3 0x5E5 JUMP JUMPDEST SWAP2 POP POP PUSH3 0x130 JUMP JUMPDEST POP POP POP POP PUSH3 0x631 JUMP JUMPDEST PUSH0 PUSH1 0x40 MLOAD SWAP1 POP SWAP1 JUMP JUMPDEST PUSH0 DUP1 REVERT JUMPDEST PUSH0 DUP1 REVERT JUMPDEST PUSH0 PUSH20 0xFFFFFFFFFFFFFFFFFFFFFFFFFFFFFFFFFFFFFFFF DUP3 AND SWAP1 POP SWAP2 SWAP1 POP JUMP JUMPDEST PUSH0 PUSH3 0x1E1 DUP3 PUSH3 0x1B6 JUMP JUMPDEST SWAP1 POP SWAP2 SWAP1 POP JUMP JUMPDEST PUSH3 0x1F3 DUP2 PUSH3 0x1D5 JUMP JUMPDEST DUP2 EQ PUSH3 0x1FE JUMPI PUSH0 DUP1 REVERT JUMPDEST POP JUMP JUMPDEST PUSH0 DUP2 MLOAD SWAP1 POP PUSH3 0x211 DUP2 PUSH3 0x1E8 JUMP JUMPDEST SWAP3 SWAP2 POP POP JUMP JUMPDEST PUSH0 DUP1 REVERT JUMPDEST PUSH0 PUSH1 0x1F NOT PUSH1 0x1F DUP4 ADD AND SWAP1 POP SWAP2 SWAP1 POP JUMP JUMPDEST PUSH32 0x4E487B7100000000000000000000000000000000000000000000000000000000 PUSH0 MSTORE PUSH1 0x41 PUSH1 0x4 MSTORE PUSH1 0x24 PUSH0 REVERT JUMPDEST PUSH3 0x263 DUP3 PUSH3 0x21B JUMP JUMPDEST DUP2 ADD DUP2 DUP2 LT PUSH8 0xFFFFFFFFFFFFFFFF DUP3 GT OR ISZERO PUSH3 0x285 JUMPI PUSH3 0x284 PUSH3 0x22B JUMP JUMPDEST JUMPDEST DUP1 PUSH1 0x40 MSTORE POP POP POP JUMP JUMPDEST PUSH0 PUSH3 0x299 PUSH3 0x1A5 JUMP JUMPDEST SWAP1 POP PUSH3 0x2A7 DUP3 DUP3 PUSH3 0x258 JUMP JUMPDEST SWAP2 SWAP1 POP JUMP JUMPDEST PUSH0 PUSH8 0xFFFFFFFFFFFFFFFF DUP3 GT ISZERO PUSH3 0x2C9 JUMPI PUSH3 0x2C8 PUSH3 0x22B JUMP JUMPDEST JUMPDEST PUSH1 0x20 DUP3 MUL SWAP1 POP PUSH1 0x20 DUP2 ADD SWAP1 POP SWAP2 SWAP1 POP JUMP JUMPDEST PUSH0 DUP1 REVERT JUMPDEST PUSH0 PUSH32 0xFFFF000000000000000000000000000000000000000000000000000000000000 DUP3 AND SWAP1 POP SWAP2 SWAP1 POP JUMP JUMPDEST PUSH3 0x314 DUP2 PUSH3 0x2DE JUMP JUMPDEST DUP2 EQ PUSH3 0x31F JUMPI PUSH0 DUP1 REVERT JUMPDEST POP JUMP JUMPDEST PUSH0 DUP2 MLOAD SWAP1 POP PUSH3 0x332 DUP2 PUSH3 0x309 JUMP JUMPDEST SWAP3 SWAP2 POP POP JUMP JUMPDEST PUSH0 PUSH3 0x34E PUSH3 0x348 DUP5 PUSH3 0x2AC JUMP JUMPDEST PUSH3 0x28E JUMP JUMPDEST SWAP1 POP DUP1 DUP4 DUP3 MSTORE PUSH1 0x20 DUP3 ADD SWAP1 POP PUSH1 0x20 DUP5 MUL DUP4 ADD DUP6 DUP2 GT ISZERO PUSH3 0x374 JUMPI PUSH3 0x373 PUSH3 0x2DA JUMP JUMPDEST JUMPDEST DUP4 JUMPDEST DUP2 DUP2 LT ISZERO PUSH3 0x3A1 JUMPI DUP1 PUSH3 0x38C DUP9 DUP3 PUSH3 0x322 JUMP JUMPDEST DUP5 MSTORE PUSH1 0x20 DUP5 ADD SWAP4 POP POP PUSH1 0x20 DUP2 ADD SWAP1 POP PUSH3 0x376 JUMP JUMPDEST POP POP POP SWAP4 SWAP3 POP POP POP JUMP JUMPDEST PUSH0 DUP3 PUSH1 0x1F DUP4 ADD SLT PUSH3 0x3C2 JUMPI PUSH3 0x3C1 PUSH3 0x217 JUMP JUMPDEST JUMPDEST DUP2 MLOAD PUSH3 0x3D4 DUP5 DUP3 PUSH1 0x20 DUP7 ADD PUSH3 0x338 JUMP JUMPDEST SWAP2 POP POP SWAP3 SWAP2 POP POP JUMP JUMPDEST PUSH0 PUSH8 0xFFFFFFFFFFFFFFFF DUP3 GT ISZERO PUSH3 0x3FA JUMPI PUSH3 0x3F9 PUSH3 0x22B JUMP JUMPDEST JUMPDEST PUSH1 0x20 DUP3 MUL SWAP1 POP PUSH1 0x20 DUP2 ADD SWAP1 POP SWAP2 SWAP1 POP JUMP JUMPDEST PUSH0 PUSH1 0xFF DUP3 AND SWAP1 POP SWAP2 SWAP1 POP JUMP JUMPDEST PUSH3 0x422 DUP2 PUSH3 0x40B JUMP JUMPDEST DUP2 EQ PUSH3 0x42D JUMPI PUSH0 DUP1 REVERT JUMPDEST POP JUMP JUMPDEST PUSH0 DUP2 MLOAD SWAP1 POP PUSH3 0x440 DUP2 PUSH3 0x417 JUMP JUMPDEST SWAP3 SWAP2 POP POP JUMP JUMPDEST PUSH0 PUSH3 0x45C PUSH3 0x456 DUP5 PUSH3 0x3DD JUMP JUMPDEST PUSH3 0x28E JUMP JUMPDEST SWAP1 POP DUP1 DUP4 DUP3 MSTORE PUSH1 0x20 DUP3 ADD SWAP1 POP PUSH1 0x20 DUP5 MUL DUP4 ADD DUP6 DUP2 GT ISZERO PUSH3 0x482 JUMPI PUSH3 0x481 PUSH3 0x2DA JUMP JUMPDEST JUMPDEST DUP4 JUMPDEST DUP2 DUP2 LT ISZERO PUSH3 0x4AF JUMPI DUP1 PUSH3 0x49A DUP9 DUP3 PUSH3 0x430 JUMP JUMPDEST DUP5 MSTORE PUSH1 0x20 DUP5 ADD SWAP4 POP POP PUSH1 0x20 DUP2 ADD SWAP1 POP PUSH3 0x484 JUMP JUMPDEST POP POP POP SWAP4 SWAP3 POP POP POP JUMP JUMPDEST PUSH0 DUP3 PUSH1 0x1F DUP4 ADD SLT PUSH3 0x4D0 JUMPI PUSH3 0x4CF PUSH3 0x217 JUMP JUMPDEST JUMPDEST DUP2 MLOAD PUSH3 0x4E2 DUP5 DUP3 PUSH1 0x20 DUP7 ADD PUSH3 0x446 JUMP JUMPDEST SWAP2 POP POP SWAP3 SWAP2 POP POP JUMP JUMPDEST PUSH0 DUP1 PUSH0 PUSH1 0x60 DUP5 DUP7 SUB SLT ISZERO PUSH3 0x505 JUMPI PUSH3 0x504 PUSH3 0x1AE JUMP JUMPDEST JUMPDEST PUSH0 PUSH3 0x514 DUP7 DUP3 DUP8 ADD PUSH3 0x201 JUMP JUMPDEST SWAP4 POP POP PUSH1 0x20 DUP5 ADD MLOAD PUSH8 0xFFFFFFFFFFFFFFFF DUP2 GT ISZERO PUSH3 0x538 JUMPI PUSH3 0x537 PUSH3 0x1B2 JUMP JUMPDEST JUMPDEST PUSH3 0x546 DUP7 DUP3 DUP8 ADD PUSH3 0x3AB JUMP JUMPDEST SWAP3 POP POP PUSH1 0x40 DUP5 ADD MLOAD PUSH8 0xFFFFFFFFFFFFFFFF DUP2 GT ISZERO PUSH3 0x56A JUMPI PUSH3 0x569 PUSH3 0x1B2 JUMP JUMPDEST JUMPDEST PUSH3 0x578 DUP7 DUP3 DUP8 ADD PUSH3 0x4B9 JUMP JUMPDEST SWAP2 POP POP SWAP3 POP SWAP3 POP SWAP3 JUMP JUMPDEST PUSH32 0x4E487B7100000000000000000000000000000000000000000000000000000000 PUSH0 MSTORE PUSH1 0x32 PUSH1 0x4 MSTORE PUSH1 0x24 PUSH0 REVERT JUMPDEST PUSH32 0x4E487B7100000000000000000000000000000000000000000000000000000000 PUSH0 MSTORE PUSH1 0x11 PUSH1 0x4 MSTORE PUSH1 0x24 PUSH0 REVERT JUMPDEST PUSH0 DUP2 SWAP1 POP SWAP2 SWAP1 POP JUMP JUMPDEST PUSH0 PUSH3 0x5F1 DUP3 PUSH3 0x5DC JUMP JUMPDEST SWAP2 POP PUSH32 0xFFFFFFFFFFFFFFFFFFFFFFFFFFFFFFFFFFFFFFFFFFFFFFFFFFFFFFFFFFFFFFFF DUP3 SUB PUSH3 0x626 JUMPI PUSH3 0x625 PUSH3 0x5AF JUMP JUMPDEST JUMPDEST PUSH1 0x1 DUP3 ADD SWAP1 POP SWAP2 SWAP1 POP JUMP JUMPDEST PUSH1 0x80 MLOAD PUSH2 0xCF4 PUSH3 0x682 PUSH0 CODECOPY PUSH0 DUP2 DUP2 PUSH2 0x156 ADD MSTORE DUP2 DUP2 PUSH2 0x1AF ADD MSTORE DUP2 DUP2 PUSH2 0x26E ADD MSTORE DUP2 DUP2 PUSH2 0x31B ADD MSTORE DUP2 DUP2 PUSH2 0x423 ADD MSTORE DUP2 DUP2 PUSH2 0x520 ADD MSTORE DUP2 DUP2 PUSH2 0x5DF ADD MSTORE DUP2 DUP2 PUSH2 0x68C ADD MSTORE PUSH2 0x794 ADD MSTORE PUSH2 0xCF4 PUSH0 RETURN INVALID PUSH1 0x80 PUSH1 0x40 MSTORE CALLVALUE DUP1 ISZERO PUSH2 0xF JUMPI PUSH0 DUP1 REVERT JUMPDEST POP PUSH1 0x4 CALLDATASIZE LT PUSH2 0x55 JUMPI PUSH0 CALLDATALOAD PUSH1 0xE0 SHR DUP1 PUSH4 0x227D18A8 EQ PUSH2 0x59 JUMPI DUP1 PUSH4 0x4BF43844 EQ PUSH2 0x89 JUMPI DUP1 PUSH4 0x738FDD1A EQ PUSH2 0xA7 JUMPI DUP1 PUSH4 0x9D6232FA EQ PUSH2 0xC5 JUMPI DUP1 PUSH4 0xA74E9F13 EQ PUSH2 0xF6 JUMPI JUMPDEST PUSH0 DUP1 REVERT JUMPDEST PUSH2 0x73 PUSH1 0x4 DUP1 CALLDATASIZE SUB DUP2 ADD SWAP1 PUSH2 0x6E SWAP2 SWAP1 PUSH2 0x8E8 JUMP JUMPDEST PUSH2 0x126 JUMP JUMPDEST PUSH1 0x40 MLOAD PUSH2 0x80 SWAP2 SWAP1 PUSH2 0x92D JUMP JUMPDEST PUSH1 0x40 MLOAD DUP1 SWAP2 SUB SWAP1 RETURN JUMPDEST PUSH2 0x91 PUSH2 0x142 JUMP JUMPDEST PUSH1 0x40 MLOAD PUSH2 0x9E SWAP2 SWAP1 PUSH2 0x92D JUMP JUMPDEST PUSH1 0x40 MLOAD DUP1 SWAP2 SUB SWAP1 RETURN JUMPDEST PUSH2 0xAF PUSH2 0x154 JUMP JUMPDEST PUSH1 0x40 MLOAD PUSH2 0xBC SWAP2 SWAP1 PUSH2 0x9C0 JUMP JUMPDEST PUSH1 0x40 MLOAD DUP1 SWAP2 SUB SWAP1 RETURN JUMPDEST PUSH2 0xDF PUSH1 0x4 DUP1 CALLDATASIZE SUB DUP2 ADD SWAP1 PUSH2 0xDA SWAP2 SWAP1 PUSH2 0xAA8 JUMP JUMPDEST PUSH2 0x178 JUMP JUMPDEST PUSH1 0x40 MLOAD PUSH2 0xED SWAP3 SWAP2 SWAP1 PUSH2 0xB3B JUMP JUMPDEST PUSH1 0x40 MLOAD DUP1 SWAP2 SUB SWAP1 RETURN JUMPDEST PUSH2 0x110 PUSH1 0x4 DUP1 CALLDATASIZE SUB DUP2 ADD SWAP1 PUSH2 0x10B SWAP2 SWAP1 PUSH2 0xB98 JUMP JUMPDEST PUSH2 0x86E JUMP JUMPDEST PUSH1 0x40 MLOAD PUSH2 0x11D SWAP2 SWAP1 PUSH2 0x92D JUMP JUMPDEST PUSH1 0x40 MLOAD DUP1 SWAP2 SUB SWAP1 RETURN JUMPDEST PUSH0 PUSH1 0x20 MSTORE DUP1 PUSH0 MSTORE PUSH1 0x40 PUSH0 KECCAK256 PUSH0 SWAP2 POP SLOAD SWAP1 PUSH2 0x100 EXP SWAP1 DIV PUSH1 0xFF AND DUP2 JUMP JUMPDEST PUSH1 0x2 PUSH0 SWAP1 SLOAD SWAP1 PUSH2 0x100 EXP SWAP1 DIV PUSH1 0xFF AND DUP2 JUMP JUMPDEST PUSH32 0x0 DUP2 JUMP JUMPDEST PUSH0 DUP1 PUSH0 PUSH20 0xFFFFFFFFFFFFFFFFFFFFFFFFFFFFFFFFFFFFFFFF AND DUP8 PUSH20 0xFFFFFFFFFFFFFFFFFFFFFFFFFFFFFFFFFFFFFFFF AND EQ PUSH2 0x4EB JUMPI PUSH32 0x0 PUSH20 0xFFFFFFFFFFFFFFFFFFFFFFFFFFFFFFFFFFFFFFFF AND PUSH4 0xB9209E33 DUP9 PUSH1 0x40 MLOAD DUP3 PUSH4 0xFFFFFFFF AND PUSH1 0xE0 SHL DUP2 MSTORE PUSH1 0x4 ADD PUSH2 0x206 SWAP2 SWAP1 PUSH2 0xBD2 JUMP JUMPDEST PUSH1 0x20 PUSH1 0x40 MLOAD DUP1 DUP4 SUB DUP2 DUP7 GAS STATICCALL ISZERO DUP1 ISZERO PUSH2 0x221 JUMPI RETURNDATASIZE PUSH0 DUP1 RETURNDATACOPY RETURNDATASIZE PUSH0 REVERT JUMPDEST POP POP POP POP PUSH1 0x40 MLOAD RETURNDATASIZE PUSH1 0x1F NOT PUSH1 0x1F DUP3 ADD AND DUP3 ADD DUP1 PUSH1 0x40 MSTORE POP DUP2 ADD SWAP1 PUSH2 0x245 SWAP2 SWAP1 PUSH2 0xC15 JUMP JUMPDEST PUSH2 0x256 JUMPI PUSH0 PUSH2 0x3E9 SWAP2 POP SWAP2 POP PUSH2 0x864 JUMP JUMPDEST PUSH1 0x2 PUSH0 SWAP1 SLOAD SWAP1 PUSH2 0x100 EXP SWAP1 DIV PUSH1 0xFF AND DUP1 ISZERO PUSH2 0x305 JUMPI POP PUSH32 0x0 PUSH20 0xFFFFFFFFFFFFFFFFFFFFFFFFFFFFFFFFFFFFFFFF AND PUSH4 0xFE575A87 DUP9 PUSH1 0x40 MLOAD DUP3 PUSH4 0xFFFFFFFF AND PUSH1 0xE0 SHL DUP2 MSTORE PUSH1 0x4 ADD PUSH2 0x2C5 SWAP2 SWAP1 PUSH2 0xBD2 JUMP JUMPDEST PUSH1 0x20 PUSH1 0x40 MLOAD DUP1 DUP4 SUB DUP2 DUP7 GAS STATICCALL ISZERO DUP1 ISZERO PUSH2 0x2E0 JUMPI RETURNDATASIZE PUSH0 DUP1 RETURNDATACOPY RETURNDATASIZE PUSH0 REVERT JUMPDEST POP POP POP POP PUSH1 0x40 MLOAD RETURNDATASIZE PUSH1 0x1F NOT PUSH1 0x1F DUP3 ADD AND DUP3 ADD DUP1 PUSH1 0x40 MSTORE POP DUP2 ADD SWAP1 PUSH2 0x304 SWAP2 SWAP1 PUSH2 0xC15 JUMP JUMPDEST JUMPDEST ISZERO PUSH2 0x317 JUMPI PUSH0 PUSH2 0x3EB SWAP2 POP SWAP2 POP PUSH2 0x864 JUMP JUMPDEST PUSH0 DUP1 PUSH32 0x0 PUSH20 0xFFFFFFFFFFFFFFFFFFFFFFFFFFFFFFFFFFFFFFFF AND PUSH4 0xDCE9571F DUP11 PUSH1 0x40 MLOAD DUP3 PUSH4 0xFFFFFFFF AND PUSH1 0xE0 SHL DUP2 MSTORE PUSH1 0x4 ADD PUSH2 0x372 SWAP2 SWAP1 PUSH2 0xBD2 JUMP JUMPDEST PUSH1 0x20 PUSH1 0x40 MLOAD DUP1 DUP4 SUB DUP2 DUP7 GAS STATICCALL ISZERO DUP1 ISZERO PUSH2 0x38D JUMPI RETURNDATASIZE PUSH0 DUP1 RETURNDATACOPY RETURNDATASIZE PUSH0 REVERT JUMPDEST POP POP POP POP PUSH1 0x40 MLOAD RETURNDATASIZE PUSH1 0x1F NOT PUSH1 0x1F DUP3 ADD AND DUP3 ADD DUP1 PUSH1 0x40 MSTORE POP DUP2 ADD SWAP1 PUSH2 0x3B1 SWAP2 SWAP1 PUSH2 0xC54 JUMP JUMPDEST PUSH30 0xFFFFFFFFFFFFFFFFFFFFFFFFFFFFFFFFFFFFFFFFFFFFFFFFFFFFFFFFFFFF NOT AND PUSH30 0xFFFFFFFFFFFFFFFFFFFFFFFFFFFFFFFFFFFFFFFFFFFFFFFFFFFFFFFFFFFF NOT AND DUP2 MSTORE PUSH1 0x20 ADD SWAP1 DUP2 MSTORE PUSH1 0x20 ADD PUSH0 KECCAK256 PUSH0 SWAP1 SLOAD SWAP1 PUSH2 0x100 EXP SWAP1 DIV PUSH1 0xFF AND PUSH2 0x41E JUMPI PUSH0 PUSH2 0x3EC SWAP2 POP SWAP2 POP PUSH2 0x864 JUMP JUMPDEST PUSH1 0x1 PUSH0 PUSH32 0x0 PUSH20 0xFFFFFFFFFFFFFFFFFFFFFFFFFFFFFFFFFFFFFFFF AND PUSH4 0x5BD4970 DUP11 PUSH1 0x40 MLOAD DUP3 PUSH4 0xFFFFFFFF AND PUSH1 0xE0 SHL DUP2 MSTORE PUSH1 0x4 ADD PUSH2 0x47A SWAP2 SWAP1 PUSH2 0xBD2 JUMP JUMPDEST PUSH1 0x20 PUSH1 0x40 MLOAD DUP1 DUP4 SUB DUP2 DUP7 GAS STATICCALL ISZERO DUP1 ISZERO PUSH2 0x495 JUMPI RETURNDATASIZE PUSH0 DUP1 RETURNDATACOPY RETURNDATASIZE PUSH0 REVERT JUMPDEST POP POP POP POP PUSH1 0x40 MLOAD RETURNDATASIZE PUSH1 0x1F NOT PUSH1 0x1F DUP3 ADD AND DUP3 ADD DUP1 PUSH1 0x40 MSTORE POP DUP2 ADD SWAP1 PUSH2 0x4B9 SWAP2 SWAP1 PUSH2 0xC93 JUMP JUMPDEST PUSH1 0xFF AND PUSH1 0xFF AND DUP2 MSTORE PUSH1 0x20 ADD SWAP1 DUP2 MSTORE PUSH1 0x20 ADD PUSH0 KECCAK256 PUSH0 SWAP1 SLOAD SWAP1 PUSH2 0x100 EXP SWAP1 DIV PUSH1 0xFF AND PUSH2 0x4EA JUMPI PUSH0 PUSH2 0x3ED SWAP2 POP SWAP2 POP PUSH2 0x864 JUMP JUMPDEST JUMPDEST PUSH0 PUSH20 0xFFFFFFFFFFFFFFFFFFFFFFFFFFFFFFFFFFFFFFFF AND DUP7 PUSH20 0xFFFFFFFFFFFFFFFFFFFFFFFFFFFFFFFFFFFFFFFF AND EQ PUSH2 0x85C JUMPI PUSH32 0x0 PUSH20 0xFFFFFFFFFFFFFFFFFFFFFFFFFFFFFFFFFFFFFFFF AND PUSH4 0xB9209E33 DUP8 PUSH1 0x40 MLOAD DUP3 PUSH4 0xFFFFFFFF AND PUSH1 0xE0 SHL DUP2 MSTORE PUSH1 0x4 ADD PUSH2 0x577 SWAP2 SWAP1 PUSH2 0xBD2 JUMP JUMPDEST PUSH1 0x20 PUSH1 0x40 MLOAD DUP1 DUP4 SUB DUP2 DUP7 GAS STATICCALL ISZERO DUP1 ISZERO PUSH2 0x592 JUMPI RETURNDATASIZE PUSH0 DUP1 RETURNDATACOPY RETURNDATASIZE PUSH0 REVERT JUMPDEST POP POP POP POP PUSH1 0x40 MLOAD RETURNDATASIZE PUSH1 0x1F NOT PUSH1 0x1F DUP3 ADD AND DUP3 ADD DUP1 PUSH1 0x40 MSTORE POP DUP2 ADD SWAP1 PUSH2 0x5B6 SWAP2 SWAP1 PUSH2 0xC15 JUMP JUMPDEST PUSH2 0x5C7 JUMPI PUSH0 PUSH2 0x3EA SWAP2 POP SWAP2 POP PUSH2 0x864 JUMP JUMPDEST PUSH1 0x2 PUSH0 SWAP1 SLOAD SWAP1 PUSH2 0x100 EXP SWAP1 DIV PUSH1 0xFF AND DUP1 ISZERO PUSH2 0x676 JUMPI POP PUSH32 0x0 PUSH20 0xFFFFFFFFFFFFFFFFFFFFFFFFFFFFFFFFFFFFFFFF AND PUSH4 0xFE575A87 DUP8 PUSH1 0x40 MLOAD DUP3 PUSH4 0xFFFFFFFF AND PUSH1 0xE0 SHL DUP2 MSTORE PUSH1 0x4 ADD PUSH2 0x636 SWAP2 SWAP1 PUSH2 0xBD2 JUMP JUMPDEST PUSH1 0x20 PUSH1 0x40 MLOAD DUP1 DUP4 SUB DUP2 DUP7 GAS STATICCALL ISZERO DUP1 ISZERO PUSH2 0x651 JUMPI RETURNDATASIZE PUSH0 DUP1 RETURNDATACOPY RETURNDATASIZE PUSH0 REVERT JUMPDEST POP POP POP POP PUSH1 0x40 MLOAD RETURNDATASIZE PUSH1 0x1F NOT PUSH1 0x1F DUP3 ADD AND DUP3 ADD DUP1 PUSH1 0x40 MSTORE POP DUP2 ADD SWAP1 PUSH2 0x675 SWAP2 SWAP1 PUSH2 0xC15 JUMP JUMPDEST JUMPDEST ISZERO PUSH2 0x688 JUMPI PUSH0 PUSH2 0x3EB SWAP2 POP SWAP2 POP PUSH2 0x864 JUMP JUMPDEST PUSH0 DUP1 PUSH32 0x0 PUSH20 0xFFFFFFFFFFFFFFFFFFFFFFFFFFFFFFFFFFFFFFFF AND PUSH4 0xDCE9571F DUP10 PUSH1 0x40 MLOAD DUP3 PUSH4 0xFFFFFFFF AND PUSH1 0xE0 SHL DUP2 MSTORE PUSH1 0x4 ADD PUSH2 0x6E3 SWAP2 SWAP1 PUSH2 0xBD2 JUMP JUMPDEST PUSH1 0x20 PUSH1 0x40 MLOAD DUP1 DUP4 SUB DUP2 DUP7 GAS STATICCALL ISZERO DUP1 ISZERO PUSH2 0x6FE JUMPI RETURNDATASIZE PUSH0 DUP1 RETURNDATACOPY RETURNDATASIZE PUSH0 REVERT JUMPDEST POP POP POP POP PUSH1 0x40 MLOAD RETURNDATASIZE PUSH1 0x1F NOT PUSH1 0x1F DUP3 ADD AND DUP3 ADD DUP1 PUSH1 0x40 MSTORE POP DUP2 ADD SWAP1 PUSH2 0x722 SWAP2 SWAP1 PUSH2 0xC54 JUMP JUMPDEST PUSH30 0xFFFFFFFFFFFFFFFFFFFFFFFFFFFFFFFFFFFFFFFFFFFFFFFFFFFFFFFFFFFF NOT AND PUSH30 0xFFFFFFFFFFFFFFFFFFFFFFFFFFFFFFFFFFFFFFFFFFFFFFFFFFFFFFFFFFFF NOT AND DUP2 MSTORE PUSH1 0x20 ADD SWAP1 DUP2 MSTORE PUSH1 0x20 ADD PUSH0 KECCAK256 PUSH0 SWAP1 SLOAD SWAP1 PUSH2 0x100 EXP SWAP1 DIV PUSH1 0xFF AND PUSH2 0x78F JUMPI PUSH0 PUSH2 0x3EC SWAP2 POP SWAP2 POP PUSH2 0x864 JUMP JUMPDEST PUSH1 0x1 PUSH0 PUSH32 0x0 PUSH20 0xFFFFFFFFFFFFFFFFFFFFFFFFFFFFFFFFFFFFFFFF AND PUSH4 0x5BD4970 DUP10 PUSH1 0x40 MLOAD DUP3 PUSH4 0xFFFFFFFF AND PUSH1 0xE0 SHL DUP2 MSTORE PUSH1 0x4 ADD PUSH2 0x7EB SWAP2 SWAP1 PUSH2 0xBD2 JUMP JUMPDEST PUSH1 0x20 PUSH1 0x40 MLOAD DUP1 DUP4 SUB DUP2 DUP7 GAS STATICCALL ISZERO DUP1 ISZERO PUSH2 0x806 JUMPI RETURNDATASIZE PUSH0 DUP1 RETURNDATACOPY RETURNDATASIZE PUSH0 REVERT JUMPDEST POP POP POP POP PUSH1 0x40 MLOAD RETURNDATASIZE PUSH1 0x1F NOT PUSH1 0x1F DUP3 ADD AND DUP3 ADD DUP1 PUSH1 0x40 MSTORE POP DUP2 ADD SWAP1 PUSH2 0x82A SWAP2 SWAP1 PUSH2 0xC93 JUMP JUMPDEST PUSH1 0xFF AND PUSH1 0xFF AND DUP2 MSTORE PUSH1 0x20 ADD SWAP1 DUP2 MSTORE PUSH1 0x20 ADD PUSH0 KECCAK256 PUSH0 SWAP1 SLOAD SWAP1 PUSH2 0x100 EXP SWAP1 DIV PUSH1 0xFF AND PUSH2 0x85B JUMPI PUSH0 PUSH2 0x3ED SWAP2 POP SWAP2 POP PUSH2 0x864 JUMP JUMPDEST JUMPDEST PUSH1 0x1 PUSH0 SWAP2 POP SWAP2 POP JUMPDEST SWAP6 POP SWAP6 SWAP4 POP POP POP POP JUMP JUMPDEST PUSH1 0x1 PUSH1 0x20 MSTORE DUP1 PUSH0 MSTORE PUSH1 0x40 PUSH0 KECCAK256 PUSH0 SWAP2 POP SLOAD SWAP1 PUSH2 0x100 EXP SWAP1 DIV PUSH1 0xFF AND DUP2 JUMP JUMPDEST PUSH0 DUP1 REVERT JUMPDEST PUSH0 DUP1 REVERT JUMPDEST PUSH0 PUSH32 0xFFFF000000000000000000000000000000000000000000000000000000000000 DUP3 AND SWAP1 POP SWAP2 SWAP1 POP JUMP JUMPDEST PUSH2 0x8C7 DUP2 PUSH2 0x893 JUMP JUMPDEST DUP2 EQ PUSH2 0x8D1 JUMPI PUSH0 DUP1 REVERT JUMPDEST POP JUMP JUMPDEST PUSH0 DUP2 CALLDATALOAD SWAP1 POP PUSH2 0x8E2 DUP2 PUSH2 0x8BE JUMP JUMPDEST SWAP3 SWAP2 POP POP JUMP JUMPDEST PUSH0 PUSH1 0x20 DUP3 DUP5 SUB SLT ISZERO PUSH2 0x8FD JUMPI PUSH2 0x8FC PUSH2 0x88B JUMP JUMPDEST JUMPDEST PUSH0 PUSH2 0x90A DUP5 DUP3 DUP6 ADD PUSH2 0x8D4 JUMP JUMPDEST SWAP2 POP POP SWAP3 SWAP2 POP POP JUMP JUMPDEST PUSH0 DUP2 ISZERO ISZERO SWAP1 POP SWAP2 SWAP1 POP JUMP JUMPDEST PUSH2 0x927 DUP2 PUSH2 0x913 JUMP JUMPDEST DUP3 MSTORE POP POP JUMP JUMPDEST PUSH0 PUSH1 0x20 DUP3 ADD SWAP1 POP PUSH2 0x940 PUSH0 DUP4 ADD DUP5 PUSH2 0x91E JUMP JUMPDEST SWAP3 SWAP2 POP POP JUMP JUMPDEST PUSH0 PUSH20 0xFFFFFFFFFFFFFFFFFFFFFFFFFFFFFFFFFFFFFFFF DUP3 AND SWAP1 POP SWAP2 SWAP1 POP JUMP JUMPDEST PUSH0 DUP2 SWAP1 POP SWAP2 SWAP1 POP JUMP JUMPDEST PUSH0 PUSH2 0x988 PUSH2 0x983 PUSH2 0x97E DUP5 PUSH2 0x946 JUMP JUMPDEST PUSH2 0x965 JUMP JUMPDEST PUSH2 0x946 JUMP JUMPDEST SWAP1 POP SWAP2 SWAP1 POP JUMP JUMPDEST PUSH0 PUSH2 0x999 DUP3 PUSH2 0x96E JUMP JUMPDEST SWAP1 POP SWAP2 SWAP1 POP JUMP JUMPDEST PUSH0 PUSH2 0x9AA DUP3 PUSH2 0x98F JUMP JUMPDEST SWAP1 POP SWAP2 SWAP1 POP JUMP JUMPDEST PUSH2 0x9BA DUP2 PUSH2 0x9A0 JUMP JUMPDEST DUP3 MSTORE POP POP JUMP JUMPDEST PUSH0 PUSH1 0x20 DUP3 ADD SWAP1 POP PUSH2 0x9D3 PUSH0 DUP4 ADD DUP5 PUSH2 0x9B1 JUMP JUMPDEST SWAP3 SWAP2 POP POP JUMP JUMPDEST PUSH0 PUSH2 0x9E3 DUP3 PUSH2 0x946 JUMP JUMPDEST SWAP1 POP SWAP2 SWAP1 POP JUMP JUMPDEST PUSH2 0x9F3 DUP2 PUSH2 0x9D9 JUMP JUMPDEST DUP2 EQ PUSH2 0x9FD JUMPI PUSH0 DUP1 REVERT JUMPDEST POP JUMP JUMPDEST PUSH0 DUP2 CALLDATALOAD SWAP1 POP PUSH2 0xA0E DUP2 PUSH2 0x9EA JUMP JUMPDEST SWAP3 SWAP2 POP POP JUMP JUMPDEST PUSH0 DUP2 SWAP1 POP SWAP2 SWAP1 POP JUMP JUMPDEST PUSH2 0xA26 DUP2 PUSH2 0xA14 JUMP JUMPDEST DUP2 EQ PUSH2 0xA30 JUMPI PUSH0 DUP1 REVERT JUMPDEST POP JUMP JUMPDEST PUSH0 DUP2 CALLDATALOAD SWAP1 POP PUSH2 0xA41 DUP2 PUSH2 0xA1D JUMP JUMPDEST SWAP3 SWAP2 POP POP JUMP JUMPDEST PUSH0 DUP1 REVERT JUMPDEST PUSH0 DUP1 REVERT JUMPDEST PUSH0 DUP1 REVERT JUMPDEST PUSH0 DUP1 DUP4 PUSH1 0x1F DUP5 ADD SLT PUSH2 0xA68 JUMPI PUSH2 0xA67 PUSH2 0xA47 JUMP JUMPDEST JUMPDEST DUP3 CALLDATALOAD SWAP1 POP PUSH8 0xFFFFFFFFFFFFFFFF DUP2 GT ISZERO PUSH2 0xA85 JUMPI PUSH2 0xA84 PUSH2 0xA4B JUMP JUMPDEST JUMPDEST PUSH1 0x20 DUP4 ADD SWAP2 POP DUP4 PUSH1 0x1 DUP3 MUL DUP4 ADD GT ISZERO PUSH2 0xAA1 JUMPI PUSH2 0xAA0 PUSH2 0xA4F JUMP JUMPDEST JUMPDEST SWAP3 POP SWAP3 SWAP1 POP JUMP JUMPDEST PUSH0 DUP1 PUSH0 DUP1 PUSH0 PUSH1 0x80 DUP7 DUP9 SUB SLT ISZERO PUSH2 0xAC1 JUMPI PUSH2 0xAC0 PUSH2 0x88B JUMP JUMPDEST JUMPDEST PUSH0 PUSH2 0xACE DUP9 DUP3 DUP10 ADD PUSH2 0xA00 JUMP JUMPDEST SWAP6 POP POP PUSH1 0x20 PUSH2 0xADF DUP9 DUP3 DUP10 ADD PUSH2 0xA00 JUMP JUMPDEST SWAP5 POP POP PUSH1 0x40 PUSH2 0xAF0 DUP9 DUP3 DUP10 ADD PUSH2 0xA33 JUMP JUMPDEST SWAP4 POP POP PUSH1 0x60 DUP7 ADD CALLDATALOAD PUSH8 0xFFFFFFFFFFFFFFFF DUP2 GT ISZERO PUSH2 0xB11 JUMPI PUSH2 0xB10 PUSH2 0x88F JUMP JUMPDEST JUMPDEST PUSH2 0xB1D DUP9 DUP3 DUP10 ADD PUSH2 0xA53 JUMP JUMPDEST SWAP3 POP SWAP3 POP POP SWAP3 SWAP6 POP SWAP3 SWAP6 SWAP1 SWAP4 POP JUMP JUMPDEST PUSH2 0xB35 DUP2 PUSH2 0xA14 JUMP JUMPDEST DUP3 MSTORE POP POP JUMP JUMPDEST PUSH0 PUSH1 0x40 DUP3 ADD SWAP1 POP PUSH2 0xB4E PUSH0 DUP4 ADD DUP6 PUSH2 0x91E JUMP JUMPDEST PUSH2 0xB5B PUSH1 0x20 DUP4 ADD DUP5 PUSH2 0xB2C JUMP JUMPDEST SWAP4 SWAP3 POP POP POP JUMP JUMPDEST PUSH0 PUSH1 0xFF DUP3 AND SWAP1 POP SWAP2 SWAP1 POP JUMP JUMPDEST PUSH2 0xB77 DUP2 PUSH2 0xB62 JUMP JUMPDEST DUP2 EQ PUSH2 0xB81 JUMPI PUSH0 DUP1 REVERT JUMPDEST POP JUMP JUMPDEST PUSH0 DUP2 CALLDATALOAD SWAP1 POP PUSH2 0xB92 DUP2 PUSH2 0xB6E JUMP JUMPDEST SWAP3 SWAP2 POP POP JUMP JUMPDEST PUSH0 PUSH1 0x20 DUP3 DUP5 SUB SLT ISZERO PUSH2 0xBAD JUMPI PUSH2 0xBAC PUSH2 0x88B JUMP JUMPDEST JUMPDEST PUSH0 PUSH2 0xBBA DUP5 DUP3 DUP6 ADD PUSH2 0xB84 JUMP JUMPDEST SWAP2 POP POP SWAP3 SWAP2 POP POP JUMP JUMPDEST PUSH2 0xBCC DUP2 PUSH2 0x9D9 JUMP JUMPDEST DUP3 MSTORE POP POP JUMP JUMPDEST PUSH0 PUSH1 0x20 DUP3 ADD SWAP1 POP PUSH2 0xBE5 PUSH0 DUP4 ADD DUP5 PUSH2 0xBC3 JUMP JUMPDEST SWAP3 SWAP2 POP POP JUMP JUMPDEST PUSH2 0xBF4 DUP2 PUSH2 0x913 JUMP JUMPDEST DUP2 EQ PUSH2 0xBFE JUMPI PUSH0 DUP1 REVERT JUMPDEST POP JUMP JUMPDEST PUSH0 DUP2 MLOAD SWAP1 POP PUSH2 0xC0F DUP2 PUSH2 0xBEB JUMP JUMPDEST SWAP3 SWAP2 POP POP JUMP JUMPDEST PUSH0 PUSH1 0x20 DUP3 DUP5 SUB SLT ISZERO PUSH2 0xC2A JUMPI PUSH2 0xC29 PUSH2 0x88B JUMP JUMPDEST JUMPDEST PUSH0 PUSH2 0xC37 DUP5 DUP3 DUP6 ADD PUSH2 0xC01 JUMP JUMPDEST SWAP2 POP POP SWAP3 SWAP2 POP POP JUMP JUMPDEST PUSH0 DUP2 MLOAD SWAP1 POP PUSH2 0xC4E DUP2 PUSH2 0x8BE JUMP JUMPDEST SWAP3 SWAP2 POP POP JUMP JUMPDEST PUSH0 PUSH1 0x20 DUP3 DUP5 SUB SLT ISZERO PUSH2 0xC69 JUMPI PUSH2 0xC68 PUSH2 0x88B JUMP JUMPDEST JUMPDEST PUSH0 PUSH2 0xC76 DUP5 DUP3 DUP6 ADD PUSH2 0xC40 JUMP JUMPDEST SWAP2 POP POP SWAP3 SWAP2 POP POP JUMP JUMPDEST PUSH0 DUP2 MLOAD SWAP1 POP PUSH2 0xC8D DUP2 PUSH2 0xB6E JUMP JUMPDEST SWAP3 SWAP2 POP POP JUMP JUMPDEST PUSH0 PUSH1 0x20 DUP3 DUP5 SUB SLT ISZERO PUSH2 0xCA8 JUMPI PUSH2 0xCA7 PUSH2 0x88B JUMP JUMPDEST JUMPDEST PUSH0 PUSH2 0xCB5 DUP5 DUP3 DUP6 ADD PUSH2 0xC7F JUMP JUMPDEST SWAP2 POP POP SWAP3 SWAP2 POP POP JUMP INVALID LOG2 PUSH5 0x6970667358 0x22 SLT KECCAK256 DIV PUSH20 0x25DDF671D994DFB3BE3B902AD25B42709E198D04 0xCF 0xDC 0xE8 0x4C 0x2C EXTCODEHASH DUP15 SELFDESTRUCT PUSH21 0xF164736F6C63430008140033000000000000000000 "
		},
		"gasEstimates": {
			"creation": {
				"codeDepositCost": "663200",
				"executionCost": "infinite",
				"totalCost": "infinite"
			},
			"external": {
				"allowedInvestorType(uint8)": "2857",
				"allowedJuris(bytes2)": "2768",
				"canTransfer(address,address,uint256,bytes)": "infinite",
				"disallowBlacklisted()": "2466",
				"reg()": "infinite"
			}
		},
		"methodIdentifiers": {
			"allowedInvestorType(uint8)": "a74e9f13",
			"allowedJuris(bytes2)": "227d18a8",
			"canTransfer(address,address,uint256,bytes)": "9d6232fa",
			"disallowBlacklisted()": "4bf43844",
			"reg()": "738fdd1a"
		}
	},
	"abi": [
		{
			"inputs": [
				{
					"internalType": "address",
					"name": "registry",
					"type": "address"
				},
				{
					"internalType": "bytes2[]",
					"name": "juris",
					"type": "bytes2[]"
				},
				{
					"internalType": "uint8[]",
					"name": "invTypes",
					"type": "uint8[]"
				}
			],
			"stateMutability": "nonpayable",
			"type": "constructor"
		},
		{
			"anonymous": false,
			"inputs": [
				{
					"indexed": false,
					"internalType": "bytes32",
					"name": "rulesHash",
					"type": "bytes32"
				},
				{
					"indexed": false,
					"internalType": "string",
					"name": "uri",
					"type": "string"
				}
			],
			"name": "RulesUpdated",
			"type": "event"
		},
		{
			"inputs": [
				{
					"internalType": "uint8",
					"name": "",
					"type": "uint8"
				}
			],
			"name": "allowedInvestorType",
			"outputs": [
				{
					"internalType": "bool",
					"name": "",
					"type": "bool"
				}
			],
			"stateMutability": "view",
			"type": "function"
		},
		{
			"inputs": [
				{
					"internalType": "bytes2",
					"name": "",
					"type": "bytes2"
				}
			],
			"name": "allowedJuris",
			"outputs": [
				{
					"internalType": "bool",
					"name": "",
					"type": "bool"
				}
			],
			"stateMutability": "view",
			"type": "function"
		},
		{
			"inputs": [
				{
					"internalType": "address",
					"name": "from",
					"type": "address"
				},
				{
					"internalType": "address",
					"name": "to",
					"type": "address"
				},
				{
					"internalType": "uint256",
					"name": "",
					"type": "uint256"
				},
				{
					"internalType": "bytes",
					"name": "",
					"type": "bytes"
				}
			],
			"name": "canTransfer",
			"outputs": [
				{
					"internalType": "bool",
					"name": "ok",
					"type": "bool"
				},
				{
					"internalType": "uint256",
					"name": "reason",
					"type": "uint256"
				}
			],
			"stateMutability": "view",
			"type": "function"
		},
		{
			"inputs": [],
			"name": "disallowBlacklisted",
			"outputs": [
				{
					"internalType": "bool",
					"name": "",
					"type": "bool"
				}
			],
			"stateMutability": "view",
			"type": "function"
		},
		{
			"inputs": [],
			"name": "reg",
			"outputs": [
				{
					"internalType": "contract IIdentityRegistry",
					"name": "",
					"type": "address"
				}
			],
			"stateMutability": "view",
			"type": "function"
		}
	]
}